{
	"NextFundMe/newfundme.sol": {
		"HelloWorld": {
			"abi": [
				{
					"inputs": [
						{
							"internalType": "string",
							"name": "ResetString",
							"type": "string"
						}
					],
					"name": "ResetHelloWorld",
					"outputs": [],
					"stateMutability": "nonpayable",
					"type": "function"
				},
				{
					"inputs": [
						{
							"internalType": "uint256",
							"name": "inid",
							"type": "uint256"
						},
						{
							"internalType": "string",
							"name": "instring",
							"type": "string"
						}
					],
					"name": "SetInfoStruct",
					"outputs": [],
					"stateMutability": "nonpayable",
					"type": "function"
				},
				{
					"inputs": [],
					"name": "sayHello",
					"outputs": [
						{
							"internalType": "string",
							"name": "ReturnBytes",
							"type": "string"
						}
					],
					"stateMutability": "view",
					"type": "function"
				},
				{
					"inputs": [],
					"name": "sayHelloAddinfo",
					"outputs": [
						{
							"internalType": "string",
							"name": "SayHello",
							"type": "string"
						}
					],
					"stateMutability": "view",
					"type": "function"
				}
			],
			"devdoc": {
				"kind": "dev",
				"methods": {},
				"version": 1
			},
			"evm": {
				"assembly": "    /* \"NextFundMe/newfundme.sol\":213:3900  contract HelloWorld{... */\n  mstore(0x40, 0x80)\n    /* \"NextFundMe/newfundme.sol\":253:257  true */\n  0x01\n    /* \"NextFundMe/newfundme.sol\":238:257  bool boolVar_1=true */\n  0x00\n  exp(0x0100, 0x00)\n  dup2\n  sload\n  dup2\n  0xff\n  mul\n  not\n  and\n  swap1\n  dup4\n  iszero\n  iszero\n  mul\n  or\n  swap1\n  sstore\n  pop\n    /* \"NextFundMe/newfundme.sol\":309:314  false */\n  0x00\n    /* \"NextFundMe/newfundme.sol\":294:314  bool boolVar_2=false */\n  0x00\n  exp(0x0100, 0x01)\n  dup2\n  sload\n  dup2\n  0xff\n  mul\n  not\n  and\n  swap1\n  dup4\n  iszero\n  iszero\n  mul\n  or\n  swap1\n  sstore\n  pop\n    /* \"NextFundMe/newfundme.sol\":337:340  100 */\n  0x64\n    /* \"NextFundMe/newfundme.sol\":320:340  uint256 testint =100 */\n  0x01\n  sstore\n    /* \"NextFundMe/newfundme.sol\":391:393  -8 */\n  0xfffffffffffffffffffffffffffffffffffffffffffffffffffffffffffffff8\n    /* \"NextFundMe/newfundme.sol\":376:393  int256 Varint =-8 */\n  0x02\n  sstore\n    /* \"NextFundMe/newfundme.sol\":436:467  bytes32 Varbytes=\"Hello World!\" */\n  sstore(0x03, 0x48656c6c6f20576f726c64210000000000000000000000000000000000000000)\n    /* \"NextFundMe/newfundme.sol\":591:622  string Strbytes=\"Hello Worlds!\" */\n  mload(0x40)\n  dup1\n  0x40\n  add\n  0x40\n  mstore\n  dup1\n  0x0d\n  dup2\n  mstore\n  0x20\n  add\n  0x48656c6c6f20576f726c64732100000000000000000000000000000000000000\n  dup2\n  mstore\n  pop\n  0x04\n  swap1\n  dup2\n  tag_1\n  swap2\n  swap1\n  tag_2\n  jump\t// in\ntag_1:\n  pop\n    /* \"NextFundMe/newfundme.sol\":875:917  0x5B38Da6a701c568545dCfcB03FcB875f56beddC4 */\n  0x5b38da6a701c568545dcfcb03fcb875f56beddc4\n    /* \"NextFundMe/newfundme.sol\":854:917  address VarAddress = 0x5B38Da6a701c568545dCfcB03FcB875f56beddC4 */\n  0x05\n  exp(0x0100, 0x00)\n  dup2\n  sload\n  dup2\n  0xffffffffffffffffffffffffffffffffffffffff\n  mul\n  not\n  and\n  swap1\n  dup4\n  0xffffffffffffffffffffffffffffffffffffffff\n  and\n  mul\n  or\n  swap1\n  sstore\n  pop\n    /* \"NextFundMe/newfundme.sol\":213:3900  contract HelloWorld{... */\n  callvalue\n  dup1\n  iszero\n  tag_3\n  jumpi\n  revert(0x00, 0x00)\ntag_3:\n  pop\n  jump(tag_4)\n    /* \"#utility.yul\":7:106   */\ntag_5:\n    /* \"#utility.yul\":59:65   */\n  0x00\n    /* \"#utility.yul\":93:98   */\n  dup2\n    /* \"#utility.yul\":87:99   */\n  mload\n    /* \"#utility.yul\":77:99   */\n  swap1\n  pop\n    /* \"#utility.yul\":7:106   */\n  swap2\n  swap1\n  pop\n  jump\t// out\n    /* \"#utility.yul\":112:292   */\ntag_6:\n    /* \"#utility.yul\":160:237   */\n  0x4e487b7100000000000000000000000000000000000000000000000000000000\n    /* \"#utility.yul\":157:158   */\n  0x00\n    /* \"#utility.yul\":150:238   */\n  mstore\n    /* \"#utility.yul\":257:261   */\n  0x41\n    /* \"#utility.yul\":254:255   */\n  0x04\n    /* \"#utility.yul\":247:262   */\n  mstore\n    /* \"#utility.yul\":281:285   */\n  0x24\n    /* \"#utility.yul\":278:279   */\n  0x00\n    /* \"#utility.yul\":271:286   */\n  revert\n    /* \"#utility.yul\":298:478   */\ntag_7:\n    /* \"#utility.yul\":346:423   */\n  0x4e487b7100000000000000000000000000000000000000000000000000000000\n    /* \"#utility.yul\":343:344   */\n  0x00\n    /* \"#utility.yul\":336:424   */\n  mstore\n    /* \"#utility.yul\":443:447   */\n  0x22\n    /* \"#utility.yul\":440:441   */\n  0x04\n    /* \"#utility.yul\":433:448   */\n  mstore\n    /* \"#utility.yul\":467:471   */\n  0x24\n    /* \"#utility.yul\":464:465   */\n  0x00\n    /* \"#utility.yul\":457:472   */\n  revert\n    /* \"#utility.yul\":484:804   */\ntag_8:\n    /* \"#utility.yul\":528:534   */\n  0x00\n    /* \"#utility.yul\":565:566   */\n  0x02\n    /* \"#utility.yul\":559:563   */\n  dup3\n    /* \"#utility.yul\":555:567   */\n  div\n    /* \"#utility.yul\":545:567   */\n  swap1\n  pop\n    /* \"#utility.yul\":612:613   */\n  0x01\n    /* \"#utility.yul\":606:610   */\n  dup3\n    /* \"#utility.yul\":602:614   */\n  and\n    /* \"#utility.yul\":633:651   */\n  dup1\n    /* \"#utility.yul\":623:704   */\n  tag_30\n  jumpi\n    /* \"#utility.yul\":689:693   */\n  0x7f\n    /* \"#utility.yul\":681:687   */\n  dup3\n    /* \"#utility.yul\":677:694   */\n  and\n    /* \"#utility.yul\":667:694   */\n  swap2\n  pop\n    /* \"#utility.yul\":623:704   */\ntag_30:\n    /* \"#utility.yul\":751:753   */\n  0x20\n    /* \"#utility.yul\":743:749   */\n  dup3\n    /* \"#utility.yul\":740:754   */\n  lt\n    /* \"#utility.yul\":720:738   */\n  dup2\n    /* \"#utility.yul\":717:755   */\n  sub\n    /* \"#utility.yul\":714:798   */\n  tag_31\n  jumpi\n    /* \"#utility.yul\":770:788   */\n  tag_32\n  tag_7\n  jump\t// in\ntag_32:\n    /* \"#utility.yul\":714:798   */\ntag_31:\n    /* \"#utility.yul\":535:804   */\n  pop\n    /* \"#utility.yul\":484:804   */\n  swap2\n  swap1\n  pop\n  jump\t// out\n    /* \"#utility.yul\":810:951   */\ntag_9:\n    /* \"#utility.yul\":859:863   */\n  0x00\n    /* \"#utility.yul\":882:885   */\n  dup2\n    /* \"#utility.yul\":874:885   */\n  swap1\n  pop\n    /* \"#utility.yul\":905:908   */\n  dup2\n    /* \"#utility.yul\":902:903   */\n  0x00\n    /* \"#utility.yul\":895:909   */\n  mstore\n    /* \"#utility.yul\":939:943   */\n  0x20\n    /* \"#utility.yul\":936:937   */\n  0x00\n    /* \"#utility.yul\":926:944   */\n  keccak256\n    /* \"#utility.yul\":918:944   */\n  swap1\n  pop\n    /* \"#utility.yul\":810:951   */\n  swap2\n  swap1\n  pop\n  jump\t// out\n    /* \"#utility.yul\":957:1050   */\ntag_10:\n    /* \"#utility.yul\":994:1000   */\n  0x00\n    /* \"#utility.yul\":1041:1043   */\n  0x20\n    /* \"#utility.yul\":1036:1038   */\n  0x1f\n    /* \"#utility.yul\":1029:1034   */\n  dup4\n    /* \"#utility.yul\":1025:1039   */\n  add\n    /* \"#utility.yul\":1021:1044   */\n  div\n    /* \"#utility.yul\":1011:1044   */\n  swap1\n  pop\n    /* \"#utility.yul\":957:1050   */\n  swap2\n  swap1\n  pop\n  jump\t// out\n    /* \"#utility.yul\":1056:1163   */\ntag_11:\n    /* \"#utility.yul\":1100:1108   */\n  0x00\n    /* \"#utility.yul\":1150:1155   */\n  dup3\n    /* \"#utility.yul\":1144:1148   */\n  dup3\n    /* \"#utility.yul\":1140:1156   */\n  shl\n    /* \"#utility.yul\":1119:1156   */\n  swap1\n  pop\n    /* \"#utility.yul\":1056:1163   */\n  swap3\n  swap2\n  pop\n  pop\n  jump\t// out\n    /* \"#utility.yul\":1169:1562   */\ntag_12:\n    /* \"#utility.yul\":1238:1244   */\n  0x00\n    /* \"#utility.yul\":1288:1289   */\n  0x08\n    /* \"#utility.yul\":1276:1286   */\n  dup4\n    /* \"#utility.yul\":1272:1290   */\n  mul\n    /* \"#utility.yul\":1311:1408   */\n  tag_37\n    /* \"#utility.yul\":1341:1407   */\n  0xffffffffffffffffffffffffffffffffffffffffffffffffffffffffffffffff\n    /* \"#utility.yul\":1330:1339   */\n  dup3\n    /* \"#utility.yul\":1311:1408   */\n  tag_11\n  jump\t// in\ntag_37:\n    /* \"#utility.yul\":1429:1468   */\n  tag_38\n    /* \"#utility.yul\":1459:1467   */\n  dup7\n    /* \"#utility.yul\":1448:1457   */\n  dup4\n    /* \"#utility.yul\":1429:1468   */\n  tag_11\n  jump\t// in\ntag_38:\n    /* \"#utility.yul\":1417:1468   */\n  swap6\n  pop\n    /* \"#utility.yul\":1501:1505   */\n  dup1\n    /* \"#utility.yul\":1497:1506   */\n  not\n    /* \"#utility.yul\":1490:1495   */\n  dup5\n    /* \"#utility.yul\":1486:1507   */\n  and\n    /* \"#utility.yul\":1477:1507   */\n  swap4\n  pop\n    /* \"#utility.yul\":1550:1554   */\n  dup1\n    /* \"#utility.yul\":1540:1548   */\n  dup7\n    /* \"#utility.yul\":1536:1555   */\n  and\n    /* \"#utility.yul\":1529:1534   */\n  dup5\n    /* \"#utility.yul\":1526:1556   */\n  or\n    /* \"#utility.yul\":1516:1556   */\n  swap3\n  pop\n    /* \"#utility.yul\":1245:1562   */\n  pop\n  pop\n    /* \"#utility.yul\":1169:1562   */\n  swap4\n  swap3\n  pop\n  pop\n  pop\n  jump\t// out\n    /* \"#utility.yul\":1568:1645   */\ntag_13:\n    /* \"#utility.yul\":1605:1612   */\n  0x00\n    /* \"#utility.yul\":1634:1639   */\n  dup2\n    /* \"#utility.yul\":1623:1639   */\n  swap1\n  pop\n    /* \"#utility.yul\":1568:1645   */\n  swap2\n  swap1\n  pop\n  jump\t// out\n    /* \"#utility.yul\":1651:1711   */\ntag_14:\n    /* \"#utility.yul\":1679:1682   */\n  0x00\n    /* \"#utility.yul\":1700:1705   */\n  dup2\n    /* \"#utility.yul\":1693:1705   */\n  swap1\n  pop\n    /* \"#utility.yul\":1651:1711   */\n  swap2\n  swap1\n  pop\n  jump\t// out\n    /* \"#utility.yul\":1717:1859   */\ntag_15:\n    /* \"#utility.yul\":1767:1776   */\n  0x00\n    /* \"#utility.yul\":1800:1853   */\n  tag_42\n    /* \"#utility.yul\":1818:1852   */\n  tag_43\n    /* \"#utility.yul\":1827:1851   */\n  tag_44\n    /* \"#utility.yul\":1845:1850   */\n  dup5\n    /* \"#utility.yul\":1827:1851   */\n  tag_13\n  jump\t// in\ntag_44:\n    /* \"#utility.yul\":1818:1852   */\n  tag_14\n  jump\t// in\ntag_43:\n    /* \"#utility.yul\":1800:1853   */\n  tag_13\n  jump\t// in\ntag_42:\n    /* \"#utility.yul\":1787:1853   */\n  swap1\n  pop\n    /* \"#utility.yul\":1717:1859   */\n  swap2\n  swap1\n  pop\n  jump\t// out\n    /* \"#utility.yul\":1865:1940   */\ntag_16:\n    /* \"#utility.yul\":1908:1911   */\n  0x00\n    /* \"#utility.yul\":1929:1934   */\n  dup2\n    /* \"#utility.yul\":1922:1934   */\n  swap1\n  pop\n    /* \"#utility.yul\":1865:1940   */\n  swap2\n  swap1\n  pop\n  jump\t// out\n    /* \"#utility.yul\":1946:2215   */\ntag_17:\n    /* \"#utility.yul\":2056:2095   */\n  tag_47\n    /* \"#utility.yul\":2087:2094   */\n  dup4\n    /* \"#utility.yul\":2056:2095   */\n  tag_15\n  jump\t// in\ntag_47:\n    /* \"#utility.yul\":2117:2208   */\n  tag_48\n    /* \"#utility.yul\":2166:2207   */\n  tag_49\n    /* \"#utility.yul\":2190:2206   */\n  dup3\n    /* \"#utility.yul\":2166:2207   */\n  tag_16\n  jump\t// in\ntag_49:\n    /* \"#utility.yul\":2158:2164   */\n  dup5\n    /* \"#utility.yul\":2151:2155   */\n  dup5\n    /* \"#utility.yul\":2145:2156   */\n  sload\n    /* \"#utility.yul\":2117:2208   */\n  tag_12\n  jump\t// in\ntag_48:\n    /* \"#utility.yul\":2111:2115   */\n  dup3\n    /* \"#utility.yul\":2104:2209   */\n  sstore\n    /* \"#utility.yul\":2022:2215   */\n  pop\n    /* \"#utility.yul\":1946:2215   */\n  pop\n  pop\n  pop\n  jump\t// out\n    /* \"#utility.yul\":2221:2294   */\ntag_18:\n    /* \"#utility.yul\":2266:2269   */\n  0x00\n    /* \"#utility.yul\":2287:2288   */\n  0x00\n    /* \"#utility.yul\":2280:2288   */\n  swap1\n  pop\n    /* \"#utility.yul\":2221:2294   */\n  swap1\n  jump\t// out\n    /* \"#utility.yul\":2300:2489   */\ntag_19:\n    /* \"#utility.yul\":2377:2409   */\n  tag_52\n  tag_18\n  jump\t// in\ntag_52:\n    /* \"#utility.yul\":2418:2483   */\n  tag_53\n    /* \"#utility.yul\":2476:2482   */\n  dup2\n    /* \"#utility.yul\":2468:2474   */\n  dup5\n    /* \"#utility.yul\":2462:2466   */\n  dup5\n    /* \"#utility.yul\":2418:2483   */\n  tag_17\n  jump\t// in\ntag_53:\n    /* \"#utility.yul\":2353:2489   */\n  pop\n    /* \"#utility.yul\":2300:2489   */\n  pop\n  pop\n  jump\t// out\n    /* \"#utility.yul\":2495:2681   */\ntag_20:\n    /* \"#utility.yul\":2555:2675   */\ntag_55:\n    /* \"#utility.yul\":2572:2575   */\n  dup2\n    /* \"#utility.yul\":2565:2570   */\n  dup2\n    /* \"#utility.yul\":2562:2576   */\n  lt\n    /* \"#utility.yul\":2555:2675   */\n  iszero\n  tag_57\n  jumpi\n    /* \"#utility.yul\":2626:2665   */\n  tag_58\n    /* \"#utility.yul\":2663:2664   */\n  0x00\n    /* \"#utility.yul\":2656:2661   */\n  dup3\n    /* \"#utility.yul\":2626:2665   */\n  tag_19\n  jump\t// in\ntag_58:\n    /* \"#utility.yul\":2599:2600   */\n  0x01\n    /* \"#utility.yul\":2592:2597   */\n  dup2\n    /* \"#utility.yul\":2588:2601   */\n  add\n    /* \"#utility.yul\":2579:2601   */\n  swap1\n  pop\n    /* \"#utility.yul\":2555:2675   */\n  jump(tag_55)\ntag_57:\n    /* \"#utility.yul\":2495:2681   */\n  pop\n  pop\n  jump\t// out\n    /* \"#utility.yul\":2687:3230   */\ntag_21:\n    /* \"#utility.yul\":2788:2790   */\n  0x1f\n    /* \"#utility.yul\":2783:2786   */\n  dup3\n    /* \"#utility.yul\":2780:2791   */\n  gt\n    /* \"#utility.yul\":2777:3223   */\n  iszero\n  tag_60\n  jumpi\n    /* \"#utility.yul\":2822:2860   */\n  tag_61\n    /* \"#utility.yul\":2854:2859   */\n  dup2\n    /* \"#utility.yul\":2822:2860   */\n  tag_9\n  jump\t// in\ntag_61:\n    /* \"#utility.yul\":2906:2935   */\n  tag_62\n    /* \"#utility.yul\":2924:2934   */\n  dup5\n    /* \"#utility.yul\":2906:2935   */\n  tag_10\n  jump\t// in\ntag_62:\n    /* \"#utility.yul\":2896:2904   */\n  dup2\n    /* \"#utility.yul\":2892:2936   */\n  add\n    /* \"#utility.yul\":3089:3091   */\n  0x20\n    /* \"#utility.yul\":3077:3087   */\n  dup6\n    /* \"#utility.yul\":3074:3092   */\n  lt\n    /* \"#utility.yul\":3071:3120   */\n  iszero\n  tag_63\n  jumpi\n    /* \"#utility.yul\":3110:3118   */\n  dup2\n    /* \"#utility.yul\":3095:3118   */\n  swap1\n  pop\n    /* \"#utility.yul\":3071:3120   */\ntag_63:\n    /* \"#utility.yul\":3133:3213   */\n  tag_64\n    /* \"#utility.yul\":3189:3211   */\n  tag_65\n    /* \"#utility.yul\":3207:3210   */\n  dup6\n    /* \"#utility.yul\":3189:3211   */\n  tag_10\n  jump\t// in\ntag_65:\n    /* \"#utility.yul\":3179:3187   */\n  dup4\n    /* \"#utility.yul\":3175:3212   */\n  add\n    /* \"#utility.yul\":3162:3173   */\n  dup3\n    /* \"#utility.yul\":3133:3213   */\n  tag_20\n  jump\t// in\ntag_64:\n    /* \"#utility.yul\":2792:3223   */\n  pop\n  pop\n    /* \"#utility.yul\":2777:3223   */\ntag_60:\n    /* \"#utility.yul\":2687:3230   */\n  pop\n  pop\n  pop\n  jump\t// out\n    /* \"#utility.yul\":3236:3353   */\ntag_22:\n    /* \"#utility.yul\":3290:3298   */\n  0x00\n    /* \"#utility.yul\":3340:3345   */\n  dup3\n    /* \"#utility.yul\":3334:3338   */\n  dup3\n    /* \"#utility.yul\":3330:3346   */\n  shr\n    /* \"#utility.yul\":3309:3346   */\n  swap1\n  pop\n    /* \"#utility.yul\":3236:3353   */\n  swap3\n  swap2\n  pop\n  pop\n  jump\t// out\n    /* \"#utility.yul\":3359:3528   */\ntag_23:\n    /* \"#utility.yul\":3403:3409   */\n  0x00\n    /* \"#utility.yul\":3436:3487   */\n  tag_68\n    /* \"#utility.yul\":3484:3485   */\n  0x00\n    /* \"#utility.yul\":3480:3486   */\n  not\n    /* \"#utility.yul\":3472:3477   */\n  dup5\n    /* \"#utility.yul\":3469:3470   */\n  0x08\n    /* \"#utility.yul\":3465:3478   */\n  mul\n    /* \"#utility.yul\":3436:3487   */\n  tag_22\n  jump\t// in\ntag_68:\n    /* \"#utility.yul\":3432:3488   */\n  not\n    /* \"#utility.yul\":3517:3521   */\n  dup1\n    /* \"#utility.yul\":3511:3515   */\n  dup4\n    /* \"#utility.yul\":3507:3522   */\n  and\n    /* \"#utility.yul\":3497:3522   */\n  swap2\n  pop\n    /* \"#utility.yul\":3410:3528   */\n  pop\n    /* \"#utility.yul\":3359:3528   */\n  swap3\n  swap2\n  pop\n  pop\n  jump\t// out\n    /* \"#utility.yul\":3533:3828   */\ntag_24:\n    /* \"#utility.yul\":3609:3613   */\n  0x00\n    /* \"#utility.yul\":3755:3784   */\n  tag_70\n    /* \"#utility.yul\":3780:3783   */\n  dup4\n    /* \"#utility.yul\":3774:3778   */\n  dup4\n    /* \"#utility.yul\":3755:3784   */\n  tag_23\n  jump\t// in\ntag_70:\n    /* \"#utility.yul\":3747:3784   */\n  swap2\n  pop\n    /* \"#utility.yul\":3817:3820   */\n  dup3\n    /* \"#utility.yul\":3814:3815   */\n  0x02\n    /* \"#utility.yul\":3810:3821   */\n  mul\n    /* \"#utility.yul\":3804:3808   */\n  dup3\n    /* \"#utility.yul\":3801:3822   */\n  or\n    /* \"#utility.yul\":3793:3822   */\n  swap1\n  pop\n    /* \"#utility.yul\":3533:3828   */\n  swap3\n  swap2\n  pop\n  pop\n  jump\t// out\n    /* \"#utility.yul\":3833:5228   */\ntag_2:\n    /* \"#utility.yul\":3950:3987   */\n  tag_72\n    /* \"#utility.yul\":3983:3986   */\n  dup3\n    /* \"#utility.yul\":3950:3987   */\n  tag_5\n  jump\t// in\ntag_72:\n    /* \"#utility.yul\":4052:4070   */\n  0xffffffffffffffff\n    /* \"#utility.yul\":4044:4050   */\n  dup2\n    /* \"#utility.yul\":4041:4071   */\n  gt\n    /* \"#utility.yul\":4038:4094   */\n  iszero\n  tag_73\n  jumpi\n    /* \"#utility.yul\":4074:4092   */\n  tag_74\n  tag_6\n  jump\t// in\ntag_74:\n    /* \"#utility.yul\":4038:4094   */\ntag_73:\n    /* \"#utility.yul\":4118:4156   */\n  tag_75\n    /* \"#utility.yul\":4150:4154   */\n  dup3\n    /* \"#utility.yul\":4144:4155   */\n  sload\n    /* \"#utility.yul\":4118:4156   */\n  tag_8\n  jump\t// in\ntag_75:\n    /* \"#utility.yul\":4203:4270   */\n  tag_76\n    /* \"#utility.yul\":4263:4269   */\n  dup3\n    /* \"#utility.yul\":4255:4261   */\n  dup3\n    /* \"#utility.yul\":4249:4253   */\n  dup6\n    /* \"#utility.yul\":4203:4270   */\n  tag_21\n  jump\t// in\ntag_76:\n    /* \"#utility.yul\":4297:4298   */\n  0x00\n    /* \"#utility.yul\":4321:4325   */\n  0x20\n    /* \"#utility.yul\":4308:4325   */\n  swap1\n  pop\n    /* \"#utility.yul\":4353:4355   */\n  0x1f\n    /* \"#utility.yul\":4345:4351   */\n  dup4\n    /* \"#utility.yul\":4342:4356   */\n  gt\n    /* \"#utility.yul\":4370:4371   */\n  0x01\n    /* \"#utility.yul\":4365:4983   */\n  dup2\n  eq\n  tag_78\n  jumpi\n    /* \"#utility.yul\":5027:5028   */\n  0x00\n    /* \"#utility.yul\":5044:5050   */\n  dup5\n    /* \"#utility.yul\":5041:5118   */\n  iszero\n  tag_79\n  jumpi\n    /* \"#utility.yul\":5093:5102   */\n  dup3\n    /* \"#utility.yul\":5088:5091   */\n  dup8\n    /* \"#utility.yul\":5084:5103   */\n  add\n    /* \"#utility.yul\":5078:5104   */\n  mload\n    /* \"#utility.yul\":5069:5104   */\n  swap1\n  pop\n    /* \"#utility.yul\":5041:5118   */\ntag_79:\n    /* \"#utility.yul\":5144:5211   */\n  tag_80\n    /* \"#utility.yul\":5204:5210   */\n  dup6\n    /* \"#utility.yul\":5197:5202   */\n  dup3\n    /* \"#utility.yul\":5144:5211   */\n  tag_24\n  jump\t// in\ntag_80:\n    /* \"#utility.yul\":5138:5142   */\n  dup7\n    /* \"#utility.yul\":5131:5212   */\n  sstore\n    /* \"#utility.yul\":5000:5222   */\n  pop\n    /* \"#utility.yul\":4335:5222   */\n  jump(tag_77)\n    /* \"#utility.yul\":4365:4983   */\ntag_78:\n    /* \"#utility.yul\":4417:4421   */\n  0x1f\n    /* \"#utility.yul\":4413:4422   */\n  not\n    /* \"#utility.yul\":4405:4411   */\n  dup5\n    /* \"#utility.yul\":4401:4423   */\n  and\n    /* \"#utility.yul\":4451:4488   */\n  tag_81\n    /* \"#utility.yul\":4483:4487   */\n  dup7\n    /* \"#utility.yul\":4451:4488   */\n  tag_9\n  jump\t// in\ntag_81:\n    /* \"#utility.yul\":4510:4511   */\n  0x00\n    /* \"#utility.yul\":4524:4732   */\ntag_82:\n    /* \"#utility.yul\":4538:4545   */\n  dup3\n    /* \"#utility.yul\":4535:4536   */\n  dup2\n    /* \"#utility.yul\":4532:4546   */\n  lt\n    /* \"#utility.yul\":4524:4732   */\n  iszero\n  tag_84\n  jumpi\n    /* \"#utility.yul\":4617:4626   */\n  dup5\n    /* \"#utility.yul\":4612:4615   */\n  dup10\n    /* \"#utility.yul\":4608:4627   */\n  add\n    /* \"#utility.yul\":4602:4628   */\n  mload\n    /* \"#utility.yul\":4594:4600   */\n  dup3\n    /* \"#utility.yul\":4587:4629   */\n  sstore\n    /* \"#utility.yul\":4668:4669   */\n  0x01\n    /* \"#utility.yul\":4660:4666   */\n  dup3\n    /* \"#utility.yul\":4656:4670   */\n  add\n    /* \"#utility.yul\":4646:4670   */\n  swap2\n  pop\n    /* \"#utility.yul\":4715:4717   */\n  0x20\n    /* \"#utility.yul\":4704:4713   */\n  dup6\n    /* \"#utility.yul\":4700:4718   */\n  add\n    /* \"#utility.yul\":4687:4718   */\n  swap5\n  pop\n    /* \"#utility.yul\":4561:4565   */\n  0x20\n    /* \"#utility.yul\":4558:4559   */\n  dup2\n    /* \"#utility.yul\":4554:4566   */\n  add\n    /* \"#utility.yul\":4549:4566   */\n  swap1\n  pop\n    /* \"#utility.yul\":4524:4732   */\n  jump(tag_82)\ntag_84:\n    /* \"#utility.yul\":4760:4766   */\n  dup7\n    /* \"#utility.yul\":4751:4758   */\n  dup4\n    /* \"#utility.yul\":4748:4767   */\n  lt\n    /* \"#utility.yul\":4745:4924   */\n  iszero\n  tag_85\n  jumpi\n    /* \"#utility.yul\":4818:4827   */\n  dup5\n    /* \"#utility.yul\":4813:4816   */\n  dup10\n    /* \"#utility.yul\":4809:4828   */\n  add\n    /* \"#utility.yul\":4803:4829   */\n  mload\n    /* \"#utility.yul\":4861:4909   */\n  tag_86\n    /* \"#utility.yul\":4903:4907   */\n  0x1f\n    /* \"#utility.yul\":4895:4901   */\n  dup10\n    /* \"#utility.yul\":4891:4908   */\n  and\n    /* \"#utility.yul\":4880:4889   */\n  dup3\n    /* \"#utility.yul\":4861:4909   */\n  tag_23\n  jump\t// in\ntag_86:\n    /* \"#utility.yul\":4853:4859   */\n  dup4\n    /* \"#utility.yul\":4846:4910   */\n  sstore\n    /* \"#utility.yul\":4768:4924   */\n  pop\n    /* \"#utility.yul\":4745:4924   */\ntag_85:\n    /* \"#utility.yul\":4970:4971   */\n  0x01\n    /* \"#utility.yul\":4966:4967   */\n  0x02\n    /* \"#utility.yul\":4958:4964   */\n  dup9\n    /* \"#utility.yul\":4954:4968   */\n  mul\n    /* \"#utility.yul\":4950:4972   */\n  add\n    /* \"#utility.yul\":4944:4948   */\n  dup9\n    /* \"#utility.yul\":4937:4973   */\n  sstore\n    /* \"#utility.yul\":4372:4983   */\n  pop\n  pop\n  pop\n    /* \"#utility.yul\":4335:5222   */\ntag_77:\n  pop\n    /* \"#utility.yul\":3925:5228   */\n  pop\n  pop\n  pop\n    /* \"#utility.yul\":3833:5228   */\n  pop\n  pop\n  jump\t// out\n    /* \"NextFundMe/newfundme.sol\":213:3900  contract HelloWorld{... */\ntag_4:\n  dataSize(sub_0)\n  dup1\n  dataOffset(sub_0)\n  0x00\n  codecopy\n  0x00\n  return\nstop\n\nsub_0: assembly {\n        /* \"NextFundMe/newfundme.sol\":213:3900  contract HelloWorld{... */\n      mstore(0x40, 0x80)\n      callvalue\n      dup1\n      iszero\n      tag_1\n      jumpi\n      revert(0x00, 0x00)\n    tag_1:\n      pop\n      jumpi(tag_2, lt(calldatasize, 0x04))\n      shr(0xe0, calldataload(0x00))\n      dup1\n      0x1d095162\n      eq\n      tag_3\n      jumpi\n      dup1\n      0x4cc9f11a\n      eq\n      tag_4\n      jumpi\n      dup1\n      0xc7fe7454\n      eq\n      tag_5\n      jumpi\n      dup1\n      0xef5fb05b\n      eq\n      tag_6\n      jumpi\n    tag_2:\n      revert(0x00, 0x00)\n        /* \"NextFundMe/newfundme.sol\":1507:1617  function sayHelloAddinfo()public view returns(string memory SayHello){... */\n    tag_3:\n      tag_7\n      tag_8\n      jump\t// in\n    tag_7:\n      mload(0x40)\n      tag_9\n      swap2\n      swap1\n      tag_10\n      jump\t// in\n    tag_9:\n      mload(0x40)\n      dup1\n      swap2\n      sub\n      swap1\n      return\n        /* \"NextFundMe/newfundme.sol\":3518:3897  function SetInfoStruct(uint256 inid,string memory instring) public {... */\n    tag_4:\n      tag_11\n      0x04\n      dup1\n      calldatasize\n      sub\n      dup2\n      add\n      swap1\n      tag_12\n      swap2\n      swap1\n      tag_13\n      jump\t// in\n    tag_12:\n      tag_14\n      jump\t// in\n    tag_11:\n      stop\n        /* \"NextFundMe/newfundme.sol\":1232:1328  function ResetHelloWorld (string memory ResetString) public{... */\n    tag_5:\n      tag_15\n      0x04\n      dup1\n      calldatasize\n      sub\n      dup2\n      add\n      swap1\n      tag_16\n      swap2\n      swap1\n      tag_17\n      jump\t// in\n    tag_16:\n      tag_18\n      jump\t// in\n    tag_15:\n      stop\n        /* \"NextFundMe/newfundme.sol\":924:1184  function sayHello () public view returns(string memory ReturnBytes){... */\n    tag_6:\n      tag_19\n      tag_20\n      jump\t// in\n    tag_19:\n      mload(0x40)\n      tag_21\n      swap2\n      swap1\n      tag_10\n      jump\t// in\n    tag_21:\n      mload(0x40)\n      dup1\n      swap2\n      sub\n      swap1\n      return\n        /* \"NextFundMe/newfundme.sol\":1507:1617  function sayHelloAddinfo()public view returns(string memory SayHello){... */\n    tag_8:\n        /* \"NextFundMe/newfundme.sol\":1553:1575  string memory SayHello */\n      0x60\n        /* \"NextFundMe/newfundme.sol\":1593:1610  Addinfo(Strbytes) */\n      tag_23\n        /* \"NextFundMe/newfundme.sol\":1601:1609  Strbytes */\n      0x04\n        /* \"NextFundMe/newfundme.sol\":1593:1610  Addinfo(Strbytes) */\n      dup1\n      sload\n      tag_24\n      swap1\n      tag_25\n      jump\t// in\n    tag_24:\n      dup1\n      0x1f\n      add\n      0x20\n      dup1\n      swap2\n      div\n      mul\n      0x20\n      add\n      mload(0x40)\n      swap1\n      dup2\n      add\n      0x40\n      mstore\n      dup1\n      swap3\n      swap2\n      swap1\n      dup2\n      dup2\n      mstore\n      0x20\n      add\n      dup3\n      dup1\n      sload\n      tag_26\n      swap1\n      tag_25\n      jump\t// in\n    tag_26:\n      dup1\n      iszero\n      tag_27\n      jumpi\n      dup1\n      0x1f\n      lt\n      tag_28\n      jumpi\n      0x0100\n      dup1\n      dup4\n      sload\n      div\n      mul\n      dup4\n      mstore\n      swap2\n      0x20\n      add\n      swap2\n      jump(tag_27)\n    tag_28:\n      dup3\n      add\n      swap2\n      swap1\n      0x00\n      mstore\n      keccak256(0x00, 0x20)\n      swap1\n    tag_29:\n      dup2\n      sload\n      dup2\n      mstore\n      swap1\n      0x01\n      add\n      swap1\n      0x20\n      add\n      dup1\n      dup4\n      gt\n      tag_29\n      jumpi\n      dup3\n      swap1\n      sub\n      0x1f\n      and\n      dup3\n      add\n      swap2\n    tag_27:\n      pop\n      pop\n      pop\n      pop\n      pop\n        /* \"NextFundMe/newfundme.sol\":1593:1600  Addinfo */\n      tag_30\n        /* \"NextFundMe/newfundme.sol\":1593:1610  Addinfo(Strbytes) */\n      jump\t// in\n    tag_23:\n        /* \"NextFundMe/newfundme.sol\":1586:1610  return Addinfo(Strbytes) */\n      swap1\n      pop\n        /* \"NextFundMe/newfundme.sol\":1507:1617  function sayHelloAddinfo()public view returns(string memory SayHello){... */\n      swap1\n      jump\t// out\n        /* \"NextFundMe/newfundme.sol\":3518:3897  function SetInfoStruct(uint256 inid,string memory instring) public {... */\n    tag_14:\n        /* \"NextFundMe/newfundme.sol\":3595:3614  Info memory oneinfo */\n      0x00\n        /* \"NextFundMe/newfundme.sol\":3615:3645  Info(inid,instring,msg.sender) */\n      mload(0x40)\n      dup1\n      0x60\n      add\n      0x40\n      mstore\n      dup1\n        /* \"NextFundMe/newfundme.sol\":3620:3624  inid */\n      dup5\n        /* \"NextFundMe/newfundme.sol\":3615:3645  Info(inid,instring,msg.sender) */\n      dup2\n      mstore\n      0x20\n      add\n        /* \"NextFundMe/newfundme.sol\":3625:3633  instring */\n      dup4\n        /* \"NextFundMe/newfundme.sol\":3615:3645  Info(inid,instring,msg.sender) */\n      dup2\n      mstore\n      0x20\n      add\n        /* \"NextFundMe/newfundme.sol\":3634:3644  msg.sender */\n      caller\n        /* \"NextFundMe/newfundme.sol\":3615:3645  Info(inid,instring,msg.sender) */\n      0xffffffffffffffffffffffffffffffffffffffff\n      and\n      dup2\n      mstore\n      pop\n        /* \"NextFundMe/newfundme.sol\":3595:3645  Info memory oneinfo=Info(inid,instring,msg.sender) */\n      swap1\n      pop\n        /* \"NextFundMe/newfundme.sol\":3871:3876  Infos */\n      0x06\n        /* \"NextFundMe/newfundme.sol\":3882:3889  oneinfo */\n      dup2\n        /* \"NextFundMe/newfundme.sol\":3871:3890  Infos.push(oneinfo) */\n      swap1\n      dup1\n      0x01\n      dup2\n      sload\n      add\n      dup1\n      dup3\n      sstore\n      dup1\n      swap2\n      pop\n      pop\n      0x01\n      swap1\n      sub\n      swap1\n      0x00\n      mstore\n      keccak256(0x00, 0x20)\n      swap1\n      0x03\n      mul\n      add\n      0x00\n      swap1\n      swap2\n      swap1\n      swap2\n      swap1\n      swap2\n      pop\n      0x00\n      dup3\n      add\n      mload\n      dup2\n      0x00\n      add\n      sstore\n      0x20\n      dup3\n      add\n      mload\n      dup2\n      0x01\n      add\n      swap1\n      dup2\n      tag_33\n      swap2\n      swap1\n      tag_34\n      jump\t// in\n    tag_33:\n      pop\n      0x40\n      dup3\n      add\n      mload\n      dup2\n      0x02\n      add\n      exp(0x0100, 0x00)\n      dup2\n      sload\n      dup2\n      0xffffffffffffffffffffffffffffffffffffffff\n      mul\n      not\n      and\n      swap1\n      dup4\n      0xffffffffffffffffffffffffffffffffffffffff\n      and\n      mul\n      or\n      swap1\n      sstore\n      pop\n      pop\n      pop\n        /* \"NextFundMe/newfundme.sol\":3585:3897  {... */\n      pop\n        /* \"NextFundMe/newfundme.sol\":3518:3897  function SetInfoStruct(uint256 inid,string memory instring) public {... */\n      pop\n      pop\n      jump\t// out\n        /* \"NextFundMe/newfundme.sol\":1232:1328  function ResetHelloWorld (string memory ResetString) public{... */\n    tag_18:\n        /* \"NextFundMe/newfundme.sol\":1310:1321  ResetString */\n      dup1\n        /* \"NextFundMe/newfundme.sol\":1301:1309  Strbytes */\n      0x04\n        /* \"NextFundMe/newfundme.sol\":1301:1321  Strbytes=ResetString */\n      swap1\n      dup2\n      tag_36\n      swap2\n      swap1\n      tag_34\n      jump\t// in\n    tag_36:\n      pop\n        /* \"NextFundMe/newfundme.sol\":1232:1328  function ResetHelloWorld (string memory ResetString) public{... */\n      pop\n      jump\t// out\n        /* \"NextFundMe/newfundme.sol\":924:1184  function sayHello () public view returns(string memory ReturnBytes){... */\n    tag_20:\n        /* \"NextFundMe/newfundme.sol\":965:990  string memory ReturnBytes */\n      0x60\n        /* \"NextFundMe/newfundme.sol\":1168:1176  Strbytes */\n      0x04\n        /* \"NextFundMe/newfundme.sol\":1161:1176  return Strbytes */\n      dup1\n      sload\n      tag_38\n      swap1\n      tag_25\n      jump\t// in\n    tag_38:\n      dup1\n      0x1f\n      add\n      0x20\n      dup1\n      swap2\n      div\n      mul\n      0x20\n      add\n      mload(0x40)\n      swap1\n      dup2\n      add\n      0x40\n      mstore\n      dup1\n      swap3\n      swap2\n      swap1\n      dup2\n      dup2\n      mstore\n      0x20\n      add\n      dup3\n      dup1\n      sload\n      tag_39\n      swap1\n      tag_25\n      jump\t// in\n    tag_39:\n      dup1\n      iszero\n      tag_40\n      jumpi\n      dup1\n      0x1f\n      lt\n      tag_41\n      jumpi\n      0x0100\n      dup1\n      dup4\n      sload\n      div\n      mul\n      dup4\n      mstore\n      swap2\n      0x20\n      add\n      swap2\n      jump(tag_40)\n    tag_41:\n      dup3\n      add\n      swap2\n      swap1\n      0x00\n      mstore\n      keccak256(0x00, 0x20)\n      swap1\n    tag_42:\n      dup2\n      sload\n      dup2\n      mstore\n      swap1\n      0x01\n      add\n      swap1\n      0x20\n      add\n      dup1\n      dup4\n      gt\n      tag_42\n      jumpi\n      dup3\n      swap1\n      sub\n      0x1f\n      and\n      dup3\n      add\n      swap2\n    tag_40:\n      pop\n      pop\n      pop\n      pop\n      pop\n      swap1\n      pop\n        /* \"NextFundMe/newfundme.sol\":924:1184  function sayHello () public view returns(string memory ReturnBytes){... */\n      swap1\n      jump\t// out\n        /* \"NextFundMe/newfundme.sol\":1334:1501  function Addinfo(string memory OrigionString) internal pure returns(string memory AddinfoStr){... */\n    tag_30:\n        /* \"NextFundMe/newfundme.sol\":1402:1426  string memory AddinfoStr */\n      0x60\n        /* \"NextFundMe/newfundme.sol\":1458:1471  OrigionString */\n      dup2\n        /* \"NextFundMe/newfundme.sol\":1444:1494  string.concat(OrigionString,\"From Ddy's Contract\") */\n      add(0x20, mload(0x40))\n      tag_44\n      swap2\n      swap1\n      tag_45\n      jump\t// in\n    tag_44:\n      mload(0x40)\n      0x20\n      dup2\n      dup4\n      sub\n      sub\n      dup2\n      mstore\n      swap1\n      0x40\n      mstore\n        /* \"NextFundMe/newfundme.sol\":1437:1494  return string.concat(OrigionString,\"From Ddy's Contract\") */\n      swap1\n      pop\n        /* \"NextFundMe/newfundme.sol\":1334:1501  function Addinfo(string memory OrigionString) internal pure returns(string memory AddinfoStr){... */\n      swap2\n      swap1\n      pop\n      jump\t// out\n        /* \"#utility.yul\":7:106   */\n    tag_46:\n        /* \"#utility.yul\":59:65   */\n      0x00\n        /* \"#utility.yul\":93:98   */\n      dup2\n        /* \"#utility.yul\":87:99   */\n      mload\n        /* \"#utility.yul\":77:99   */\n      swap1\n      pop\n        /* \"#utility.yul\":7:106   */\n      swap2\n      swap1\n      pop\n      jump\t// out\n        /* \"#utility.yul\":112:281   */\n    tag_47:\n        /* \"#utility.yul\":196:207   */\n      0x00\n        /* \"#utility.yul\":230:236   */\n      dup3\n        /* \"#utility.yul\":225:228   */\n      dup3\n        /* \"#utility.yul\":218:237   */\n      mstore\n        /* \"#utility.yul\":270:274   */\n      0x20\n        /* \"#utility.yul\":265:268   */\n      dup3\n        /* \"#utility.yul\":261:275   */\n      add\n        /* \"#utility.yul\":246:275   */\n      swap1\n      pop\n        /* \"#utility.yul\":112:281   */\n      swap3\n      swap2\n      pop\n      pop\n      jump\t// out\n        /* \"#utility.yul\":287:426   */\n    tag_48:\n        /* \"#utility.yul\":376:382   */\n      dup3\n        /* \"#utility.yul\":371:374   */\n      dup2\n        /* \"#utility.yul\":366:369   */\n      dup4\n        /* \"#utility.yul\":360:383   */\n      mcopy\n        /* \"#utility.yul\":417:418   */\n      0x00\n        /* \"#utility.yul\":408:414   */\n      dup4\n        /* \"#utility.yul\":403:406   */\n      dup4\n        /* \"#utility.yul\":399:415   */\n      add\n        /* \"#utility.yul\":392:419   */\n      mstore\n        /* \"#utility.yul\":287:426   */\n      pop\n      pop\n      pop\n      jump\t// out\n        /* \"#utility.yul\":432:534   */\n    tag_49:\n        /* \"#utility.yul\":473:479   */\n      0x00\n        /* \"#utility.yul\":524:526   */\n      0x1f\n        /* \"#utility.yul\":520:527   */\n      not\n        /* \"#utility.yul\":515:517   */\n      0x1f\n        /* \"#utility.yul\":508:513   */\n      dup4\n        /* \"#utility.yul\":504:518   */\n      add\n        /* \"#utility.yul\":500:528   */\n      and\n        /* \"#utility.yul\":490:528   */\n      swap1\n      pop\n        /* \"#utility.yul\":432:534   */\n      swap2\n      swap1\n      pop\n      jump\t// out\n        /* \"#utility.yul\":540:917   */\n    tag_50:\n        /* \"#utility.yul\":628:631   */\n      0x00\n        /* \"#utility.yul\":656:695   */\n      tag_91\n        /* \"#utility.yul\":689:694   */\n      dup3\n        /* \"#utility.yul\":656:695   */\n      tag_46\n      jump\t// in\n    tag_91:\n        /* \"#utility.yul\":711:782   */\n      tag_92\n        /* \"#utility.yul\":775:781   */\n      dup2\n        /* \"#utility.yul\":770:773   */\n      dup6\n        /* \"#utility.yul\":711:782   */\n      tag_47\n      jump\t// in\n    tag_92:\n        /* \"#utility.yul\":704:782   */\n      swap4\n      pop\n        /* \"#utility.yul\":791:856   */\n      tag_93\n        /* \"#utility.yul\":849:855   */\n      dup2\n        /* \"#utility.yul\":844:847   */\n      dup6\n        /* \"#utility.yul\":837:841   */\n      0x20\n        /* \"#utility.yul\":830:835   */\n      dup7\n        /* \"#utility.yul\":826:842   */\n      add\n        /* \"#utility.yul\":791:856   */\n      tag_48\n      jump\t// in\n    tag_93:\n        /* \"#utility.yul\":881:910   */\n      tag_94\n        /* \"#utility.yul\":903:909   */\n      dup2\n        /* \"#utility.yul\":881:910   */\n      tag_49\n      jump\t// in\n    tag_94:\n        /* \"#utility.yul\":876:879   */\n      dup5\n        /* \"#utility.yul\":872:911   */\n      add\n        /* \"#utility.yul\":865:911   */\n      swap2\n      pop\n        /* \"#utility.yul\":632:917   */\n      pop\n        /* \"#utility.yul\":540:917   */\n      swap3\n      swap2\n      pop\n      pop\n      jump\t// out\n        /* \"#utility.yul\":923:1236   */\n    tag_10:\n        /* \"#utility.yul\":1036:1040   */\n      0x00\n        /* \"#utility.yul\":1074:1076   */\n      0x20\n        /* \"#utility.yul\":1063:1072   */\n      dup3\n        /* \"#utility.yul\":1059:1077   */\n      add\n        /* \"#utility.yul\":1051:1077   */\n      swap1\n      pop\n        /* \"#utility.yul\":1123:1132   */\n      dup2\n        /* \"#utility.yul\":1117:1121   */\n      dup2\n        /* \"#utility.yul\":1113:1133   */\n      sub\n        /* \"#utility.yul\":1109:1110   */\n      0x00\n        /* \"#utility.yul\":1098:1107   */\n      dup4\n        /* \"#utility.yul\":1094:1111   */\n      add\n        /* \"#utility.yul\":1087:1134   */\n      mstore\n        /* \"#utility.yul\":1151:1229   */\n      tag_96\n        /* \"#utility.yul\":1224:1228   */\n      dup2\n        /* \"#utility.yul\":1215:1221   */\n      dup5\n        /* \"#utility.yul\":1151:1229   */\n      tag_50\n      jump\t// in\n    tag_96:\n        /* \"#utility.yul\":1143:1229   */\n      swap1\n      pop\n        /* \"#utility.yul\":923:1236   */\n      swap3\n      swap2\n      pop\n      pop\n      jump\t// out\n        /* \"#utility.yul\":1242:1317   */\n    tag_51:\n        /* \"#utility.yul\":1275:1281   */\n      0x00\n        /* \"#utility.yul\":1308:1310   */\n      0x40\n        /* \"#utility.yul\":1302:1311   */\n      mload\n        /* \"#utility.yul\":1292:1311   */\n      swap1\n      pop\n        /* \"#utility.yul\":1242:1317   */\n      swap1\n      jump\t// out\n        /* \"#utility.yul\":1323:1440   */\n    tag_52:\n        /* \"#utility.yul\":1432:1433   */\n      0x00\n        /* \"#utility.yul\":1429:1430   */\n      0x00\n        /* \"#utility.yul\":1422:1434   */\n      revert\n        /* \"#utility.yul\":1446:1563   */\n    tag_53:\n        /* \"#utility.yul\":1555:1556   */\n      0x00\n        /* \"#utility.yul\":1552:1553   */\n      0x00\n        /* \"#utility.yul\":1545:1557   */\n      revert\n        /* \"#utility.yul\":1569:1646   */\n    tag_54:\n        /* \"#utility.yul\":1606:1613   */\n      0x00\n        /* \"#utility.yul\":1635:1640   */\n      dup2\n        /* \"#utility.yul\":1624:1640   */\n      swap1\n      pop\n        /* \"#utility.yul\":1569:1646   */\n      swap2\n      swap1\n      pop\n      jump\t// out\n        /* \"#utility.yul\":1652:1774   */\n    tag_55:\n        /* \"#utility.yul\":1725:1749   */\n      tag_102\n        /* \"#utility.yul\":1743:1748   */\n      dup2\n        /* \"#utility.yul\":1725:1749   */\n      tag_54\n      jump\t// in\n    tag_102:\n        /* \"#utility.yul\":1718:1723   */\n      dup2\n        /* \"#utility.yul\":1715:1750   */\n      eq\n        /* \"#utility.yul\":1705:1768   */\n      tag_103\n      jumpi\n        /* \"#utility.yul\":1764:1765   */\n      0x00\n        /* \"#utility.yul\":1761:1762   */\n      0x00\n        /* \"#utility.yul\":1754:1766   */\n      revert\n        /* \"#utility.yul\":1705:1768   */\n    tag_103:\n        /* \"#utility.yul\":1652:1774   */\n      pop\n      jump\t// out\n        /* \"#utility.yul\":1780:1919   */\n    tag_56:\n        /* \"#utility.yul\":1826:1831   */\n      0x00\n        /* \"#utility.yul\":1864:1870   */\n      dup2\n        /* \"#utility.yul\":1851:1871   */\n      calldataload\n        /* \"#utility.yul\":1842:1871   */\n      swap1\n      pop\n        /* \"#utility.yul\":1880:1913   */\n      tag_105\n        /* \"#utility.yul\":1907:1912   */\n      dup2\n        /* \"#utility.yul\":1880:1913   */\n      tag_55\n      jump\t// in\n    tag_105:\n        /* \"#utility.yul\":1780:1919   */\n      swap3\n      swap2\n      pop\n      pop\n      jump\t// out\n        /* \"#utility.yul\":1925:2042   */\n    tag_57:\n        /* \"#utility.yul\":2034:2035   */\n      0x00\n        /* \"#utility.yul\":2031:2032   */\n      0x00\n        /* \"#utility.yul\":2024:2036   */\n      revert\n        /* \"#utility.yul\":2048:2165   */\n    tag_58:\n        /* \"#utility.yul\":2157:2158   */\n      0x00\n        /* \"#utility.yul\":2154:2155   */\n      0x00\n        /* \"#utility.yul\":2147:2159   */\n      revert\n        /* \"#utility.yul\":2171:2351   */\n    tag_59:\n        /* \"#utility.yul\":2219:2296   */\n      0x4e487b7100000000000000000000000000000000000000000000000000000000\n        /* \"#utility.yul\":2216:2217   */\n      0x00\n        /* \"#utility.yul\":2209:2297   */\n      mstore\n        /* \"#utility.yul\":2316:2320   */\n      0x41\n        /* \"#utility.yul\":2313:2314   */\n      0x04\n        /* \"#utility.yul\":2306:2321   */\n      mstore\n        /* \"#utility.yul\":2340:2344   */\n      0x24\n        /* \"#utility.yul\":2337:2338   */\n      0x00\n        /* \"#utility.yul\":2330:2345   */\n      revert\n        /* \"#utility.yul\":2357:2638   */\n    tag_60:\n        /* \"#utility.yul\":2440:2467   */\n      tag_110\n        /* \"#utility.yul\":2462:2466   */\n      dup3\n        /* \"#utility.yul\":2440:2467   */\n      tag_49\n      jump\t// in\n    tag_110:\n        /* \"#utility.yul\":2432:2438   */\n      dup2\n        /* \"#utility.yul\":2428:2468   */\n      add\n        /* \"#utility.yul\":2570:2576   */\n      dup2\n        /* \"#utility.yul\":2558:2568   */\n      dup2\n        /* \"#utility.yul\":2555:2577   */\n      lt\n        /* \"#utility.yul\":2534:2552   */\n      0xffffffffffffffff\n        /* \"#utility.yul\":2522:2532   */\n      dup3\n        /* \"#utility.yul\":2519:2553   */\n      gt\n        /* \"#utility.yul\":2516:2578   */\n      or\n        /* \"#utility.yul\":2513:2601   */\n      iszero\n      tag_111\n      jumpi\n        /* \"#utility.yul\":2581:2599   */\n      tag_112\n      tag_59\n      jump\t// in\n    tag_112:\n        /* \"#utility.yul\":2513:2601   */\n    tag_111:\n        /* \"#utility.yul\":2621:2631   */\n      dup1\n        /* \"#utility.yul\":2617:2619   */\n      0x40\n        /* \"#utility.yul\":2610:2632   */\n      mstore\n        /* \"#utility.yul\":2400:2638   */\n      pop\n        /* \"#utility.yul\":2357:2638   */\n      pop\n      pop\n      jump\t// out\n        /* \"#utility.yul\":2644:2773   */\n    tag_61:\n        /* \"#utility.yul\":2678:2684   */\n      0x00\n        /* \"#utility.yul\":2705:2725   */\n      tag_114\n      tag_51\n      jump\t// in\n    tag_114:\n        /* \"#utility.yul\":2695:2725   */\n      swap1\n      pop\n        /* \"#utility.yul\":2734:2767   */\n      tag_115\n        /* \"#utility.yul\":2762:2766   */\n      dup3\n        /* \"#utility.yul\":2754:2760   */\n      dup3\n        /* \"#utility.yul\":2734:2767   */\n      tag_60\n      jump\t// in\n    tag_115:\n        /* \"#utility.yul\":2644:2773   */\n      swap2\n      swap1\n      pop\n      jump\t// out\n        /* \"#utility.yul\":2779:3087   */\n    tag_62:\n        /* \"#utility.yul\":2841:2845   */\n      0x00\n        /* \"#utility.yul\":2931:2949   */\n      0xffffffffffffffff\n        /* \"#utility.yul\":2923:2929   */\n      dup3\n        /* \"#utility.yul\":2920:2950   */\n      gt\n        /* \"#utility.yul\":2917:2973   */\n      iszero\n      tag_117\n      jumpi\n        /* \"#utility.yul\":2953:2971   */\n      tag_118\n      tag_59\n      jump\t// in\n    tag_118:\n        /* \"#utility.yul\":2917:2973   */\n    tag_117:\n        /* \"#utility.yul\":2991:3020   */\n      tag_119\n        /* \"#utility.yul\":3013:3019   */\n      dup3\n        /* \"#utility.yul\":2991:3020   */\n      tag_49\n      jump\t// in\n    tag_119:\n        /* \"#utility.yul\":2983:3020   */\n      swap1\n      pop\n        /* \"#utility.yul\":3075:3079   */\n      0x20\n        /* \"#utility.yul\":3069:3073   */\n      dup2\n        /* \"#utility.yul\":3065:3080   */\n      add\n        /* \"#utility.yul\":3057:3080   */\n      swap1\n      pop\n        /* \"#utility.yul\":2779:3087   */\n      swap2\n      swap1\n      pop\n      jump\t// out\n        /* \"#utility.yul\":3093:3241   */\n    tag_63:\n        /* \"#utility.yul\":3191:3197   */\n      dup3\n        /* \"#utility.yul\":3186:3189   */\n      dup2\n        /* \"#utility.yul\":3181:3184   */\n      dup4\n        /* \"#utility.yul\":3168:3198   */\n      calldatacopy\n        /* \"#utility.yul\":3232:3233   */\n      0x00\n        /* \"#utility.yul\":3223:3229   */\n      dup4\n        /* \"#utility.yul\":3218:3221   */\n      dup4\n        /* \"#utility.yul\":3214:3230   */\n      add\n        /* \"#utility.yul\":3207:3234   */\n      mstore\n        /* \"#utility.yul\":3093:3241   */\n      pop\n      pop\n      pop\n      jump\t// out\n        /* \"#utility.yul\":3247:3672   */\n    tag_64:\n        /* \"#utility.yul\":3325:3330   */\n      0x00\n        /* \"#utility.yul\":3350:3416   */\n      tag_122\n        /* \"#utility.yul\":3366:3415   */\n      tag_123\n        /* \"#utility.yul\":3408:3414   */\n      dup5\n        /* \"#utility.yul\":3366:3415   */\n      tag_62\n      jump\t// in\n    tag_123:\n        /* \"#utility.yul\":3350:3416   */\n      tag_61\n      jump\t// in\n    tag_122:\n        /* \"#utility.yul\":3341:3416   */\n      swap1\n      pop\n        /* \"#utility.yul\":3439:3445   */\n      dup3\n        /* \"#utility.yul\":3432:3437   */\n      dup2\n        /* \"#utility.yul\":3425:3446   */\n      mstore\n        /* \"#utility.yul\":3477:3481   */\n      0x20\n        /* \"#utility.yul\":3470:3475   */\n      dup2\n        /* \"#utility.yul\":3466:3482   */\n      add\n        /* \"#utility.yul\":3515:3518   */\n      dup5\n        /* \"#utility.yul\":3506:3512   */\n      dup5\n        /* \"#utility.yul\":3501:3504   */\n      dup5\n        /* \"#utility.yul\":3497:3513   */\n      add\n        /* \"#utility.yul\":3494:3519   */\n      gt\n        /* \"#utility.yul\":3491:3603   */\n      iszero\n      tag_124\n      jumpi\n        /* \"#utility.yul\":3522:3601   */\n      tag_125\n      tag_58\n      jump\t// in\n    tag_125:\n        /* \"#utility.yul\":3491:3603   */\n    tag_124:\n        /* \"#utility.yul\":3612:3666   */\n      tag_126\n        /* \"#utility.yul\":3659:3665   */\n      dup5\n        /* \"#utility.yul\":3654:3657   */\n      dup3\n        /* \"#utility.yul\":3649:3652   */\n      dup6\n        /* \"#utility.yul\":3612:3666   */\n      tag_63\n      jump\t// in\n    tag_126:\n        /* \"#utility.yul\":3331:3672   */\n      pop\n        /* \"#utility.yul\":3247:3672   */\n      swap4\n      swap3\n      pop\n      pop\n      pop\n      jump\t// out\n        /* \"#utility.yul\":3692:4032   */\n    tag_65:\n        /* \"#utility.yul\":3748:3753   */\n      0x00\n        /* \"#utility.yul\":3797:3800   */\n      dup3\n        /* \"#utility.yul\":3790:3794   */\n      0x1f\n        /* \"#utility.yul\":3782:3788   */\n      dup4\n        /* \"#utility.yul\":3778:3795   */\n      add\n        /* \"#utility.yul\":3774:3801   */\n      slt\n        /* \"#utility.yul\":3764:3886   */\n      tag_128\n      jumpi\n        /* \"#utility.yul\":3805:3884   */\n      tag_129\n      tag_57\n      jump\t// in\n    tag_129:\n        /* \"#utility.yul\":3764:3886   */\n    tag_128:\n        /* \"#utility.yul\":3922:3928   */\n      dup2\n        /* \"#utility.yul\":3909:3929   */\n      calldataload\n        /* \"#utility.yul\":3947:4026   */\n      tag_130\n        /* \"#utility.yul\":4022:4025   */\n      dup5\n        /* \"#utility.yul\":4014:4020   */\n      dup3\n        /* \"#utility.yul\":4007:4011   */\n      0x20\n        /* \"#utility.yul\":3999:4005   */\n      dup7\n        /* \"#utility.yul\":3995:4012   */\n      add\n        /* \"#utility.yul\":3947:4026   */\n      tag_64\n      jump\t// in\n    tag_130:\n        /* \"#utility.yul\":3938:4026   */\n      swap2\n      pop\n        /* \"#utility.yul\":3754:4032   */\n      pop\n        /* \"#utility.yul\":3692:4032   */\n      swap3\n      swap2\n      pop\n      pop\n      jump\t// out\n        /* \"#utility.yul\":4038:4692   */\n    tag_13:\n        /* \"#utility.yul\":4116:4122   */\n      0x00\n        /* \"#utility.yul\":4124:4130   */\n      0x00\n        /* \"#utility.yul\":4173:4175   */\n      0x40\n        /* \"#utility.yul\":4161:4170   */\n      dup4\n        /* \"#utility.yul\":4152:4159   */\n      dup6\n        /* \"#utility.yul\":4148:4171   */\n      sub\n        /* \"#utility.yul\":4144:4176   */\n      slt\n        /* \"#utility.yul\":4141:4260   */\n      iszero\n      tag_132\n      jumpi\n        /* \"#utility.yul\":4179:4258   */\n      tag_133\n      tag_52\n      jump\t// in\n    tag_133:\n        /* \"#utility.yul\":4141:4260   */\n    tag_132:\n        /* \"#utility.yul\":4299:4300   */\n      0x00\n        /* \"#utility.yul\":4324:4377   */\n      tag_134\n        /* \"#utility.yul\":4369:4376   */\n      dup6\n        /* \"#utility.yul\":4360:4366   */\n      dup3\n        /* \"#utility.yul\":4349:4358   */\n      dup7\n        /* \"#utility.yul\":4345:4367   */\n      add\n        /* \"#utility.yul\":4324:4377   */\n      tag_56\n      jump\t// in\n    tag_134:\n        /* \"#utility.yul\":4314:4377   */\n      swap3\n      pop\n        /* \"#utility.yul\":4270:4387   */\n      pop\n        /* \"#utility.yul\":4454:4456   */\n      0x20\n        /* \"#utility.yul\":4443:4452   */\n      dup4\n        /* \"#utility.yul\":4439:4457   */\n      add\n        /* \"#utility.yul\":4426:4458   */\n      calldataload\n        /* \"#utility.yul\":4485:4503   */\n      0xffffffffffffffff\n        /* \"#utility.yul\":4477:4483   */\n      dup2\n        /* \"#utility.yul\":4474:4504   */\n      gt\n        /* \"#utility.yul\":4471:4588   */\n      iszero\n      tag_135\n      jumpi\n        /* \"#utility.yul\":4507:4586   */\n      tag_136\n      tag_53\n      jump\t// in\n    tag_136:\n        /* \"#utility.yul\":4471:4588   */\n    tag_135:\n        /* \"#utility.yul\":4612:4675   */\n      tag_137\n        /* \"#utility.yul\":4667:4674   */\n      dup6\n        /* \"#utility.yul\":4658:4664   */\n      dup3\n        /* \"#utility.yul\":4647:4656   */\n      dup7\n        /* \"#utility.yul\":4643:4665   */\n      add\n        /* \"#utility.yul\":4612:4675   */\n      tag_65\n      jump\t// in\n    tag_137:\n        /* \"#utility.yul\":4602:4675   */\n      swap2\n      pop\n        /* \"#utility.yul\":4397:4685   */\n      pop\n        /* \"#utility.yul\":4038:4692   */\n      swap3\n      pop\n      swap3\n      swap1\n      pop\n      jump\t// out\n        /* \"#utility.yul\":4698:5207   */\n    tag_17:\n        /* \"#utility.yul\":4767:4773   */\n      0x00\n        /* \"#utility.yul\":4816:4818   */\n      0x20\n        /* \"#utility.yul\":4804:4813   */\n      dup3\n        /* \"#utility.yul\":4795:4802   */\n      dup5\n        /* \"#utility.yul\":4791:4814   */\n      sub\n        /* \"#utility.yul\":4787:4819   */\n      slt\n        /* \"#utility.yul\":4784:4903   */\n      iszero\n      tag_139\n      jumpi\n        /* \"#utility.yul\":4822:4901   */\n      tag_140\n      tag_52\n      jump\t// in\n    tag_140:\n        /* \"#utility.yul\":4784:4903   */\n    tag_139:\n        /* \"#utility.yul\":4970:4971   */\n      0x00\n        /* \"#utility.yul\":4959:4968   */\n      dup3\n        /* \"#utility.yul\":4955:4972   */\n      add\n        /* \"#utility.yul\":4942:4973   */\n      calldataload\n        /* \"#utility.yul\":5000:5018   */\n      0xffffffffffffffff\n        /* \"#utility.yul\":4992:4998   */\n      dup2\n        /* \"#utility.yul\":4989:5019   */\n      gt\n        /* \"#utility.yul\":4986:5103   */\n      iszero\n      tag_141\n      jumpi\n        /* \"#utility.yul\":5022:5101   */\n      tag_142\n      tag_53\n      jump\t// in\n    tag_142:\n        /* \"#utility.yul\":4986:5103   */\n    tag_141:\n        /* \"#utility.yul\":5127:5190   */\n      tag_143\n        /* \"#utility.yul\":5182:5189   */\n      dup5\n        /* \"#utility.yul\":5173:5179   */\n      dup3\n        /* \"#utility.yul\":5162:5171   */\n      dup6\n        /* \"#utility.yul\":5158:5180   */\n      add\n        /* \"#utility.yul\":5127:5190   */\n      tag_65\n      jump\t// in\n    tag_143:\n        /* \"#utility.yul\":5117:5190   */\n      swap2\n      pop\n        /* \"#utility.yul\":4913:5200   */\n      pop\n        /* \"#utility.yul\":4698:5207   */\n      swap3\n      swap2\n      pop\n      pop\n      jump\t// out\n        /* \"#utility.yul\":5213:5393   */\n    tag_66:\n        /* \"#utility.yul\":5261:5338   */\n      0x4e487b7100000000000000000000000000000000000000000000000000000000\n        /* \"#utility.yul\":5258:5259   */\n      0x00\n        /* \"#utility.yul\":5251:5339   */\n      mstore\n        /* \"#utility.yul\":5358:5362   */\n      0x22\n        /* \"#utility.yul\":5355:5356   */\n      0x04\n        /* \"#utility.yul\":5348:5363   */\n      mstore\n        /* \"#utility.yul\":5382:5386   */\n      0x24\n        /* \"#utility.yul\":5379:5380   */\n      0x00\n        /* \"#utility.yul\":5372:5387   */\n      revert\n        /* \"#utility.yul\":5399:5719   */\n    tag_25:\n        /* \"#utility.yul\":5443:5449   */\n      0x00\n        /* \"#utility.yul\":5480:5481   */\n      0x02\n        /* \"#utility.yul\":5474:5478   */\n      dup3\n        /* \"#utility.yul\":5470:5482   */\n      div\n        /* \"#utility.yul\":5460:5482   */\n      swap1\n      pop\n        /* \"#utility.yul\":5527:5528   */\n      0x01\n        /* \"#utility.yul\":5521:5525   */\n      dup3\n        /* \"#utility.yul\":5517:5529   */\n      and\n        /* \"#utility.yul\":5548:5566   */\n      dup1\n        /* \"#utility.yul\":5538:5619   */\n      tag_146\n      jumpi\n        /* \"#utility.yul\":5604:5608   */\n      0x7f\n        /* \"#utility.yul\":5596:5602   */\n      dup3\n        /* \"#utility.yul\":5592:5609   */\n      and\n        /* \"#utility.yul\":5582:5609   */\n      swap2\n      pop\n        /* \"#utility.yul\":5538:5619   */\n    tag_146:\n        /* \"#utility.yul\":5666:5668   */\n      0x20\n        /* \"#utility.yul\":5658:5664   */\n      dup3\n        /* \"#utility.yul\":5655:5669   */\n      lt\n        /* \"#utility.yul\":5635:5653   */\n      dup2\n        /* \"#utility.yul\":5632:5670   */\n      sub\n        /* \"#utility.yul\":5629:5713   */\n      tag_147\n      jumpi\n        /* \"#utility.yul\":5685:5703   */\n      tag_148\n      tag_66\n      jump\t// in\n    tag_148:\n        /* \"#utility.yul\":5629:5713   */\n    tag_147:\n        /* \"#utility.yul\":5450:5719   */\n      pop\n        /* \"#utility.yul\":5399:5719   */\n      swap2\n      swap1\n      pop\n      jump\t// out\n        /* \"#utility.yul\":5725:5866   */\n    tag_67:\n        /* \"#utility.yul\":5774:5778   */\n      0x00\n        /* \"#utility.yul\":5797:5800   */\n      dup2\n        /* \"#utility.yul\":5789:5800   */\n      swap1\n      pop\n        /* \"#utility.yul\":5820:5823   */\n      dup2\n        /* \"#utility.yul\":5817:5818   */\n      0x00\n        /* \"#utility.yul\":5810:5824   */\n      mstore\n        /* \"#utility.yul\":5854:5858   */\n      0x20\n        /* \"#utility.yul\":5851:5852   */\n      0x00\n        /* \"#utility.yul\":5841:5859   */\n      keccak256\n        /* \"#utility.yul\":5833:5859   */\n      swap1\n      pop\n        /* \"#utility.yul\":5725:5866   */\n      swap2\n      swap1\n      pop\n      jump\t// out\n        /* \"#utility.yul\":5872:5965   */\n    tag_68:\n        /* \"#utility.yul\":5909:5915   */\n      0x00\n        /* \"#utility.yul\":5956:5958   */\n      0x20\n        /* \"#utility.yul\":5951:5953   */\n      0x1f\n        /* \"#utility.yul\":5944:5949   */\n      dup4\n        /* \"#utility.yul\":5940:5954   */\n      add\n        /* \"#utility.yul\":5936:5959   */\n      div\n        /* \"#utility.yul\":5926:5959   */\n      swap1\n      pop\n        /* \"#utility.yul\":5872:5965   */\n      swap2\n      swap1\n      pop\n      jump\t// out\n        /* \"#utility.yul\":5971:6078   */\n    tag_69:\n        /* \"#utility.yul\":6015:6023   */\n      0x00\n        /* \"#utility.yul\":6065:6070   */\n      dup3\n        /* \"#utility.yul\":6059:6063   */\n      dup3\n        /* \"#utility.yul\":6055:6071   */\n      shl\n        /* \"#utility.yul\":6034:6071   */\n      swap1\n      pop\n        /* \"#utility.yul\":5971:6078   */\n      swap3\n      swap2\n      pop\n      pop\n      jump\t// out\n        /* \"#utility.yul\":6084:6477   */\n    tag_70:\n        /* \"#utility.yul\":6153:6159   */\n      0x00\n        /* \"#utility.yul\":6203:6204   */\n      0x08\n        /* \"#utility.yul\":6191:6201   */\n      dup4\n        /* \"#utility.yul\":6187:6205   */\n      mul\n        /* \"#utility.yul\":6226:6323   */\n      tag_153\n        /* \"#utility.yul\":6256:6322   */\n      0xffffffffffffffffffffffffffffffffffffffffffffffffffffffffffffffff\n        /* \"#utility.yul\":6245:6254   */\n      dup3\n        /* \"#utility.yul\":6226:6323   */\n      tag_69\n      jump\t// in\n    tag_153:\n        /* \"#utility.yul\":6344:6383   */\n      tag_154\n        /* \"#utility.yul\":6374:6382   */\n      dup7\n        /* \"#utility.yul\":6363:6372   */\n      dup4\n        /* \"#utility.yul\":6344:6383   */\n      tag_69\n      jump\t// in\n    tag_154:\n        /* \"#utility.yul\":6332:6383   */\n      swap6\n      pop\n        /* \"#utility.yul\":6416:6420   */\n      dup1\n        /* \"#utility.yul\":6412:6421   */\n      not\n        /* \"#utility.yul\":6405:6410   */\n      dup5\n        /* \"#utility.yul\":6401:6422   */\n      and\n        /* \"#utility.yul\":6392:6422   */\n      swap4\n      pop\n        /* \"#utility.yul\":6465:6469   */\n      dup1\n        /* \"#utility.yul\":6455:6463   */\n      dup7\n        /* \"#utility.yul\":6451:6470   */\n      and\n        /* \"#utility.yul\":6444:6449   */\n      dup5\n        /* \"#utility.yul\":6441:6471   */\n      or\n        /* \"#utility.yul\":6431:6471   */\n      swap3\n      pop\n        /* \"#utility.yul\":6160:6477   */\n      pop\n      pop\n        /* \"#utility.yul\":6084:6477   */\n      swap4\n      swap3\n      pop\n      pop\n      pop\n      jump\t// out\n        /* \"#utility.yul\":6483:6543   */\n    tag_71:\n        /* \"#utility.yul\":6511:6514   */\n      0x00\n        /* \"#utility.yul\":6532:6537   */\n      dup2\n        /* \"#utility.yul\":6525:6537   */\n      swap1\n      pop\n        /* \"#utility.yul\":6483:6543   */\n      swap2\n      swap1\n      pop\n      jump\t// out\n        /* \"#utility.yul\":6549:6691   */\n    tag_72:\n        /* \"#utility.yul\":6599:6608   */\n      0x00\n        /* \"#utility.yul\":6632:6685   */\n      tag_157\n        /* \"#utility.yul\":6650:6684   */\n      tag_158\n        /* \"#utility.yul\":6659:6683   */\n      tag_159\n        /* \"#utility.yul\":6677:6682   */\n      dup5\n        /* \"#utility.yul\":6659:6683   */\n      tag_54\n      jump\t// in\n    tag_159:\n        /* \"#utility.yul\":6650:6684   */\n      tag_71\n      jump\t// in\n    tag_158:\n        /* \"#utility.yul\":6632:6685   */\n      tag_54\n      jump\t// in\n    tag_157:\n        /* \"#utility.yul\":6619:6685   */\n      swap1\n      pop\n        /* \"#utility.yul\":6549:6691   */\n      swap2\n      swap1\n      pop\n      jump\t// out\n        /* \"#utility.yul\":6697:6772   */\n    tag_73:\n        /* \"#utility.yul\":6740:6743   */\n      0x00\n        /* \"#utility.yul\":6761:6766   */\n      dup2\n        /* \"#utility.yul\":6754:6766   */\n      swap1\n      pop\n        /* \"#utility.yul\":6697:6772   */\n      swap2\n      swap1\n      pop\n      jump\t// out\n        /* \"#utility.yul\":6778:7047   */\n    tag_74:\n        /* \"#utility.yul\":6888:6927   */\n      tag_162\n        /* \"#utility.yul\":6919:6926   */\n      dup4\n        /* \"#utility.yul\":6888:6927   */\n      tag_72\n      jump\t// in\n    tag_162:\n        /* \"#utility.yul\":6949:7040   */\n      tag_163\n        /* \"#utility.yul\":6998:7039   */\n      tag_164\n        /* \"#utility.yul\":7022:7038   */\n      dup3\n        /* \"#utility.yul\":6998:7039   */\n      tag_73\n      jump\t// in\n    tag_164:\n        /* \"#utility.yul\":6990:6996   */\n      dup5\n        /* \"#utility.yul\":6983:6987   */\n      dup5\n        /* \"#utility.yul\":6977:6988   */\n      sload\n        /* \"#utility.yul\":6949:7040   */\n      tag_70\n      jump\t// in\n    tag_163:\n        /* \"#utility.yul\":6943:6947   */\n      dup3\n        /* \"#utility.yul\":6936:7041   */\n      sstore\n        /* \"#utility.yul\":6854:7047   */\n      pop\n        /* \"#utility.yul\":6778:7047   */\n      pop\n      pop\n      pop\n      jump\t// out\n        /* \"#utility.yul\":7053:7126   */\n    tag_75:\n        /* \"#utility.yul\":7098:7101   */\n      0x00\n        /* \"#utility.yul\":7119:7120   */\n      0x00\n        /* \"#utility.yul\":7112:7120   */\n      swap1\n      pop\n        /* \"#utility.yul\":7053:7126   */\n      swap1\n      jump\t// out\n        /* \"#utility.yul\":7132:7321   */\n    tag_76:\n        /* \"#utility.yul\":7209:7241   */\n      tag_167\n      tag_75\n      jump\t// in\n    tag_167:\n        /* \"#utility.yul\":7250:7315   */\n      tag_168\n        /* \"#utility.yul\":7308:7314   */\n      dup2\n        /* \"#utility.yul\":7300:7306   */\n      dup5\n        /* \"#utility.yul\":7294:7298   */\n      dup5\n        /* \"#utility.yul\":7250:7315   */\n      tag_74\n      jump\t// in\n    tag_168:\n        /* \"#utility.yul\":7185:7321   */\n      pop\n        /* \"#utility.yul\":7132:7321   */\n      pop\n      pop\n      jump\t// out\n        /* \"#utility.yul\":7327:7513   */\n    tag_77:\n        /* \"#utility.yul\":7387:7507   */\n    tag_170:\n        /* \"#utility.yul\":7404:7407   */\n      dup2\n        /* \"#utility.yul\":7397:7402   */\n      dup2\n        /* \"#utility.yul\":7394:7408   */\n      lt\n        /* \"#utility.yul\":7387:7507   */\n      iszero\n      tag_172\n      jumpi\n        /* \"#utility.yul\":7458:7497   */\n      tag_173\n        /* \"#utility.yul\":7495:7496   */\n      0x00\n        /* \"#utility.yul\":7488:7493   */\n      dup3\n        /* \"#utility.yul\":7458:7497   */\n      tag_76\n      jump\t// in\n    tag_173:\n        /* \"#utility.yul\":7431:7432   */\n      0x01\n        /* \"#utility.yul\":7424:7429   */\n      dup2\n        /* \"#utility.yul\":7420:7433   */\n      add\n        /* \"#utility.yul\":7411:7433   */\n      swap1\n      pop\n        /* \"#utility.yul\":7387:7507   */\n      jump(tag_170)\n    tag_172:\n        /* \"#utility.yul\":7327:7513   */\n      pop\n      pop\n      jump\t// out\n        /* \"#utility.yul\":7519:8062   */\n    tag_78:\n        /* \"#utility.yul\":7620:7622   */\n      0x1f\n        /* \"#utility.yul\":7615:7618   */\n      dup3\n        /* \"#utility.yul\":7612:7623   */\n      gt\n        /* \"#utility.yul\":7609:8055   */\n      iszero\n      tag_175\n      jumpi\n        /* \"#utility.yul\":7654:7692   */\n      tag_176\n        /* \"#utility.yul\":7686:7691   */\n      dup2\n        /* \"#utility.yul\":7654:7692   */\n      tag_67\n      jump\t// in\n    tag_176:\n        /* \"#utility.yul\":7738:7767   */\n      tag_177\n        /* \"#utility.yul\":7756:7766   */\n      dup5\n        /* \"#utility.yul\":7738:7767   */\n      tag_68\n      jump\t// in\n    tag_177:\n        /* \"#utility.yul\":7728:7736   */\n      dup2\n        /* \"#utility.yul\":7724:7768   */\n      add\n        /* \"#utility.yul\":7921:7923   */\n      0x20\n        /* \"#utility.yul\":7909:7919   */\n      dup6\n        /* \"#utility.yul\":7906:7924   */\n      lt\n        /* \"#utility.yul\":7903:7952   */\n      iszero\n      tag_178\n      jumpi\n        /* \"#utility.yul\":7942:7950   */\n      dup2\n        /* \"#utility.yul\":7927:7950   */\n      swap1\n      pop\n        /* \"#utility.yul\":7903:7952   */\n    tag_178:\n        /* \"#utility.yul\":7965:8045   */\n      tag_179\n        /* \"#utility.yul\":8021:8043   */\n      tag_180\n        /* \"#utility.yul\":8039:8042   */\n      dup6\n        /* \"#utility.yul\":8021:8043   */\n      tag_68\n      jump\t// in\n    tag_180:\n        /* \"#utility.yul\":8011:8019   */\n      dup4\n        /* \"#utility.yul\":8007:8044   */\n      add\n        /* \"#utility.yul\":7994:8005   */\n      dup3\n        /* \"#utility.yul\":7965:8045   */\n      tag_77\n      jump\t// in\n    tag_179:\n        /* \"#utility.yul\":7624:8055   */\n      pop\n      pop\n        /* \"#utility.yul\":7609:8055   */\n    tag_175:\n        /* \"#utility.yul\":7519:8062   */\n      pop\n      pop\n      pop\n      jump\t// out\n        /* \"#utility.yul\":8068:8185   */\n    tag_79:\n        /* \"#utility.yul\":8122:8130   */\n      0x00\n        /* \"#utility.yul\":8172:8177   */\n      dup3\n        /* \"#utility.yul\":8166:8170   */\n      dup3\n        /* \"#utility.yul\":8162:8178   */\n      shr\n        /* \"#utility.yul\":8141:8178   */\n      swap1\n      pop\n        /* \"#utility.yul\":8068:8185   */\n      swap3\n      swap2\n      pop\n      pop\n      jump\t// out\n        /* \"#utility.yul\":8191:8360   */\n    tag_80:\n        /* \"#utility.yul\":8235:8241   */\n      0x00\n        /* \"#utility.yul\":8268:8319   */\n      tag_183\n        /* \"#utility.yul\":8316:8317   */\n      0x00\n        /* \"#utility.yul\":8312:8318   */\n      not\n        /* \"#utility.yul\":8304:8309   */\n      dup5\n        /* \"#utility.yul\":8301:8302   */\n      0x08\n        /* \"#utility.yul\":8297:8310   */\n      mul\n        /* \"#utility.yul\":8268:8319   */\n      tag_79\n      jump\t// in\n    tag_183:\n        /* \"#utility.yul\":8264:8320   */\n      not\n        /* \"#utility.yul\":8349:8353   */\n      dup1\n        /* \"#utility.yul\":8343:8347   */\n      dup4\n        /* \"#utility.yul\":8339:8354   */\n      and\n        /* \"#utility.yul\":8329:8354   */\n      swap2\n      pop\n        /* \"#utility.yul\":8242:8360   */\n      pop\n        /* \"#utility.yul\":8191:8360   */\n      swap3\n      swap2\n      pop\n      pop\n      jump\t// out\n        /* \"#utility.yul\":8365:8660   */\n    tag_81:\n        /* \"#utility.yul\":8441:8445   */\n      0x00\n        /* \"#utility.yul\":8587:8616   */\n      tag_185\n        /* \"#utility.yul\":8612:8615   */\n      dup4\n        /* \"#utility.yul\":8606:8610   */\n      dup4\n        /* \"#utility.yul\":8587:8616   */\n      tag_80\n      jump\t// in\n    tag_185:\n        /* \"#utility.yul\":8579:8616   */\n      swap2\n      pop\n        /* \"#utility.yul\":8649:8652   */\n      dup3\n        /* \"#utility.yul\":8646:8647   */\n      0x02\n        /* \"#utility.yul\":8642:8653   */\n      mul\n        /* \"#utility.yul\":8636:8640   */\n      dup3\n        /* \"#utility.yul\":8633:8654   */\n      or\n        /* \"#utility.yul\":8625:8654   */\n      swap1\n      pop\n        /* \"#utility.yul\":8365:8660   */\n      swap3\n      swap2\n      pop\n      pop\n      jump\t// out\n        /* \"#utility.yul\":8665:10060   */\n    tag_34:\n        /* \"#utility.yul\":8782:8819   */\n      tag_187\n        /* \"#utility.yul\":8815:8818   */\n      dup3\n        /* \"#utility.yul\":8782:8819   */\n      tag_46\n      jump\t// in\n    tag_187:\n        /* \"#utility.yul\":8884:8902   */\n      0xffffffffffffffff\n        /* \"#utility.yul\":8876:8882   */\n      dup2\n        /* \"#utility.yul\":8873:8903   */\n      gt\n        /* \"#utility.yul\":8870:8926   */\n      iszero\n      tag_188\n      jumpi\n        /* \"#utility.yul\":8906:8924   */\n      tag_189\n      tag_59\n      jump\t// in\n    tag_189:\n        /* \"#utility.yul\":8870:8926   */\n    tag_188:\n        /* \"#utility.yul\":8950:8988   */\n      tag_190\n        /* \"#utility.yul\":8982:8986   */\n      dup3\n        /* \"#utility.yul\":8976:8987   */\n      sload\n        /* \"#utility.yul\":8950:8988   */\n      tag_25\n      jump\t// in\n    tag_190:\n        /* \"#utility.yul\":9035:9102   */\n      tag_191\n        /* \"#utility.yul\":9095:9101   */\n      dup3\n        /* \"#utility.yul\":9087:9093   */\n      dup3\n        /* \"#utility.yul\":9081:9085   */\n      dup6\n        /* \"#utility.yul\":9035:9102   */\n      tag_78\n      jump\t// in\n    tag_191:\n        /* \"#utility.yul\":9129:9130   */\n      0x00\n        /* \"#utility.yul\":9153:9157   */\n      0x20\n        /* \"#utility.yul\":9140:9157   */\n      swap1\n      pop\n        /* \"#utility.yul\":9185:9187   */\n      0x1f\n        /* \"#utility.yul\":9177:9183   */\n      dup4\n        /* \"#utility.yul\":9174:9188   */\n      gt\n        /* \"#utility.yul\":9202:9203   */\n      0x01\n        /* \"#utility.yul\":9197:9815   */\n      dup2\n      eq\n      tag_193\n      jumpi\n        /* \"#utility.yul\":9859:9860   */\n      0x00\n        /* \"#utility.yul\":9876:9882   */\n      dup5\n        /* \"#utility.yul\":9873:9950   */\n      iszero\n      tag_194\n      jumpi\n        /* \"#utility.yul\":9925:9934   */\n      dup3\n        /* \"#utility.yul\":9920:9923   */\n      dup8\n        /* \"#utility.yul\":9916:9935   */\n      add\n        /* \"#utility.yul\":9910:9936   */\n      mload\n        /* \"#utility.yul\":9901:9936   */\n      swap1\n      pop\n        /* \"#utility.yul\":9873:9950   */\n    tag_194:\n        /* \"#utility.yul\":9976:10043   */\n      tag_195\n        /* \"#utility.yul\":10036:10042   */\n      dup6\n        /* \"#utility.yul\":10029:10034   */\n      dup3\n        /* \"#utility.yul\":9976:10043   */\n      tag_81\n      jump\t// in\n    tag_195:\n        /* \"#utility.yul\":9970:9974   */\n      dup7\n        /* \"#utility.yul\":9963:10044   */\n      sstore\n        /* \"#utility.yul\":9832:10054   */\n      pop\n        /* \"#utility.yul\":9167:10054   */\n      jump(tag_192)\n        /* \"#utility.yul\":9197:9815   */\n    tag_193:\n        /* \"#utility.yul\":9249:9253   */\n      0x1f\n        /* \"#utility.yul\":9245:9254   */\n      not\n        /* \"#utility.yul\":9237:9243   */\n      dup5\n        /* \"#utility.yul\":9233:9255   */\n      and\n        /* \"#utility.yul\":9283:9320   */\n      tag_196\n        /* \"#utility.yul\":9315:9319   */\n      dup7\n        /* \"#utility.yul\":9283:9320   */\n      tag_67\n      jump\t// in\n    tag_196:\n        /* \"#utility.yul\":9342:9343   */\n      0x00\n        /* \"#utility.yul\":9356:9564   */\n    tag_197:\n        /* \"#utility.yul\":9370:9377   */\n      dup3\n        /* \"#utility.yul\":9367:9368   */\n      dup2\n        /* \"#utility.yul\":9364:9378   */\n      lt\n        /* \"#utility.yul\":9356:9564   */\n      iszero\n      tag_199\n      jumpi\n        /* \"#utility.yul\":9449:9458   */\n      dup5\n        /* \"#utility.yul\":9444:9447   */\n      dup10\n        /* \"#utility.yul\":9440:9459   */\n      add\n        /* \"#utility.yul\":9434:9460   */\n      mload\n        /* \"#utility.yul\":9426:9432   */\n      dup3\n        /* \"#utility.yul\":9419:9461   */\n      sstore\n        /* \"#utility.yul\":9500:9501   */\n      0x01\n        /* \"#utility.yul\":9492:9498   */\n      dup3\n        /* \"#utility.yul\":9488:9502   */\n      add\n        /* \"#utility.yul\":9478:9502   */\n      swap2\n      pop\n        /* \"#utility.yul\":9547:9549   */\n      0x20\n        /* \"#utility.yul\":9536:9545   */\n      dup6\n        /* \"#utility.yul\":9532:9550   */\n      add\n        /* \"#utility.yul\":9519:9550   */\n      swap5\n      pop\n        /* \"#utility.yul\":9393:9397   */\n      0x20\n        /* \"#utility.yul\":9390:9391   */\n      dup2\n        /* \"#utility.yul\":9386:9398   */\n      add\n        /* \"#utility.yul\":9381:9398   */\n      swap1\n      pop\n        /* \"#utility.yul\":9356:9564   */\n      jump(tag_197)\n    tag_199:\n        /* \"#utility.yul\":9592:9598   */\n      dup7\n        /* \"#utility.yul\":9583:9590   */\n      dup4\n        /* \"#utility.yul\":9580:9599   */\n      lt\n        /* \"#utility.yul\":9577:9756   */\n      iszero\n      tag_200\n      jumpi\n        /* \"#utility.yul\":9650:9659   */\n      dup5\n        /* \"#utility.yul\":9645:9648   */\n      dup10\n        /* \"#utility.yul\":9641:9660   */\n      add\n        /* \"#utility.yul\":9635:9661   */\n      mload\n        /* \"#utility.yul\":9693:9741   */\n      tag_201\n        /* \"#utility.yul\":9735:9739   */\n      0x1f\n        /* \"#utility.yul\":9727:9733   */\n      dup10\n        /* \"#utility.yul\":9723:9740   */\n      and\n        /* \"#utility.yul\":9712:9721   */\n      dup3\n        /* \"#utility.yul\":9693:9741   */\n      tag_80\n      jump\t// in\n    tag_201:\n        /* \"#utility.yul\":9685:9691   */\n      dup4\n        /* \"#utility.yul\":9678:9742   */\n      sstore\n        /* \"#utility.yul\":9600:9756   */\n      pop\n        /* \"#utility.yul\":9577:9756   */\n    tag_200:\n        /* \"#utility.yul\":9802:9803   */\n      0x01\n        /* \"#utility.yul\":9798:9799   */\n      0x02\n        /* \"#utility.yul\":9790:9796   */\n      dup9\n        /* \"#utility.yul\":9786:9800   */\n      mul\n        /* \"#utility.yul\":9782:9804   */\n      add\n        /* \"#utility.yul\":9776:9780   */\n      dup9\n        /* \"#utility.yul\":9769:9805   */\n      sstore\n        /* \"#utility.yul\":9204:9815   */\n      pop\n      pop\n      pop\n        /* \"#utility.yul\":9167:10054   */\n    tag_192:\n      pop\n        /* \"#utility.yul\":8757:10060   */\n      pop\n      pop\n      pop\n        /* \"#utility.yul\":8665:10060   */\n      pop\n      pop\n      jump\t// out\n        /* \"#utility.yul\":10066:10214   */\n    tag_82:\n        /* \"#utility.yul\":10168:10179   */\n      0x00\n        /* \"#utility.yul\":10205:10208   */\n      dup2\n        /* \"#utility.yul\":10190:10208   */\n      swap1\n      pop\n        /* \"#utility.yul\":10066:10214   */\n      swap3\n      swap2\n      pop\n      pop\n      jump\t// out\n        /* \"#utility.yul\":10220:10610   */\n    tag_83:\n        /* \"#utility.yul\":10326:10329   */\n      0x00\n        /* \"#utility.yul\":10354:10393   */\n      tag_204\n        /* \"#utility.yul\":10387:10392   */\n      dup3\n        /* \"#utility.yul\":10354:10393   */\n      tag_46\n      jump\t// in\n    tag_204:\n        /* \"#utility.yul\":10409:10498   */\n      tag_205\n        /* \"#utility.yul\":10491:10497   */\n      dup2\n        /* \"#utility.yul\":10486:10489   */\n      dup6\n        /* \"#utility.yul\":10409:10498   */\n      tag_82\n      jump\t// in\n    tag_205:\n        /* \"#utility.yul\":10402:10498   */\n      swap4\n      pop\n        /* \"#utility.yul\":10507:10572   */\n      tag_206\n        /* \"#utility.yul\":10565:10571   */\n      dup2\n        /* \"#utility.yul\":10560:10563   */\n      dup6\n        /* \"#utility.yul\":10553:10557   */\n      0x20\n        /* \"#utility.yul\":10546:10551   */\n      dup7\n        /* \"#utility.yul\":10542:10558   */\n      add\n        /* \"#utility.yul\":10507:10572   */\n      tag_48\n      jump\t// in\n    tag_206:\n        /* \"#utility.yul\":10597:10603   */\n      dup1\n        /* \"#utility.yul\":10592:10595   */\n      dup5\n        /* \"#utility.yul\":10588:10604   */\n      add\n        /* \"#utility.yul\":10581:10604   */\n      swap2\n      pop\n        /* \"#utility.yul\":10330:10610   */\n      pop\n        /* \"#utility.yul\":10220:10610   */\n      swap3\n      swap2\n      pop\n      pop\n      jump\t// out\n        /* \"#utility.yul\":10616:10813   */\n    tag_84:\n        /* \"#utility.yul\":10785:10806   */\n      0x46726f6d20446479277320436f6e747261637400000000000000000000000000\n        /* \"#utility.yul\":10780:10783   */\n      dup2\n        /* \"#utility.yul\":10773:10807   */\n      mstore\n        /* \"#utility.yul\":10616:10813   */\n      pop\n      jump\t// out\n        /* \"#utility.yul\":10819:11361   */\n    tag_45:\n        /* \"#utility.yul\":11042:11045   */\n      0x00\n        /* \"#utility.yul\":11064:11159   */\n      tag_209\n        /* \"#utility.yul\":11155:11158   */\n      dup3\n        /* \"#utility.yul\":11146:11152   */\n      dup5\n        /* \"#utility.yul\":11064:11159   */\n      tag_83\n      jump\t// in\n    tag_209:\n        /* \"#utility.yul\":11057:11159   */\n      swap2\n      pop\n        /* \"#utility.yul\":11169:11307   */\n      tag_210\n        /* \"#utility.yul\":11303:11306   */\n      dup3\n        /* \"#utility.yul\":11169:11307   */\n      tag_84\n      jump\t// in\n    tag_210:\n        /* \"#utility.yul\":11332:11334   */\n      0x13\n        /* \"#utility.yul\":11327:11330   */\n      dup3\n        /* \"#utility.yul\":11323:11335   */\n      add\n        /* \"#utility.yul\":11316:11335   */\n      swap2\n      pop\n        /* \"#utility.yul\":11352:11355   */\n      dup2\n        /* \"#utility.yul\":11345:11355   */\n      swap1\n      pop\n        /* \"#utility.yul\":10819:11361   */\n      swap3\n      swap2\n      pop\n      pop\n      jump\t// out\n\n    auxdata: 0xa26469706673582212203a0f5e236236e96e2dbee7a2b508896685ea623b3ef2f95a44266d1f72e0149e64736f6c634300081e0033\n}\n",
				"bytecode": {
					"linkReferences": {},
					"object": "608060405260015f5f6101000a81548160ff0219169083151502179055505f5f60016101000a81548160ff02191690831515021790555060646001557ffffffffffffffffffffffffffffffffffffffffffffffffffffffffffffffff86002557f48656c6c6f20576f726c642100000000000000000000000000000000000000006003556040518060400160405280600d81526020017f48656c6c6f20576f726c64732100000000000000000000000000000000000000815250600490816100c7919061036a565b50735b38da6a701c568545dcfcb03fcb875f56beddc460055f6101000a81548173ffffffffffffffffffffffffffffffffffffffff021916908373ffffffffffffffffffffffffffffffffffffffff160217905550348015610127575f5ffd5b50610439565b5f81519050919050565b7f4e487b71000000000000000000000000000000000000000000000000000000005f52604160045260245ffd5b7f4e487b71000000000000000000000000000000000000000000000000000000005f52602260045260245ffd5b5f60028204905060018216806101a857607f821691505b6020821081036101bb576101ba610164565b5b50919050565b5f819050815f5260205f209050919050565b5f6020601f8301049050919050565b5f82821b905092915050565b5f6008830261021d7fffffffffffffffffffffffffffffffffffffffffffffffffffffffffffffffff826101e2565b61022786836101e2565b95508019841693508086168417925050509392505050565b5f819050919050565b5f819050919050565b5f61026b6102666102618461023f565b610248565b61023f565b9050919050565b5f819050919050565b61028483610251565b61029861029082610272565b8484546101ee565b825550505050565b5f5f905090565b6102af6102a0565b6102ba81848461027b565b505050565b5b818110156102dd576102d25f826102a7565b6001810190506102c0565b5050565b601f821115610322576102f3816101c1565b6102fc846101d3565b8101602085101561030b578190505b61031f610317856101d3565b8301826102bf565b50505b505050565b5f82821c905092915050565b5f6103425f1984600802610327565b1980831691505092915050565b5f61035a8383610333565b9150826002028217905092915050565b6103738261012d565b67ffffffffffffffff81111561038c5761038b610137565b5b6103968254610191565b6103a18282856102e1565b5f60209050601f8311600181146103d2575f84156103c0578287015190505b6103ca858261034f565b865550610431565b601f1984166103e0866101c1565b5f5b82811015610407578489015182556001820191506020850194506020810190506103e2565b868310156104245784890151610420601f891682610333565b8355505b6001600288020188555050505b505050505050565b610916806104465f395ff3fe608060405234801561000f575f5ffd5b506004361061004a575f3560e01c80631d0951621461004e5780634cc9f11a1461006c578063c7fe745414610088578063ef5fb05b146100a4575b5f5ffd5b6100566100c2565b604051610063919061035e565b60405180910390f35b610086600480360381019061008191906104ee565b61015a565b005b6100a2600480360381019061009d9190610548565b610222565b005b6100ac610235565b6040516100b9919061035e565b60405180910390f35b6060610155600480546100d4906105bc565b80601f0160208091040260200160405190810160405280929190818152602001828054610100906105bc565b801561014b5780601f106101225761010080835404028352916020019161014b565b820191905f5260205f20905b81548152906001019060200180831161012e57829003601f168201915b50505050506102c5565b905090565b5f60405180606001604052808481526020018381526020013373ffffffffffffffffffffffffffffffffffffffff168152509050600681908060018154018082558091505060019003905f5260205f2090600302015f909190919091505f820151815f015560208201518160010190816101d4919061078c565b506040820151816002015f6101000a81548173ffffffffffffffffffffffffffffffffffffffff021916908373ffffffffffffffffffffffffffffffffffffffff1602179055505050505050565b8060049081610231919061078c565b5050565b606060048054610244906105bc565b80601f0160208091040260200160405190810160405280929190818152602001828054610270906105bc565b80156102bb5780601f10610292576101008083540402835291602001916102bb565b820191905f5260205f20905b81548152906001019060200180831161029e57829003601f168201915b5050505050905090565b6060816040516020016102d891906108bb565b6040516020818303038152906040529050919050565b5f81519050919050565b5f82825260208201905092915050565b8281835e5f83830152505050565b5f601f19601f8301169050919050565b5f610330826102ee565b61033a81856102f8565b935061034a818560208601610308565b61035381610316565b840191505092915050565b5f6020820190508181035f8301526103768184610326565b905092915050565b5f604051905090565b5f5ffd5b5f5ffd5b5f819050919050565b6103a18161038f565b81146103ab575f5ffd5b50565b5f813590506103bc81610398565b92915050565b5f5ffd5b5f5ffd5b7f4e487b71000000000000000000000000000000000000000000000000000000005f52604160045260245ffd5b61040082610316565b810181811067ffffffffffffffff8211171561041f5761041e6103ca565b5b80604052505050565b5f61043161037e565b905061043d82826103f7565b919050565b5f67ffffffffffffffff82111561045c5761045b6103ca565b5b61046582610316565b9050602081019050919050565b828183375f83830152505050565b5f61049261048d84610442565b610428565b9050828152602081018484840111156104ae576104ad6103c6565b5b6104b9848285610472565b509392505050565b5f82601f8301126104d5576104d46103c2565b5b81356104e5848260208601610480565b91505092915050565b5f5f6040838503121561050457610503610387565b5b5f610511858286016103ae565b925050602083013567ffffffffffffffff8111156105325761053161038b565b5b61053e858286016104c1565b9150509250929050565b5f6020828403121561055d5761055c610387565b5b5f82013567ffffffffffffffff81111561057a5761057961038b565b5b610586848285016104c1565b91505092915050565b7f4e487b71000000000000000000000000000000000000000000000000000000005f52602260045260245ffd5b5f60028204905060018216806105d357607f821691505b6020821081036105e6576105e561058f565b5b50919050565b5f819050815f5260205f209050919050565b5f6020601f8301049050919050565b5f82821b905092915050565b5f600883026106487fffffffffffffffffffffffffffffffffffffffffffffffffffffffffffffffff8261060d565b610652868361060d565b95508019841693508086168417925050509392505050565b5f819050919050565b5f61068d6106886106838461038f565b61066a565b61038f565b9050919050565b5f819050919050565b6106a683610673565b6106ba6106b282610694565b848454610619565b825550505050565b5f5f905090565b6106d16106c2565b6106dc81848461069d565b505050565b5b818110156106ff576106f45f826106c9565b6001810190506106e2565b5050565b601f82111561074457610715816105ec565b61071e846105fe565b8101602085101561072d578190505b610741610739856105fe565b8301826106e1565b50505b505050565b5f82821c905092915050565b5f6107645f1984600802610749565b1980831691505092915050565b5f61077c8383610755565b9150826002028217905092915050565b610795826102ee565b67ffffffffffffffff8111156107ae576107ad6103ca565b5b6107b882546105bc565b6107c3828285610703565b5f60209050601f8311600181146107f4575f84156107e2578287015190505b6107ec8582610771565b865550610853565b601f198416610802866105ec565b5f5b8281101561082957848901518255600182019150602085019450602081019050610804565b868310156108465784890151610842601f891682610755565b8355505b6001600288020188555050505b505050505050565b5f81905092915050565b5f61086f826102ee565b610879818561085b565b9350610889818560208601610308565b80840191505092915050565b7f46726f6d20446479277320436f6e747261637400000000000000000000000000815250565b5f6108c68284610865565b91506108d182610895565b6013820191508190509291505056fea26469706673582212203a0f5e236236e96e2dbee7a2b508896685ea623b3ef2f95a44266d1f72e0149e64736f6c634300081e0033",
					"opcodes": "PUSH1 0x80 PUSH1 0x40 MSTORE PUSH1 0x1 PUSH0 PUSH0 PUSH2 0x100 EXP DUP2 SLOAD DUP2 PUSH1 0xFF MUL NOT AND SWAP1 DUP4 ISZERO ISZERO MUL OR SWAP1 SSTORE POP PUSH0 PUSH0 PUSH1 0x1 PUSH2 0x100 EXP DUP2 SLOAD DUP2 PUSH1 0xFF MUL NOT AND SWAP1 DUP4 ISZERO ISZERO MUL OR SWAP1 SSTORE POP PUSH1 0x64 PUSH1 0x1 SSTORE PUSH32 0xFFFFFFFFFFFFFFFFFFFFFFFFFFFFFFFFFFFFFFFFFFFFFFFFFFFFFFFFFFFFFFF8 PUSH1 0x2 SSTORE PUSH32 0x48656C6C6F20576F726C64210000000000000000000000000000000000000000 PUSH1 0x3 SSTORE PUSH1 0x40 MLOAD DUP1 PUSH1 0x40 ADD PUSH1 0x40 MSTORE DUP1 PUSH1 0xD DUP2 MSTORE PUSH1 0x20 ADD PUSH32 0x48656C6C6F20576F726C64732100000000000000000000000000000000000000 DUP2 MSTORE POP PUSH1 0x4 SWAP1 DUP2 PUSH2 0xC7 SWAP2 SWAP1 PUSH2 0x36A JUMP JUMPDEST POP PUSH20 0x5B38DA6A701C568545DCFCB03FCB875F56BEDDC4 PUSH1 0x5 PUSH0 PUSH2 0x100 EXP DUP2 SLOAD DUP2 PUSH20 0xFFFFFFFFFFFFFFFFFFFFFFFFFFFFFFFFFFFFFFFF MUL NOT AND SWAP1 DUP4 PUSH20 0xFFFFFFFFFFFFFFFFFFFFFFFFFFFFFFFFFFFFFFFF AND MUL OR SWAP1 SSTORE POP CALLVALUE DUP1 ISZERO PUSH2 0x127 JUMPI PUSH0 PUSH0 REVERT JUMPDEST POP PUSH2 0x439 JUMP JUMPDEST PUSH0 DUP2 MLOAD SWAP1 POP SWAP2 SWAP1 POP JUMP JUMPDEST PUSH32 0x4E487B7100000000000000000000000000000000000000000000000000000000 PUSH0 MSTORE PUSH1 0x41 PUSH1 0x4 MSTORE PUSH1 0x24 PUSH0 REVERT JUMPDEST PUSH32 0x4E487B7100000000000000000000000000000000000000000000000000000000 PUSH0 MSTORE PUSH1 0x22 PUSH1 0x4 MSTORE PUSH1 0x24 PUSH0 REVERT JUMPDEST PUSH0 PUSH1 0x2 DUP3 DIV SWAP1 POP PUSH1 0x1 DUP3 AND DUP1 PUSH2 0x1A8 JUMPI PUSH1 0x7F DUP3 AND SWAP2 POP JUMPDEST PUSH1 0x20 DUP3 LT DUP2 SUB PUSH2 0x1BB JUMPI PUSH2 0x1BA PUSH2 0x164 JUMP JUMPDEST JUMPDEST POP SWAP2 SWAP1 POP JUMP JUMPDEST PUSH0 DUP2 SWAP1 POP DUP2 PUSH0 MSTORE PUSH1 0x20 PUSH0 KECCAK256 SWAP1 POP SWAP2 SWAP1 POP JUMP JUMPDEST PUSH0 PUSH1 0x20 PUSH1 0x1F DUP4 ADD DIV SWAP1 POP SWAP2 SWAP1 POP JUMP JUMPDEST PUSH0 DUP3 DUP3 SHL SWAP1 POP SWAP3 SWAP2 POP POP JUMP JUMPDEST PUSH0 PUSH1 0x8 DUP4 MUL PUSH2 0x21D PUSH32 0xFFFFFFFFFFFFFFFFFFFFFFFFFFFFFFFFFFFFFFFFFFFFFFFFFFFFFFFFFFFFFFFF DUP3 PUSH2 0x1E2 JUMP JUMPDEST PUSH2 0x227 DUP7 DUP4 PUSH2 0x1E2 JUMP JUMPDEST SWAP6 POP DUP1 NOT DUP5 AND SWAP4 POP DUP1 DUP7 AND DUP5 OR SWAP3 POP POP POP SWAP4 SWAP3 POP POP POP JUMP JUMPDEST PUSH0 DUP2 SWAP1 POP SWAP2 SWAP1 POP JUMP JUMPDEST PUSH0 DUP2 SWAP1 POP SWAP2 SWAP1 POP JUMP JUMPDEST PUSH0 PUSH2 0x26B PUSH2 0x266 PUSH2 0x261 DUP5 PUSH2 0x23F JUMP JUMPDEST PUSH2 0x248 JUMP JUMPDEST PUSH2 0x23F JUMP JUMPDEST SWAP1 POP SWAP2 SWAP1 POP JUMP JUMPDEST PUSH0 DUP2 SWAP1 POP SWAP2 SWAP1 POP JUMP JUMPDEST PUSH2 0x284 DUP4 PUSH2 0x251 JUMP JUMPDEST PUSH2 0x298 PUSH2 0x290 DUP3 PUSH2 0x272 JUMP JUMPDEST DUP5 DUP5 SLOAD PUSH2 0x1EE JUMP JUMPDEST DUP3 SSTORE POP POP POP POP JUMP JUMPDEST PUSH0 PUSH0 SWAP1 POP SWAP1 JUMP JUMPDEST PUSH2 0x2AF PUSH2 0x2A0 JUMP JUMPDEST PUSH2 0x2BA DUP2 DUP5 DUP5 PUSH2 0x27B JUMP JUMPDEST POP POP POP JUMP JUMPDEST JUMPDEST DUP2 DUP2 LT ISZERO PUSH2 0x2DD JUMPI PUSH2 0x2D2 PUSH0 DUP3 PUSH2 0x2A7 JUMP JUMPDEST PUSH1 0x1 DUP2 ADD SWAP1 POP PUSH2 0x2C0 JUMP JUMPDEST POP POP JUMP JUMPDEST PUSH1 0x1F DUP3 GT ISZERO PUSH2 0x322 JUMPI PUSH2 0x2F3 DUP2 PUSH2 0x1C1 JUMP JUMPDEST PUSH2 0x2FC DUP5 PUSH2 0x1D3 JUMP JUMPDEST DUP2 ADD PUSH1 0x20 DUP6 LT ISZERO PUSH2 0x30B JUMPI DUP2 SWAP1 POP JUMPDEST PUSH2 0x31F PUSH2 0x317 DUP6 PUSH2 0x1D3 JUMP JUMPDEST DUP4 ADD DUP3 PUSH2 0x2BF JUMP JUMPDEST POP POP JUMPDEST POP POP POP JUMP JUMPDEST PUSH0 DUP3 DUP3 SHR SWAP1 POP SWAP3 SWAP2 POP POP JUMP JUMPDEST PUSH0 PUSH2 0x342 PUSH0 NOT DUP5 PUSH1 0x8 MUL PUSH2 0x327 JUMP JUMPDEST NOT DUP1 DUP4 AND SWAP2 POP POP SWAP3 SWAP2 POP POP JUMP JUMPDEST PUSH0 PUSH2 0x35A DUP4 DUP4 PUSH2 0x333 JUMP JUMPDEST SWAP2 POP DUP3 PUSH1 0x2 MUL DUP3 OR SWAP1 POP SWAP3 SWAP2 POP POP JUMP JUMPDEST PUSH2 0x373 DUP3 PUSH2 0x12D JUMP JUMPDEST PUSH8 0xFFFFFFFFFFFFFFFF DUP2 GT ISZERO PUSH2 0x38C JUMPI PUSH2 0x38B PUSH2 0x137 JUMP JUMPDEST JUMPDEST PUSH2 0x396 DUP3 SLOAD PUSH2 0x191 JUMP JUMPDEST PUSH2 0x3A1 DUP3 DUP3 DUP6 PUSH2 0x2E1 JUMP JUMPDEST PUSH0 PUSH1 0x20 SWAP1 POP PUSH1 0x1F DUP4 GT PUSH1 0x1 DUP2 EQ PUSH2 0x3D2 JUMPI PUSH0 DUP5 ISZERO PUSH2 0x3C0 JUMPI DUP3 DUP8 ADD MLOAD SWAP1 POP JUMPDEST PUSH2 0x3CA DUP6 DUP3 PUSH2 0x34F JUMP JUMPDEST DUP7 SSTORE POP PUSH2 0x431 JUMP JUMPDEST PUSH1 0x1F NOT DUP5 AND PUSH2 0x3E0 DUP7 PUSH2 0x1C1 JUMP JUMPDEST PUSH0 JUMPDEST DUP3 DUP2 LT ISZERO PUSH2 0x407 JUMPI DUP5 DUP10 ADD MLOAD DUP3 SSTORE PUSH1 0x1 DUP3 ADD SWAP2 POP PUSH1 0x20 DUP6 ADD SWAP5 POP PUSH1 0x20 DUP2 ADD SWAP1 POP PUSH2 0x3E2 JUMP JUMPDEST DUP7 DUP4 LT ISZERO PUSH2 0x424 JUMPI DUP5 DUP10 ADD MLOAD PUSH2 0x420 PUSH1 0x1F DUP10 AND DUP3 PUSH2 0x333 JUMP JUMPDEST DUP4 SSTORE POP JUMPDEST PUSH1 0x1 PUSH1 0x2 DUP9 MUL ADD DUP9 SSTORE POP POP POP JUMPDEST POP POP POP POP POP POP JUMP JUMPDEST PUSH2 0x916 DUP1 PUSH2 0x446 PUSH0 CODECOPY PUSH0 RETURN INVALID PUSH1 0x80 PUSH1 0x40 MSTORE CALLVALUE DUP1 ISZERO PUSH2 0xF JUMPI PUSH0 PUSH0 REVERT JUMPDEST POP PUSH1 0x4 CALLDATASIZE LT PUSH2 0x4A JUMPI PUSH0 CALLDATALOAD PUSH1 0xE0 SHR DUP1 PUSH4 0x1D095162 EQ PUSH2 0x4E JUMPI DUP1 PUSH4 0x4CC9F11A EQ PUSH2 0x6C JUMPI DUP1 PUSH4 0xC7FE7454 EQ PUSH2 0x88 JUMPI DUP1 PUSH4 0xEF5FB05B EQ PUSH2 0xA4 JUMPI JUMPDEST PUSH0 PUSH0 REVERT JUMPDEST PUSH2 0x56 PUSH2 0xC2 JUMP JUMPDEST PUSH1 0x40 MLOAD PUSH2 0x63 SWAP2 SWAP1 PUSH2 0x35E JUMP JUMPDEST PUSH1 0x40 MLOAD DUP1 SWAP2 SUB SWAP1 RETURN JUMPDEST PUSH2 0x86 PUSH1 0x4 DUP1 CALLDATASIZE SUB DUP2 ADD SWAP1 PUSH2 0x81 SWAP2 SWAP1 PUSH2 0x4EE JUMP JUMPDEST PUSH2 0x15A JUMP JUMPDEST STOP JUMPDEST PUSH2 0xA2 PUSH1 0x4 DUP1 CALLDATASIZE SUB DUP2 ADD SWAP1 PUSH2 0x9D SWAP2 SWAP1 PUSH2 0x548 JUMP JUMPDEST PUSH2 0x222 JUMP JUMPDEST STOP JUMPDEST PUSH2 0xAC PUSH2 0x235 JUMP JUMPDEST PUSH1 0x40 MLOAD PUSH2 0xB9 SWAP2 SWAP1 PUSH2 0x35E JUMP JUMPDEST PUSH1 0x40 MLOAD DUP1 SWAP2 SUB SWAP1 RETURN JUMPDEST PUSH1 0x60 PUSH2 0x155 PUSH1 0x4 DUP1 SLOAD PUSH2 0xD4 SWAP1 PUSH2 0x5BC JUMP JUMPDEST DUP1 PUSH1 0x1F ADD PUSH1 0x20 DUP1 SWAP2 DIV MUL PUSH1 0x20 ADD PUSH1 0x40 MLOAD SWAP1 DUP2 ADD PUSH1 0x40 MSTORE DUP1 SWAP3 SWAP2 SWAP1 DUP2 DUP2 MSTORE PUSH1 0x20 ADD DUP3 DUP1 SLOAD PUSH2 0x100 SWAP1 PUSH2 0x5BC JUMP JUMPDEST DUP1 ISZERO PUSH2 0x14B JUMPI DUP1 PUSH1 0x1F LT PUSH2 0x122 JUMPI PUSH2 0x100 DUP1 DUP4 SLOAD DIV MUL DUP4 MSTORE SWAP2 PUSH1 0x20 ADD SWAP2 PUSH2 0x14B JUMP JUMPDEST DUP3 ADD SWAP2 SWAP1 PUSH0 MSTORE PUSH1 0x20 PUSH0 KECCAK256 SWAP1 JUMPDEST DUP2 SLOAD DUP2 MSTORE SWAP1 PUSH1 0x1 ADD SWAP1 PUSH1 0x20 ADD DUP1 DUP4 GT PUSH2 0x12E JUMPI DUP3 SWAP1 SUB PUSH1 0x1F AND DUP3 ADD SWAP2 JUMPDEST POP POP POP POP POP PUSH2 0x2C5 JUMP JUMPDEST SWAP1 POP SWAP1 JUMP JUMPDEST PUSH0 PUSH1 0x40 MLOAD DUP1 PUSH1 0x60 ADD PUSH1 0x40 MSTORE DUP1 DUP5 DUP2 MSTORE PUSH1 0x20 ADD DUP4 DUP2 MSTORE PUSH1 0x20 ADD CALLER PUSH20 0xFFFFFFFFFFFFFFFFFFFFFFFFFFFFFFFFFFFFFFFF AND DUP2 MSTORE POP SWAP1 POP PUSH1 0x6 DUP2 SWAP1 DUP1 PUSH1 0x1 DUP2 SLOAD ADD DUP1 DUP3 SSTORE DUP1 SWAP2 POP POP PUSH1 0x1 SWAP1 SUB SWAP1 PUSH0 MSTORE PUSH1 0x20 PUSH0 KECCAK256 SWAP1 PUSH1 0x3 MUL ADD PUSH0 SWAP1 SWAP2 SWAP1 SWAP2 SWAP1 SWAP2 POP PUSH0 DUP3 ADD MLOAD DUP2 PUSH0 ADD SSTORE PUSH1 0x20 DUP3 ADD MLOAD DUP2 PUSH1 0x1 ADD SWAP1 DUP2 PUSH2 0x1D4 SWAP2 SWAP1 PUSH2 0x78C JUMP JUMPDEST POP PUSH1 0x40 DUP3 ADD MLOAD DUP2 PUSH1 0x2 ADD PUSH0 PUSH2 0x100 EXP DUP2 SLOAD DUP2 PUSH20 0xFFFFFFFFFFFFFFFFFFFFFFFFFFFFFFFFFFFFFFFF MUL NOT AND SWAP1 DUP4 PUSH20 0xFFFFFFFFFFFFFFFFFFFFFFFFFFFFFFFFFFFFFFFF AND MUL OR SWAP1 SSTORE POP POP POP POP POP POP JUMP JUMPDEST DUP1 PUSH1 0x4 SWAP1 DUP2 PUSH2 0x231 SWAP2 SWAP1 PUSH2 0x78C JUMP JUMPDEST POP POP JUMP JUMPDEST PUSH1 0x60 PUSH1 0x4 DUP1 SLOAD PUSH2 0x244 SWAP1 PUSH2 0x5BC JUMP JUMPDEST DUP1 PUSH1 0x1F ADD PUSH1 0x20 DUP1 SWAP2 DIV MUL PUSH1 0x20 ADD PUSH1 0x40 MLOAD SWAP1 DUP2 ADD PUSH1 0x40 MSTORE DUP1 SWAP3 SWAP2 SWAP1 DUP2 DUP2 MSTORE PUSH1 0x20 ADD DUP3 DUP1 SLOAD PUSH2 0x270 SWAP1 PUSH2 0x5BC JUMP JUMPDEST DUP1 ISZERO PUSH2 0x2BB JUMPI DUP1 PUSH1 0x1F LT PUSH2 0x292 JUMPI PUSH2 0x100 DUP1 DUP4 SLOAD DIV MUL DUP4 MSTORE SWAP2 PUSH1 0x20 ADD SWAP2 PUSH2 0x2BB JUMP JUMPDEST DUP3 ADD SWAP2 SWAP1 PUSH0 MSTORE PUSH1 0x20 PUSH0 KECCAK256 SWAP1 JUMPDEST DUP2 SLOAD DUP2 MSTORE SWAP1 PUSH1 0x1 ADD SWAP1 PUSH1 0x20 ADD DUP1 DUP4 GT PUSH2 0x29E JUMPI DUP3 SWAP1 SUB PUSH1 0x1F AND DUP3 ADD SWAP2 JUMPDEST POP POP POP POP POP SWAP1 POP SWAP1 JUMP JUMPDEST PUSH1 0x60 DUP2 PUSH1 0x40 MLOAD PUSH1 0x20 ADD PUSH2 0x2D8 SWAP2 SWAP1 PUSH2 0x8BB JUMP JUMPDEST PUSH1 0x40 MLOAD PUSH1 0x20 DUP2 DUP4 SUB SUB DUP2 MSTORE SWAP1 PUSH1 0x40 MSTORE SWAP1 POP SWAP2 SWAP1 POP JUMP JUMPDEST PUSH0 DUP2 MLOAD SWAP1 POP SWAP2 SWAP1 POP JUMP JUMPDEST PUSH0 DUP3 DUP3 MSTORE PUSH1 0x20 DUP3 ADD SWAP1 POP SWAP3 SWAP2 POP POP JUMP JUMPDEST DUP3 DUP2 DUP4 MCOPY PUSH0 DUP4 DUP4 ADD MSTORE POP POP POP JUMP JUMPDEST PUSH0 PUSH1 0x1F NOT PUSH1 0x1F DUP4 ADD AND SWAP1 POP SWAP2 SWAP1 POP JUMP JUMPDEST PUSH0 PUSH2 0x330 DUP3 PUSH2 0x2EE JUMP JUMPDEST PUSH2 0x33A DUP2 DUP6 PUSH2 0x2F8 JUMP JUMPDEST SWAP4 POP PUSH2 0x34A DUP2 DUP6 PUSH1 0x20 DUP7 ADD PUSH2 0x308 JUMP JUMPDEST PUSH2 0x353 DUP2 PUSH2 0x316 JUMP JUMPDEST DUP5 ADD SWAP2 POP POP SWAP3 SWAP2 POP POP JUMP JUMPDEST PUSH0 PUSH1 0x20 DUP3 ADD SWAP1 POP DUP2 DUP2 SUB PUSH0 DUP4 ADD MSTORE PUSH2 0x376 DUP2 DUP5 PUSH2 0x326 JUMP JUMPDEST SWAP1 POP SWAP3 SWAP2 POP POP JUMP JUMPDEST PUSH0 PUSH1 0x40 MLOAD SWAP1 POP SWAP1 JUMP JUMPDEST PUSH0 PUSH0 REVERT JUMPDEST PUSH0 PUSH0 REVERT JUMPDEST PUSH0 DUP2 SWAP1 POP SWAP2 SWAP1 POP JUMP JUMPDEST PUSH2 0x3A1 DUP2 PUSH2 0x38F JUMP JUMPDEST DUP2 EQ PUSH2 0x3AB JUMPI PUSH0 PUSH0 REVERT JUMPDEST POP JUMP JUMPDEST PUSH0 DUP2 CALLDATALOAD SWAP1 POP PUSH2 0x3BC DUP2 PUSH2 0x398 JUMP JUMPDEST SWAP3 SWAP2 POP POP JUMP JUMPDEST PUSH0 PUSH0 REVERT JUMPDEST PUSH0 PUSH0 REVERT JUMPDEST PUSH32 0x4E487B7100000000000000000000000000000000000000000000000000000000 PUSH0 MSTORE PUSH1 0x41 PUSH1 0x4 MSTORE PUSH1 0x24 PUSH0 REVERT JUMPDEST PUSH2 0x400 DUP3 PUSH2 0x316 JUMP JUMPDEST DUP2 ADD DUP2 DUP2 LT PUSH8 0xFFFFFFFFFFFFFFFF DUP3 GT OR ISZERO PUSH2 0x41F JUMPI PUSH2 0x41E PUSH2 0x3CA JUMP JUMPDEST JUMPDEST DUP1 PUSH1 0x40 MSTORE POP POP POP JUMP JUMPDEST PUSH0 PUSH2 0x431 PUSH2 0x37E JUMP JUMPDEST SWAP1 POP PUSH2 0x43D DUP3 DUP3 PUSH2 0x3F7 JUMP JUMPDEST SWAP2 SWAP1 POP JUMP JUMPDEST PUSH0 PUSH8 0xFFFFFFFFFFFFFFFF DUP3 GT ISZERO PUSH2 0x45C JUMPI PUSH2 0x45B PUSH2 0x3CA JUMP JUMPDEST JUMPDEST PUSH2 0x465 DUP3 PUSH2 0x316 JUMP JUMPDEST SWAP1 POP PUSH1 0x20 DUP2 ADD SWAP1 POP SWAP2 SWAP1 POP JUMP JUMPDEST DUP3 DUP2 DUP4 CALLDATACOPY PUSH0 DUP4 DUP4 ADD MSTORE POP POP POP JUMP JUMPDEST PUSH0 PUSH2 0x492 PUSH2 0x48D DUP5 PUSH2 0x442 JUMP JUMPDEST PUSH2 0x428 JUMP JUMPDEST SWAP1 POP DUP3 DUP2 MSTORE PUSH1 0x20 DUP2 ADD DUP5 DUP5 DUP5 ADD GT ISZERO PUSH2 0x4AE JUMPI PUSH2 0x4AD PUSH2 0x3C6 JUMP JUMPDEST JUMPDEST PUSH2 0x4B9 DUP5 DUP3 DUP6 PUSH2 0x472 JUMP JUMPDEST POP SWAP4 SWAP3 POP POP POP JUMP JUMPDEST PUSH0 DUP3 PUSH1 0x1F DUP4 ADD SLT PUSH2 0x4D5 JUMPI PUSH2 0x4D4 PUSH2 0x3C2 JUMP JUMPDEST JUMPDEST DUP2 CALLDATALOAD PUSH2 0x4E5 DUP5 DUP3 PUSH1 0x20 DUP7 ADD PUSH2 0x480 JUMP JUMPDEST SWAP2 POP POP SWAP3 SWAP2 POP POP JUMP JUMPDEST PUSH0 PUSH0 PUSH1 0x40 DUP4 DUP6 SUB SLT ISZERO PUSH2 0x504 JUMPI PUSH2 0x503 PUSH2 0x387 JUMP JUMPDEST JUMPDEST PUSH0 PUSH2 0x511 DUP6 DUP3 DUP7 ADD PUSH2 0x3AE JUMP JUMPDEST SWAP3 POP POP PUSH1 0x20 DUP4 ADD CALLDATALOAD PUSH8 0xFFFFFFFFFFFFFFFF DUP2 GT ISZERO PUSH2 0x532 JUMPI PUSH2 0x531 PUSH2 0x38B JUMP JUMPDEST JUMPDEST PUSH2 0x53E DUP6 DUP3 DUP7 ADD PUSH2 0x4C1 JUMP JUMPDEST SWAP2 POP POP SWAP3 POP SWAP3 SWAP1 POP JUMP JUMPDEST PUSH0 PUSH1 0x20 DUP3 DUP5 SUB SLT ISZERO PUSH2 0x55D JUMPI PUSH2 0x55C PUSH2 0x387 JUMP JUMPDEST JUMPDEST PUSH0 DUP3 ADD CALLDATALOAD PUSH8 0xFFFFFFFFFFFFFFFF DUP2 GT ISZERO PUSH2 0x57A JUMPI PUSH2 0x579 PUSH2 0x38B JUMP JUMPDEST JUMPDEST PUSH2 0x586 DUP5 DUP3 DUP6 ADD PUSH2 0x4C1 JUMP JUMPDEST SWAP2 POP POP SWAP3 SWAP2 POP POP JUMP JUMPDEST PUSH32 0x4E487B7100000000000000000000000000000000000000000000000000000000 PUSH0 MSTORE PUSH1 0x22 PUSH1 0x4 MSTORE PUSH1 0x24 PUSH0 REVERT JUMPDEST PUSH0 PUSH1 0x2 DUP3 DIV SWAP1 POP PUSH1 0x1 DUP3 AND DUP1 PUSH2 0x5D3 JUMPI PUSH1 0x7F DUP3 AND SWAP2 POP JUMPDEST PUSH1 0x20 DUP3 LT DUP2 SUB PUSH2 0x5E6 JUMPI PUSH2 0x5E5 PUSH2 0x58F JUMP JUMPDEST JUMPDEST POP SWAP2 SWAP1 POP JUMP JUMPDEST PUSH0 DUP2 SWAP1 POP DUP2 PUSH0 MSTORE PUSH1 0x20 PUSH0 KECCAK256 SWAP1 POP SWAP2 SWAP1 POP JUMP JUMPDEST PUSH0 PUSH1 0x20 PUSH1 0x1F DUP4 ADD DIV SWAP1 POP SWAP2 SWAP1 POP JUMP JUMPDEST PUSH0 DUP3 DUP3 SHL SWAP1 POP SWAP3 SWAP2 POP POP JUMP JUMPDEST PUSH0 PUSH1 0x8 DUP4 MUL PUSH2 0x648 PUSH32 0xFFFFFFFFFFFFFFFFFFFFFFFFFFFFFFFFFFFFFFFFFFFFFFFFFFFFFFFFFFFFFFFF DUP3 PUSH2 0x60D JUMP JUMPDEST PUSH2 0x652 DUP7 DUP4 PUSH2 0x60D JUMP JUMPDEST SWAP6 POP DUP1 NOT DUP5 AND SWAP4 POP DUP1 DUP7 AND DUP5 OR SWAP3 POP POP POP SWAP4 SWAP3 POP POP POP JUMP JUMPDEST PUSH0 DUP2 SWAP1 POP SWAP2 SWAP1 POP JUMP JUMPDEST PUSH0 PUSH2 0x68D PUSH2 0x688 PUSH2 0x683 DUP5 PUSH2 0x38F JUMP JUMPDEST PUSH2 0x66A JUMP JUMPDEST PUSH2 0x38F JUMP JUMPDEST SWAP1 POP SWAP2 SWAP1 POP JUMP JUMPDEST PUSH0 DUP2 SWAP1 POP SWAP2 SWAP1 POP JUMP JUMPDEST PUSH2 0x6A6 DUP4 PUSH2 0x673 JUMP JUMPDEST PUSH2 0x6BA PUSH2 0x6B2 DUP3 PUSH2 0x694 JUMP JUMPDEST DUP5 DUP5 SLOAD PUSH2 0x619 JUMP JUMPDEST DUP3 SSTORE POP POP POP POP JUMP JUMPDEST PUSH0 PUSH0 SWAP1 POP SWAP1 JUMP JUMPDEST PUSH2 0x6D1 PUSH2 0x6C2 JUMP JUMPDEST PUSH2 0x6DC DUP2 DUP5 DUP5 PUSH2 0x69D JUMP JUMPDEST POP POP POP JUMP JUMPDEST JUMPDEST DUP2 DUP2 LT ISZERO PUSH2 0x6FF JUMPI PUSH2 0x6F4 PUSH0 DUP3 PUSH2 0x6C9 JUMP JUMPDEST PUSH1 0x1 DUP2 ADD SWAP1 POP PUSH2 0x6E2 JUMP JUMPDEST POP POP JUMP JUMPDEST PUSH1 0x1F DUP3 GT ISZERO PUSH2 0x744 JUMPI PUSH2 0x715 DUP2 PUSH2 0x5EC JUMP JUMPDEST PUSH2 0x71E DUP5 PUSH2 0x5FE JUMP JUMPDEST DUP2 ADD PUSH1 0x20 DUP6 LT ISZERO PUSH2 0x72D JUMPI DUP2 SWAP1 POP JUMPDEST PUSH2 0x741 PUSH2 0x739 DUP6 PUSH2 0x5FE JUMP JUMPDEST DUP4 ADD DUP3 PUSH2 0x6E1 JUMP JUMPDEST POP POP JUMPDEST POP POP POP JUMP JUMPDEST PUSH0 DUP3 DUP3 SHR SWAP1 POP SWAP3 SWAP2 POP POP JUMP JUMPDEST PUSH0 PUSH2 0x764 PUSH0 NOT DUP5 PUSH1 0x8 MUL PUSH2 0x749 JUMP JUMPDEST NOT DUP1 DUP4 AND SWAP2 POP POP SWAP3 SWAP2 POP POP JUMP JUMPDEST PUSH0 PUSH2 0x77C DUP4 DUP4 PUSH2 0x755 JUMP JUMPDEST SWAP2 POP DUP3 PUSH1 0x2 MUL DUP3 OR SWAP1 POP SWAP3 SWAP2 POP POP JUMP JUMPDEST PUSH2 0x795 DUP3 PUSH2 0x2EE JUMP JUMPDEST PUSH8 0xFFFFFFFFFFFFFFFF DUP2 GT ISZERO PUSH2 0x7AE JUMPI PUSH2 0x7AD PUSH2 0x3CA JUMP JUMPDEST JUMPDEST PUSH2 0x7B8 DUP3 SLOAD PUSH2 0x5BC JUMP JUMPDEST PUSH2 0x7C3 DUP3 DUP3 DUP6 PUSH2 0x703 JUMP JUMPDEST PUSH0 PUSH1 0x20 SWAP1 POP PUSH1 0x1F DUP4 GT PUSH1 0x1 DUP2 EQ PUSH2 0x7F4 JUMPI PUSH0 DUP5 ISZERO PUSH2 0x7E2 JUMPI DUP3 DUP8 ADD MLOAD SWAP1 POP JUMPDEST PUSH2 0x7EC DUP6 DUP3 PUSH2 0x771 JUMP JUMPDEST DUP7 SSTORE POP PUSH2 0x853 JUMP JUMPDEST PUSH1 0x1F NOT DUP5 AND PUSH2 0x802 DUP7 PUSH2 0x5EC JUMP JUMPDEST PUSH0 JUMPDEST DUP3 DUP2 LT ISZERO PUSH2 0x829 JUMPI DUP5 DUP10 ADD MLOAD DUP3 SSTORE PUSH1 0x1 DUP3 ADD SWAP2 POP PUSH1 0x20 DUP6 ADD SWAP5 POP PUSH1 0x20 DUP2 ADD SWAP1 POP PUSH2 0x804 JUMP JUMPDEST DUP7 DUP4 LT ISZERO PUSH2 0x846 JUMPI DUP5 DUP10 ADD MLOAD PUSH2 0x842 PUSH1 0x1F DUP10 AND DUP3 PUSH2 0x755 JUMP JUMPDEST DUP4 SSTORE POP JUMPDEST PUSH1 0x1 PUSH1 0x2 DUP9 MUL ADD DUP9 SSTORE POP POP POP JUMPDEST POP POP POP POP POP POP JUMP JUMPDEST PUSH0 DUP2 SWAP1 POP SWAP3 SWAP2 POP POP JUMP JUMPDEST PUSH0 PUSH2 0x86F DUP3 PUSH2 0x2EE JUMP JUMPDEST PUSH2 0x879 DUP2 DUP6 PUSH2 0x85B JUMP JUMPDEST SWAP4 POP PUSH2 0x889 DUP2 DUP6 PUSH1 0x20 DUP7 ADD PUSH2 0x308 JUMP JUMPDEST DUP1 DUP5 ADD SWAP2 POP POP SWAP3 SWAP2 POP POP JUMP JUMPDEST PUSH32 0x46726F6D20446479277320436F6E747261637400000000000000000000000000 DUP2 MSTORE POP JUMP JUMPDEST PUSH0 PUSH2 0x8C6 DUP3 DUP5 PUSH2 0x865 JUMP JUMPDEST SWAP2 POP PUSH2 0x8D1 DUP3 PUSH2 0x895 JUMP JUMPDEST PUSH1 0x13 DUP3 ADD SWAP2 POP DUP2 SWAP1 POP SWAP3 SWAP2 POP POP JUMP INVALID LOG2 PUSH5 0x6970667358 0x22 SLT KECCAK256 GASPRICE 0xF MCOPY 0x23 PUSH3 0x36E96E 0x2D 0xBE SWAPN 0xA2 0xB5 ADDMOD DUP10 PUSH7 0x85EA623B3EF2F9 GAS PREVRANDAO 0x26 PUSH14 0x1F72E0149E64736F6C634300081E STOP CALLER "
				},
				"gasEstimates": {
					"creation": {
						"codeDepositCost": "465200",
						"executionCost": "infinite",
						"totalCost": "infinite"
					},
					"external": {
						"ResetHelloWorld(string)": "infinite",
						"SetInfoStruct(uint256,string)": "infinite",
						"sayHello()": "infinite",
						"sayHelloAddinfo()": "infinite"
					},
					"internal": {
						"Addinfo(string memory)": "infinite"
					}
				},
				"methodIdentifiers": {
					"ResetHelloWorld(string)": "c7fe7454",
					"SetInfoStruct(uint256,string)": "4cc9f11a",
					"sayHello()": "ef5fb05b",
					"sayHelloAddinfo()": "1d095162"
				}
			},
			"storageLayout": {
				"storage": [
					{
						"astId": 4,
						"contract": "NextFundMe/newfundme.sol:HelloWorld",
						"label": "boolVar_1",
						"offset": 0,
						"slot": "0",
						"type": "t_bool"
					},
					{
						"astId": 7,
						"contract": "NextFundMe/newfundme.sol:HelloWorld",
						"label": "boolVar_2",
						"offset": 1,
						"slot": "0",
						"type": "t_bool"
					},
					{
						"astId": 10,
						"contract": "NextFundMe/newfundme.sol:HelloWorld",
						"label": "testint",
						"offset": 0,
						"slot": "1",
						"type": "t_uint256"
					},
					{
						"astId": 14,
						"contract": "NextFundMe/newfundme.sol:HelloWorld",
						"label": "Varint",
						"offset": 0,
						"slot": "2",
						"type": "t_int256"
					},
					{
						"astId": 17,
						"contract": "NextFundMe/newfundme.sol:HelloWorld",
						"label": "Varbytes",
						"offset": 0,
						"slot": "3",
						"type": "t_bytes32"
					},
					{
						"astId": 20,
						"contract": "NextFundMe/newfundme.sol:HelloWorld",
						"label": "Strbytes",
						"offset": 0,
						"slot": "4",
						"type": "t_string_storage"
					},
					{
						"astId": 23,
						"contract": "NextFundMe/newfundme.sol:HelloWorld",
						"label": "VarAddress",
						"offset": 0,
						"slot": "5",
						"type": "t_address"
					},
					{
						"astId": 77,
						"contract": "NextFundMe/newfundme.sol:HelloWorld",
						"label": "Infos",
						"offset": 0,
						"slot": "6",
						"type": "t_array(t_struct(Info)73_storage)dyn_storage"
					}
				],
				"types": {
					"t_address": {
						"encoding": "inplace",
						"label": "address",
						"numberOfBytes": "20"
					},
					"t_array(t_struct(Info)73_storage)dyn_storage": {
						"base": "t_struct(Info)73_storage",
						"encoding": "dynamic_array",
						"label": "struct HelloWorld.Info[]",
						"numberOfBytes": "32"
					},
					"t_bool": {
						"encoding": "inplace",
						"label": "bool",
						"numberOfBytes": "1"
					},
					"t_bytes32": {
						"encoding": "inplace",
						"label": "bytes32",
						"numberOfBytes": "32"
					},
					"t_int256": {
						"encoding": "inplace",
						"label": "int256",
						"numberOfBytes": "32"
					},
					"t_string_storage": {
						"encoding": "bytes",
						"label": "string",
						"numberOfBytes": "32"
					},
					"t_struct(Info)73_storage": {
						"encoding": "inplace",
						"label": "struct HelloWorld.Info",
						"members": [
							{
								"astId": 68,
								"contract": "NextFundMe/newfundme.sol:HelloWorld",
								"label": "id",
								"offset": 0,
								"slot": "0",
								"type": "t_uint256"
							},
							{
								"astId": 70,
								"contract": "NextFundMe/newfundme.sol:HelloWorld",
								"label": "phrase",
								"offset": 0,
								"slot": "1",
								"type": "t_string_storage"
							},
							{
								"astId": 72,
								"contract": "NextFundMe/newfundme.sol:HelloWorld",
								"label": "addr",
								"offset": 0,
								"slot": "2",
								"type": "t_address"
							}
						],
						"numberOfBytes": "96"
					},
					"t_uint256": {
						"encoding": "inplace",
						"label": "uint256",
						"numberOfBytes": "32"
					}
				}
			},
			"userdoc": {
				"kind": "user",
				"methods": {},
				"version": 1
			}
		}
	}
}