{
	"NextFundMe/factory/factory.sol": {
		"HelloWorldFactory": {
			"abi": [
				{
					"inputs": [
						{
							"internalType": "uint256",
							"name": "index",
							"type": "uint256"
						},
						{
							"internalType": "uint256",
							"name": "inid",
							"type": "uint256"
						}
					],
					"name": "CallSayHelloWorldinFactory",
					"outputs": [
						{
							"internalType": "string",
							"name": "",
							"type": "string"
						}
					],
					"stateMutability": "view",
					"type": "function"
				},
				{
					"inputs": [
						{
							"internalType": "uint256",
							"name": "index",
							"type": "uint256"
						},
						{
							"internalType": "uint256",
							"name": "inid",
							"type": "uint256"
						},
						{
							"internalType": "string",
							"name": "instring",
							"type": "string"
						}
					],
					"name": "CallSetHelloWorldinFactory",
					"outputs": [],
					"stateMutability": "nonpayable",
					"type": "function"
				},
				{
					"inputs": [],
					"name": "createHelloWorld",
					"outputs": [],
					"stateMutability": "nonpayable",
					"type": "function"
				},
				{
					"inputs": [
						{
							"internalType": "uint256",
							"name": "Index",
							"type": "uint256"
						}
					],
					"name": "getHelloWorld",
					"outputs": [
						{
							"internalType": "contract HelloWorld",
							"name": "rtHelloWorld",
							"type": "address"
						}
					],
					"stateMutability": "view",
					"type": "function"
				}
			],
			"devdoc": {
				"kind": "dev",
				"methods": {},
				"version": 1
			},
			"evm": {
				"assembly": "    /* \"NextFundMe/factory/factory.sol\":490:1181  contract HelloWorldFactory{... */\n  mstore(0x40, 0x80)\n  callvalue\n  dup1\n  iszero\n  tag_1\n  jumpi\n  revert(0x00, 0x00)\ntag_1:\n  pop\n  dataSize(sub_0)\n  dup1\n  dataOffset(sub_0)\n  0x00\n  codecopy\n  0x00\n  return\nstop\n\nsub_0: assembly {\n        /* \"NextFundMe/factory/factory.sol\":490:1181  contract HelloWorldFactory{... */\n      mstore(0x40, 0x80)\n      callvalue\n      dup1\n      iszero\n      tag_1\n      jumpi\n      revert(0x00, 0x00)\n    tag_1:\n      pop\n      jumpi(tag_2, lt(calldatasize, 0x04))\n      shr(0xe0, calldataload(0x00))\n      dup1\n      0x2ab4bcd7\n      eq\n      tag_3\n      jumpi\n      dup1\n      0x5e0a94cb\n      eq\n      tag_4\n      jumpi\n      dup1\n      0x7421d279\n      eq\n      tag_5\n      jumpi\n      dup1\n      0xc4cbf9c8\n      eq\n      tag_6\n      jumpi\n    tag_2:\n      revert(0x00, 0x00)\n        /* \"NextFundMe/factory/factory.sol\":737:856  function getHelloWorld(uint256 Index) public view returns(HelloWorld rtHelloWorld){... */\n    tag_3:\n      tag_7\n      0x04\n      dup1\n      calldatasize\n      sub\n      dup2\n      add\n      swap1\n      tag_8\n      swap2\n      swap1\n      tag_9\n      jump\t// in\n    tag_8:\n      tag_10\n      jump\t// in\n    tag_7:\n      mload(0x40)\n      tag_11\n      swap2\n      swap1\n      tag_12\n      jump\t// in\n    tag_11:\n      mload(0x40)\n      dup1\n      swap2\n      sub\n      swap1\n      return\n        /* \"NextFundMe/factory/factory.sol\":631:731  function createHelloWorld()public{... */\n    tag_4:\n      tag_13\n      tag_14\n      jump\t// in\n    tag_13:\n      stop\n        /* \"NextFundMe/factory/factory.sol\":862:1019  function CallSayHelloWorldinFactory(uint256 index,uint256 inid) public view returns(string memory) {... */\n    tag_5:\n      tag_15\n      0x04\n      dup1\n      calldatasize\n      sub\n      dup2\n      add\n      swap1\n      tag_16\n      swap2\n      swap1\n      tag_17\n      jump\t// in\n    tag_16:\n      tag_18\n      jump\t// in\n    tag_15:\n      mload(0x40)\n      tag_19\n      swap2\n      swap1\n      tag_20\n      jump\t// in\n    tag_19:\n      mload(0x40)\n      dup1\n      swap2\n      sub\n      swap1\n      return\n        /* \"NextFundMe/factory/factory.sol\":1025:1179  function CallSetHelloWorldinFactory(uint256 index,uint256 inid,string memory instring) public {... */\n    tag_6:\n      tag_21\n      0x04\n      dup1\n      calldatasize\n      sub\n      dup2\n      add\n      swap1\n      tag_22\n      swap2\n      swap1\n      tag_23\n      jump\t// in\n    tag_22:\n      tag_24\n      jump\t// in\n    tag_21:\n      stop\n        /* \"NextFundMe/factory/factory.sol\":737:856  function getHelloWorld(uint256 Index) public view returns(HelloWorld rtHelloWorld){... */\n    tag_10:\n        /* \"NextFundMe/factory/factory.sol\":795:818  HelloWorld rtHelloWorld */\n      0x00\n        /* \"NextFundMe/factory/factory.sol\":836:842  Varhws */\n      0x01\n        /* \"NextFundMe/factory/factory.sol\":843:848  Index */\n      dup3\n        /* \"NextFundMe/factory/factory.sol\":836:849  Varhws[Index] */\n      dup2\n      sload\n      dup2\n      lt\n      tag_26\n      jumpi\n      tag_27\n      tag_28\n      jump\t// in\n    tag_27:\n    tag_26:\n      swap1\n      0x00\n      mstore\n      keccak256(0x00, 0x20)\n      add\n      0x00\n      swap1\n      sload\n      swap1\n      0x0100\n      exp\n      swap1\n      div\n      0xffffffffffffffffffffffffffffffffffffffff\n      and\n        /* \"NextFundMe/factory/factory.sol\":829:849  return Varhws[Index] */\n      swap1\n      pop\n        /* \"NextFundMe/factory/factory.sol\":737:856  function getHelloWorld(uint256 Index) public view returns(HelloWorld rtHelloWorld){... */\n      swap2\n      swap1\n      pop\n      jump\t// out\n        /* \"NextFundMe/factory/factory.sol\":631:731  function createHelloWorld()public{... */\n    tag_14:\n        /* \"NextFundMe/factory/factory.sol\":680:696  new HelloWorld() */\n      mload(0x40)\n      tag_31\n      swap1\n      tag_32\n      jump\t// in\n    tag_31:\n      mload(0x40)\n      dup1\n      swap2\n      sub\n      swap1\n      0x00\n      create\n      dup1\n      iszero\n      dup1\n      iszero\n      tag_33\n      jumpi\n      returndatacopy(0x00, 0x00, returndatasize)\n      revert(0x00, returndatasize)\n    tag_33:\n      pop\n        /* \"NextFundMe/factory/factory.sol\":674:679  Varhw */\n      0x00\n      0x00\n        /* \"NextFundMe/factory/factory.sol\":674:696  Varhw=new HelloWorld() */\n      0x0100\n      exp\n      dup2\n      sload\n      dup2\n      0xffffffffffffffffffffffffffffffffffffffff\n      mul\n      not\n      and\n      swap1\n      dup4\n      0xffffffffffffffffffffffffffffffffffffffff\n      and\n      mul\n      or\n      swap1\n      sstore\n      pop\n        /* \"NextFundMe/factory/factory.sol\":706:712  Varhws */\n      0x01\n        /* \"NextFundMe/factory/factory.sol\":718:723  Varhw */\n      0x00\n      0x00\n      swap1\n      sload\n      swap1\n      0x0100\n      exp\n      swap1\n      div\n      0xffffffffffffffffffffffffffffffffffffffff\n      and\n        /* \"NextFundMe/factory/factory.sol\":706:724  Varhws.push(Varhw) */\n      swap1\n      dup1\n      0x01\n      dup2\n      sload\n      add\n      dup1\n      dup3\n      sstore\n      dup1\n      swap2\n      pop\n      pop\n      0x01\n      swap1\n      sub\n      swap1\n      0x00\n      mstore\n      keccak256(0x00, 0x20)\n      add\n      0x00\n      swap1\n      swap2\n      swap1\n      swap2\n      swap1\n      swap2\n      0x0100\n      exp\n      dup2\n      sload\n      dup2\n      0xffffffffffffffffffffffffffffffffffffffff\n      mul\n      not\n      and\n      swap1\n      dup4\n      0xffffffffffffffffffffffffffffffffffffffff\n      and\n      mul\n      or\n      swap1\n      sstore\n      pop\n        /* \"NextFundMe/factory/factory.sol\":631:731  function createHelloWorld()public{... */\n      jump\t// out\n        /* \"NextFundMe/factory/factory.sol\":862:1019  function CallSayHelloWorldinFactory(uint256 index,uint256 inid) public view returns(string memory) {... */\n    tag_18:\n        /* \"NextFundMe/factory/factory.sol\":946:959  string memory */\n      0x60\n        /* \"NextFundMe/factory/factory.sol\":978:984  Varhws */\n      0x01\n        /* \"NextFundMe/factory/factory.sol\":985:990  index */\n      dup4\n        /* \"NextFundMe/factory/factory.sol\":978:991  Varhws[index] */\n      dup2\n      sload\n      dup2\n      lt\n      tag_36\n      jumpi\n      tag_37\n      tag_28\n      jump\t// in\n    tag_37:\n    tag_36:\n      swap1\n      0x00\n      mstore\n      keccak256(0x00, 0x20)\n      add\n      0x00\n      swap1\n      sload\n      swap1\n      0x0100\n      exp\n      swap1\n      div\n      0xffffffffffffffffffffffffffffffffffffffff\n      and\n        /* \"NextFundMe/factory/factory.sol\":978:1006  Varhws[index].GetInfoMapping */\n      0xffffffffffffffffffffffffffffffffffffffff\n      and\n      0xaef0fcf4\n        /* \"NextFundMe/factory/factory.sol\":1007:1011  inid */\n      dup4\n        /* \"NextFundMe/factory/factory.sol\":978:1012  Varhws[index].GetInfoMapping(inid) */\n      mload(0x40)\n      dup3\n      0xffffffff\n      and\n      0xe0\n      shl\n      dup2\n      mstore\n      0x04\n      add\n      tag_39\n      swap2\n      swap1\n      tag_40\n      jump\t// in\n    tag_39:\n      0x00\n      mload(0x40)\n      dup1\n      dup4\n      sub\n      dup2\n      dup7\n      gas\n      staticcall\n      iszero\n      dup1\n      iszero\n      tag_42\n      jumpi\n      returndatacopy(0x00, 0x00, returndatasize)\n      revert(0x00, returndatasize)\n    tag_42:\n      pop\n      pop\n      pop\n      pop\n      mload(0x40)\n      returndatasize\n      0x00\n      dup3\n      returndatacopy\n      returndatasize\n      not(0x1f)\n      0x1f\n      dup3\n      add\n      and\n      dup3\n      add\n      dup1\n      0x40\n      mstore\n      pop\n      dup2\n      add\n      swap1\n      tag_43\n      swap2\n      swap1\n      tag_44\n      jump\t// in\n    tag_43:\n        /* \"NextFundMe/factory/factory.sol\":971:1012  return Varhws[index].GetInfoMapping(inid) */\n      swap1\n      pop\n        /* \"NextFundMe/factory/factory.sol\":862:1019  function CallSayHelloWorldinFactory(uint256 index,uint256 inid) public view returns(string memory) {... */\n      swap3\n      swap2\n      pop\n      pop\n      jump\t// out\n        /* \"NextFundMe/factory/factory.sol\":1025:1179  function CallSetHelloWorldinFactory(uint256 index,uint256 inid,string memory instring) public {... */\n    tag_24:\n        /* \"NextFundMe/factory/factory.sol\":1129:1135  Varhws */\n      0x01\n        /* \"NextFundMe/factory/factory.sol\":1136:1141  index */\n      dup4\n        /* \"NextFundMe/factory/factory.sol\":1129:1142  Varhws[index] */\n      dup2\n      sload\n      dup2\n      lt\n      tag_46\n      jumpi\n      tag_47\n      tag_28\n      jump\t// in\n    tag_47:\n    tag_46:\n      swap1\n      0x00\n      mstore\n      keccak256(0x00, 0x20)\n      add\n      0x00\n      swap1\n      sload\n      swap1\n      0x0100\n      exp\n      swap1\n      div\n      0xffffffffffffffffffffffffffffffffffffffff\n      and\n        /* \"NextFundMe/factory/factory.sol\":1129:1157  Varhws[index].SetInfoMapping */\n      0xffffffffffffffffffffffffffffffffffffffff\n      and\n      0x096b696f\n        /* \"NextFundMe/factory/factory.sol\":1158:1162  inid */\n      dup4\n        /* \"NextFundMe/factory/factory.sol\":1163:1171  instring */\n      dup4\n        /* \"NextFundMe/factory/factory.sol\":1129:1172  Varhws[index].SetInfoMapping(inid,instring) */\n      mload(0x40)\n      dup4\n      0xffffffff\n      and\n      0xe0\n      shl\n      dup2\n      mstore\n      0x04\n      add\n      tag_49\n      swap3\n      swap2\n      swap1\n      tag_50\n      jump\t// in\n    tag_49:\n      0x00\n      mload(0x40)\n      dup1\n      dup4\n      sub\n      dup2\n      0x00\n      dup8\n      dup1\n      extcodesize\n      iszero\n      dup1\n      iszero\n      tag_51\n      jumpi\n      revert(0x00, 0x00)\n    tag_51:\n      pop\n      gas\n      call\n      iszero\n      dup1\n      iszero\n      tag_53\n      jumpi\n      returndatacopy(0x00, 0x00, returndatasize)\n      revert(0x00, returndatasize)\n    tag_53:\n      pop\n      pop\n      pop\n      pop\n        /* \"NextFundMe/factory/factory.sol\":1025:1179  function CallSetHelloWorldinFactory(uint256 index,uint256 inid,string memory instring) public {... */\n      pop\n      pop\n      pop\n      jump\t// out\n    tag_32:\n      dataSize(sub_0)\n      dup1\n      dataOffset(sub_0)\n      dup4\n      codecopy\n      add\n      swap1\n      jump\t// out\n        /* \"#utility.yul\":7:82   */\n    tag_54:\n        /* \"#utility.yul\":40:46   */\n      0x00\n        /* \"#utility.yul\":73:75   */\n      0x40\n        /* \"#utility.yul\":67:76   */\n      mload\n        /* \"#utility.yul\":57:76   */\n      swap1\n      pop\n        /* \"#utility.yul\":7:82   */\n      swap1\n      jump\t// out\n        /* \"#utility.yul\":88:205   */\n    tag_55:\n        /* \"#utility.yul\":197:198   */\n      0x00\n        /* \"#utility.yul\":194:195   */\n      0x00\n        /* \"#utility.yul\":187:199   */\n      revert\n        /* \"#utility.yul\":211:328   */\n    tag_56:\n        /* \"#utility.yul\":320:321   */\n      0x00\n        /* \"#utility.yul\":317:318   */\n      0x00\n        /* \"#utility.yul\":310:322   */\n      revert\n        /* \"#utility.yul\":334:411   */\n    tag_57:\n        /* \"#utility.yul\":371:378   */\n      0x00\n        /* \"#utility.yul\":400:405   */\n      dup2\n        /* \"#utility.yul\":389:405   */\n      swap1\n      pop\n        /* \"#utility.yul\":334:411   */\n      swap2\n      swap1\n      pop\n      jump\t// out\n        /* \"#utility.yul\":417:539   */\n    tag_58:\n        /* \"#utility.yul\":490:514   */\n      tag_89\n        /* \"#utility.yul\":508:513   */\n      dup2\n        /* \"#utility.yul\":490:514   */\n      tag_57\n      jump\t// in\n    tag_89:\n        /* \"#utility.yul\":483:488   */\n      dup2\n        /* \"#utility.yul\":480:515   */\n      eq\n        /* \"#utility.yul\":470:533   */\n      tag_90\n      jumpi\n        /* \"#utility.yul\":529:530   */\n      0x00\n        /* \"#utility.yul\":526:527   */\n      0x00\n        /* \"#utility.yul\":519:531   */\n      revert\n        /* \"#utility.yul\":470:533   */\n    tag_90:\n        /* \"#utility.yul\":417:539   */\n      pop\n      jump\t// out\n        /* \"#utility.yul\":545:684   */\n    tag_59:\n        /* \"#utility.yul\":591:596   */\n      0x00\n        /* \"#utility.yul\":629:635   */\n      dup2\n        /* \"#utility.yul\":616:636   */\n      calldataload\n        /* \"#utility.yul\":607:636   */\n      swap1\n      pop\n        /* \"#utility.yul\":645:678   */\n      tag_92\n        /* \"#utility.yul\":672:677   */\n      dup2\n        /* \"#utility.yul\":645:678   */\n      tag_58\n      jump\t// in\n    tag_92:\n        /* \"#utility.yul\":545:684   */\n      swap3\n      swap2\n      pop\n      pop\n      jump\t// out\n        /* \"#utility.yul\":690:1019   */\n    tag_9:\n        /* \"#utility.yul\":749:755   */\n      0x00\n        /* \"#utility.yul\":798:800   */\n      0x20\n        /* \"#utility.yul\":786:795   */\n      dup3\n        /* \"#utility.yul\":777:784   */\n      dup5\n        /* \"#utility.yul\":773:796   */\n      sub\n        /* \"#utility.yul\":769:801   */\n      slt\n        /* \"#utility.yul\":766:885   */\n      iszero\n      tag_94\n      jumpi\n        /* \"#utility.yul\":804:883   */\n      tag_95\n      tag_55\n      jump\t// in\n    tag_95:\n        /* \"#utility.yul\":766:885   */\n    tag_94:\n        /* \"#utility.yul\":924:925   */\n      0x00\n        /* \"#utility.yul\":949:1002   */\n      tag_96\n        /* \"#utility.yul\":994:1001   */\n      dup5\n        /* \"#utility.yul\":985:991   */\n      dup3\n        /* \"#utility.yul\":974:983   */\n      dup6\n        /* \"#utility.yul\":970:992   */\n      add\n        /* \"#utility.yul\":949:1002   */\n      tag_59\n      jump\t// in\n    tag_96:\n        /* \"#utility.yul\":939:1002   */\n      swap2\n      pop\n        /* \"#utility.yul\":895:1012   */\n      pop\n        /* \"#utility.yul\":690:1019   */\n      swap3\n      swap2\n      pop\n      pop\n      jump\t// out\n        /* \"#utility.yul\":1025:1151   */\n    tag_60:\n        /* \"#utility.yul\":1062:1069   */\n      0x00\n        /* \"#utility.yul\":1102:1144   */\n      0xffffffffffffffffffffffffffffffffffffffff\n        /* \"#utility.yul\":1095:1100   */\n      dup3\n        /* \"#utility.yul\":1091:1145   */\n      and\n        /* \"#utility.yul\":1080:1145   */\n      swap1\n      pop\n        /* \"#utility.yul\":1025:1151   */\n      swap2\n      swap1\n      pop\n      jump\t// out\n        /* \"#utility.yul\":1157:1217   */\n    tag_61:\n        /* \"#utility.yul\":1185:1188   */\n      0x00\n        /* \"#utility.yul\":1206:1211   */\n      dup2\n        /* \"#utility.yul\":1199:1211   */\n      swap1\n      pop\n        /* \"#utility.yul\":1157:1217   */\n      swap2\n      swap1\n      pop\n      jump\t// out\n        /* \"#utility.yul\":1223:1365   */\n    tag_62:\n        /* \"#utility.yul\":1273:1282   */\n      0x00\n        /* \"#utility.yul\":1306:1359   */\n      tag_100\n        /* \"#utility.yul\":1324:1358   */\n      tag_101\n        /* \"#utility.yul\":1333:1357   */\n      tag_102\n        /* \"#utility.yul\":1351:1356   */\n      dup5\n        /* \"#utility.yul\":1333:1357   */\n      tag_60\n      jump\t// in\n    tag_102:\n        /* \"#utility.yul\":1324:1358   */\n      tag_61\n      jump\t// in\n    tag_101:\n        /* \"#utility.yul\":1306:1359   */\n      tag_60\n      jump\t// in\n    tag_100:\n        /* \"#utility.yul\":1293:1359   */\n      swap1\n      pop\n        /* \"#utility.yul\":1223:1365   */\n      swap2\n      swap1\n      pop\n      jump\t// out\n        /* \"#utility.yul\":1371:1497   */\n    tag_63:\n        /* \"#utility.yul\":1421:1430   */\n      0x00\n        /* \"#utility.yul\":1454:1491   */\n      tag_104\n        /* \"#utility.yul\":1485:1490   */\n      dup3\n        /* \"#utility.yul\":1454:1491   */\n      tag_62\n      jump\t// in\n    tag_104:\n        /* \"#utility.yul\":1441:1491   */\n      swap1\n      pop\n        /* \"#utility.yul\":1371:1497   */\n      swap2\n      swap1\n      pop\n      jump\t// out\n        /* \"#utility.yul\":1503:1647   */\n    tag_64:\n        /* \"#utility.yul\":1571:1580   */\n      0x00\n        /* \"#utility.yul\":1604:1641   */\n      tag_106\n        /* \"#utility.yul\":1635:1640   */\n      dup3\n        /* \"#utility.yul\":1604:1641   */\n      tag_63\n      jump\t// in\n    tag_106:\n        /* \"#utility.yul\":1591:1641   */\n      swap1\n      pop\n        /* \"#utility.yul\":1503:1647   */\n      swap2\n      swap1\n      pop\n      jump\t// out\n        /* \"#utility.yul\":1653:1820   */\n    tag_65:\n        /* \"#utility.yul\":1758:1813   */\n      tag_108\n        /* \"#utility.yul\":1807:1812   */\n      dup2\n        /* \"#utility.yul\":1758:1813   */\n      tag_64\n      jump\t// in\n    tag_108:\n        /* \"#utility.yul\":1753:1756   */\n      dup3\n        /* \"#utility.yul\":1746:1814   */\n      mstore\n        /* \"#utility.yul\":1653:1820   */\n      pop\n      pop\n      jump\t// out\n        /* \"#utility.yul\":1826:2084   */\n    tag_12:\n        /* \"#utility.yul\":1937:1941   */\n      0x00\n        /* \"#utility.yul\":1975:1977   */\n      0x20\n        /* \"#utility.yul\":1964:1973   */\n      dup3\n        /* \"#utility.yul\":1960:1978   */\n      add\n        /* \"#utility.yul\":1952:1978   */\n      swap1\n      pop\n        /* \"#utility.yul\":1988:2077   */\n      tag_110\n        /* \"#utility.yul\":2074:2075   */\n      0x00\n        /* \"#utility.yul\":2063:2072   */\n      dup4\n        /* \"#utility.yul\":2059:2076   */\n      add\n        /* \"#utility.yul\":2050:2056   */\n      dup5\n        /* \"#utility.yul\":1988:2077   */\n      tag_65\n      jump\t// in\n    tag_110:\n        /* \"#utility.yul\":1826:2084   */\n      swap3\n      swap2\n      pop\n      pop\n      jump\t// out\n        /* \"#utility.yul\":2090:2564   */\n    tag_17:\n        /* \"#utility.yul\":2158:2164   */\n      0x00\n        /* \"#utility.yul\":2166:2172   */\n      0x00\n        /* \"#utility.yul\":2215:2217   */\n      0x40\n        /* \"#utility.yul\":2203:2212   */\n      dup4\n        /* \"#utility.yul\":2194:2201   */\n      dup6\n        /* \"#utility.yul\":2190:2213   */\n      sub\n        /* \"#utility.yul\":2186:2218   */\n      slt\n        /* \"#utility.yul\":2183:2302   */\n      iszero\n      tag_112\n      jumpi\n        /* \"#utility.yul\":2221:2300   */\n      tag_113\n      tag_55\n      jump\t// in\n    tag_113:\n        /* \"#utility.yul\":2183:2302   */\n    tag_112:\n        /* \"#utility.yul\":2341:2342   */\n      0x00\n        /* \"#utility.yul\":2366:2419   */\n      tag_114\n        /* \"#utility.yul\":2411:2418   */\n      dup6\n        /* \"#utility.yul\":2402:2408   */\n      dup3\n        /* \"#utility.yul\":2391:2400   */\n      dup7\n        /* \"#utility.yul\":2387:2409   */\n      add\n        /* \"#utility.yul\":2366:2419   */\n      tag_59\n      jump\t// in\n    tag_114:\n        /* \"#utility.yul\":2356:2419   */\n      swap3\n      pop\n        /* \"#utility.yul\":2312:2429   */\n      pop\n        /* \"#utility.yul\":2468:2470   */\n      0x20\n        /* \"#utility.yul\":2494:2547   */\n      tag_115\n        /* \"#utility.yul\":2539:2546   */\n      dup6\n        /* \"#utility.yul\":2530:2536   */\n      dup3\n        /* \"#utility.yul\":2519:2528   */\n      dup7\n        /* \"#utility.yul\":2515:2537   */\n      add\n        /* \"#utility.yul\":2494:2547   */\n      tag_59\n      jump\t// in\n    tag_115:\n        /* \"#utility.yul\":2484:2547   */\n      swap2\n      pop\n        /* \"#utility.yul\":2439:2557   */\n      pop\n        /* \"#utility.yul\":2090:2564   */\n      swap3\n      pop\n      swap3\n      swap1\n      pop\n      jump\t// out\n        /* \"#utility.yul\":2570:2669   */\n    tag_66:\n        /* \"#utility.yul\":2622:2628   */\n      0x00\n        /* \"#utility.yul\":2656:2661   */\n      dup2\n        /* \"#utility.yul\":2650:2662   */\n      mload\n        /* \"#utility.yul\":2640:2662   */\n      swap1\n      pop\n        /* \"#utility.yul\":2570:2669   */\n      swap2\n      swap1\n      pop\n      jump\t// out\n        /* \"#utility.yul\":2675:2844   */\n    tag_67:\n        /* \"#utility.yul\":2759:2770   */\n      0x00\n        /* \"#utility.yul\":2793:2799   */\n      dup3\n        /* \"#utility.yul\":2788:2791   */\n      dup3\n        /* \"#utility.yul\":2781:2800   */\n      mstore\n        /* \"#utility.yul\":2833:2837   */\n      0x20\n        /* \"#utility.yul\":2828:2831   */\n      dup3\n        /* \"#utility.yul\":2824:2838   */\n      add\n        /* \"#utility.yul\":2809:2838   */\n      swap1\n      pop\n        /* \"#utility.yul\":2675:2844   */\n      swap3\n      swap2\n      pop\n      pop\n      jump\t// out\n        /* \"#utility.yul\":2850:2989   */\n    tag_68:\n        /* \"#utility.yul\":2939:2945   */\n      dup3\n        /* \"#utility.yul\":2934:2937   */\n      dup2\n        /* \"#utility.yul\":2929:2932   */\n      dup4\n        /* \"#utility.yul\":2923:2946   */\n      mcopy\n        /* \"#utility.yul\":2980:2981   */\n      0x00\n        /* \"#utility.yul\":2971:2977   */\n      dup4\n        /* \"#utility.yul\":2966:2969   */\n      dup4\n        /* \"#utility.yul\":2962:2978   */\n      add\n        /* \"#utility.yul\":2955:2982   */\n      mstore\n        /* \"#utility.yul\":2850:2989   */\n      pop\n      pop\n      pop\n      jump\t// out\n        /* \"#utility.yul\":2995:3097   */\n    tag_69:\n        /* \"#utility.yul\":3036:3042   */\n      0x00\n        /* \"#utility.yul\":3087:3089   */\n      0x1f\n        /* \"#utility.yul\":3083:3090   */\n      not\n        /* \"#utility.yul\":3078:3080   */\n      0x1f\n        /* \"#utility.yul\":3071:3076   */\n      dup4\n        /* \"#utility.yul\":3067:3081   */\n      add\n        /* \"#utility.yul\":3063:3091   */\n      and\n        /* \"#utility.yul\":3053:3091   */\n      swap1\n      pop\n        /* \"#utility.yul\":2995:3097   */\n      swap2\n      swap1\n      pop\n      jump\t// out\n        /* \"#utility.yul\":3103:3480   */\n    tag_70:\n        /* \"#utility.yul\":3191:3194   */\n      0x00\n        /* \"#utility.yul\":3219:3258   */\n      tag_121\n        /* \"#utility.yul\":3252:3257   */\n      dup3\n        /* \"#utility.yul\":3219:3258   */\n      tag_66\n      jump\t// in\n    tag_121:\n        /* \"#utility.yul\":3274:3345   */\n      tag_122\n        /* \"#utility.yul\":3338:3344   */\n      dup2\n        /* \"#utility.yul\":3333:3336   */\n      dup6\n        /* \"#utility.yul\":3274:3345   */\n      tag_67\n      jump\t// in\n    tag_122:\n        /* \"#utility.yul\":3267:3345   */\n      swap4\n      pop\n        /* \"#utility.yul\":3354:3419   */\n      tag_123\n        /* \"#utility.yul\":3412:3418   */\n      dup2\n        /* \"#utility.yul\":3407:3410   */\n      dup6\n        /* \"#utility.yul\":3400:3404   */\n      0x20\n        /* \"#utility.yul\":3393:3398   */\n      dup7\n        /* \"#utility.yul\":3389:3405   */\n      add\n        /* \"#utility.yul\":3354:3419   */\n      tag_68\n      jump\t// in\n    tag_123:\n        /* \"#utility.yul\":3444:3473   */\n      tag_124\n        /* \"#utility.yul\":3466:3472   */\n      dup2\n        /* \"#utility.yul\":3444:3473   */\n      tag_69\n      jump\t// in\n    tag_124:\n        /* \"#utility.yul\":3439:3442   */\n      dup5\n        /* \"#utility.yul\":3435:3474   */\n      add\n        /* \"#utility.yul\":3428:3474   */\n      swap2\n      pop\n        /* \"#utility.yul\":3195:3480   */\n      pop\n        /* \"#utility.yul\":3103:3480   */\n      swap3\n      swap2\n      pop\n      pop\n      jump\t// out\n        /* \"#utility.yul\":3486:3799   */\n    tag_20:\n        /* \"#utility.yul\":3599:3603   */\n      0x00\n        /* \"#utility.yul\":3637:3639   */\n      0x20\n        /* \"#utility.yul\":3626:3635   */\n      dup3\n        /* \"#utility.yul\":3622:3640   */\n      add\n        /* \"#utility.yul\":3614:3640   */\n      swap1\n      pop\n        /* \"#utility.yul\":3686:3695   */\n      dup2\n        /* \"#utility.yul\":3680:3684   */\n      dup2\n        /* \"#utility.yul\":3676:3696   */\n      sub\n        /* \"#utility.yul\":3672:3673   */\n      0x00\n        /* \"#utility.yul\":3661:3670   */\n      dup4\n        /* \"#utility.yul\":3657:3674   */\n      add\n        /* \"#utility.yul\":3650:3697   */\n      mstore\n        /* \"#utility.yul\":3714:3792   */\n      tag_126\n        /* \"#utility.yul\":3787:3791   */\n      dup2\n        /* \"#utility.yul\":3778:3784   */\n      dup5\n        /* \"#utility.yul\":3714:3792   */\n      tag_70\n      jump\t// in\n    tag_126:\n        /* \"#utility.yul\":3706:3792   */\n      swap1\n      pop\n        /* \"#utility.yul\":3486:3799   */\n      swap3\n      swap2\n      pop\n      pop\n      jump\t// out\n        /* \"#utility.yul\":3805:3922   */\n    tag_71:\n        /* \"#utility.yul\":3914:3915   */\n      0x00\n        /* \"#utility.yul\":3911:3912   */\n      0x00\n        /* \"#utility.yul\":3904:3916   */\n      revert\n        /* \"#utility.yul\":3928:4045   */\n    tag_72:\n        /* \"#utility.yul\":4037:4038   */\n      0x00\n        /* \"#utility.yul\":4034:4035   */\n      0x00\n        /* \"#utility.yul\":4027:4039   */\n      revert\n        /* \"#utility.yul\":4051:4231   */\n    tag_73:\n        /* \"#utility.yul\":4099:4176   */\n      0x4e487b7100000000000000000000000000000000000000000000000000000000\n        /* \"#utility.yul\":4096:4097   */\n      0x00\n        /* \"#utility.yul\":4089:4177   */\n      mstore\n        /* \"#utility.yul\":4196:4200   */\n      0x41\n        /* \"#utility.yul\":4193:4194   */\n      0x04\n        /* \"#utility.yul\":4186:4201   */\n      mstore\n        /* \"#utility.yul\":4220:4224   */\n      0x24\n        /* \"#utility.yul\":4217:4218   */\n      0x00\n        /* \"#utility.yul\":4210:4225   */\n      revert\n        /* \"#utility.yul\":4237:4518   */\n    tag_74:\n        /* \"#utility.yul\":4320:4347   */\n      tag_131\n        /* \"#utility.yul\":4342:4346   */\n      dup3\n        /* \"#utility.yul\":4320:4347   */\n      tag_69\n      jump\t// in\n    tag_131:\n        /* \"#utility.yul\":4312:4318   */\n      dup2\n        /* \"#utility.yul\":4308:4348   */\n      add\n        /* \"#utility.yul\":4450:4456   */\n      dup2\n        /* \"#utility.yul\":4438:4448   */\n      dup2\n        /* \"#utility.yul\":4435:4457   */\n      lt\n        /* \"#utility.yul\":4414:4432   */\n      0xffffffffffffffff\n        /* \"#utility.yul\":4402:4412   */\n      dup3\n        /* \"#utility.yul\":4399:4433   */\n      gt\n        /* \"#utility.yul\":4396:4458   */\n      or\n        /* \"#utility.yul\":4393:4481   */\n      iszero\n      tag_132\n      jumpi\n        /* \"#utility.yul\":4461:4479   */\n      tag_133\n      tag_73\n      jump\t// in\n    tag_133:\n        /* \"#utility.yul\":4393:4481   */\n    tag_132:\n        /* \"#utility.yul\":4501:4511   */\n      dup1\n        /* \"#utility.yul\":4497:4499   */\n      0x40\n        /* \"#utility.yul\":4490:4512   */\n      mstore\n        /* \"#utility.yul\":4280:4518   */\n      pop\n        /* \"#utility.yul\":4237:4518   */\n      pop\n      pop\n      jump\t// out\n        /* \"#utility.yul\":4524:4653   */\n    tag_75:\n        /* \"#utility.yul\":4558:4564   */\n      0x00\n        /* \"#utility.yul\":4585:4605   */\n      tag_135\n      tag_54\n      jump\t// in\n    tag_135:\n        /* \"#utility.yul\":4575:4605   */\n      swap1\n      pop\n        /* \"#utility.yul\":4614:4647   */\n      tag_136\n        /* \"#utility.yul\":4642:4646   */\n      dup3\n        /* \"#utility.yul\":4634:4640   */\n      dup3\n        /* \"#utility.yul\":4614:4647   */\n      tag_74\n      jump\t// in\n    tag_136:\n        /* \"#utility.yul\":4524:4653   */\n      swap2\n      swap1\n      pop\n      jump\t// out\n        /* \"#utility.yul\":4659:4967   */\n    tag_76:\n        /* \"#utility.yul\":4721:4725   */\n      0x00\n        /* \"#utility.yul\":4811:4829   */\n      0xffffffffffffffff\n        /* \"#utility.yul\":4803:4809   */\n      dup3\n        /* \"#utility.yul\":4800:4830   */\n      gt\n        /* \"#utility.yul\":4797:4853   */\n      iszero\n      tag_138\n      jumpi\n        /* \"#utility.yul\":4833:4851   */\n      tag_139\n      tag_73\n      jump\t// in\n    tag_139:\n        /* \"#utility.yul\":4797:4853   */\n    tag_138:\n        /* \"#utility.yul\":4871:4900   */\n      tag_140\n        /* \"#utility.yul\":4893:4899   */\n      dup3\n        /* \"#utility.yul\":4871:4900   */\n      tag_69\n      jump\t// in\n    tag_140:\n        /* \"#utility.yul\":4863:4900   */\n      swap1\n      pop\n        /* \"#utility.yul\":4955:4959   */\n      0x20\n        /* \"#utility.yul\":4949:4953   */\n      dup2\n        /* \"#utility.yul\":4945:4960   */\n      add\n        /* \"#utility.yul\":4937:4960   */\n      swap1\n      pop\n        /* \"#utility.yul\":4659:4967   */\n      swap2\n      swap1\n      pop\n      jump\t// out\n        /* \"#utility.yul\":4973:5121   */\n    tag_77:\n        /* \"#utility.yul\":5071:5077   */\n      dup3\n        /* \"#utility.yul\":5066:5069   */\n      dup2\n        /* \"#utility.yul\":5061:5064   */\n      dup4\n        /* \"#utility.yul\":5048:5078   */\n      calldatacopy\n        /* \"#utility.yul\":5112:5113   */\n      0x00\n        /* \"#utility.yul\":5103:5109   */\n      dup4\n        /* \"#utility.yul\":5098:5101   */\n      dup4\n        /* \"#utility.yul\":5094:5110   */\n      add\n        /* \"#utility.yul\":5087:5114   */\n      mstore\n        /* \"#utility.yul\":4973:5121   */\n      pop\n      pop\n      pop\n      jump\t// out\n        /* \"#utility.yul\":5127:5552   */\n    tag_78:\n        /* \"#utility.yul\":5205:5210   */\n      0x00\n        /* \"#utility.yul\":5230:5296   */\n      tag_143\n        /* \"#utility.yul\":5246:5295   */\n      tag_144\n        /* \"#utility.yul\":5288:5294   */\n      dup5\n        /* \"#utility.yul\":5246:5295   */\n      tag_76\n      jump\t// in\n    tag_144:\n        /* \"#utility.yul\":5230:5296   */\n      tag_75\n      jump\t// in\n    tag_143:\n        /* \"#utility.yul\":5221:5296   */\n      swap1\n      pop\n        /* \"#utility.yul\":5319:5325   */\n      dup3\n        /* \"#utility.yul\":5312:5317   */\n      dup2\n        /* \"#utility.yul\":5305:5326   */\n      mstore\n        /* \"#utility.yul\":5357:5361   */\n      0x20\n        /* \"#utility.yul\":5350:5355   */\n      dup2\n        /* \"#utility.yul\":5346:5362   */\n      add\n        /* \"#utility.yul\":5395:5398   */\n      dup5\n        /* \"#utility.yul\":5386:5392   */\n      dup5\n        /* \"#utility.yul\":5381:5384   */\n      dup5\n        /* \"#utility.yul\":5377:5393   */\n      add\n        /* \"#utility.yul\":5374:5399   */\n      gt\n        /* \"#utility.yul\":5371:5483   */\n      iszero\n      tag_145\n      jumpi\n        /* \"#utility.yul\":5402:5481   */\n      tag_146\n      tag_72\n      jump\t// in\n    tag_146:\n        /* \"#utility.yul\":5371:5483   */\n    tag_145:\n        /* \"#utility.yul\":5492:5546   */\n      tag_147\n        /* \"#utility.yul\":5539:5545   */\n      dup5\n        /* \"#utility.yul\":5534:5537   */\n      dup3\n        /* \"#utility.yul\":5529:5532   */\n      dup6\n        /* \"#utility.yul\":5492:5546   */\n      tag_77\n      jump\t// in\n    tag_147:\n        /* \"#utility.yul\":5211:5552   */\n      pop\n        /* \"#utility.yul\":5127:5552   */\n      swap4\n      swap3\n      pop\n      pop\n      pop\n      jump\t// out\n        /* \"#utility.yul\":5572:5912   */\n    tag_79:\n        /* \"#utility.yul\":5628:5633   */\n      0x00\n        /* \"#utility.yul\":5677:5680   */\n      dup3\n        /* \"#utility.yul\":5670:5674   */\n      0x1f\n        /* \"#utility.yul\":5662:5668   */\n      dup4\n        /* \"#utility.yul\":5658:5675   */\n      add\n        /* \"#utility.yul\":5654:5681   */\n      slt\n        /* \"#utility.yul\":5644:5766   */\n      tag_149\n      jumpi\n        /* \"#utility.yul\":5685:5764   */\n      tag_150\n      tag_71\n      jump\t// in\n    tag_150:\n        /* \"#utility.yul\":5644:5766   */\n    tag_149:\n        /* \"#utility.yul\":5802:5808   */\n      dup2\n        /* \"#utility.yul\":5789:5809   */\n      calldataload\n        /* \"#utility.yul\":5827:5906   */\n      tag_151\n        /* \"#utility.yul\":5902:5905   */\n      dup5\n        /* \"#utility.yul\":5894:5900   */\n      dup3\n        /* \"#utility.yul\":5887:5891   */\n      0x20\n        /* \"#utility.yul\":5879:5885   */\n      dup7\n        /* \"#utility.yul\":5875:5892   */\n      add\n        /* \"#utility.yul\":5827:5906   */\n      tag_78\n      jump\t// in\n    tag_151:\n        /* \"#utility.yul\":5818:5906   */\n      swap2\n      pop\n        /* \"#utility.yul\":5634:5912   */\n      pop\n        /* \"#utility.yul\":5572:5912   */\n      swap3\n      swap2\n      pop\n      pop\n      jump\t// out\n        /* \"#utility.yul\":5918:6717   */\n    tag_23:\n        /* \"#utility.yul\":6005:6011   */\n      0x00\n        /* \"#utility.yul\":6013:6019   */\n      0x00\n        /* \"#utility.yul\":6021:6027   */\n      0x00\n        /* \"#utility.yul\":6070:6072   */\n      0x60\n        /* \"#utility.yul\":6058:6067   */\n      dup5\n        /* \"#utility.yul\":6049:6056   */\n      dup7\n        /* \"#utility.yul\":6045:6068   */\n      sub\n        /* \"#utility.yul\":6041:6073   */\n      slt\n        /* \"#utility.yul\":6038:6157   */\n      iszero\n      tag_153\n      jumpi\n        /* \"#utility.yul\":6076:6155   */\n      tag_154\n      tag_55\n      jump\t// in\n    tag_154:\n        /* \"#utility.yul\":6038:6157   */\n    tag_153:\n        /* \"#utility.yul\":6196:6197   */\n      0x00\n        /* \"#utility.yul\":6221:6274   */\n      tag_155\n        /* \"#utility.yul\":6266:6273   */\n      dup7\n        /* \"#utility.yul\":6257:6263   */\n      dup3\n        /* \"#utility.yul\":6246:6255   */\n      dup8\n        /* \"#utility.yul\":6242:6264   */\n      add\n        /* \"#utility.yul\":6221:6274   */\n      tag_59\n      jump\t// in\n    tag_155:\n        /* \"#utility.yul\":6211:6274   */\n      swap4\n      pop\n        /* \"#utility.yul\":6167:6284   */\n      pop\n        /* \"#utility.yul\":6323:6325   */\n      0x20\n        /* \"#utility.yul\":6349:6402   */\n      tag_156\n        /* \"#utility.yul\":6394:6401   */\n      dup7\n        /* \"#utility.yul\":6385:6391   */\n      dup3\n        /* \"#utility.yul\":6374:6383   */\n      dup8\n        /* \"#utility.yul\":6370:6392   */\n      add\n        /* \"#utility.yul\":6349:6402   */\n      tag_59\n      jump\t// in\n    tag_156:\n        /* \"#utility.yul\":6339:6402   */\n      swap3\n      pop\n        /* \"#utility.yul\":6294:6412   */\n      pop\n        /* \"#utility.yul\":6479:6481   */\n      0x40\n        /* \"#utility.yul\":6468:6477   */\n      dup5\n        /* \"#utility.yul\":6464:6482   */\n      add\n        /* \"#utility.yul\":6451:6483   */\n      calldataload\n        /* \"#utility.yul\":6510:6528   */\n      0xffffffffffffffff\n        /* \"#utility.yul\":6502:6508   */\n      dup2\n        /* \"#utility.yul\":6499:6529   */\n      gt\n        /* \"#utility.yul\":6496:6613   */\n      iszero\n      tag_157\n      jumpi\n        /* \"#utility.yul\":6532:6611   */\n      tag_158\n      tag_56\n      jump\t// in\n    tag_158:\n        /* \"#utility.yul\":6496:6613   */\n    tag_157:\n        /* \"#utility.yul\":6637:6700   */\n      tag_159\n        /* \"#utility.yul\":6692:6699   */\n      dup7\n        /* \"#utility.yul\":6683:6689   */\n      dup3\n        /* \"#utility.yul\":6672:6681   */\n      dup8\n        /* \"#utility.yul\":6668:6690   */\n      add\n        /* \"#utility.yul\":6637:6700   */\n      tag_79\n      jump\t// in\n    tag_159:\n        /* \"#utility.yul\":6627:6700   */\n      swap2\n      pop\n        /* \"#utility.yul\":6422:6710   */\n      pop\n        /* \"#utility.yul\":5918:6717   */\n      swap3\n      pop\n      swap3\n      pop\n      swap3\n      jump\t// out\n        /* \"#utility.yul\":6723:6903   */\n    tag_28:\n        /* \"#utility.yul\":6771:6848   */\n      0x4e487b7100000000000000000000000000000000000000000000000000000000\n        /* \"#utility.yul\":6768:6769   */\n      0x00\n        /* \"#utility.yul\":6761:6849   */\n      mstore\n        /* \"#utility.yul\":6868:6872   */\n      0x32\n        /* \"#utility.yul\":6865:6866   */\n      0x04\n        /* \"#utility.yul\":6858:6873   */\n      mstore\n        /* \"#utility.yul\":6892:6896   */\n      0x24\n        /* \"#utility.yul\":6889:6890   */\n      0x00\n        /* \"#utility.yul\":6882:6897   */\n      revert\n        /* \"#utility.yul\":6909:7027   */\n    tag_80:\n        /* \"#utility.yul\":6996:7020   */\n      tag_162\n        /* \"#utility.yul\":7014:7019   */\n      dup2\n        /* \"#utility.yul\":6996:7020   */\n      tag_57\n      jump\t// in\n    tag_162:\n        /* \"#utility.yul\":6991:6994   */\n      dup3\n        /* \"#utility.yul\":6984:7021   */\n      mstore\n        /* \"#utility.yul\":6909:7027   */\n      pop\n      pop\n      jump\t// out\n        /* \"#utility.yul\":7033:7255   */\n    tag_40:\n        /* \"#utility.yul\":7126:7130   */\n      0x00\n        /* \"#utility.yul\":7164:7166   */\n      0x20\n        /* \"#utility.yul\":7153:7162   */\n      dup3\n        /* \"#utility.yul\":7149:7167   */\n      add\n        /* \"#utility.yul\":7141:7167   */\n      swap1\n      pop\n        /* \"#utility.yul\":7177:7248   */\n      tag_164\n        /* \"#utility.yul\":7245:7246   */\n      0x00\n        /* \"#utility.yul\":7234:7243   */\n      dup4\n        /* \"#utility.yul\":7230:7247   */\n      add\n        /* \"#utility.yul\":7221:7227   */\n      dup5\n        /* \"#utility.yul\":7177:7248   */\n      tag_80\n      jump\t// in\n    tag_164:\n        /* \"#utility.yul\":7033:7255   */\n      swap3\n      swap2\n      pop\n      pop\n      jump\t// out\n        /* \"#utility.yul\":7261:7695   */\n    tag_81:\n        /* \"#utility.yul\":7350:7355   */\n      0x00\n        /* \"#utility.yul\":7375:7441   */\n      tag_166\n        /* \"#utility.yul\":7391:7440   */\n      tag_167\n        /* \"#utility.yul\":7433:7439   */\n      dup5\n        /* \"#utility.yul\":7391:7440   */\n      tag_76\n      jump\t// in\n    tag_167:\n        /* \"#utility.yul\":7375:7441   */\n      tag_75\n      jump\t// in\n    tag_166:\n        /* \"#utility.yul\":7366:7441   */\n      swap1\n      pop\n        /* \"#utility.yul\":7464:7470   */\n      dup3\n        /* \"#utility.yul\":7457:7462   */\n      dup2\n        /* \"#utility.yul\":7450:7471   */\n      mstore\n        /* \"#utility.yul\":7502:7506   */\n      0x20\n        /* \"#utility.yul\":7495:7500   */\n      dup2\n        /* \"#utility.yul\":7491:7507   */\n      add\n        /* \"#utility.yul\":7540:7543   */\n      dup5\n        /* \"#utility.yul\":7531:7537   */\n      dup5\n        /* \"#utility.yul\":7526:7529   */\n      dup5\n        /* \"#utility.yul\":7522:7538   */\n      add\n        /* \"#utility.yul\":7519:7544   */\n      gt\n        /* \"#utility.yul\":7516:7628   */\n      iszero\n      tag_168\n      jumpi\n        /* \"#utility.yul\":7547:7626   */\n      tag_169\n      tag_72\n      jump\t// in\n    tag_169:\n        /* \"#utility.yul\":7516:7628   */\n    tag_168:\n        /* \"#utility.yul\":7637:7689   */\n      tag_170\n        /* \"#utility.yul\":7682:7688   */\n      dup5\n        /* \"#utility.yul\":7677:7680   */\n      dup3\n        /* \"#utility.yul\":7672:7675   */\n      dup6\n        /* \"#utility.yul\":7637:7689   */\n      tag_68\n      jump\t// in\n    tag_170:\n        /* \"#utility.yul\":7356:7695   */\n      pop\n        /* \"#utility.yul\":7261:7695   */\n      swap4\n      swap3\n      pop\n      pop\n      pop\n      jump\t// out\n        /* \"#utility.yul\":7715:8070   */\n    tag_82:\n        /* \"#utility.yul\":7782:7787   */\n      0x00\n        /* \"#utility.yul\":7831:7834   */\n      dup3\n        /* \"#utility.yul\":7824:7828   */\n      0x1f\n        /* \"#utility.yul\":7816:7822   */\n      dup4\n        /* \"#utility.yul\":7812:7829   */\n      add\n        /* \"#utility.yul\":7808:7835   */\n      slt\n        /* \"#utility.yul\":7798:7920   */\n      tag_172\n      jumpi\n        /* \"#utility.yul\":7839:7918   */\n      tag_173\n      tag_71\n      jump\t// in\n    tag_173:\n        /* \"#utility.yul\":7798:7920   */\n    tag_172:\n        /* \"#utility.yul\":7949:7955   */\n      dup2\n        /* \"#utility.yul\":7943:7956   */\n      mload\n        /* \"#utility.yul\":7974:8064   */\n      tag_174\n        /* \"#utility.yul\":8060:8063   */\n      dup5\n        /* \"#utility.yul\":8052:8058   */\n      dup3\n        /* \"#utility.yul\":8045:8049   */\n      0x20\n        /* \"#utility.yul\":8037:8043   */\n      dup7\n        /* \"#utility.yul\":8033:8050   */\n      add\n        /* \"#utility.yul\":7974:8064   */\n      tag_81\n      jump\t// in\n    tag_174:\n        /* \"#utility.yul\":7965:8064   */\n      swap2\n      pop\n        /* \"#utility.yul\":7788:8070   */\n      pop\n        /* \"#utility.yul\":7715:8070   */\n      swap3\n      swap2\n      pop\n      pop\n      jump\t// out\n        /* \"#utility.yul\":8076:8600   */\n    tag_44:\n        /* \"#utility.yul\":8156:8162   */\n      0x00\n        /* \"#utility.yul\":8205:8207   */\n      0x20\n        /* \"#utility.yul\":8193:8202   */\n      dup3\n        /* \"#utility.yul\":8184:8191   */\n      dup5\n        /* \"#utility.yul\":8180:8203   */\n      sub\n        /* \"#utility.yul\":8176:8208   */\n      slt\n        /* \"#utility.yul\":8173:8292   */\n      iszero\n      tag_176\n      jumpi\n        /* \"#utility.yul\":8211:8290   */\n      tag_177\n      tag_55\n      jump\t// in\n    tag_177:\n        /* \"#utility.yul\":8173:8292   */\n    tag_176:\n        /* \"#utility.yul\":8352:8353   */\n      0x00\n        /* \"#utility.yul\":8341:8350   */\n      dup3\n        /* \"#utility.yul\":8337:8354   */\n      add\n        /* \"#utility.yul\":8331:8355   */\n      mload\n        /* \"#utility.yul\":8382:8400   */\n      0xffffffffffffffff\n        /* \"#utility.yul\":8374:8380   */\n      dup2\n        /* \"#utility.yul\":8371:8401   */\n      gt\n        /* \"#utility.yul\":8368:8485   */\n      iszero\n      tag_178\n      jumpi\n        /* \"#utility.yul\":8404:8483   */\n      tag_179\n      tag_56\n      jump\t// in\n    tag_179:\n        /* \"#utility.yul\":8368:8485   */\n    tag_178:\n        /* \"#utility.yul\":8509:8583   */\n      tag_180\n        /* \"#utility.yul\":8575:8582   */\n      dup5\n        /* \"#utility.yul\":8566:8572   */\n      dup3\n        /* \"#utility.yul\":8555:8564   */\n      dup6\n        /* \"#utility.yul\":8551:8573   */\n      add\n        /* \"#utility.yul\":8509:8583   */\n      tag_82\n      jump\t// in\n    tag_180:\n        /* \"#utility.yul\":8499:8583   */\n      swap2\n      pop\n        /* \"#utility.yul\":8302:8593   */\n      pop\n        /* \"#utility.yul\":8076:8600   */\n      swap3\n      swap2\n      pop\n      pop\n      jump\t// out\n        /* \"#utility.yul\":8606:9029   */\n    tag_50:\n        /* \"#utility.yul\":8747:8751   */\n      0x00\n        /* \"#utility.yul\":8785:8787   */\n      0x40\n        /* \"#utility.yul\":8774:8783   */\n      dup3\n        /* \"#utility.yul\":8770:8788   */\n      add\n        /* \"#utility.yul\":8762:8788   */\n      swap1\n      pop\n        /* \"#utility.yul\":8798:8869   */\n      tag_182\n        /* \"#utility.yul\":8866:8867   */\n      0x00\n        /* \"#utility.yul\":8855:8864   */\n      dup4\n        /* \"#utility.yul\":8851:8868   */\n      add\n        /* \"#utility.yul\":8842:8848   */\n      dup6\n        /* \"#utility.yul\":8798:8869   */\n      tag_80\n      jump\t// in\n    tag_182:\n        /* \"#utility.yul\":8916:8925   */\n      dup2\n        /* \"#utility.yul\":8910:8914   */\n      dup2\n        /* \"#utility.yul\":8906:8926   */\n      sub\n        /* \"#utility.yul\":8901:8903   */\n      0x20\n        /* \"#utility.yul\":8890:8899   */\n      dup4\n        /* \"#utility.yul\":8886:8904   */\n      add\n        /* \"#utility.yul\":8879:8927   */\n      mstore\n        /* \"#utility.yul\":8944:9022   */\n      tag_183\n        /* \"#utility.yul\":9017:9021   */\n      dup2\n        /* \"#utility.yul\":9008:9014   */\n      dup5\n        /* \"#utility.yul\":8944:9022   */\n      tag_70\n      jump\t// in\n    tag_183:\n        /* \"#utility.yul\":8936:9022   */\n      swap1\n      pop\n        /* \"#utility.yul\":8606:9029   */\n      swap4\n      swap3\n      pop\n      pop\n      pop\n      jump\t// out\n    stop\n\n    sub_0: assembly {\n            /* \"NextFundMe/newfundme.sol\":213:5087  contract HelloWorld{... */\n          mstore(0x40, 0x80)\n            /* \"NextFundMe/newfundme.sol\":253:257  true */\n          0x01\n            /* \"NextFundMe/newfundme.sol\":238:257  bool boolVar_1=true */\n          0x00\n          exp(0x0100, 0x00)\n          dup2\n          sload\n          dup2\n          0xff\n          mul\n          not\n          and\n          swap1\n          dup4\n          iszero\n          iszero\n          mul\n          or\n          swap1\n          sstore\n          pop\n            /* \"NextFundMe/newfundme.sol\":309:314  false */\n          0x00\n            /* \"NextFundMe/newfundme.sol\":294:314  bool boolVar_2=false */\n          0x00\n          exp(0x0100, 0x01)\n          dup2\n          sload\n          dup2\n          0xff\n          mul\n          not\n          and\n          swap1\n          dup4\n          iszero\n          iszero\n          mul\n          or\n          swap1\n          sstore\n          pop\n            /* \"NextFundMe/newfundme.sol\":337:340  100 */\n          0x64\n            /* \"NextFundMe/newfundme.sol\":320:340  uint256 testint =100 */\n          0x01\n          sstore\n            /* \"NextFundMe/newfundme.sol\":391:393  -8 */\n          0xfffffffffffffffffffffffffffffffffffffffffffffffffffffffffffffff8\n            /* \"NextFundMe/newfundme.sol\":376:393  int256 Varint =-8 */\n          0x02\n          sstore\n            /* \"NextFundMe/newfundme.sol\":436:467  bytes32 Varbytes=\"Hello World!\" */\n          sstore(0x03, 0x48656c6c6f20576f726c64210000000000000000000000000000000000000000)\n            /* \"NextFundMe/newfundme.sol\":591:622  string Strbytes=\"Hello Worlds!\" */\n          mload(0x40)\n          dup1\n          0x40\n          add\n          0x40\n          mstore\n          dup1\n          0x0d\n          dup2\n          mstore\n          0x20\n          add\n          0x48656c6c6f20576f726c64732100000000000000000000000000000000000000\n          dup2\n          mstore\n          pop\n          0x04\n          swap1\n          dup2\n          tag_1\n          swap2\n          swap1\n          tag_2\n          jump\t// in\n        tag_1:\n          pop\n            /* \"NextFundMe/newfundme.sol\":875:917  0x5B38Da6a701c568545dCfcB03FcB875f56beddC4 */\n          0x5b38da6a701c568545dcfcb03fcb875f56beddc4\n            /* \"NextFundMe/newfundme.sol\":854:917  address VarAddress = 0x5B38Da6a701c568545dCfcB03FcB875f56beddC4 */\n          0x05\n          exp(0x0100, 0x00)\n          dup2\n          sload\n          dup2\n          0xffffffffffffffffffffffffffffffffffffffff\n          mul\n          not\n          and\n          swap1\n          dup4\n          0xffffffffffffffffffffffffffffffffffffffff\n          and\n          mul\n          or\n          swap1\n          sstore\n          pop\n            /* \"NextFundMe/newfundme.sol\":213:5087  contract HelloWorld{... */\n          callvalue\n          dup1\n          iszero\n          tag_3\n          jumpi\n          revert(0x00, 0x00)\n        tag_3:\n          pop\n          jump(tag_4)\n            /* \"#utility.yul\":7:106   */\n        tag_5:\n            /* \"#utility.yul\":59:65   */\n          0x00\n            /* \"#utility.yul\":93:98   */\n          dup2\n            /* \"#utility.yul\":87:99   */\n          mload\n            /* \"#utility.yul\":77:99   */\n          swap1\n          pop\n            /* \"#utility.yul\":7:106   */\n          swap2\n          swap1\n          pop\n          jump\t// out\n            /* \"#utility.yul\":112:292   */\n        tag_6:\n            /* \"#utility.yul\":160:237   */\n          0x4e487b7100000000000000000000000000000000000000000000000000000000\n            /* \"#utility.yul\":157:158   */\n          0x00\n            /* \"#utility.yul\":150:238   */\n          mstore\n            /* \"#utility.yul\":257:261   */\n          0x41\n            /* \"#utility.yul\":254:255   */\n          0x04\n            /* \"#utility.yul\":247:262   */\n          mstore\n            /* \"#utility.yul\":281:285   */\n          0x24\n            /* \"#utility.yul\":278:279   */\n          0x00\n            /* \"#utility.yul\":271:286   */\n          revert\n            /* \"#utility.yul\":298:478   */\n        tag_7:\n            /* \"#utility.yul\":346:423   */\n          0x4e487b7100000000000000000000000000000000000000000000000000000000\n            /* \"#utility.yul\":343:344   */\n          0x00\n            /* \"#utility.yul\":336:424   */\n          mstore\n            /* \"#utility.yul\":443:447   */\n          0x22\n            /* \"#utility.yul\":440:441   */\n          0x04\n            /* \"#utility.yul\":433:448   */\n          mstore\n            /* \"#utility.yul\":467:471   */\n          0x24\n            /* \"#utility.yul\":464:465   */\n          0x00\n            /* \"#utility.yul\":457:472   */\n          revert\n            /* \"#utility.yul\":484:804   */\n        tag_8:\n            /* \"#utility.yul\":528:534   */\n          0x00\n            /* \"#utility.yul\":565:566   */\n          0x02\n            /* \"#utility.yul\":559:563   */\n          dup3\n            /* \"#utility.yul\":555:567   */\n          div\n            /* \"#utility.yul\":545:567   */\n          swap1\n          pop\n            /* \"#utility.yul\":612:613   */\n          0x01\n            /* \"#utility.yul\":606:610   */\n          dup3\n            /* \"#utility.yul\":602:614   */\n          and\n            /* \"#utility.yul\":633:651   */\n          dup1\n            /* \"#utility.yul\":623:704   */\n          tag_30\n          jumpi\n            /* \"#utility.yul\":689:693   */\n          0x7f\n            /* \"#utility.yul\":681:687   */\n          dup3\n            /* \"#utility.yul\":677:694   */\n          and\n            /* \"#utility.yul\":667:694   */\n          swap2\n          pop\n            /* \"#utility.yul\":623:704   */\n        tag_30:\n            /* \"#utility.yul\":751:753   */\n          0x20\n            /* \"#utility.yul\":743:749   */\n          dup3\n            /* \"#utility.yul\":740:754   */\n          lt\n            /* \"#utility.yul\":720:738   */\n          dup2\n            /* \"#utility.yul\":717:755   */\n          sub\n            /* \"#utility.yul\":714:798   */\n          tag_31\n          jumpi\n            /* \"#utility.yul\":770:788   */\n          tag_32\n          tag_7\n          jump\t// in\n        tag_32:\n            /* \"#utility.yul\":714:798   */\n        tag_31:\n            /* \"#utility.yul\":535:804   */\n          pop\n            /* \"#utility.yul\":484:804   */\n          swap2\n          swap1\n          pop\n          jump\t// out\n            /* \"#utility.yul\":810:951   */\n        tag_9:\n            /* \"#utility.yul\":859:863   */\n          0x00\n            /* \"#utility.yul\":882:885   */\n          dup2\n            /* \"#utility.yul\":874:885   */\n          swap1\n          pop\n            /* \"#utility.yul\":905:908   */\n          dup2\n            /* \"#utility.yul\":902:903   */\n          0x00\n            /* \"#utility.yul\":895:909   */\n          mstore\n            /* \"#utility.yul\":939:943   */\n          0x20\n            /* \"#utility.yul\":936:937   */\n          0x00\n            /* \"#utility.yul\":926:944   */\n          keccak256\n            /* \"#utility.yul\":918:944   */\n          swap1\n          pop\n            /* \"#utility.yul\":810:951   */\n          swap2\n          swap1\n          pop\n          jump\t// out\n            /* \"#utility.yul\":957:1050   */\n        tag_10:\n            /* \"#utility.yul\":994:1000   */\n          0x00\n            /* \"#utility.yul\":1041:1043   */\n          0x20\n            /* \"#utility.yul\":1036:1038   */\n          0x1f\n            /* \"#utility.yul\":1029:1034   */\n          dup4\n            /* \"#utility.yul\":1025:1039   */\n          add\n            /* \"#utility.yul\":1021:1044   */\n          div\n            /* \"#utility.yul\":1011:1044   */\n          swap1\n          pop\n            /* \"#utility.yul\":957:1050   */\n          swap2\n          swap1\n          pop\n          jump\t// out\n            /* \"#utility.yul\":1056:1163   */\n        tag_11:\n            /* \"#utility.yul\":1100:1108   */\n          0x00\n            /* \"#utility.yul\":1150:1155   */\n          dup3\n            /* \"#utility.yul\":1144:1148   */\n          dup3\n            /* \"#utility.yul\":1140:1156   */\n          shl\n            /* \"#utility.yul\":1119:1156   */\n          swap1\n          pop\n            /* \"#utility.yul\":1056:1163   */\n          swap3\n          swap2\n          pop\n          pop\n          jump\t// out\n            /* \"#utility.yul\":1169:1562   */\n        tag_12:\n            /* \"#utility.yul\":1238:1244   */\n          0x00\n            /* \"#utility.yul\":1288:1289   */\n          0x08\n            /* \"#utility.yul\":1276:1286   */\n          dup4\n            /* \"#utility.yul\":1272:1290   */\n          mul\n            /* \"#utility.yul\":1311:1408   */\n          tag_37\n            /* \"#utility.yul\":1341:1407   */\n          0xffffffffffffffffffffffffffffffffffffffffffffffffffffffffffffffff\n            /* \"#utility.yul\":1330:1339   */\n          dup3\n            /* \"#utility.yul\":1311:1408   */\n          tag_11\n          jump\t// in\n        tag_37:\n            /* \"#utility.yul\":1429:1468   */\n          tag_38\n            /* \"#utility.yul\":1459:1467   */\n          dup7\n            /* \"#utility.yul\":1448:1457   */\n          dup4\n            /* \"#utility.yul\":1429:1468   */\n          tag_11\n          jump\t// in\n        tag_38:\n            /* \"#utility.yul\":1417:1468   */\n          swap6\n          pop\n            /* \"#utility.yul\":1501:1505   */\n          dup1\n            /* \"#utility.yul\":1497:1506   */\n          not\n            /* \"#utility.yul\":1490:1495   */\n          dup5\n            /* \"#utility.yul\":1486:1507   */\n          and\n            /* \"#utility.yul\":1477:1507   */\n          swap4\n          pop\n            /* \"#utility.yul\":1550:1554   */\n          dup1\n            /* \"#utility.yul\":1540:1548   */\n          dup7\n            /* \"#utility.yul\":1536:1555   */\n          and\n            /* \"#utility.yul\":1529:1534   */\n          dup5\n            /* \"#utility.yul\":1526:1556   */\n          or\n            /* \"#utility.yul\":1516:1556   */\n          swap3\n          pop\n            /* \"#utility.yul\":1245:1562   */\n          pop\n          pop\n            /* \"#utility.yul\":1169:1562   */\n          swap4\n          swap3\n          pop\n          pop\n          pop\n          jump\t// out\n            /* \"#utility.yul\":1568:1645   */\n        tag_13:\n            /* \"#utility.yul\":1605:1612   */\n          0x00\n            /* \"#utility.yul\":1634:1639   */\n          dup2\n            /* \"#utility.yul\":1623:1639   */\n          swap1\n          pop\n            /* \"#utility.yul\":1568:1645   */\n          swap2\n          swap1\n          pop\n          jump\t// out\n            /* \"#utility.yul\":1651:1711   */\n        tag_14:\n            /* \"#utility.yul\":1679:1682   */\n          0x00\n            /* \"#utility.yul\":1700:1705   */\n          dup2\n            /* \"#utility.yul\":1693:1705   */\n          swap1\n          pop\n            /* \"#utility.yul\":1651:1711   */\n          swap2\n          swap1\n          pop\n          jump\t// out\n            /* \"#utility.yul\":1717:1859   */\n        tag_15:\n            /* \"#utility.yul\":1767:1776   */\n          0x00\n            /* \"#utility.yul\":1800:1853   */\n          tag_42\n            /* \"#utility.yul\":1818:1852   */\n          tag_43\n            /* \"#utility.yul\":1827:1851   */\n          tag_44\n            /* \"#utility.yul\":1845:1850   */\n          dup5\n            /* \"#utility.yul\":1827:1851   */\n          tag_13\n          jump\t// in\n        tag_44:\n            /* \"#utility.yul\":1818:1852   */\n          tag_14\n          jump\t// in\n        tag_43:\n            /* \"#utility.yul\":1800:1853   */\n          tag_13\n          jump\t// in\n        tag_42:\n            /* \"#utility.yul\":1787:1853   */\n          swap1\n          pop\n            /* \"#utility.yul\":1717:1859   */\n          swap2\n          swap1\n          pop\n          jump\t// out\n            /* \"#utility.yul\":1865:1940   */\n        tag_16:\n            /* \"#utility.yul\":1908:1911   */\n          0x00\n            /* \"#utility.yul\":1929:1934   */\n          dup2\n            /* \"#utility.yul\":1922:1934   */\n          swap1\n          pop\n            /* \"#utility.yul\":1865:1940   */\n          swap2\n          swap1\n          pop\n          jump\t// out\n            /* \"#utility.yul\":1946:2215   */\n        tag_17:\n            /* \"#utility.yul\":2056:2095   */\n          tag_47\n            /* \"#utility.yul\":2087:2094   */\n          dup4\n            /* \"#utility.yul\":2056:2095   */\n          tag_15\n          jump\t// in\n        tag_47:\n            /* \"#utility.yul\":2117:2208   */\n          tag_48\n            /* \"#utility.yul\":2166:2207   */\n          tag_49\n            /* \"#utility.yul\":2190:2206   */\n          dup3\n            /* \"#utility.yul\":2166:2207   */\n          tag_16\n          jump\t// in\n        tag_49:\n            /* \"#utility.yul\":2158:2164   */\n          dup5\n            /* \"#utility.yul\":2151:2155   */\n          dup5\n            /* \"#utility.yul\":2145:2156   */\n          sload\n            /* \"#utility.yul\":2117:2208   */\n          tag_12\n          jump\t// in\n        tag_48:\n            /* \"#utility.yul\":2111:2115   */\n          dup3\n            /* \"#utility.yul\":2104:2209   */\n          sstore\n            /* \"#utility.yul\":2022:2215   */\n          pop\n            /* \"#utility.yul\":1946:2215   */\n          pop\n          pop\n          pop\n          jump\t// out\n            /* \"#utility.yul\":2221:2294   */\n        tag_18:\n            /* \"#utility.yul\":2266:2269   */\n          0x00\n            /* \"#utility.yul\":2287:2288   */\n          0x00\n            /* \"#utility.yul\":2280:2288   */\n          swap1\n          pop\n            /* \"#utility.yul\":2221:2294   */\n          swap1\n          jump\t// out\n            /* \"#utility.yul\":2300:2489   */\n        tag_19:\n            /* \"#utility.yul\":2377:2409   */\n          tag_52\n          tag_18\n          jump\t// in\n        tag_52:\n            /* \"#utility.yul\":2418:2483   */\n          tag_53\n            /* \"#utility.yul\":2476:2482   */\n          dup2\n            /* \"#utility.yul\":2468:2474   */\n          dup5\n            /* \"#utility.yul\":2462:2466   */\n          dup5\n            /* \"#utility.yul\":2418:2483   */\n          tag_17\n          jump\t// in\n        tag_53:\n            /* \"#utility.yul\":2353:2489   */\n          pop\n            /* \"#utility.yul\":2300:2489   */\n          pop\n          pop\n          jump\t// out\n            /* \"#utility.yul\":2495:2681   */\n        tag_20:\n            /* \"#utility.yul\":2555:2675   */\n        tag_55:\n            /* \"#utility.yul\":2572:2575   */\n          dup2\n            /* \"#utility.yul\":2565:2570   */\n          dup2\n            /* \"#utility.yul\":2562:2576   */\n          lt\n            /* \"#utility.yul\":2555:2675   */\n          iszero\n          tag_57\n          jumpi\n            /* \"#utility.yul\":2626:2665   */\n          tag_58\n            /* \"#utility.yul\":2663:2664   */\n          0x00\n            /* \"#utility.yul\":2656:2661   */\n          dup3\n            /* \"#utility.yul\":2626:2665   */\n          tag_19\n          jump\t// in\n        tag_58:\n            /* \"#utility.yul\":2599:2600   */\n          0x01\n            /* \"#utility.yul\":2592:2597   */\n          dup2\n            /* \"#utility.yul\":2588:2601   */\n          add\n            /* \"#utility.yul\":2579:2601   */\n          swap1\n          pop\n            /* \"#utility.yul\":2555:2675   */\n          jump(tag_55)\n        tag_57:\n            /* \"#utility.yul\":2495:2681   */\n          pop\n          pop\n          jump\t// out\n            /* \"#utility.yul\":2687:3230   */\n        tag_21:\n            /* \"#utility.yul\":2788:2790   */\n          0x1f\n            /* \"#utility.yul\":2783:2786   */\n          dup3\n            /* \"#utility.yul\":2780:2791   */\n          gt\n            /* \"#utility.yul\":2777:3223   */\n          iszero\n          tag_60\n          jumpi\n            /* \"#utility.yul\":2822:2860   */\n          tag_61\n            /* \"#utility.yul\":2854:2859   */\n          dup2\n            /* \"#utility.yul\":2822:2860   */\n          tag_9\n          jump\t// in\n        tag_61:\n            /* \"#utility.yul\":2906:2935   */\n          tag_62\n            /* \"#utility.yul\":2924:2934   */\n          dup5\n            /* \"#utility.yul\":2906:2935   */\n          tag_10\n          jump\t// in\n        tag_62:\n            /* \"#utility.yul\":2896:2904   */\n          dup2\n            /* \"#utility.yul\":2892:2936   */\n          add\n            /* \"#utility.yul\":3089:3091   */\n          0x20\n            /* \"#utility.yul\":3077:3087   */\n          dup6\n            /* \"#utility.yul\":3074:3092   */\n          lt\n            /* \"#utility.yul\":3071:3120   */\n          iszero\n          tag_63\n          jumpi\n            /* \"#utility.yul\":3110:3118   */\n          dup2\n            /* \"#utility.yul\":3095:3118   */\n          swap1\n          pop\n            /* \"#utility.yul\":3071:3120   */\n        tag_63:\n            /* \"#utility.yul\":3133:3213   */\n          tag_64\n            /* \"#utility.yul\":3189:3211   */\n          tag_65\n            /* \"#utility.yul\":3207:3210   */\n          dup6\n            /* \"#utility.yul\":3189:3211   */\n          tag_10\n          jump\t// in\n        tag_65:\n            /* \"#utility.yul\":3179:3187   */\n          dup4\n            /* \"#utility.yul\":3175:3212   */\n          add\n            /* \"#utility.yul\":3162:3173   */\n          dup3\n            /* \"#utility.yul\":3133:3213   */\n          tag_20\n          jump\t// in\n        tag_64:\n            /* \"#utility.yul\":2792:3223   */\n          pop\n          pop\n            /* \"#utility.yul\":2777:3223   */\n        tag_60:\n            /* \"#utility.yul\":2687:3230   */\n          pop\n          pop\n          pop\n          jump\t// out\n            /* \"#utility.yul\":3236:3353   */\n        tag_22:\n            /* \"#utility.yul\":3290:3298   */\n          0x00\n            /* \"#utility.yul\":3340:3345   */\n          dup3\n            /* \"#utility.yul\":3334:3338   */\n          dup3\n            /* \"#utility.yul\":3330:3346   */\n          shr\n            /* \"#utility.yul\":3309:3346   */\n          swap1\n          pop\n            /* \"#utility.yul\":3236:3353   */\n          swap3\n          swap2\n          pop\n          pop\n          jump\t// out\n            /* \"#utility.yul\":3359:3528   */\n        tag_23:\n            /* \"#utility.yul\":3403:3409   */\n          0x00\n            /* \"#utility.yul\":3436:3487   */\n          tag_68\n            /* \"#utility.yul\":3484:3485   */\n          0x00\n            /* \"#utility.yul\":3480:3486   */\n          not\n            /* \"#utility.yul\":3472:3477   */\n          dup5\n            /* \"#utility.yul\":3469:3470   */\n          0x08\n            /* \"#utility.yul\":3465:3478   */\n          mul\n            /* \"#utility.yul\":3436:3487   */\n          tag_22\n          jump\t// in\n        tag_68:\n            /* \"#utility.yul\":3432:3488   */\n          not\n            /* \"#utility.yul\":3517:3521   */\n          dup1\n            /* \"#utility.yul\":3511:3515   */\n          dup4\n            /* \"#utility.yul\":3507:3522   */\n          and\n            /* \"#utility.yul\":3497:3522   */\n          swap2\n          pop\n            /* \"#utility.yul\":3410:3528   */\n          pop\n            /* \"#utility.yul\":3359:3528   */\n          swap3\n          swap2\n          pop\n          pop\n          jump\t// out\n            /* \"#utility.yul\":3533:3828   */\n        tag_24:\n            /* \"#utility.yul\":3609:3613   */\n          0x00\n            /* \"#utility.yul\":3755:3784   */\n          tag_70\n            /* \"#utility.yul\":3780:3783   */\n          dup4\n            /* \"#utility.yul\":3774:3778   */\n          dup4\n            /* \"#utility.yul\":3755:3784   */\n          tag_23\n          jump\t// in\n        tag_70:\n            /* \"#utility.yul\":3747:3784   */\n          swap2\n          pop\n            /* \"#utility.yul\":3817:3820   */\n          dup3\n            /* \"#utility.yul\":3814:3815   */\n          0x02\n            /* \"#utility.yul\":3810:3821   */\n          mul\n            /* \"#utility.yul\":3804:3808   */\n          dup3\n            /* \"#utility.yul\":3801:3822   */\n          or\n            /* \"#utility.yul\":3793:3822   */\n          swap1\n          pop\n            /* \"#utility.yul\":3533:3828   */\n          swap3\n          swap2\n          pop\n          pop\n          jump\t// out\n            /* \"#utility.yul\":3833:5228   */\n        tag_2:\n            /* \"#utility.yul\":3950:3987   */\n          tag_72\n            /* \"#utility.yul\":3983:3986   */\n          dup3\n            /* \"#utility.yul\":3950:3987   */\n          tag_5\n          jump\t// in\n        tag_72:\n            /* \"#utility.yul\":4052:4070   */\n          0xffffffffffffffff\n            /* \"#utility.yul\":4044:4050   */\n          dup2\n            /* \"#utility.yul\":4041:4071   */\n          gt\n            /* \"#utility.yul\":4038:4094   */\n          iszero\n          tag_73\n          jumpi\n            /* \"#utility.yul\":4074:4092   */\n          tag_74\n          tag_6\n          jump\t// in\n        tag_74:\n            /* \"#utility.yul\":4038:4094   */\n        tag_73:\n            /* \"#utility.yul\":4118:4156   */\n          tag_75\n            /* \"#utility.yul\":4150:4154   */\n          dup3\n            /* \"#utility.yul\":4144:4155   */\n          sload\n            /* \"#utility.yul\":4118:4156   */\n          tag_8\n          jump\t// in\n        tag_75:\n            /* \"#utility.yul\":4203:4270   */\n          tag_76\n            /* \"#utility.yul\":4263:4269   */\n          dup3\n            /* \"#utility.yul\":4255:4261   */\n          dup3\n            /* \"#utility.yul\":4249:4253   */\n          dup6\n            /* \"#utility.yul\":4203:4270   */\n          tag_21\n          jump\t// in\n        tag_76:\n            /* \"#utility.yul\":4297:4298   */\n          0x00\n            /* \"#utility.yul\":4321:4325   */\n          0x20\n            /* \"#utility.yul\":4308:4325   */\n          swap1\n          pop\n            /* \"#utility.yul\":4353:4355   */\n          0x1f\n            /* \"#utility.yul\":4345:4351   */\n          dup4\n            /* \"#utility.yul\":4342:4356   */\n          gt\n            /* \"#utility.yul\":4370:4371   */\n          0x01\n            /* \"#utility.yul\":4365:4983   */\n          dup2\n          eq\n          tag_78\n          jumpi\n            /* \"#utility.yul\":5027:5028   */\n          0x00\n            /* \"#utility.yul\":5044:5050   */\n          dup5\n            /* \"#utility.yul\":5041:5118   */\n          iszero\n          tag_79\n          jumpi\n            /* \"#utility.yul\":5093:5102   */\n          dup3\n            /* \"#utility.yul\":5088:5091   */\n          dup8\n            /* \"#utility.yul\":5084:5103   */\n          add\n            /* \"#utility.yul\":5078:5104   */\n          mload\n            /* \"#utility.yul\":5069:5104   */\n          swap1\n          pop\n            /* \"#utility.yul\":5041:5118   */\n        tag_79:\n            /* \"#utility.yul\":5144:5211   */\n          tag_80\n            /* \"#utility.yul\":5204:5210   */\n          dup6\n            /* \"#utility.yul\":5197:5202   */\n          dup3\n            /* \"#utility.yul\":5144:5211   */\n          tag_24\n          jump\t// in\n        tag_80:\n            /* \"#utility.yul\":5138:5142   */\n          dup7\n            /* \"#utility.yul\":5131:5212   */\n          sstore\n            /* \"#utility.yul\":5000:5222   */\n          pop\n            /* \"#utility.yul\":4335:5222   */\n          jump(tag_77)\n            /* \"#utility.yul\":4365:4983   */\n        tag_78:\n            /* \"#utility.yul\":4417:4421   */\n          0x1f\n            /* \"#utility.yul\":4413:4422   */\n          not\n            /* \"#utility.yul\":4405:4411   */\n          dup5\n            /* \"#utility.yul\":4401:4423   */\n          and\n            /* \"#utility.yul\":4451:4488   */\n          tag_81\n            /* \"#utility.yul\":4483:4487   */\n          dup7\n            /* \"#utility.yul\":4451:4488   */\n          tag_9\n          jump\t// in\n        tag_81:\n            /* \"#utility.yul\":4510:4511   */\n          0x00\n            /* \"#utility.yul\":4524:4732   */\n        tag_82:\n            /* \"#utility.yul\":4538:4545   */\n          dup3\n            /* \"#utility.yul\":4535:4536   */\n          dup2\n            /* \"#utility.yul\":4532:4546   */\n          lt\n            /* \"#utility.yul\":4524:4732   */\n          iszero\n          tag_84\n          jumpi\n            /* \"#utility.yul\":4617:4626   */\n          dup5\n            /* \"#utility.yul\":4612:4615   */\n          dup10\n            /* \"#utility.yul\":4608:4627   */\n          add\n            /* \"#utility.yul\":4602:4628   */\n          mload\n            /* \"#utility.yul\":4594:4600   */\n          dup3\n            /* \"#utility.yul\":4587:4629   */\n          sstore\n            /* \"#utility.yul\":4668:4669   */\n          0x01\n            /* \"#utility.yul\":4660:4666   */\n          dup3\n            /* \"#utility.yul\":4656:4670   */\n          add\n            /* \"#utility.yul\":4646:4670   */\n          swap2\n          pop\n            /* \"#utility.yul\":4715:4717   */\n          0x20\n            /* \"#utility.yul\":4704:4713   */\n          dup6\n            /* \"#utility.yul\":4700:4718   */\n          add\n            /* \"#utility.yul\":4687:4718   */\n          swap5\n          pop\n            /* \"#utility.yul\":4561:4565   */\n          0x20\n            /* \"#utility.yul\":4558:4559   */\n          dup2\n            /* \"#utility.yul\":4554:4566   */\n          add\n            /* \"#utility.yul\":4549:4566   */\n          swap1\n          pop\n            /* \"#utility.yul\":4524:4732   */\n          jump(tag_82)\n        tag_84:\n            /* \"#utility.yul\":4760:4766   */\n          dup7\n            /* \"#utility.yul\":4751:4758   */\n          dup4\n            /* \"#utility.yul\":4748:4767   */\n          lt\n            /* \"#utility.yul\":4745:4924   */\n          iszero\n          tag_85\n          jumpi\n            /* \"#utility.yul\":4818:4827   */\n          dup5\n            /* \"#utility.yul\":4813:4816   */\n          dup10\n            /* \"#utility.yul\":4809:4828   */\n          add\n            /* \"#utility.yul\":4803:4829   */\n          mload\n            /* \"#utility.yul\":4861:4909   */\n          tag_86\n            /* \"#utility.yul\":4903:4907   */\n          0x1f\n            /* \"#utility.yul\":4895:4901   */\n          dup10\n            /* \"#utility.yul\":4891:4908   */\n          and\n            /* \"#utility.yul\":4880:4889   */\n          dup3\n            /* \"#utility.yul\":4861:4909   */\n          tag_23\n          jump\t// in\n        tag_86:\n            /* \"#utility.yul\":4853:4859   */\n          dup4\n            /* \"#utility.yul\":4846:4910   */\n          sstore\n            /* \"#utility.yul\":4768:4924   */\n          pop\n            /* \"#utility.yul\":4745:4924   */\n        tag_85:\n            /* \"#utility.yul\":4970:4971   */\n          0x01\n            /* \"#utility.yul\":4966:4967   */\n          0x02\n            /* \"#utility.yul\":4958:4964   */\n          dup9\n            /* \"#utility.yul\":4954:4968   */\n          mul\n            /* \"#utility.yul\":4950:4972   */\n          add\n            /* \"#utility.yul\":4944:4948   */\n          dup9\n            /* \"#utility.yul\":4937:4973   */\n          sstore\n            /* \"#utility.yul\":4372:4983   */\n          pop\n          pop\n          pop\n            /* \"#utility.yul\":4335:5222   */\n        tag_77:\n          pop\n            /* \"#utility.yul\":3925:5228   */\n          pop\n          pop\n          pop\n            /* \"#utility.yul\":3833:5228   */\n          pop\n          pop\n          jump\t// out\n            /* \"NextFundMe/newfundme.sol\":213:5087  contract HelloWorld{... */\n        tag_4:\n          dataSize(sub_0)\n          dup1\n          dataOffset(sub_0)\n          0x00\n          codecopy\n          0x00\n          return\n        stop\n\n        sub_0: assembly {\n                /* \"NextFundMe/newfundme.sol\":213:5087  contract HelloWorld{... */\n              mstore(0x40, 0x80)\n              callvalue\n              dup1\n              iszero\n              tag_1\n              jumpi\n              revert(0x00, 0x00)\n            tag_1:\n              pop\n              jumpi(tag_2, lt(calldatasize, 0x04))\n              shr(0xe0, calldataload(0x00))\n              dup1\n              0x9b04d01a\n              gt\n              tag_10\n              jumpi\n              dup1\n              0x9b04d01a\n              eq\n              tag_6\n              jumpi\n              dup1\n              0xaef0fcf4\n              eq\n              tag_7\n              jumpi\n              dup1\n              0xc7fe7454\n              eq\n              tag_8\n              jumpi\n              dup1\n              0xef5fb05b\n              eq\n              tag_9\n              jumpi\n              jump(tag_2)\n            tag_10:\n              dup1\n              0x096b696f\n              eq\n              tag_3\n              jumpi\n              dup1\n              0x1d095162\n              eq\n              tag_4\n              jumpi\n              dup1\n              0x4cc9f11a\n              eq\n              tag_5\n              jumpi\n            tag_2:\n              revert(0x00, 0x00)\n                /* \"NextFundMe/newfundme.sol\":4518:4688  function SetInfoMapping(uint256 inid,string memory instring) public {... */\n            tag_3:\n              tag_11\n              0x04\n              dup1\n              calldatasize\n              sub\n              dup2\n              add\n              swap1\n              tag_12\n              swap2\n              swap1\n              tag_13\n              jump\t// in\n            tag_12:\n              tag_14\n              jump\t// in\n            tag_11:\n              stop\n                /* \"NextFundMe/newfundme.sol\":1507:1617  function sayHelloAddinfo()public view returns(string memory SayHello){... */\n            tag_4:\n              tag_15\n              tag_16\n              jump\t// in\n            tag_15:\n              mload(0x40)\n              tag_17\n              swap2\n              swap1\n              tag_18\n              jump\t// in\n            tag_17:\n              mload(0x40)\n              dup1\n              swap2\n              sub\n              swap1\n              return\n                /* \"NextFundMe/newfundme.sol\":3518:3897  function SetInfoStruct(uint256 inid,string memory instring) public {... */\n            tag_5:\n              tag_19\n              0x04\n              dup1\n              calldatasize\n              sub\n              dup2\n              add\n              swap1\n              tag_20\n              swap2\n              swap1\n              tag_13\n              jump\t// in\n            tag_20:\n              tag_21\n              jump\t// in\n            tag_19:\n              stop\n                /* \"NextFundMe/newfundme.sol\":3903:4236  function GetInfoStruct(uint256 inid)public view returns (string memory ){... */\n            tag_6:\n              tag_22\n              0x04\n              dup1\n              calldatasize\n              sub\n              dup2\n              add\n              swap1\n              tag_23\n              swap2\n              swap1\n              tag_24\n              jump\t// in\n            tag_23:\n              tag_25\n              jump\t// in\n            tag_22:\n              mload(0x40)\n              tag_26\n              swap2\n              swap1\n              tag_18\n              jump\t// in\n            tag_26:\n              mload(0x40)\n              dup1\n              swap2\n              sub\n              swap1\n              return\n                /* \"NextFundMe/newfundme.sol\":4693:5085  function GetInfoMapping(uint256 inid) public view returns (string memory rtstring){... */\n            tag_7:\n              tag_27\n              0x04\n              dup1\n              calldatasize\n              sub\n              dup2\n              add\n              swap1\n              tag_28\n              swap2\n              swap1\n              tag_24\n              jump\t// in\n            tag_28:\n              tag_29\n              jump\t// in\n            tag_27:\n              mload(0x40)\n              tag_30\n              swap2\n              swap1\n              tag_18\n              jump\t// in\n            tag_30:\n              mload(0x40)\n              dup1\n              swap2\n              sub\n              swap1\n              return\n                /* \"NextFundMe/newfundme.sol\":1232:1328  function ResetHelloWorld (string memory ResetString) public{... */\n            tag_8:\n              tag_31\n              0x04\n              dup1\n              calldatasize\n              sub\n              dup2\n              add\n              swap1\n              tag_32\n              swap2\n              swap1\n              tag_33\n              jump\t// in\n            tag_32:\n              tag_34\n              jump\t// in\n            tag_31:\n              stop\n                /* \"NextFundMe/newfundme.sol\":924:1184  function sayHello () public view returns(string memory ReturnBytes){... */\n            tag_9:\n              tag_35\n              tag_36\n              jump\t// in\n            tag_35:\n              mload(0x40)\n              tag_37\n              swap2\n              swap1\n              tag_18\n              jump\t// in\n            tag_37:\n              mload(0x40)\n              dup1\n              swap2\n              sub\n              swap1\n              return\n                /* \"NextFundMe/newfundme.sol\":4518:4688  function SetInfoMapping(uint256 inid,string memory instring) public {... */\n            tag_14:\n                /* \"NextFundMe/newfundme.sol\":4596:4615  Info memory oneinfo */\n              0x00\n                /* \"NextFundMe/newfundme.sol\":4616:4646  Info(inid,instring,msg.sender) */\n              mload(0x40)\n              dup1\n              0x60\n              add\n              0x40\n              mstore\n              dup1\n                /* \"NextFundMe/newfundme.sol\":4621:4625  inid */\n              dup5\n                /* \"NextFundMe/newfundme.sol\":4616:4646  Info(inid,instring,msg.sender) */\n              dup2\n              mstore\n              0x20\n              add\n                /* \"NextFundMe/newfundme.sol\":4626:4634  instring */\n              dup4\n                /* \"NextFundMe/newfundme.sol\":4616:4646  Info(inid,instring,msg.sender) */\n              dup2\n              mstore\n              0x20\n              add\n                /* \"NextFundMe/newfundme.sol\":4635:4645  msg.sender */\n              caller\n                /* \"NextFundMe/newfundme.sol\":4616:4646  Info(inid,instring,msg.sender) */\n              0xffffffffffffffffffffffffffffffffffffffff\n              and\n              dup2\n              mstore\n              pop\n                /* \"NextFundMe/newfundme.sol\":4596:4646  Info memory oneinfo=Info(inid,instring,msg.sender) */\n              swap1\n              pop\n                /* \"NextFundMe/newfundme.sol\":4674:4681  oneinfo */\n              dup1\n                /* \"NextFundMe/newfundme.sol\":4656:4667  infoMapping */\n              0x07\n                /* \"NextFundMe/newfundme.sol\":4656:4673  infoMapping[inid] */\n              0x00\n                /* \"NextFundMe/newfundme.sol\":4668:4672  inid */\n              dup6\n                /* \"NextFundMe/newfundme.sol\":4656:4673  infoMapping[inid] */\n              dup2\n              mstore\n              0x20\n              add\n              swap1\n              dup2\n              mstore\n              0x20\n              add\n              0x00\n              keccak256\n                /* \"NextFundMe/newfundme.sol\":4656:4681  infoMapping[inid]=oneinfo */\n              0x00\n              dup3\n              add\n              mload\n              dup2\n              0x00\n              add\n              sstore\n              0x20\n              dup3\n              add\n              mload\n              dup2\n              0x01\n              add\n              swap1\n              dup2\n              tag_39\n              swap2\n              swap1\n              tag_40\n              jump\t// in\n            tag_39:\n              pop\n              0x40\n              dup3\n              add\n              mload\n              dup2\n              0x02\n              add\n              exp(0x0100, 0x00)\n              dup2\n              sload\n              dup2\n              0xffffffffffffffffffffffffffffffffffffffff\n              mul\n              not\n              and\n              swap1\n              dup4\n              0xffffffffffffffffffffffffffffffffffffffff\n              and\n              mul\n              or\n              swap1\n              sstore\n              pop\n              swap1\n              pop\n              pop\n                /* \"NextFundMe/newfundme.sol\":4586:4688  {... */\n              pop\n                /* \"NextFundMe/newfundme.sol\":4518:4688  function SetInfoMapping(uint256 inid,string memory instring) public {... */\n              pop\n              pop\n              jump\t// out\n                /* \"NextFundMe/newfundme.sol\":1507:1617  function sayHelloAddinfo()public view returns(string memory SayHello){... */\n            tag_16:\n                /* \"NextFundMe/newfundme.sol\":1553:1575  string memory SayHello */\n              0x60\n                /* \"NextFundMe/newfundme.sol\":1593:1610  Addinfo(Strbytes) */\n              tag_42\n                /* \"NextFundMe/newfundme.sol\":1601:1609  Strbytes */\n              0x04\n                /* \"NextFundMe/newfundme.sol\":1593:1610  Addinfo(Strbytes) */\n              dup1\n              sload\n              tag_43\n              swap1\n              tag_44\n              jump\t// in\n            tag_43:\n              dup1\n              0x1f\n              add\n              0x20\n              dup1\n              swap2\n              div\n              mul\n              0x20\n              add\n              mload(0x40)\n              swap1\n              dup2\n              add\n              0x40\n              mstore\n              dup1\n              swap3\n              swap2\n              swap1\n              dup2\n              dup2\n              mstore\n              0x20\n              add\n              dup3\n              dup1\n              sload\n              tag_45\n              swap1\n              tag_44\n              jump\t// in\n            tag_45:\n              dup1\n              iszero\n              tag_46\n              jumpi\n              dup1\n              0x1f\n              lt\n              tag_47\n              jumpi\n              0x0100\n              dup1\n              dup4\n              sload\n              div\n              mul\n              dup4\n              mstore\n              swap2\n              0x20\n              add\n              swap2\n              jump(tag_46)\n            tag_47:\n              dup3\n              add\n              swap2\n              swap1\n              0x00\n              mstore\n              keccak256(0x00, 0x20)\n              swap1\n            tag_48:\n              dup2\n              sload\n              dup2\n              mstore\n              swap1\n              0x01\n              add\n              swap1\n              0x20\n              add\n              dup1\n              dup4\n              gt\n              tag_48\n              jumpi\n              dup3\n              swap1\n              sub\n              0x1f\n              and\n              dup3\n              add\n              swap2\n            tag_46:\n              pop\n              pop\n              pop\n              pop\n              pop\n                /* \"NextFundMe/newfundme.sol\":1593:1600  Addinfo */\n              tag_49\n                /* \"NextFundMe/newfundme.sol\":1593:1610  Addinfo(Strbytes) */\n              jump\t// in\n            tag_42:\n                /* \"NextFundMe/newfundme.sol\":1586:1610  return Addinfo(Strbytes) */\n              swap1\n              pop\n                /* \"NextFundMe/newfundme.sol\":1507:1617  function sayHelloAddinfo()public view returns(string memory SayHello){... */\n              swap1\n              jump\t// out\n                /* \"NextFundMe/newfundme.sol\":3518:3897  function SetInfoStruct(uint256 inid,string memory instring) public {... */\n            tag_21:\n                /* \"NextFundMe/newfundme.sol\":3595:3614  Info memory oneinfo */\n              0x00\n                /* \"NextFundMe/newfundme.sol\":3615:3645  Info(inid,instring,msg.sender) */\n              mload(0x40)\n              dup1\n              0x60\n              add\n              0x40\n              mstore\n              dup1\n                /* \"NextFundMe/newfundme.sol\":3620:3624  inid */\n              dup5\n                /* \"NextFundMe/newfundme.sol\":3615:3645  Info(inid,instring,msg.sender) */\n              dup2\n              mstore\n              0x20\n              add\n                /* \"NextFundMe/newfundme.sol\":3625:3633  instring */\n              dup4\n                /* \"NextFundMe/newfundme.sol\":3615:3645  Info(inid,instring,msg.sender) */\n              dup2\n              mstore\n              0x20\n              add\n                /* \"NextFundMe/newfundme.sol\":3634:3644  msg.sender */\n              caller\n                /* \"NextFundMe/newfundme.sol\":3615:3645  Info(inid,instring,msg.sender) */\n              0xffffffffffffffffffffffffffffffffffffffff\n              and\n              dup2\n              mstore\n              pop\n                /* \"NextFundMe/newfundme.sol\":3595:3645  Info memory oneinfo=Info(inid,instring,msg.sender) */\n              swap1\n              pop\n                /* \"NextFundMe/newfundme.sol\":3871:3876  Infos */\n              0x06\n                /* \"NextFundMe/newfundme.sol\":3882:3889  oneinfo */\n              dup2\n                /* \"NextFundMe/newfundme.sol\":3871:3890  Infos.push(oneinfo) */\n              swap1\n              dup1\n              0x01\n              dup2\n              sload\n              add\n              dup1\n              dup3\n              sstore\n              dup1\n              swap2\n              pop\n              pop\n              0x01\n              swap1\n              sub\n              swap1\n              0x00\n              mstore\n              keccak256(0x00, 0x20)\n              swap1\n              0x03\n              mul\n              add\n              0x00\n              swap1\n              swap2\n              swap1\n              swap2\n              swap1\n              swap2\n              pop\n              0x00\n              dup3\n              add\n              mload\n              dup2\n              0x00\n              add\n              sstore\n              0x20\n              dup3\n              add\n              mload\n              dup2\n              0x01\n              add\n              swap1\n              dup2\n              tag_52\n              swap2\n              swap1\n              tag_40\n              jump\t// in\n            tag_52:\n              pop\n              0x40\n              dup3\n              add\n              mload\n              dup2\n              0x02\n              add\n              exp(0x0100, 0x00)\n              dup2\n              sload\n              dup2\n              0xffffffffffffffffffffffffffffffffffffffff\n              mul\n              not\n              and\n              swap1\n              dup4\n              0xffffffffffffffffffffffffffffffffffffffff\n              and\n              mul\n              or\n              swap1\n              sstore\n              pop\n              pop\n              pop\n                /* \"NextFundMe/newfundme.sol\":3585:3897  {... */\n              pop\n                /* \"NextFundMe/newfundme.sol\":3518:3897  function SetInfoStruct(uint256 inid,string memory instring) public {... */\n              pop\n              pop\n              jump\t// out\n                /* \"NextFundMe/newfundme.sol\":3903:4236  function GetInfoStruct(uint256 inid)public view returns (string memory ){... */\n            tag_25:\n                /* \"NextFundMe/newfundme.sol\":3960:3973  string memory */\n              0x60\n                /* \"NextFundMe/newfundme.sol\":3990:3999  uint256 i */\n              0x00\n                /* \"NextFundMe/newfundme.sol\":4000:4001  0 */\n              0x00\n                /* \"NextFundMe/newfundme.sol\":3990:4001  uint256 i=0 */\n              swap1\n              pop\n                /* \"NextFundMe/newfundme.sol\":3985:4196  for (uint256 i=0;i<Infos.length;i++){... */\n            tag_54:\n                /* \"NextFundMe/newfundme.sol\":4004:4009  Infos */\n              0x06\n                /* \"NextFundMe/newfundme.sol\":4004:4016  Infos.length */\n              dup1\n              sload\n              swap1\n              pop\n                /* \"NextFundMe/newfundme.sol\":4002:4003  i */\n              dup2\n                /* \"NextFundMe/newfundme.sol\":4002:4016  i<Infos.length */\n              lt\n                /* \"NextFundMe/newfundme.sol\":3985:4196  for (uint256 i=0;i<Infos.length;i++){... */\n              iszero\n              tag_55\n              jumpi\n                /* \"NextFundMe/newfundme.sol\":4052:4056  inid */\n              dup3\n                /* \"NextFundMe/newfundme.sol\":4039:4044  Infos */\n              0x06\n                /* \"NextFundMe/newfundme.sol\":4045:4046  i */\n              dup3\n                /* \"NextFundMe/newfundme.sol\":4039:4047  Infos[i] */\n              dup2\n              sload\n              dup2\n              lt\n              tag_57\n              jumpi\n              tag_58\n              tag_59\n              jump\t// in\n            tag_58:\n            tag_57:\n              swap1\n              0x00\n              mstore\n              keccak256(0x00, 0x20)\n              swap1\n              0x03\n              mul\n              add\n                /* \"NextFundMe/newfundme.sol\":4039:4050  Infos[i].id */\n              0x00\n              add\n              sload\n                /* \"NextFundMe/newfundme.sol\":4039:4056  Infos[i].id==inid */\n              sub\n                /* \"NextFundMe/newfundme.sol\":4035:4186  if (Infos[i].id==inid){... */\n              tag_61\n              jumpi\n                /* \"NextFundMe/newfundme.sol\":4147:4171  Addinfo(Infos[i].phrase) */\n              tag_62\n                /* \"NextFundMe/newfundme.sol\":4155:4160  Infos */\n              0x06\n                /* \"NextFundMe/newfundme.sol\":4161:4162  i */\n              dup3\n                /* \"NextFundMe/newfundme.sol\":4155:4163  Infos[i] */\n              dup2\n              sload\n              dup2\n              lt\n              tag_63\n              jumpi\n              tag_64\n              tag_59\n              jump\t// in\n            tag_64:\n            tag_63:\n              swap1\n              0x00\n              mstore\n              keccak256(0x00, 0x20)\n              swap1\n              0x03\n              mul\n              add\n                /* \"NextFundMe/newfundme.sol\":4155:4170  Infos[i].phrase */\n              0x01\n              add\n                /* \"NextFundMe/newfundme.sol\":4147:4171  Addinfo(Infos[i].phrase) */\n              dup1\n              sload\n              tag_66\n              swap1\n              tag_44\n              jump\t// in\n            tag_66:\n              dup1\n              0x1f\n              add\n              0x20\n              dup1\n              swap2\n              div\n              mul\n              0x20\n              add\n              mload(0x40)\n              swap1\n              dup2\n              add\n              0x40\n              mstore\n              dup1\n              swap3\n              swap2\n              swap1\n              dup2\n              dup2\n              mstore\n              0x20\n              add\n              dup3\n              dup1\n              sload\n              tag_67\n              swap1\n              tag_44\n              jump\t// in\n            tag_67:\n              dup1\n              iszero\n              tag_68\n              jumpi\n              dup1\n              0x1f\n              lt\n              tag_69\n              jumpi\n              0x0100\n              dup1\n              dup4\n              sload\n              div\n              mul\n              dup4\n              mstore\n              swap2\n              0x20\n              add\n              swap2\n              jump(tag_68)\n            tag_69:\n              dup3\n              add\n              swap2\n              swap1\n              0x00\n              mstore\n              keccak256(0x00, 0x20)\n              swap1\n            tag_70:\n              dup2\n              sload\n              dup2\n              mstore\n              swap1\n              0x01\n              add\n              swap1\n              0x20\n              add\n              dup1\n              dup4\n              gt\n              tag_70\n              jumpi\n              dup3\n              swap1\n              sub\n              0x1f\n              and\n              dup3\n              add\n              swap2\n            tag_68:\n              pop\n              pop\n              pop\n              pop\n              pop\n                /* \"NextFundMe/newfundme.sol\":4147:4154  Addinfo */\n              tag_49\n                /* \"NextFundMe/newfundme.sol\":4147:4171  Addinfo(Infos[i].phrase) */\n              jump\t// in\n            tag_62:\n                /* \"NextFundMe/newfundme.sol\":4140:4171  return Addinfo(Infos[i].phrase) */\n              swap2\n              pop\n              pop\n              jump(tag_53)\n                /* \"NextFundMe/newfundme.sol\":4035:4186  if (Infos[i].id==inid){... */\n            tag_61:\n                /* \"NextFundMe/newfundme.sol\":4017:4020  i++ */\n              dup1\n              dup1\n              0x01\n              add\n              swap2\n              pop\n              pop\n                /* \"NextFundMe/newfundme.sol\":3985:4196  for (uint256 i=0;i<Infos.length;i++){... */\n              jump(tag_54)\n            tag_55:\n              pop\n                /* \"NextFundMe/newfundme.sol\":4212:4229  Addinfo(Strbytes) */\n              tag_71\n                /* \"NextFundMe/newfundme.sol\":4220:4228  Strbytes */\n              0x04\n                /* \"NextFundMe/newfundme.sol\":4212:4229  Addinfo(Strbytes) */\n              dup1\n              sload\n              tag_72\n              swap1\n              tag_44\n              jump\t// in\n            tag_72:\n              dup1\n              0x1f\n              add\n              0x20\n              dup1\n              swap2\n              div\n              mul\n              0x20\n              add\n              mload(0x40)\n              swap1\n              dup2\n              add\n              0x40\n              mstore\n              dup1\n              swap3\n              swap2\n              swap1\n              dup2\n              dup2\n              mstore\n              0x20\n              add\n              dup3\n              dup1\n              sload\n              tag_73\n              swap1\n              tag_44\n              jump\t// in\n            tag_73:\n              dup1\n              iszero\n              tag_74\n              jumpi\n              dup1\n              0x1f\n              lt\n              tag_75\n              jumpi\n              0x0100\n              dup1\n              dup4\n              sload\n              div\n              mul\n              dup4\n              mstore\n              swap2\n              0x20\n              add\n              swap2\n              jump(tag_74)\n            tag_75:\n              dup3\n              add\n              swap2\n              swap1\n              0x00\n              mstore\n              keccak256(0x00, 0x20)\n              swap1\n            tag_76:\n              dup2\n              sload\n              dup2\n              mstore\n              swap1\n              0x01\n              add\n              swap1\n              0x20\n              add\n              dup1\n              dup4\n              gt\n              tag_76\n              jumpi\n              dup3\n              swap1\n              sub\n              0x1f\n              and\n              dup3\n              add\n              swap2\n            tag_74:\n              pop\n              pop\n              pop\n              pop\n              pop\n                /* \"NextFundMe/newfundme.sol\":4212:4219  Addinfo */\n              tag_49\n                /* \"NextFundMe/newfundme.sol\":4212:4229  Addinfo(Strbytes) */\n              jump\t// in\n            tag_71:\n                /* \"NextFundMe/newfundme.sol\":4205:4229  return Addinfo(Strbytes) */\n              swap1\n              pop\n                /* \"NextFundMe/newfundme.sol\":3903:4236  function GetInfoStruct(uint256 inid)public view returns (string memory ){... */\n            tag_53:\n              swap2\n              swap1\n              pop\n              jump\t// out\n                /* \"NextFundMe/newfundme.sol\":4693:5085  function GetInfoMapping(uint256 inid) public view returns (string memory rtstring){... */\n            tag_29:\n                /* \"NextFundMe/newfundme.sol\":4752:4774  string memory rtstring */\n              0x60\n                /* \"NextFundMe/newfundme.sol\":4955:4958  0x0 */\n              0x00\n                /* \"NextFundMe/newfundme.sol\":4923:4959  infoMapping[inid].addr==address(0x0) */\n              0xffffffffffffffffffffffffffffffffffffffff\n              and\n                /* \"NextFundMe/newfundme.sol\":4923:4934  infoMapping */\n              0x07\n                /* \"NextFundMe/newfundme.sol\":4923:4940  infoMapping[inid] */\n              0x00\n                /* \"NextFundMe/newfundme.sol\":4935:4939  inid */\n              dup5\n                /* \"NextFundMe/newfundme.sol\":4923:4940  infoMapping[inid] */\n              dup2\n              mstore\n              0x20\n              add\n              swap1\n              dup2\n              mstore\n              0x20\n              add\n              0x00\n              keccak256\n                /* \"NextFundMe/newfundme.sol\":4923:4945  infoMapping[inid].addr */\n              0x02\n              add\n              0x00\n              swap1\n              sload\n              swap1\n              0x0100\n              exp\n              swap1\n              div\n              0xffffffffffffffffffffffffffffffffffffffff\n              and\n                /* \"NextFundMe/newfundme.sol\":4923:4959  infoMapping[inid].addr==address(0x0) */\n              0xffffffffffffffffffffffffffffffffffffffff\n              and\n              sub\n                /* \"NextFundMe/newfundme.sol\":4919:5079  if (infoMapping[inid].addr==address(0x0)){... */\n              tag_78\n              jumpi\n                /* \"NextFundMe/newfundme.sol\":4981:4998  Addinfo(Strbytes) */\n              tag_79\n                /* \"NextFundMe/newfundme.sol\":4989:4997  Strbytes */\n              0x04\n                /* \"NextFundMe/newfundme.sol\":4981:4998  Addinfo(Strbytes) */\n              dup1\n              sload\n              tag_80\n              swap1\n              tag_44\n              jump\t// in\n            tag_80:\n              dup1\n              0x1f\n              add\n              0x20\n              dup1\n              swap2\n              div\n              mul\n              0x20\n              add\n              mload(0x40)\n              swap1\n              dup2\n              add\n              0x40\n              mstore\n              dup1\n              swap3\n              swap2\n              swap1\n              dup2\n              dup2\n              mstore\n              0x20\n              add\n              dup3\n              dup1\n              sload\n              tag_81\n              swap1\n              tag_44\n              jump\t// in\n            tag_81:\n              dup1\n              iszero\n              tag_82\n              jumpi\n              dup1\n              0x1f\n              lt\n              tag_83\n              jumpi\n              0x0100\n              dup1\n              dup4\n              sload\n              div\n              mul\n              dup4\n              mstore\n              swap2\n              0x20\n              add\n              swap2\n              jump(tag_82)\n            tag_83:\n              dup3\n              add\n              swap2\n              swap1\n              0x00\n              mstore\n              keccak256(0x00, 0x20)\n              swap1\n            tag_84:\n              dup2\n              sload\n              dup2\n              mstore\n              swap1\n              0x01\n              add\n              swap1\n              0x20\n              add\n              dup1\n              dup4\n              gt\n              tag_84\n              jumpi\n              dup3\n              swap1\n              sub\n              0x1f\n              and\n              dup3\n              add\n              swap2\n            tag_82:\n              pop\n              pop\n              pop\n              pop\n              pop\n                /* \"NextFundMe/newfundme.sol\":4981:4988  Addinfo */\n              tag_49\n                /* \"NextFundMe/newfundme.sol\":4981:4998  Addinfo(Strbytes) */\n              jump\t// in\n            tag_79:\n                /* \"NextFundMe/newfundme.sol\":4974:4998  return Addinfo(Strbytes) */\n              swap1\n              pop\n              jump(tag_77)\n                /* \"NextFundMe/newfundme.sol\":4919:5079  if (infoMapping[inid].addr==address(0x0)){... */\n            tag_78:\n                /* \"NextFundMe/newfundme.sol\":5035:5068  Addinfo(infoMapping[inid].phrase) */\n              tag_86\n                /* \"NextFundMe/newfundme.sol\":5043:5054  infoMapping */\n              0x07\n                /* \"NextFundMe/newfundme.sol\":5043:5060  infoMapping[inid] */\n              0x00\n                /* \"NextFundMe/newfundme.sol\":5055:5059  inid */\n              dup5\n                /* \"NextFundMe/newfundme.sol\":5043:5060  infoMapping[inid] */\n              dup2\n              mstore\n              0x20\n              add\n              swap1\n              dup2\n              mstore\n              0x20\n              add\n              0x00\n              keccak256\n                /* \"NextFundMe/newfundme.sol\":5043:5067  infoMapping[inid].phrase */\n              0x01\n              add\n                /* \"NextFundMe/newfundme.sol\":5035:5068  Addinfo(infoMapping[inid].phrase) */\n              dup1\n              sload\n              tag_87\n              swap1\n              tag_44\n              jump\t// in\n            tag_87:\n              dup1\n              0x1f\n              add\n              0x20\n              dup1\n              swap2\n              div\n              mul\n              0x20\n              add\n              mload(0x40)\n              swap1\n              dup2\n              add\n              0x40\n              mstore\n              dup1\n              swap3\n              swap2\n              swap1\n              dup2\n              dup2\n              mstore\n              0x20\n              add\n              dup3\n              dup1\n              sload\n              tag_88\n              swap1\n              tag_44\n              jump\t// in\n            tag_88:\n              dup1\n              iszero\n              tag_89\n              jumpi\n              dup1\n              0x1f\n              lt\n              tag_90\n              jumpi\n              0x0100\n              dup1\n              dup4\n              sload\n              div\n              mul\n              dup4\n              mstore\n              swap2\n              0x20\n              add\n              swap2\n              jump(tag_89)\n            tag_90:\n              dup3\n              add\n              swap2\n              swap1\n              0x00\n              mstore\n              keccak256(0x00, 0x20)\n              swap1\n            tag_91:\n              dup2\n              sload\n              dup2\n              mstore\n              swap1\n              0x01\n              add\n              swap1\n              0x20\n              add\n              dup1\n              dup4\n              gt\n              tag_91\n              jumpi\n              dup3\n              swap1\n              sub\n              0x1f\n              and\n              dup3\n              add\n              swap2\n            tag_89:\n              pop\n              pop\n              pop\n              pop\n              pop\n                /* \"NextFundMe/newfundme.sol\":5035:5042  Addinfo */\n              tag_49\n                /* \"NextFundMe/newfundme.sol\":5035:5068  Addinfo(infoMapping[inid].phrase) */\n              jump\t// in\n            tag_86:\n                /* \"NextFundMe/newfundme.sol\":5028:5068  return Addinfo(infoMapping[inid].phrase) */\n              swap1\n              pop\n                /* \"NextFundMe/newfundme.sol\":4693:5085  function GetInfoMapping(uint256 inid) public view returns (string memory rtstring){... */\n            tag_77:\n              swap2\n              swap1\n              pop\n              jump\t// out\n                /* \"NextFundMe/newfundme.sol\":1232:1328  function ResetHelloWorld (string memory ResetString) public{... */\n            tag_34:\n                /* \"NextFundMe/newfundme.sol\":1310:1321  ResetString */\n              dup1\n                /* \"NextFundMe/newfundme.sol\":1301:1309  Strbytes */\n              0x04\n                /* \"NextFundMe/newfundme.sol\":1301:1321  Strbytes=ResetString */\n              swap1\n              dup2\n              tag_93\n              swap2\n              swap1\n              tag_40\n              jump\t// in\n            tag_93:\n              pop\n                /* \"NextFundMe/newfundme.sol\":1232:1328  function ResetHelloWorld (string memory ResetString) public{... */\n              pop\n              jump\t// out\n                /* \"NextFundMe/newfundme.sol\":924:1184  function sayHello () public view returns(string memory ReturnBytes){... */\n            tag_36:\n                /* \"NextFundMe/newfundme.sol\":965:990  string memory ReturnBytes */\n              0x60\n                /* \"NextFundMe/newfundme.sol\":1168:1176  Strbytes */\n              0x04\n                /* \"NextFundMe/newfundme.sol\":1161:1176  return Strbytes */\n              dup1\n              sload\n              tag_95\n              swap1\n              tag_44\n              jump\t// in\n            tag_95:\n              dup1\n              0x1f\n              add\n              0x20\n              dup1\n              swap2\n              div\n              mul\n              0x20\n              add\n              mload(0x40)\n              swap1\n              dup2\n              add\n              0x40\n              mstore\n              dup1\n              swap3\n              swap2\n              swap1\n              dup2\n              dup2\n              mstore\n              0x20\n              add\n              dup3\n              dup1\n              sload\n              tag_96\n              swap1\n              tag_44\n              jump\t// in\n            tag_96:\n              dup1\n              iszero\n              tag_97\n              jumpi\n              dup1\n              0x1f\n              lt\n              tag_98\n              jumpi\n              0x0100\n              dup1\n              dup4\n              sload\n              div\n              mul\n              dup4\n              mstore\n              swap2\n              0x20\n              add\n              swap2\n              jump(tag_97)\n            tag_98:\n              dup3\n              add\n              swap2\n              swap1\n              0x00\n              mstore\n              keccak256(0x00, 0x20)\n              swap1\n            tag_99:\n              dup2\n              sload\n              dup2\n              mstore\n              swap1\n              0x01\n              add\n              swap1\n              0x20\n              add\n              dup1\n              dup4\n              gt\n              tag_99\n              jumpi\n              dup3\n              swap1\n              sub\n              0x1f\n              and\n              dup3\n              add\n              swap2\n            tag_97:\n              pop\n              pop\n              pop\n              pop\n              pop\n              swap1\n              pop\n                /* \"NextFundMe/newfundme.sol\":924:1184  function sayHello () public view returns(string memory ReturnBytes){... */\n              swap1\n              jump\t// out\n                /* \"NextFundMe/newfundme.sol\":1334:1501  function Addinfo(string memory OrigionString) internal pure returns(string memory AddinfoStr){... */\n            tag_49:\n                /* \"NextFundMe/newfundme.sol\":1402:1426  string memory AddinfoStr */\n              0x60\n                /* \"NextFundMe/newfundme.sol\":1458:1471  OrigionString */\n              dup2\n                /* \"NextFundMe/newfundme.sol\":1444:1494  string.concat(OrigionString,\"From Ddy's Contract\") */\n              add(0x20, mload(0x40))\n              tag_101\n              swap2\n              swap1\n              tag_102\n              jump\t// in\n            tag_101:\n              mload(0x40)\n              0x20\n              dup2\n              dup4\n              sub\n              sub\n              dup2\n              mstore\n              swap1\n              0x40\n              mstore\n                /* \"NextFundMe/newfundme.sol\":1437:1494  return string.concat(OrigionString,\"From Ddy's Contract\") */\n              swap1\n              pop\n                /* \"NextFundMe/newfundme.sol\":1334:1501  function Addinfo(string memory OrigionString) internal pure returns(string memory AddinfoStr){... */\n              swap2\n              swap1\n              pop\n              jump\t// out\n                /* \"#utility.yul\":7:82   */\n            tag_103:\n                /* \"#utility.yul\":40:46   */\n              0x00\n                /* \"#utility.yul\":73:75   */\n              0x40\n                /* \"#utility.yul\":67:76   */\n              mload\n                /* \"#utility.yul\":57:76   */\n              swap1\n              pop\n                /* \"#utility.yul\":7:82   */\n              swap1\n              jump\t// out\n                /* \"#utility.yul\":88:205   */\n            tag_104:\n                /* \"#utility.yul\":197:198   */\n              0x00\n                /* \"#utility.yul\":194:195   */\n              0x00\n                /* \"#utility.yul\":187:199   */\n              revert\n                /* \"#utility.yul\":211:328   */\n            tag_105:\n                /* \"#utility.yul\":320:321   */\n              0x00\n                /* \"#utility.yul\":317:318   */\n              0x00\n                /* \"#utility.yul\":310:322   */\n              revert\n                /* \"#utility.yul\":334:411   */\n            tag_106:\n                /* \"#utility.yul\":371:378   */\n              0x00\n                /* \"#utility.yul\":400:405   */\n              dup2\n                /* \"#utility.yul\":389:405   */\n              swap1\n              pop\n                /* \"#utility.yul\":334:411   */\n              swap2\n              swap1\n              pop\n              jump\t// out\n                /* \"#utility.yul\":417:539   */\n            tag_107:\n                /* \"#utility.yul\":490:514   */\n              tag_148\n                /* \"#utility.yul\":508:513   */\n              dup2\n                /* \"#utility.yul\":490:514   */\n              tag_106\n              jump\t// in\n            tag_148:\n                /* \"#utility.yul\":483:488   */\n              dup2\n                /* \"#utility.yul\":480:515   */\n              eq\n                /* \"#utility.yul\":470:533   */\n              tag_149\n              jumpi\n                /* \"#utility.yul\":529:530   */\n              0x00\n                /* \"#utility.yul\":526:527   */\n              0x00\n                /* \"#utility.yul\":519:531   */\n              revert\n                /* \"#utility.yul\":470:533   */\n            tag_149:\n                /* \"#utility.yul\":417:539   */\n              pop\n              jump\t// out\n                /* \"#utility.yul\":545:684   */\n            tag_108:\n                /* \"#utility.yul\":591:596   */\n              0x00\n                /* \"#utility.yul\":629:635   */\n              dup2\n                /* \"#utility.yul\":616:636   */\n              calldataload\n                /* \"#utility.yul\":607:636   */\n              swap1\n              pop\n                /* \"#utility.yul\":645:678   */\n              tag_151\n                /* \"#utility.yul\":672:677   */\n              dup2\n                /* \"#utility.yul\":645:678   */\n              tag_107\n              jump\t// in\n            tag_151:\n                /* \"#utility.yul\":545:684   */\n              swap3\n              swap2\n              pop\n              pop\n              jump\t// out\n                /* \"#utility.yul\":690:807   */\n            tag_109:\n                /* \"#utility.yul\":799:800   */\n              0x00\n                /* \"#utility.yul\":796:797   */\n              0x00\n                /* \"#utility.yul\":789:801   */\n              revert\n                /* \"#utility.yul\":813:930   */\n            tag_110:\n                /* \"#utility.yul\":922:923   */\n              0x00\n                /* \"#utility.yul\":919:920   */\n              0x00\n                /* \"#utility.yul\":912:924   */\n              revert\n                /* \"#utility.yul\":936:1038   */\n            tag_111:\n                /* \"#utility.yul\":977:983   */\n              0x00\n                /* \"#utility.yul\":1028:1030   */\n              0x1f\n                /* \"#utility.yul\":1024:1031   */\n              not\n                /* \"#utility.yul\":1019:1021   */\n              0x1f\n                /* \"#utility.yul\":1012:1017   */\n              dup4\n                /* \"#utility.yul\":1008:1022   */\n              add\n                /* \"#utility.yul\":1004:1032   */\n              and\n                /* \"#utility.yul\":994:1032   */\n              swap1\n              pop\n                /* \"#utility.yul\":936:1038   */\n              swap2\n              swap1\n              pop\n              jump\t// out\n                /* \"#utility.yul\":1044:1224   */\n            tag_112:\n                /* \"#utility.yul\":1092:1169   */\n              0x4e487b7100000000000000000000000000000000000000000000000000000000\n                /* \"#utility.yul\":1089:1090   */\n              0x00\n                /* \"#utility.yul\":1082:1170   */\n              mstore\n                /* \"#utility.yul\":1189:1193   */\n              0x41\n                /* \"#utility.yul\":1186:1187   */\n              0x04\n                /* \"#utility.yul\":1179:1194   */\n              mstore\n                /* \"#utility.yul\":1213:1217   */\n              0x24\n                /* \"#utility.yul\":1210:1211   */\n              0x00\n                /* \"#utility.yul\":1203:1218   */\n              revert\n                /* \"#utility.yul\":1230:1511   */\n            tag_113:\n                /* \"#utility.yul\":1313:1340   */\n              tag_157\n                /* \"#utility.yul\":1335:1339   */\n              dup3\n                /* \"#utility.yul\":1313:1340   */\n              tag_111\n              jump\t// in\n            tag_157:\n                /* \"#utility.yul\":1305:1311   */\n              dup2\n                /* \"#utility.yul\":1301:1341   */\n              add\n                /* \"#utility.yul\":1443:1449   */\n              dup2\n                /* \"#utility.yul\":1431:1441   */\n              dup2\n                /* \"#utility.yul\":1428:1450   */\n              lt\n                /* \"#utility.yul\":1407:1425   */\n              0xffffffffffffffff\n                /* \"#utility.yul\":1395:1405   */\n              dup3\n                /* \"#utility.yul\":1392:1426   */\n              gt\n                /* \"#utility.yul\":1389:1451   */\n              or\n                /* \"#utility.yul\":1386:1474   */\n              iszero\n              tag_158\n              jumpi\n                /* \"#utility.yul\":1454:1472   */\n              tag_159\n              tag_112\n              jump\t// in\n            tag_159:\n                /* \"#utility.yul\":1386:1474   */\n            tag_158:\n                /* \"#utility.yul\":1494:1504   */\n              dup1\n                /* \"#utility.yul\":1490:1492   */\n              0x40\n                /* \"#utility.yul\":1483:1505   */\n              mstore\n                /* \"#utility.yul\":1273:1511   */\n              pop\n                /* \"#utility.yul\":1230:1511   */\n              pop\n              pop\n              jump\t// out\n                /* \"#utility.yul\":1517:1646   */\n            tag_114:\n                /* \"#utility.yul\":1551:1557   */\n              0x00\n                /* \"#utility.yul\":1578:1598   */\n              tag_161\n              tag_103\n              jump\t// in\n            tag_161:\n                /* \"#utility.yul\":1568:1598   */\n              swap1\n              pop\n                /* \"#utility.yul\":1607:1640   */\n              tag_162\n                /* \"#utility.yul\":1635:1639   */\n              dup3\n                /* \"#utility.yul\":1627:1633   */\n              dup3\n                /* \"#utility.yul\":1607:1640   */\n              tag_113\n              jump\t// in\n            tag_162:\n                /* \"#utility.yul\":1517:1646   */\n              swap2\n              swap1\n              pop\n              jump\t// out\n                /* \"#utility.yul\":1652:1960   */\n            tag_115:\n                /* \"#utility.yul\":1714:1718   */\n              0x00\n                /* \"#utility.yul\":1804:1822   */\n              0xffffffffffffffff\n                /* \"#utility.yul\":1796:1802   */\n              dup3\n                /* \"#utility.yul\":1793:1823   */\n              gt\n                /* \"#utility.yul\":1790:1846   */\n              iszero\n              tag_164\n              jumpi\n                /* \"#utility.yul\":1826:1844   */\n              tag_165\n              tag_112\n              jump\t// in\n            tag_165:\n                /* \"#utility.yul\":1790:1846   */\n            tag_164:\n                /* \"#utility.yul\":1864:1893   */\n              tag_166\n                /* \"#utility.yul\":1886:1892   */\n              dup3\n                /* \"#utility.yul\":1864:1893   */\n              tag_111\n              jump\t// in\n            tag_166:\n                /* \"#utility.yul\":1856:1893   */\n              swap1\n              pop\n                /* \"#utility.yul\":1948:1952   */\n              0x20\n                /* \"#utility.yul\":1942:1946   */\n              dup2\n                /* \"#utility.yul\":1938:1953   */\n              add\n                /* \"#utility.yul\":1930:1953   */\n              swap1\n              pop\n                /* \"#utility.yul\":1652:1960   */\n              swap2\n              swap1\n              pop\n              jump\t// out\n                /* \"#utility.yul\":1966:2114   */\n            tag_116:\n                /* \"#utility.yul\":2064:2070   */\n              dup3\n                /* \"#utility.yul\":2059:2062   */\n              dup2\n                /* \"#utility.yul\":2054:2057   */\n              dup4\n                /* \"#utility.yul\":2041:2071   */\n              calldatacopy\n                /* \"#utility.yul\":2105:2106   */\n              0x00\n                /* \"#utility.yul\":2096:2102   */\n              dup4\n                /* \"#utility.yul\":2091:2094   */\n              dup4\n                /* \"#utility.yul\":2087:2103   */\n              add\n                /* \"#utility.yul\":2080:2107   */\n              mstore\n                /* \"#utility.yul\":1966:2114   */\n              pop\n              pop\n              pop\n              jump\t// out\n                /* \"#utility.yul\":2120:2545   */\n            tag_117:\n                /* \"#utility.yul\":2198:2203   */\n              0x00\n                /* \"#utility.yul\":2223:2289   */\n              tag_169\n                /* \"#utility.yul\":2239:2288   */\n              tag_170\n                /* \"#utility.yul\":2281:2287   */\n              dup5\n                /* \"#utility.yul\":2239:2288   */\n              tag_115\n              jump\t// in\n            tag_170:\n                /* \"#utility.yul\":2223:2289   */\n              tag_114\n              jump\t// in\n            tag_169:\n                /* \"#utility.yul\":2214:2289   */\n              swap1\n              pop\n                /* \"#utility.yul\":2312:2318   */\n              dup3\n                /* \"#utility.yul\":2305:2310   */\n              dup2\n                /* \"#utility.yul\":2298:2319   */\n              mstore\n                /* \"#utility.yul\":2350:2354   */\n              0x20\n                /* \"#utility.yul\":2343:2348   */\n              dup2\n                /* \"#utility.yul\":2339:2355   */\n              add\n                /* \"#utility.yul\":2388:2391   */\n              dup5\n                /* \"#utility.yul\":2379:2385   */\n              dup5\n                /* \"#utility.yul\":2374:2377   */\n              dup5\n                /* \"#utility.yul\":2370:2386   */\n              add\n                /* \"#utility.yul\":2367:2392   */\n              gt\n                /* \"#utility.yul\":2364:2476   */\n              iszero\n              tag_171\n              jumpi\n                /* \"#utility.yul\":2395:2474   */\n              tag_172\n              tag_110\n              jump\t// in\n            tag_172:\n                /* \"#utility.yul\":2364:2476   */\n            tag_171:\n                /* \"#utility.yul\":2485:2539   */\n              tag_173\n                /* \"#utility.yul\":2532:2538   */\n              dup5\n                /* \"#utility.yul\":2527:2530   */\n              dup3\n                /* \"#utility.yul\":2522:2525   */\n              dup6\n                /* \"#utility.yul\":2485:2539   */\n              tag_116\n              jump\t// in\n            tag_173:\n                /* \"#utility.yul\":2204:2545   */\n              pop\n                /* \"#utility.yul\":2120:2545   */\n              swap4\n              swap3\n              pop\n              pop\n              pop\n              jump\t// out\n                /* \"#utility.yul\":2565:2905   */\n            tag_118:\n                /* \"#utility.yul\":2621:2626   */\n              0x00\n                /* \"#utility.yul\":2670:2673   */\n              dup3\n                /* \"#utility.yul\":2663:2667   */\n              0x1f\n                /* \"#utility.yul\":2655:2661   */\n              dup4\n                /* \"#utility.yul\":2651:2668   */\n              add\n                /* \"#utility.yul\":2647:2674   */\n              slt\n                /* \"#utility.yul\":2637:2759   */\n              tag_175\n              jumpi\n                /* \"#utility.yul\":2678:2757   */\n              tag_176\n              tag_109\n              jump\t// in\n            tag_176:\n                /* \"#utility.yul\":2637:2759   */\n            tag_175:\n                /* \"#utility.yul\":2795:2801   */\n              dup2\n                /* \"#utility.yul\":2782:2802   */\n              calldataload\n                /* \"#utility.yul\":2820:2899   */\n              tag_177\n                /* \"#utility.yul\":2895:2898   */\n              dup5\n                /* \"#utility.yul\":2887:2893   */\n              dup3\n                /* \"#utility.yul\":2880:2884   */\n              0x20\n                /* \"#utility.yul\":2872:2878   */\n              dup7\n                /* \"#utility.yul\":2868:2885   */\n              add\n                /* \"#utility.yul\":2820:2899   */\n              tag_117\n              jump\t// in\n            tag_177:\n                /* \"#utility.yul\":2811:2899   */\n              swap2\n              pop\n                /* \"#utility.yul\":2627:2905   */\n              pop\n                /* \"#utility.yul\":2565:2905   */\n              swap3\n              swap2\n              pop\n              pop\n              jump\t// out\n                /* \"#utility.yul\":2911:3565   */\n            tag_13:\n                /* \"#utility.yul\":2989:2995   */\n              0x00\n                /* \"#utility.yul\":2997:3003   */\n              0x00\n                /* \"#utility.yul\":3046:3048   */\n              0x40\n                /* \"#utility.yul\":3034:3043   */\n              dup4\n                /* \"#utility.yul\":3025:3032   */\n              dup6\n                /* \"#utility.yul\":3021:3044   */\n              sub\n                /* \"#utility.yul\":3017:3049   */\n              slt\n                /* \"#utility.yul\":3014:3133   */\n              iszero\n              tag_179\n              jumpi\n                /* \"#utility.yul\":3052:3131   */\n              tag_180\n              tag_104\n              jump\t// in\n            tag_180:\n                /* \"#utility.yul\":3014:3133   */\n            tag_179:\n                /* \"#utility.yul\":3172:3173   */\n              0x00\n                /* \"#utility.yul\":3197:3250   */\n              tag_181\n                /* \"#utility.yul\":3242:3249   */\n              dup6\n                /* \"#utility.yul\":3233:3239   */\n              dup3\n                /* \"#utility.yul\":3222:3231   */\n              dup7\n                /* \"#utility.yul\":3218:3240   */\n              add\n                /* \"#utility.yul\":3197:3250   */\n              tag_108\n              jump\t// in\n            tag_181:\n                /* \"#utility.yul\":3187:3250   */\n              swap3\n              pop\n                /* \"#utility.yul\":3143:3260   */\n              pop\n                /* \"#utility.yul\":3327:3329   */\n              0x20\n                /* \"#utility.yul\":3316:3325   */\n              dup4\n                /* \"#utility.yul\":3312:3330   */\n              add\n                /* \"#utility.yul\":3299:3331   */\n              calldataload\n                /* \"#utility.yul\":3358:3376   */\n              0xffffffffffffffff\n                /* \"#utility.yul\":3350:3356   */\n              dup2\n                /* \"#utility.yul\":3347:3377   */\n              gt\n                /* \"#utility.yul\":3344:3461   */\n              iszero\n              tag_182\n              jumpi\n                /* \"#utility.yul\":3380:3459   */\n              tag_183\n              tag_105\n              jump\t// in\n            tag_183:\n                /* \"#utility.yul\":3344:3461   */\n            tag_182:\n                /* \"#utility.yul\":3485:3548   */\n              tag_184\n                /* \"#utility.yul\":3540:3547   */\n              dup6\n                /* \"#utility.yul\":3531:3537   */\n              dup3\n                /* \"#utility.yul\":3520:3529   */\n              dup7\n                /* \"#utility.yul\":3516:3538   */\n              add\n                /* \"#utility.yul\":3485:3548   */\n              tag_118\n              jump\t// in\n            tag_184:\n                /* \"#utility.yul\":3475:3548   */\n              swap2\n              pop\n                /* \"#utility.yul\":3270:3558   */\n              pop\n                /* \"#utility.yul\":2911:3565   */\n              swap3\n              pop\n              swap3\n              swap1\n              pop\n              jump\t// out\n                /* \"#utility.yul\":3571:3670   */\n            tag_119:\n                /* \"#utility.yul\":3623:3629   */\n              0x00\n                /* \"#utility.yul\":3657:3662   */\n              dup2\n                /* \"#utility.yul\":3651:3663   */\n              mload\n                /* \"#utility.yul\":3641:3663   */\n              swap1\n              pop\n                /* \"#utility.yul\":3571:3670   */\n              swap2\n              swap1\n              pop\n              jump\t// out\n                /* \"#utility.yul\":3676:3845   */\n            tag_120:\n                /* \"#utility.yul\":3760:3771   */\n              0x00\n                /* \"#utility.yul\":3794:3800   */\n              dup3\n                /* \"#utility.yul\":3789:3792   */\n              dup3\n                /* \"#utility.yul\":3782:3801   */\n              mstore\n                /* \"#utility.yul\":3834:3838   */\n              0x20\n                /* \"#utility.yul\":3829:3832   */\n              dup3\n                /* \"#utility.yul\":3825:3839   */\n              add\n                /* \"#utility.yul\":3810:3839   */\n              swap1\n              pop\n                /* \"#utility.yul\":3676:3845   */\n              swap3\n              swap2\n              pop\n              pop\n              jump\t// out\n                /* \"#utility.yul\":3851:3990   */\n            tag_121:\n                /* \"#utility.yul\":3940:3946   */\n              dup3\n                /* \"#utility.yul\":3935:3938   */\n              dup2\n                /* \"#utility.yul\":3930:3933   */\n              dup4\n                /* \"#utility.yul\":3924:3947   */\n              mcopy\n                /* \"#utility.yul\":3981:3982   */\n              0x00\n                /* \"#utility.yul\":3972:3978   */\n              dup4\n                /* \"#utility.yul\":3967:3970   */\n              dup4\n                /* \"#utility.yul\":3963:3979   */\n              add\n                /* \"#utility.yul\":3956:3983   */\n              mstore\n                /* \"#utility.yul\":3851:3990   */\n              pop\n              pop\n              pop\n              jump\t// out\n                /* \"#utility.yul\":3996:4373   */\n            tag_122:\n                /* \"#utility.yul\":4084:4087   */\n              0x00\n                /* \"#utility.yul\":4112:4151   */\n              tag_189\n                /* \"#utility.yul\":4145:4150   */\n              dup3\n                /* \"#utility.yul\":4112:4151   */\n              tag_119\n              jump\t// in\n            tag_189:\n                /* \"#utility.yul\":4167:4238   */\n              tag_190\n                /* \"#utility.yul\":4231:4237   */\n              dup2\n                /* \"#utility.yul\":4226:4229   */\n              dup6\n                /* \"#utility.yul\":4167:4238   */\n              tag_120\n              jump\t// in\n            tag_190:\n                /* \"#utility.yul\":4160:4238   */\n              swap4\n              pop\n                /* \"#utility.yul\":4247:4312   */\n              tag_191\n                /* \"#utility.yul\":4305:4311   */\n              dup2\n                /* \"#utility.yul\":4300:4303   */\n              dup6\n                /* \"#utility.yul\":4293:4297   */\n              0x20\n                /* \"#utility.yul\":4286:4291   */\n              dup7\n                /* \"#utility.yul\":4282:4298   */\n              add\n                /* \"#utility.yul\":4247:4312   */\n              tag_121\n              jump\t// in\n            tag_191:\n                /* \"#utility.yul\":4337:4366   */\n              tag_192\n                /* \"#utility.yul\":4359:4365   */\n              dup2\n                /* \"#utility.yul\":4337:4366   */\n              tag_111\n              jump\t// in\n            tag_192:\n                /* \"#utility.yul\":4332:4335   */\n              dup5\n                /* \"#utility.yul\":4328:4367   */\n              add\n                /* \"#utility.yul\":4321:4367   */\n              swap2\n              pop\n                /* \"#utility.yul\":4088:4373   */\n              pop\n                /* \"#utility.yul\":3996:4373   */\n              swap3\n              swap2\n              pop\n              pop\n              jump\t// out\n                /* \"#utility.yul\":4379:4692   */\n            tag_18:\n                /* \"#utility.yul\":4492:4496   */\n              0x00\n                /* \"#utility.yul\":4530:4532   */\n              0x20\n                /* \"#utility.yul\":4519:4528   */\n              dup3\n                /* \"#utility.yul\":4515:4533   */\n              add\n                /* \"#utility.yul\":4507:4533   */\n              swap1\n              pop\n                /* \"#utility.yul\":4579:4588   */\n              dup2\n                /* \"#utility.yul\":4573:4577   */\n              dup2\n                /* \"#utility.yul\":4569:4589   */\n              sub\n                /* \"#utility.yul\":4565:4566   */\n              0x00\n                /* \"#utility.yul\":4554:4563   */\n              dup4\n                /* \"#utility.yul\":4550:4567   */\n              add\n                /* \"#utility.yul\":4543:4590   */\n              mstore\n                /* \"#utility.yul\":4607:4685   */\n              tag_194\n                /* \"#utility.yul\":4680:4684   */\n              dup2\n                /* \"#utility.yul\":4671:4677   */\n              dup5\n                /* \"#utility.yul\":4607:4685   */\n              tag_122\n              jump\t// in\n            tag_194:\n                /* \"#utility.yul\":4599:4685   */\n              swap1\n              pop\n                /* \"#utility.yul\":4379:4692   */\n              swap3\n              swap2\n              pop\n              pop\n              jump\t// out\n                /* \"#utility.yul\":4698:5027   */\n            tag_24:\n                /* \"#utility.yul\":4757:4763   */\n              0x00\n                /* \"#utility.yul\":4806:4808   */\n              0x20\n                /* \"#utility.yul\":4794:4803   */\n              dup3\n                /* \"#utility.yul\":4785:4792   */\n              dup5\n                /* \"#utility.yul\":4781:4804   */\n              sub\n                /* \"#utility.yul\":4777:4809   */\n              slt\n                /* \"#utility.yul\":4774:4893   */\n              iszero\n              tag_196\n              jumpi\n                /* \"#utility.yul\":4812:4891   */\n              tag_197\n              tag_104\n              jump\t// in\n            tag_197:\n                /* \"#utility.yul\":4774:4893   */\n            tag_196:\n                /* \"#utility.yul\":4932:4933   */\n              0x00\n                /* \"#utility.yul\":4957:5010   */\n              tag_198\n                /* \"#utility.yul\":5002:5009   */\n              dup5\n                /* \"#utility.yul\":4993:4999   */\n              dup3\n                /* \"#utility.yul\":4982:4991   */\n              dup6\n                /* \"#utility.yul\":4978:5000   */\n              add\n                /* \"#utility.yul\":4957:5010   */\n              tag_108\n              jump\t// in\n            tag_198:\n                /* \"#utility.yul\":4947:5010   */\n              swap2\n              pop\n                /* \"#utility.yul\":4903:5020   */\n              pop\n                /* \"#utility.yul\":4698:5027   */\n              swap3\n              swap2\n              pop\n              pop\n              jump\t// out\n                /* \"#utility.yul\":5033:5542   */\n            tag_33:\n                /* \"#utility.yul\":5102:5108   */\n              0x00\n                /* \"#utility.yul\":5151:5153   */\n              0x20\n                /* \"#utility.yul\":5139:5148   */\n              dup3\n                /* \"#utility.yul\":5130:5137   */\n              dup5\n                /* \"#utility.yul\":5126:5149   */\n              sub\n                /* \"#utility.yul\":5122:5154   */\n              slt\n                /* \"#utility.yul\":5119:5238   */\n              iszero\n              tag_200\n              jumpi\n                /* \"#utility.yul\":5157:5236   */\n              tag_201\n              tag_104\n              jump\t// in\n            tag_201:\n                /* \"#utility.yul\":5119:5238   */\n            tag_200:\n                /* \"#utility.yul\":5305:5306   */\n              0x00\n                /* \"#utility.yul\":5294:5303   */\n              dup3\n                /* \"#utility.yul\":5290:5307   */\n              add\n                /* \"#utility.yul\":5277:5308   */\n              calldataload\n                /* \"#utility.yul\":5335:5353   */\n              0xffffffffffffffff\n                /* \"#utility.yul\":5327:5333   */\n              dup2\n                /* \"#utility.yul\":5324:5354   */\n              gt\n                /* \"#utility.yul\":5321:5438   */\n              iszero\n              tag_202\n              jumpi\n                /* \"#utility.yul\":5357:5436   */\n              tag_203\n              tag_105\n              jump\t// in\n            tag_203:\n                /* \"#utility.yul\":5321:5438   */\n            tag_202:\n                /* \"#utility.yul\":5462:5525   */\n              tag_204\n                /* \"#utility.yul\":5517:5524   */\n              dup5\n                /* \"#utility.yul\":5508:5514   */\n              dup3\n                /* \"#utility.yul\":5497:5506   */\n              dup6\n                /* \"#utility.yul\":5493:5515   */\n              add\n                /* \"#utility.yul\":5462:5525   */\n              tag_118\n              jump\t// in\n            tag_204:\n                /* \"#utility.yul\":5452:5525   */\n              swap2\n              pop\n                /* \"#utility.yul\":5248:5535   */\n              pop\n                /* \"#utility.yul\":5033:5542   */\n              swap3\n              swap2\n              pop\n              pop\n              jump\t// out\n                /* \"#utility.yul\":5548:5728   */\n            tag_123:\n                /* \"#utility.yul\":5596:5673   */\n              0x4e487b7100000000000000000000000000000000000000000000000000000000\n                /* \"#utility.yul\":5593:5594   */\n              0x00\n                /* \"#utility.yul\":5586:5674   */\n              mstore\n                /* \"#utility.yul\":5693:5697   */\n              0x22\n                /* \"#utility.yul\":5690:5691   */\n              0x04\n                /* \"#utility.yul\":5683:5698   */\n              mstore\n                /* \"#utility.yul\":5717:5721   */\n              0x24\n                /* \"#utility.yul\":5714:5715   */\n              0x00\n                /* \"#utility.yul\":5707:5722   */\n              revert\n                /* \"#utility.yul\":5734:6054   */\n            tag_44:\n                /* \"#utility.yul\":5778:5784   */\n              0x00\n                /* \"#utility.yul\":5815:5816   */\n              0x02\n                /* \"#utility.yul\":5809:5813   */\n              dup3\n                /* \"#utility.yul\":5805:5817   */\n              div\n                /* \"#utility.yul\":5795:5817   */\n              swap1\n              pop\n                /* \"#utility.yul\":5862:5863   */\n              0x01\n                /* \"#utility.yul\":5856:5860   */\n              dup3\n                /* \"#utility.yul\":5852:5864   */\n              and\n                /* \"#utility.yul\":5883:5901   */\n              dup1\n                /* \"#utility.yul\":5873:5954   */\n              tag_207\n              jumpi\n                /* \"#utility.yul\":5939:5943   */\n              0x7f\n                /* \"#utility.yul\":5931:5937   */\n              dup3\n                /* \"#utility.yul\":5927:5944   */\n              and\n                /* \"#utility.yul\":5917:5944   */\n              swap2\n              pop\n                /* \"#utility.yul\":5873:5954   */\n            tag_207:\n                /* \"#utility.yul\":6001:6003   */\n              0x20\n                /* \"#utility.yul\":5993:5999   */\n              dup3\n                /* \"#utility.yul\":5990:6004   */\n              lt\n                /* \"#utility.yul\":5970:5988   */\n              dup2\n                /* \"#utility.yul\":5967:6005   */\n              sub\n                /* \"#utility.yul\":5964:6048   */\n              tag_208\n              jumpi\n                /* \"#utility.yul\":6020:6038   */\n              tag_209\n              tag_123\n              jump\t// in\n            tag_209:\n                /* \"#utility.yul\":5964:6048   */\n            tag_208:\n                /* \"#utility.yul\":5785:6054   */\n              pop\n                /* \"#utility.yul\":5734:6054   */\n              swap2\n              swap1\n              pop\n              jump\t// out\n                /* \"#utility.yul\":6060:6201   */\n            tag_124:\n                /* \"#utility.yul\":6109:6113   */\n              0x00\n                /* \"#utility.yul\":6132:6135   */\n              dup2\n                /* \"#utility.yul\":6124:6135   */\n              swap1\n              pop\n                /* \"#utility.yul\":6155:6158   */\n              dup2\n                /* \"#utility.yul\":6152:6153   */\n              0x00\n                /* \"#utility.yul\":6145:6159   */\n              mstore\n                /* \"#utility.yul\":6189:6193   */\n              0x20\n                /* \"#utility.yul\":6186:6187   */\n              0x00\n                /* \"#utility.yul\":6176:6194   */\n              keccak256\n                /* \"#utility.yul\":6168:6194   */\n              swap1\n              pop\n                /* \"#utility.yul\":6060:6201   */\n              swap2\n              swap1\n              pop\n              jump\t// out\n                /* \"#utility.yul\":6207:6300   */\n            tag_125:\n                /* \"#utility.yul\":6244:6250   */\n              0x00\n                /* \"#utility.yul\":6291:6293   */\n              0x20\n                /* \"#utility.yul\":6286:6288   */\n              0x1f\n                /* \"#utility.yul\":6279:6284   */\n              dup4\n                /* \"#utility.yul\":6275:6289   */\n              add\n                /* \"#utility.yul\":6271:6294   */\n              div\n                /* \"#utility.yul\":6261:6294   */\n              swap1\n              pop\n                /* \"#utility.yul\":6207:6300   */\n              swap2\n              swap1\n              pop\n              jump\t// out\n                /* \"#utility.yul\":6306:6413   */\n            tag_126:\n                /* \"#utility.yul\":6350:6358   */\n              0x00\n                /* \"#utility.yul\":6400:6405   */\n              dup3\n                /* \"#utility.yul\":6394:6398   */\n              dup3\n                /* \"#utility.yul\":6390:6406   */\n              shl\n                /* \"#utility.yul\":6369:6406   */\n              swap1\n              pop\n                /* \"#utility.yul\":6306:6413   */\n              swap3\n              swap2\n              pop\n              pop\n              jump\t// out\n                /* \"#utility.yul\":6419:6812   */\n            tag_127:\n                /* \"#utility.yul\":6488:6494   */\n              0x00\n                /* \"#utility.yul\":6538:6539   */\n              0x08\n                /* \"#utility.yul\":6526:6536   */\n              dup4\n                /* \"#utility.yul\":6522:6540   */\n              mul\n                /* \"#utility.yul\":6561:6658   */\n              tag_214\n                /* \"#utility.yul\":6591:6657   */\n              0xffffffffffffffffffffffffffffffffffffffffffffffffffffffffffffffff\n                /* \"#utility.yul\":6580:6589   */\n              dup3\n                /* \"#utility.yul\":6561:6658   */\n              tag_126\n              jump\t// in\n            tag_214:\n                /* \"#utility.yul\":6679:6718   */\n              tag_215\n                /* \"#utility.yul\":6709:6717   */\n              dup7\n                /* \"#utility.yul\":6698:6707   */\n              dup4\n                /* \"#utility.yul\":6679:6718   */\n              tag_126\n              jump\t// in\n            tag_215:\n                /* \"#utility.yul\":6667:6718   */\n              swap6\n              pop\n                /* \"#utility.yul\":6751:6755   */\n              dup1\n                /* \"#utility.yul\":6747:6756   */\n              not\n                /* \"#utility.yul\":6740:6745   */\n              dup5\n                /* \"#utility.yul\":6736:6757   */\n              and\n                /* \"#utility.yul\":6727:6757   */\n              swap4\n              pop\n                /* \"#utility.yul\":6800:6804   */\n              dup1\n                /* \"#utility.yul\":6790:6798   */\n              dup7\n                /* \"#utility.yul\":6786:6805   */\n              and\n                /* \"#utility.yul\":6779:6784   */\n              dup5\n                /* \"#utility.yul\":6776:6806   */\n              or\n                /* \"#utility.yul\":6766:6806   */\n              swap3\n              pop\n                /* \"#utility.yul\":6495:6812   */\n              pop\n              pop\n                /* \"#utility.yul\":6419:6812   */\n              swap4\n              swap3\n              pop\n              pop\n              pop\n              jump\t// out\n                /* \"#utility.yul\":6818:6878   */\n            tag_128:\n                /* \"#utility.yul\":6846:6849   */\n              0x00\n                /* \"#utility.yul\":6867:6872   */\n              dup2\n                /* \"#utility.yul\":6860:6872   */\n              swap1\n              pop\n                /* \"#utility.yul\":6818:6878   */\n              swap2\n              swap1\n              pop\n              jump\t// out\n                /* \"#utility.yul\":6884:7026   */\n            tag_129:\n                /* \"#utility.yul\":6934:6943   */\n              0x00\n                /* \"#utility.yul\":6967:7020   */\n              tag_218\n                /* \"#utility.yul\":6985:7019   */\n              tag_219\n                /* \"#utility.yul\":6994:7018   */\n              tag_220\n                /* \"#utility.yul\":7012:7017   */\n              dup5\n                /* \"#utility.yul\":6994:7018   */\n              tag_106\n              jump\t// in\n            tag_220:\n                /* \"#utility.yul\":6985:7019   */\n              tag_128\n              jump\t// in\n            tag_219:\n                /* \"#utility.yul\":6967:7020   */\n              tag_106\n              jump\t// in\n            tag_218:\n                /* \"#utility.yul\":6954:7020   */\n              swap1\n              pop\n                /* \"#utility.yul\":6884:7026   */\n              swap2\n              swap1\n              pop\n              jump\t// out\n                /* \"#utility.yul\":7032:7107   */\n            tag_130:\n                /* \"#utility.yul\":7075:7078   */\n              0x00\n                /* \"#utility.yul\":7096:7101   */\n              dup2\n                /* \"#utility.yul\":7089:7101   */\n              swap1\n              pop\n                /* \"#utility.yul\":7032:7107   */\n              swap2\n              swap1\n              pop\n              jump\t// out\n                /* \"#utility.yul\":7113:7382   */\n            tag_131:\n                /* \"#utility.yul\":7223:7262   */\n              tag_223\n                /* \"#utility.yul\":7254:7261   */\n              dup4\n                /* \"#utility.yul\":7223:7262   */\n              tag_129\n              jump\t// in\n            tag_223:\n                /* \"#utility.yul\":7284:7375   */\n              tag_224\n                /* \"#utility.yul\":7333:7374   */\n              tag_225\n                /* \"#utility.yul\":7357:7373   */\n              dup3\n                /* \"#utility.yul\":7333:7374   */\n              tag_130\n              jump\t// in\n            tag_225:\n                /* \"#utility.yul\":7325:7331   */\n              dup5\n                /* \"#utility.yul\":7318:7322   */\n              dup5\n                /* \"#utility.yul\":7312:7323   */\n              sload\n                /* \"#utility.yul\":7284:7375   */\n              tag_127\n              jump\t// in\n            tag_224:\n                /* \"#utility.yul\":7278:7282   */\n              dup3\n                /* \"#utility.yul\":7271:7376   */\n              sstore\n                /* \"#utility.yul\":7189:7382   */\n              pop\n                /* \"#utility.yul\":7113:7382   */\n              pop\n              pop\n              pop\n              jump\t// out\n                /* \"#utility.yul\":7388:7461   */\n            tag_132:\n                /* \"#utility.yul\":7433:7436   */\n              0x00\n                /* \"#utility.yul\":7454:7455   */\n              0x00\n                /* \"#utility.yul\":7447:7455   */\n              swap1\n              pop\n                /* \"#utility.yul\":7388:7461   */\n              swap1\n              jump\t// out\n                /* \"#utility.yul\":7467:7656   */\n            tag_133:\n                /* \"#utility.yul\":7544:7576   */\n              tag_228\n              tag_132\n              jump\t// in\n            tag_228:\n                /* \"#utility.yul\":7585:7650   */\n              tag_229\n                /* \"#utility.yul\":7643:7649   */\n              dup2\n                /* \"#utility.yul\":7635:7641   */\n              dup5\n                /* \"#utility.yul\":7629:7633   */\n              dup5\n                /* \"#utility.yul\":7585:7650   */\n              tag_131\n              jump\t// in\n            tag_229:\n                /* \"#utility.yul\":7520:7656   */\n              pop\n                /* \"#utility.yul\":7467:7656   */\n              pop\n              pop\n              jump\t// out\n                /* \"#utility.yul\":7662:7848   */\n            tag_134:\n                /* \"#utility.yul\":7722:7842   */\n            tag_231:\n                /* \"#utility.yul\":7739:7742   */\n              dup2\n                /* \"#utility.yul\":7732:7737   */\n              dup2\n                /* \"#utility.yul\":7729:7743   */\n              lt\n                /* \"#utility.yul\":7722:7842   */\n              iszero\n              tag_233\n              jumpi\n                /* \"#utility.yul\":7793:7832   */\n              tag_234\n                /* \"#utility.yul\":7830:7831   */\n              0x00\n                /* \"#utility.yul\":7823:7828   */\n              dup3\n                /* \"#utility.yul\":7793:7832   */\n              tag_133\n              jump\t// in\n            tag_234:\n                /* \"#utility.yul\":7766:7767   */\n              0x01\n                /* \"#utility.yul\":7759:7764   */\n              dup2\n                /* \"#utility.yul\":7755:7768   */\n              add\n                /* \"#utility.yul\":7746:7768   */\n              swap1\n              pop\n                /* \"#utility.yul\":7722:7842   */\n              jump(tag_231)\n            tag_233:\n                /* \"#utility.yul\":7662:7848   */\n              pop\n              pop\n              jump\t// out\n                /* \"#utility.yul\":7854:8397   */\n            tag_135:\n                /* \"#utility.yul\":7955:7957   */\n              0x1f\n                /* \"#utility.yul\":7950:7953   */\n              dup3\n                /* \"#utility.yul\":7947:7958   */\n              gt\n                /* \"#utility.yul\":7944:8390   */\n              iszero\n              tag_236\n              jumpi\n                /* \"#utility.yul\":7989:8027   */\n              tag_237\n                /* \"#utility.yul\":8021:8026   */\n              dup2\n                /* \"#utility.yul\":7989:8027   */\n              tag_124\n              jump\t// in\n            tag_237:\n                /* \"#utility.yul\":8073:8102   */\n              tag_238\n                /* \"#utility.yul\":8091:8101   */\n              dup5\n                /* \"#utility.yul\":8073:8102   */\n              tag_125\n              jump\t// in\n            tag_238:\n                /* \"#utility.yul\":8063:8071   */\n              dup2\n                /* \"#utility.yul\":8059:8103   */\n              add\n                /* \"#utility.yul\":8256:8258   */\n              0x20\n                /* \"#utility.yul\":8244:8254   */\n              dup6\n                /* \"#utility.yul\":8241:8259   */\n              lt\n                /* \"#utility.yul\":8238:8287   */\n              iszero\n              tag_239\n              jumpi\n                /* \"#utility.yul\":8277:8285   */\n              dup2\n                /* \"#utility.yul\":8262:8285   */\n              swap1\n              pop\n                /* \"#utility.yul\":8238:8287   */\n            tag_239:\n                /* \"#utility.yul\":8300:8380   */\n              tag_240\n                /* \"#utility.yul\":8356:8378   */\n              tag_241\n                /* \"#utility.yul\":8374:8377   */\n              dup6\n                /* \"#utility.yul\":8356:8378   */\n              tag_125\n              jump\t// in\n            tag_241:\n                /* \"#utility.yul\":8346:8354   */\n              dup4\n                /* \"#utility.yul\":8342:8379   */\n              add\n                /* \"#utility.yul\":8329:8340   */\n              dup3\n                /* \"#utility.yul\":8300:8380   */\n              tag_134\n              jump\t// in\n            tag_240:\n                /* \"#utility.yul\":7959:8390   */\n              pop\n              pop\n                /* \"#utility.yul\":7944:8390   */\n            tag_236:\n                /* \"#utility.yul\":7854:8397   */\n              pop\n              pop\n              pop\n              jump\t// out\n                /* \"#utility.yul\":8403:8520   */\n            tag_136:\n                /* \"#utility.yul\":8457:8465   */\n              0x00\n                /* \"#utility.yul\":8507:8512   */\n              dup3\n                /* \"#utility.yul\":8501:8505   */\n              dup3\n                /* \"#utility.yul\":8497:8513   */\n              shr\n                /* \"#utility.yul\":8476:8513   */\n              swap1\n              pop\n                /* \"#utility.yul\":8403:8520   */\n              swap3\n              swap2\n              pop\n              pop\n              jump\t// out\n                /* \"#utility.yul\":8526:8695   */\n            tag_137:\n                /* \"#utility.yul\":8570:8576   */\n              0x00\n                /* \"#utility.yul\":8603:8654   */\n              tag_244\n                /* \"#utility.yul\":8651:8652   */\n              0x00\n                /* \"#utility.yul\":8647:8653   */\n              not\n                /* \"#utility.yul\":8639:8644   */\n              dup5\n                /* \"#utility.yul\":8636:8637   */\n              0x08\n                /* \"#utility.yul\":8632:8645   */\n              mul\n                /* \"#utility.yul\":8603:8654   */\n              tag_136\n              jump\t// in\n            tag_244:\n                /* \"#utility.yul\":8599:8655   */\n              not\n                /* \"#utility.yul\":8684:8688   */\n              dup1\n                /* \"#utility.yul\":8678:8682   */\n              dup4\n                /* \"#utility.yul\":8674:8689   */\n              and\n                /* \"#utility.yul\":8664:8689   */\n              swap2\n              pop\n                /* \"#utility.yul\":8577:8695   */\n              pop\n                /* \"#utility.yul\":8526:8695   */\n              swap3\n              swap2\n              pop\n              pop\n              jump\t// out\n                /* \"#utility.yul\":8700:8995   */\n            tag_138:\n                /* \"#utility.yul\":8776:8780   */\n              0x00\n                /* \"#utility.yul\":8922:8951   */\n              tag_246\n                /* \"#utility.yul\":8947:8950   */\n              dup4\n                /* \"#utility.yul\":8941:8945   */\n              dup4\n                /* \"#utility.yul\":8922:8951   */\n              tag_137\n              jump\t// in\n            tag_246:\n                /* \"#utility.yul\":8914:8951   */\n              swap2\n              pop\n                /* \"#utility.yul\":8984:8987   */\n              dup3\n                /* \"#utility.yul\":8981:8982   */\n              0x02\n                /* \"#utility.yul\":8977:8988   */\n              mul\n                /* \"#utility.yul\":8971:8975   */\n              dup3\n                /* \"#utility.yul\":8968:8989   */\n              or\n                /* \"#utility.yul\":8960:8989   */\n              swap1\n              pop\n                /* \"#utility.yul\":8700:8995   */\n              swap3\n              swap2\n              pop\n              pop\n              jump\t// out\n                /* \"#utility.yul\":9000:10395   */\n            tag_40:\n                /* \"#utility.yul\":9117:9154   */\n              tag_248\n                /* \"#utility.yul\":9150:9153   */\n              dup3\n                /* \"#utility.yul\":9117:9154   */\n              tag_119\n              jump\t// in\n            tag_248:\n                /* \"#utility.yul\":9219:9237   */\n              0xffffffffffffffff\n                /* \"#utility.yul\":9211:9217   */\n              dup2\n                /* \"#utility.yul\":9208:9238   */\n              gt\n                /* \"#utility.yul\":9205:9261   */\n              iszero\n              tag_249\n              jumpi\n                /* \"#utility.yul\":9241:9259   */\n              tag_250\n              tag_112\n              jump\t// in\n            tag_250:\n                /* \"#utility.yul\":9205:9261   */\n            tag_249:\n                /* \"#utility.yul\":9285:9323   */\n              tag_251\n                /* \"#utility.yul\":9317:9321   */\n              dup3\n                /* \"#utility.yul\":9311:9322   */\n              sload\n                /* \"#utility.yul\":9285:9323   */\n              tag_44\n              jump\t// in\n            tag_251:\n                /* \"#utility.yul\":9370:9437   */\n              tag_252\n                /* \"#utility.yul\":9430:9436   */\n              dup3\n                /* \"#utility.yul\":9422:9428   */\n              dup3\n                /* \"#utility.yul\":9416:9420   */\n              dup6\n                /* \"#utility.yul\":9370:9437   */\n              tag_135\n              jump\t// in\n            tag_252:\n                /* \"#utility.yul\":9464:9465   */\n              0x00\n                /* \"#utility.yul\":9488:9492   */\n              0x20\n                /* \"#utility.yul\":9475:9492   */\n              swap1\n              pop\n                /* \"#utility.yul\":9520:9522   */\n              0x1f\n                /* \"#utility.yul\":9512:9518   */\n              dup4\n                /* \"#utility.yul\":9509:9523   */\n              gt\n                /* \"#utility.yul\":9537:9538   */\n              0x01\n                /* \"#utility.yul\":9532:10150   */\n              dup2\n              eq\n              tag_254\n              jumpi\n                /* \"#utility.yul\":10194:10195   */\n              0x00\n                /* \"#utility.yul\":10211:10217   */\n              dup5\n                /* \"#utility.yul\":10208:10285   */\n              iszero\n              tag_255\n              jumpi\n                /* \"#utility.yul\":10260:10269   */\n              dup3\n                /* \"#utility.yul\":10255:10258   */\n              dup8\n                /* \"#utility.yul\":10251:10270   */\n              add\n                /* \"#utility.yul\":10245:10271   */\n              mload\n                /* \"#utility.yul\":10236:10271   */\n              swap1\n              pop\n                /* \"#utility.yul\":10208:10285   */\n            tag_255:\n                /* \"#utility.yul\":10311:10378   */\n              tag_256\n                /* \"#utility.yul\":10371:10377   */\n              dup6\n                /* \"#utility.yul\":10364:10369   */\n              dup3\n                /* \"#utility.yul\":10311:10378   */\n              tag_138\n              jump\t// in\n            tag_256:\n                /* \"#utility.yul\":10305:10309   */\n              dup7\n                /* \"#utility.yul\":10298:10379   */\n              sstore\n                /* \"#utility.yul\":10167:10389   */\n              pop\n                /* \"#utility.yul\":9502:10389   */\n              jump(tag_253)\n                /* \"#utility.yul\":9532:10150   */\n            tag_254:\n                /* \"#utility.yul\":9584:9588   */\n              0x1f\n                /* \"#utility.yul\":9580:9589   */\n              not\n                /* \"#utility.yul\":9572:9578   */\n              dup5\n                /* \"#utility.yul\":9568:9590   */\n              and\n                /* \"#utility.yul\":9618:9655   */\n              tag_257\n                /* \"#utility.yul\":9650:9654   */\n              dup7\n                /* \"#utility.yul\":9618:9655   */\n              tag_124\n              jump\t// in\n            tag_257:\n                /* \"#utility.yul\":9677:9678   */\n              0x00\n                /* \"#utility.yul\":9691:9899   */\n            tag_258:\n                /* \"#utility.yul\":9705:9712   */\n              dup3\n                /* \"#utility.yul\":9702:9703   */\n              dup2\n                /* \"#utility.yul\":9699:9713   */\n              lt\n                /* \"#utility.yul\":9691:9899   */\n              iszero\n              tag_260\n              jumpi\n                /* \"#utility.yul\":9784:9793   */\n              dup5\n                /* \"#utility.yul\":9779:9782   */\n              dup10\n                /* \"#utility.yul\":9775:9794   */\n              add\n                /* \"#utility.yul\":9769:9795   */\n              mload\n                /* \"#utility.yul\":9761:9767   */\n              dup3\n                /* \"#utility.yul\":9754:9796   */\n              sstore\n                /* \"#utility.yul\":9835:9836   */\n              0x01\n                /* \"#utility.yul\":9827:9833   */\n              dup3\n                /* \"#utility.yul\":9823:9837   */\n              add\n                /* \"#utility.yul\":9813:9837   */\n              swap2\n              pop\n                /* \"#utility.yul\":9882:9884   */\n              0x20\n                /* \"#utility.yul\":9871:9880   */\n              dup6\n                /* \"#utility.yul\":9867:9885   */\n              add\n                /* \"#utility.yul\":9854:9885   */\n              swap5\n              pop\n                /* \"#utility.yul\":9728:9732   */\n              0x20\n                /* \"#utility.yul\":9725:9726   */\n              dup2\n                /* \"#utility.yul\":9721:9733   */\n              add\n                /* \"#utility.yul\":9716:9733   */\n              swap1\n              pop\n                /* \"#utility.yul\":9691:9899   */\n              jump(tag_258)\n            tag_260:\n                /* \"#utility.yul\":9927:9933   */\n              dup7\n                /* \"#utility.yul\":9918:9925   */\n              dup4\n                /* \"#utility.yul\":9915:9934   */\n              lt\n                /* \"#utility.yul\":9912:10091   */\n              iszero\n              tag_261\n              jumpi\n                /* \"#utility.yul\":9985:9994   */\n              dup5\n                /* \"#utility.yul\":9980:9983   */\n              dup10\n                /* \"#utility.yul\":9976:9995   */\n              add\n                /* \"#utility.yul\":9970:9996   */\n              mload\n                /* \"#utility.yul\":10028:10076   */\n              tag_262\n                /* \"#utility.yul\":10070:10074   */\n              0x1f\n                /* \"#utility.yul\":10062:10068   */\n              dup10\n                /* \"#utility.yul\":10058:10075   */\n              and\n                /* \"#utility.yul\":10047:10056   */\n              dup3\n                /* \"#utility.yul\":10028:10076   */\n              tag_137\n              jump\t// in\n            tag_262:\n                /* \"#utility.yul\":10020:10026   */\n              dup4\n                /* \"#utility.yul\":10013:10077   */\n              sstore\n                /* \"#utility.yul\":9935:10091   */\n              pop\n                /* \"#utility.yul\":9912:10091   */\n            tag_261:\n                /* \"#utility.yul\":10137:10138   */\n              0x01\n                /* \"#utility.yul\":10133:10134   */\n              0x02\n                /* \"#utility.yul\":10125:10131   */\n              dup9\n                /* \"#utility.yul\":10121:10135   */\n              mul\n                /* \"#utility.yul\":10117:10139   */\n              add\n                /* \"#utility.yul\":10111:10115   */\n              dup9\n                /* \"#utility.yul\":10104:10140   */\n              sstore\n                /* \"#utility.yul\":9539:10150   */\n              pop\n              pop\n              pop\n                /* \"#utility.yul\":9502:10389   */\n            tag_253:\n              pop\n                /* \"#utility.yul\":9092:10395   */\n              pop\n              pop\n              pop\n                /* \"#utility.yul\":9000:10395   */\n              pop\n              pop\n              jump\t// out\n                /* \"#utility.yul\":10401:10581   */\n            tag_59:\n                /* \"#utility.yul\":10449:10526   */\n              0x4e487b7100000000000000000000000000000000000000000000000000000000\n                /* \"#utility.yul\":10446:10447   */\n              0x00\n                /* \"#utility.yul\":10439:10527   */\n              mstore\n                /* \"#utility.yul\":10546:10550   */\n              0x32\n                /* \"#utility.yul\":10543:10544   */\n              0x04\n                /* \"#utility.yul\":10536:10551   */\n              mstore\n                /* \"#utility.yul\":10570:10574   */\n              0x24\n                /* \"#utility.yul\":10567:10568   */\n              0x00\n                /* \"#utility.yul\":10560:10575   */\n              revert\n                /* \"#utility.yul\":10587:10735   */\n            tag_139:\n                /* \"#utility.yul\":10689:10700   */\n              0x00\n                /* \"#utility.yul\":10726:10729   */\n              dup2\n                /* \"#utility.yul\":10711:10729   */\n              swap1\n              pop\n                /* \"#utility.yul\":10587:10735   */\n              swap3\n              swap2\n              pop\n              pop\n              jump\t// out\n                /* \"#utility.yul\":10741:11131   */\n            tag_140:\n                /* \"#utility.yul\":10847:10850   */\n              0x00\n                /* \"#utility.yul\":10875:10914   */\n              tag_266\n                /* \"#utility.yul\":10908:10913   */\n              dup3\n                /* \"#utility.yul\":10875:10914   */\n              tag_119\n              jump\t// in\n            tag_266:\n                /* \"#utility.yul\":10930:11019   */\n              tag_267\n                /* \"#utility.yul\":11012:11018   */\n              dup2\n                /* \"#utility.yul\":11007:11010   */\n              dup6\n                /* \"#utility.yul\":10930:11019   */\n              tag_139\n              jump\t// in\n            tag_267:\n                /* \"#utility.yul\":10923:11019   */\n              swap4\n              pop\n                /* \"#utility.yul\":11028:11093   */\n              tag_268\n                /* \"#utility.yul\":11086:11092   */\n              dup2\n                /* \"#utility.yul\":11081:11084   */\n              dup6\n                /* \"#utility.yul\":11074:11078   */\n              0x20\n                /* \"#utility.yul\":11067:11072   */\n              dup7\n                /* \"#utility.yul\":11063:11079   */\n              add\n                /* \"#utility.yul\":11028:11093   */\n              tag_121\n              jump\t// in\n            tag_268:\n                /* \"#utility.yul\":11118:11124   */\n              dup1\n                /* \"#utility.yul\":11113:11116   */\n              dup5\n                /* \"#utility.yul\":11109:11125   */\n              add\n                /* \"#utility.yul\":11102:11125   */\n              swap2\n              pop\n                /* \"#utility.yul\":10851:11131   */\n              pop\n                /* \"#utility.yul\":10741:11131   */\n              swap3\n              swap2\n              pop\n              pop\n              jump\t// out\n                /* \"#utility.yul\":11137:11334   */\n            tag_141:\n                /* \"#utility.yul\":11306:11327   */\n              0x46726f6d20446479277320436f6e747261637400000000000000000000000000\n                /* \"#utility.yul\":11301:11304   */\n              dup2\n                /* \"#utility.yul\":11294:11328   */\n              mstore\n                /* \"#utility.yul\":11137:11334   */\n              pop\n              jump\t// out\n                /* \"#utility.yul\":11340:11882   */\n            tag_102:\n                /* \"#utility.yul\":11563:11566   */\n              0x00\n                /* \"#utility.yul\":11585:11680   */\n              tag_271\n                /* \"#utility.yul\":11676:11679   */\n              dup3\n                /* \"#utility.yul\":11667:11673   */\n              dup5\n                /* \"#utility.yul\":11585:11680   */\n              tag_140\n              jump\t// in\n            tag_271:\n                /* \"#utility.yul\":11578:11680   */\n              swap2\n              pop\n                /* \"#utility.yul\":11690:11828   */\n              tag_272\n                /* \"#utility.yul\":11824:11827   */\n              dup3\n                /* \"#utility.yul\":11690:11828   */\n              tag_141\n              jump\t// in\n            tag_272:\n                /* \"#utility.yul\":11853:11855   */\n              0x13\n                /* \"#utility.yul\":11848:11851   */\n              dup3\n                /* \"#utility.yul\":11844:11856   */\n              add\n                /* \"#utility.yul\":11837:11856   */\n              swap2\n              pop\n                /* \"#utility.yul\":11873:11876   */\n              dup2\n                /* \"#utility.yul\":11866:11876   */\n              swap1\n              pop\n                /* \"#utility.yul\":11340:11882   */\n              swap3\n              swap2\n              pop\n              pop\n              jump\t// out\n\n            auxdata: 0xa2646970667358221220979f971fd4b5646d943b9b5dd791d1c3019bd2ece28c2b037da0a2a00715680b64736f6c634300081e0033\n        }\n    }\n\n    auxdata: 0xa26469706673582212200772c7cb9c1734a279d708ecd7c9e9823641964ae7485295768bb64a6135948a64736f6c634300081e0033\n}\n",
				"bytecode": {
					"linkReferences": {},
					"object": "6080604052348015600e575f5ffd5b50611aa58061001c5f395ff3fe608060405234801561000f575f5ffd5b506004361061004a575f3560e01c80632ab4bcd71461004e5780635e0a94cb1461007e5780637421d27914610088578063c4cbf9c8146100b8575b5f5ffd5b610068600480360381019061006391906103b7565b6100d4565b604051610075919061045c565b60405180910390f35b610086610118565b005b6100a2600480360381019061009d9190610475565b6101fe565b6040516100af9190610523565b60405180910390f35b6100d260048036038101906100cd919061066f565b6102be565b005b5f600182815481106100e9576100e86106db565b5b905f5260205f20015f9054906101000a900473ffffffffffffffffffffffffffffffffffffffff169050919050565b60405161012490610366565b604051809103905ff08015801561013d573d5f5f3e3d5ffd5b505f5f6101000a81548173ffffffffffffffffffffffffffffffffffffffff021916908373ffffffffffffffffffffffffffffffffffffffff16021790555060015f5f9054906101000a900473ffffffffffffffffffffffffffffffffffffffff16908060018154018082558091505060019003905f5260205f20015f9091909190916101000a81548173ffffffffffffffffffffffffffffffffffffffff021916908373ffffffffffffffffffffffffffffffffffffffff160217905550565b606060018381548110610214576102136106db565b5b905f5260205f20015f9054906101000a900473ffffffffffffffffffffffffffffffffffffffff1673ffffffffffffffffffffffffffffffffffffffff1663aef0fcf4836040518263ffffffff1660e01b81526004016102749190610717565b5f60405180830381865afa15801561028e573d5f5f3e3d5ffd5b505050506040513d5f823e3d601f19601f820116820180604052508101906102b6919061079e565b905092915050565b600183815481106102d2576102d16106db565b5b905f5260205f20015f9054906101000a900473ffffffffffffffffffffffffffffffffffffffff1673ffffffffffffffffffffffffffffffffffffffff1663096b696f83836040518363ffffffff1660e01b81526004016103349291906107e5565b5f604051808303815f87803b15801561034b575f5ffd5b505af115801561035d573d5f5f3e3d5ffd5b50505050505050565b61125c8061081483390190565b5f604051905090565b5f5ffd5b5f5ffd5b5f819050919050565b61039681610384565b81146103a0575f5ffd5b50565b5f813590506103b18161038d565b92915050565b5f602082840312156103cc576103cb61037c565b5b5f6103d9848285016103a3565b91505092915050565b5f73ffffffffffffffffffffffffffffffffffffffff82169050919050565b5f819050919050565b5f61042461041f61041a846103e2565b610401565b6103e2565b9050919050565b5f6104358261040a565b9050919050565b5f6104468261042b565b9050919050565b6104568161043c565b82525050565b5f60208201905061046f5f83018461044d565b92915050565b5f5f6040838503121561048b5761048a61037c565b5b5f610498858286016103a3565b92505060206104a9858286016103a3565b9150509250929050565b5f81519050919050565b5f82825260208201905092915050565b8281835e5f83830152505050565b5f601f19601f8301169050919050565b5f6104f5826104b3565b6104ff81856104bd565b935061050f8185602086016104cd565b610518816104db565b840191505092915050565b5f6020820190508181035f83015261053b81846104eb565b905092915050565b5f5ffd5b5f5ffd5b7f4e487b71000000000000000000000000000000000000000000000000000000005f52604160045260245ffd5b610581826104db565b810181811067ffffffffffffffff821117156105a05761059f61054b565b5b80604052505050565b5f6105b2610373565b90506105be8282610578565b919050565b5f67ffffffffffffffff8211156105dd576105dc61054b565b5b6105e6826104db565b9050602081019050919050565b828183375f83830152505050565b5f61061361060e846105c3565b6105a9565b90508281526020810184848401111561062f5761062e610547565b5b61063a8482856105f3565b509392505050565b5f82601f83011261065657610655610543565b5b8135610666848260208601610601565b91505092915050565b5f5f5f606084860312156106865761068561037c565b5b5f610693868287016103a3565b93505060206106a4868287016103a3565b925050604084013567ffffffffffffffff8111156106c5576106c4610380565b5b6106d186828701610642565b9150509250925092565b7f4e487b71000000000000000000000000000000000000000000000000000000005f52603260045260245ffd5b61071181610384565b82525050565b5f60208201905061072a5f830184610708565b92915050565b5f61074261073d846105c3565b6105a9565b90508281526020810184848401111561075e5761075d610547565b5b6107698482856104cd565b509392505050565b5f82601f83011261078557610784610543565b5b8151610795848260208601610730565b91505092915050565b5f602082840312156107b3576107b261037c565b5b5f82015167ffffffffffffffff8111156107d0576107cf610380565b5b6107dc84828501610771565b91505092915050565b5f6040820190506107f85f830185610708565b818103602083015261080a81846104eb565b9050939250505056fe608060405260015f5f6101000a81548160ff0219169083151502179055505f5f60016101000a81548160ff02191690831515021790555060646001557ffffffffffffffffffffffffffffffffffffffffffffffffffffffffffffffff86002557f48656c6c6f20576f726c642100000000000000000000000000000000000000006003556040518060400160405280600d81526020017f48656c6c6f20576f726c64732100000000000000000000000000000000000000815250600490816100c7919061036a565b50735b38da6a701c568545dcfcb03fcb875f56beddc460055f6101000a81548173ffffffffffffffffffffffffffffffffffffffff021916908373ffffffffffffffffffffffffffffffffffffffff160217905550348015610127575f5ffd5b50610439565b5f81519050919050565b7f4e487b71000000000000000000000000000000000000000000000000000000005f52604160045260245ffd5b7f4e487b71000000000000000000000000000000000000000000000000000000005f52602260045260245ffd5b5f60028204905060018216806101a857607f821691505b6020821081036101bb576101ba610164565b5b50919050565b5f819050815f5260205f209050919050565b5f6020601f8301049050919050565b5f82821b905092915050565b5f6008830261021d7fffffffffffffffffffffffffffffffffffffffffffffffffffffffffffffffff826101e2565b61022786836101e2565b95508019841693508086168417925050509392505050565b5f819050919050565b5f819050919050565b5f61026b6102666102618461023f565b610248565b61023f565b9050919050565b5f819050919050565b61028483610251565b61029861029082610272565b8484546101ee565b825550505050565b5f5f905090565b6102af6102a0565b6102ba81848461027b565b505050565b5b818110156102dd576102d25f826102a7565b6001810190506102c0565b5050565b601f821115610322576102f3816101c1565b6102fc846101d3565b8101602085101561030b578190505b61031f610317856101d3565b8301826102bf565b50505b505050565b5f82821c905092915050565b5f6103425f1984600802610327565b1980831691505092915050565b5f61035a8383610333565b9150826002028217905092915050565b6103738261012d565b67ffffffffffffffff81111561038c5761038b610137565b5b6103968254610191565b6103a18282856102e1565b5f60209050601f8311600181146103d2575f84156103c0578287015190505b6103ca858261034f565b865550610431565b601f1984166103e0866101c1565b5f5b82811015610407578489015182556001820191506020850194506020810190506103e2565b868310156104245784890151610420601f891682610333565b8355505b6001600288020188555050505b505050505050565b610e16806104465f395ff3fe608060405234801561000f575f5ffd5b506004361061007b575f3560e01c80639b04d01a116100595780639b04d01a146100d5578063aef0fcf414610105578063c7fe745414610135578063ef5fb05b146101515761007b565b8063096b696f1461007f5780631d0951621461009b5780634cc9f11a146100b9575b5f5ffd5b61009960048036038101906100949190610916565b61016f565b005b6100a3610221565b6040516100b091906109d0565b60405180910390f35b6100d360048036038101906100ce9190610916565b6102b9565b005b6100ef60048036038101906100ea91906109f0565b610381565b6040516100fc91906109d0565b60405180910390f35b61011f600480360381019061011a91906109f0565b61051f565b60405161012c91906109d0565b60405180910390f35b61014f600480360381019061014a9190610a1b565b6106ca565b005b6101596106dd565b60405161016691906109d0565b60405180910390f35b5f60405180606001604052808481526020018381526020013373ffffffffffffffffffffffffffffffffffffffff1681525090508060075f8581526020019081526020015f205f820151815f015560208201518160010190816101d29190610c5f565b506040820151816002015f6101000a81548173ffffffffffffffffffffffffffffffffffffffff021916908373ffffffffffffffffffffffffffffffffffffffff160217905550905050505050565b60606102b46004805461023390610a8f565b80601f016020809104026020016040519081016040528092919081815260200182805461025f90610a8f565b80156102aa5780601f10610281576101008083540402835291602001916102aa565b820191905f5260205f20905b81548152906001019060200180831161028d57829003601f168201915b505050505061076d565b905090565b5f60405180606001604052808481526020018381526020013373ffffffffffffffffffffffffffffffffffffffff168152509050600681908060018154018082558091505060019003905f5260205f2090600302015f909190919091505f820151815f015560208201518160010190816103339190610c5f565b506040820151816002015f6101000a81548173ffffffffffffffffffffffffffffffffffffffff021916908373ffffffffffffffffffffffffffffffffffffffff1602179055505050505050565b60605f5f90505b6006805490508110156104855782600682815481106103aa576103a9610d2e565b5b905f5260205f2090600302015f01540361047857610470600682815481106103d5576103d4610d2e565b5b905f5260205f20906003020160010180546103ef90610a8f565b80601f016020809104026020016040519081016040528092919081815260200182805461041b90610a8f565b80156104665780601f1061043d57610100808354040283529160200191610466565b820191905f5260205f20905b81548152906001019060200180831161044957829003601f168201915b505050505061076d565b91505061051a565b8080600101915050610388565b506105176004805461049690610a8f565b80601f01602080910402602001604051908101604052809291908181526020018280546104c290610a8f565b801561050d5780601f106104e45761010080835404028352916020019161050d565b820191905f5260205f20905b8154815290600101906020018083116104f057829003601f168201915b505050505061076d565b90505b919050565b60605f73ffffffffffffffffffffffffffffffffffffffff1660075f8481526020019081526020015f206002015f9054906101000a900473ffffffffffffffffffffffffffffffffffffffff1673ffffffffffffffffffffffffffffffffffffffff160361061f576106186004805461059790610a8f565b80601f01602080910402602001604051908101604052809291908181526020018280546105c390610a8f565b801561060e5780601f106105e55761010080835404028352916020019161060e565b820191905f5260205f20905b8154815290600101906020018083116105f157829003601f168201915b505050505061076d565b90506106c5565b6106c260075f8481526020019081526020015f20600101805461064190610a8f565b80601f016020809104026020016040519081016040528092919081815260200182805461066d90610a8f565b80156106b85780601f1061068f576101008083540402835291602001916106b8565b820191905f5260205f20905b81548152906001019060200180831161069b57829003601f168201915b505050505061076d565b90505b919050565b80600490816106d99190610c5f565b5050565b6060600480546106ec90610a8f565b80601f016020809104026020016040519081016040528092919081815260200182805461071890610a8f565b80156107635780601f1061073a57610100808354040283529160200191610763565b820191905f5260205f20905b81548152906001019060200180831161074657829003601f168201915b5050505050905090565b6060816040516020016107809190610dbb565b6040516020818303038152906040529050919050565b5f604051905090565b5f5ffd5b5f5ffd5b5f819050919050565b6107b9816107a7565b81146107c3575f5ffd5b50565b5f813590506107d4816107b0565b92915050565b5f5ffd5b5f5ffd5b5f601f19601f8301169050919050565b7f4e487b71000000000000000000000000000000000000000000000000000000005f52604160045260245ffd5b610828826107e2565b810181811067ffffffffffffffff82111715610847576108466107f2565b5b80604052505050565b5f610859610796565b9050610865828261081f565b919050565b5f67ffffffffffffffff821115610884576108836107f2565b5b61088d826107e2565b9050602081019050919050565b828183375f83830152505050565b5f6108ba6108b58461086a565b610850565b9050828152602081018484840111156108d6576108d56107de565b5b6108e184828561089a565b509392505050565b5f82601f8301126108fd576108fc6107da565b5b813561090d8482602086016108a8565b91505092915050565b5f5f6040838503121561092c5761092b61079f565b5b5f610939858286016107c6565b925050602083013567ffffffffffffffff81111561095a576109596107a3565b5b610966858286016108e9565b9150509250929050565b5f81519050919050565b5f82825260208201905092915050565b8281835e5f83830152505050565b5f6109a282610970565b6109ac818561097a565b93506109bc81856020860161098a565b6109c5816107e2565b840191505092915050565b5f6020820190508181035f8301526109e88184610998565b905092915050565b5f60208284031215610a0557610a0461079f565b5b5f610a12848285016107c6565b91505092915050565b5f60208284031215610a3057610a2f61079f565b5b5f82013567ffffffffffffffff811115610a4d57610a4c6107a3565b5b610a59848285016108e9565b91505092915050565b7f4e487b71000000000000000000000000000000000000000000000000000000005f52602260045260245ffd5b5f6002820490506001821680610aa657607f821691505b602082108103610ab957610ab8610a62565b5b50919050565b5f819050815f5260205f209050919050565b5f6020601f8301049050919050565b5f82821b905092915050565b5f60088302610b1b7fffffffffffffffffffffffffffffffffffffffffffffffffffffffffffffffff82610ae0565b610b258683610ae0565b95508019841693508086168417925050509392505050565b5f819050919050565b5f610b60610b5b610b56846107a7565b610b3d565b6107a7565b9050919050565b5f819050919050565b610b7983610b46565b610b8d610b8582610b67565b848454610aec565b825550505050565b5f5f905090565b610ba4610b95565b610baf818484610b70565b505050565b5b81811015610bd257610bc75f82610b9c565b600181019050610bb5565b5050565b601f821115610c1757610be881610abf565b610bf184610ad1565b81016020851015610c00578190505b610c14610c0c85610ad1565b830182610bb4565b50505b505050565b5f82821c905092915050565b5f610c375f1984600802610c1c565b1980831691505092915050565b5f610c4f8383610c28565b9150826002028217905092915050565b610c6882610970565b67ffffffffffffffff811115610c8157610c806107f2565b5b610c8b8254610a8f565b610c96828285610bd6565b5f60209050601f831160018114610cc7575f8415610cb5578287015190505b610cbf8582610c44565b865550610d26565b601f198416610cd586610abf565b5f5b82811015610cfc57848901518255600182019150602085019450602081019050610cd7565b86831015610d195784890151610d15601f891682610c28565b8355505b6001600288020188555050505b505050505050565b7f4e487b71000000000000000000000000000000000000000000000000000000005f52603260045260245ffd5b5f81905092915050565b5f610d6f82610970565b610d798185610d5b565b9350610d8981856020860161098a565b80840191505092915050565b7f46726f6d20446479277320436f6e747261637400000000000000000000000000815250565b5f610dc68284610d65565b9150610dd182610d95565b6013820191508190509291505056fea2646970667358221220979f971fd4b5646d943b9b5dd791d1c3019bd2ece28c2b037da0a2a00715680b64736f6c634300081e0033a26469706673582212200772c7cb9c1734a279d708ecd7c9e9823641964ae7485295768bb64a6135948a64736f6c634300081e0033",
					"opcodes": "PUSH1 0x80 PUSH1 0x40 MSTORE CALLVALUE DUP1 ISZERO PUSH1 0xE JUMPI PUSH0 PUSH0 REVERT JUMPDEST POP PUSH2 0x1AA5 DUP1 PUSH2 0x1C PUSH0 CODECOPY PUSH0 RETURN INVALID PUSH1 0x80 PUSH1 0x40 MSTORE CALLVALUE DUP1 ISZERO PUSH2 0xF JUMPI PUSH0 PUSH0 REVERT JUMPDEST POP PUSH1 0x4 CALLDATASIZE LT PUSH2 0x4A JUMPI PUSH0 CALLDATALOAD PUSH1 0xE0 SHR DUP1 PUSH4 0x2AB4BCD7 EQ PUSH2 0x4E JUMPI DUP1 PUSH4 0x5E0A94CB EQ PUSH2 0x7E JUMPI DUP1 PUSH4 0x7421D279 EQ PUSH2 0x88 JUMPI DUP1 PUSH4 0xC4CBF9C8 EQ PUSH2 0xB8 JUMPI JUMPDEST PUSH0 PUSH0 REVERT JUMPDEST PUSH2 0x68 PUSH1 0x4 DUP1 CALLDATASIZE SUB DUP2 ADD SWAP1 PUSH2 0x63 SWAP2 SWAP1 PUSH2 0x3B7 JUMP JUMPDEST PUSH2 0xD4 JUMP JUMPDEST PUSH1 0x40 MLOAD PUSH2 0x75 SWAP2 SWAP1 PUSH2 0x45C JUMP JUMPDEST PUSH1 0x40 MLOAD DUP1 SWAP2 SUB SWAP1 RETURN JUMPDEST PUSH2 0x86 PUSH2 0x118 JUMP JUMPDEST STOP JUMPDEST PUSH2 0xA2 PUSH1 0x4 DUP1 CALLDATASIZE SUB DUP2 ADD SWAP1 PUSH2 0x9D SWAP2 SWAP1 PUSH2 0x475 JUMP JUMPDEST PUSH2 0x1FE JUMP JUMPDEST PUSH1 0x40 MLOAD PUSH2 0xAF SWAP2 SWAP1 PUSH2 0x523 JUMP JUMPDEST PUSH1 0x40 MLOAD DUP1 SWAP2 SUB SWAP1 RETURN JUMPDEST PUSH2 0xD2 PUSH1 0x4 DUP1 CALLDATASIZE SUB DUP2 ADD SWAP1 PUSH2 0xCD SWAP2 SWAP1 PUSH2 0x66F JUMP JUMPDEST PUSH2 0x2BE JUMP JUMPDEST STOP JUMPDEST PUSH0 PUSH1 0x1 DUP3 DUP2 SLOAD DUP2 LT PUSH2 0xE9 JUMPI PUSH2 0xE8 PUSH2 0x6DB JUMP JUMPDEST JUMPDEST SWAP1 PUSH0 MSTORE PUSH1 0x20 PUSH0 KECCAK256 ADD PUSH0 SWAP1 SLOAD SWAP1 PUSH2 0x100 EXP SWAP1 DIV PUSH20 0xFFFFFFFFFFFFFFFFFFFFFFFFFFFFFFFFFFFFFFFF AND SWAP1 POP SWAP2 SWAP1 POP JUMP JUMPDEST PUSH1 0x40 MLOAD PUSH2 0x124 SWAP1 PUSH2 0x366 JUMP JUMPDEST PUSH1 0x40 MLOAD DUP1 SWAP2 SUB SWAP1 PUSH0 CREATE DUP1 ISZERO DUP1 ISZERO PUSH2 0x13D JUMPI RETURNDATASIZE PUSH0 PUSH0 RETURNDATACOPY RETURNDATASIZE PUSH0 REVERT JUMPDEST POP PUSH0 PUSH0 PUSH2 0x100 EXP DUP2 SLOAD DUP2 PUSH20 0xFFFFFFFFFFFFFFFFFFFFFFFFFFFFFFFFFFFFFFFF MUL NOT AND SWAP1 DUP4 PUSH20 0xFFFFFFFFFFFFFFFFFFFFFFFFFFFFFFFFFFFFFFFF AND MUL OR SWAP1 SSTORE POP PUSH1 0x1 PUSH0 PUSH0 SWAP1 SLOAD SWAP1 PUSH2 0x100 EXP SWAP1 DIV PUSH20 0xFFFFFFFFFFFFFFFFFFFFFFFFFFFFFFFFFFFFFFFF AND SWAP1 DUP1 PUSH1 0x1 DUP2 SLOAD ADD DUP1 DUP3 SSTORE DUP1 SWAP2 POP POP PUSH1 0x1 SWAP1 SUB SWAP1 PUSH0 MSTORE PUSH1 0x20 PUSH0 KECCAK256 ADD PUSH0 SWAP1 SWAP2 SWAP1 SWAP2 SWAP1 SWAP2 PUSH2 0x100 EXP DUP2 SLOAD DUP2 PUSH20 0xFFFFFFFFFFFFFFFFFFFFFFFFFFFFFFFFFFFFFFFF MUL NOT AND SWAP1 DUP4 PUSH20 0xFFFFFFFFFFFFFFFFFFFFFFFFFFFFFFFFFFFFFFFF AND MUL OR SWAP1 SSTORE POP JUMP JUMPDEST PUSH1 0x60 PUSH1 0x1 DUP4 DUP2 SLOAD DUP2 LT PUSH2 0x214 JUMPI PUSH2 0x213 PUSH2 0x6DB JUMP JUMPDEST JUMPDEST SWAP1 PUSH0 MSTORE PUSH1 0x20 PUSH0 KECCAK256 ADD PUSH0 SWAP1 SLOAD SWAP1 PUSH2 0x100 EXP SWAP1 DIV PUSH20 0xFFFFFFFFFFFFFFFFFFFFFFFFFFFFFFFFFFFFFFFF AND PUSH20 0xFFFFFFFFFFFFFFFFFFFFFFFFFFFFFFFFFFFFFFFF AND PUSH4 0xAEF0FCF4 DUP4 PUSH1 0x40 MLOAD DUP3 PUSH4 0xFFFFFFFF AND PUSH1 0xE0 SHL DUP2 MSTORE PUSH1 0x4 ADD PUSH2 0x274 SWAP2 SWAP1 PUSH2 0x717 JUMP JUMPDEST PUSH0 PUSH1 0x40 MLOAD DUP1 DUP4 SUB DUP2 DUP7 GAS STATICCALL ISZERO DUP1 ISZERO PUSH2 0x28E JUMPI RETURNDATASIZE PUSH0 PUSH0 RETURNDATACOPY RETURNDATASIZE PUSH0 REVERT JUMPDEST POP POP POP POP PUSH1 0x40 MLOAD RETURNDATASIZE PUSH0 DUP3 RETURNDATACOPY RETURNDATASIZE PUSH1 0x1F NOT PUSH1 0x1F DUP3 ADD AND DUP3 ADD DUP1 PUSH1 0x40 MSTORE POP DUP2 ADD SWAP1 PUSH2 0x2B6 SWAP2 SWAP1 PUSH2 0x79E JUMP JUMPDEST SWAP1 POP SWAP3 SWAP2 POP POP JUMP JUMPDEST PUSH1 0x1 DUP4 DUP2 SLOAD DUP2 LT PUSH2 0x2D2 JUMPI PUSH2 0x2D1 PUSH2 0x6DB JUMP JUMPDEST JUMPDEST SWAP1 PUSH0 MSTORE PUSH1 0x20 PUSH0 KECCAK256 ADD PUSH0 SWAP1 SLOAD SWAP1 PUSH2 0x100 EXP SWAP1 DIV PUSH20 0xFFFFFFFFFFFFFFFFFFFFFFFFFFFFFFFFFFFFFFFF AND PUSH20 0xFFFFFFFFFFFFFFFFFFFFFFFFFFFFFFFFFFFFFFFF AND PUSH4 0x96B696F DUP4 DUP4 PUSH1 0x40 MLOAD DUP4 PUSH4 0xFFFFFFFF AND PUSH1 0xE0 SHL DUP2 MSTORE PUSH1 0x4 ADD PUSH2 0x334 SWAP3 SWAP2 SWAP1 PUSH2 0x7E5 JUMP JUMPDEST PUSH0 PUSH1 0x40 MLOAD DUP1 DUP4 SUB DUP2 PUSH0 DUP8 DUP1 EXTCODESIZE ISZERO DUP1 ISZERO PUSH2 0x34B JUMPI PUSH0 PUSH0 REVERT JUMPDEST POP GAS CALL ISZERO DUP1 ISZERO PUSH2 0x35D JUMPI RETURNDATASIZE PUSH0 PUSH0 RETURNDATACOPY RETURNDATASIZE PUSH0 REVERT JUMPDEST POP POP POP POP POP POP POP JUMP JUMPDEST PUSH2 0x125C DUP1 PUSH2 0x814 DUP4 CODECOPY ADD SWAP1 JUMP JUMPDEST PUSH0 PUSH1 0x40 MLOAD SWAP1 POP SWAP1 JUMP JUMPDEST PUSH0 PUSH0 REVERT JUMPDEST PUSH0 PUSH0 REVERT JUMPDEST PUSH0 DUP2 SWAP1 POP SWAP2 SWAP1 POP JUMP JUMPDEST PUSH2 0x396 DUP2 PUSH2 0x384 JUMP JUMPDEST DUP2 EQ PUSH2 0x3A0 JUMPI PUSH0 PUSH0 REVERT JUMPDEST POP JUMP JUMPDEST PUSH0 DUP2 CALLDATALOAD SWAP1 POP PUSH2 0x3B1 DUP2 PUSH2 0x38D JUMP JUMPDEST SWAP3 SWAP2 POP POP JUMP JUMPDEST PUSH0 PUSH1 0x20 DUP3 DUP5 SUB SLT ISZERO PUSH2 0x3CC JUMPI PUSH2 0x3CB PUSH2 0x37C JUMP JUMPDEST JUMPDEST PUSH0 PUSH2 0x3D9 DUP5 DUP3 DUP6 ADD PUSH2 0x3A3 JUMP JUMPDEST SWAP2 POP POP SWAP3 SWAP2 POP POP JUMP JUMPDEST PUSH0 PUSH20 0xFFFFFFFFFFFFFFFFFFFFFFFFFFFFFFFFFFFFFFFF DUP3 AND SWAP1 POP SWAP2 SWAP1 POP JUMP JUMPDEST PUSH0 DUP2 SWAP1 POP SWAP2 SWAP1 POP JUMP JUMPDEST PUSH0 PUSH2 0x424 PUSH2 0x41F PUSH2 0x41A DUP5 PUSH2 0x3E2 JUMP JUMPDEST PUSH2 0x401 JUMP JUMPDEST PUSH2 0x3E2 JUMP JUMPDEST SWAP1 POP SWAP2 SWAP1 POP JUMP JUMPDEST PUSH0 PUSH2 0x435 DUP3 PUSH2 0x40A JUMP JUMPDEST SWAP1 POP SWAP2 SWAP1 POP JUMP JUMPDEST PUSH0 PUSH2 0x446 DUP3 PUSH2 0x42B JUMP JUMPDEST SWAP1 POP SWAP2 SWAP1 POP JUMP JUMPDEST PUSH2 0x456 DUP2 PUSH2 0x43C JUMP JUMPDEST DUP3 MSTORE POP POP JUMP JUMPDEST PUSH0 PUSH1 0x20 DUP3 ADD SWAP1 POP PUSH2 0x46F PUSH0 DUP4 ADD DUP5 PUSH2 0x44D JUMP JUMPDEST SWAP3 SWAP2 POP POP JUMP JUMPDEST PUSH0 PUSH0 PUSH1 0x40 DUP4 DUP6 SUB SLT ISZERO PUSH2 0x48B JUMPI PUSH2 0x48A PUSH2 0x37C JUMP JUMPDEST JUMPDEST PUSH0 PUSH2 0x498 DUP6 DUP3 DUP7 ADD PUSH2 0x3A3 JUMP JUMPDEST SWAP3 POP POP PUSH1 0x20 PUSH2 0x4A9 DUP6 DUP3 DUP7 ADD PUSH2 0x3A3 JUMP JUMPDEST SWAP2 POP POP SWAP3 POP SWAP3 SWAP1 POP JUMP JUMPDEST PUSH0 DUP2 MLOAD SWAP1 POP SWAP2 SWAP1 POP JUMP JUMPDEST PUSH0 DUP3 DUP3 MSTORE PUSH1 0x20 DUP3 ADD SWAP1 POP SWAP3 SWAP2 POP POP JUMP JUMPDEST DUP3 DUP2 DUP4 MCOPY PUSH0 DUP4 DUP4 ADD MSTORE POP POP POP JUMP JUMPDEST PUSH0 PUSH1 0x1F NOT PUSH1 0x1F DUP4 ADD AND SWAP1 POP SWAP2 SWAP1 POP JUMP JUMPDEST PUSH0 PUSH2 0x4F5 DUP3 PUSH2 0x4B3 JUMP JUMPDEST PUSH2 0x4FF DUP2 DUP6 PUSH2 0x4BD JUMP JUMPDEST SWAP4 POP PUSH2 0x50F DUP2 DUP6 PUSH1 0x20 DUP7 ADD PUSH2 0x4CD JUMP JUMPDEST PUSH2 0x518 DUP2 PUSH2 0x4DB JUMP JUMPDEST DUP5 ADD SWAP2 POP POP SWAP3 SWAP2 POP POP JUMP JUMPDEST PUSH0 PUSH1 0x20 DUP3 ADD SWAP1 POP DUP2 DUP2 SUB PUSH0 DUP4 ADD MSTORE PUSH2 0x53B DUP2 DUP5 PUSH2 0x4EB JUMP JUMPDEST SWAP1 POP SWAP3 SWAP2 POP POP JUMP JUMPDEST PUSH0 PUSH0 REVERT JUMPDEST PUSH0 PUSH0 REVERT JUMPDEST PUSH32 0x4E487B7100000000000000000000000000000000000000000000000000000000 PUSH0 MSTORE PUSH1 0x41 PUSH1 0x4 MSTORE PUSH1 0x24 PUSH0 REVERT JUMPDEST PUSH2 0x581 DUP3 PUSH2 0x4DB JUMP JUMPDEST DUP2 ADD DUP2 DUP2 LT PUSH8 0xFFFFFFFFFFFFFFFF DUP3 GT OR ISZERO PUSH2 0x5A0 JUMPI PUSH2 0x59F PUSH2 0x54B JUMP JUMPDEST JUMPDEST DUP1 PUSH1 0x40 MSTORE POP POP POP JUMP JUMPDEST PUSH0 PUSH2 0x5B2 PUSH2 0x373 JUMP JUMPDEST SWAP1 POP PUSH2 0x5BE DUP3 DUP3 PUSH2 0x578 JUMP JUMPDEST SWAP2 SWAP1 POP JUMP JUMPDEST PUSH0 PUSH8 0xFFFFFFFFFFFFFFFF DUP3 GT ISZERO PUSH2 0x5DD JUMPI PUSH2 0x5DC PUSH2 0x54B JUMP JUMPDEST JUMPDEST PUSH2 0x5E6 DUP3 PUSH2 0x4DB JUMP JUMPDEST SWAP1 POP PUSH1 0x20 DUP2 ADD SWAP1 POP SWAP2 SWAP1 POP JUMP JUMPDEST DUP3 DUP2 DUP4 CALLDATACOPY PUSH0 DUP4 DUP4 ADD MSTORE POP POP POP JUMP JUMPDEST PUSH0 PUSH2 0x613 PUSH2 0x60E DUP5 PUSH2 0x5C3 JUMP JUMPDEST PUSH2 0x5A9 JUMP JUMPDEST SWAP1 POP DUP3 DUP2 MSTORE PUSH1 0x20 DUP2 ADD DUP5 DUP5 DUP5 ADD GT ISZERO PUSH2 0x62F JUMPI PUSH2 0x62E PUSH2 0x547 JUMP JUMPDEST JUMPDEST PUSH2 0x63A DUP5 DUP3 DUP6 PUSH2 0x5F3 JUMP JUMPDEST POP SWAP4 SWAP3 POP POP POP JUMP JUMPDEST PUSH0 DUP3 PUSH1 0x1F DUP4 ADD SLT PUSH2 0x656 JUMPI PUSH2 0x655 PUSH2 0x543 JUMP JUMPDEST JUMPDEST DUP2 CALLDATALOAD PUSH2 0x666 DUP5 DUP3 PUSH1 0x20 DUP7 ADD PUSH2 0x601 JUMP JUMPDEST SWAP2 POP POP SWAP3 SWAP2 POP POP JUMP JUMPDEST PUSH0 PUSH0 PUSH0 PUSH1 0x60 DUP5 DUP7 SUB SLT ISZERO PUSH2 0x686 JUMPI PUSH2 0x685 PUSH2 0x37C JUMP JUMPDEST JUMPDEST PUSH0 PUSH2 0x693 DUP7 DUP3 DUP8 ADD PUSH2 0x3A3 JUMP JUMPDEST SWAP4 POP POP PUSH1 0x20 PUSH2 0x6A4 DUP7 DUP3 DUP8 ADD PUSH2 0x3A3 JUMP JUMPDEST SWAP3 POP POP PUSH1 0x40 DUP5 ADD CALLDATALOAD PUSH8 0xFFFFFFFFFFFFFFFF DUP2 GT ISZERO PUSH2 0x6C5 JUMPI PUSH2 0x6C4 PUSH2 0x380 JUMP JUMPDEST JUMPDEST PUSH2 0x6D1 DUP7 DUP3 DUP8 ADD PUSH2 0x642 JUMP JUMPDEST SWAP2 POP POP SWAP3 POP SWAP3 POP SWAP3 JUMP JUMPDEST PUSH32 0x4E487B7100000000000000000000000000000000000000000000000000000000 PUSH0 MSTORE PUSH1 0x32 PUSH1 0x4 MSTORE PUSH1 0x24 PUSH0 REVERT JUMPDEST PUSH2 0x711 DUP2 PUSH2 0x384 JUMP JUMPDEST DUP3 MSTORE POP POP JUMP JUMPDEST PUSH0 PUSH1 0x20 DUP3 ADD SWAP1 POP PUSH2 0x72A PUSH0 DUP4 ADD DUP5 PUSH2 0x708 JUMP JUMPDEST SWAP3 SWAP2 POP POP JUMP JUMPDEST PUSH0 PUSH2 0x742 PUSH2 0x73D DUP5 PUSH2 0x5C3 JUMP JUMPDEST PUSH2 0x5A9 JUMP JUMPDEST SWAP1 POP DUP3 DUP2 MSTORE PUSH1 0x20 DUP2 ADD DUP5 DUP5 DUP5 ADD GT ISZERO PUSH2 0x75E JUMPI PUSH2 0x75D PUSH2 0x547 JUMP JUMPDEST JUMPDEST PUSH2 0x769 DUP5 DUP3 DUP6 PUSH2 0x4CD JUMP JUMPDEST POP SWAP4 SWAP3 POP POP POP JUMP JUMPDEST PUSH0 DUP3 PUSH1 0x1F DUP4 ADD SLT PUSH2 0x785 JUMPI PUSH2 0x784 PUSH2 0x543 JUMP JUMPDEST JUMPDEST DUP2 MLOAD PUSH2 0x795 DUP5 DUP3 PUSH1 0x20 DUP7 ADD PUSH2 0x730 JUMP JUMPDEST SWAP2 POP POP SWAP3 SWAP2 POP POP JUMP JUMPDEST PUSH0 PUSH1 0x20 DUP3 DUP5 SUB SLT ISZERO PUSH2 0x7B3 JUMPI PUSH2 0x7B2 PUSH2 0x37C JUMP JUMPDEST JUMPDEST PUSH0 DUP3 ADD MLOAD PUSH8 0xFFFFFFFFFFFFFFFF DUP2 GT ISZERO PUSH2 0x7D0 JUMPI PUSH2 0x7CF PUSH2 0x380 JUMP JUMPDEST JUMPDEST PUSH2 0x7DC DUP5 DUP3 DUP6 ADD PUSH2 0x771 JUMP JUMPDEST SWAP2 POP POP SWAP3 SWAP2 POP POP JUMP JUMPDEST PUSH0 PUSH1 0x40 DUP3 ADD SWAP1 POP PUSH2 0x7F8 PUSH0 DUP4 ADD DUP6 PUSH2 0x708 JUMP JUMPDEST DUP2 DUP2 SUB PUSH1 0x20 DUP4 ADD MSTORE PUSH2 0x80A DUP2 DUP5 PUSH2 0x4EB JUMP JUMPDEST SWAP1 POP SWAP4 SWAP3 POP POP POP JUMP INVALID PUSH1 0x80 PUSH1 0x40 MSTORE PUSH1 0x1 PUSH0 PUSH0 PUSH2 0x100 EXP DUP2 SLOAD DUP2 PUSH1 0xFF MUL NOT AND SWAP1 DUP4 ISZERO ISZERO MUL OR SWAP1 SSTORE POP PUSH0 PUSH0 PUSH1 0x1 PUSH2 0x100 EXP DUP2 SLOAD DUP2 PUSH1 0xFF MUL NOT AND SWAP1 DUP4 ISZERO ISZERO MUL OR SWAP1 SSTORE POP PUSH1 0x64 PUSH1 0x1 SSTORE PUSH32 0xFFFFFFFFFFFFFFFFFFFFFFFFFFFFFFFFFFFFFFFFFFFFFFFFFFFFFFFFFFFFFFF8 PUSH1 0x2 SSTORE PUSH32 0x48656C6C6F20576F726C64210000000000000000000000000000000000000000 PUSH1 0x3 SSTORE PUSH1 0x40 MLOAD DUP1 PUSH1 0x40 ADD PUSH1 0x40 MSTORE DUP1 PUSH1 0xD DUP2 MSTORE PUSH1 0x20 ADD PUSH32 0x48656C6C6F20576F726C64732100000000000000000000000000000000000000 DUP2 MSTORE POP PUSH1 0x4 SWAP1 DUP2 PUSH2 0xC7 SWAP2 SWAP1 PUSH2 0x36A JUMP JUMPDEST POP PUSH20 0x5B38DA6A701C568545DCFCB03FCB875F56BEDDC4 PUSH1 0x5 PUSH0 PUSH2 0x100 EXP DUP2 SLOAD DUP2 PUSH20 0xFFFFFFFFFFFFFFFFFFFFFFFFFFFFFFFFFFFFFFFF MUL NOT AND SWAP1 DUP4 PUSH20 0xFFFFFFFFFFFFFFFFFFFFFFFFFFFFFFFFFFFFFFFF AND MUL OR SWAP1 SSTORE POP CALLVALUE DUP1 ISZERO PUSH2 0x127 JUMPI PUSH0 PUSH0 REVERT JUMPDEST POP PUSH2 0x439 JUMP JUMPDEST PUSH0 DUP2 MLOAD SWAP1 POP SWAP2 SWAP1 POP JUMP JUMPDEST PUSH32 0x4E487B7100000000000000000000000000000000000000000000000000000000 PUSH0 MSTORE PUSH1 0x41 PUSH1 0x4 MSTORE PUSH1 0x24 PUSH0 REVERT JUMPDEST PUSH32 0x4E487B7100000000000000000000000000000000000000000000000000000000 PUSH0 MSTORE PUSH1 0x22 PUSH1 0x4 MSTORE PUSH1 0x24 PUSH0 REVERT JUMPDEST PUSH0 PUSH1 0x2 DUP3 DIV SWAP1 POP PUSH1 0x1 DUP3 AND DUP1 PUSH2 0x1A8 JUMPI PUSH1 0x7F DUP3 AND SWAP2 POP JUMPDEST PUSH1 0x20 DUP3 LT DUP2 SUB PUSH2 0x1BB JUMPI PUSH2 0x1BA PUSH2 0x164 JUMP JUMPDEST JUMPDEST POP SWAP2 SWAP1 POP JUMP JUMPDEST PUSH0 DUP2 SWAP1 POP DUP2 PUSH0 MSTORE PUSH1 0x20 PUSH0 KECCAK256 SWAP1 POP SWAP2 SWAP1 POP JUMP JUMPDEST PUSH0 PUSH1 0x20 PUSH1 0x1F DUP4 ADD DIV SWAP1 POP SWAP2 SWAP1 POP JUMP JUMPDEST PUSH0 DUP3 DUP3 SHL SWAP1 POP SWAP3 SWAP2 POP POP JUMP JUMPDEST PUSH0 PUSH1 0x8 DUP4 MUL PUSH2 0x21D PUSH32 0xFFFFFFFFFFFFFFFFFFFFFFFFFFFFFFFFFFFFFFFFFFFFFFFFFFFFFFFFFFFFFFFF DUP3 PUSH2 0x1E2 JUMP JUMPDEST PUSH2 0x227 DUP7 DUP4 PUSH2 0x1E2 JUMP JUMPDEST SWAP6 POP DUP1 NOT DUP5 AND SWAP4 POP DUP1 DUP7 AND DUP5 OR SWAP3 POP POP POP SWAP4 SWAP3 POP POP POP JUMP JUMPDEST PUSH0 DUP2 SWAP1 POP SWAP2 SWAP1 POP JUMP JUMPDEST PUSH0 DUP2 SWAP1 POP SWAP2 SWAP1 POP JUMP JUMPDEST PUSH0 PUSH2 0x26B PUSH2 0x266 PUSH2 0x261 DUP5 PUSH2 0x23F JUMP JUMPDEST PUSH2 0x248 JUMP JUMPDEST PUSH2 0x23F JUMP JUMPDEST SWAP1 POP SWAP2 SWAP1 POP JUMP JUMPDEST PUSH0 DUP2 SWAP1 POP SWAP2 SWAP1 POP JUMP JUMPDEST PUSH2 0x284 DUP4 PUSH2 0x251 JUMP JUMPDEST PUSH2 0x298 PUSH2 0x290 DUP3 PUSH2 0x272 JUMP JUMPDEST DUP5 DUP5 SLOAD PUSH2 0x1EE JUMP JUMPDEST DUP3 SSTORE POP POP POP POP JUMP JUMPDEST PUSH0 PUSH0 SWAP1 POP SWAP1 JUMP JUMPDEST PUSH2 0x2AF PUSH2 0x2A0 JUMP JUMPDEST PUSH2 0x2BA DUP2 DUP5 DUP5 PUSH2 0x27B JUMP JUMPDEST POP POP POP JUMP JUMPDEST JUMPDEST DUP2 DUP2 LT ISZERO PUSH2 0x2DD JUMPI PUSH2 0x2D2 PUSH0 DUP3 PUSH2 0x2A7 JUMP JUMPDEST PUSH1 0x1 DUP2 ADD SWAP1 POP PUSH2 0x2C0 JUMP JUMPDEST POP POP JUMP JUMPDEST PUSH1 0x1F DUP3 GT ISZERO PUSH2 0x322 JUMPI PUSH2 0x2F3 DUP2 PUSH2 0x1C1 JUMP JUMPDEST PUSH2 0x2FC DUP5 PUSH2 0x1D3 JUMP JUMPDEST DUP2 ADD PUSH1 0x20 DUP6 LT ISZERO PUSH2 0x30B JUMPI DUP2 SWAP1 POP JUMPDEST PUSH2 0x31F PUSH2 0x317 DUP6 PUSH2 0x1D3 JUMP JUMPDEST DUP4 ADD DUP3 PUSH2 0x2BF JUMP JUMPDEST POP POP JUMPDEST POP POP POP JUMP JUMPDEST PUSH0 DUP3 DUP3 SHR SWAP1 POP SWAP3 SWAP2 POP POP JUMP JUMPDEST PUSH0 PUSH2 0x342 PUSH0 NOT DUP5 PUSH1 0x8 MUL PUSH2 0x327 JUMP JUMPDEST NOT DUP1 DUP4 AND SWAP2 POP POP SWAP3 SWAP2 POP POP JUMP JUMPDEST PUSH0 PUSH2 0x35A DUP4 DUP4 PUSH2 0x333 JUMP JUMPDEST SWAP2 POP DUP3 PUSH1 0x2 MUL DUP3 OR SWAP1 POP SWAP3 SWAP2 POP POP JUMP JUMPDEST PUSH2 0x373 DUP3 PUSH2 0x12D JUMP JUMPDEST PUSH8 0xFFFFFFFFFFFFFFFF DUP2 GT ISZERO PUSH2 0x38C JUMPI PUSH2 0x38B PUSH2 0x137 JUMP JUMPDEST JUMPDEST PUSH2 0x396 DUP3 SLOAD PUSH2 0x191 JUMP JUMPDEST PUSH2 0x3A1 DUP3 DUP3 DUP6 PUSH2 0x2E1 JUMP JUMPDEST PUSH0 PUSH1 0x20 SWAP1 POP PUSH1 0x1F DUP4 GT PUSH1 0x1 DUP2 EQ PUSH2 0x3D2 JUMPI PUSH0 DUP5 ISZERO PUSH2 0x3C0 JUMPI DUP3 DUP8 ADD MLOAD SWAP1 POP JUMPDEST PUSH2 0x3CA DUP6 DUP3 PUSH2 0x34F JUMP JUMPDEST DUP7 SSTORE POP PUSH2 0x431 JUMP JUMPDEST PUSH1 0x1F NOT DUP5 AND PUSH2 0x3E0 DUP7 PUSH2 0x1C1 JUMP JUMPDEST PUSH0 JUMPDEST DUP3 DUP2 LT ISZERO PUSH2 0x407 JUMPI DUP5 DUP10 ADD MLOAD DUP3 SSTORE PUSH1 0x1 DUP3 ADD SWAP2 POP PUSH1 0x20 DUP6 ADD SWAP5 POP PUSH1 0x20 DUP2 ADD SWAP1 POP PUSH2 0x3E2 JUMP JUMPDEST DUP7 DUP4 LT ISZERO PUSH2 0x424 JUMPI DUP5 DUP10 ADD MLOAD PUSH2 0x420 PUSH1 0x1F DUP10 AND DUP3 PUSH2 0x333 JUMP JUMPDEST DUP4 SSTORE POP JUMPDEST PUSH1 0x1 PUSH1 0x2 DUP9 MUL ADD DUP9 SSTORE POP POP POP JUMPDEST POP POP POP POP POP POP JUMP JUMPDEST PUSH2 0xE16 DUP1 PUSH2 0x446 PUSH0 CODECOPY PUSH0 RETURN INVALID PUSH1 0x80 PUSH1 0x40 MSTORE CALLVALUE DUP1 ISZERO PUSH2 0xF JUMPI PUSH0 PUSH0 REVERT JUMPDEST POP PUSH1 0x4 CALLDATASIZE LT PUSH2 0x7B JUMPI PUSH0 CALLDATALOAD PUSH1 0xE0 SHR DUP1 PUSH4 0x9B04D01A GT PUSH2 0x59 JUMPI DUP1 PUSH4 0x9B04D01A EQ PUSH2 0xD5 JUMPI DUP1 PUSH4 0xAEF0FCF4 EQ PUSH2 0x105 JUMPI DUP1 PUSH4 0xC7FE7454 EQ PUSH2 0x135 JUMPI DUP1 PUSH4 0xEF5FB05B EQ PUSH2 0x151 JUMPI PUSH2 0x7B JUMP JUMPDEST DUP1 PUSH4 0x96B696F EQ PUSH2 0x7F JUMPI DUP1 PUSH4 0x1D095162 EQ PUSH2 0x9B JUMPI DUP1 PUSH4 0x4CC9F11A EQ PUSH2 0xB9 JUMPI JUMPDEST PUSH0 PUSH0 REVERT JUMPDEST PUSH2 0x99 PUSH1 0x4 DUP1 CALLDATASIZE SUB DUP2 ADD SWAP1 PUSH2 0x94 SWAP2 SWAP1 PUSH2 0x916 JUMP JUMPDEST PUSH2 0x16F JUMP JUMPDEST STOP JUMPDEST PUSH2 0xA3 PUSH2 0x221 JUMP JUMPDEST PUSH1 0x40 MLOAD PUSH2 0xB0 SWAP2 SWAP1 PUSH2 0x9D0 JUMP JUMPDEST PUSH1 0x40 MLOAD DUP1 SWAP2 SUB SWAP1 RETURN JUMPDEST PUSH2 0xD3 PUSH1 0x4 DUP1 CALLDATASIZE SUB DUP2 ADD SWAP1 PUSH2 0xCE SWAP2 SWAP1 PUSH2 0x916 JUMP JUMPDEST PUSH2 0x2B9 JUMP JUMPDEST STOP JUMPDEST PUSH2 0xEF PUSH1 0x4 DUP1 CALLDATASIZE SUB DUP2 ADD SWAP1 PUSH2 0xEA SWAP2 SWAP1 PUSH2 0x9F0 JUMP JUMPDEST PUSH2 0x381 JUMP JUMPDEST PUSH1 0x40 MLOAD PUSH2 0xFC SWAP2 SWAP1 PUSH2 0x9D0 JUMP JUMPDEST PUSH1 0x40 MLOAD DUP1 SWAP2 SUB SWAP1 RETURN JUMPDEST PUSH2 0x11F PUSH1 0x4 DUP1 CALLDATASIZE SUB DUP2 ADD SWAP1 PUSH2 0x11A SWAP2 SWAP1 PUSH2 0x9F0 JUMP JUMPDEST PUSH2 0x51F JUMP JUMPDEST PUSH1 0x40 MLOAD PUSH2 0x12C SWAP2 SWAP1 PUSH2 0x9D0 JUMP JUMPDEST PUSH1 0x40 MLOAD DUP1 SWAP2 SUB SWAP1 RETURN JUMPDEST PUSH2 0x14F PUSH1 0x4 DUP1 CALLDATASIZE SUB DUP2 ADD SWAP1 PUSH2 0x14A SWAP2 SWAP1 PUSH2 0xA1B JUMP JUMPDEST PUSH2 0x6CA JUMP JUMPDEST STOP JUMPDEST PUSH2 0x159 PUSH2 0x6DD JUMP JUMPDEST PUSH1 0x40 MLOAD PUSH2 0x166 SWAP2 SWAP1 PUSH2 0x9D0 JUMP JUMPDEST PUSH1 0x40 MLOAD DUP1 SWAP2 SUB SWAP1 RETURN JUMPDEST PUSH0 PUSH1 0x40 MLOAD DUP1 PUSH1 0x60 ADD PUSH1 0x40 MSTORE DUP1 DUP5 DUP2 MSTORE PUSH1 0x20 ADD DUP4 DUP2 MSTORE PUSH1 0x20 ADD CALLER PUSH20 0xFFFFFFFFFFFFFFFFFFFFFFFFFFFFFFFFFFFFFFFF AND DUP2 MSTORE POP SWAP1 POP DUP1 PUSH1 0x7 PUSH0 DUP6 DUP2 MSTORE PUSH1 0x20 ADD SWAP1 DUP2 MSTORE PUSH1 0x20 ADD PUSH0 KECCAK256 PUSH0 DUP3 ADD MLOAD DUP2 PUSH0 ADD SSTORE PUSH1 0x20 DUP3 ADD MLOAD DUP2 PUSH1 0x1 ADD SWAP1 DUP2 PUSH2 0x1D2 SWAP2 SWAP1 PUSH2 0xC5F JUMP JUMPDEST POP PUSH1 0x40 DUP3 ADD MLOAD DUP2 PUSH1 0x2 ADD PUSH0 PUSH2 0x100 EXP DUP2 SLOAD DUP2 PUSH20 0xFFFFFFFFFFFFFFFFFFFFFFFFFFFFFFFFFFFFFFFF MUL NOT AND SWAP1 DUP4 PUSH20 0xFFFFFFFFFFFFFFFFFFFFFFFFFFFFFFFFFFFFFFFF AND MUL OR SWAP1 SSTORE POP SWAP1 POP POP POP POP POP JUMP JUMPDEST PUSH1 0x60 PUSH2 0x2B4 PUSH1 0x4 DUP1 SLOAD PUSH2 0x233 SWAP1 PUSH2 0xA8F JUMP JUMPDEST DUP1 PUSH1 0x1F ADD PUSH1 0x20 DUP1 SWAP2 DIV MUL PUSH1 0x20 ADD PUSH1 0x40 MLOAD SWAP1 DUP2 ADD PUSH1 0x40 MSTORE DUP1 SWAP3 SWAP2 SWAP1 DUP2 DUP2 MSTORE PUSH1 0x20 ADD DUP3 DUP1 SLOAD PUSH2 0x25F SWAP1 PUSH2 0xA8F JUMP JUMPDEST DUP1 ISZERO PUSH2 0x2AA JUMPI DUP1 PUSH1 0x1F LT PUSH2 0x281 JUMPI PUSH2 0x100 DUP1 DUP4 SLOAD DIV MUL DUP4 MSTORE SWAP2 PUSH1 0x20 ADD SWAP2 PUSH2 0x2AA JUMP JUMPDEST DUP3 ADD SWAP2 SWAP1 PUSH0 MSTORE PUSH1 0x20 PUSH0 KECCAK256 SWAP1 JUMPDEST DUP2 SLOAD DUP2 MSTORE SWAP1 PUSH1 0x1 ADD SWAP1 PUSH1 0x20 ADD DUP1 DUP4 GT PUSH2 0x28D JUMPI DUP3 SWAP1 SUB PUSH1 0x1F AND DUP3 ADD SWAP2 JUMPDEST POP POP POP POP POP PUSH2 0x76D JUMP JUMPDEST SWAP1 POP SWAP1 JUMP JUMPDEST PUSH0 PUSH1 0x40 MLOAD DUP1 PUSH1 0x60 ADD PUSH1 0x40 MSTORE DUP1 DUP5 DUP2 MSTORE PUSH1 0x20 ADD DUP4 DUP2 MSTORE PUSH1 0x20 ADD CALLER PUSH20 0xFFFFFFFFFFFFFFFFFFFFFFFFFFFFFFFFFFFFFFFF AND DUP2 MSTORE POP SWAP1 POP PUSH1 0x6 DUP2 SWAP1 DUP1 PUSH1 0x1 DUP2 SLOAD ADD DUP1 DUP3 SSTORE DUP1 SWAP2 POP POP PUSH1 0x1 SWAP1 SUB SWAP1 PUSH0 MSTORE PUSH1 0x20 PUSH0 KECCAK256 SWAP1 PUSH1 0x3 MUL ADD PUSH0 SWAP1 SWAP2 SWAP1 SWAP2 SWAP1 SWAP2 POP PUSH0 DUP3 ADD MLOAD DUP2 PUSH0 ADD SSTORE PUSH1 0x20 DUP3 ADD MLOAD DUP2 PUSH1 0x1 ADD SWAP1 DUP2 PUSH2 0x333 SWAP2 SWAP1 PUSH2 0xC5F JUMP JUMPDEST POP PUSH1 0x40 DUP3 ADD MLOAD DUP2 PUSH1 0x2 ADD PUSH0 PUSH2 0x100 EXP DUP2 SLOAD DUP2 PUSH20 0xFFFFFFFFFFFFFFFFFFFFFFFFFFFFFFFFFFFFFFFF MUL NOT AND SWAP1 DUP4 PUSH20 0xFFFFFFFFFFFFFFFFFFFFFFFFFFFFFFFFFFFFFFFF AND MUL OR SWAP1 SSTORE POP POP POP POP POP POP JUMP JUMPDEST PUSH1 0x60 PUSH0 PUSH0 SWAP1 POP JUMPDEST PUSH1 0x6 DUP1 SLOAD SWAP1 POP DUP2 LT ISZERO PUSH2 0x485 JUMPI DUP3 PUSH1 0x6 DUP3 DUP2 SLOAD DUP2 LT PUSH2 0x3AA JUMPI PUSH2 0x3A9 PUSH2 0xD2E JUMP JUMPDEST JUMPDEST SWAP1 PUSH0 MSTORE PUSH1 0x20 PUSH0 KECCAK256 SWAP1 PUSH1 0x3 MUL ADD PUSH0 ADD SLOAD SUB PUSH2 0x478 JUMPI PUSH2 0x470 PUSH1 0x6 DUP3 DUP2 SLOAD DUP2 LT PUSH2 0x3D5 JUMPI PUSH2 0x3D4 PUSH2 0xD2E JUMP JUMPDEST JUMPDEST SWAP1 PUSH0 MSTORE PUSH1 0x20 PUSH0 KECCAK256 SWAP1 PUSH1 0x3 MUL ADD PUSH1 0x1 ADD DUP1 SLOAD PUSH2 0x3EF SWAP1 PUSH2 0xA8F JUMP JUMPDEST DUP1 PUSH1 0x1F ADD PUSH1 0x20 DUP1 SWAP2 DIV MUL PUSH1 0x20 ADD PUSH1 0x40 MLOAD SWAP1 DUP2 ADD PUSH1 0x40 MSTORE DUP1 SWAP3 SWAP2 SWAP1 DUP2 DUP2 MSTORE PUSH1 0x20 ADD DUP3 DUP1 SLOAD PUSH2 0x41B SWAP1 PUSH2 0xA8F JUMP JUMPDEST DUP1 ISZERO PUSH2 0x466 JUMPI DUP1 PUSH1 0x1F LT PUSH2 0x43D JUMPI PUSH2 0x100 DUP1 DUP4 SLOAD DIV MUL DUP4 MSTORE SWAP2 PUSH1 0x20 ADD SWAP2 PUSH2 0x466 JUMP JUMPDEST DUP3 ADD SWAP2 SWAP1 PUSH0 MSTORE PUSH1 0x20 PUSH0 KECCAK256 SWAP1 JUMPDEST DUP2 SLOAD DUP2 MSTORE SWAP1 PUSH1 0x1 ADD SWAP1 PUSH1 0x20 ADD DUP1 DUP4 GT PUSH2 0x449 JUMPI DUP3 SWAP1 SUB PUSH1 0x1F AND DUP3 ADD SWAP2 JUMPDEST POP POP POP POP POP PUSH2 0x76D JUMP JUMPDEST SWAP2 POP POP PUSH2 0x51A JUMP JUMPDEST DUP1 DUP1 PUSH1 0x1 ADD SWAP2 POP POP PUSH2 0x388 JUMP JUMPDEST POP PUSH2 0x517 PUSH1 0x4 DUP1 SLOAD PUSH2 0x496 SWAP1 PUSH2 0xA8F JUMP JUMPDEST DUP1 PUSH1 0x1F ADD PUSH1 0x20 DUP1 SWAP2 DIV MUL PUSH1 0x20 ADD PUSH1 0x40 MLOAD SWAP1 DUP2 ADD PUSH1 0x40 MSTORE DUP1 SWAP3 SWAP2 SWAP1 DUP2 DUP2 MSTORE PUSH1 0x20 ADD DUP3 DUP1 SLOAD PUSH2 0x4C2 SWAP1 PUSH2 0xA8F JUMP JUMPDEST DUP1 ISZERO PUSH2 0x50D JUMPI DUP1 PUSH1 0x1F LT PUSH2 0x4E4 JUMPI PUSH2 0x100 DUP1 DUP4 SLOAD DIV MUL DUP4 MSTORE SWAP2 PUSH1 0x20 ADD SWAP2 PUSH2 0x50D JUMP JUMPDEST DUP3 ADD SWAP2 SWAP1 PUSH0 MSTORE PUSH1 0x20 PUSH0 KECCAK256 SWAP1 JUMPDEST DUP2 SLOAD DUP2 MSTORE SWAP1 PUSH1 0x1 ADD SWAP1 PUSH1 0x20 ADD DUP1 DUP4 GT PUSH2 0x4F0 JUMPI DUP3 SWAP1 SUB PUSH1 0x1F AND DUP3 ADD SWAP2 JUMPDEST POP POP POP POP POP PUSH2 0x76D JUMP JUMPDEST SWAP1 POP JUMPDEST SWAP2 SWAP1 POP JUMP JUMPDEST PUSH1 0x60 PUSH0 PUSH20 0xFFFFFFFFFFFFFFFFFFFFFFFFFFFFFFFFFFFFFFFF AND PUSH1 0x7 PUSH0 DUP5 DUP2 MSTORE PUSH1 0x20 ADD SWAP1 DUP2 MSTORE PUSH1 0x20 ADD PUSH0 KECCAK256 PUSH1 0x2 ADD PUSH0 SWAP1 SLOAD SWAP1 PUSH2 0x100 EXP SWAP1 DIV PUSH20 0xFFFFFFFFFFFFFFFFFFFFFFFFFFFFFFFFFFFFFFFF AND PUSH20 0xFFFFFFFFFFFFFFFFFFFFFFFFFFFFFFFFFFFFFFFF AND SUB PUSH2 0x61F JUMPI PUSH2 0x618 PUSH1 0x4 DUP1 SLOAD PUSH2 0x597 SWAP1 PUSH2 0xA8F JUMP JUMPDEST DUP1 PUSH1 0x1F ADD PUSH1 0x20 DUP1 SWAP2 DIV MUL PUSH1 0x20 ADD PUSH1 0x40 MLOAD SWAP1 DUP2 ADD PUSH1 0x40 MSTORE DUP1 SWAP3 SWAP2 SWAP1 DUP2 DUP2 MSTORE PUSH1 0x20 ADD DUP3 DUP1 SLOAD PUSH2 0x5C3 SWAP1 PUSH2 0xA8F JUMP JUMPDEST DUP1 ISZERO PUSH2 0x60E JUMPI DUP1 PUSH1 0x1F LT PUSH2 0x5E5 JUMPI PUSH2 0x100 DUP1 DUP4 SLOAD DIV MUL DUP4 MSTORE SWAP2 PUSH1 0x20 ADD SWAP2 PUSH2 0x60E JUMP JUMPDEST DUP3 ADD SWAP2 SWAP1 PUSH0 MSTORE PUSH1 0x20 PUSH0 KECCAK256 SWAP1 JUMPDEST DUP2 SLOAD DUP2 MSTORE SWAP1 PUSH1 0x1 ADD SWAP1 PUSH1 0x20 ADD DUP1 DUP4 GT PUSH2 0x5F1 JUMPI DUP3 SWAP1 SUB PUSH1 0x1F AND DUP3 ADD SWAP2 JUMPDEST POP POP POP POP POP PUSH2 0x76D JUMP JUMPDEST SWAP1 POP PUSH2 0x6C5 JUMP JUMPDEST PUSH2 0x6C2 PUSH1 0x7 PUSH0 DUP5 DUP2 MSTORE PUSH1 0x20 ADD SWAP1 DUP2 MSTORE PUSH1 0x20 ADD PUSH0 KECCAK256 PUSH1 0x1 ADD DUP1 SLOAD PUSH2 0x641 SWAP1 PUSH2 0xA8F JUMP JUMPDEST DUP1 PUSH1 0x1F ADD PUSH1 0x20 DUP1 SWAP2 DIV MUL PUSH1 0x20 ADD PUSH1 0x40 MLOAD SWAP1 DUP2 ADD PUSH1 0x40 MSTORE DUP1 SWAP3 SWAP2 SWAP1 DUP2 DUP2 MSTORE PUSH1 0x20 ADD DUP3 DUP1 SLOAD PUSH2 0x66D SWAP1 PUSH2 0xA8F JUMP JUMPDEST DUP1 ISZERO PUSH2 0x6B8 JUMPI DUP1 PUSH1 0x1F LT PUSH2 0x68F JUMPI PUSH2 0x100 DUP1 DUP4 SLOAD DIV MUL DUP4 MSTORE SWAP2 PUSH1 0x20 ADD SWAP2 PUSH2 0x6B8 JUMP JUMPDEST DUP3 ADD SWAP2 SWAP1 PUSH0 MSTORE PUSH1 0x20 PUSH0 KECCAK256 SWAP1 JUMPDEST DUP2 SLOAD DUP2 MSTORE SWAP1 PUSH1 0x1 ADD SWAP1 PUSH1 0x20 ADD DUP1 DUP4 GT PUSH2 0x69B JUMPI DUP3 SWAP1 SUB PUSH1 0x1F AND DUP3 ADD SWAP2 JUMPDEST POP POP POP POP POP PUSH2 0x76D JUMP JUMPDEST SWAP1 POP JUMPDEST SWAP2 SWAP1 POP JUMP JUMPDEST DUP1 PUSH1 0x4 SWAP1 DUP2 PUSH2 0x6D9 SWAP2 SWAP1 PUSH2 0xC5F JUMP JUMPDEST POP POP JUMP JUMPDEST PUSH1 0x60 PUSH1 0x4 DUP1 SLOAD PUSH2 0x6EC SWAP1 PUSH2 0xA8F JUMP JUMPDEST DUP1 PUSH1 0x1F ADD PUSH1 0x20 DUP1 SWAP2 DIV MUL PUSH1 0x20 ADD PUSH1 0x40 MLOAD SWAP1 DUP2 ADD PUSH1 0x40 MSTORE DUP1 SWAP3 SWAP2 SWAP1 DUP2 DUP2 MSTORE PUSH1 0x20 ADD DUP3 DUP1 SLOAD PUSH2 0x718 SWAP1 PUSH2 0xA8F JUMP JUMPDEST DUP1 ISZERO PUSH2 0x763 JUMPI DUP1 PUSH1 0x1F LT PUSH2 0x73A JUMPI PUSH2 0x100 DUP1 DUP4 SLOAD DIV MUL DUP4 MSTORE SWAP2 PUSH1 0x20 ADD SWAP2 PUSH2 0x763 JUMP JUMPDEST DUP3 ADD SWAP2 SWAP1 PUSH0 MSTORE PUSH1 0x20 PUSH0 KECCAK256 SWAP1 JUMPDEST DUP2 SLOAD DUP2 MSTORE SWAP1 PUSH1 0x1 ADD SWAP1 PUSH1 0x20 ADD DUP1 DUP4 GT PUSH2 0x746 JUMPI DUP3 SWAP1 SUB PUSH1 0x1F AND DUP3 ADD SWAP2 JUMPDEST POP POP POP POP POP SWAP1 POP SWAP1 JUMP JUMPDEST PUSH1 0x60 DUP2 PUSH1 0x40 MLOAD PUSH1 0x20 ADD PUSH2 0x780 SWAP2 SWAP1 PUSH2 0xDBB JUMP JUMPDEST PUSH1 0x40 MLOAD PUSH1 0x20 DUP2 DUP4 SUB SUB DUP2 MSTORE SWAP1 PUSH1 0x40 MSTORE SWAP1 POP SWAP2 SWAP1 POP JUMP JUMPDEST PUSH0 PUSH1 0x40 MLOAD SWAP1 POP SWAP1 JUMP JUMPDEST PUSH0 PUSH0 REVERT JUMPDEST PUSH0 PUSH0 REVERT JUMPDEST PUSH0 DUP2 SWAP1 POP SWAP2 SWAP1 POP JUMP JUMPDEST PUSH2 0x7B9 DUP2 PUSH2 0x7A7 JUMP JUMPDEST DUP2 EQ PUSH2 0x7C3 JUMPI PUSH0 PUSH0 REVERT JUMPDEST POP JUMP JUMPDEST PUSH0 DUP2 CALLDATALOAD SWAP1 POP PUSH2 0x7D4 DUP2 PUSH2 0x7B0 JUMP JUMPDEST SWAP3 SWAP2 POP POP JUMP JUMPDEST PUSH0 PUSH0 REVERT JUMPDEST PUSH0 PUSH0 REVERT JUMPDEST PUSH0 PUSH1 0x1F NOT PUSH1 0x1F DUP4 ADD AND SWAP1 POP SWAP2 SWAP1 POP JUMP JUMPDEST PUSH32 0x4E487B7100000000000000000000000000000000000000000000000000000000 PUSH0 MSTORE PUSH1 0x41 PUSH1 0x4 MSTORE PUSH1 0x24 PUSH0 REVERT JUMPDEST PUSH2 0x828 DUP3 PUSH2 0x7E2 JUMP JUMPDEST DUP2 ADD DUP2 DUP2 LT PUSH8 0xFFFFFFFFFFFFFFFF DUP3 GT OR ISZERO PUSH2 0x847 JUMPI PUSH2 0x846 PUSH2 0x7F2 JUMP JUMPDEST JUMPDEST DUP1 PUSH1 0x40 MSTORE POP POP POP JUMP JUMPDEST PUSH0 PUSH2 0x859 PUSH2 0x796 JUMP JUMPDEST SWAP1 POP PUSH2 0x865 DUP3 DUP3 PUSH2 0x81F JUMP JUMPDEST SWAP2 SWAP1 POP JUMP JUMPDEST PUSH0 PUSH8 0xFFFFFFFFFFFFFFFF DUP3 GT ISZERO PUSH2 0x884 JUMPI PUSH2 0x883 PUSH2 0x7F2 JUMP JUMPDEST JUMPDEST PUSH2 0x88D DUP3 PUSH2 0x7E2 JUMP JUMPDEST SWAP1 POP PUSH1 0x20 DUP2 ADD SWAP1 POP SWAP2 SWAP1 POP JUMP JUMPDEST DUP3 DUP2 DUP4 CALLDATACOPY PUSH0 DUP4 DUP4 ADD MSTORE POP POP POP JUMP JUMPDEST PUSH0 PUSH2 0x8BA PUSH2 0x8B5 DUP5 PUSH2 0x86A JUMP JUMPDEST PUSH2 0x850 JUMP JUMPDEST SWAP1 POP DUP3 DUP2 MSTORE PUSH1 0x20 DUP2 ADD DUP5 DUP5 DUP5 ADD GT ISZERO PUSH2 0x8D6 JUMPI PUSH2 0x8D5 PUSH2 0x7DE JUMP JUMPDEST JUMPDEST PUSH2 0x8E1 DUP5 DUP3 DUP6 PUSH2 0x89A JUMP JUMPDEST POP SWAP4 SWAP3 POP POP POP JUMP JUMPDEST PUSH0 DUP3 PUSH1 0x1F DUP4 ADD SLT PUSH2 0x8FD JUMPI PUSH2 0x8FC PUSH2 0x7DA JUMP JUMPDEST JUMPDEST DUP2 CALLDATALOAD PUSH2 0x90D DUP5 DUP3 PUSH1 0x20 DUP7 ADD PUSH2 0x8A8 JUMP JUMPDEST SWAP2 POP POP SWAP3 SWAP2 POP POP JUMP JUMPDEST PUSH0 PUSH0 PUSH1 0x40 DUP4 DUP6 SUB SLT ISZERO PUSH2 0x92C JUMPI PUSH2 0x92B PUSH2 0x79F JUMP JUMPDEST JUMPDEST PUSH0 PUSH2 0x939 DUP6 DUP3 DUP7 ADD PUSH2 0x7C6 JUMP JUMPDEST SWAP3 POP POP PUSH1 0x20 DUP4 ADD CALLDATALOAD PUSH8 0xFFFFFFFFFFFFFFFF DUP2 GT ISZERO PUSH2 0x95A JUMPI PUSH2 0x959 PUSH2 0x7A3 JUMP JUMPDEST JUMPDEST PUSH2 0x966 DUP6 DUP3 DUP7 ADD PUSH2 0x8E9 JUMP JUMPDEST SWAP2 POP POP SWAP3 POP SWAP3 SWAP1 POP JUMP JUMPDEST PUSH0 DUP2 MLOAD SWAP1 POP SWAP2 SWAP1 POP JUMP JUMPDEST PUSH0 DUP3 DUP3 MSTORE PUSH1 0x20 DUP3 ADD SWAP1 POP SWAP3 SWAP2 POP POP JUMP JUMPDEST DUP3 DUP2 DUP4 MCOPY PUSH0 DUP4 DUP4 ADD MSTORE POP POP POP JUMP JUMPDEST PUSH0 PUSH2 0x9A2 DUP3 PUSH2 0x970 JUMP JUMPDEST PUSH2 0x9AC DUP2 DUP6 PUSH2 0x97A JUMP JUMPDEST SWAP4 POP PUSH2 0x9BC DUP2 DUP6 PUSH1 0x20 DUP7 ADD PUSH2 0x98A JUMP JUMPDEST PUSH2 0x9C5 DUP2 PUSH2 0x7E2 JUMP JUMPDEST DUP5 ADD SWAP2 POP POP SWAP3 SWAP2 POP POP JUMP JUMPDEST PUSH0 PUSH1 0x20 DUP3 ADD SWAP1 POP DUP2 DUP2 SUB PUSH0 DUP4 ADD MSTORE PUSH2 0x9E8 DUP2 DUP5 PUSH2 0x998 JUMP JUMPDEST SWAP1 POP SWAP3 SWAP2 POP POP JUMP JUMPDEST PUSH0 PUSH1 0x20 DUP3 DUP5 SUB SLT ISZERO PUSH2 0xA05 JUMPI PUSH2 0xA04 PUSH2 0x79F JUMP JUMPDEST JUMPDEST PUSH0 PUSH2 0xA12 DUP5 DUP3 DUP6 ADD PUSH2 0x7C6 JUMP JUMPDEST SWAP2 POP POP SWAP3 SWAP2 POP POP JUMP JUMPDEST PUSH0 PUSH1 0x20 DUP3 DUP5 SUB SLT ISZERO PUSH2 0xA30 JUMPI PUSH2 0xA2F PUSH2 0x79F JUMP JUMPDEST JUMPDEST PUSH0 DUP3 ADD CALLDATALOAD PUSH8 0xFFFFFFFFFFFFFFFF DUP2 GT ISZERO PUSH2 0xA4D JUMPI PUSH2 0xA4C PUSH2 0x7A3 JUMP JUMPDEST JUMPDEST PUSH2 0xA59 DUP5 DUP3 DUP6 ADD PUSH2 0x8E9 JUMP JUMPDEST SWAP2 POP POP SWAP3 SWAP2 POP POP JUMP JUMPDEST PUSH32 0x4E487B7100000000000000000000000000000000000000000000000000000000 PUSH0 MSTORE PUSH1 0x22 PUSH1 0x4 MSTORE PUSH1 0x24 PUSH0 REVERT JUMPDEST PUSH0 PUSH1 0x2 DUP3 DIV SWAP1 POP PUSH1 0x1 DUP3 AND DUP1 PUSH2 0xAA6 JUMPI PUSH1 0x7F DUP3 AND SWAP2 POP JUMPDEST PUSH1 0x20 DUP3 LT DUP2 SUB PUSH2 0xAB9 JUMPI PUSH2 0xAB8 PUSH2 0xA62 JUMP JUMPDEST JUMPDEST POP SWAP2 SWAP1 POP JUMP JUMPDEST PUSH0 DUP2 SWAP1 POP DUP2 PUSH0 MSTORE PUSH1 0x20 PUSH0 KECCAK256 SWAP1 POP SWAP2 SWAP1 POP JUMP JUMPDEST PUSH0 PUSH1 0x20 PUSH1 0x1F DUP4 ADD DIV SWAP1 POP SWAP2 SWAP1 POP JUMP JUMPDEST PUSH0 DUP3 DUP3 SHL SWAP1 POP SWAP3 SWAP2 POP POP JUMP JUMPDEST PUSH0 PUSH1 0x8 DUP4 MUL PUSH2 0xB1B PUSH32 0xFFFFFFFFFFFFFFFFFFFFFFFFFFFFFFFFFFFFFFFFFFFFFFFFFFFFFFFFFFFFFFFF DUP3 PUSH2 0xAE0 JUMP JUMPDEST PUSH2 0xB25 DUP7 DUP4 PUSH2 0xAE0 JUMP JUMPDEST SWAP6 POP DUP1 NOT DUP5 AND SWAP4 POP DUP1 DUP7 AND DUP5 OR SWAP3 POP POP POP SWAP4 SWAP3 POP POP POP JUMP JUMPDEST PUSH0 DUP2 SWAP1 POP SWAP2 SWAP1 POP JUMP JUMPDEST PUSH0 PUSH2 0xB60 PUSH2 0xB5B PUSH2 0xB56 DUP5 PUSH2 0x7A7 JUMP JUMPDEST PUSH2 0xB3D JUMP JUMPDEST PUSH2 0x7A7 JUMP JUMPDEST SWAP1 POP SWAP2 SWAP1 POP JUMP JUMPDEST PUSH0 DUP2 SWAP1 POP SWAP2 SWAP1 POP JUMP JUMPDEST PUSH2 0xB79 DUP4 PUSH2 0xB46 JUMP JUMPDEST PUSH2 0xB8D PUSH2 0xB85 DUP3 PUSH2 0xB67 JUMP JUMPDEST DUP5 DUP5 SLOAD PUSH2 0xAEC JUMP JUMPDEST DUP3 SSTORE POP POP POP POP JUMP JUMPDEST PUSH0 PUSH0 SWAP1 POP SWAP1 JUMP JUMPDEST PUSH2 0xBA4 PUSH2 0xB95 JUMP JUMPDEST PUSH2 0xBAF DUP2 DUP5 DUP5 PUSH2 0xB70 JUMP JUMPDEST POP POP POP JUMP JUMPDEST JUMPDEST DUP2 DUP2 LT ISZERO PUSH2 0xBD2 JUMPI PUSH2 0xBC7 PUSH0 DUP3 PUSH2 0xB9C JUMP JUMPDEST PUSH1 0x1 DUP2 ADD SWAP1 POP PUSH2 0xBB5 JUMP JUMPDEST POP POP JUMP JUMPDEST PUSH1 0x1F DUP3 GT ISZERO PUSH2 0xC17 JUMPI PUSH2 0xBE8 DUP2 PUSH2 0xABF JUMP JUMPDEST PUSH2 0xBF1 DUP5 PUSH2 0xAD1 JUMP JUMPDEST DUP2 ADD PUSH1 0x20 DUP6 LT ISZERO PUSH2 0xC00 JUMPI DUP2 SWAP1 POP JUMPDEST PUSH2 0xC14 PUSH2 0xC0C DUP6 PUSH2 0xAD1 JUMP JUMPDEST DUP4 ADD DUP3 PUSH2 0xBB4 JUMP JUMPDEST POP POP JUMPDEST POP POP POP JUMP JUMPDEST PUSH0 DUP3 DUP3 SHR SWAP1 POP SWAP3 SWAP2 POP POP JUMP JUMPDEST PUSH0 PUSH2 0xC37 PUSH0 NOT DUP5 PUSH1 0x8 MUL PUSH2 0xC1C JUMP JUMPDEST NOT DUP1 DUP4 AND SWAP2 POP POP SWAP3 SWAP2 POP POP JUMP JUMPDEST PUSH0 PUSH2 0xC4F DUP4 DUP4 PUSH2 0xC28 JUMP JUMPDEST SWAP2 POP DUP3 PUSH1 0x2 MUL DUP3 OR SWAP1 POP SWAP3 SWAP2 POP POP JUMP JUMPDEST PUSH2 0xC68 DUP3 PUSH2 0x970 JUMP JUMPDEST PUSH8 0xFFFFFFFFFFFFFFFF DUP2 GT ISZERO PUSH2 0xC81 JUMPI PUSH2 0xC80 PUSH2 0x7F2 JUMP JUMPDEST JUMPDEST PUSH2 0xC8B DUP3 SLOAD PUSH2 0xA8F JUMP JUMPDEST PUSH2 0xC96 DUP3 DUP3 DUP6 PUSH2 0xBD6 JUMP JUMPDEST PUSH0 PUSH1 0x20 SWAP1 POP PUSH1 0x1F DUP4 GT PUSH1 0x1 DUP2 EQ PUSH2 0xCC7 JUMPI PUSH0 DUP5 ISZERO PUSH2 0xCB5 JUMPI DUP3 DUP8 ADD MLOAD SWAP1 POP JUMPDEST PUSH2 0xCBF DUP6 DUP3 PUSH2 0xC44 JUMP JUMPDEST DUP7 SSTORE POP PUSH2 0xD26 JUMP JUMPDEST PUSH1 0x1F NOT DUP5 AND PUSH2 0xCD5 DUP7 PUSH2 0xABF JUMP JUMPDEST PUSH0 JUMPDEST DUP3 DUP2 LT ISZERO PUSH2 0xCFC JUMPI DUP5 DUP10 ADD MLOAD DUP3 SSTORE PUSH1 0x1 DUP3 ADD SWAP2 POP PUSH1 0x20 DUP6 ADD SWAP5 POP PUSH1 0x20 DUP2 ADD SWAP1 POP PUSH2 0xCD7 JUMP JUMPDEST DUP7 DUP4 LT ISZERO PUSH2 0xD19 JUMPI DUP5 DUP10 ADD MLOAD PUSH2 0xD15 PUSH1 0x1F DUP10 AND DUP3 PUSH2 0xC28 JUMP JUMPDEST DUP4 SSTORE POP JUMPDEST PUSH1 0x1 PUSH1 0x2 DUP9 MUL ADD DUP9 SSTORE POP POP POP JUMPDEST POP POP POP POP POP POP JUMP JUMPDEST PUSH32 0x4E487B7100000000000000000000000000000000000000000000000000000000 PUSH0 MSTORE PUSH1 0x32 PUSH1 0x4 MSTORE PUSH1 0x24 PUSH0 REVERT JUMPDEST PUSH0 DUP2 SWAP1 POP SWAP3 SWAP2 POP POP JUMP JUMPDEST PUSH0 PUSH2 0xD6F DUP3 PUSH2 0x970 JUMP JUMPDEST PUSH2 0xD79 DUP2 DUP6 PUSH2 0xD5B JUMP JUMPDEST SWAP4 POP PUSH2 0xD89 DUP2 DUP6 PUSH1 0x20 DUP7 ADD PUSH2 0x98A JUMP JUMPDEST DUP1 DUP5 ADD SWAP2 POP POP SWAP3 SWAP2 POP POP JUMP JUMPDEST PUSH32 0x46726F6D20446479277320436F6E747261637400000000000000000000000000 DUP2 MSTORE POP JUMP JUMPDEST PUSH0 PUSH2 0xDC6 DUP3 DUP5 PUSH2 0xD65 JUMP JUMPDEST SWAP2 POP PUSH2 0xDD1 DUP3 PUSH2 0xD95 JUMP JUMPDEST PUSH1 0x13 DUP3 ADD SWAP2 POP DUP2 SWAP1 POP SWAP3 SWAP2 POP POP JUMP INVALID LOG2 PUSH5 0x6970667358 0x22 SLT KECCAK256 SWAP8 SWAP16 SWAP8 0x1F 0xD4 0xB5 PUSH5 0x6D943B9B5D 0xD7 SWAP2 DATALOADN 0xC301 SWAP12 0xD2 EOFCREATE 0xE2 DUP13 0x2B SUB PUSH30 0xA0A2A00715680B64736F6C634300081E0033A26469706673582212200772 0xC7 0xCB SWAP13 OR CALLVALUE LOG2 PUSH26 0xD708ECD7C9E9823641964AE7485295768BB64A6135948A64736F PUSH13 0x634300081E0033000000000000 "
				},
				"gasEstimates": {
					"creation": {
						"codeDepositCost": "1364200",
						"executionCost": "1422",
						"totalCost": "1365622"
					},
					"external": {
						"CallSayHelloWorldinFactory(uint256,uint256)": "infinite",
						"CallSetHelloWorldinFactory(uint256,uint256,string)": "infinite",
						"createHelloWorld()": "infinite",
						"getHelloWorld(uint256)": "infinite"
					}
				},
				"methodIdentifiers": {
					"CallSayHelloWorldinFactory(uint256,uint256)": "7421d279",
					"CallSetHelloWorldinFactory(uint256,uint256,string)": "c4cbf9c8",
					"createHelloWorld()": "5e0a94cb",
					"getHelloWorld(uint256)": "2ab4bcd7"
				}
			},
			"storageLayout": {
				"storage": [
					{
						"astId": 6,
						"contract": "NextFundMe/factory/factory.sol:HelloWorldFactory",
						"label": "Varhw",
						"offset": 0,
						"slot": "0",
						"type": "t_contract(HelloWorld)279"
					},
					{
						"astId": 10,
						"contract": "NextFundMe/factory/factory.sol:HelloWorldFactory",
						"label": "Varhws",
						"offset": 0,
						"slot": "1",
						"type": "t_array(t_contract(HelloWorld)279)dyn_storage"
					}
				],
				"types": {
					"t_array(t_contract(HelloWorld)279)dyn_storage": {
						"base": "t_contract(HelloWorld)279",
						"encoding": "dynamic_array",
						"label": "contract HelloWorld[]",
						"numberOfBytes": "32"
					},
					"t_contract(HelloWorld)279": {
						"encoding": "inplace",
						"label": "contract HelloWorld",
						"numberOfBytes": "20"
					}
				}
			},
			"userdoc": {
				"kind": "user",
				"methods": {},
				"version": 1
			}
		}
	}
}