{
	"NewFundMe/fundme.sol": {
		"FundMe": {
			"abi": [
				{
					"inputs": [],
					"stateMutability": "nonpayable",
					"type": "constructor"
				},
				{
					"inputs": [
						{
							"internalType": "address",
							"name": "funder",
							"type": "address"
						}
					],
					"name": "FundersAmount",
					"outputs": [
						{
							"internalType": "uint256",
							"name": "",
							"type": "uint256"
						}
					],
					"stateMutability": "view",
					"type": "function"
				},
				{
					"inputs": [],
					"name": "MINIMUM_VALUE",
					"outputs": [
						{
							"internalType": "uint256",
							"name": "",
							"type": "uint256"
						}
					],
					"stateMutability": "view",
					"type": "function"
				},
				{
					"inputs": [],
					"name": "fund",
					"outputs": [],
					"stateMutability": "payable",
					"type": "function"
				},
				{
					"inputs": [],
					"name": "getChainlinkDataFeedLatestAnswer",
					"outputs": [
						{
							"internalType": "int256",
							"name": "",
							"type": "int256"
						}
					],
					"stateMutability": "view",
					"type": "function"
				}
			],
			"devdoc": {
				"kind": "dev",
				"methods": {},
				"version": 1
			},
			"evm": {
				"assembly": "    /* \"NewFundMe/fundme.sol\":367:1963  contract FundMe{... */\n  mstore(0x40, 0x80)\n    /* \"NewFundMe/fundme.sol\":618:626  1*10**18 */\n  0x0de0b6b3a7640000\n    /* \"NewFundMe/fundme.sol\":588:626  uint256 public  MINIMUM_VALUE=1*10**18 */\n  0x01\n  sstore\n    /* \"NewFundMe/fundme.sol\":955:1060  constructor (){... */\n  callvalue\n  dup1\n  iszero\n  tag_1\n  jumpi\n  revert(0x00, 0x00)\ntag_1:\n  pop\n    /* \"NewFundMe/fundme.sol\":1010:1052  0x694AA1769357215DE4FAC081bf1f309aDC325306 */\n  0x694aa1769357215de4fac081bf1f309adc325306\n    /* \"NewFundMe/fundme.sol\":979:987  dataFeed */\n  0x02\n  0x00\n    /* \"NewFundMe/fundme.sol\":979:1053  dataFeed=AggregatorV3Interface(0x694AA1769357215DE4FAC081bf1f309aDC325306) */\n  0x0100\n  exp\n  dup2\n  sload\n  dup2\n  0xffffffffffffffffffffffffffffffffffffffff\n  mul\n  not\n  and\n  swap1\n  dup4\n  0xffffffffffffffffffffffffffffffffffffffff\n  and\n  mul\n  or\n  swap1\n  sstore\n  pop\n    /* \"NewFundMe/fundme.sol\":367:1963  contract FundMe{... */\n  dataSize(sub_0)\n  dup1\n  dataOffset(sub_0)\n  0x00\n  codecopy\n  0x00\n  return\nstop\n\nsub_0: assembly {\n        /* \"NewFundMe/fundme.sol\":367:1963  contract FundMe{... */\n      mstore(0x40, 0x80)\n      jumpi(tag_1, lt(calldatasize, 0x04))\n      shr(0xe0, calldataload(0x00))\n      dup1\n      0x740c0664\n      eq\n      tag_2\n      jumpi\n      dup1\n      0xb60d4288\n      eq\n      tag_3\n      jumpi\n      dup1\n      0xbea4dfb5\n      eq\n      tag_4\n      jumpi\n      dup1\n      0xda5ea4ee\n      eq\n      tag_5\n      jumpi\n    tag_1:\n      revert(0x00, 0x00)\n        /* \"NewFundMe/fundme.sol\":463:517  mapping(address funder=> uint256) public FundersAmount */\n    tag_2:\n      callvalue\n      dup1\n      iszero\n      tag_6\n      jumpi\n      revert(0x00, 0x00)\n    tag_6:\n      pop\n      tag_7\n      0x04\n      dup1\n      calldatasize\n      sub\n      dup2\n      add\n      swap1\n      tag_8\n      swap2\n      swap1\n      tag_9\n      jump\t// in\n    tag_8:\n      tag_10\n      jump\t// in\n    tag_7:\n      mload(0x40)\n      tag_11\n      swap2\n      swap1\n      tag_12\n      jump\t// in\n    tag_11:\n      mload(0x40)\n      dup1\n      swap2\n      sub\n      swap1\n      return\n        /* \"NewFundMe/fundme.sol\":1066:1607  function fund() external payable { ... */\n    tag_3:\n      tag_13\n      tag_14\n      jump\t// in\n    tag_13:\n      stop\n        /* \"NewFundMe/fundme.sol\":1613:1960  function getChainlinkDataFeedLatestAnswer() public view returns (int) {... */\n    tag_4:\n      callvalue\n      dup1\n      iszero\n      tag_15\n      jumpi\n      revert(0x00, 0x00)\n    tag_15:\n      pop\n      tag_16\n      tag_17\n      jump\t// in\n    tag_16:\n      mload(0x40)\n      tag_18\n      swap2\n      swap1\n      tag_19\n      jump\t// in\n    tag_18:\n      mload(0x40)\n      dup1\n      swap2\n      sub\n      swap1\n      return\n        /* \"NewFundMe/fundme.sol\":588:626  uint256 public  MINIMUM_VALUE=1*10**18 */\n    tag_5:\n      callvalue\n      dup1\n      iszero\n      tag_20\n      jumpi\n      revert(0x00, 0x00)\n    tag_20:\n      pop\n      tag_21\n      tag_22\n      jump\t// in\n    tag_21:\n      mload(0x40)\n      tag_23\n      swap2\n      swap1\n      tag_12\n      jump\t// in\n    tag_23:\n      mload(0x40)\n      dup1\n      swap2\n      sub\n      swap1\n      return\n        /* \"NewFundMe/fundme.sol\":463:517  mapping(address funder=> uint256) public FundersAmount */\n    tag_10:\n      mstore(0x20, 0x00)\n      dup1\n      0x00\n      mstore\n      keccak256(0x00, 0x40)\n      0x00\n      swap2\n      pop\n      swap1\n      pop\n      sload\n      dup2\n      jump\t// out\n        /* \"NewFundMe/fundme.sol\":1066:1607  function fund() external payable { ... */\n    tag_14:\n        /* \"NewFundMe/fundme.sol\":1424:1437  MINIMUM_VALUE */\n      sload(0x01)\n        /* \"NewFundMe/fundme.sol\":1413:1422  msg.value */\n      callvalue\n        /* \"NewFundMe/fundme.sol\":1413:1437  msg.value>=MINIMUM_VALUE */\n      lt\n      iszero\n        /* \"NewFundMe/fundme.sol\":1405:1464  require(msg.value>=MINIMUM_VALUE,\"Please Send More ETH!!!\") */\n      tag_25\n      jumpi\n      mload(0x40)\n      0x08c379a000000000000000000000000000000000000000000000000000000000\n      dup2\n      mstore\n      0x04\n      add\n      tag_26\n      swap1\n      tag_27\n      jump\t// in\n    tag_26:\n      mload(0x40)\n      dup1\n      swap2\n      sub\n      swap1\n      revert\n    tag_25:\n        /* \"NewFundMe/fundme.sol\":1500:1509  msg.value */\n      callvalue\n        /* \"NewFundMe/fundme.sol\":1474:1487  FundersAmount */\n      0x00\n        /* \"NewFundMe/fundme.sol\":1474:1499  FundersAmount[msg.sender] */\n      0x00\n        /* \"NewFundMe/fundme.sol\":1488:1498  msg.sender */\n      caller\n        /* \"NewFundMe/fundme.sol\":1474:1499  FundersAmount[msg.sender] */\n      0xffffffffffffffffffffffffffffffffffffffff\n      and\n      0xffffffffffffffffffffffffffffffffffffffff\n      and\n      dup2\n      mstore\n      0x20\n      add\n      swap1\n      dup2\n      mstore\n      0x20\n      add\n      0x00\n      keccak256\n        /* \"NewFundMe/fundme.sol\":1474:1509  FundersAmount[msg.sender]=msg.value */\n      dup2\n      swap1\n      sstore\n      pop\n        /* \"NewFundMe/fundme.sol\":1066:1607  function fund() external payable { ... */\n      jump\t// out\n        /* \"NewFundMe/fundme.sol\":1613:1960  function getChainlinkDataFeedLatestAnswer() public view returns (int) {... */\n    tag_17:\n        /* \"NewFundMe/fundme.sol\":1678:1681  int */\n      0x00\n        /* \"NewFundMe/fundme.sol\":1768:1781  int256 answer */\n      0x00\n        /* \"NewFundMe/fundme.sol\":1904:1912  dataFeed */\n      0x02\n      0x00\n      swap1\n      sload\n      swap1\n      0x0100\n      exp\n      swap1\n      div\n      0xffffffffffffffffffffffffffffffffffffffff\n      and\n        /* \"NewFundMe/fundme.sol\":1904:1928  dataFeed.latestRoundData */\n      0xffffffffffffffffffffffffffffffffffffffff\n      and\n      0xfeaf968c\n        /* \"NewFundMe/fundme.sol\":1904:1930  dataFeed.latestRoundData() */\n      mload(0x40)\n      dup2\n      0xffffffff\n      and\n      0xe0\n      shl\n      dup2\n      mstore\n      0x04\n      add\n      0xa0\n      mload(0x40)\n      dup1\n      dup4\n      sub\n      dup2\n      dup7\n      gas\n      staticcall\n      iszero\n      dup1\n      iszero\n      tag_30\n      jumpi\n      returndatacopy(0x00, 0x00, returndatasize)\n      revert(0x00, returndatasize)\n    tag_30:\n      pop\n      pop\n      pop\n      pop\n      mload(0x40)\n      returndatasize\n      not(0x1f)\n      0x1f\n      dup3\n      add\n      and\n      dup3\n      add\n      dup1\n      0x40\n      mstore\n      pop\n      dup2\n      add\n      swap1\n      tag_31\n      swap2\n      swap1\n      tag_32\n      jump\t// in\n    tag_31:\n        /* \"NewFundMe/fundme.sol\":1720:1930  (... */\n      pop\n      pop\n      pop\n      swap2\n      pop\n      pop\n        /* \"NewFundMe/fundme.sol\":1947:1953  answer */\n      dup1\n        /* \"NewFundMe/fundme.sol\":1940:1953  return answer */\n      swap2\n      pop\n      pop\n        /* \"NewFundMe/fundme.sol\":1613:1960  function getChainlinkDataFeedLatestAnswer() public view returns (int) {... */\n      swap1\n      jump\t// out\n        /* \"NewFundMe/fundme.sol\":588:626  uint256 public  MINIMUM_VALUE=1*10**18 */\n    tag_22:\n      sload(0x01)\n      dup2\n      jump\t// out\n        /* \"#utility.yul\":88:205   */\n    tag_34:\n        /* \"#utility.yul\":197:198   */\n      0x00\n        /* \"#utility.yul\":194:195   */\n      0x00\n        /* \"#utility.yul\":187:199   */\n      revert\n        /* \"#utility.yul\":334:460   */\n    tag_36:\n        /* \"#utility.yul\":371:378   */\n      0x00\n        /* \"#utility.yul\":411:453   */\n      0xffffffffffffffffffffffffffffffffffffffff\n        /* \"#utility.yul\":404:409   */\n      dup3\n        /* \"#utility.yul\":400:454   */\n      and\n        /* \"#utility.yul\":389:454   */\n      swap1\n      pop\n        /* \"#utility.yul\":334:460   */\n      swap2\n      swap1\n      pop\n      jump\t// out\n        /* \"#utility.yul\":466:562   */\n    tag_37:\n        /* \"#utility.yul\":503:510   */\n      0x00\n        /* \"#utility.yul\":532:556   */\n      tag_60\n        /* \"#utility.yul\":550:555   */\n      dup3\n        /* \"#utility.yul\":532:556   */\n      tag_36\n      jump\t// in\n    tag_60:\n        /* \"#utility.yul\":521:556   */\n      swap1\n      pop\n        /* \"#utility.yul\":466:562   */\n      swap2\n      swap1\n      pop\n      jump\t// out\n        /* \"#utility.yul\":568:690   */\n    tag_38:\n        /* \"#utility.yul\":641:665   */\n      tag_62\n        /* \"#utility.yul\":659:664   */\n      dup2\n        /* \"#utility.yul\":641:665   */\n      tag_37\n      jump\t// in\n    tag_62:\n        /* \"#utility.yul\":634:639   */\n      dup2\n        /* \"#utility.yul\":631:666   */\n      eq\n        /* \"#utility.yul\":621:684   */\n      tag_63\n      jumpi\n        /* \"#utility.yul\":680:681   */\n      0x00\n        /* \"#utility.yul\":677:678   */\n      0x00\n        /* \"#utility.yul\":670:682   */\n      revert\n        /* \"#utility.yul\":621:684   */\n    tag_63:\n        /* \"#utility.yul\":568:690   */\n      pop\n      jump\t// out\n        /* \"#utility.yul\":696:835   */\n    tag_39:\n        /* \"#utility.yul\":742:747   */\n      0x00\n        /* \"#utility.yul\":780:786   */\n      dup2\n        /* \"#utility.yul\":767:787   */\n      calldataload\n        /* \"#utility.yul\":758:787   */\n      swap1\n      pop\n        /* \"#utility.yul\":796:829   */\n      tag_65\n        /* \"#utility.yul\":823:828   */\n      dup2\n        /* \"#utility.yul\":796:829   */\n      tag_38\n      jump\t// in\n    tag_65:\n        /* \"#utility.yul\":696:835   */\n      swap3\n      swap2\n      pop\n      pop\n      jump\t// out\n        /* \"#utility.yul\":841:1170   */\n    tag_9:\n        /* \"#utility.yul\":900:906   */\n      0x00\n        /* \"#utility.yul\":949:951   */\n      0x20\n        /* \"#utility.yul\":937:946   */\n      dup3\n        /* \"#utility.yul\":928:935   */\n      dup5\n        /* \"#utility.yul\":924:947   */\n      sub\n        /* \"#utility.yul\":920:952   */\n      slt\n        /* \"#utility.yul\":917:1036   */\n      iszero\n      tag_67\n      jumpi\n        /* \"#utility.yul\":955:1034   */\n      tag_68\n      tag_34\n      jump\t// in\n    tag_68:\n        /* \"#utility.yul\":917:1036   */\n    tag_67:\n        /* \"#utility.yul\":1075:1076   */\n      0x00\n        /* \"#utility.yul\":1100:1153   */\n      tag_69\n        /* \"#utility.yul\":1145:1152   */\n      dup5\n        /* \"#utility.yul\":1136:1142   */\n      dup3\n        /* \"#utility.yul\":1125:1134   */\n      dup6\n        /* \"#utility.yul\":1121:1143   */\n      add\n        /* \"#utility.yul\":1100:1153   */\n      tag_39\n      jump\t// in\n    tag_69:\n        /* \"#utility.yul\":1090:1153   */\n      swap2\n      pop\n        /* \"#utility.yul\":1046:1163   */\n      pop\n        /* \"#utility.yul\":841:1170   */\n      swap3\n      swap2\n      pop\n      pop\n      jump\t// out\n        /* \"#utility.yul\":1176:1253   */\n    tag_40:\n        /* \"#utility.yul\":1213:1220   */\n      0x00\n        /* \"#utility.yul\":1242:1247   */\n      dup2\n        /* \"#utility.yul\":1231:1247   */\n      swap1\n      pop\n        /* \"#utility.yul\":1176:1253   */\n      swap2\n      swap1\n      pop\n      jump\t// out\n        /* \"#utility.yul\":1259:1377   */\n    tag_41:\n        /* \"#utility.yul\":1346:1370   */\n      tag_72\n        /* \"#utility.yul\":1364:1369   */\n      dup2\n        /* \"#utility.yul\":1346:1370   */\n      tag_40\n      jump\t// in\n    tag_72:\n        /* \"#utility.yul\":1341:1344   */\n      dup3\n        /* \"#utility.yul\":1334:1371   */\n      mstore\n        /* \"#utility.yul\":1259:1377   */\n      pop\n      pop\n      jump\t// out\n        /* \"#utility.yul\":1383:1605   */\n    tag_12:\n        /* \"#utility.yul\":1476:1480   */\n      0x00\n        /* \"#utility.yul\":1514:1516   */\n      0x20\n        /* \"#utility.yul\":1503:1512   */\n      dup3\n        /* \"#utility.yul\":1499:1517   */\n      add\n        /* \"#utility.yul\":1491:1517   */\n      swap1\n      pop\n        /* \"#utility.yul\":1527:1598   */\n      tag_74\n        /* \"#utility.yul\":1595:1596   */\n      0x00\n        /* \"#utility.yul\":1584:1593   */\n      dup4\n        /* \"#utility.yul\":1580:1597   */\n      add\n        /* \"#utility.yul\":1571:1577   */\n      dup5\n        /* \"#utility.yul\":1527:1598   */\n      tag_41\n      jump\t// in\n    tag_74:\n        /* \"#utility.yul\":1383:1605   */\n      swap3\n      swap2\n      pop\n      pop\n      jump\t// out\n        /* \"#utility.yul\":1611:1687   */\n    tag_42:\n        /* \"#utility.yul\":1647:1654   */\n      0x00\n        /* \"#utility.yul\":1676:1681   */\n      dup2\n        /* \"#utility.yul\":1665:1681   */\n      swap1\n      pop\n        /* \"#utility.yul\":1611:1687   */\n      swap2\n      swap1\n      pop\n      jump\t// out\n        /* \"#utility.yul\":1693:1808   */\n    tag_43:\n        /* \"#utility.yul\":1778:1801   */\n      tag_77\n        /* \"#utility.yul\":1795:1800   */\n      dup2\n        /* \"#utility.yul\":1778:1801   */\n      tag_42\n      jump\t// in\n    tag_77:\n        /* \"#utility.yul\":1773:1776   */\n      dup3\n        /* \"#utility.yul\":1766:1802   */\n      mstore\n        /* \"#utility.yul\":1693:1808   */\n      pop\n      pop\n      jump\t// out\n        /* \"#utility.yul\":1814:2032   */\n    tag_19:\n        /* \"#utility.yul\":1905:1909   */\n      0x00\n        /* \"#utility.yul\":1943:1945   */\n      0x20\n        /* \"#utility.yul\":1932:1941   */\n      dup3\n        /* \"#utility.yul\":1928:1946   */\n      add\n        /* \"#utility.yul\":1920:1946   */\n      swap1\n      pop\n        /* \"#utility.yul\":1956:2025   */\n      tag_79\n        /* \"#utility.yul\":2022:2023   */\n      0x00\n        /* \"#utility.yul\":2011:2020   */\n      dup4\n        /* \"#utility.yul\":2007:2024   */\n      add\n        /* \"#utility.yul\":1998:2004   */\n      dup5\n        /* \"#utility.yul\":1956:2025   */\n      tag_43\n      jump\t// in\n    tag_79:\n        /* \"#utility.yul\":1814:2032   */\n      swap3\n      swap2\n      pop\n      pop\n      jump\t// out\n        /* \"#utility.yul\":2038:2207   */\n    tag_44:\n        /* \"#utility.yul\":2122:2133   */\n      0x00\n        /* \"#utility.yul\":2156:2162   */\n      dup3\n        /* \"#utility.yul\":2151:2154   */\n      dup3\n        /* \"#utility.yul\":2144:2163   */\n      mstore\n        /* \"#utility.yul\":2196:2200   */\n      0x20\n        /* \"#utility.yul\":2191:2194   */\n      dup3\n        /* \"#utility.yul\":2187:2201   */\n      add\n        /* \"#utility.yul\":2172:2201   */\n      swap1\n      pop\n        /* \"#utility.yul\":2038:2207   */\n      swap3\n      swap2\n      pop\n      pop\n      jump\t// out\n        /* \"#utility.yul\":2213:2386   */\n    tag_45:\n        /* \"#utility.yul\":2353:2378   */\n      0x506c656173652053656e64204d6f726520455448212121000000000000000000\n        /* \"#utility.yul\":2349:2350   */\n      0x00\n        /* \"#utility.yul\":2341:2347   */\n      dup3\n        /* \"#utility.yul\":2337:2351   */\n      add\n        /* \"#utility.yul\":2330:2379   */\n      mstore\n        /* \"#utility.yul\":2213:2386   */\n      pop\n      jump\t// out\n        /* \"#utility.yul\":2392:2758   */\n    tag_46:\n        /* \"#utility.yul\":2534:2537   */\n      0x00\n        /* \"#utility.yul\":2555:2622   */\n      tag_83\n        /* \"#utility.yul\":2619:2621   */\n      0x17\n        /* \"#utility.yul\":2614:2617   */\n      dup4\n        /* \"#utility.yul\":2555:2622   */\n      tag_44\n      jump\t// in\n    tag_83:\n        /* \"#utility.yul\":2548:2622   */\n      swap2\n      pop\n        /* \"#utility.yul\":2631:2724   */\n      tag_84\n        /* \"#utility.yul\":2720:2723   */\n      dup3\n        /* \"#utility.yul\":2631:2724   */\n      tag_45\n      jump\t// in\n    tag_84:\n        /* \"#utility.yul\":2749:2751   */\n      0x20\n        /* \"#utility.yul\":2744:2747   */\n      dup3\n        /* \"#utility.yul\":2740:2752   */\n      add\n        /* \"#utility.yul\":2733:2752   */\n      swap1\n      pop\n        /* \"#utility.yul\":2392:2758   */\n      swap2\n      swap1\n      pop\n      jump\t// out\n        /* \"#utility.yul\":2764:3183   */\n    tag_27:\n        /* \"#utility.yul\":2930:2934   */\n      0x00\n        /* \"#utility.yul\":2968:2970   */\n      0x20\n        /* \"#utility.yul\":2957:2966   */\n      dup3\n        /* \"#utility.yul\":2953:2971   */\n      add\n        /* \"#utility.yul\":2945:2971   */\n      swap1\n      pop\n        /* \"#utility.yul\":3017:3026   */\n      dup2\n        /* \"#utility.yul\":3011:3015   */\n      dup2\n        /* \"#utility.yul\":3007:3027   */\n      sub\n        /* \"#utility.yul\":3003:3004   */\n      0x00\n        /* \"#utility.yul\":2992:3001   */\n      dup4\n        /* \"#utility.yul\":2988:3005   */\n      add\n        /* \"#utility.yul\":2981:3028   */\n      mstore\n        /* \"#utility.yul\":3045:3176   */\n      tag_86\n        /* \"#utility.yul\":3171:3175   */\n      dup2\n        /* \"#utility.yul\":3045:3176   */\n      tag_46\n      jump\t// in\n    tag_86:\n        /* \"#utility.yul\":3037:3176   */\n      swap1\n      pop\n        /* \"#utility.yul\":2764:3183   */\n      swap2\n      swap1\n      pop\n      jump\t// out\n        /* \"#utility.yul\":3189:3294   */\n    tag_47:\n        /* \"#utility.yul\":3225:3232   */\n      0x00\n        /* \"#utility.yul\":3265:3287   */\n      0xffffffffffffffffffff\n        /* \"#utility.yul\":3258:3263   */\n      dup3\n        /* \"#utility.yul\":3254:3288   */\n      and\n        /* \"#utility.yul\":3243:3288   */\n      swap1\n      pop\n        /* \"#utility.yul\":3189:3294   */\n      swap2\n      swap1\n      pop\n      jump\t// out\n        /* \"#utility.yul\":3300:3420   */\n    tag_48:\n        /* \"#utility.yul\":3372:3395   */\n      tag_89\n        /* \"#utility.yul\":3389:3394   */\n      dup2\n        /* \"#utility.yul\":3372:3395   */\n      tag_47\n      jump\t// in\n    tag_89:\n        /* \"#utility.yul\":3365:3370   */\n      dup2\n        /* \"#utility.yul\":3362:3396   */\n      eq\n        /* \"#utility.yul\":3352:3414   */\n      tag_90\n      jumpi\n        /* \"#utility.yul\":3410:3411   */\n      0x00\n        /* \"#utility.yul\":3407:3408   */\n      0x00\n        /* \"#utility.yul\":3400:3412   */\n      revert\n        /* \"#utility.yul\":3352:3414   */\n    tag_90:\n        /* \"#utility.yul\":3300:3420   */\n      pop\n      jump\t// out\n        /* \"#utility.yul\":3426:3567   */\n    tag_49:\n        /* \"#utility.yul\":3482:3487   */\n      0x00\n        /* \"#utility.yul\":3513:3519   */\n      dup2\n        /* \"#utility.yul\":3507:3520   */\n      mload\n        /* \"#utility.yul\":3498:3520   */\n      swap1\n      pop\n        /* \"#utility.yul\":3529:3561   */\n      tag_92\n        /* \"#utility.yul\":3555:3560   */\n      dup2\n        /* \"#utility.yul\":3529:3561   */\n      tag_48\n      jump\t// in\n    tag_92:\n        /* \"#utility.yul\":3426:3567   */\n      swap3\n      swap2\n      pop\n      pop\n      jump\t// out\n        /* \"#utility.yul\":3573:3693   */\n    tag_50:\n        /* \"#utility.yul\":3645:3668   */\n      tag_94\n        /* \"#utility.yul\":3662:3667   */\n      dup2\n        /* \"#utility.yul\":3645:3668   */\n      tag_42\n      jump\t// in\n    tag_94:\n        /* \"#utility.yul\":3638:3643   */\n      dup2\n        /* \"#utility.yul\":3635:3669   */\n      eq\n        /* \"#utility.yul\":3625:3687   */\n      tag_95\n      jumpi\n        /* \"#utility.yul\":3683:3684   */\n      0x00\n        /* \"#utility.yul\":3680:3681   */\n      0x00\n        /* \"#utility.yul\":3673:3685   */\n      revert\n        /* \"#utility.yul\":3625:3687   */\n    tag_95:\n        /* \"#utility.yul\":3573:3693   */\n      pop\n      jump\t// out\n        /* \"#utility.yul\":3699:3840   */\n    tag_51:\n        /* \"#utility.yul\":3755:3760   */\n      0x00\n        /* \"#utility.yul\":3786:3792   */\n      dup2\n        /* \"#utility.yul\":3780:3793   */\n      mload\n        /* \"#utility.yul\":3771:3793   */\n      swap1\n      pop\n        /* \"#utility.yul\":3802:3834   */\n      tag_97\n        /* \"#utility.yul\":3828:3833   */\n      dup2\n        /* \"#utility.yul\":3802:3834   */\n      tag_50\n      jump\t// in\n    tag_97:\n        /* \"#utility.yul\":3699:3840   */\n      swap3\n      swap2\n      pop\n      pop\n      jump\t// out\n        /* \"#utility.yul\":3846:3968   */\n    tag_52:\n        /* \"#utility.yul\":3919:3943   */\n      tag_99\n        /* \"#utility.yul\":3937:3942   */\n      dup2\n        /* \"#utility.yul\":3919:3943   */\n      tag_40\n      jump\t// in\n    tag_99:\n        /* \"#utility.yul\":3912:3917   */\n      dup2\n        /* \"#utility.yul\":3909:3944   */\n      eq\n        /* \"#utility.yul\":3899:3962   */\n      tag_100\n      jumpi\n        /* \"#utility.yul\":3958:3959   */\n      0x00\n        /* \"#utility.yul\":3955:3956   */\n      0x00\n        /* \"#utility.yul\":3948:3960   */\n      revert\n        /* \"#utility.yul\":3899:3962   */\n    tag_100:\n        /* \"#utility.yul\":3846:3968   */\n      pop\n      jump\t// out\n        /* \"#utility.yul\":3974:4117   */\n    tag_53:\n        /* \"#utility.yul\":4031:4036   */\n      0x00\n        /* \"#utility.yul\":4062:4068   */\n      dup2\n        /* \"#utility.yul\":4056:4069   */\n      mload\n        /* \"#utility.yul\":4047:4069   */\n      swap1\n      pop\n        /* \"#utility.yul\":4078:4111   */\n      tag_102\n        /* \"#utility.yul\":4105:4110   */\n      dup2\n        /* \"#utility.yul\":4078:4111   */\n      tag_52\n      jump\t// in\n    tag_102:\n        /* \"#utility.yul\":3974:4117   */\n      swap3\n      swap2\n      pop\n      pop\n      jump\t// out\n        /* \"#utility.yul\":4123:5094   */\n    tag_32:\n        /* \"#utility.yul\":4226:4232   */\n      0x00\n        /* \"#utility.yul\":4234:4240   */\n      0x00\n        /* \"#utility.yul\":4242:4248   */\n      0x00\n        /* \"#utility.yul\":4250:4256   */\n      0x00\n        /* \"#utility.yul\":4258:4264   */\n      0x00\n        /* \"#utility.yul\":4307:4310   */\n      0xa0\n        /* \"#utility.yul\":4295:4304   */\n      dup7\n        /* \"#utility.yul\":4286:4293   */\n      dup9\n        /* \"#utility.yul\":4282:4305   */\n      sub\n        /* \"#utility.yul\":4278:4311   */\n      slt\n        /* \"#utility.yul\":4275:4395   */\n      iszero\n      tag_104\n      jumpi\n        /* \"#utility.yul\":4314:4393   */\n      tag_105\n      tag_34\n      jump\t// in\n    tag_105:\n        /* \"#utility.yul\":4275:4395   */\n    tag_104:\n        /* \"#utility.yul\":4434:4435   */\n      0x00\n        /* \"#utility.yul\":4459:4522   */\n      tag_106\n        /* \"#utility.yul\":4514:4521   */\n      dup9\n        /* \"#utility.yul\":4505:4511   */\n      dup3\n        /* \"#utility.yul\":4494:4503   */\n      dup10\n        /* \"#utility.yul\":4490:4512   */\n      add\n        /* \"#utility.yul\":4459:4522   */\n      tag_49\n      jump\t// in\n    tag_106:\n        /* \"#utility.yul\":4449:4522   */\n      swap6\n      pop\n        /* \"#utility.yul\":4405:4532   */\n      pop\n        /* \"#utility.yul\":4571:4573   */\n      0x20\n        /* \"#utility.yul\":4597:4660   */\n      tag_107\n        /* \"#utility.yul\":4652:4659   */\n      dup9\n        /* \"#utility.yul\":4643:4649   */\n      dup3\n        /* \"#utility.yul\":4632:4641   */\n      dup10\n        /* \"#utility.yul\":4628:4650   */\n      add\n        /* \"#utility.yul\":4597:4660   */\n      tag_51\n      jump\t// in\n    tag_107:\n        /* \"#utility.yul\":4587:4660   */\n      swap5\n      pop\n        /* \"#utility.yul\":4542:4670   */\n      pop\n        /* \"#utility.yul\":4709:4711   */\n      0x40\n        /* \"#utility.yul\":4735:4799   */\n      tag_108\n        /* \"#utility.yul\":4791:4798   */\n      dup9\n        /* \"#utility.yul\":4782:4788   */\n      dup3\n        /* \"#utility.yul\":4771:4780   */\n      dup10\n        /* \"#utility.yul\":4767:4789   */\n      add\n        /* \"#utility.yul\":4735:4799   */\n      tag_53\n      jump\t// in\n    tag_108:\n        /* \"#utility.yul\":4725:4799   */\n      swap4\n      pop\n        /* \"#utility.yul\":4680:4809   */\n      pop\n        /* \"#utility.yul\":4848:4850   */\n      0x60\n        /* \"#utility.yul\":4874:4938   */\n      tag_109\n        /* \"#utility.yul\":4930:4937   */\n      dup9\n        /* \"#utility.yul\":4921:4927   */\n      dup3\n        /* \"#utility.yul\":4910:4919   */\n      dup10\n        /* \"#utility.yul\":4906:4928   */\n      add\n        /* \"#utility.yul\":4874:4938   */\n      tag_53\n      jump\t// in\n    tag_109:\n        /* \"#utility.yul\":4864:4938   */\n      swap3\n      pop\n        /* \"#utility.yul\":4819:4948   */\n      pop\n        /* \"#utility.yul\":4987:4990   */\n      0x80\n        /* \"#utility.yul\":5014:5077   */\n      tag_110\n        /* \"#utility.yul\":5069:5076   */\n      dup9\n        /* \"#utility.yul\":5060:5066   */\n      dup3\n        /* \"#utility.yul\":5049:5058   */\n      dup10\n        /* \"#utility.yul\":5045:5067   */\n      add\n        /* \"#utility.yul\":5014:5077   */\n      tag_49\n      jump\t// in\n    tag_110:\n        /* \"#utility.yul\":5004:5077   */\n      swap2\n      pop\n        /* \"#utility.yul\":4958:5087   */\n      pop\n        /* \"#utility.yul\":4123:5094   */\n      swap3\n      swap6\n      pop\n      swap3\n      swap6\n      swap1\n      swap4\n      pop\n      jump\t// out\n\n    auxdata: 0xa26469706673582212207ede210c87639c329c7dfbbaaa3ecf1687d70d86fc198dc76bdaa4df88a61c5b64736f6c634300081e0033\n}\n",
				"bytecode": {
					"linkReferences": {},
					"object": "6080604052670de0b6b3a7640000600155348015601a575f5ffd5b5073694aa1769357215de4fac081bf1f309adc32530660025f6101000a81548173ffffffffffffffffffffffffffffffffffffffff021916908373ffffffffffffffffffffffffffffffffffffffff1602179055506104be8061007c5f395ff3fe60806040526004361061003e575f3560e01c8063740c066414610042578063b60d42881461007e578063bea4dfb514610088578063da5ea4ee146100b2575b5f5ffd5b34801561004d575f5ffd5b5061006860048036038101906100639190610279565b6100dc565b60405161007591906102bc565b60405180910390f35b6100866100f0565b005b348015610093575f5ffd5b5061009c610178565b6040516100a991906102ed565b60405180910390f35b3480156100bd575f5ffd5b506100c6610215565b6040516100d391906102bc565b60405180910390f35b5f602052805f5260405f205f915090505481565b600154341015610135576040517f08c379a000000000000000000000000000000000000000000000000000000000815260040161012c90610360565b60405180910390fd5b345f5f3373ffffffffffffffffffffffffffffffffffffffff1673ffffffffffffffffffffffffffffffffffffffff1681526020019081526020015f2081905550565b5f5f60025f9054906101000a900473ffffffffffffffffffffffffffffffffffffffff1673ffffffffffffffffffffffffffffffffffffffff1663feaf968c6040518163ffffffff1660e01b815260040160a060405180830381865afa1580156101e4573d5f5f3e3d5ffd5b505050506040513d601f19601f820116820180604052508101906102089190610411565b5050509150508091505090565b60015481565b5f5ffd5b5f73ffffffffffffffffffffffffffffffffffffffff82169050919050565b5f6102488261021f565b9050919050565b6102588161023e565b8114610262575f5ffd5b50565b5f813590506102738161024f565b92915050565b5f6020828403121561028e5761028d61021b565b5b5f61029b84828501610265565b91505092915050565b5f819050919050565b6102b6816102a4565b82525050565b5f6020820190506102cf5f8301846102ad565b92915050565b5f819050919050565b6102e7816102d5565b82525050565b5f6020820190506103005f8301846102de565b92915050565b5f82825260208201905092915050565b7f506c656173652053656e64204d6f7265204554482121210000000000000000005f82015250565b5f61034a601783610306565b915061035582610316565b602082019050919050565b5f6020820190508181035f8301526103778161033e565b9050919050565b5f69ffffffffffffffffffff82169050919050565b61039c8161037e565b81146103a6575f5ffd5b50565b5f815190506103b781610393565b92915050565b6103c6816102d5565b81146103d0575f5ffd5b50565b5f815190506103e1816103bd565b92915050565b6103f0816102a4565b81146103fa575f5ffd5b50565b5f8151905061040b816103e7565b92915050565b5f5f5f5f5f60a0868803121561042a5761042961021b565b5b5f610437888289016103a9565b9550506020610448888289016103d3565b9450506040610459888289016103fd565b935050606061046a888289016103fd565b925050608061047b888289016103a9565b915050929550929590935056fea26469706673582212207ede210c87639c329c7dfbbaaa3ecf1687d70d86fc198dc76bdaa4df88a61c5b64736f6c634300081e0033",
					"opcodes": "PUSH1 0x80 PUSH1 0x40 MSTORE PUSH8 0xDE0B6B3A7640000 PUSH1 0x1 SSTORE CALLVALUE DUP1 ISZERO PUSH1 0x1A JUMPI PUSH0 PUSH0 REVERT JUMPDEST POP PUSH20 0x694AA1769357215DE4FAC081BF1F309ADC325306 PUSH1 0x2 PUSH0 PUSH2 0x100 EXP DUP2 SLOAD DUP2 PUSH20 0xFFFFFFFFFFFFFFFFFFFFFFFFFFFFFFFFFFFFFFFF MUL NOT AND SWAP1 DUP4 PUSH20 0xFFFFFFFFFFFFFFFFFFFFFFFFFFFFFFFFFFFFFFFF AND MUL OR SWAP1 SSTORE POP PUSH2 0x4BE DUP1 PUSH2 0x7C PUSH0 CODECOPY PUSH0 RETURN INVALID PUSH1 0x80 PUSH1 0x40 MSTORE PUSH1 0x4 CALLDATASIZE LT PUSH2 0x3E JUMPI PUSH0 CALLDATALOAD PUSH1 0xE0 SHR DUP1 PUSH4 0x740C0664 EQ PUSH2 0x42 JUMPI DUP1 PUSH4 0xB60D4288 EQ PUSH2 0x7E JUMPI DUP1 PUSH4 0xBEA4DFB5 EQ PUSH2 0x88 JUMPI DUP1 PUSH4 0xDA5EA4EE EQ PUSH2 0xB2 JUMPI JUMPDEST PUSH0 PUSH0 REVERT JUMPDEST CALLVALUE DUP1 ISZERO PUSH2 0x4D JUMPI PUSH0 PUSH0 REVERT JUMPDEST POP PUSH2 0x68 PUSH1 0x4 DUP1 CALLDATASIZE SUB DUP2 ADD SWAP1 PUSH2 0x63 SWAP2 SWAP1 PUSH2 0x279 JUMP JUMPDEST PUSH2 0xDC JUMP JUMPDEST PUSH1 0x40 MLOAD PUSH2 0x75 SWAP2 SWAP1 PUSH2 0x2BC JUMP JUMPDEST PUSH1 0x40 MLOAD DUP1 SWAP2 SUB SWAP1 RETURN JUMPDEST PUSH2 0x86 PUSH2 0xF0 JUMP JUMPDEST STOP JUMPDEST CALLVALUE DUP1 ISZERO PUSH2 0x93 JUMPI PUSH0 PUSH0 REVERT JUMPDEST POP PUSH2 0x9C PUSH2 0x178 JUMP JUMPDEST PUSH1 0x40 MLOAD PUSH2 0xA9 SWAP2 SWAP1 PUSH2 0x2ED JUMP JUMPDEST PUSH1 0x40 MLOAD DUP1 SWAP2 SUB SWAP1 RETURN JUMPDEST CALLVALUE DUP1 ISZERO PUSH2 0xBD JUMPI PUSH0 PUSH0 REVERT JUMPDEST POP PUSH2 0xC6 PUSH2 0x215 JUMP JUMPDEST PUSH1 0x40 MLOAD PUSH2 0xD3 SWAP2 SWAP1 PUSH2 0x2BC JUMP JUMPDEST PUSH1 0x40 MLOAD DUP1 SWAP2 SUB SWAP1 RETURN JUMPDEST PUSH0 PUSH1 0x20 MSTORE DUP1 PUSH0 MSTORE PUSH1 0x40 PUSH0 KECCAK256 PUSH0 SWAP2 POP SWAP1 POP SLOAD DUP2 JUMP JUMPDEST PUSH1 0x1 SLOAD CALLVALUE LT ISZERO PUSH2 0x135 JUMPI PUSH1 0x40 MLOAD PUSH32 0x8C379A000000000000000000000000000000000000000000000000000000000 DUP2 MSTORE PUSH1 0x4 ADD PUSH2 0x12C SWAP1 PUSH2 0x360 JUMP JUMPDEST PUSH1 0x40 MLOAD DUP1 SWAP2 SUB SWAP1 REVERT JUMPDEST CALLVALUE PUSH0 PUSH0 CALLER PUSH20 0xFFFFFFFFFFFFFFFFFFFFFFFFFFFFFFFFFFFFFFFF AND PUSH20 0xFFFFFFFFFFFFFFFFFFFFFFFFFFFFFFFFFFFFFFFF AND DUP2 MSTORE PUSH1 0x20 ADD SWAP1 DUP2 MSTORE PUSH1 0x20 ADD PUSH0 KECCAK256 DUP2 SWAP1 SSTORE POP JUMP JUMPDEST PUSH0 PUSH0 PUSH1 0x2 PUSH0 SWAP1 SLOAD SWAP1 PUSH2 0x100 EXP SWAP1 DIV PUSH20 0xFFFFFFFFFFFFFFFFFFFFFFFFFFFFFFFFFFFFFFFF AND PUSH20 0xFFFFFFFFFFFFFFFFFFFFFFFFFFFFFFFFFFFFFFFF AND PUSH4 0xFEAF968C PUSH1 0x40 MLOAD DUP2 PUSH4 0xFFFFFFFF AND PUSH1 0xE0 SHL DUP2 MSTORE PUSH1 0x4 ADD PUSH1 0xA0 PUSH1 0x40 MLOAD DUP1 DUP4 SUB DUP2 DUP7 GAS STATICCALL ISZERO DUP1 ISZERO PUSH2 0x1E4 JUMPI RETURNDATASIZE PUSH0 PUSH0 RETURNDATACOPY RETURNDATASIZE PUSH0 REVERT JUMPDEST POP POP POP POP PUSH1 0x40 MLOAD RETURNDATASIZE PUSH1 0x1F NOT PUSH1 0x1F DUP3 ADD AND DUP3 ADD DUP1 PUSH1 0x40 MSTORE POP DUP2 ADD SWAP1 PUSH2 0x208 SWAP2 SWAP1 PUSH2 0x411 JUMP JUMPDEST POP POP POP SWAP2 POP POP DUP1 SWAP2 POP POP SWAP1 JUMP JUMPDEST PUSH1 0x1 SLOAD DUP2 JUMP JUMPDEST PUSH0 PUSH0 REVERT JUMPDEST PUSH0 PUSH20 0xFFFFFFFFFFFFFFFFFFFFFFFFFFFFFFFFFFFFFFFF DUP3 AND SWAP1 POP SWAP2 SWAP1 POP JUMP JUMPDEST PUSH0 PUSH2 0x248 DUP3 PUSH2 0x21F JUMP JUMPDEST SWAP1 POP SWAP2 SWAP1 POP JUMP JUMPDEST PUSH2 0x258 DUP2 PUSH2 0x23E JUMP JUMPDEST DUP2 EQ PUSH2 0x262 JUMPI PUSH0 PUSH0 REVERT JUMPDEST POP JUMP JUMPDEST PUSH0 DUP2 CALLDATALOAD SWAP1 POP PUSH2 0x273 DUP2 PUSH2 0x24F JUMP JUMPDEST SWAP3 SWAP2 POP POP JUMP JUMPDEST PUSH0 PUSH1 0x20 DUP3 DUP5 SUB SLT ISZERO PUSH2 0x28E JUMPI PUSH2 0x28D PUSH2 0x21B JUMP JUMPDEST JUMPDEST PUSH0 PUSH2 0x29B DUP5 DUP3 DUP6 ADD PUSH2 0x265 JUMP JUMPDEST SWAP2 POP POP SWAP3 SWAP2 POP POP JUMP JUMPDEST PUSH0 DUP2 SWAP1 POP SWAP2 SWAP1 POP JUMP JUMPDEST PUSH2 0x2B6 DUP2 PUSH2 0x2A4 JUMP JUMPDEST DUP3 MSTORE POP POP JUMP JUMPDEST PUSH0 PUSH1 0x20 DUP3 ADD SWAP1 POP PUSH2 0x2CF PUSH0 DUP4 ADD DUP5 PUSH2 0x2AD JUMP JUMPDEST SWAP3 SWAP2 POP POP JUMP JUMPDEST PUSH0 DUP2 SWAP1 POP SWAP2 SWAP1 POP JUMP JUMPDEST PUSH2 0x2E7 DUP2 PUSH2 0x2D5 JUMP JUMPDEST DUP3 MSTORE POP POP JUMP JUMPDEST PUSH0 PUSH1 0x20 DUP3 ADD SWAP1 POP PUSH2 0x300 PUSH0 DUP4 ADD DUP5 PUSH2 0x2DE JUMP JUMPDEST SWAP3 SWAP2 POP POP JUMP JUMPDEST PUSH0 DUP3 DUP3 MSTORE PUSH1 0x20 DUP3 ADD SWAP1 POP SWAP3 SWAP2 POP POP JUMP JUMPDEST PUSH32 0x506C656173652053656E64204D6F726520455448212121000000000000000000 PUSH0 DUP3 ADD MSTORE POP JUMP JUMPDEST PUSH0 PUSH2 0x34A PUSH1 0x17 DUP4 PUSH2 0x306 JUMP JUMPDEST SWAP2 POP PUSH2 0x355 DUP3 PUSH2 0x316 JUMP JUMPDEST PUSH1 0x20 DUP3 ADD SWAP1 POP SWAP2 SWAP1 POP JUMP JUMPDEST PUSH0 PUSH1 0x20 DUP3 ADD SWAP1 POP DUP2 DUP2 SUB PUSH0 DUP4 ADD MSTORE PUSH2 0x377 DUP2 PUSH2 0x33E JUMP JUMPDEST SWAP1 POP SWAP2 SWAP1 POP JUMP JUMPDEST PUSH0 PUSH10 0xFFFFFFFFFFFFFFFFFFFF DUP3 AND SWAP1 POP SWAP2 SWAP1 POP JUMP JUMPDEST PUSH2 0x39C DUP2 PUSH2 0x37E JUMP JUMPDEST DUP2 EQ PUSH2 0x3A6 JUMPI PUSH0 PUSH0 REVERT JUMPDEST POP JUMP JUMPDEST PUSH0 DUP2 MLOAD SWAP1 POP PUSH2 0x3B7 DUP2 PUSH2 0x393 JUMP JUMPDEST SWAP3 SWAP2 POP POP JUMP JUMPDEST PUSH2 0x3C6 DUP2 PUSH2 0x2D5 JUMP JUMPDEST DUP2 EQ PUSH2 0x3D0 JUMPI PUSH0 PUSH0 REVERT JUMPDEST POP JUMP JUMPDEST PUSH0 DUP2 MLOAD SWAP1 POP PUSH2 0x3E1 DUP2 PUSH2 0x3BD JUMP JUMPDEST SWAP3 SWAP2 POP POP JUMP JUMPDEST PUSH2 0x3F0 DUP2 PUSH2 0x2A4 JUMP JUMPDEST DUP2 EQ PUSH2 0x3FA JUMPI PUSH0 PUSH0 REVERT JUMPDEST POP JUMP JUMPDEST PUSH0 DUP2 MLOAD SWAP1 POP PUSH2 0x40B DUP2 PUSH2 0x3E7 JUMP JUMPDEST SWAP3 SWAP2 POP POP JUMP JUMPDEST PUSH0 PUSH0 PUSH0 PUSH0 PUSH0 PUSH1 0xA0 DUP7 DUP9 SUB SLT ISZERO PUSH2 0x42A JUMPI PUSH2 0x429 PUSH2 0x21B JUMP JUMPDEST JUMPDEST PUSH0 PUSH2 0x437 DUP9 DUP3 DUP10 ADD PUSH2 0x3A9 JUMP JUMPDEST SWAP6 POP POP PUSH1 0x20 PUSH2 0x448 DUP9 DUP3 DUP10 ADD PUSH2 0x3D3 JUMP JUMPDEST SWAP5 POP POP PUSH1 0x40 PUSH2 0x459 DUP9 DUP3 DUP10 ADD PUSH2 0x3FD JUMP JUMPDEST SWAP4 POP POP PUSH1 0x60 PUSH2 0x46A DUP9 DUP3 DUP10 ADD PUSH2 0x3FD JUMP JUMPDEST SWAP3 POP POP PUSH1 0x80 PUSH2 0x47B DUP9 DUP3 DUP10 ADD PUSH2 0x3A9 JUMP JUMPDEST SWAP2 POP POP SWAP3 SWAP6 POP SWAP3 SWAP6 SWAP1 SWAP4 POP JUMP INVALID LOG2 PUSH5 0x6970667358 0x22 SLT KECCAK256 PUSH31 0xDE210C87639C329C7DFBBAAA3ECF1687D70D86FC198DC76BDAA4DF88A61C5B PUSH5 0x736F6C6343 STOP ADDMOD 0x1E STOP CALLER "
				},
				"gasEstimates": {
					"creation": {
						"codeDepositCost": "242800",
						"executionCost": "46651",
						"totalCost": "289451"
					},
					"external": {
						"FundersAmount(address)": "2779",
						"MINIMUM_VALUE()": "2469",
						"fund()": "24443",
						"getChainlinkDataFeedLatestAnswer()": "infinite"
					}
				},
				"methodIdentifiers": {
					"FundersAmount(address)": "740c0664",
					"MINIMUM_VALUE()": "da5ea4ee",
					"fund()": "b60d4288",
					"getChainlinkDataFeedLatestAnswer()": "bea4dfb5"
				}
			},
			"storageLayout": {
				"storage": [
					{
						"astId": 53,
						"contract": "NewFundMe/fundme.sol:FundMe",
						"label": "FundersAmount",
						"offset": 0,
						"slot": "0",
						"type": "t_mapping(t_address,t_uint256)"
					},
					{
						"astId": 60,
						"contract": "NewFundMe/fundme.sol:FundMe",
						"label": "MINIMUM_VALUE",
						"offset": 0,
						"slot": "1",
						"type": "t_uint256"
					},
					{
						"astId": 63,
						"contract": "NewFundMe/fundme.sol:FundMe",
						"label": "dataFeed",
						"offset": 0,
						"slot": "2",
						"type": "t_contract(AggregatorV3Interface)45"
					}
				],
				"types": {
					"t_address": {
						"encoding": "inplace",
						"label": "address",
						"numberOfBytes": "20"
					},
					"t_contract(AggregatorV3Interface)45": {
						"encoding": "inplace",
						"label": "contract AggregatorV3Interface",
						"numberOfBytes": "20"
					},
					"t_mapping(t_address,t_uint256)": {
						"encoding": "mapping",
						"key": "t_address",
						"label": "mapping(address => uint256)",
						"numberOfBytes": "32",
						"value": "t_uint256"
					},
					"t_uint256": {
						"encoding": "inplace",
						"label": "uint256",
						"numberOfBytes": "32"
					}
				}
			},
			"userdoc": {
				"kind": "user",
				"methods": {},
				"version": 1
			}
		}
	}
}