{
	"mytest111/Factory.sol": {
		"Hellowordfactry": {
			"abi": [
				{
					"inputs": [
						{
							"internalType": "uint256",
							"name": "inindex",
							"type": "uint256"
						},
						{
							"internalType": "uint256",
							"name": "selectid",
							"type": "uint256"
						}
					],
					"name": "Callhelloworldfromfactory",
					"outputs": [
						{
							"internalType": "string",
							"name": "",
							"type": "string"
						}
					],
					"stateMutability": "view",
					"type": "function"
				},
				{
					"inputs": [],
					"name": "CreateHelloworld",
					"outputs": [],
					"stateMutability": "nonpayable",
					"type": "function"
				},
				{
					"inputs": [
						{
							"internalType": "uint256",
							"name": "inputindex",
							"type": "uint256"
						}
					],
					"name": "Getmycontract",
					"outputs": [
						{
							"internalType": "contract Helloworld",
							"name": "",
							"type": "address"
						}
					],
					"stateMutability": "view",
					"type": "function"
				},
				{
					"inputs": [
						{
							"internalType": "uint256",
							"name": "inindex",
							"type": "uint256"
						},
						{
							"internalType": "string",
							"name": "inputnewstring",
							"type": "string"
						},
						{
							"internalType": "uint256",
							"name": "inputnewid",
							"type": "uint256"
						}
					],
					"name": "Sethelloworldfromfactory",
					"outputs": [],
					"stateMutability": "nonpayable",
					"type": "function"
				}
			],
			"devdoc": {
				"kind": "dev",
				"methods": {},
				"version": 1
			},
			"evm": {
				"assembly": "    /* \"mytest111/Factory.sol\":103:754  contract Hellowordfactry{... */\n  mstore(0x40, 0x80)\n  callvalue\n  dup1\n  iszero\n  tag_1\n  jumpi\n  0x00\n  dup1\n  revert\ntag_1:\n  pop\n  dataSize(sub_0)\n  dup1\n  dataOffset(sub_0)\n  0x00\n  codecopy\n  0x00\n  return\nstop\n\nsub_0: assembly {\n        /* \"mytest111/Factory.sol\":103:754  contract Hellowordfactry{... */\n      mstore(0x40, 0x80)\n      callvalue\n      dup1\n      iszero\n      tag_1\n      jumpi\n      0x00\n      dup1\n      revert\n    tag_1:\n      pop\n      jumpi(tag_2, lt(calldatasize, 0x04))\n      shr(0xe0, calldataload(0x00))\n      dup1\n      0x16324d32\n      eq\n      tag_3\n      jumpi\n      dup1\n      0x1a185053\n      eq\n      tag_4\n      jumpi\n      dup1\n      0xbdcec25d\n      eq\n      tag_5\n      jumpi\n      dup1\n      0xfa00d489\n      eq\n      tag_6\n      jumpi\n    tag_2:\n      0x00\n      dup1\n      revert\n        /* \"mytest111/Factory.sol\":179:277  function CreateHelloworld()public {... */\n    tag_3:\n      tag_7\n      tag_8\n      jump\t// in\n    tag_7:\n      stop\n        /* \"mytest111/Factory.sol\":574:752  function Sethelloworldfromfactory(uint256 inindex,string memory inputnewstring, uint256 inputnewid)public {... */\n    tag_4:\n      tag_9\n      0x04\n      dup1\n      calldatasize\n      sub\n      dup2\n      add\n      swap1\n      tag_10\n      swap2\n      swap1\n      tag_11\n      jump\t// in\n    tag_10:\n      tag_12\n      jump\t// in\n    tag_9:\n      stop\n        /* \"mytest111/Factory.sol\":403:569  function Callhelloworldfromfactory (uint256 inindex,uint256 selectid) public view returns(string memory){... */\n    tag_5:\n      tag_13\n      0x04\n      dup1\n      calldatasize\n      sub\n      dup2\n      add\n      swap1\n      tag_14\n      swap2\n      swap1\n      tag_15\n      jump\t// in\n    tag_14:\n      tag_16\n      jump\t// in\n    tag_13:\n      mload(0x40)\n      tag_17\n      swap2\n      swap1\n      tag_18\n      jump\t// in\n    tag_17:\n      mload(0x40)\n      dup1\n      swap2\n      sub\n      swap1\n      return\n        /* \"mytest111/Factory.sol\":282:398  function Getmycontract(uint256 inputindex) public view returns (Helloworld){... */\n    tag_6:\n      tag_19\n      0x04\n      dup1\n      calldatasize\n      sub\n      dup2\n      add\n      swap1\n      tag_20\n      swap2\n      swap1\n      tag_21\n      jump\t// in\n    tag_20:\n      tag_22\n      jump\t// in\n    tag_19:\n      mload(0x40)\n      tag_23\n      swap2\n      swap1\n      tag_24\n      jump\t// in\n    tag_23:\n      mload(0x40)\n      dup1\n      swap2\n      sub\n      swap1\n      return\n        /* \"mytest111/Factory.sol\":179:277  function CreateHelloworld()public {... */\n    tag_8:\n        /* \"mytest111/Factory.sol\":228:244  new Helloworld() */\n      mload(0x40)\n      tag_26\n      swap1\n      tag_27\n      jump\t// in\n    tag_26:\n      mload(0x40)\n      dup1\n      swap2\n      sub\n      swap1\n      0x00\n      create\n      dup1\n      iszero\n      dup1\n      iszero\n      tag_28\n      jumpi\n      returndatasize\n      0x00\n      dup1\n      returndatacopy\n      revert(0x00, returndatasize)\n    tag_28:\n      pop\n        /* \"mytest111/Factory.sol\":223:227  myhw */\n      0x00\n      dup1\n        /* \"mytest111/Factory.sol\":223:244  myhw=new Helloworld() */\n      0x0100\n      exp\n      dup2\n      sload\n      dup2\n      0xffffffffffffffffffffffffffffffffffffffff\n      mul\n      not\n      and\n      swap1\n      dup4\n      0xffffffffffffffffffffffffffffffffffffffff\n      and\n      mul\n      or\n      swap1\n      sstore\n      pop\n        /* \"mytest111/Factory.sol\":254:259  myhws */\n      0x01\n        /* \"mytest111/Factory.sol\":265:269  myhw */\n      0x00\n      dup1\n      sload\n      swap1\n      0x0100\n      exp\n      swap1\n      div\n      0xffffffffffffffffffffffffffffffffffffffff\n      and\n        /* \"mytest111/Factory.sol\":254:270  myhws.push(myhw) */\n      swap1\n      dup1\n      0x01\n      dup2\n      sload\n      add\n      dup1\n      dup3\n      sstore\n      dup1\n      swap2\n      pop\n      pop\n      0x01\n      swap1\n      sub\n      swap1\n      0x00\n      mstore\n      keccak256(0x00, 0x20)\n      add\n      0x00\n      swap1\n      swap2\n      swap1\n      swap2\n      swap1\n      swap2\n      0x0100\n      exp\n      dup2\n      sload\n      dup2\n      0xffffffffffffffffffffffffffffffffffffffff\n      mul\n      not\n      and\n      swap1\n      dup4\n      0xffffffffffffffffffffffffffffffffffffffff\n      and\n      mul\n      or\n      swap1\n      sstore\n      pop\n        /* \"mytest111/Factory.sol\":179:277  function CreateHelloworld()public {... */\n      jump\t// out\n        /* \"mytest111/Factory.sol\":574:752  function Sethelloworldfromfactory(uint256 inindex,string memory inputnewstring, uint256 inputnewid)public {... */\n    tag_12:\n        /* \"mytest111/Factory.sol\":690:695  myhws */\n      0x01\n        /* \"mytest111/Factory.sol\":696:703  inindex */\n      dup4\n        /* \"mytest111/Factory.sol\":690:704  myhws[inindex] */\n      dup2\n      sload\n      dup2\n      lt\n      tag_31\n      jumpi\n      tag_32\n      tag_33\n      jump\t// in\n    tag_32:\n    tag_31:\n      swap1\n      0x00\n      mstore\n      keccak256(0x00, 0x20)\n      add\n      0x00\n      swap1\n      sload\n      swap1\n      0x0100\n      exp\n      swap1\n      div\n      0xffffffffffffffffffffffffffffffffffffffff\n      and\n        /* \"mytest111/Factory.sol\":690:718  myhws[inindex].Insertwithmap */\n      0xffffffffffffffffffffffffffffffffffffffff\n      and\n      0xab12fc18\n        /* \"mytest111/Factory.sol\":719:733  inputnewstring */\n      dup4\n        /* \"mytest111/Factory.sol\":734:744  inputnewid */\n      dup4\n        /* \"mytest111/Factory.sol\":690:745  myhws[inindex].Insertwithmap(inputnewstring,inputnewid) */\n      mload(0x40)\n      dup4\n      0xffffffff\n      and\n      0xe0\n      shl\n      dup2\n      mstore\n      0x04\n      add\n      tag_35\n      swap3\n      swap2\n      swap1\n      tag_36\n      jump\t// in\n    tag_35:\n      0x00\n      mload(0x40)\n      dup1\n      dup4\n      sub\n      dup2\n      0x00\n      dup8\n      dup1\n      extcodesize\n      iszero\n      dup1\n      iszero\n      tag_37\n      jumpi\n      0x00\n      dup1\n      revert\n    tag_37:\n      pop\n      gas\n      call\n      iszero\n      dup1\n      iszero\n      tag_39\n      jumpi\n      returndatasize\n      0x00\n      dup1\n      returndatacopy\n      revert(0x00, returndatasize)\n    tag_39:\n      pop\n      pop\n      pop\n      pop\n        /* \"mytest111/Factory.sol\":574:752  function Sethelloworldfromfactory(uint256 inindex,string memory inputnewstring, uint256 inputnewid)public {... */\n      pop\n      pop\n      pop\n      jump\t// out\n        /* \"mytest111/Factory.sol\":403:569  function Callhelloworldfromfactory (uint256 inindex,uint256 selectid) public view returns(string memory){... */\n    tag_16:\n        /* \"mytest111/Factory.sol\":493:506  string memory */\n      0x60\n        /* \"mytest111/Factory.sol\":524:529  myhws */\n      0x01\n        /* \"mytest111/Factory.sol\":530:537  inindex */\n      dup4\n        /* \"mytest111/Factory.sol\":524:538  myhws[inindex] */\n      dup2\n      sload\n      dup2\n      lt\n      tag_41\n      jumpi\n      tag_42\n      tag_33\n      jump\t// in\n    tag_42:\n    tag_41:\n      swap1\n      0x00\n      mstore\n      keccak256(0x00, 0x20)\n      add\n      0x00\n      swap1\n      sload\n      swap1\n      0x0100\n      exp\n      swap1\n      div\n      0xffffffffffffffffffffffffffffffffffffffff\n      and\n        /* \"mytest111/Factory.sol\":524:552  myhws[inindex].Selectwithmap */\n      0xffffffffffffffffffffffffffffffffffffffff\n      and\n      0x8f5ce785\n        /* \"mytest111/Factory.sol\":553:561  selectid */\n      dup4\n        /* \"mytest111/Factory.sol\":524:562  myhws[inindex].Selectwithmap(selectid) */\n      mload(0x40)\n      dup3\n      0xffffffff\n      and\n      0xe0\n      shl\n      dup2\n      mstore\n      0x04\n      add\n      tag_44\n      swap2\n      swap1\n      tag_45\n      jump\t// in\n    tag_44:\n      0x00\n      mload(0x40)\n      dup1\n      dup4\n      sub\n      dup2\n      dup7\n      gas\n      staticcall\n      iszero\n      dup1\n      iszero\n      tag_47\n      jumpi\n      returndatasize\n      0x00\n      dup1\n      returndatacopy\n      revert(0x00, returndatasize)\n    tag_47:\n      pop\n      pop\n      pop\n      pop\n      mload(0x40)\n      returndatasize\n      0x00\n      dup3\n      returndatacopy\n      returndatasize\n      not(0x1f)\n      0x1f\n      dup3\n      add\n      and\n      dup3\n      add\n      dup1\n      0x40\n      mstore\n      pop\n      dup2\n      add\n      swap1\n      tag_48\n      swap2\n      swap1\n      tag_49\n      jump\t// in\n    tag_48:\n        /* \"mytest111/Factory.sol\":517:562  return myhws[inindex].Selectwithmap(selectid) */\n      swap1\n      pop\n        /* \"mytest111/Factory.sol\":403:569  function Callhelloworldfromfactory (uint256 inindex,uint256 selectid) public view returns(string memory){... */\n      swap3\n      swap2\n      pop\n      pop\n      jump\t// out\n        /* \"mytest111/Factory.sol\":282:398  function Getmycontract(uint256 inputindex) public view returns (Helloworld){... */\n    tag_22:\n        /* \"mytest111/Factory.sol\":346:356  Helloworld */\n      0x00\n        /* \"mytest111/Factory.sol\":374:379  myhws */\n      0x01\n        /* \"mytest111/Factory.sol\":380:390  inputindex */\n      dup3\n        /* \"mytest111/Factory.sol\":374:391  myhws[inputindex] */\n      dup2\n      sload\n      dup2\n      lt\n      tag_51\n      jumpi\n      tag_52\n      tag_33\n      jump\t// in\n    tag_52:\n    tag_51:\n      swap1\n      0x00\n      mstore\n      keccak256(0x00, 0x20)\n      add\n      0x00\n      swap1\n      sload\n      swap1\n      0x0100\n      exp\n      swap1\n      div\n      0xffffffffffffffffffffffffffffffffffffffff\n      and\n        /* \"mytest111/Factory.sol\":367:391  return myhws[inputindex] */\n      swap1\n      pop\n        /* \"mytest111/Factory.sol\":282:398  function Getmycontract(uint256 inputindex) public view returns (Helloworld){... */\n      swap2\n      swap1\n      pop\n      jump\t// out\n    tag_27:\n      dataSize(sub_0)\n      dup1\n      dataOffset(sub_0)\n      dup4\n      codecopy\n      add\n      swap1\n      jump\t// out\n        /* \"#utility.yul\":7:82   */\n    tag_54:\n        /* \"#utility.yul\":40:46   */\n      0x00\n        /* \"#utility.yul\":73:75   */\n      0x40\n        /* \"#utility.yul\":67:76   */\n      mload\n        /* \"#utility.yul\":57:76   */\n      swap1\n      pop\n        /* \"#utility.yul\":7:82   */\n      swap1\n      jump\t// out\n        /* \"#utility.yul\":88:205   */\n    tag_55:\n        /* \"#utility.yul\":197:198   */\n      0x00\n        /* \"#utility.yul\":194:195   */\n      dup1\n        /* \"#utility.yul\":187:199   */\n      revert\n        /* \"#utility.yul\":211:328   */\n    tag_56:\n        /* \"#utility.yul\":320:321   */\n      0x00\n        /* \"#utility.yul\":317:318   */\n      dup1\n        /* \"#utility.yul\":310:322   */\n      revert\n        /* \"#utility.yul\":334:411   */\n    tag_57:\n        /* \"#utility.yul\":371:378   */\n      0x00\n        /* \"#utility.yul\":400:405   */\n      dup2\n        /* \"#utility.yul\":389:405   */\n      swap1\n      pop\n        /* \"#utility.yul\":334:411   */\n      swap2\n      swap1\n      pop\n      jump\t// out\n        /* \"#utility.yul\":417:539   */\n    tag_58:\n        /* \"#utility.yul\":490:514   */\n      tag_89\n        /* \"#utility.yul\":508:513   */\n      dup2\n        /* \"#utility.yul\":490:514   */\n      tag_57\n      jump\t// in\n    tag_89:\n        /* \"#utility.yul\":483:488   */\n      dup2\n        /* \"#utility.yul\":480:515   */\n      eq\n        /* \"#utility.yul\":470:533   */\n      tag_90\n      jumpi\n        /* \"#utility.yul\":529:530   */\n      0x00\n        /* \"#utility.yul\":526:527   */\n      dup1\n        /* \"#utility.yul\":519:531   */\n      revert\n        /* \"#utility.yul\":470:533   */\n    tag_90:\n        /* \"#utility.yul\":417:539   */\n      pop\n      jump\t// out\n        /* \"#utility.yul\":545:684   */\n    tag_59:\n        /* \"#utility.yul\":591:596   */\n      0x00\n        /* \"#utility.yul\":629:635   */\n      dup2\n        /* \"#utility.yul\":616:636   */\n      calldataload\n        /* \"#utility.yul\":607:636   */\n      swap1\n      pop\n        /* \"#utility.yul\":645:678   */\n      tag_92\n        /* \"#utility.yul\":672:677   */\n      dup2\n        /* \"#utility.yul\":645:678   */\n      tag_58\n      jump\t// in\n    tag_92:\n        /* \"#utility.yul\":545:684   */\n      swap3\n      swap2\n      pop\n      pop\n      jump\t// out\n        /* \"#utility.yul\":690:807   */\n    tag_60:\n        /* \"#utility.yul\":799:800   */\n      0x00\n        /* \"#utility.yul\":796:797   */\n      dup1\n        /* \"#utility.yul\":789:801   */\n      revert\n        /* \"#utility.yul\":813:930   */\n    tag_61:\n        /* \"#utility.yul\":922:923   */\n      0x00\n        /* \"#utility.yul\":919:920   */\n      dup1\n        /* \"#utility.yul\":912:924   */\n      revert\n        /* \"#utility.yul\":936:1038   */\n    tag_62:\n        /* \"#utility.yul\":977:983   */\n      0x00\n        /* \"#utility.yul\":1028:1030   */\n      0x1f\n        /* \"#utility.yul\":1024:1031   */\n      not\n        /* \"#utility.yul\":1019:1021   */\n      0x1f\n        /* \"#utility.yul\":1012:1017   */\n      dup4\n        /* \"#utility.yul\":1008:1022   */\n      add\n        /* \"#utility.yul\":1004:1032   */\n      and\n        /* \"#utility.yul\":994:1032   */\n      swap1\n      pop\n        /* \"#utility.yul\":936:1038   */\n      swap2\n      swap1\n      pop\n      jump\t// out\n        /* \"#utility.yul\":1044:1224   */\n    tag_63:\n        /* \"#utility.yul\":1092:1169   */\n      0x4e487b7100000000000000000000000000000000000000000000000000000000\n        /* \"#utility.yul\":1089:1090   */\n      0x00\n        /* \"#utility.yul\":1082:1170   */\n      mstore\n        /* \"#utility.yul\":1189:1193   */\n      0x41\n        /* \"#utility.yul\":1186:1187   */\n      0x04\n        /* \"#utility.yul\":1179:1194   */\n      mstore\n        /* \"#utility.yul\":1213:1217   */\n      0x24\n        /* \"#utility.yul\":1210:1211   */\n      0x00\n        /* \"#utility.yul\":1203:1218   */\n      revert\n        /* \"#utility.yul\":1230:1511   */\n    tag_64:\n        /* \"#utility.yul\":1313:1340   */\n      tag_98\n        /* \"#utility.yul\":1335:1339   */\n      dup3\n        /* \"#utility.yul\":1313:1340   */\n      tag_62\n      jump\t// in\n    tag_98:\n        /* \"#utility.yul\":1305:1311   */\n      dup2\n        /* \"#utility.yul\":1301:1341   */\n      add\n        /* \"#utility.yul\":1443:1449   */\n      dup2\n        /* \"#utility.yul\":1431:1441   */\n      dup2\n        /* \"#utility.yul\":1428:1450   */\n      lt\n        /* \"#utility.yul\":1407:1425   */\n      0xffffffffffffffff\n        /* \"#utility.yul\":1395:1405   */\n      dup3\n        /* \"#utility.yul\":1392:1426   */\n      gt\n        /* \"#utility.yul\":1389:1451   */\n      or\n        /* \"#utility.yul\":1386:1474   */\n      iszero\n      tag_99\n      jumpi\n        /* \"#utility.yul\":1454:1472   */\n      tag_100\n      tag_63\n      jump\t// in\n    tag_100:\n        /* \"#utility.yul\":1386:1474   */\n    tag_99:\n        /* \"#utility.yul\":1494:1504   */\n      dup1\n        /* \"#utility.yul\":1490:1492   */\n      0x40\n        /* \"#utility.yul\":1483:1505   */\n      mstore\n        /* \"#utility.yul\":1273:1511   */\n      pop\n        /* \"#utility.yul\":1230:1511   */\n      pop\n      pop\n      jump\t// out\n        /* \"#utility.yul\":1517:1646   */\n    tag_65:\n        /* \"#utility.yul\":1551:1557   */\n      0x00\n        /* \"#utility.yul\":1578:1598   */\n      tag_102\n      tag_54\n      jump\t// in\n    tag_102:\n        /* \"#utility.yul\":1568:1598   */\n      swap1\n      pop\n        /* \"#utility.yul\":1607:1640   */\n      tag_103\n        /* \"#utility.yul\":1635:1639   */\n      dup3\n        /* \"#utility.yul\":1627:1633   */\n      dup3\n        /* \"#utility.yul\":1607:1640   */\n      tag_64\n      jump\t// in\n    tag_103:\n        /* \"#utility.yul\":1517:1646   */\n      swap2\n      swap1\n      pop\n      jump\t// out\n        /* \"#utility.yul\":1652:1960   */\n    tag_66:\n        /* \"#utility.yul\":1714:1718   */\n      0x00\n        /* \"#utility.yul\":1804:1822   */\n      0xffffffffffffffff\n        /* \"#utility.yul\":1796:1802   */\n      dup3\n        /* \"#utility.yul\":1793:1823   */\n      gt\n        /* \"#utility.yul\":1790:1846   */\n      iszero\n      tag_105\n      jumpi\n        /* \"#utility.yul\":1826:1844   */\n      tag_106\n      tag_63\n      jump\t// in\n    tag_106:\n        /* \"#utility.yul\":1790:1846   */\n    tag_105:\n        /* \"#utility.yul\":1864:1893   */\n      tag_107\n        /* \"#utility.yul\":1886:1892   */\n      dup3\n        /* \"#utility.yul\":1864:1893   */\n      tag_62\n      jump\t// in\n    tag_107:\n        /* \"#utility.yul\":1856:1893   */\n      swap1\n      pop\n        /* \"#utility.yul\":1948:1952   */\n      0x20\n        /* \"#utility.yul\":1942:1946   */\n      dup2\n        /* \"#utility.yul\":1938:1953   */\n      add\n        /* \"#utility.yul\":1930:1953   */\n      swap1\n      pop\n        /* \"#utility.yul\":1652:1960   */\n      swap2\n      swap1\n      pop\n      jump\t// out\n        /* \"#utility.yul\":1966:2114   */\n    tag_67:\n        /* \"#utility.yul\":2064:2070   */\n      dup3\n        /* \"#utility.yul\":2059:2062   */\n      dup2\n        /* \"#utility.yul\":2054:2057   */\n      dup4\n        /* \"#utility.yul\":2041:2071   */\n      calldatacopy\n        /* \"#utility.yul\":2105:2106   */\n      0x00\n        /* \"#utility.yul\":2096:2102   */\n      dup4\n        /* \"#utility.yul\":2091:2094   */\n      dup4\n        /* \"#utility.yul\":2087:2103   */\n      add\n        /* \"#utility.yul\":2080:2107   */\n      mstore\n        /* \"#utility.yul\":1966:2114   */\n      pop\n      pop\n      pop\n      jump\t// out\n        /* \"#utility.yul\":2120:2545   */\n    tag_68:\n        /* \"#utility.yul\":2198:2203   */\n      0x00\n        /* \"#utility.yul\":2223:2289   */\n      tag_110\n        /* \"#utility.yul\":2239:2288   */\n      tag_111\n        /* \"#utility.yul\":2281:2287   */\n      dup5\n        /* \"#utility.yul\":2239:2288   */\n      tag_66\n      jump\t// in\n    tag_111:\n        /* \"#utility.yul\":2223:2289   */\n      tag_65\n      jump\t// in\n    tag_110:\n        /* \"#utility.yul\":2214:2289   */\n      swap1\n      pop\n        /* \"#utility.yul\":2312:2318   */\n      dup3\n        /* \"#utility.yul\":2305:2310   */\n      dup2\n        /* \"#utility.yul\":2298:2319   */\n      mstore\n        /* \"#utility.yul\":2350:2354   */\n      0x20\n        /* \"#utility.yul\":2343:2348   */\n      dup2\n        /* \"#utility.yul\":2339:2355   */\n      add\n        /* \"#utility.yul\":2388:2391   */\n      dup5\n        /* \"#utility.yul\":2379:2385   */\n      dup5\n        /* \"#utility.yul\":2374:2377   */\n      dup5\n        /* \"#utility.yul\":2370:2386   */\n      add\n        /* \"#utility.yul\":2367:2392   */\n      gt\n        /* \"#utility.yul\":2364:2476   */\n      iszero\n      tag_112\n      jumpi\n        /* \"#utility.yul\":2395:2474   */\n      tag_113\n      tag_61\n      jump\t// in\n    tag_113:\n        /* \"#utility.yul\":2364:2476   */\n    tag_112:\n        /* \"#utility.yul\":2485:2539   */\n      tag_114\n        /* \"#utility.yul\":2532:2538   */\n      dup5\n        /* \"#utility.yul\":2527:2530   */\n      dup3\n        /* \"#utility.yul\":2522:2525   */\n      dup6\n        /* \"#utility.yul\":2485:2539   */\n      tag_67\n      jump\t// in\n    tag_114:\n        /* \"#utility.yul\":2204:2545   */\n      pop\n        /* \"#utility.yul\":2120:2545   */\n      swap4\n      swap3\n      pop\n      pop\n      pop\n      jump\t// out\n        /* \"#utility.yul\":2565:2905   */\n    tag_69:\n        /* \"#utility.yul\":2621:2626   */\n      0x00\n        /* \"#utility.yul\":2670:2673   */\n      dup3\n        /* \"#utility.yul\":2663:2667   */\n      0x1f\n        /* \"#utility.yul\":2655:2661   */\n      dup4\n        /* \"#utility.yul\":2651:2668   */\n      add\n        /* \"#utility.yul\":2647:2674   */\n      slt\n        /* \"#utility.yul\":2637:2759   */\n      tag_116\n      jumpi\n        /* \"#utility.yul\":2678:2757   */\n      tag_117\n      tag_60\n      jump\t// in\n    tag_117:\n        /* \"#utility.yul\":2637:2759   */\n    tag_116:\n        /* \"#utility.yul\":2795:2801   */\n      dup2\n        /* \"#utility.yul\":2782:2802   */\n      calldataload\n        /* \"#utility.yul\":2820:2899   */\n      tag_118\n        /* \"#utility.yul\":2895:2898   */\n      dup5\n        /* \"#utility.yul\":2887:2893   */\n      dup3\n        /* \"#utility.yul\":2880:2884   */\n      0x20\n        /* \"#utility.yul\":2872:2878   */\n      dup7\n        /* \"#utility.yul\":2868:2885   */\n      add\n        /* \"#utility.yul\":2820:2899   */\n      tag_68\n      jump\t// in\n    tag_118:\n        /* \"#utility.yul\":2811:2899   */\n      swap2\n      pop\n        /* \"#utility.yul\":2627:2905   */\n      pop\n        /* \"#utility.yul\":2565:2905   */\n      swap3\n      swap2\n      pop\n      pop\n      jump\t// out\n        /* \"#utility.yul\":2911:3710   */\n    tag_11:\n        /* \"#utility.yul\":2998:3004   */\n      0x00\n        /* \"#utility.yul\":3006:3012   */\n      dup1\n        /* \"#utility.yul\":3014:3020   */\n      0x00\n        /* \"#utility.yul\":3063:3065   */\n      0x60\n        /* \"#utility.yul\":3051:3060   */\n      dup5\n        /* \"#utility.yul\":3042:3049   */\n      dup7\n        /* \"#utility.yul\":3038:3061   */\n      sub\n        /* \"#utility.yul\":3034:3066   */\n      slt\n        /* \"#utility.yul\":3031:3150   */\n      iszero\n      tag_120\n      jumpi\n        /* \"#utility.yul\":3069:3148   */\n      tag_121\n      tag_55\n      jump\t// in\n    tag_121:\n        /* \"#utility.yul\":3031:3150   */\n    tag_120:\n        /* \"#utility.yul\":3189:3190   */\n      0x00\n        /* \"#utility.yul\":3214:3267   */\n      tag_122\n        /* \"#utility.yul\":3259:3266   */\n      dup7\n        /* \"#utility.yul\":3250:3256   */\n      dup3\n        /* \"#utility.yul\":3239:3248   */\n      dup8\n        /* \"#utility.yul\":3235:3257   */\n      add\n        /* \"#utility.yul\":3214:3267   */\n      tag_59\n      jump\t// in\n    tag_122:\n        /* \"#utility.yul\":3204:3267   */\n      swap4\n      pop\n        /* \"#utility.yul\":3160:3277   */\n      pop\n        /* \"#utility.yul\":3344:3346   */\n      0x20\n        /* \"#utility.yul\":3333:3342   */\n      dup5\n        /* \"#utility.yul\":3329:3347   */\n      add\n        /* \"#utility.yul\":3316:3348   */\n      calldataload\n        /* \"#utility.yul\":3375:3393   */\n      0xffffffffffffffff\n        /* \"#utility.yul\":3367:3373   */\n      dup2\n        /* \"#utility.yul\":3364:3394   */\n      gt\n        /* \"#utility.yul\":3361:3478   */\n      iszero\n      tag_123\n      jumpi\n        /* \"#utility.yul\":3397:3476   */\n      tag_124\n      tag_56\n      jump\t// in\n    tag_124:\n        /* \"#utility.yul\":3361:3478   */\n    tag_123:\n        /* \"#utility.yul\":3502:3565   */\n      tag_125\n        /* \"#utility.yul\":3557:3564   */\n      dup7\n        /* \"#utility.yul\":3548:3554   */\n      dup3\n        /* \"#utility.yul\":3537:3546   */\n      dup8\n        /* \"#utility.yul\":3533:3555   */\n      add\n        /* \"#utility.yul\":3502:3565   */\n      tag_69\n      jump\t// in\n    tag_125:\n        /* \"#utility.yul\":3492:3565   */\n      swap3\n      pop\n        /* \"#utility.yul\":3287:3575   */\n      pop\n        /* \"#utility.yul\":3614:3616   */\n      0x40\n        /* \"#utility.yul\":3640:3693   */\n      tag_126\n        /* \"#utility.yul\":3685:3692   */\n      dup7\n        /* \"#utility.yul\":3676:3682   */\n      dup3\n        /* \"#utility.yul\":3665:3674   */\n      dup8\n        /* \"#utility.yul\":3661:3683   */\n      add\n        /* \"#utility.yul\":3640:3693   */\n      tag_59\n      jump\t// in\n    tag_126:\n        /* \"#utility.yul\":3630:3693   */\n      swap2\n      pop\n        /* \"#utility.yul\":3585:3703   */\n      pop\n        /* \"#utility.yul\":2911:3710   */\n      swap3\n      pop\n      swap3\n      pop\n      swap3\n      jump\t// out\n        /* \"#utility.yul\":3716:4190   */\n    tag_15:\n        /* \"#utility.yul\":3784:3790   */\n      0x00\n        /* \"#utility.yul\":3792:3798   */\n      dup1\n        /* \"#utility.yul\":3841:3843   */\n      0x40\n        /* \"#utility.yul\":3829:3838   */\n      dup4\n        /* \"#utility.yul\":3820:3827   */\n      dup6\n        /* \"#utility.yul\":3816:3839   */\n      sub\n        /* \"#utility.yul\":3812:3844   */\n      slt\n        /* \"#utility.yul\":3809:3928   */\n      iszero\n      tag_128\n      jumpi\n        /* \"#utility.yul\":3847:3926   */\n      tag_129\n      tag_55\n      jump\t// in\n    tag_129:\n        /* \"#utility.yul\":3809:3928   */\n    tag_128:\n        /* \"#utility.yul\":3967:3968   */\n      0x00\n        /* \"#utility.yul\":3992:4045   */\n      tag_130\n        /* \"#utility.yul\":4037:4044   */\n      dup6\n        /* \"#utility.yul\":4028:4034   */\n      dup3\n        /* \"#utility.yul\":4017:4026   */\n      dup7\n        /* \"#utility.yul\":4013:4035   */\n      add\n        /* \"#utility.yul\":3992:4045   */\n      tag_59\n      jump\t// in\n    tag_130:\n        /* \"#utility.yul\":3982:4045   */\n      swap3\n      pop\n        /* \"#utility.yul\":3938:4055   */\n      pop\n        /* \"#utility.yul\":4094:4096   */\n      0x20\n        /* \"#utility.yul\":4120:4173   */\n      tag_131\n        /* \"#utility.yul\":4165:4172   */\n      dup6\n        /* \"#utility.yul\":4156:4162   */\n      dup3\n        /* \"#utility.yul\":4145:4154   */\n      dup7\n        /* \"#utility.yul\":4141:4163   */\n      add\n        /* \"#utility.yul\":4120:4173   */\n      tag_59\n      jump\t// in\n    tag_131:\n        /* \"#utility.yul\":4110:4173   */\n      swap2\n      pop\n        /* \"#utility.yul\":4065:4183   */\n      pop\n        /* \"#utility.yul\":3716:4190   */\n      swap3\n      pop\n      swap3\n      swap1\n      pop\n      jump\t// out\n        /* \"#utility.yul\":4196:4295   */\n    tag_70:\n        /* \"#utility.yul\":4248:4254   */\n      0x00\n        /* \"#utility.yul\":4282:4287   */\n      dup2\n        /* \"#utility.yul\":4276:4288   */\n      mload\n        /* \"#utility.yul\":4266:4288   */\n      swap1\n      pop\n        /* \"#utility.yul\":4196:4295   */\n      swap2\n      swap1\n      pop\n      jump\t// out\n        /* \"#utility.yul\":4301:4470   */\n    tag_71:\n        /* \"#utility.yul\":4385:4396   */\n      0x00\n        /* \"#utility.yul\":4419:4425   */\n      dup3\n        /* \"#utility.yul\":4414:4417   */\n      dup3\n        /* \"#utility.yul\":4407:4426   */\n      mstore\n        /* \"#utility.yul\":4459:4463   */\n      0x20\n        /* \"#utility.yul\":4454:4457   */\n      dup3\n        /* \"#utility.yul\":4450:4464   */\n      add\n        /* \"#utility.yul\":4435:4464   */\n      swap1\n      pop\n        /* \"#utility.yul\":4301:4470   */\n      swap3\n      swap2\n      pop\n      pop\n      jump\t// out\n        /* \"#utility.yul\":4476:4615   */\n    tag_72:\n        /* \"#utility.yul\":4565:4571   */\n      dup3\n        /* \"#utility.yul\":4560:4563   */\n      dup2\n        /* \"#utility.yul\":4555:4558   */\n      dup4\n        /* \"#utility.yul\":4549:4572   */\n      mcopy\n        /* \"#utility.yul\":4606:4607   */\n      0x00\n        /* \"#utility.yul\":4597:4603   */\n      dup4\n        /* \"#utility.yul\":4592:4595   */\n      dup4\n        /* \"#utility.yul\":4588:4604   */\n      add\n        /* \"#utility.yul\":4581:4608   */\n      mstore\n        /* \"#utility.yul\":4476:4615   */\n      pop\n      pop\n      pop\n      jump\t// out\n        /* \"#utility.yul\":4621:4998   */\n    tag_73:\n        /* \"#utility.yul\":4709:4712   */\n      0x00\n        /* \"#utility.yul\":4737:4776   */\n      tag_136\n        /* \"#utility.yul\":4770:4775   */\n      dup3\n        /* \"#utility.yul\":4737:4776   */\n      tag_70\n      jump\t// in\n    tag_136:\n        /* \"#utility.yul\":4792:4863   */\n      tag_137\n        /* \"#utility.yul\":4856:4862   */\n      dup2\n        /* \"#utility.yul\":4851:4854   */\n      dup6\n        /* \"#utility.yul\":4792:4863   */\n      tag_71\n      jump\t// in\n    tag_137:\n        /* \"#utility.yul\":4785:4863   */\n      swap4\n      pop\n        /* \"#utility.yul\":4872:4937   */\n      tag_138\n        /* \"#utility.yul\":4930:4936   */\n      dup2\n        /* \"#utility.yul\":4925:4928   */\n      dup6\n        /* \"#utility.yul\":4918:4922   */\n      0x20\n        /* \"#utility.yul\":4911:4916   */\n      dup7\n        /* \"#utility.yul\":4907:4923   */\n      add\n        /* \"#utility.yul\":4872:4937   */\n      tag_72\n      jump\t// in\n    tag_138:\n        /* \"#utility.yul\":4962:4991   */\n      tag_139\n        /* \"#utility.yul\":4984:4990   */\n      dup2\n        /* \"#utility.yul\":4962:4991   */\n      tag_62\n      jump\t// in\n    tag_139:\n        /* \"#utility.yul\":4957:4960   */\n      dup5\n        /* \"#utility.yul\":4953:4992   */\n      add\n        /* \"#utility.yul\":4946:4992   */\n      swap2\n      pop\n        /* \"#utility.yul\":4713:4998   */\n      pop\n        /* \"#utility.yul\":4621:4998   */\n      swap3\n      swap2\n      pop\n      pop\n      jump\t// out\n        /* \"#utility.yul\":5004:5317   */\n    tag_18:\n        /* \"#utility.yul\":5117:5121   */\n      0x00\n        /* \"#utility.yul\":5155:5157   */\n      0x20\n        /* \"#utility.yul\":5144:5153   */\n      dup3\n        /* \"#utility.yul\":5140:5158   */\n      add\n        /* \"#utility.yul\":5132:5158   */\n      swap1\n      pop\n        /* \"#utility.yul\":5204:5213   */\n      dup2\n        /* \"#utility.yul\":5198:5202   */\n      dup2\n        /* \"#utility.yul\":5194:5214   */\n      sub\n        /* \"#utility.yul\":5190:5191   */\n      0x00\n        /* \"#utility.yul\":5179:5188   */\n      dup4\n        /* \"#utility.yul\":5175:5192   */\n      add\n        /* \"#utility.yul\":5168:5215   */\n      mstore\n        /* \"#utility.yul\":5232:5310   */\n      tag_141\n        /* \"#utility.yul\":5305:5309   */\n      dup2\n        /* \"#utility.yul\":5296:5302   */\n      dup5\n        /* \"#utility.yul\":5232:5310   */\n      tag_73\n      jump\t// in\n    tag_141:\n        /* \"#utility.yul\":5224:5310   */\n      swap1\n      pop\n        /* \"#utility.yul\":5004:5317   */\n      swap3\n      swap2\n      pop\n      pop\n      jump\t// out\n        /* \"#utility.yul\":5323:5652   */\n    tag_21:\n        /* \"#utility.yul\":5382:5388   */\n      0x00\n        /* \"#utility.yul\":5431:5433   */\n      0x20\n        /* \"#utility.yul\":5419:5428   */\n      dup3\n        /* \"#utility.yul\":5410:5417   */\n      dup5\n        /* \"#utility.yul\":5406:5429   */\n      sub\n        /* \"#utility.yul\":5402:5434   */\n      slt\n        /* \"#utility.yul\":5399:5518   */\n      iszero\n      tag_143\n      jumpi\n        /* \"#utility.yul\":5437:5516   */\n      tag_144\n      tag_55\n      jump\t// in\n    tag_144:\n        /* \"#utility.yul\":5399:5518   */\n    tag_143:\n        /* \"#utility.yul\":5557:5558   */\n      0x00\n        /* \"#utility.yul\":5582:5635   */\n      tag_145\n        /* \"#utility.yul\":5627:5634   */\n      dup5\n        /* \"#utility.yul\":5618:5624   */\n      dup3\n        /* \"#utility.yul\":5607:5616   */\n      dup6\n        /* \"#utility.yul\":5603:5625   */\n      add\n        /* \"#utility.yul\":5582:5635   */\n      tag_59\n      jump\t// in\n    tag_145:\n        /* \"#utility.yul\":5572:5635   */\n      swap2\n      pop\n        /* \"#utility.yul\":5528:5645   */\n      pop\n        /* \"#utility.yul\":5323:5652   */\n      swap3\n      swap2\n      pop\n      pop\n      jump\t// out\n        /* \"#utility.yul\":5658:5784   */\n    tag_74:\n        /* \"#utility.yul\":5695:5702   */\n      0x00\n        /* \"#utility.yul\":5735:5777   */\n      0xffffffffffffffffffffffffffffffffffffffff\n        /* \"#utility.yul\":5728:5733   */\n      dup3\n        /* \"#utility.yul\":5724:5778   */\n      and\n        /* \"#utility.yul\":5713:5778   */\n      swap1\n      pop\n        /* \"#utility.yul\":5658:5784   */\n      swap2\n      swap1\n      pop\n      jump\t// out\n        /* \"#utility.yul\":5790:5850   */\n    tag_75:\n        /* \"#utility.yul\":5818:5821   */\n      0x00\n        /* \"#utility.yul\":5839:5844   */\n      dup2\n        /* \"#utility.yul\":5832:5844   */\n      swap1\n      pop\n        /* \"#utility.yul\":5790:5850   */\n      swap2\n      swap1\n      pop\n      jump\t// out\n        /* \"#utility.yul\":5856:5998   */\n    tag_76:\n        /* \"#utility.yul\":5906:5915   */\n      0x00\n        /* \"#utility.yul\":5939:5992   */\n      tag_149\n        /* \"#utility.yul\":5957:5991   */\n      tag_150\n        /* \"#utility.yul\":5966:5990   */\n      tag_151\n        /* \"#utility.yul\":5984:5989   */\n      dup5\n        /* \"#utility.yul\":5966:5990   */\n      tag_74\n      jump\t// in\n    tag_151:\n        /* \"#utility.yul\":5957:5991   */\n      tag_75\n      jump\t// in\n    tag_150:\n        /* \"#utility.yul\":5939:5992   */\n      tag_74\n      jump\t// in\n    tag_149:\n        /* \"#utility.yul\":5926:5992   */\n      swap1\n      pop\n        /* \"#utility.yul\":5856:5998   */\n      swap2\n      swap1\n      pop\n      jump\t// out\n        /* \"#utility.yul\":6004:6130   */\n    tag_77:\n        /* \"#utility.yul\":6054:6063   */\n      0x00\n        /* \"#utility.yul\":6087:6124   */\n      tag_153\n        /* \"#utility.yul\":6118:6123   */\n      dup3\n        /* \"#utility.yul\":6087:6124   */\n      tag_76\n      jump\t// in\n    tag_153:\n        /* \"#utility.yul\":6074:6124   */\n      swap1\n      pop\n        /* \"#utility.yul\":6004:6130   */\n      swap2\n      swap1\n      pop\n      jump\t// out\n        /* \"#utility.yul\":6136:6280   */\n    tag_78:\n        /* \"#utility.yul\":6204:6213   */\n      0x00\n        /* \"#utility.yul\":6237:6274   */\n      tag_155\n        /* \"#utility.yul\":6268:6273   */\n      dup3\n        /* \"#utility.yul\":6237:6274   */\n      tag_77\n      jump\t// in\n    tag_155:\n        /* \"#utility.yul\":6224:6274   */\n      swap1\n      pop\n        /* \"#utility.yul\":6136:6280   */\n      swap2\n      swap1\n      pop\n      jump\t// out\n        /* \"#utility.yul\":6286:6453   */\n    tag_79:\n        /* \"#utility.yul\":6391:6446   */\n      tag_157\n        /* \"#utility.yul\":6440:6445   */\n      dup2\n        /* \"#utility.yul\":6391:6446   */\n      tag_78\n      jump\t// in\n    tag_157:\n        /* \"#utility.yul\":6386:6389   */\n      dup3\n        /* \"#utility.yul\":6379:6447   */\n      mstore\n        /* \"#utility.yul\":6286:6453   */\n      pop\n      pop\n      jump\t// out\n        /* \"#utility.yul\":6459:6717   */\n    tag_24:\n        /* \"#utility.yul\":6570:6574   */\n      0x00\n        /* \"#utility.yul\":6608:6610   */\n      0x20\n        /* \"#utility.yul\":6597:6606   */\n      dup3\n        /* \"#utility.yul\":6593:6611   */\n      add\n        /* \"#utility.yul\":6585:6611   */\n      swap1\n      pop\n        /* \"#utility.yul\":6621:6710   */\n      tag_159\n        /* \"#utility.yul\":6707:6708   */\n      0x00\n        /* \"#utility.yul\":6696:6705   */\n      dup4\n        /* \"#utility.yul\":6692:6709   */\n      add\n        /* \"#utility.yul\":6683:6689   */\n      dup5\n        /* \"#utility.yul\":6621:6710   */\n      tag_79\n      jump\t// in\n    tag_159:\n        /* \"#utility.yul\":6459:6717   */\n      swap3\n      swap2\n      pop\n      pop\n      jump\t// out\n        /* \"#utility.yul\":6723:6903   */\n    tag_33:\n        /* \"#utility.yul\":6771:6848   */\n      0x4e487b7100000000000000000000000000000000000000000000000000000000\n        /* \"#utility.yul\":6768:6769   */\n      0x00\n        /* \"#utility.yul\":6761:6849   */\n      mstore\n        /* \"#utility.yul\":6868:6872   */\n      0x32\n        /* \"#utility.yul\":6865:6866   */\n      0x04\n        /* \"#utility.yul\":6858:6873   */\n      mstore\n        /* \"#utility.yul\":6892:6896   */\n      0x24\n        /* \"#utility.yul\":6889:6890   */\n      0x00\n        /* \"#utility.yul\":6882:6897   */\n      revert\n        /* \"#utility.yul\":6909:7027   */\n    tag_80:\n        /* \"#utility.yul\":6996:7020   */\n      tag_162\n        /* \"#utility.yul\":7014:7019   */\n      dup2\n        /* \"#utility.yul\":6996:7020   */\n      tag_57\n      jump\t// in\n    tag_162:\n        /* \"#utility.yul\":6991:6994   */\n      dup3\n        /* \"#utility.yul\":6984:7021   */\n      mstore\n        /* \"#utility.yul\":6909:7027   */\n      pop\n      pop\n      jump\t// out\n        /* \"#utility.yul\":7033:7456   */\n    tag_36:\n        /* \"#utility.yul\":7174:7178   */\n      0x00\n        /* \"#utility.yul\":7212:7214   */\n      0x40\n        /* \"#utility.yul\":7201:7210   */\n      dup3\n        /* \"#utility.yul\":7197:7215   */\n      add\n        /* \"#utility.yul\":7189:7215   */\n      swap1\n      pop\n        /* \"#utility.yul\":7261:7270   */\n      dup2\n        /* \"#utility.yul\":7255:7259   */\n      dup2\n        /* \"#utility.yul\":7251:7271   */\n      sub\n        /* \"#utility.yul\":7247:7248   */\n      0x00\n        /* \"#utility.yul\":7236:7245   */\n      dup4\n        /* \"#utility.yul\":7232:7249   */\n      add\n        /* \"#utility.yul\":7225:7272   */\n      mstore\n        /* \"#utility.yul\":7289:7367   */\n      tag_164\n        /* \"#utility.yul\":7362:7366   */\n      dup2\n        /* \"#utility.yul\":7353:7359   */\n      dup6\n        /* \"#utility.yul\":7289:7367   */\n      tag_73\n      jump\t// in\n    tag_164:\n        /* \"#utility.yul\":7281:7367   */\n      swap1\n      pop\n        /* \"#utility.yul\":7377:7449   */\n      tag_165\n        /* \"#utility.yul\":7445:7447   */\n      0x20\n        /* \"#utility.yul\":7434:7443   */\n      dup4\n        /* \"#utility.yul\":7430:7448   */\n      add\n        /* \"#utility.yul\":7421:7427   */\n      dup5\n        /* \"#utility.yul\":7377:7449   */\n      tag_80\n      jump\t// in\n    tag_165:\n        /* \"#utility.yul\":7033:7456   */\n      swap4\n      swap3\n      pop\n      pop\n      pop\n      jump\t// out\n        /* \"#utility.yul\":7462:7684   */\n    tag_45:\n        /* \"#utility.yul\":7555:7559   */\n      0x00\n        /* \"#utility.yul\":7593:7595   */\n      0x20\n        /* \"#utility.yul\":7582:7591   */\n      dup3\n        /* \"#utility.yul\":7578:7596   */\n      add\n        /* \"#utility.yul\":7570:7596   */\n      swap1\n      pop\n        /* \"#utility.yul\":7606:7677   */\n      tag_167\n        /* \"#utility.yul\":7674:7675   */\n      0x00\n        /* \"#utility.yul\":7663:7672   */\n      dup4\n        /* \"#utility.yul\":7659:7676   */\n      add\n        /* \"#utility.yul\":7650:7656   */\n      dup5\n        /* \"#utility.yul\":7606:7677   */\n      tag_80\n      jump\t// in\n    tag_167:\n        /* \"#utility.yul\":7462:7684   */\n      swap3\n      swap2\n      pop\n      pop\n      jump\t// out\n        /* \"#utility.yul\":7690:8124   */\n    tag_81:\n        /* \"#utility.yul\":7779:7784   */\n      0x00\n        /* \"#utility.yul\":7804:7870   */\n      tag_169\n        /* \"#utility.yul\":7820:7869   */\n      tag_170\n        /* \"#utility.yul\":7862:7868   */\n      dup5\n        /* \"#utility.yul\":7820:7869   */\n      tag_66\n      jump\t// in\n    tag_170:\n        /* \"#utility.yul\":7804:7870   */\n      tag_65\n      jump\t// in\n    tag_169:\n        /* \"#utility.yul\":7795:7870   */\n      swap1\n      pop\n        /* \"#utility.yul\":7893:7899   */\n      dup3\n        /* \"#utility.yul\":7886:7891   */\n      dup2\n        /* \"#utility.yul\":7879:7900   */\n      mstore\n        /* \"#utility.yul\":7931:7935   */\n      0x20\n        /* \"#utility.yul\":7924:7929   */\n      dup2\n        /* \"#utility.yul\":7920:7936   */\n      add\n        /* \"#utility.yul\":7969:7972   */\n      dup5\n        /* \"#utility.yul\":7960:7966   */\n      dup5\n        /* \"#utility.yul\":7955:7958   */\n      dup5\n        /* \"#utility.yul\":7951:7967   */\n      add\n        /* \"#utility.yul\":7948:7973   */\n      gt\n        /* \"#utility.yul\":7945:8057   */\n      iszero\n      tag_171\n      jumpi\n        /* \"#utility.yul\":7976:8055   */\n      tag_172\n      tag_61\n      jump\t// in\n    tag_172:\n        /* \"#utility.yul\":7945:8057   */\n    tag_171:\n        /* \"#utility.yul\":8066:8118   */\n      tag_173\n        /* \"#utility.yul\":8111:8117   */\n      dup5\n        /* \"#utility.yul\":8106:8109   */\n      dup3\n        /* \"#utility.yul\":8101:8104   */\n      dup6\n        /* \"#utility.yul\":8066:8118   */\n      tag_72\n      jump\t// in\n    tag_173:\n        /* \"#utility.yul\":7785:8124   */\n      pop\n        /* \"#utility.yul\":7690:8124   */\n      swap4\n      swap3\n      pop\n      pop\n      pop\n      jump\t// out\n        /* \"#utility.yul\":8144:8499   */\n    tag_82:\n        /* \"#utility.yul\":8211:8216   */\n      0x00\n        /* \"#utility.yul\":8260:8263   */\n      dup3\n        /* \"#utility.yul\":8253:8257   */\n      0x1f\n        /* \"#utility.yul\":8245:8251   */\n      dup4\n        /* \"#utility.yul\":8241:8258   */\n      add\n        /* \"#utility.yul\":8237:8264   */\n      slt\n        /* \"#utility.yul\":8227:8349   */\n      tag_175\n      jumpi\n        /* \"#utility.yul\":8268:8347   */\n      tag_176\n      tag_60\n      jump\t// in\n    tag_176:\n        /* \"#utility.yul\":8227:8349   */\n    tag_175:\n        /* \"#utility.yul\":8378:8384   */\n      dup2\n        /* \"#utility.yul\":8372:8385   */\n      mload\n        /* \"#utility.yul\":8403:8493   */\n      tag_177\n        /* \"#utility.yul\":8489:8492   */\n      dup5\n        /* \"#utility.yul\":8481:8487   */\n      dup3\n        /* \"#utility.yul\":8474:8478   */\n      0x20\n        /* \"#utility.yul\":8466:8472   */\n      dup7\n        /* \"#utility.yul\":8462:8479   */\n      add\n        /* \"#utility.yul\":8403:8493   */\n      tag_81\n      jump\t// in\n    tag_177:\n        /* \"#utility.yul\":8394:8493   */\n      swap2\n      pop\n        /* \"#utility.yul\":8217:8499   */\n      pop\n        /* \"#utility.yul\":8144:8499   */\n      swap3\n      swap2\n      pop\n      pop\n      jump\t// out\n        /* \"#utility.yul\":8505:9029   */\n    tag_49:\n        /* \"#utility.yul\":8585:8591   */\n      0x00\n        /* \"#utility.yul\":8634:8636   */\n      0x20\n        /* \"#utility.yul\":8622:8631   */\n      dup3\n        /* \"#utility.yul\":8613:8620   */\n      dup5\n        /* \"#utility.yul\":8609:8632   */\n      sub\n        /* \"#utility.yul\":8605:8637   */\n      slt\n        /* \"#utility.yul\":8602:8721   */\n      iszero\n      tag_179\n      jumpi\n        /* \"#utility.yul\":8640:8719   */\n      tag_180\n      tag_55\n      jump\t// in\n    tag_180:\n        /* \"#utility.yul\":8602:8721   */\n    tag_179:\n        /* \"#utility.yul\":8781:8782   */\n      0x00\n        /* \"#utility.yul\":8770:8779   */\n      dup3\n        /* \"#utility.yul\":8766:8783   */\n      add\n        /* \"#utility.yul\":8760:8784   */\n      mload\n        /* \"#utility.yul\":8811:8829   */\n      0xffffffffffffffff\n        /* \"#utility.yul\":8803:8809   */\n      dup2\n        /* \"#utility.yul\":8800:8830   */\n      gt\n        /* \"#utility.yul\":8797:8914   */\n      iszero\n      tag_181\n      jumpi\n        /* \"#utility.yul\":8833:8912   */\n      tag_182\n      tag_56\n      jump\t// in\n    tag_182:\n        /* \"#utility.yul\":8797:8914   */\n    tag_181:\n        /* \"#utility.yul\":8938:9012   */\n      tag_183\n        /* \"#utility.yul\":9004:9011   */\n      dup5\n        /* \"#utility.yul\":8995:9001   */\n      dup3\n        /* \"#utility.yul\":8984:8993   */\n      dup6\n        /* \"#utility.yul\":8980:9002   */\n      add\n        /* \"#utility.yul\":8938:9012   */\n      tag_82\n      jump\t// in\n    tag_183:\n        /* \"#utility.yul\":8928:9012   */\n      swap2\n      pop\n        /* \"#utility.yul\":8731:9022   */\n      pop\n        /* \"#utility.yul\":8505:9029   */\n      swap3\n      swap2\n      pop\n      pop\n      jump\t// out\n    stop\n\n    sub_0: assembly {\n            /* \"mytest111/mynewfile.sol\":136:2016  contract Helloworld{... */\n          mstore(0x40, 0x80)\n            /* \"mytest111/mynewfile.sol\":161:191  string readvalue=\"Hello world\" */\n          mload(0x40)\n          dup1\n          0x40\n          add\n          0x40\n          mstore\n          dup1\n          0x0b\n          dup2\n          mstore\n          0x20\n          add\n          0x48656c6c6f20776f726c64000000000000000000000000000000000000000000\n          dup2\n          mstore\n          pop\n          0x00\n          swap1\n          dup2\n          tag_1\n          swap2\n          swap1\n          tag_2\n          jump\t// in\n        tag_1:\n          pop\n            /* \"mytest111/mynewfile.sol\":496:520  string RTTT1=\"reset ok!\" */\n          mload(0x40)\n          dup1\n          0x40\n          add\n          0x40\n          mstore\n          dup1\n          0x09\n          dup2\n          mstore\n          0x20\n          add\n          0x7265736574206f6b210000000000000000000000000000000000000000000000\n          dup2\n          mstore\n          pop\n          0x03\n          swap1\n          dup2\n          tag_3\n          swap2\n          swap1\n          tag_2\n          jump\t// in\n        tag_3:\n          pop\n            /* \"mytest111/mynewfile.sol\":727:740  string ret=\"\" */\n          mload(0x40)\n          dup1\n          0x20\n          add\n          0x40\n          mstore\n          dup1\n          0x00\n          dup2\n          mstore\n          pop\n          0x04\n          swap1\n          dup2\n          tag_4\n          swap2\n          swap1\n          tag_2\n          jump\t// in\n        tag_4:\n          pop\n            /* \"mytest111/mynewfile.sol\":136:2016  contract Helloworld{... */\n          callvalue\n          dup1\n          iszero\n          tag_5\n          jumpi\n          0x00\n          dup1\n          revert\n        tag_5:\n          pop\n          jump(tag_6)\n            /* \"#utility.yul\":7:106   */\n        tag_7:\n            /* \"#utility.yul\":59:65   */\n          0x00\n            /* \"#utility.yul\":93:98   */\n          dup2\n            /* \"#utility.yul\":87:99   */\n          mload\n            /* \"#utility.yul\":77:99   */\n          swap1\n          pop\n            /* \"#utility.yul\":7:106   */\n          swap2\n          swap1\n          pop\n          jump\t// out\n            /* \"#utility.yul\":112:292   */\n        tag_8:\n            /* \"#utility.yul\":160:237   */\n          0x4e487b7100000000000000000000000000000000000000000000000000000000\n            /* \"#utility.yul\":157:158   */\n          0x00\n            /* \"#utility.yul\":150:238   */\n          mstore\n            /* \"#utility.yul\":257:261   */\n          0x41\n            /* \"#utility.yul\":254:255   */\n          0x04\n            /* \"#utility.yul\":247:262   */\n          mstore\n            /* \"#utility.yul\":281:285   */\n          0x24\n            /* \"#utility.yul\":278:279   */\n          0x00\n            /* \"#utility.yul\":271:286   */\n          revert\n            /* \"#utility.yul\":298:478   */\n        tag_9:\n            /* \"#utility.yul\":346:423   */\n          0x4e487b7100000000000000000000000000000000000000000000000000000000\n            /* \"#utility.yul\":343:344   */\n          0x00\n            /* \"#utility.yul\":336:424   */\n          mstore\n            /* \"#utility.yul\":443:447   */\n          0x22\n            /* \"#utility.yul\":440:441   */\n          0x04\n            /* \"#utility.yul\":433:448   */\n          mstore\n            /* \"#utility.yul\":467:471   */\n          0x24\n            /* \"#utility.yul\":464:465   */\n          0x00\n            /* \"#utility.yul\":457:472   */\n          revert\n            /* \"#utility.yul\":484:804   */\n        tag_10:\n            /* \"#utility.yul\":528:534   */\n          0x00\n            /* \"#utility.yul\":565:566   */\n          0x02\n            /* \"#utility.yul\":559:563   */\n          dup3\n            /* \"#utility.yul\":555:567   */\n          div\n            /* \"#utility.yul\":545:567   */\n          swap1\n          pop\n            /* \"#utility.yul\":612:613   */\n          0x01\n            /* \"#utility.yul\":606:610   */\n          dup3\n            /* \"#utility.yul\":602:614   */\n          and\n            /* \"#utility.yul\":633:651   */\n          dup1\n            /* \"#utility.yul\":623:704   */\n          tag_32\n          jumpi\n            /* \"#utility.yul\":689:693   */\n          0x7f\n            /* \"#utility.yul\":681:687   */\n          dup3\n            /* \"#utility.yul\":677:694   */\n          and\n            /* \"#utility.yul\":667:694   */\n          swap2\n          pop\n            /* \"#utility.yul\":623:704   */\n        tag_32:\n            /* \"#utility.yul\":751:753   */\n          0x20\n            /* \"#utility.yul\":743:749   */\n          dup3\n            /* \"#utility.yul\":740:754   */\n          lt\n            /* \"#utility.yul\":720:738   */\n          dup2\n            /* \"#utility.yul\":717:755   */\n          sub\n            /* \"#utility.yul\":714:798   */\n          tag_33\n          jumpi\n            /* \"#utility.yul\":770:788   */\n          tag_34\n          tag_9\n          jump\t// in\n        tag_34:\n            /* \"#utility.yul\":714:798   */\n        tag_33:\n            /* \"#utility.yul\":535:804   */\n          pop\n            /* \"#utility.yul\":484:804   */\n          swap2\n          swap1\n          pop\n          jump\t// out\n            /* \"#utility.yul\":810:951   */\n        tag_11:\n            /* \"#utility.yul\":859:863   */\n          0x00\n            /* \"#utility.yul\":882:885   */\n          dup2\n            /* \"#utility.yul\":874:885   */\n          swap1\n          pop\n            /* \"#utility.yul\":905:908   */\n          dup2\n            /* \"#utility.yul\":902:903   */\n          0x00\n            /* \"#utility.yul\":895:909   */\n          mstore\n            /* \"#utility.yul\":939:943   */\n          0x20\n            /* \"#utility.yul\":936:937   */\n          0x00\n            /* \"#utility.yul\":926:944   */\n          keccak256\n            /* \"#utility.yul\":918:944   */\n          swap1\n          pop\n            /* \"#utility.yul\":810:951   */\n          swap2\n          swap1\n          pop\n          jump\t// out\n            /* \"#utility.yul\":957:1050   */\n        tag_12:\n            /* \"#utility.yul\":994:1000   */\n          0x00\n            /* \"#utility.yul\":1041:1043   */\n          0x20\n            /* \"#utility.yul\":1036:1038   */\n          0x1f\n            /* \"#utility.yul\":1029:1034   */\n          dup4\n            /* \"#utility.yul\":1025:1039   */\n          add\n            /* \"#utility.yul\":1021:1044   */\n          div\n            /* \"#utility.yul\":1011:1044   */\n          swap1\n          pop\n            /* \"#utility.yul\":957:1050   */\n          swap2\n          swap1\n          pop\n          jump\t// out\n            /* \"#utility.yul\":1056:1163   */\n        tag_13:\n            /* \"#utility.yul\":1100:1108   */\n          0x00\n            /* \"#utility.yul\":1150:1155   */\n          dup3\n            /* \"#utility.yul\":1144:1148   */\n          dup3\n            /* \"#utility.yul\":1140:1156   */\n          shl\n            /* \"#utility.yul\":1119:1156   */\n          swap1\n          pop\n            /* \"#utility.yul\":1056:1163   */\n          swap3\n          swap2\n          pop\n          pop\n          jump\t// out\n            /* \"#utility.yul\":1169:1562   */\n        tag_14:\n            /* \"#utility.yul\":1238:1244   */\n          0x00\n            /* \"#utility.yul\":1288:1289   */\n          0x08\n            /* \"#utility.yul\":1276:1286   */\n          dup4\n            /* \"#utility.yul\":1272:1290   */\n          mul\n            /* \"#utility.yul\":1311:1408   */\n          tag_39\n            /* \"#utility.yul\":1341:1407   */\n          0xffffffffffffffffffffffffffffffffffffffffffffffffffffffffffffffff\n            /* \"#utility.yul\":1330:1339   */\n          dup3\n            /* \"#utility.yul\":1311:1408   */\n          tag_13\n          jump\t// in\n        tag_39:\n            /* \"#utility.yul\":1429:1468   */\n          tag_40\n            /* \"#utility.yul\":1459:1467   */\n          dup7\n            /* \"#utility.yul\":1448:1457   */\n          dup4\n            /* \"#utility.yul\":1429:1468   */\n          tag_13\n          jump\t// in\n        tag_40:\n            /* \"#utility.yul\":1417:1468   */\n          swap6\n          pop\n            /* \"#utility.yul\":1501:1505   */\n          dup1\n            /* \"#utility.yul\":1497:1506   */\n          not\n            /* \"#utility.yul\":1490:1495   */\n          dup5\n            /* \"#utility.yul\":1486:1507   */\n          and\n            /* \"#utility.yul\":1477:1507   */\n          swap4\n          pop\n            /* \"#utility.yul\":1550:1554   */\n          dup1\n            /* \"#utility.yul\":1540:1548   */\n          dup7\n            /* \"#utility.yul\":1536:1555   */\n          and\n            /* \"#utility.yul\":1529:1534   */\n          dup5\n            /* \"#utility.yul\":1526:1556   */\n          or\n            /* \"#utility.yul\":1516:1556   */\n          swap3\n          pop\n            /* \"#utility.yul\":1245:1562   */\n          pop\n          pop\n            /* \"#utility.yul\":1169:1562   */\n          swap4\n          swap3\n          pop\n          pop\n          pop\n          jump\t// out\n            /* \"#utility.yul\":1568:1645   */\n        tag_15:\n            /* \"#utility.yul\":1605:1612   */\n          0x00\n            /* \"#utility.yul\":1634:1639   */\n          dup2\n            /* \"#utility.yul\":1623:1639   */\n          swap1\n          pop\n            /* \"#utility.yul\":1568:1645   */\n          swap2\n          swap1\n          pop\n          jump\t// out\n            /* \"#utility.yul\":1651:1711   */\n        tag_16:\n            /* \"#utility.yul\":1679:1682   */\n          0x00\n            /* \"#utility.yul\":1700:1705   */\n          dup2\n            /* \"#utility.yul\":1693:1705   */\n          swap1\n          pop\n            /* \"#utility.yul\":1651:1711   */\n          swap2\n          swap1\n          pop\n          jump\t// out\n            /* \"#utility.yul\":1717:1859   */\n        tag_17:\n            /* \"#utility.yul\":1767:1776   */\n          0x00\n            /* \"#utility.yul\":1800:1853   */\n          tag_44\n            /* \"#utility.yul\":1818:1852   */\n          tag_45\n            /* \"#utility.yul\":1827:1851   */\n          tag_46\n            /* \"#utility.yul\":1845:1850   */\n          dup5\n            /* \"#utility.yul\":1827:1851   */\n          tag_15\n          jump\t// in\n        tag_46:\n            /* \"#utility.yul\":1818:1852   */\n          tag_16\n          jump\t// in\n        tag_45:\n            /* \"#utility.yul\":1800:1853   */\n          tag_15\n          jump\t// in\n        tag_44:\n            /* \"#utility.yul\":1787:1853   */\n          swap1\n          pop\n            /* \"#utility.yul\":1717:1859   */\n          swap2\n          swap1\n          pop\n          jump\t// out\n            /* \"#utility.yul\":1865:1940   */\n        tag_18:\n            /* \"#utility.yul\":1908:1911   */\n          0x00\n            /* \"#utility.yul\":1929:1934   */\n          dup2\n            /* \"#utility.yul\":1922:1934   */\n          swap1\n          pop\n            /* \"#utility.yul\":1865:1940   */\n          swap2\n          swap1\n          pop\n          jump\t// out\n            /* \"#utility.yul\":1946:2215   */\n        tag_19:\n            /* \"#utility.yul\":2056:2095   */\n          tag_49\n            /* \"#utility.yul\":2087:2094   */\n          dup4\n            /* \"#utility.yul\":2056:2095   */\n          tag_17\n          jump\t// in\n        tag_49:\n            /* \"#utility.yul\":2117:2208   */\n          tag_50\n            /* \"#utility.yul\":2166:2207   */\n          tag_51\n            /* \"#utility.yul\":2190:2206   */\n          dup3\n            /* \"#utility.yul\":2166:2207   */\n          tag_18\n          jump\t// in\n        tag_51:\n            /* \"#utility.yul\":2158:2164   */\n          dup5\n            /* \"#utility.yul\":2151:2155   */\n          dup5\n            /* \"#utility.yul\":2145:2156   */\n          sload\n            /* \"#utility.yul\":2117:2208   */\n          tag_14\n          jump\t// in\n        tag_50:\n            /* \"#utility.yul\":2111:2115   */\n          dup3\n            /* \"#utility.yul\":2104:2209   */\n          sstore\n            /* \"#utility.yul\":2022:2215   */\n          pop\n            /* \"#utility.yul\":1946:2215   */\n          pop\n          pop\n          pop\n          jump\t// out\n            /* \"#utility.yul\":2221:2294   */\n        tag_20:\n            /* \"#utility.yul\":2266:2269   */\n          0x00\n            /* \"#utility.yul\":2221:2294   */\n          swap1\n          jump\t// out\n            /* \"#utility.yul\":2300:2489   */\n        tag_21:\n            /* \"#utility.yul\":2377:2409   */\n          tag_54\n          tag_20\n          jump\t// in\n        tag_54:\n            /* \"#utility.yul\":2418:2483   */\n          tag_55\n            /* \"#utility.yul\":2476:2482   */\n          dup2\n            /* \"#utility.yul\":2468:2474   */\n          dup5\n            /* \"#utility.yul\":2462:2466   */\n          dup5\n            /* \"#utility.yul\":2418:2483   */\n          tag_19\n          jump\t// in\n        tag_55:\n            /* \"#utility.yul\":2353:2489   */\n          pop\n            /* \"#utility.yul\":2300:2489   */\n          pop\n          pop\n          jump\t// out\n            /* \"#utility.yul\":2495:2681   */\n        tag_22:\n            /* \"#utility.yul\":2555:2675   */\n        tag_57:\n            /* \"#utility.yul\":2572:2575   */\n          dup2\n            /* \"#utility.yul\":2565:2570   */\n          dup2\n            /* \"#utility.yul\":2562:2576   */\n          lt\n            /* \"#utility.yul\":2555:2675   */\n          iszero\n          tag_59\n          jumpi\n            /* \"#utility.yul\":2626:2665   */\n          tag_60\n            /* \"#utility.yul\":2663:2664   */\n          0x00\n            /* \"#utility.yul\":2656:2661   */\n          dup3\n            /* \"#utility.yul\":2626:2665   */\n          tag_21\n          jump\t// in\n        tag_60:\n            /* \"#utility.yul\":2599:2600   */\n          0x01\n            /* \"#utility.yul\":2592:2597   */\n          dup2\n            /* \"#utility.yul\":2588:2601   */\n          add\n            /* \"#utility.yul\":2579:2601   */\n          swap1\n          pop\n            /* \"#utility.yul\":2555:2675   */\n          jump(tag_57)\n        tag_59:\n            /* \"#utility.yul\":2495:2681   */\n          pop\n          pop\n          jump\t// out\n            /* \"#utility.yul\":2687:3230   */\n        tag_23:\n            /* \"#utility.yul\":2788:2790   */\n          0x1f\n            /* \"#utility.yul\":2783:2786   */\n          dup3\n            /* \"#utility.yul\":2780:2791   */\n          gt\n            /* \"#utility.yul\":2777:3223   */\n          iszero\n          tag_62\n          jumpi\n            /* \"#utility.yul\":2822:2860   */\n          tag_63\n            /* \"#utility.yul\":2854:2859   */\n          dup2\n            /* \"#utility.yul\":2822:2860   */\n          tag_11\n          jump\t// in\n        tag_63:\n            /* \"#utility.yul\":2906:2935   */\n          tag_64\n            /* \"#utility.yul\":2924:2934   */\n          dup5\n            /* \"#utility.yul\":2906:2935   */\n          tag_12\n          jump\t// in\n        tag_64:\n            /* \"#utility.yul\":2896:2904   */\n          dup2\n            /* \"#utility.yul\":2892:2936   */\n          add\n            /* \"#utility.yul\":3089:3091   */\n          0x20\n            /* \"#utility.yul\":3077:3087   */\n          dup6\n            /* \"#utility.yul\":3074:3092   */\n          lt\n            /* \"#utility.yul\":3071:3120   */\n          iszero\n          tag_65\n          jumpi\n            /* \"#utility.yul\":3110:3118   */\n          dup2\n            /* \"#utility.yul\":3095:3118   */\n          swap1\n          pop\n            /* \"#utility.yul\":3071:3120   */\n        tag_65:\n            /* \"#utility.yul\":3133:3213   */\n          tag_66\n            /* \"#utility.yul\":3189:3211   */\n          tag_67\n            /* \"#utility.yul\":3207:3210   */\n          dup6\n            /* \"#utility.yul\":3189:3211   */\n          tag_12\n          jump\t// in\n        tag_67:\n            /* \"#utility.yul\":3179:3187   */\n          dup4\n            /* \"#utility.yul\":3175:3212   */\n          add\n            /* \"#utility.yul\":3162:3173   */\n          dup3\n            /* \"#utility.yul\":3133:3213   */\n          tag_22\n          jump\t// in\n        tag_66:\n            /* \"#utility.yul\":2792:3223   */\n          pop\n          pop\n            /* \"#utility.yul\":2777:3223   */\n        tag_62:\n            /* \"#utility.yul\":2687:3230   */\n          pop\n          pop\n          pop\n          jump\t// out\n            /* \"#utility.yul\":3236:3353   */\n        tag_24:\n            /* \"#utility.yul\":3290:3298   */\n          0x00\n            /* \"#utility.yul\":3340:3345   */\n          dup3\n            /* \"#utility.yul\":3334:3338   */\n          dup3\n            /* \"#utility.yul\":3330:3346   */\n          shr\n            /* \"#utility.yul\":3309:3346   */\n          swap1\n          pop\n            /* \"#utility.yul\":3236:3353   */\n          swap3\n          swap2\n          pop\n          pop\n          jump\t// out\n            /* \"#utility.yul\":3359:3528   */\n        tag_25:\n            /* \"#utility.yul\":3403:3409   */\n          0x00\n            /* \"#utility.yul\":3436:3487   */\n          tag_70\n            /* \"#utility.yul\":3484:3485   */\n          0x00\n            /* \"#utility.yul\":3480:3486   */\n          not\n            /* \"#utility.yul\":3472:3477   */\n          dup5\n            /* \"#utility.yul\":3469:3470   */\n          0x08\n            /* \"#utility.yul\":3465:3478   */\n          mul\n            /* \"#utility.yul\":3436:3487   */\n          tag_24\n          jump\t// in\n        tag_70:\n            /* \"#utility.yul\":3432:3488   */\n          not\n            /* \"#utility.yul\":3517:3521   */\n          dup1\n            /* \"#utility.yul\":3511:3515   */\n          dup4\n            /* \"#utility.yul\":3507:3522   */\n          and\n            /* \"#utility.yul\":3497:3522   */\n          swap2\n          pop\n            /* \"#utility.yul\":3410:3528   */\n          pop\n            /* \"#utility.yul\":3359:3528   */\n          swap3\n          swap2\n          pop\n          pop\n          jump\t// out\n            /* \"#utility.yul\":3533:3828   */\n        tag_26:\n            /* \"#utility.yul\":3609:3613   */\n          0x00\n            /* \"#utility.yul\":3755:3784   */\n          tag_72\n            /* \"#utility.yul\":3780:3783   */\n          dup4\n            /* \"#utility.yul\":3774:3778   */\n          dup4\n            /* \"#utility.yul\":3755:3784   */\n          tag_25\n          jump\t// in\n        tag_72:\n            /* \"#utility.yul\":3747:3784   */\n          swap2\n          pop\n            /* \"#utility.yul\":3817:3820   */\n          dup3\n            /* \"#utility.yul\":3814:3815   */\n          0x02\n            /* \"#utility.yul\":3810:3821   */\n          mul\n            /* \"#utility.yul\":3804:3808   */\n          dup3\n            /* \"#utility.yul\":3801:3822   */\n          or\n            /* \"#utility.yul\":3793:3822   */\n          swap1\n          pop\n            /* \"#utility.yul\":3533:3828   */\n          swap3\n          swap2\n          pop\n          pop\n          jump\t// out\n            /* \"#utility.yul\":3833:5228   */\n        tag_2:\n            /* \"#utility.yul\":3950:3987   */\n          tag_74\n            /* \"#utility.yul\":3983:3986   */\n          dup3\n            /* \"#utility.yul\":3950:3987   */\n          tag_7\n          jump\t// in\n        tag_74:\n            /* \"#utility.yul\":4052:4070   */\n          0xffffffffffffffff\n            /* \"#utility.yul\":4044:4050   */\n          dup2\n            /* \"#utility.yul\":4041:4071   */\n          gt\n            /* \"#utility.yul\":4038:4094   */\n          iszero\n          tag_75\n          jumpi\n            /* \"#utility.yul\":4074:4092   */\n          tag_76\n          tag_8\n          jump\t// in\n        tag_76:\n            /* \"#utility.yul\":4038:4094   */\n        tag_75:\n            /* \"#utility.yul\":4118:4156   */\n          tag_77\n            /* \"#utility.yul\":4150:4154   */\n          dup3\n            /* \"#utility.yul\":4144:4155   */\n          sload\n            /* \"#utility.yul\":4118:4156   */\n          tag_10\n          jump\t// in\n        tag_77:\n            /* \"#utility.yul\":4203:4270   */\n          tag_78\n            /* \"#utility.yul\":4263:4269   */\n          dup3\n            /* \"#utility.yul\":4255:4261   */\n          dup3\n            /* \"#utility.yul\":4249:4253   */\n          dup6\n            /* \"#utility.yul\":4203:4270   */\n          tag_23\n          jump\t// in\n        tag_78:\n            /* \"#utility.yul\":4297:4298   */\n          0x00\n            /* \"#utility.yul\":4321:4325   */\n          0x20\n            /* \"#utility.yul\":4308:4325   */\n          swap1\n          pop\n            /* \"#utility.yul\":4353:4355   */\n          0x1f\n            /* \"#utility.yul\":4345:4351   */\n          dup4\n            /* \"#utility.yul\":4342:4356   */\n          gt\n            /* \"#utility.yul\":4370:4371   */\n          0x01\n            /* \"#utility.yul\":4365:4983   */\n          dup2\n          eq\n          tag_80\n          jumpi\n            /* \"#utility.yul\":5027:5028   */\n          0x00\n            /* \"#utility.yul\":5044:5050   */\n          dup5\n            /* \"#utility.yul\":5041:5118   */\n          iszero\n          tag_81\n          jumpi\n            /* \"#utility.yul\":5093:5102   */\n          dup3\n            /* \"#utility.yul\":5088:5091   */\n          dup8\n            /* \"#utility.yul\":5084:5103   */\n          add\n            /* \"#utility.yul\":5078:5104   */\n          mload\n            /* \"#utility.yul\":5069:5104   */\n          swap1\n          pop\n            /* \"#utility.yul\":5041:5118   */\n        tag_81:\n            /* \"#utility.yul\":5144:5211   */\n          tag_82\n            /* \"#utility.yul\":5204:5210   */\n          dup6\n            /* \"#utility.yul\":5197:5202   */\n          dup3\n            /* \"#utility.yul\":5144:5211   */\n          tag_26\n          jump\t// in\n        tag_82:\n            /* \"#utility.yul\":5138:5142   */\n          dup7\n            /* \"#utility.yul\":5131:5212   */\n          sstore\n            /* \"#utility.yul\":5000:5222   */\n          pop\n            /* \"#utility.yul\":4335:5222   */\n          jump(tag_79)\n            /* \"#utility.yul\":4365:4983   */\n        tag_80:\n            /* \"#utility.yul\":4417:4421   */\n          0x1f\n            /* \"#utility.yul\":4413:4422   */\n          not\n            /* \"#utility.yul\":4405:4411   */\n          dup5\n            /* \"#utility.yul\":4401:4423   */\n          and\n            /* \"#utility.yul\":4451:4488   */\n          tag_83\n            /* \"#utility.yul\":4483:4487   */\n          dup7\n            /* \"#utility.yul\":4451:4488   */\n          tag_11\n          jump\t// in\n        tag_83:\n            /* \"#utility.yul\":4510:4511   */\n          0x00\n            /* \"#utility.yul\":4524:4732   */\n        tag_84:\n            /* \"#utility.yul\":4538:4545   */\n          dup3\n            /* \"#utility.yul\":4535:4536   */\n          dup2\n            /* \"#utility.yul\":4532:4546   */\n          lt\n            /* \"#utility.yul\":4524:4732   */\n          iszero\n          tag_86\n          jumpi\n            /* \"#utility.yul\":4617:4626   */\n          dup5\n            /* \"#utility.yul\":4612:4615   */\n          dup10\n            /* \"#utility.yul\":4608:4627   */\n          add\n            /* \"#utility.yul\":4602:4628   */\n          mload\n            /* \"#utility.yul\":4594:4600   */\n          dup3\n            /* \"#utility.yul\":4587:4629   */\n          sstore\n            /* \"#utility.yul\":4668:4669   */\n          0x01\n            /* \"#utility.yul\":4660:4666   */\n          dup3\n            /* \"#utility.yul\":4656:4670   */\n          add\n            /* \"#utility.yul\":4646:4670   */\n          swap2\n          pop\n            /* \"#utility.yul\":4715:4717   */\n          0x20\n            /* \"#utility.yul\":4704:4713   */\n          dup6\n            /* \"#utility.yul\":4700:4718   */\n          add\n            /* \"#utility.yul\":4687:4718   */\n          swap5\n          pop\n            /* \"#utility.yul\":4561:4565   */\n          0x20\n            /* \"#utility.yul\":4558:4559   */\n          dup2\n            /* \"#utility.yul\":4554:4566   */\n          add\n            /* \"#utility.yul\":4549:4566   */\n          swap1\n          pop\n            /* \"#utility.yul\":4524:4732   */\n          jump(tag_84)\n        tag_86:\n            /* \"#utility.yul\":4760:4766   */\n          dup7\n            /* \"#utility.yul\":4751:4758   */\n          dup4\n            /* \"#utility.yul\":4748:4767   */\n          lt\n            /* \"#utility.yul\":4745:4924   */\n          iszero\n          tag_87\n          jumpi\n            /* \"#utility.yul\":4818:4827   */\n          dup5\n            /* \"#utility.yul\":4813:4816   */\n          dup10\n            /* \"#utility.yul\":4809:4828   */\n          add\n            /* \"#utility.yul\":4803:4829   */\n          mload\n            /* \"#utility.yul\":4861:4909   */\n          tag_88\n            /* \"#utility.yul\":4903:4907   */\n          0x1f\n            /* \"#utility.yul\":4895:4901   */\n          dup10\n            /* \"#utility.yul\":4891:4908   */\n          and\n            /* \"#utility.yul\":4880:4889   */\n          dup3\n            /* \"#utility.yul\":4861:4909   */\n          tag_25\n          jump\t// in\n        tag_88:\n            /* \"#utility.yul\":4853:4859   */\n          dup4\n            /* \"#utility.yul\":4846:4910   */\n          sstore\n            /* \"#utility.yul\":4768:4924   */\n          pop\n            /* \"#utility.yul\":4745:4924   */\n        tag_87:\n            /* \"#utility.yul\":4970:4971   */\n          0x01\n            /* \"#utility.yul\":4966:4967   */\n          0x02\n            /* \"#utility.yul\":4958:4964   */\n          dup9\n            /* \"#utility.yul\":4954:4968   */\n          mul\n            /* \"#utility.yul\":4950:4972   */\n          add\n            /* \"#utility.yul\":4944:4948   */\n          dup9\n            /* \"#utility.yul\":4937:4973   */\n          sstore\n            /* \"#utility.yul\":4372:4983   */\n          pop\n          pop\n          pop\n            /* \"#utility.yul\":4335:5222   */\n        tag_79:\n          pop\n            /* \"#utility.yul\":3925:5228   */\n          pop\n          pop\n          pop\n            /* \"#utility.yul\":3833:5228   */\n          pop\n          pop\n          jump\t// out\n            /* \"mytest111/mynewfile.sol\":136:2016  contract Helloworld{... */\n        tag_6:\n          dataSize(sub_0)\n          dup1\n          dataOffset(sub_0)\n          0x00\n          codecopy\n          0x00\n          return\n        stop\n\n        sub_0: assembly {\n                /* \"mytest111/mynewfile.sol\":136:2016  contract Helloworld{... */\n              mstore(0x40, 0x80)\n              callvalue\n              dup1\n              iszero\n              tag_1\n              jumpi\n              0x00\n              dup1\n              revert\n            tag_1:\n              pop\n              jumpi(tag_2, lt(calldatasize, 0x04))\n              shr(0xe0, calldataload(0x00))\n              dup1\n              0x256b4041\n              eq\n              tag_3\n              jumpi\n              dup1\n              0x27a03cd7\n              eq\n              tag_4\n              jumpi\n              dup1\n              0x8f5ce785\n              eq\n              tag_5\n              jumpi\n              dup1\n              0xab12fc18\n              eq\n              tag_6\n              jumpi\n              dup1\n              0xb63d44a3\n              eq\n              tag_7\n              jumpi\n              dup1\n              0xdcad6467\n              eq\n              tag_8\n              jumpi\n            tag_2:\n              0x00\n              dup1\n              revert\n                /* \"mytest111/mynewfile.sol\":571:722  function Resethello(string memory Mynewresetstring) public returns (string memory RT){... */\n            tag_3:\n              tag_9\n              0x04\n              dup1\n              calldatasize\n              sub\n              dup2\n              add\n              swap1\n              tag_10\n              swap2\n              swap1\n              tag_11\n              jump\t// in\n            tag_10:\n              tag_12\n              jump\t// in\n            tag_9:\n              mload(0x40)\n              tag_13\n              swap2\n              swap1\n              tag_14\n              jump\t// in\n            tag_13:\n              mload(0x40)\n              dup1\n              swap2\n              sub\n              swap1\n              return\n                /* \"mytest111/mynewfile.sol\":197:295  function sayhello() public view returns (string memory ){... */\n            tag_4:\n              tag_15\n              tag_16\n              jump\t// in\n            tag_15:\n              mload(0x40)\n              tag_17\n              swap2\n              swap1\n              tag_14\n              jump\t// in\n            tag_17:\n              mload(0x40)\n              dup1\n              swap2\n              sub\n              swap1\n              return\n                /* \"mytest111/mynewfile.sol\":1633:2014  function Selectwithmap(uint256 selectid) public view returns(string memory){... */\n            tag_5:\n              tag_18\n              0x04\n              dup1\n              calldatasize\n              sub\n              dup2\n              add\n              swap1\n              tag_19\n              swap2\n              swap1\n              tag_20\n              jump\t// in\n            tag_19:\n              tag_21\n              jump\t// in\n            tag_18:\n              mload(0x40)\n              tag_22\n              swap2\n              swap1\n              tag_14\n              jump\t// in\n            tag_22:\n              mload(0x40)\n              dup1\n              swap2\n              sub\n              swap1\n              return\n                /* \"mytest111/mynewfile.sol\":1409:1627  function Insertwithmap(string memory inputnewstring, uint256 inputnewid)public {... */\n            tag_6:\n              tag_23\n              0x04\n              dup1\n              calldatasize\n              sub\n              dup2\n              add\n              swap1\n              tag_24\n              swap2\n              swap1\n              tag_25\n              jump\t// in\n            tag_24:\n              tag_26\n              jump\t// in\n            tag_23:\n              stop\n                /* \"mytest111/mynewfile.sol\":905:1096  function Sethelloworld(string memory Newstring,uint256 newid) public {... */\n            tag_7:\n              tag_27\n              0x04\n              dup1\n              calldatasize\n              sub\n              dup2\n              add\n              swap1\n              tag_28\n              swap2\n              swap1\n              tag_25\n              jump\t// in\n            tag_28:\n              tag_29\n              jump\t// in\n            tag_27:\n              stop\n                /* \"mytest111/mynewfile.sol\":1102:1402  function Selecthelloworld(uint256 inputid) public  view returns (string memory) {... */\n            tag_8:\n              tag_30\n              0x04\n              dup1\n              calldatasize\n              sub\n              dup2\n              add\n              swap1\n              tag_31\n              swap2\n              swap1\n              tag_20\n              jump\t// in\n            tag_31:\n              tag_32\n              jump\t// in\n            tag_30:\n              mload(0x40)\n              tag_33\n              swap2\n              swap1\n              tag_14\n              jump\t// in\n            tag_33:\n              mload(0x40)\n              dup1\n              swap2\n              sub\n              swap1\n              return\n                /* \"mytest111/mynewfile.sol\":571:722  function Resethello(string memory Mynewresetstring) public returns (string memory RT){... */\n            tag_12:\n                /* \"mytest111/mynewfile.sol\":639:655  string memory RT */\n              0x60\n                /* \"mytest111/mynewfile.sol\":676:692  Mynewresetstring */\n              dup2\n                /* \"mytest111/mynewfile.sol\":666:675  readvalue */\n              0x00\n                /* \"mytest111/mynewfile.sol\":666:692  readvalue=Mynewresetstring */\n              swap1\n              dup2\n              tag_35\n              swap2\n              swap1\n              tag_36\n              jump\t// in\n            tag_35:\n              pop\n                /* \"mytest111/mynewfile.sol\":710:715  RTTT1 */\n              0x03\n                /* \"mytest111/mynewfile.sol\":702:715  return  RTTT1 */\n              dup1\n              sload\n              tag_37\n              swap1\n              tag_38\n              jump\t// in\n            tag_37:\n              dup1\n              0x1f\n              add\n              0x20\n              dup1\n              swap2\n              div\n              mul\n              0x20\n              add\n              mload(0x40)\n              swap1\n              dup2\n              add\n              0x40\n              mstore\n              dup1\n              swap3\n              swap2\n              swap1\n              dup2\n              dup2\n              mstore\n              0x20\n              add\n              dup3\n              dup1\n              sload\n              tag_39\n              swap1\n              tag_38\n              jump\t// in\n            tag_39:\n              dup1\n              iszero\n              tag_40\n              jumpi\n              dup1\n              0x1f\n              lt\n              tag_41\n              jumpi\n              0x0100\n              dup1\n              dup4\n              sload\n              div\n              mul\n              dup4\n              mstore\n              swap2\n              0x20\n              add\n              swap2\n              jump(tag_40)\n            tag_41:\n              dup3\n              add\n              swap2\n              swap1\n              0x00\n              mstore\n              keccak256(0x00, 0x20)\n              swap1\n            tag_42:\n              dup2\n              sload\n              dup2\n              mstore\n              swap1\n              0x01\n              add\n              swap1\n              0x20\n              add\n              dup1\n              dup4\n              gt\n              tag_42\n              jumpi\n              dup3\n              swap1\n              sub\n              0x1f\n              and\n              dup3\n              add\n              swap2\n            tag_40:\n              pop\n              pop\n              pop\n              pop\n              pop\n              swap1\n              pop\n                /* \"mytest111/mynewfile.sol\":571:722  function Resethello(string memory Mynewresetstring) public returns (string memory RT){... */\n              swap2\n              swap1\n              pop\n              jump\t// out\n                /* \"mytest111/mynewfile.sol\":197:295  function sayhello() public view returns (string memory ){... */\n            tag_16:\n                /* \"mytest111/mynewfile.sol\":238:251  string memory */\n              0x60\n                /* \"mytest111/mynewfile.sol\":270:288  Addinfo(readvalue) */\n              tag_44\n                /* \"mytest111/mynewfile.sol\":278:287  readvalue */\n              0x00\n                /* \"mytest111/mynewfile.sol\":270:288  Addinfo(readvalue) */\n              dup1\n              sload\n              tag_45\n              swap1\n              tag_38\n              jump\t// in\n            tag_45:\n              dup1\n              0x1f\n              add\n              0x20\n              dup1\n              swap2\n              div\n              mul\n              0x20\n              add\n              mload(0x40)\n              swap1\n              dup2\n              add\n              0x40\n              mstore\n              dup1\n              swap3\n              swap2\n              swap1\n              dup2\n              dup2\n              mstore\n              0x20\n              add\n              dup3\n              dup1\n              sload\n              tag_46\n              swap1\n              tag_38\n              jump\t// in\n            tag_46:\n              dup1\n              iszero\n              tag_47\n              jumpi\n              dup1\n              0x1f\n              lt\n              tag_48\n              jumpi\n              0x0100\n              dup1\n              dup4\n              sload\n              div\n              mul\n              dup4\n              mstore\n              swap2\n              0x20\n              add\n              swap2\n              jump(tag_47)\n            tag_48:\n              dup3\n              add\n              swap2\n              swap1\n              0x00\n              mstore\n              keccak256(0x00, 0x20)\n              swap1\n            tag_49:\n              dup2\n              sload\n              dup2\n              mstore\n              swap1\n              0x01\n              add\n              swap1\n              0x20\n              add\n              dup1\n              dup4\n              gt\n              tag_49\n              jumpi\n              dup3\n              swap1\n              sub\n              0x1f\n              and\n              dup3\n              add\n              swap2\n            tag_47:\n              pop\n              pop\n              pop\n              pop\n              pop\n                /* \"mytest111/mynewfile.sol\":270:277  Addinfo */\n              tag_50\n                /* \"mytest111/mynewfile.sol\":270:288  Addinfo(readvalue) */\n              jump\t// in\n            tag_44:\n                /* \"mytest111/mynewfile.sol\":263:288  return Addinfo(readvalue) */\n              swap1\n              pop\n                /* \"mytest111/mynewfile.sol\":197:295  function sayhello() public view returns (string memory ){... */\n              swap1\n              jump\t// out\n                /* \"mytest111/mynewfile.sol\":1633:2014  function Selectwithmap(uint256 selectid) public view returns(string memory){... */\n            tag_21:\n                /* \"mytest111/mynewfile.sol\":1694:1707  string memory */\n              0x60\n                /* \"mytest111/mynewfile.sol\":1758:1761  0x0 */\n              0x00\n                /* \"mytest111/mynewfile.sol\":1722:1762  Infomapping[selectid].addr==address(0x0) */\n              0xffffffffffffffffffffffffffffffffffffffff\n              and\n                /* \"mytest111/mynewfile.sol\":1722:1733  Infomapping */\n              0x02\n                /* \"mytest111/mynewfile.sol\":1722:1743  Infomapping[selectid] */\n              0x00\n                /* \"mytest111/mynewfile.sol\":1734:1742  selectid */\n              dup5\n                /* \"mytest111/mynewfile.sol\":1722:1743  Infomapping[selectid] */\n              dup2\n              mstore\n              0x20\n              add\n              swap1\n              dup2\n              mstore\n              0x20\n              add\n              0x00\n              keccak256\n                /* \"mytest111/mynewfile.sol\":1722:1748  Infomapping[selectid].addr */\n              0x02\n              add\n              0x00\n              swap1\n              sload\n              swap1\n              0x0100\n              exp\n              swap1\n              div\n              0xffffffffffffffffffffffffffffffffffffffff\n              and\n                /* \"mytest111/mynewfile.sol\":1722:1762  Infomapping[selectid].addr==address(0x0) */\n              0xffffffffffffffffffffffffffffffffffffffff\n              and\n              sub\n                /* \"mytest111/mynewfile.sol\":1718:2008  if (Infomapping[selectid].addr==address(0x0)){... */\n              tag_52\n              jumpi\n                /* \"mytest111/mynewfile.sol\":1905:1923  Addinfo(readvalue) */\n              tag_53\n                /* \"mytest111/mynewfile.sol\":1913:1922  readvalue */\n              0x00\n                /* \"mytest111/mynewfile.sol\":1905:1923  Addinfo(readvalue) */\n              dup1\n              sload\n              tag_54\n              swap1\n              tag_38\n              jump\t// in\n            tag_54:\n              dup1\n              0x1f\n              add\n              0x20\n              dup1\n              swap2\n              div\n              mul\n              0x20\n              add\n              mload(0x40)\n              swap1\n              dup2\n              add\n              0x40\n              mstore\n              dup1\n              swap3\n              swap2\n              swap1\n              dup2\n              dup2\n              mstore\n              0x20\n              add\n              dup3\n              dup1\n              sload\n              tag_55\n              swap1\n              tag_38\n              jump\t// in\n            tag_55:\n              dup1\n              iszero\n              tag_56\n              jumpi\n              dup1\n              0x1f\n              lt\n              tag_57\n              jumpi\n              0x0100\n              dup1\n              dup4\n              sload\n              div\n              mul\n              dup4\n              mstore\n              swap2\n              0x20\n              add\n              swap2\n              jump(tag_56)\n            tag_57:\n              dup3\n              add\n              swap2\n              swap1\n              0x00\n              mstore\n              keccak256(0x00, 0x20)\n              swap1\n            tag_58:\n              dup2\n              sload\n              dup2\n              mstore\n              swap1\n              0x01\n              add\n              swap1\n              0x20\n              add\n              dup1\n              dup4\n              gt\n              tag_58\n              jumpi\n              dup3\n              swap1\n              sub\n              0x1f\n              and\n              dup3\n              add\n              swap2\n            tag_56:\n              pop\n              pop\n              pop\n              pop\n              pop\n                /* \"mytest111/mynewfile.sol\":1905:1912  Addinfo */\n              tag_50\n                /* \"mytest111/mynewfile.sol\":1905:1923  Addinfo(readvalue) */\n              jump\t// in\n            tag_53:\n                /* \"mytest111/mynewfile.sol\":1898:1923  return Addinfo(readvalue) */\n              swap1\n              pop\n              jump(tag_51)\n                /* \"mytest111/mynewfile.sol\":1718:2008  if (Infomapping[selectid].addr==address(0x0)){... */\n            tag_52:\n                /* \"mytest111/mynewfile.sol\":1960:1997  Addinfo(Infomapping[selectid].phrase) */\n              tag_60\n                /* \"mytest111/mynewfile.sol\":1968:1979  Infomapping */\n              0x02\n                /* \"mytest111/mynewfile.sol\":1968:1989  Infomapping[selectid] */\n              0x00\n                /* \"mytest111/mynewfile.sol\":1980:1988  selectid */\n              dup5\n                /* \"mytest111/mynewfile.sol\":1968:1989  Infomapping[selectid] */\n              dup2\n              mstore\n              0x20\n              add\n              swap1\n              dup2\n              mstore\n              0x20\n              add\n              0x00\n              keccak256\n                /* \"mytest111/mynewfile.sol\":1968:1996  Infomapping[selectid].phrase */\n              0x00\n              add\n                /* \"mytest111/mynewfile.sol\":1960:1997  Addinfo(Infomapping[selectid].phrase) */\n              dup1\n              sload\n              tag_61\n              swap1\n              tag_38\n              jump\t// in\n            tag_61:\n              dup1\n              0x1f\n              add\n              0x20\n              dup1\n              swap2\n              div\n              mul\n              0x20\n              add\n              mload(0x40)\n              swap1\n              dup2\n              add\n              0x40\n              mstore\n              dup1\n              swap3\n              swap2\n              swap1\n              dup2\n              dup2\n              mstore\n              0x20\n              add\n              dup3\n              dup1\n              sload\n              tag_62\n              swap1\n              tag_38\n              jump\t// in\n            tag_62:\n              dup1\n              iszero\n              tag_63\n              jumpi\n              dup1\n              0x1f\n              lt\n              tag_64\n              jumpi\n              0x0100\n              dup1\n              dup4\n              sload\n              div\n              mul\n              dup4\n              mstore\n              swap2\n              0x20\n              add\n              swap2\n              jump(tag_63)\n            tag_64:\n              dup3\n              add\n              swap2\n              swap1\n              0x00\n              mstore\n              keccak256(0x00, 0x20)\n              swap1\n            tag_65:\n              dup2\n              sload\n              dup2\n              mstore\n              swap1\n              0x01\n              add\n              swap1\n              0x20\n              add\n              dup1\n              dup4\n              gt\n              tag_65\n              jumpi\n              dup3\n              swap1\n              sub\n              0x1f\n              and\n              dup3\n              add\n              swap2\n            tag_63:\n              pop\n              pop\n              pop\n              pop\n              pop\n                /* \"mytest111/mynewfile.sol\":1960:1967  Addinfo */\n              tag_50\n                /* \"mytest111/mynewfile.sol\":1960:1997  Addinfo(Infomapping[selectid].phrase) */\n              jump\t// in\n            tag_60:\n                /* \"mytest111/mynewfile.sol\":1953:1997  return Addinfo(Infomapping[selectid].phrase) */\n              swap1\n              pop\n                /* \"mytest111/mynewfile.sol\":1633:2014  function Selectwithmap(uint256 selectid) public view returns(string memory){... */\n            tag_51:\n              swap2\n              swap1\n              pop\n              jump\t// out\n                /* \"mytest111/mynewfile.sol\":1409:1627  function Insertwithmap(string memory inputnewstring, uint256 inputnewid)public {... */\n            tag_26:\n                /* \"mytest111/mynewfile.sol\":1498:1527  Infostruct  memory infostruct */\n              0x00\n                /* \"mytest111/mynewfile.sol\":1528:1576  Infostruct(inputnewstring,inputnewid,msg.sender) */\n              mload(0x40)\n              dup1\n              0x60\n              add\n              0x40\n              mstore\n              dup1\n                /* \"mytest111/mynewfile.sol\":1539:1553  inputnewstring */\n              dup5\n                /* \"mytest111/mynewfile.sol\":1528:1576  Infostruct(inputnewstring,inputnewid,msg.sender) */\n              dup2\n              mstore\n              0x20\n              add\n                /* \"mytest111/mynewfile.sol\":1554:1564  inputnewid */\n              dup4\n                /* \"mytest111/mynewfile.sol\":1528:1576  Infostruct(inputnewstring,inputnewid,msg.sender) */\n              dup2\n              mstore\n              0x20\n              add\n                /* \"mytest111/mynewfile.sol\":1565:1575  msg.sender */\n              caller\n                /* \"mytest111/mynewfile.sol\":1528:1576  Infostruct(inputnewstring,inputnewid,msg.sender) */\n              0xffffffffffffffffffffffffffffffffffffffff\n              and\n              dup2\n              mstore\n              pop\n                /* \"mytest111/mynewfile.sol\":1498:1576  Infostruct  memory infostruct=Infostruct(inputnewstring,inputnewid,msg.sender) */\n              swap1\n              pop\n                /* \"mytest111/mynewfile.sol\":1610:1620  infostruct */\n              dup1\n                /* \"mytest111/mynewfile.sol\":1586:1597  Infomapping */\n              0x02\n                /* \"mytest111/mynewfile.sol\":1586:1609  Infomapping[inputnewid] */\n              0x00\n                /* \"mytest111/mynewfile.sol\":1598:1608  inputnewid */\n              dup5\n                /* \"mytest111/mynewfile.sol\":1586:1609  Infomapping[inputnewid] */\n              dup2\n              mstore\n              0x20\n              add\n              swap1\n              dup2\n              mstore\n              0x20\n              add\n              0x00\n              keccak256\n                /* \"mytest111/mynewfile.sol\":1586:1620  Infomapping[inputnewid]=infostruct */\n              0x00\n              dup3\n              add\n              mload\n              dup2\n              0x00\n              add\n              swap1\n              dup2\n              tag_67\n              swap2\n              swap1\n              tag_36\n              jump\t// in\n            tag_67:\n              pop\n              0x20\n              dup3\n              add\n              mload\n              dup2\n              0x01\n              add\n              sstore\n              0x40\n              dup3\n              add\n              mload\n              dup2\n              0x02\n              add\n              exp(0x0100, 0x00)\n              dup2\n              sload\n              dup2\n              0xffffffffffffffffffffffffffffffffffffffff\n              mul\n              not\n              and\n              swap1\n              dup4\n              0xffffffffffffffffffffffffffffffffffffffff\n              and\n              mul\n              or\n              swap1\n              sstore\n              pop\n              swap1\n              pop\n              pop\n                /* \"mytest111/mynewfile.sol\":1488:1627  {... */\n              pop\n                /* \"mytest111/mynewfile.sol\":1409:1627  function Insertwithmap(string memory inputnewstring, uint256 inputnewid)public {... */\n              pop\n              pop\n              jump\t// out\n                /* \"mytest111/mynewfile.sol\":905:1096  function Sethelloworld(string memory Newstring,uint256 newid) public {... */\n            tag_29:\n                /* \"mytest111/mynewfile.sol\":984:1012  Infostruct memory infostruct */\n              0x00\n                /* \"mytest111/mynewfile.sol\":1013:1051  Infostruct(Newstring,newid,msg.sender) */\n              mload(0x40)\n              dup1\n              0x60\n              add\n              0x40\n              mstore\n              dup1\n                /* \"mytest111/mynewfile.sol\":1024:1033  Newstring */\n              dup5\n                /* \"mytest111/mynewfile.sol\":1013:1051  Infostruct(Newstring,newid,msg.sender) */\n              dup2\n              mstore\n              0x20\n              add\n                /* \"mytest111/mynewfile.sol\":1034:1039  newid */\n              dup4\n                /* \"mytest111/mynewfile.sol\":1013:1051  Infostruct(Newstring,newid,msg.sender) */\n              dup2\n              mstore\n              0x20\n              add\n                /* \"mytest111/mynewfile.sol\":1040:1050  msg.sender */\n              caller\n                /* \"mytest111/mynewfile.sol\":1013:1051  Infostruct(Newstring,newid,msg.sender) */\n              0xffffffffffffffffffffffffffffffffffffffff\n              and\n              dup2\n              mstore\n              pop\n                /* \"mytest111/mynewfile.sol\":984:1051  Infostruct memory infostruct=Infostruct(Newstring,newid,msg.sender) */\n              swap1\n              pop\n                /* \"mytest111/mynewfile.sol\":1061:1072  infostructs */\n              0x01\n                /* \"mytest111/mynewfile.sol\":1078:1088  infostruct */\n              dup2\n                /* \"mytest111/mynewfile.sol\":1061:1089  infostructs.push(infostruct) */\n              swap1\n              dup1\n              0x01\n              dup2\n              sload\n              add\n              dup1\n              dup3\n              sstore\n              dup1\n              swap2\n              pop\n              pop\n              0x01\n              swap1\n              sub\n              swap1\n              0x00\n              mstore\n              keccak256(0x00, 0x20)\n              swap1\n              0x03\n              mul\n              add\n              0x00\n              swap1\n              swap2\n              swap1\n              swap2\n              swap1\n              swap2\n              pop\n              0x00\n              dup3\n              add\n              mload\n              dup2\n              0x00\n              add\n              swap1\n              dup2\n              tag_70\n              swap2\n              swap1\n              tag_36\n              jump\t// in\n            tag_70:\n              pop\n              0x20\n              dup3\n              add\n              mload\n              dup2\n              0x01\n              add\n              sstore\n              0x40\n              dup3\n              add\n              mload\n              dup2\n              0x02\n              add\n              exp(0x0100, 0x00)\n              dup2\n              sload\n              dup2\n              0xffffffffffffffffffffffffffffffffffffffff\n              mul\n              not\n              and\n              swap1\n              dup4\n              0xffffffffffffffffffffffffffffffffffffffff\n              and\n              mul\n              or\n              swap1\n              sstore\n              pop\n              pop\n              pop\n                /* \"mytest111/mynewfile.sol\":974:1096  {... */\n              pop\n                /* \"mytest111/mynewfile.sol\":905:1096  function Sethelloworld(string memory Newstring,uint256 newid) public {... */\n              pop\n              pop\n              jump\t// out\n                /* \"mytest111/mynewfile.sol\":1102:1402  function Selecthelloworld(uint256 inputid) public  view returns (string memory) {... */\n            tag_32:\n                /* \"mytest111/mynewfile.sol\":1167:1180  string memory */\n              0x60\n                /* \"mytest111/mynewfile.sol\":1197:1206  uint256 i */\n              0x00\n                /* \"mytest111/mynewfile.sol\":1192:1361  for (uint256 i=0;i < infostructs.length;i++){... */\n            tag_72:\n                /* \"mytest111/mynewfile.sol\":1213:1224  infostructs */\n              0x01\n                /* \"mytest111/mynewfile.sol\":1213:1231  infostructs.length */\n              dup1\n              sload\n              swap1\n              pop\n                /* \"mytest111/mynewfile.sol\":1209:1210  i */\n              dup2\n                /* \"mytest111/mynewfile.sol\":1209:1231  i < infostructs.length */\n              lt\n                /* \"mytest111/mynewfile.sol\":1192:1361  for (uint256 i=0;i < infostructs.length;i++){... */\n              iszero\n              tag_73\n              jumpi\n                /* \"mytest111/mynewfile.sol\":1273:1280  inputid */\n              dup3\n                /* \"mytest111/mynewfile.sol\":1254:1265  infostructs */\n              0x01\n                /* \"mytest111/mynewfile.sol\":1266:1267  i */\n              dup3\n                /* \"mytest111/mynewfile.sol\":1254:1268  infostructs[i] */\n              dup2\n              sload\n              dup2\n              lt\n              tag_75\n              jumpi\n              tag_76\n              tag_77\n              jump\t// in\n            tag_76:\n            tag_75:\n              swap1\n              0x00\n              mstore\n              keccak256(0x00, 0x20)\n              swap1\n              0x03\n              mul\n              add\n                /* \"mytest111/mynewfile.sol\":1254:1271  infostructs[i].id */\n              0x01\n              add\n              sload\n                /* \"mytest111/mynewfile.sol\":1254:1280  infostructs[i].id==inputid */\n              sub\n                /* \"mytest111/mynewfile.sol\":1250:1351  if (infostructs[i].id==inputid){... */\n              tag_79\n              jumpi\n                /* \"mytest111/mynewfile.sol\":1306:1336  Addinfo(infostructs[i].phrase) */\n              tag_80\n                /* \"mytest111/mynewfile.sol\":1314:1325  infostructs */\n              0x01\n                /* \"mytest111/mynewfile.sol\":1326:1327  i */\n              dup3\n                /* \"mytest111/mynewfile.sol\":1314:1328  infostructs[i] */\n              dup2\n              sload\n              dup2\n              lt\n              tag_81\n              jumpi\n              tag_82\n              tag_77\n              jump\t// in\n            tag_82:\n            tag_81:\n              swap1\n              0x00\n              mstore\n              keccak256(0x00, 0x20)\n              swap1\n              0x03\n              mul\n              add\n                /* \"mytest111/mynewfile.sol\":1314:1335  infostructs[i].phrase */\n              0x00\n              add\n                /* \"mytest111/mynewfile.sol\":1306:1336  Addinfo(infostructs[i].phrase) */\n              dup1\n              sload\n              tag_84\n              swap1\n              tag_38\n              jump\t// in\n            tag_84:\n              dup1\n              0x1f\n              add\n              0x20\n              dup1\n              swap2\n              div\n              mul\n              0x20\n              add\n              mload(0x40)\n              swap1\n              dup2\n              add\n              0x40\n              mstore\n              dup1\n              swap3\n              swap2\n              swap1\n              dup2\n              dup2\n              mstore\n              0x20\n              add\n              dup3\n              dup1\n              sload\n              tag_85\n              swap1\n              tag_38\n              jump\t// in\n            tag_85:\n              dup1\n              iszero\n              tag_86\n              jumpi\n              dup1\n              0x1f\n              lt\n              tag_87\n              jumpi\n              0x0100\n              dup1\n              dup4\n              sload\n              div\n              mul\n              dup4\n              mstore\n              swap2\n              0x20\n              add\n              swap2\n              jump(tag_86)\n            tag_87:\n              dup3\n              add\n              swap2\n              swap1\n              0x00\n              mstore\n              keccak256(0x00, 0x20)\n              swap1\n            tag_88:\n              dup2\n              sload\n              dup2\n              mstore\n              swap1\n              0x01\n              add\n              swap1\n              0x20\n              add\n              dup1\n              dup4\n              gt\n              tag_88\n              jumpi\n              dup3\n              swap1\n              sub\n              0x1f\n              and\n              dup3\n              add\n              swap2\n            tag_86:\n              pop\n              pop\n              pop\n              pop\n              pop\n                /* \"mytest111/mynewfile.sol\":1306:1313  Addinfo */\n              tag_50\n                /* \"mytest111/mynewfile.sol\":1306:1336  Addinfo(infostructs[i].phrase) */\n              jump\t// in\n            tag_80:\n                /* \"mytest111/mynewfile.sol\":1299:1336  return Addinfo(infostructs[i].phrase) */\n              swap2\n              pop\n              pop\n              jump(tag_71)\n                /* \"mytest111/mynewfile.sol\":1250:1351  if (infostructs[i].id==inputid){... */\n            tag_79:\n                /* \"mytest111/mynewfile.sol\":1232:1235  i++ */\n              dup1\n              dup1\n              0x01\n              add\n              swap2\n              pop\n              pop\n                /* \"mytest111/mynewfile.sol\":1192:1361  for (uint256 i=0;i < infostructs.length;i++){... */\n              jump(tag_72)\n            tag_73:\n              pop\n                /* \"mytest111/mynewfile.sol\":1377:1395  Addinfo(readvalue) */\n              tag_89\n                /* \"mytest111/mynewfile.sol\":1385:1394  readvalue */\n              0x00\n                /* \"mytest111/mynewfile.sol\":1377:1395  Addinfo(readvalue) */\n              dup1\n              sload\n              tag_90\n              swap1\n              tag_38\n              jump\t// in\n            tag_90:\n              dup1\n              0x1f\n              add\n              0x20\n              dup1\n              swap2\n              div\n              mul\n              0x20\n              add\n              mload(0x40)\n              swap1\n              dup2\n              add\n              0x40\n              mstore\n              dup1\n              swap3\n              swap2\n              swap1\n              dup2\n              dup2\n              mstore\n              0x20\n              add\n              dup3\n              dup1\n              sload\n              tag_91\n              swap1\n              tag_38\n              jump\t// in\n            tag_91:\n              dup1\n              iszero\n              tag_92\n              jumpi\n              dup1\n              0x1f\n              lt\n              tag_93\n              jumpi\n              0x0100\n              dup1\n              dup4\n              sload\n              div\n              mul\n              dup4\n              mstore\n              swap2\n              0x20\n              add\n              swap2\n              jump(tag_92)\n            tag_93:\n              dup3\n              add\n              swap2\n              swap1\n              0x00\n              mstore\n              keccak256(0x00, 0x20)\n              swap1\n            tag_94:\n              dup2\n              sload\n              dup2\n              mstore\n              swap1\n              0x01\n              add\n              swap1\n              0x20\n              add\n              dup1\n              dup4\n              gt\n              tag_94\n              jumpi\n              dup3\n              swap1\n              sub\n              0x1f\n              and\n              dup3\n              add\n              swap2\n            tag_92:\n              pop\n              pop\n              pop\n              pop\n              pop\n                /* \"mytest111/mynewfile.sol\":1377:1384  Addinfo */\n              tag_50\n                /* \"mytest111/mynewfile.sol\":1377:1395  Addinfo(readvalue) */\n              jump\t// in\n            tag_89:\n                /* \"mytest111/mynewfile.sol\":1370:1395  return Addinfo(readvalue) */\n              swap1\n              pop\n                /* \"mytest111/mynewfile.sol\":1102:1402  function Selecthelloworld(uint256 inputid) public  view returns (string memory) {... */\n            tag_71:\n              swap2\n              swap1\n              pop\n              jump\t// out\n                /* \"mytest111/mynewfile.sol\":746:899  function Addinfo(string memory Hellost) internal pure returns(string memory outstr){... */\n            tag_50:\n                /* \"mytest111/mynewfile.sol\":808:828  string memory outstr */\n              0x60\n                /* \"mytest111/mynewfile.sol\":860:867  Hellost */\n              dup2\n                /* \"mytest111/mynewfile.sol\":846:892  string.concat(Hellost,\"\\tthis is add string!\") */\n              add(0x20, mload(0x40))\n              tag_96\n              swap2\n              swap1\n              tag_97\n              jump\t// in\n            tag_96:\n              mload(0x40)\n              0x20\n              dup2\n              dup4\n              sub\n              sub\n              dup2\n              mstore\n              swap1\n              0x40\n              mstore\n                /* \"mytest111/mynewfile.sol\":839:892  return string.concat(Hellost,\"\\tthis is add string!\") */\n              swap1\n              pop\n                /* \"mytest111/mynewfile.sol\":746:899  function Addinfo(string memory Hellost) internal pure returns(string memory outstr){... */\n              swap2\n              swap1\n              pop\n              jump\t// out\n                /* \"#utility.yul\":7:82   */\n            tag_98:\n                /* \"#utility.yul\":40:46   */\n              0x00\n                /* \"#utility.yul\":73:75   */\n              0x40\n                /* \"#utility.yul\":67:76   */\n              mload\n                /* \"#utility.yul\":57:76   */\n              swap1\n              pop\n                /* \"#utility.yul\":7:82   */\n              swap1\n              jump\t// out\n                /* \"#utility.yul\":88:205   */\n            tag_99:\n                /* \"#utility.yul\":197:198   */\n              0x00\n                /* \"#utility.yul\":194:195   */\n              dup1\n                /* \"#utility.yul\":187:199   */\n              revert\n                /* \"#utility.yul\":211:328   */\n            tag_100:\n                /* \"#utility.yul\":320:321   */\n              0x00\n                /* \"#utility.yul\":317:318   */\n              dup1\n                /* \"#utility.yul\":310:322   */\n              revert\n                /* \"#utility.yul\":334:451   */\n            tag_101:\n                /* \"#utility.yul\":443:444   */\n              0x00\n                /* \"#utility.yul\":440:441   */\n              dup1\n                /* \"#utility.yul\":433:445   */\n              revert\n                /* \"#utility.yul\":457:574   */\n            tag_102:\n                /* \"#utility.yul\":566:567   */\n              0x00\n                /* \"#utility.yul\":563:564   */\n              dup1\n                /* \"#utility.yul\":556:568   */\n              revert\n                /* \"#utility.yul\":580:682   */\n            tag_103:\n                /* \"#utility.yul\":621:627   */\n              0x00\n                /* \"#utility.yul\":672:674   */\n              0x1f\n                /* \"#utility.yul\":668:675   */\n              not\n                /* \"#utility.yul\":663:665   */\n              0x1f\n                /* \"#utility.yul\":656:661   */\n              dup4\n                /* \"#utility.yul\":652:666   */\n              add\n                /* \"#utility.yul\":648:676   */\n              and\n                /* \"#utility.yul\":638:676   */\n              swap1\n              pop\n                /* \"#utility.yul\":580:682   */\n              swap2\n              swap1\n              pop\n              jump\t// out\n                /* \"#utility.yul\":688:868   */\n            tag_104:\n                /* \"#utility.yul\":736:813   */\n              0x4e487b7100000000000000000000000000000000000000000000000000000000\n                /* \"#utility.yul\":733:734   */\n              0x00\n                /* \"#utility.yul\":726:814   */\n              mstore\n                /* \"#utility.yul\":833:837   */\n              0x41\n                /* \"#utility.yul\":830:831   */\n              0x04\n                /* \"#utility.yul\":823:838   */\n              mstore\n                /* \"#utility.yul\":857:861   */\n              0x24\n                /* \"#utility.yul\":854:855   */\n              0x00\n                /* \"#utility.yul\":847:862   */\n              revert\n                /* \"#utility.yul\":874:1155   */\n            tag_105:\n                /* \"#utility.yul\":957:984   */\n              tag_146\n                /* \"#utility.yul\":979:983   */\n              dup3\n                /* \"#utility.yul\":957:984   */\n              tag_103\n              jump\t// in\n            tag_146:\n                /* \"#utility.yul\":949:955   */\n              dup2\n                /* \"#utility.yul\":945:985   */\n              add\n                /* \"#utility.yul\":1087:1093   */\n              dup2\n                /* \"#utility.yul\":1075:1085   */\n              dup2\n                /* \"#utility.yul\":1072:1094   */\n              lt\n                /* \"#utility.yul\":1051:1069   */\n              0xffffffffffffffff\n                /* \"#utility.yul\":1039:1049   */\n              dup3\n                /* \"#utility.yul\":1036:1070   */\n              gt\n                /* \"#utility.yul\":1033:1095   */\n              or\n                /* \"#utility.yul\":1030:1118   */\n              iszero\n              tag_147\n              jumpi\n                /* \"#utility.yul\":1098:1116   */\n              tag_148\n              tag_104\n              jump\t// in\n            tag_148:\n                /* \"#utility.yul\":1030:1118   */\n            tag_147:\n                /* \"#utility.yul\":1138:1148   */\n              dup1\n                /* \"#utility.yul\":1134:1136   */\n              0x40\n                /* \"#utility.yul\":1127:1149   */\n              mstore\n                /* \"#utility.yul\":917:1155   */\n              pop\n                /* \"#utility.yul\":874:1155   */\n              pop\n              pop\n              jump\t// out\n                /* \"#utility.yul\":1161:1290   */\n            tag_106:\n                /* \"#utility.yul\":1195:1201   */\n              0x00\n                /* \"#utility.yul\":1222:1242   */\n              tag_150\n              tag_98\n              jump\t// in\n            tag_150:\n                /* \"#utility.yul\":1212:1242   */\n              swap1\n              pop\n                /* \"#utility.yul\":1251:1284   */\n              tag_151\n                /* \"#utility.yul\":1279:1283   */\n              dup3\n                /* \"#utility.yul\":1271:1277   */\n              dup3\n                /* \"#utility.yul\":1251:1284   */\n              tag_105\n              jump\t// in\n            tag_151:\n                /* \"#utility.yul\":1161:1290   */\n              swap2\n              swap1\n              pop\n              jump\t// out\n                /* \"#utility.yul\":1296:1604   */\n            tag_107:\n                /* \"#utility.yul\":1358:1362   */\n              0x00\n                /* \"#utility.yul\":1448:1466   */\n              0xffffffffffffffff\n                /* \"#utility.yul\":1440:1446   */\n              dup3\n                /* \"#utility.yul\":1437:1467   */\n              gt\n                /* \"#utility.yul\":1434:1490   */\n              iszero\n              tag_153\n              jumpi\n                /* \"#utility.yul\":1470:1488   */\n              tag_154\n              tag_104\n              jump\t// in\n            tag_154:\n                /* \"#utility.yul\":1434:1490   */\n            tag_153:\n                /* \"#utility.yul\":1508:1537   */\n              tag_155\n                /* \"#utility.yul\":1530:1536   */\n              dup3\n                /* \"#utility.yul\":1508:1537   */\n              tag_103\n              jump\t// in\n            tag_155:\n                /* \"#utility.yul\":1500:1537   */\n              swap1\n              pop\n                /* \"#utility.yul\":1592:1596   */\n              0x20\n                /* \"#utility.yul\":1586:1590   */\n              dup2\n                /* \"#utility.yul\":1582:1597   */\n              add\n                /* \"#utility.yul\":1574:1597   */\n              swap1\n              pop\n                /* \"#utility.yul\":1296:1604   */\n              swap2\n              swap1\n              pop\n              jump\t// out\n                /* \"#utility.yul\":1610:1758   */\n            tag_108:\n                /* \"#utility.yul\":1708:1714   */\n              dup3\n                /* \"#utility.yul\":1703:1706   */\n              dup2\n                /* \"#utility.yul\":1698:1701   */\n              dup4\n                /* \"#utility.yul\":1685:1715   */\n              calldatacopy\n                /* \"#utility.yul\":1749:1750   */\n              0x00\n                /* \"#utility.yul\":1740:1746   */\n              dup4\n                /* \"#utility.yul\":1735:1738   */\n              dup4\n                /* \"#utility.yul\":1731:1747   */\n              add\n                /* \"#utility.yul\":1724:1751   */\n              mstore\n                /* \"#utility.yul\":1610:1758   */\n              pop\n              pop\n              pop\n              jump\t// out\n                /* \"#utility.yul\":1764:2189   */\n            tag_109:\n                /* \"#utility.yul\":1842:1847   */\n              0x00\n                /* \"#utility.yul\":1867:1933   */\n              tag_158\n                /* \"#utility.yul\":1883:1932   */\n              tag_159\n                /* \"#utility.yul\":1925:1931   */\n              dup5\n                /* \"#utility.yul\":1883:1932   */\n              tag_107\n              jump\t// in\n            tag_159:\n                /* \"#utility.yul\":1867:1933   */\n              tag_106\n              jump\t// in\n            tag_158:\n                /* \"#utility.yul\":1858:1933   */\n              swap1\n              pop\n                /* \"#utility.yul\":1956:1962   */\n              dup3\n                /* \"#utility.yul\":1949:1954   */\n              dup2\n                /* \"#utility.yul\":1942:1963   */\n              mstore\n                /* \"#utility.yul\":1994:1998   */\n              0x20\n                /* \"#utility.yul\":1987:1992   */\n              dup2\n                /* \"#utility.yul\":1983:1999   */\n              add\n                /* \"#utility.yul\":2032:2035   */\n              dup5\n                /* \"#utility.yul\":2023:2029   */\n              dup5\n                /* \"#utility.yul\":2018:2021   */\n              dup5\n                /* \"#utility.yul\":2014:2030   */\n              add\n                /* \"#utility.yul\":2011:2036   */\n              gt\n                /* \"#utility.yul\":2008:2120   */\n              iszero\n              tag_160\n              jumpi\n                /* \"#utility.yul\":2039:2118   */\n              tag_161\n              tag_102\n              jump\t// in\n            tag_161:\n                /* \"#utility.yul\":2008:2120   */\n            tag_160:\n                /* \"#utility.yul\":2129:2183   */\n              tag_162\n                /* \"#utility.yul\":2176:2182   */\n              dup5\n                /* \"#utility.yul\":2171:2174   */\n              dup3\n                /* \"#utility.yul\":2166:2169   */\n              dup6\n                /* \"#utility.yul\":2129:2183   */\n              tag_108\n              jump\t// in\n            tag_162:\n                /* \"#utility.yul\":1848:2189   */\n              pop\n                /* \"#utility.yul\":1764:2189   */\n              swap4\n              swap3\n              pop\n              pop\n              pop\n              jump\t// out\n                /* \"#utility.yul\":2209:2549   */\n            tag_110:\n                /* \"#utility.yul\":2265:2270   */\n              0x00\n                /* \"#utility.yul\":2314:2317   */\n              dup3\n                /* \"#utility.yul\":2307:2311   */\n              0x1f\n                /* \"#utility.yul\":2299:2305   */\n              dup4\n                /* \"#utility.yul\":2295:2312   */\n              add\n                /* \"#utility.yul\":2291:2318   */\n              slt\n                /* \"#utility.yul\":2281:2403   */\n              tag_164\n              jumpi\n                /* \"#utility.yul\":2322:2401   */\n              tag_165\n              tag_101\n              jump\t// in\n            tag_165:\n                /* \"#utility.yul\":2281:2403   */\n            tag_164:\n                /* \"#utility.yul\":2439:2445   */\n              dup2\n                /* \"#utility.yul\":2426:2446   */\n              calldataload\n                /* \"#utility.yul\":2464:2543   */\n              tag_166\n                /* \"#utility.yul\":2539:2542   */\n              dup5\n                /* \"#utility.yul\":2531:2537   */\n              dup3\n                /* \"#utility.yul\":2524:2528   */\n              0x20\n                /* \"#utility.yul\":2516:2522   */\n              dup7\n                /* \"#utility.yul\":2512:2529   */\n              add\n                /* \"#utility.yul\":2464:2543   */\n              tag_109\n              jump\t// in\n            tag_166:\n                /* \"#utility.yul\":2455:2543   */\n              swap2\n              pop\n                /* \"#utility.yul\":2271:2549   */\n              pop\n                /* \"#utility.yul\":2209:2549   */\n              swap3\n              swap2\n              pop\n              pop\n              jump\t// out\n                /* \"#utility.yul\":2555:3064   */\n            tag_11:\n                /* \"#utility.yul\":2624:2630   */\n              0x00\n                /* \"#utility.yul\":2673:2675   */\n              0x20\n                /* \"#utility.yul\":2661:2670   */\n              dup3\n                /* \"#utility.yul\":2652:2659   */\n              dup5\n                /* \"#utility.yul\":2648:2671   */\n              sub\n                /* \"#utility.yul\":2644:2676   */\n              slt\n                /* \"#utility.yul\":2641:2760   */\n              iszero\n              tag_168\n              jumpi\n                /* \"#utility.yul\":2679:2758   */\n              tag_169\n              tag_99\n              jump\t// in\n            tag_169:\n                /* \"#utility.yul\":2641:2760   */\n            tag_168:\n                /* \"#utility.yul\":2827:2828   */\n              0x00\n                /* \"#utility.yul\":2816:2825   */\n              dup3\n                /* \"#utility.yul\":2812:2829   */\n              add\n                /* \"#utility.yul\":2799:2830   */\n              calldataload\n                /* \"#utility.yul\":2857:2875   */\n              0xffffffffffffffff\n                /* \"#utility.yul\":2849:2855   */\n              dup2\n                /* \"#utility.yul\":2846:2876   */\n              gt\n                /* \"#utility.yul\":2843:2960   */\n              iszero\n              tag_170\n              jumpi\n                /* \"#utility.yul\":2879:2958   */\n              tag_171\n              tag_100\n              jump\t// in\n            tag_171:\n                /* \"#utility.yul\":2843:2960   */\n            tag_170:\n                /* \"#utility.yul\":2984:3047   */\n              tag_172\n                /* \"#utility.yul\":3039:3046   */\n              dup5\n                /* \"#utility.yul\":3030:3036   */\n              dup3\n                /* \"#utility.yul\":3019:3028   */\n              dup6\n                /* \"#utility.yul\":3015:3037   */\n              add\n                /* \"#utility.yul\":2984:3047   */\n              tag_110\n              jump\t// in\n            tag_172:\n                /* \"#utility.yul\":2974:3047   */\n              swap2\n              pop\n                /* \"#utility.yul\":2770:3057   */\n              pop\n                /* \"#utility.yul\":2555:3064   */\n              swap3\n              swap2\n              pop\n              pop\n              jump\t// out\n                /* \"#utility.yul\":3070:3169   */\n            tag_111:\n                /* \"#utility.yul\":3122:3128   */\n              0x00\n                /* \"#utility.yul\":3156:3161   */\n              dup2\n                /* \"#utility.yul\":3150:3162   */\n              mload\n                /* \"#utility.yul\":3140:3162   */\n              swap1\n              pop\n                /* \"#utility.yul\":3070:3169   */\n              swap2\n              swap1\n              pop\n              jump\t// out\n                /* \"#utility.yul\":3175:3344   */\n            tag_112:\n                /* \"#utility.yul\":3259:3270   */\n              0x00\n                /* \"#utility.yul\":3293:3299   */\n              dup3\n                /* \"#utility.yul\":3288:3291   */\n              dup3\n                /* \"#utility.yul\":3281:3300   */\n              mstore\n                /* \"#utility.yul\":3333:3337   */\n              0x20\n                /* \"#utility.yul\":3328:3331   */\n              dup3\n                /* \"#utility.yul\":3324:3338   */\n              add\n                /* \"#utility.yul\":3309:3338   */\n              swap1\n              pop\n                /* \"#utility.yul\":3175:3344   */\n              swap3\n              swap2\n              pop\n              pop\n              jump\t// out\n                /* \"#utility.yul\":3350:3489   */\n            tag_113:\n                /* \"#utility.yul\":3439:3445   */\n              dup3\n                /* \"#utility.yul\":3434:3437   */\n              dup2\n                /* \"#utility.yul\":3429:3432   */\n              dup4\n                /* \"#utility.yul\":3423:3446   */\n              mcopy\n                /* \"#utility.yul\":3480:3481   */\n              0x00\n                /* \"#utility.yul\":3471:3477   */\n              dup4\n                /* \"#utility.yul\":3466:3469   */\n              dup4\n                /* \"#utility.yul\":3462:3478   */\n              add\n                /* \"#utility.yul\":3455:3482   */\n              mstore\n                /* \"#utility.yul\":3350:3489   */\n              pop\n              pop\n              pop\n              jump\t// out\n                /* \"#utility.yul\":3495:3872   */\n            tag_114:\n                /* \"#utility.yul\":3583:3586   */\n              0x00\n                /* \"#utility.yul\":3611:3650   */\n              tag_177\n                /* \"#utility.yul\":3644:3649   */\n              dup3\n                /* \"#utility.yul\":3611:3650   */\n              tag_111\n              jump\t// in\n            tag_177:\n                /* \"#utility.yul\":3666:3737   */\n              tag_178\n                /* \"#utility.yul\":3730:3736   */\n              dup2\n                /* \"#utility.yul\":3725:3728   */\n              dup6\n                /* \"#utility.yul\":3666:3737   */\n              tag_112\n              jump\t// in\n            tag_178:\n                /* \"#utility.yul\":3659:3737   */\n              swap4\n              pop\n                /* \"#utility.yul\":3746:3811   */\n              tag_179\n                /* \"#utility.yul\":3804:3810   */\n              dup2\n                /* \"#utility.yul\":3799:3802   */\n              dup6\n                /* \"#utility.yul\":3792:3796   */\n              0x20\n                /* \"#utility.yul\":3785:3790   */\n              dup7\n                /* \"#utility.yul\":3781:3797   */\n              add\n                /* \"#utility.yul\":3746:3811   */\n              tag_113\n              jump\t// in\n            tag_179:\n                /* \"#utility.yul\":3836:3865   */\n              tag_180\n                /* \"#utility.yul\":3858:3864   */\n              dup2\n                /* \"#utility.yul\":3836:3865   */\n              tag_103\n              jump\t// in\n            tag_180:\n                /* \"#utility.yul\":3831:3834   */\n              dup5\n                /* \"#utility.yul\":3827:3866   */\n              add\n                /* \"#utility.yul\":3820:3866   */\n              swap2\n              pop\n                /* \"#utility.yul\":3587:3872   */\n              pop\n                /* \"#utility.yul\":3495:3872   */\n              swap3\n              swap2\n              pop\n              pop\n              jump\t// out\n                /* \"#utility.yul\":3878:4191   */\n            tag_14:\n                /* \"#utility.yul\":3991:3995   */\n              0x00\n                /* \"#utility.yul\":4029:4031   */\n              0x20\n                /* \"#utility.yul\":4018:4027   */\n              dup3\n                /* \"#utility.yul\":4014:4032   */\n              add\n                /* \"#utility.yul\":4006:4032   */\n              swap1\n              pop\n                /* \"#utility.yul\":4078:4087   */\n              dup2\n                /* \"#utility.yul\":4072:4076   */\n              dup2\n                /* \"#utility.yul\":4068:4088   */\n              sub\n                /* \"#utility.yul\":4064:4065   */\n              0x00\n                /* \"#utility.yul\":4053:4062   */\n              dup4\n                /* \"#utility.yul\":4049:4066   */\n              add\n                /* \"#utility.yul\":4042:4089   */\n              mstore\n                /* \"#utility.yul\":4106:4184   */\n              tag_182\n                /* \"#utility.yul\":4179:4183   */\n              dup2\n                /* \"#utility.yul\":4170:4176   */\n              dup5\n                /* \"#utility.yul\":4106:4184   */\n              tag_114\n              jump\t// in\n            tag_182:\n                /* \"#utility.yul\":4098:4184   */\n              swap1\n              pop\n                /* \"#utility.yul\":3878:4191   */\n              swap3\n              swap2\n              pop\n              pop\n              jump\t// out\n                /* \"#utility.yul\":4197:4274   */\n            tag_115:\n                /* \"#utility.yul\":4234:4241   */\n              0x00\n                /* \"#utility.yul\":4263:4268   */\n              dup2\n                /* \"#utility.yul\":4252:4268   */\n              swap1\n              pop\n                /* \"#utility.yul\":4197:4274   */\n              swap2\n              swap1\n              pop\n              jump\t// out\n                /* \"#utility.yul\":4280:4402   */\n            tag_116:\n                /* \"#utility.yul\":4353:4377   */\n              tag_185\n                /* \"#utility.yul\":4371:4376   */\n              dup2\n                /* \"#utility.yul\":4353:4377   */\n              tag_115\n              jump\t// in\n            tag_185:\n                /* \"#utility.yul\":4346:4351   */\n              dup2\n                /* \"#utility.yul\":4343:4378   */\n              eq\n                /* \"#utility.yul\":4333:4396   */\n              tag_186\n              jumpi\n                /* \"#utility.yul\":4392:4393   */\n              0x00\n                /* \"#utility.yul\":4389:4390   */\n              dup1\n                /* \"#utility.yul\":4382:4394   */\n              revert\n                /* \"#utility.yul\":4333:4396   */\n            tag_186:\n                /* \"#utility.yul\":4280:4402   */\n              pop\n              jump\t// out\n                /* \"#utility.yul\":4408:4547   */\n            tag_117:\n                /* \"#utility.yul\":4454:4459   */\n              0x00\n                /* \"#utility.yul\":4492:4498   */\n              dup2\n                /* \"#utility.yul\":4479:4499   */\n              calldataload\n                /* \"#utility.yul\":4470:4499   */\n              swap1\n              pop\n                /* \"#utility.yul\":4508:4541   */\n              tag_188\n                /* \"#utility.yul\":4535:4540   */\n              dup2\n                /* \"#utility.yul\":4508:4541   */\n              tag_116\n              jump\t// in\n            tag_188:\n                /* \"#utility.yul\":4408:4547   */\n              swap3\n              swap2\n              pop\n              pop\n              jump\t// out\n                /* \"#utility.yul\":4553:4882   */\n            tag_20:\n                /* \"#utility.yul\":4612:4618   */\n              0x00\n                /* \"#utility.yul\":4661:4663   */\n              0x20\n                /* \"#utility.yul\":4649:4658   */\n              dup3\n                /* \"#utility.yul\":4640:4647   */\n              dup5\n                /* \"#utility.yul\":4636:4659   */\n              sub\n                /* \"#utility.yul\":4632:4664   */\n              slt\n                /* \"#utility.yul\":4629:4748   */\n              iszero\n              tag_190\n              jumpi\n                /* \"#utility.yul\":4667:4746   */\n              tag_191\n              tag_99\n              jump\t// in\n            tag_191:\n                /* \"#utility.yul\":4629:4748   */\n            tag_190:\n                /* \"#utility.yul\":4787:4788   */\n              0x00\n                /* \"#utility.yul\":4812:4865   */\n              tag_192\n                /* \"#utility.yul\":4857:4864   */\n              dup5\n                /* \"#utility.yul\":4848:4854   */\n              dup3\n                /* \"#utility.yul\":4837:4846   */\n              dup6\n                /* \"#utility.yul\":4833:4855   */\n              add\n                /* \"#utility.yul\":4812:4865   */\n              tag_117\n              jump\t// in\n            tag_192:\n                /* \"#utility.yul\":4802:4865   */\n              swap2\n              pop\n                /* \"#utility.yul\":4758:4875   */\n              pop\n                /* \"#utility.yul\":4553:4882   */\n              swap3\n              swap2\n              pop\n              pop\n              jump\t// out\n                /* \"#utility.yul\":4888:5542   */\n            tag_25:\n                /* \"#utility.yul\":4966:4972   */\n              0x00\n                /* \"#utility.yul\":4974:4980   */\n              dup1\n                /* \"#utility.yul\":5023:5025   */\n              0x40\n                /* \"#utility.yul\":5011:5020   */\n              dup4\n                /* \"#utility.yul\":5002:5009   */\n              dup6\n                /* \"#utility.yul\":4998:5021   */\n              sub\n                /* \"#utility.yul\":4994:5026   */\n              slt\n                /* \"#utility.yul\":4991:5110   */\n              iszero\n              tag_194\n              jumpi\n                /* \"#utility.yul\":5029:5108   */\n              tag_195\n              tag_99\n              jump\t// in\n            tag_195:\n                /* \"#utility.yul\":4991:5110   */\n            tag_194:\n                /* \"#utility.yul\":5177:5178   */\n              0x00\n                /* \"#utility.yul\":5166:5175   */\n              dup4\n                /* \"#utility.yul\":5162:5179   */\n              add\n                /* \"#utility.yul\":5149:5180   */\n              calldataload\n                /* \"#utility.yul\":5207:5225   */\n              0xffffffffffffffff\n                /* \"#utility.yul\":5199:5205   */\n              dup2\n                /* \"#utility.yul\":5196:5226   */\n              gt\n                /* \"#utility.yul\":5193:5310   */\n              iszero\n              tag_196\n              jumpi\n                /* \"#utility.yul\":5229:5308   */\n              tag_197\n              tag_100\n              jump\t// in\n            tag_197:\n                /* \"#utility.yul\":5193:5310   */\n            tag_196:\n                /* \"#utility.yul\":5334:5397   */\n              tag_198\n                /* \"#utility.yul\":5389:5396   */\n              dup6\n                /* \"#utility.yul\":5380:5386   */\n              dup3\n                /* \"#utility.yul\":5369:5378   */\n              dup7\n                /* \"#utility.yul\":5365:5387   */\n              add\n                /* \"#utility.yul\":5334:5397   */\n              tag_110\n              jump\t// in\n            tag_198:\n                /* \"#utility.yul\":5324:5397   */\n              swap3\n              pop\n                /* \"#utility.yul\":5120:5407   */\n              pop\n                /* \"#utility.yul\":5446:5448   */\n              0x20\n                /* \"#utility.yul\":5472:5525   */\n              tag_199\n                /* \"#utility.yul\":5517:5524   */\n              dup6\n                /* \"#utility.yul\":5508:5514   */\n              dup3\n                /* \"#utility.yul\":5497:5506   */\n              dup7\n                /* \"#utility.yul\":5493:5515   */\n              add\n                /* \"#utility.yul\":5472:5525   */\n              tag_117\n              jump\t// in\n            tag_199:\n                /* \"#utility.yul\":5462:5525   */\n              swap2\n              pop\n                /* \"#utility.yul\":5417:5535   */\n              pop\n                /* \"#utility.yul\":4888:5542   */\n              swap3\n              pop\n              swap3\n              swap1\n              pop\n              jump\t// out\n                /* \"#utility.yul\":5548:5728   */\n            tag_118:\n                /* \"#utility.yul\":5596:5673   */\n              0x4e487b7100000000000000000000000000000000000000000000000000000000\n                /* \"#utility.yul\":5593:5594   */\n              0x00\n                /* \"#utility.yul\":5586:5674   */\n              mstore\n                /* \"#utility.yul\":5693:5697   */\n              0x22\n                /* \"#utility.yul\":5690:5691   */\n              0x04\n                /* \"#utility.yul\":5683:5698   */\n              mstore\n                /* \"#utility.yul\":5717:5721   */\n              0x24\n                /* \"#utility.yul\":5714:5715   */\n              0x00\n                /* \"#utility.yul\":5707:5722   */\n              revert\n                /* \"#utility.yul\":5734:6054   */\n            tag_38:\n                /* \"#utility.yul\":5778:5784   */\n              0x00\n                /* \"#utility.yul\":5815:5816   */\n              0x02\n                /* \"#utility.yul\":5809:5813   */\n              dup3\n                /* \"#utility.yul\":5805:5817   */\n              div\n                /* \"#utility.yul\":5795:5817   */\n              swap1\n              pop\n                /* \"#utility.yul\":5862:5863   */\n              0x01\n                /* \"#utility.yul\":5856:5860   */\n              dup3\n                /* \"#utility.yul\":5852:5864   */\n              and\n                /* \"#utility.yul\":5883:5901   */\n              dup1\n                /* \"#utility.yul\":5873:5954   */\n              tag_202\n              jumpi\n                /* \"#utility.yul\":5939:5943   */\n              0x7f\n                /* \"#utility.yul\":5931:5937   */\n              dup3\n                /* \"#utility.yul\":5927:5944   */\n              and\n                /* \"#utility.yul\":5917:5944   */\n              swap2\n              pop\n                /* \"#utility.yul\":5873:5954   */\n            tag_202:\n                /* \"#utility.yul\":6001:6003   */\n              0x20\n                /* \"#utility.yul\":5993:5999   */\n              dup3\n                /* \"#utility.yul\":5990:6004   */\n              lt\n                /* \"#utility.yul\":5970:5988   */\n              dup2\n                /* \"#utility.yul\":5967:6005   */\n              sub\n                /* \"#utility.yul\":5964:6048   */\n              tag_203\n              jumpi\n                /* \"#utility.yul\":6020:6038   */\n              tag_204\n              tag_118\n              jump\t// in\n            tag_204:\n                /* \"#utility.yul\":5964:6048   */\n            tag_203:\n                /* \"#utility.yul\":5785:6054   */\n              pop\n                /* \"#utility.yul\":5734:6054   */\n              swap2\n              swap1\n              pop\n              jump\t// out\n                /* \"#utility.yul\":6060:6201   */\n            tag_119:\n                /* \"#utility.yul\":6109:6113   */\n              0x00\n                /* \"#utility.yul\":6132:6135   */\n              dup2\n                /* \"#utility.yul\":6124:6135   */\n              swap1\n              pop\n                /* \"#utility.yul\":6155:6158   */\n              dup2\n                /* \"#utility.yul\":6152:6153   */\n              0x00\n                /* \"#utility.yul\":6145:6159   */\n              mstore\n                /* \"#utility.yul\":6189:6193   */\n              0x20\n                /* \"#utility.yul\":6186:6187   */\n              0x00\n                /* \"#utility.yul\":6176:6194   */\n              keccak256\n                /* \"#utility.yul\":6168:6194   */\n              swap1\n              pop\n                /* \"#utility.yul\":6060:6201   */\n              swap2\n              swap1\n              pop\n              jump\t// out\n                /* \"#utility.yul\":6207:6300   */\n            tag_120:\n                /* \"#utility.yul\":6244:6250   */\n              0x00\n                /* \"#utility.yul\":6291:6293   */\n              0x20\n                /* \"#utility.yul\":6286:6288   */\n              0x1f\n                /* \"#utility.yul\":6279:6284   */\n              dup4\n                /* \"#utility.yul\":6275:6289   */\n              add\n                /* \"#utility.yul\":6271:6294   */\n              div\n                /* \"#utility.yul\":6261:6294   */\n              swap1\n              pop\n                /* \"#utility.yul\":6207:6300   */\n              swap2\n              swap1\n              pop\n              jump\t// out\n                /* \"#utility.yul\":6306:6413   */\n            tag_121:\n                /* \"#utility.yul\":6350:6358   */\n              0x00\n                /* \"#utility.yul\":6400:6405   */\n              dup3\n                /* \"#utility.yul\":6394:6398   */\n              dup3\n                /* \"#utility.yul\":6390:6406   */\n              shl\n                /* \"#utility.yul\":6369:6406   */\n              swap1\n              pop\n                /* \"#utility.yul\":6306:6413   */\n              swap3\n              swap2\n              pop\n              pop\n              jump\t// out\n                /* \"#utility.yul\":6419:6812   */\n            tag_122:\n                /* \"#utility.yul\":6488:6494   */\n              0x00\n                /* \"#utility.yul\":6538:6539   */\n              0x08\n                /* \"#utility.yul\":6526:6536   */\n              dup4\n                /* \"#utility.yul\":6522:6540   */\n              mul\n                /* \"#utility.yul\":6561:6658   */\n              tag_209\n                /* \"#utility.yul\":6591:6657   */\n              0xffffffffffffffffffffffffffffffffffffffffffffffffffffffffffffffff\n                /* \"#utility.yul\":6580:6589   */\n              dup3\n                /* \"#utility.yul\":6561:6658   */\n              tag_121\n              jump\t// in\n            tag_209:\n                /* \"#utility.yul\":6679:6718   */\n              tag_210\n                /* \"#utility.yul\":6709:6717   */\n              dup7\n                /* \"#utility.yul\":6698:6707   */\n              dup4\n                /* \"#utility.yul\":6679:6718   */\n              tag_121\n              jump\t// in\n            tag_210:\n                /* \"#utility.yul\":6667:6718   */\n              swap6\n              pop\n                /* \"#utility.yul\":6751:6755   */\n              dup1\n                /* \"#utility.yul\":6747:6756   */\n              not\n                /* \"#utility.yul\":6740:6745   */\n              dup5\n                /* \"#utility.yul\":6736:6757   */\n              and\n                /* \"#utility.yul\":6727:6757   */\n              swap4\n              pop\n                /* \"#utility.yul\":6800:6804   */\n              dup1\n                /* \"#utility.yul\":6790:6798   */\n              dup7\n                /* \"#utility.yul\":6786:6805   */\n              and\n                /* \"#utility.yul\":6779:6784   */\n              dup5\n                /* \"#utility.yul\":6776:6806   */\n              or\n                /* \"#utility.yul\":6766:6806   */\n              swap3\n              pop\n                /* \"#utility.yul\":6495:6812   */\n              pop\n              pop\n                /* \"#utility.yul\":6419:6812   */\n              swap4\n              swap3\n              pop\n              pop\n              pop\n              jump\t// out\n                /* \"#utility.yul\":6818:6878   */\n            tag_123:\n                /* \"#utility.yul\":6846:6849   */\n              0x00\n                /* \"#utility.yul\":6867:6872   */\n              dup2\n                /* \"#utility.yul\":6860:6872   */\n              swap1\n              pop\n                /* \"#utility.yul\":6818:6878   */\n              swap2\n              swap1\n              pop\n              jump\t// out\n                /* \"#utility.yul\":6884:7026   */\n            tag_124:\n                /* \"#utility.yul\":6934:6943   */\n              0x00\n                /* \"#utility.yul\":6967:7020   */\n              tag_213\n                /* \"#utility.yul\":6985:7019   */\n              tag_214\n                /* \"#utility.yul\":6994:7018   */\n              tag_215\n                /* \"#utility.yul\":7012:7017   */\n              dup5\n                /* \"#utility.yul\":6994:7018   */\n              tag_115\n              jump\t// in\n            tag_215:\n                /* \"#utility.yul\":6985:7019   */\n              tag_123\n              jump\t// in\n            tag_214:\n                /* \"#utility.yul\":6967:7020   */\n              tag_115\n              jump\t// in\n            tag_213:\n                /* \"#utility.yul\":6954:7020   */\n              swap1\n              pop\n                /* \"#utility.yul\":6884:7026   */\n              swap2\n              swap1\n              pop\n              jump\t// out\n                /* \"#utility.yul\":7032:7107   */\n            tag_125:\n                /* \"#utility.yul\":7075:7078   */\n              0x00\n                /* \"#utility.yul\":7096:7101   */\n              dup2\n                /* \"#utility.yul\":7089:7101   */\n              swap1\n              pop\n                /* \"#utility.yul\":7032:7107   */\n              swap2\n              swap1\n              pop\n              jump\t// out\n                /* \"#utility.yul\":7113:7382   */\n            tag_126:\n                /* \"#utility.yul\":7223:7262   */\n              tag_218\n                /* \"#utility.yul\":7254:7261   */\n              dup4\n                /* \"#utility.yul\":7223:7262   */\n              tag_124\n              jump\t// in\n            tag_218:\n                /* \"#utility.yul\":7284:7375   */\n              tag_219\n                /* \"#utility.yul\":7333:7374   */\n              tag_220\n                /* \"#utility.yul\":7357:7373   */\n              dup3\n                /* \"#utility.yul\":7333:7374   */\n              tag_125\n              jump\t// in\n            tag_220:\n                /* \"#utility.yul\":7325:7331   */\n              dup5\n                /* \"#utility.yul\":7318:7322   */\n              dup5\n                /* \"#utility.yul\":7312:7323   */\n              sload\n                /* \"#utility.yul\":7284:7375   */\n              tag_122\n              jump\t// in\n            tag_219:\n                /* \"#utility.yul\":7278:7282   */\n              dup3\n                /* \"#utility.yul\":7271:7376   */\n              sstore\n                /* \"#utility.yul\":7189:7382   */\n              pop\n                /* \"#utility.yul\":7113:7382   */\n              pop\n              pop\n              pop\n              jump\t// out\n                /* \"#utility.yul\":7388:7461   */\n            tag_127:\n                /* \"#utility.yul\":7433:7436   */\n              0x00\n                /* \"#utility.yul\":7388:7461   */\n              swap1\n              jump\t// out\n                /* \"#utility.yul\":7467:7656   */\n            tag_128:\n                /* \"#utility.yul\":7544:7576   */\n              tag_223\n              tag_127\n              jump\t// in\n            tag_223:\n                /* \"#utility.yul\":7585:7650   */\n              tag_224\n                /* \"#utility.yul\":7643:7649   */\n              dup2\n                /* \"#utility.yul\":7635:7641   */\n              dup5\n                /* \"#utility.yul\":7629:7633   */\n              dup5\n                /* \"#utility.yul\":7585:7650   */\n              tag_126\n              jump\t// in\n            tag_224:\n                /* \"#utility.yul\":7520:7656   */\n              pop\n                /* \"#utility.yul\":7467:7656   */\n              pop\n              pop\n              jump\t// out\n                /* \"#utility.yul\":7662:7848   */\n            tag_129:\n                /* \"#utility.yul\":7722:7842   */\n            tag_226:\n                /* \"#utility.yul\":7739:7742   */\n              dup2\n                /* \"#utility.yul\":7732:7737   */\n              dup2\n                /* \"#utility.yul\":7729:7743   */\n              lt\n                /* \"#utility.yul\":7722:7842   */\n              iszero\n              tag_228\n              jumpi\n                /* \"#utility.yul\":7793:7832   */\n              tag_229\n                /* \"#utility.yul\":7830:7831   */\n              0x00\n                /* \"#utility.yul\":7823:7828   */\n              dup3\n                /* \"#utility.yul\":7793:7832   */\n              tag_128\n              jump\t// in\n            tag_229:\n                /* \"#utility.yul\":7766:7767   */\n              0x01\n                /* \"#utility.yul\":7759:7764   */\n              dup2\n                /* \"#utility.yul\":7755:7768   */\n              add\n                /* \"#utility.yul\":7746:7768   */\n              swap1\n              pop\n                /* \"#utility.yul\":7722:7842   */\n              jump(tag_226)\n            tag_228:\n                /* \"#utility.yul\":7662:7848   */\n              pop\n              pop\n              jump\t// out\n                /* \"#utility.yul\":7854:8397   */\n            tag_130:\n                /* \"#utility.yul\":7955:7957   */\n              0x1f\n                /* \"#utility.yul\":7950:7953   */\n              dup3\n                /* \"#utility.yul\":7947:7958   */\n              gt\n                /* \"#utility.yul\":7944:8390   */\n              iszero\n              tag_231\n              jumpi\n                /* \"#utility.yul\":7989:8027   */\n              tag_232\n                /* \"#utility.yul\":8021:8026   */\n              dup2\n                /* \"#utility.yul\":7989:8027   */\n              tag_119\n              jump\t// in\n            tag_232:\n                /* \"#utility.yul\":8073:8102   */\n              tag_233\n                /* \"#utility.yul\":8091:8101   */\n              dup5\n                /* \"#utility.yul\":8073:8102   */\n              tag_120\n              jump\t// in\n            tag_233:\n                /* \"#utility.yul\":8063:8071   */\n              dup2\n                /* \"#utility.yul\":8059:8103   */\n              add\n                /* \"#utility.yul\":8256:8258   */\n              0x20\n                /* \"#utility.yul\":8244:8254   */\n              dup6\n                /* \"#utility.yul\":8241:8259   */\n              lt\n                /* \"#utility.yul\":8238:8287   */\n              iszero\n              tag_234\n              jumpi\n                /* \"#utility.yul\":8277:8285   */\n              dup2\n                /* \"#utility.yul\":8262:8285   */\n              swap1\n              pop\n                /* \"#utility.yul\":8238:8287   */\n            tag_234:\n                /* \"#utility.yul\":8300:8380   */\n              tag_235\n                /* \"#utility.yul\":8356:8378   */\n              tag_236\n                /* \"#utility.yul\":8374:8377   */\n              dup6\n                /* \"#utility.yul\":8356:8378   */\n              tag_120\n              jump\t// in\n            tag_236:\n                /* \"#utility.yul\":8346:8354   */\n              dup4\n                /* \"#utility.yul\":8342:8379   */\n              add\n                /* \"#utility.yul\":8329:8340   */\n              dup3\n                /* \"#utility.yul\":8300:8380   */\n              tag_129\n              jump\t// in\n            tag_235:\n                /* \"#utility.yul\":7959:8390   */\n              pop\n              pop\n                /* \"#utility.yul\":7944:8390   */\n            tag_231:\n                /* \"#utility.yul\":7854:8397   */\n              pop\n              pop\n              pop\n              jump\t// out\n                /* \"#utility.yul\":8403:8520   */\n            tag_131:\n                /* \"#utility.yul\":8457:8465   */\n              0x00\n                /* \"#utility.yul\":8507:8512   */\n              dup3\n                /* \"#utility.yul\":8501:8505   */\n              dup3\n                /* \"#utility.yul\":8497:8513   */\n              shr\n                /* \"#utility.yul\":8476:8513   */\n              swap1\n              pop\n                /* \"#utility.yul\":8403:8520   */\n              swap3\n              swap2\n              pop\n              pop\n              jump\t// out\n                /* \"#utility.yul\":8526:8695   */\n            tag_132:\n                /* \"#utility.yul\":8570:8576   */\n              0x00\n                /* \"#utility.yul\":8603:8654   */\n              tag_239\n                /* \"#utility.yul\":8651:8652   */\n              0x00\n                /* \"#utility.yul\":8647:8653   */\n              not\n                /* \"#utility.yul\":8639:8644   */\n              dup5\n                /* \"#utility.yul\":8636:8637   */\n              0x08\n                /* \"#utility.yul\":8632:8645   */\n              mul\n                /* \"#utility.yul\":8603:8654   */\n              tag_131\n              jump\t// in\n            tag_239:\n                /* \"#utility.yul\":8599:8655   */\n              not\n                /* \"#utility.yul\":8684:8688   */\n              dup1\n                /* \"#utility.yul\":8678:8682   */\n              dup4\n                /* \"#utility.yul\":8674:8689   */\n              and\n                /* \"#utility.yul\":8664:8689   */\n              swap2\n              pop\n                /* \"#utility.yul\":8577:8695   */\n              pop\n                /* \"#utility.yul\":8526:8695   */\n              swap3\n              swap2\n              pop\n              pop\n              jump\t// out\n                /* \"#utility.yul\":8700:8995   */\n            tag_133:\n                /* \"#utility.yul\":8776:8780   */\n              0x00\n                /* \"#utility.yul\":8922:8951   */\n              tag_241\n                /* \"#utility.yul\":8947:8950   */\n              dup4\n                /* \"#utility.yul\":8941:8945   */\n              dup4\n                /* \"#utility.yul\":8922:8951   */\n              tag_132\n              jump\t// in\n            tag_241:\n                /* \"#utility.yul\":8914:8951   */\n              swap2\n              pop\n                /* \"#utility.yul\":8984:8987   */\n              dup3\n                /* \"#utility.yul\":8981:8982   */\n              0x02\n                /* \"#utility.yul\":8977:8988   */\n              mul\n                /* \"#utility.yul\":8971:8975   */\n              dup3\n                /* \"#utility.yul\":8968:8989   */\n              or\n                /* \"#utility.yul\":8960:8989   */\n              swap1\n              pop\n                /* \"#utility.yul\":8700:8995   */\n              swap3\n              swap2\n              pop\n              pop\n              jump\t// out\n                /* \"#utility.yul\":9000:10395   */\n            tag_36:\n                /* \"#utility.yul\":9117:9154   */\n              tag_243\n                /* \"#utility.yul\":9150:9153   */\n              dup3\n                /* \"#utility.yul\":9117:9154   */\n              tag_111\n              jump\t// in\n            tag_243:\n                /* \"#utility.yul\":9219:9237   */\n              0xffffffffffffffff\n                /* \"#utility.yul\":9211:9217   */\n              dup2\n                /* \"#utility.yul\":9208:9238   */\n              gt\n                /* \"#utility.yul\":9205:9261   */\n              iszero\n              tag_244\n              jumpi\n                /* \"#utility.yul\":9241:9259   */\n              tag_245\n              tag_104\n              jump\t// in\n            tag_245:\n                /* \"#utility.yul\":9205:9261   */\n            tag_244:\n                /* \"#utility.yul\":9285:9323   */\n              tag_246\n                /* \"#utility.yul\":9317:9321   */\n              dup3\n                /* \"#utility.yul\":9311:9322   */\n              sload\n                /* \"#utility.yul\":9285:9323   */\n              tag_38\n              jump\t// in\n            tag_246:\n                /* \"#utility.yul\":9370:9437   */\n              tag_247\n                /* \"#utility.yul\":9430:9436   */\n              dup3\n                /* \"#utility.yul\":9422:9428   */\n              dup3\n                /* \"#utility.yul\":9416:9420   */\n              dup6\n                /* \"#utility.yul\":9370:9437   */\n              tag_130\n              jump\t// in\n            tag_247:\n                /* \"#utility.yul\":9464:9465   */\n              0x00\n                /* \"#utility.yul\":9488:9492   */\n              0x20\n                /* \"#utility.yul\":9475:9492   */\n              swap1\n              pop\n                /* \"#utility.yul\":9520:9522   */\n              0x1f\n                /* \"#utility.yul\":9512:9518   */\n              dup4\n                /* \"#utility.yul\":9509:9523   */\n              gt\n                /* \"#utility.yul\":9537:9538   */\n              0x01\n                /* \"#utility.yul\":9532:10150   */\n              dup2\n              eq\n              tag_249\n              jumpi\n                /* \"#utility.yul\":10194:10195   */\n              0x00\n                /* \"#utility.yul\":10211:10217   */\n              dup5\n                /* \"#utility.yul\":10208:10285   */\n              iszero\n              tag_250\n              jumpi\n                /* \"#utility.yul\":10260:10269   */\n              dup3\n                /* \"#utility.yul\":10255:10258   */\n              dup8\n                /* \"#utility.yul\":10251:10270   */\n              add\n                /* \"#utility.yul\":10245:10271   */\n              mload\n                /* \"#utility.yul\":10236:10271   */\n              swap1\n              pop\n                /* \"#utility.yul\":10208:10285   */\n            tag_250:\n                /* \"#utility.yul\":10311:10378   */\n              tag_251\n                /* \"#utility.yul\":10371:10377   */\n              dup6\n                /* \"#utility.yul\":10364:10369   */\n              dup3\n                /* \"#utility.yul\":10311:10378   */\n              tag_133\n              jump\t// in\n            tag_251:\n                /* \"#utility.yul\":10305:10309   */\n              dup7\n                /* \"#utility.yul\":10298:10379   */\n              sstore\n                /* \"#utility.yul\":10167:10389   */\n              pop\n                /* \"#utility.yul\":9502:10389   */\n              jump(tag_248)\n                /* \"#utility.yul\":9532:10150   */\n            tag_249:\n                /* \"#utility.yul\":9584:9588   */\n              0x1f\n                /* \"#utility.yul\":9580:9589   */\n              not\n                /* \"#utility.yul\":9572:9578   */\n              dup5\n                /* \"#utility.yul\":9568:9590   */\n              and\n                /* \"#utility.yul\":9618:9655   */\n              tag_252\n                /* \"#utility.yul\":9650:9654   */\n              dup7\n                /* \"#utility.yul\":9618:9655   */\n              tag_119\n              jump\t// in\n            tag_252:\n                /* \"#utility.yul\":9677:9678   */\n              0x00\n                /* \"#utility.yul\":9691:9899   */\n            tag_253:\n                /* \"#utility.yul\":9705:9712   */\n              dup3\n                /* \"#utility.yul\":9702:9703   */\n              dup2\n                /* \"#utility.yul\":9699:9713   */\n              lt\n                /* \"#utility.yul\":9691:9899   */\n              iszero\n              tag_255\n              jumpi\n                /* \"#utility.yul\":9784:9793   */\n              dup5\n                /* \"#utility.yul\":9779:9782   */\n              dup10\n                /* \"#utility.yul\":9775:9794   */\n              add\n                /* \"#utility.yul\":9769:9795   */\n              mload\n                /* \"#utility.yul\":9761:9767   */\n              dup3\n                /* \"#utility.yul\":9754:9796   */\n              sstore\n                /* \"#utility.yul\":9835:9836   */\n              0x01\n                /* \"#utility.yul\":9827:9833   */\n              dup3\n                /* \"#utility.yul\":9823:9837   */\n              add\n                /* \"#utility.yul\":9813:9837   */\n              swap2\n              pop\n                /* \"#utility.yul\":9882:9884   */\n              0x20\n                /* \"#utility.yul\":9871:9880   */\n              dup6\n                /* \"#utility.yul\":9867:9885   */\n              add\n                /* \"#utility.yul\":9854:9885   */\n              swap5\n              pop\n                /* \"#utility.yul\":9728:9732   */\n              0x20\n                /* \"#utility.yul\":9725:9726   */\n              dup2\n                /* \"#utility.yul\":9721:9733   */\n              add\n                /* \"#utility.yul\":9716:9733   */\n              swap1\n              pop\n                /* \"#utility.yul\":9691:9899   */\n              jump(tag_253)\n            tag_255:\n                /* \"#utility.yul\":9927:9933   */\n              dup7\n                /* \"#utility.yul\":9918:9925   */\n              dup4\n                /* \"#utility.yul\":9915:9934   */\n              lt\n                /* \"#utility.yul\":9912:10091   */\n              iszero\n              tag_256\n              jumpi\n                /* \"#utility.yul\":9985:9994   */\n              dup5\n                /* \"#utility.yul\":9980:9983   */\n              dup10\n                /* \"#utility.yul\":9976:9995   */\n              add\n                /* \"#utility.yul\":9970:9996   */\n              mload\n                /* \"#utility.yul\":10028:10076   */\n              tag_257\n                /* \"#utility.yul\":10070:10074   */\n              0x1f\n                /* \"#utility.yul\":10062:10068   */\n              dup10\n                /* \"#utility.yul\":10058:10075   */\n              and\n                /* \"#utility.yul\":10047:10056   */\n              dup3\n                /* \"#utility.yul\":10028:10076   */\n              tag_132\n              jump\t// in\n            tag_257:\n                /* \"#utility.yul\":10020:10026   */\n              dup4\n                /* \"#utility.yul\":10013:10077   */\n              sstore\n                /* \"#utility.yul\":9935:10091   */\n              pop\n                /* \"#utility.yul\":9912:10091   */\n            tag_256:\n                /* \"#utility.yul\":10137:10138   */\n              0x01\n                /* \"#utility.yul\":10133:10134   */\n              0x02\n                /* \"#utility.yul\":10125:10131   */\n              dup9\n                /* \"#utility.yul\":10121:10135   */\n              mul\n                /* \"#utility.yul\":10117:10139   */\n              add\n                /* \"#utility.yul\":10111:10115   */\n              dup9\n                /* \"#utility.yul\":10104:10140   */\n              sstore\n                /* \"#utility.yul\":9539:10150   */\n              pop\n              pop\n              pop\n                /* \"#utility.yul\":9502:10389   */\n            tag_248:\n              pop\n                /* \"#utility.yul\":9092:10395   */\n              pop\n              pop\n              pop\n                /* \"#utility.yul\":9000:10395   */\n              pop\n              pop\n              jump\t// out\n                /* \"#utility.yul\":10401:10581   */\n            tag_77:\n                /* \"#utility.yul\":10449:10526   */\n              0x4e487b7100000000000000000000000000000000000000000000000000000000\n                /* \"#utility.yul\":10446:10447   */\n              0x00\n                /* \"#utility.yul\":10439:10527   */\n              mstore\n                /* \"#utility.yul\":10546:10550   */\n              0x32\n                /* \"#utility.yul\":10543:10544   */\n              0x04\n                /* \"#utility.yul\":10536:10551   */\n              mstore\n                /* \"#utility.yul\":10570:10574   */\n              0x24\n                /* \"#utility.yul\":10567:10568   */\n              0x00\n                /* \"#utility.yul\":10560:10575   */\n              revert\n                /* \"#utility.yul\":10587:10735   */\n            tag_134:\n                /* \"#utility.yul\":10689:10700   */\n              0x00\n                /* \"#utility.yul\":10726:10729   */\n              dup2\n                /* \"#utility.yul\":10711:10729   */\n              swap1\n              pop\n                /* \"#utility.yul\":10587:10735   */\n              swap3\n              swap2\n              pop\n              pop\n              jump\t// out\n                /* \"#utility.yul\":10741:11131   */\n            tag_135:\n                /* \"#utility.yul\":10847:10850   */\n              0x00\n                /* \"#utility.yul\":10875:10914   */\n              tag_261\n                /* \"#utility.yul\":10908:10913   */\n              dup3\n                /* \"#utility.yul\":10875:10914   */\n              tag_111\n              jump\t// in\n            tag_261:\n                /* \"#utility.yul\":10930:11019   */\n              tag_262\n                /* \"#utility.yul\":11012:11018   */\n              dup2\n                /* \"#utility.yul\":11007:11010   */\n              dup6\n                /* \"#utility.yul\":10930:11019   */\n              tag_134\n              jump\t// in\n            tag_262:\n                /* \"#utility.yul\":10923:11019   */\n              swap4\n              pop\n                /* \"#utility.yul\":11028:11093   */\n              tag_263\n                /* \"#utility.yul\":11086:11092   */\n              dup2\n                /* \"#utility.yul\":11081:11084   */\n              dup6\n                /* \"#utility.yul\":11074:11078   */\n              0x20\n                /* \"#utility.yul\":11067:11072   */\n              dup7\n                /* \"#utility.yul\":11063:11079   */\n              add\n                /* \"#utility.yul\":11028:11093   */\n              tag_113\n              jump\t// in\n            tag_263:\n                /* \"#utility.yul\":11118:11124   */\n              dup1\n                /* \"#utility.yul\":11113:11116   */\n              dup5\n                /* \"#utility.yul\":11109:11125   */\n              add\n                /* \"#utility.yul\":11102:11125   */\n              swap2\n              pop\n                /* \"#utility.yul\":10851:11131   */\n              pop\n                /* \"#utility.yul\":10741:11131   */\n              swap3\n              swap2\n              pop\n              pop\n              jump\t// out\n                /* \"#utility.yul\":11137:11379   */\n            tag_136:\n                /* \"#utility.yul\":11306:11372   */\n              0x09746869732069732061646420737472696e6721000000000000000000000000\n                /* \"#utility.yul\":11301:11304   */\n              dup2\n                /* \"#utility.yul\":11294:11373   */\n              mstore\n                /* \"#utility.yul\":11137:11379   */\n              pop\n              jump\t// out\n                /* \"#utility.yul\":11385:11927   */\n            tag_97:\n                /* \"#utility.yul\":11608:11611   */\n              0x00\n                /* \"#utility.yul\":11630:11725   */\n              tag_266\n                /* \"#utility.yul\":11721:11724   */\n              dup3\n                /* \"#utility.yul\":11712:11718   */\n              dup5\n                /* \"#utility.yul\":11630:11725   */\n              tag_135\n              jump\t// in\n            tag_266:\n                /* \"#utility.yul\":11623:11725   */\n              swap2\n              pop\n                /* \"#utility.yul\":11735:11873   */\n              tag_267\n                /* \"#utility.yul\":11869:11872   */\n              dup3\n                /* \"#utility.yul\":11735:11873   */\n              tag_136\n              jump\t// in\n            tag_267:\n                /* \"#utility.yul\":11898:11900   */\n              0x14\n                /* \"#utility.yul\":11893:11896   */\n              dup3\n                /* \"#utility.yul\":11889:11901   */\n              add\n                /* \"#utility.yul\":11882:11901   */\n              swap2\n              pop\n                /* \"#utility.yul\":11918:11921   */\n              dup2\n                /* \"#utility.yul\":11911:11921   */\n              swap1\n              pop\n                /* \"#utility.yul\":11385:11927   */\n              swap3\n              swap2\n              pop\n              pop\n              jump\t// out\n\n            auxdata: 0xa26469706673582212201516b84e69faf4e5488570fac10ef3bc04399508c721fadc1d9f4e87e077d49564736f6c634300081a0033\n        }\n    }\n\n    auxdata: 0xa264697066735822122047073626820b383add3a4b07414dbd086b6bd68d34477b0b3fb8c27f865303eb64736f6c634300081a0033\n}\n",
				"bytecode": {
					"linkReferences": {},
					"object": "6080604052348015600e575f80fd5b506119ff8061001c5f395ff3fe608060405234801561000f575f80fd5b506004361061004a575f3560e01c806316324d321461004e5780631a18505314610058578063bdcec25d14610074578063fa00d489146100a4575b5f80fd5b6100566100d4565b005b610072600480360381019061006d91906104f2565b6101b9565b005b61008e6004803603810190610089919061055e565b610261565b60405161009b91906105fc565b60405180910390f35b6100be60048036038101906100b9919061061c565b610321565b6040516100cb91906106c1565b60405180910390f35b6040516100e090610365565b604051809103905ff0801580156100f9573d5f803e3d5ffd5b505f806101000a81548173ffffffffffffffffffffffffffffffffffffffff021916908373ffffffffffffffffffffffffffffffffffffffff16021790555060015f8054906101000a900473ffffffffffffffffffffffffffffffffffffffff16908060018154018082558091505060019003905f5260205f20015f9091909190916101000a81548173ffffffffffffffffffffffffffffffffffffffff021916908373ffffffffffffffffffffffffffffffffffffffff160217905550565b600183815481106101cd576101cc6106da565b5b905f5260205f20015f9054906101000a900473ffffffffffffffffffffffffffffffffffffffff1673ffffffffffffffffffffffffffffffffffffffff1663ab12fc1883836040518363ffffffff1660e01b815260040161022f929190610716565b5f604051808303815f87803b158015610246575f80fd5b505af1158015610258573d5f803e3d5ffd5b50505050505050565b606060018381548110610277576102766106da565b5b905f5260205f20015f9054906101000a900473ffffffffffffffffffffffffffffffffffffffff1673ffffffffffffffffffffffffffffffffffffffff16638f5ce785836040518263ffffffff1660e01b81526004016102d79190610744565b5f60405180830381865afa1580156102f1573d5f803e3d5ffd5b505050506040513d5f823e3d601f19601f8201168201806040525081019061031991906107cb565b905092915050565b5f60018281548110610336576103356106da565b5b905f5260205f20015f9054906101000a900473ffffffffffffffffffffffffffffffffffffffff169050919050565b6111b78061081383390190565b5f604051905090565b5f80fd5b5f80fd5b5f819050919050565b61039581610383565b811461039f575f80fd5b50565b5f813590506103b08161038c565b92915050565b5f80fd5b5f80fd5b5f601f19601f8301169050919050565b7f4e487b71000000000000000000000000000000000000000000000000000000005f52604160045260245ffd5b610404826103be565b810181811067ffffffffffffffff82111715610423576104226103ce565b5b80604052505050565b5f610435610372565b905061044182826103fb565b919050565b5f67ffffffffffffffff8211156104605761045f6103ce565b5b610469826103be565b9050602081019050919050565b828183375f83830152505050565b5f61049661049184610446565b61042c565b9050828152602081018484840111156104b2576104b16103ba565b5b6104bd848285610476565b509392505050565b5f82601f8301126104d9576104d86103b6565b5b81356104e9848260208601610484565b91505092915050565b5f805f606084860312156105095761050861037b565b5b5f610516868287016103a2565b935050602084013567ffffffffffffffff8111156105375761053661037f565b5b610543868287016104c5565b9250506040610554868287016103a2565b9150509250925092565b5f80604083850312156105745761057361037b565b5b5f610581858286016103a2565b9250506020610592858286016103a2565b9150509250929050565b5f81519050919050565b5f82825260208201905092915050565b8281835e5f83830152505050565b5f6105ce8261059c565b6105d881856105a6565b93506105e88185602086016105b6565b6105f1816103be565b840191505092915050565b5f6020820190508181035f83015261061481846105c4565b905092915050565b5f602082840312156106315761063061037b565b5b5f61063e848285016103a2565b91505092915050565b5f73ffffffffffffffffffffffffffffffffffffffff82169050919050565b5f819050919050565b5f61068961068461067f84610647565b610666565b610647565b9050919050565b5f61069a8261066f565b9050919050565b5f6106ab82610690565b9050919050565b6106bb816106a1565b82525050565b5f6020820190506106d45f8301846106b2565b92915050565b7f4e487b71000000000000000000000000000000000000000000000000000000005f52603260045260245ffd5b61071081610383565b82525050565b5f6040820190508181035f83015261072e81856105c4565b905061073d6020830184610707565b9392505050565b5f6020820190506107575f830184610707565b92915050565b5f61076f61076a84610446565b61042c565b90508281526020810184848401111561078b5761078a6103ba565b5b6107968482856105b6565b509392505050565b5f82601f8301126107b2576107b16103b6565b5b81516107c284826020860161075d565b91505092915050565b5f602082840312156107e0576107df61037b565b5b5f82015167ffffffffffffffff8111156107fd576107fc61037f565b5b6108098482850161079e565b9150509291505056fe60806040526040518060400160405280600b81526020017f48656c6c6f20776f726c640000000000000000000000000000000000000000008152505f908161004791906102f6565b506040518060400160405280600981526020017f7265736574206f6b2100000000000000000000000000000000000000000000008152506003908161008c91906102f6565b5060405180602001604052805f815250600490816100aa91906102f6565b503480156100b6575f80fd5b506103c5565b5f81519050919050565b7f4e487b71000000000000000000000000000000000000000000000000000000005f52604160045260245ffd5b7f4e487b71000000000000000000000000000000000000000000000000000000005f52602260045260245ffd5b5f600282049050600182168061013757607f821691505b60208210810361014a576101496100f3565b5b50919050565b5f819050815f5260205f209050919050565b5f6020601f8301049050919050565b5f82821b905092915050565b5f600883026101ac7fffffffffffffffffffffffffffffffffffffffffffffffffffffffffffffffff82610171565b6101b68683610171565b95508019841693508086168417925050509392505050565b5f819050919050565b5f819050919050565b5f6101fa6101f56101f0846101ce565b6101d7565b6101ce565b9050919050565b5f819050919050565b610213836101e0565b61022761021f82610201565b84845461017d565b825550505050565b5f90565b61023b61022f565b61024681848461020a565b505050565b5b818110156102695761025e5f82610233565b60018101905061024c565b5050565b601f8211156102ae5761027f81610150565b61028884610162565b81016020851015610297578190505b6102ab6102a385610162565b83018261024b565b50505b505050565b5f82821c905092915050565b5f6102ce5f19846008026102b3565b1980831691505092915050565b5f6102e683836102bf565b9150826002028217905092915050565b6102ff826100bc565b67ffffffffffffffff811115610318576103176100c6565b5b6103228254610120565b61032d82828561026d565b5f60209050601f83116001811461035e575f841561034c578287015190505b61035685826102db565b8655506103bd565b601f19841661036c86610150565b5f5b828110156103935784890151825560018201915060208501945060208101905061036e565b868310156103b057848901516103ac601f8916826102bf565b8355505b6001600288020188555050505b505050505050565b610de5806103d25f395ff3fe608060405234801561000f575f80fd5b5060043610610060575f3560e01c8063256b40411461006457806327a03cd7146100945780638f5ce785146100b2578063ab12fc18146100e2578063b63d44a3146100fe578063dcad64671461011a575b5f80fd5b61007e600480360381019061007991906108b5565b61014a565b60405161008b919061095c565b60405180910390f35b61009c6101eb565b6040516100a9919061095c565b60405180910390f35b6100cc60048036038101906100c791906109af565b610282565b6040516100d9919061095c565b60405180910390f35b6100fc60048036038101906100f791906109da565b61042b565b005b610118600480360381019061011391906109da565b6104dd565b005b610134600480360381019061012f91906109af565b6105a5565b604051610141919061095c565b60405180910390f35b6060815f908161015a9190610c2e565b506003805461016890610a61565b80601f016020809104026020016040519081016040528092919081815260200182805461019490610a61565b80156101df5780601f106101b6576101008083540402835291602001916101df565b820191905f5260205f20905b8154815290600101906020018083116101c257829003601f168201915b50505050509050919050565b606061027d5f80546101fc90610a61565b80601f016020809104026020016040519081016040528092919081815260200182805461022890610a61565b80156102735780601f1061024a57610100808354040283529160200191610273565b820191905f5260205f20905b81548152906001019060200180831161025657829003601f168201915b505050505061073f565b905090565b60605f73ffffffffffffffffffffffffffffffffffffffff1660025f8481526020019081526020015f206002015f9054906101000a900473ffffffffffffffffffffffffffffffffffffffff1673ffffffffffffffffffffffffffffffffffffffff16036103815761037a5f80546102f990610a61565b80601f016020809104026020016040519081016040528092919081815260200182805461032590610a61565b80156103705780601f1061034757610100808354040283529160200191610370565b820191905f5260205f20905b81548152906001019060200180831161035357829003601f168201915b505050505061073f565b9050610426565b61042360025f8481526020019081526020015f205f0180546103a290610a61565b80601f01602080910402602001604051908101604052809291908181526020018280546103ce90610a61565b80156104195780601f106103f057610100808354040283529160200191610419565b820191905f5260205f20905b8154815290600101906020018083116103fc57829003601f168201915b505050505061073f565b90505b919050565b5f60405180606001604052808481526020018381526020013373ffffffffffffffffffffffffffffffffffffffff1681525090508060025f8481526020019081526020015f205f820151815f0190816104849190610c2e565b50602082015181600101556040820151816002015f6101000a81548173ffffffffffffffffffffffffffffffffffffffff021916908373ffffffffffffffffffffffffffffffffffffffff160217905550905050505050565b5f60405180606001604052808481526020018381526020013373ffffffffffffffffffffffffffffffffffffffff168152509050600181908060018154018082558091505060019003905f5260205f2090600302015f909190919091505f820151815f01908161054d9190610c2e565b50602082015181600101556040820151816002015f6101000a81548173ffffffffffffffffffffffffffffffffffffffff021916908373ffffffffffffffffffffffffffffffffffffffff1602179055505050505050565b60605f5b6001805490508110156106a65782600182815481106105cb576105ca610cfd565b5b905f5260205f209060030201600101540361069957610691600182815481106105f7576105f6610cfd565b5b905f5260205f2090600302015f01805461061090610a61565b80601f016020809104026020016040519081016040528092919081815260200182805461063c90610a61565b80156106875780601f1061065e57610100808354040283529160200191610687565b820191905f5260205f20905b81548152906001019060200180831161066a57829003601f168201915b505050505061073f565b91505061073a565b80806001019150506105a9565b506107375f80546106b690610a61565b80601f01602080910402602001604051908101604052809291908181526020018280546106e290610a61565b801561072d5780601f106107045761010080835404028352916020019161072d565b820191905f5260205f20905b81548152906001019060200180831161071057829003601f168201915b505050505061073f565b90505b919050565b6060816040516020016107529190610d8a565b6040516020818303038152906040529050919050565b5f604051905090565b5f80fd5b5f80fd5b5f80fd5b5f80fd5b5f601f19601f8301169050919050565b7f4e487b71000000000000000000000000000000000000000000000000000000005f52604160045260245ffd5b6107c782610781565b810181811067ffffffffffffffff821117156107e6576107e5610791565b5b80604052505050565b5f6107f8610768565b905061080482826107be565b919050565b5f67ffffffffffffffff82111561082357610822610791565b5b61082c82610781565b9050602081019050919050565b828183375f83830152505050565b5f61085961085484610809565b6107ef565b9050828152602081018484840111156108755761087461077d565b5b610880848285610839565b509392505050565b5f82601f83011261089c5761089b610779565b5b81356108ac848260208601610847565b91505092915050565b5f602082840312156108ca576108c9610771565b5b5f82013567ffffffffffffffff8111156108e7576108e6610775565b5b6108f384828501610888565b91505092915050565b5f81519050919050565b5f82825260208201905092915050565b8281835e5f83830152505050565b5f61092e826108fc565b6109388185610906565b9350610948818560208601610916565b61095181610781565b840191505092915050565b5f6020820190508181035f8301526109748184610924565b905092915050565b5f819050919050565b61098e8161097c565b8114610998575f80fd5b50565b5f813590506109a981610985565b92915050565b5f602082840312156109c4576109c3610771565b5b5f6109d18482850161099b565b91505092915050565b5f80604083850312156109f0576109ef610771565b5b5f83013567ffffffffffffffff811115610a0d57610a0c610775565b5b610a1985828601610888565b9250506020610a2a8582860161099b565b9150509250929050565b7f4e487b71000000000000000000000000000000000000000000000000000000005f52602260045260245ffd5b5f6002820490506001821680610a7857607f821691505b602082108103610a8b57610a8a610a34565b5b50919050565b5f819050815f5260205f209050919050565b5f6020601f8301049050919050565b5f82821b905092915050565b5f60088302610aed7fffffffffffffffffffffffffffffffffffffffffffffffffffffffffffffffff82610ab2565b610af78683610ab2565b95508019841693508086168417925050509392505050565b5f819050919050565b5f610b32610b2d610b288461097c565b610b0f565b61097c565b9050919050565b5f819050919050565b610b4b83610b18565b610b5f610b5782610b39565b848454610abe565b825550505050565b5f90565b610b73610b67565b610b7e818484610b42565b505050565b5b81811015610ba157610b965f82610b6b565b600181019050610b84565b5050565b601f821115610be657610bb781610a91565b610bc084610aa3565b81016020851015610bcf578190505b610be3610bdb85610aa3565b830182610b83565b50505b505050565b5f82821c905092915050565b5f610c065f1984600802610beb565b1980831691505092915050565b5f610c1e8383610bf7565b9150826002028217905092915050565b610c37826108fc565b67ffffffffffffffff811115610c5057610c4f610791565b5b610c5a8254610a61565b610c65828285610ba5565b5f60209050601f831160018114610c96575f8415610c84578287015190505b610c8e8582610c13565b865550610cf5565b601f198416610ca486610a91565b5f5b82811015610ccb57848901518255600182019150602085019450602081019050610ca6565b86831015610ce85784890151610ce4601f891682610bf7565b8355505b6001600288020188555050505b505050505050565b7f4e487b71000000000000000000000000000000000000000000000000000000005f52603260045260245ffd5b5f81905092915050565b5f610d3e826108fc565b610d488185610d2a565b9350610d58818560208601610916565b80840191505092915050565b7f09746869732069732061646420737472696e6721000000000000000000000000815250565b5f610d958284610d34565b9150610da082610d64565b6014820191508190509291505056fea26469706673582212201516b84e69faf4e5488570fac10ef3bc04399508c721fadc1d9f4e87e077d49564736f6c634300081a0033a264697066735822122047073626820b383add3a4b07414dbd086b6bd68d34477b0b3fb8c27f865303eb64736f6c634300081a0033",
					"opcodes": "PUSH1 0x80 PUSH1 0x40 MSTORE CALLVALUE DUP1 ISZERO PUSH1 0xE JUMPI PUSH0 DUP1 REVERT JUMPDEST POP PUSH2 0x19FF DUP1 PUSH2 0x1C PUSH0 CODECOPY PUSH0 RETURN INVALID PUSH1 0x80 PUSH1 0x40 MSTORE CALLVALUE DUP1 ISZERO PUSH2 0xF JUMPI PUSH0 DUP1 REVERT JUMPDEST POP PUSH1 0x4 CALLDATASIZE LT PUSH2 0x4A JUMPI PUSH0 CALLDATALOAD PUSH1 0xE0 SHR DUP1 PUSH4 0x16324D32 EQ PUSH2 0x4E JUMPI DUP1 PUSH4 0x1A185053 EQ PUSH2 0x58 JUMPI DUP1 PUSH4 0xBDCEC25D EQ PUSH2 0x74 JUMPI DUP1 PUSH4 0xFA00D489 EQ PUSH2 0xA4 JUMPI JUMPDEST PUSH0 DUP1 REVERT JUMPDEST PUSH2 0x56 PUSH2 0xD4 JUMP JUMPDEST STOP JUMPDEST PUSH2 0x72 PUSH1 0x4 DUP1 CALLDATASIZE SUB DUP2 ADD SWAP1 PUSH2 0x6D SWAP2 SWAP1 PUSH2 0x4F2 JUMP JUMPDEST PUSH2 0x1B9 JUMP JUMPDEST STOP JUMPDEST PUSH2 0x8E PUSH1 0x4 DUP1 CALLDATASIZE SUB DUP2 ADD SWAP1 PUSH2 0x89 SWAP2 SWAP1 PUSH2 0x55E JUMP JUMPDEST PUSH2 0x261 JUMP JUMPDEST PUSH1 0x40 MLOAD PUSH2 0x9B SWAP2 SWAP1 PUSH2 0x5FC JUMP JUMPDEST PUSH1 0x40 MLOAD DUP1 SWAP2 SUB SWAP1 RETURN JUMPDEST PUSH2 0xBE PUSH1 0x4 DUP1 CALLDATASIZE SUB DUP2 ADD SWAP1 PUSH2 0xB9 SWAP2 SWAP1 PUSH2 0x61C JUMP JUMPDEST PUSH2 0x321 JUMP JUMPDEST PUSH1 0x40 MLOAD PUSH2 0xCB SWAP2 SWAP1 PUSH2 0x6C1 JUMP JUMPDEST PUSH1 0x40 MLOAD DUP1 SWAP2 SUB SWAP1 RETURN JUMPDEST PUSH1 0x40 MLOAD PUSH2 0xE0 SWAP1 PUSH2 0x365 JUMP JUMPDEST PUSH1 0x40 MLOAD DUP1 SWAP2 SUB SWAP1 PUSH0 CREATE DUP1 ISZERO DUP1 ISZERO PUSH2 0xF9 JUMPI RETURNDATASIZE PUSH0 DUP1 RETURNDATACOPY RETURNDATASIZE PUSH0 REVERT JUMPDEST POP PUSH0 DUP1 PUSH2 0x100 EXP DUP2 SLOAD DUP2 PUSH20 0xFFFFFFFFFFFFFFFFFFFFFFFFFFFFFFFFFFFFFFFF MUL NOT AND SWAP1 DUP4 PUSH20 0xFFFFFFFFFFFFFFFFFFFFFFFFFFFFFFFFFFFFFFFF AND MUL OR SWAP1 SSTORE POP PUSH1 0x1 PUSH0 DUP1 SLOAD SWAP1 PUSH2 0x100 EXP SWAP1 DIV PUSH20 0xFFFFFFFFFFFFFFFFFFFFFFFFFFFFFFFFFFFFFFFF AND SWAP1 DUP1 PUSH1 0x1 DUP2 SLOAD ADD DUP1 DUP3 SSTORE DUP1 SWAP2 POP POP PUSH1 0x1 SWAP1 SUB SWAP1 PUSH0 MSTORE PUSH1 0x20 PUSH0 KECCAK256 ADD PUSH0 SWAP1 SWAP2 SWAP1 SWAP2 SWAP1 SWAP2 PUSH2 0x100 EXP DUP2 SLOAD DUP2 PUSH20 0xFFFFFFFFFFFFFFFFFFFFFFFFFFFFFFFFFFFFFFFF MUL NOT AND SWAP1 DUP4 PUSH20 0xFFFFFFFFFFFFFFFFFFFFFFFFFFFFFFFFFFFFFFFF AND MUL OR SWAP1 SSTORE POP JUMP JUMPDEST PUSH1 0x1 DUP4 DUP2 SLOAD DUP2 LT PUSH2 0x1CD JUMPI PUSH2 0x1CC PUSH2 0x6DA JUMP JUMPDEST JUMPDEST SWAP1 PUSH0 MSTORE PUSH1 0x20 PUSH0 KECCAK256 ADD PUSH0 SWAP1 SLOAD SWAP1 PUSH2 0x100 EXP SWAP1 DIV PUSH20 0xFFFFFFFFFFFFFFFFFFFFFFFFFFFFFFFFFFFFFFFF AND PUSH20 0xFFFFFFFFFFFFFFFFFFFFFFFFFFFFFFFFFFFFFFFF AND PUSH4 0xAB12FC18 DUP4 DUP4 PUSH1 0x40 MLOAD DUP4 PUSH4 0xFFFFFFFF AND PUSH1 0xE0 SHL DUP2 MSTORE PUSH1 0x4 ADD PUSH2 0x22F SWAP3 SWAP2 SWAP1 PUSH2 0x716 JUMP JUMPDEST PUSH0 PUSH1 0x40 MLOAD DUP1 DUP4 SUB DUP2 PUSH0 DUP8 DUP1 EXTCODESIZE ISZERO DUP1 ISZERO PUSH2 0x246 JUMPI PUSH0 DUP1 REVERT JUMPDEST POP GAS CALL ISZERO DUP1 ISZERO PUSH2 0x258 JUMPI RETURNDATASIZE PUSH0 DUP1 RETURNDATACOPY RETURNDATASIZE PUSH0 REVERT JUMPDEST POP POP POP POP POP POP POP JUMP JUMPDEST PUSH1 0x60 PUSH1 0x1 DUP4 DUP2 SLOAD DUP2 LT PUSH2 0x277 JUMPI PUSH2 0x276 PUSH2 0x6DA JUMP JUMPDEST JUMPDEST SWAP1 PUSH0 MSTORE PUSH1 0x20 PUSH0 KECCAK256 ADD PUSH0 SWAP1 SLOAD SWAP1 PUSH2 0x100 EXP SWAP1 DIV PUSH20 0xFFFFFFFFFFFFFFFFFFFFFFFFFFFFFFFFFFFFFFFF AND PUSH20 0xFFFFFFFFFFFFFFFFFFFFFFFFFFFFFFFFFFFFFFFF AND PUSH4 0x8F5CE785 DUP4 PUSH1 0x40 MLOAD DUP3 PUSH4 0xFFFFFFFF AND PUSH1 0xE0 SHL DUP2 MSTORE PUSH1 0x4 ADD PUSH2 0x2D7 SWAP2 SWAP1 PUSH2 0x744 JUMP JUMPDEST PUSH0 PUSH1 0x40 MLOAD DUP1 DUP4 SUB DUP2 DUP7 GAS STATICCALL ISZERO DUP1 ISZERO PUSH2 0x2F1 JUMPI RETURNDATASIZE PUSH0 DUP1 RETURNDATACOPY RETURNDATASIZE PUSH0 REVERT JUMPDEST POP POP POP POP PUSH1 0x40 MLOAD RETURNDATASIZE PUSH0 DUP3 RETURNDATACOPY RETURNDATASIZE PUSH1 0x1F NOT PUSH1 0x1F DUP3 ADD AND DUP3 ADD DUP1 PUSH1 0x40 MSTORE POP DUP2 ADD SWAP1 PUSH2 0x319 SWAP2 SWAP1 PUSH2 0x7CB JUMP JUMPDEST SWAP1 POP SWAP3 SWAP2 POP POP JUMP JUMPDEST PUSH0 PUSH1 0x1 DUP3 DUP2 SLOAD DUP2 LT PUSH2 0x336 JUMPI PUSH2 0x335 PUSH2 0x6DA JUMP JUMPDEST JUMPDEST SWAP1 PUSH0 MSTORE PUSH1 0x20 PUSH0 KECCAK256 ADD PUSH0 SWAP1 SLOAD SWAP1 PUSH2 0x100 EXP SWAP1 DIV PUSH20 0xFFFFFFFFFFFFFFFFFFFFFFFFFFFFFFFFFFFFFFFF AND SWAP1 POP SWAP2 SWAP1 POP JUMP JUMPDEST PUSH2 0x11B7 DUP1 PUSH2 0x813 DUP4 CODECOPY ADD SWAP1 JUMP JUMPDEST PUSH0 PUSH1 0x40 MLOAD SWAP1 POP SWAP1 JUMP JUMPDEST PUSH0 DUP1 REVERT JUMPDEST PUSH0 DUP1 REVERT JUMPDEST PUSH0 DUP2 SWAP1 POP SWAP2 SWAP1 POP JUMP JUMPDEST PUSH2 0x395 DUP2 PUSH2 0x383 JUMP JUMPDEST DUP2 EQ PUSH2 0x39F JUMPI PUSH0 DUP1 REVERT JUMPDEST POP JUMP JUMPDEST PUSH0 DUP2 CALLDATALOAD SWAP1 POP PUSH2 0x3B0 DUP2 PUSH2 0x38C JUMP JUMPDEST SWAP3 SWAP2 POP POP JUMP JUMPDEST PUSH0 DUP1 REVERT JUMPDEST PUSH0 DUP1 REVERT JUMPDEST PUSH0 PUSH1 0x1F NOT PUSH1 0x1F DUP4 ADD AND SWAP1 POP SWAP2 SWAP1 POP JUMP JUMPDEST PUSH32 0x4E487B7100000000000000000000000000000000000000000000000000000000 PUSH0 MSTORE PUSH1 0x41 PUSH1 0x4 MSTORE PUSH1 0x24 PUSH0 REVERT JUMPDEST PUSH2 0x404 DUP3 PUSH2 0x3BE JUMP JUMPDEST DUP2 ADD DUP2 DUP2 LT PUSH8 0xFFFFFFFFFFFFFFFF DUP3 GT OR ISZERO PUSH2 0x423 JUMPI PUSH2 0x422 PUSH2 0x3CE JUMP JUMPDEST JUMPDEST DUP1 PUSH1 0x40 MSTORE POP POP POP JUMP JUMPDEST PUSH0 PUSH2 0x435 PUSH2 0x372 JUMP JUMPDEST SWAP1 POP PUSH2 0x441 DUP3 DUP3 PUSH2 0x3FB JUMP JUMPDEST SWAP2 SWAP1 POP JUMP JUMPDEST PUSH0 PUSH8 0xFFFFFFFFFFFFFFFF DUP3 GT ISZERO PUSH2 0x460 JUMPI PUSH2 0x45F PUSH2 0x3CE JUMP JUMPDEST JUMPDEST PUSH2 0x469 DUP3 PUSH2 0x3BE JUMP JUMPDEST SWAP1 POP PUSH1 0x20 DUP2 ADD SWAP1 POP SWAP2 SWAP1 POP JUMP JUMPDEST DUP3 DUP2 DUP4 CALLDATACOPY PUSH0 DUP4 DUP4 ADD MSTORE POP POP POP JUMP JUMPDEST PUSH0 PUSH2 0x496 PUSH2 0x491 DUP5 PUSH2 0x446 JUMP JUMPDEST PUSH2 0x42C JUMP JUMPDEST SWAP1 POP DUP3 DUP2 MSTORE PUSH1 0x20 DUP2 ADD DUP5 DUP5 DUP5 ADD GT ISZERO PUSH2 0x4B2 JUMPI PUSH2 0x4B1 PUSH2 0x3BA JUMP JUMPDEST JUMPDEST PUSH2 0x4BD DUP5 DUP3 DUP6 PUSH2 0x476 JUMP JUMPDEST POP SWAP4 SWAP3 POP POP POP JUMP JUMPDEST PUSH0 DUP3 PUSH1 0x1F DUP4 ADD SLT PUSH2 0x4D9 JUMPI PUSH2 0x4D8 PUSH2 0x3B6 JUMP JUMPDEST JUMPDEST DUP2 CALLDATALOAD PUSH2 0x4E9 DUP5 DUP3 PUSH1 0x20 DUP7 ADD PUSH2 0x484 JUMP JUMPDEST SWAP2 POP POP SWAP3 SWAP2 POP POP JUMP JUMPDEST PUSH0 DUP1 PUSH0 PUSH1 0x60 DUP5 DUP7 SUB SLT ISZERO PUSH2 0x509 JUMPI PUSH2 0x508 PUSH2 0x37B JUMP JUMPDEST JUMPDEST PUSH0 PUSH2 0x516 DUP7 DUP3 DUP8 ADD PUSH2 0x3A2 JUMP JUMPDEST SWAP4 POP POP PUSH1 0x20 DUP5 ADD CALLDATALOAD PUSH8 0xFFFFFFFFFFFFFFFF DUP2 GT ISZERO PUSH2 0x537 JUMPI PUSH2 0x536 PUSH2 0x37F JUMP JUMPDEST JUMPDEST PUSH2 0x543 DUP7 DUP3 DUP8 ADD PUSH2 0x4C5 JUMP JUMPDEST SWAP3 POP POP PUSH1 0x40 PUSH2 0x554 DUP7 DUP3 DUP8 ADD PUSH2 0x3A2 JUMP JUMPDEST SWAP2 POP POP SWAP3 POP SWAP3 POP SWAP3 JUMP JUMPDEST PUSH0 DUP1 PUSH1 0x40 DUP4 DUP6 SUB SLT ISZERO PUSH2 0x574 JUMPI PUSH2 0x573 PUSH2 0x37B JUMP JUMPDEST JUMPDEST PUSH0 PUSH2 0x581 DUP6 DUP3 DUP7 ADD PUSH2 0x3A2 JUMP JUMPDEST SWAP3 POP POP PUSH1 0x20 PUSH2 0x592 DUP6 DUP3 DUP7 ADD PUSH2 0x3A2 JUMP JUMPDEST SWAP2 POP POP SWAP3 POP SWAP3 SWAP1 POP JUMP JUMPDEST PUSH0 DUP2 MLOAD SWAP1 POP SWAP2 SWAP1 POP JUMP JUMPDEST PUSH0 DUP3 DUP3 MSTORE PUSH1 0x20 DUP3 ADD SWAP1 POP SWAP3 SWAP2 POP POP JUMP JUMPDEST DUP3 DUP2 DUP4 MCOPY PUSH0 DUP4 DUP4 ADD MSTORE POP POP POP JUMP JUMPDEST PUSH0 PUSH2 0x5CE DUP3 PUSH2 0x59C JUMP JUMPDEST PUSH2 0x5D8 DUP2 DUP6 PUSH2 0x5A6 JUMP JUMPDEST SWAP4 POP PUSH2 0x5E8 DUP2 DUP6 PUSH1 0x20 DUP7 ADD PUSH2 0x5B6 JUMP JUMPDEST PUSH2 0x5F1 DUP2 PUSH2 0x3BE JUMP JUMPDEST DUP5 ADD SWAP2 POP POP SWAP3 SWAP2 POP POP JUMP JUMPDEST PUSH0 PUSH1 0x20 DUP3 ADD SWAP1 POP DUP2 DUP2 SUB PUSH0 DUP4 ADD MSTORE PUSH2 0x614 DUP2 DUP5 PUSH2 0x5C4 JUMP JUMPDEST SWAP1 POP SWAP3 SWAP2 POP POP JUMP JUMPDEST PUSH0 PUSH1 0x20 DUP3 DUP5 SUB SLT ISZERO PUSH2 0x631 JUMPI PUSH2 0x630 PUSH2 0x37B JUMP JUMPDEST JUMPDEST PUSH0 PUSH2 0x63E DUP5 DUP3 DUP6 ADD PUSH2 0x3A2 JUMP JUMPDEST SWAP2 POP POP SWAP3 SWAP2 POP POP JUMP JUMPDEST PUSH0 PUSH20 0xFFFFFFFFFFFFFFFFFFFFFFFFFFFFFFFFFFFFFFFF DUP3 AND SWAP1 POP SWAP2 SWAP1 POP JUMP JUMPDEST PUSH0 DUP2 SWAP1 POP SWAP2 SWAP1 POP JUMP JUMPDEST PUSH0 PUSH2 0x689 PUSH2 0x684 PUSH2 0x67F DUP5 PUSH2 0x647 JUMP JUMPDEST PUSH2 0x666 JUMP JUMPDEST PUSH2 0x647 JUMP JUMPDEST SWAP1 POP SWAP2 SWAP1 POP JUMP JUMPDEST PUSH0 PUSH2 0x69A DUP3 PUSH2 0x66F JUMP JUMPDEST SWAP1 POP SWAP2 SWAP1 POP JUMP JUMPDEST PUSH0 PUSH2 0x6AB DUP3 PUSH2 0x690 JUMP JUMPDEST SWAP1 POP SWAP2 SWAP1 POP JUMP JUMPDEST PUSH2 0x6BB DUP2 PUSH2 0x6A1 JUMP JUMPDEST DUP3 MSTORE POP POP JUMP JUMPDEST PUSH0 PUSH1 0x20 DUP3 ADD SWAP1 POP PUSH2 0x6D4 PUSH0 DUP4 ADD DUP5 PUSH2 0x6B2 JUMP JUMPDEST SWAP3 SWAP2 POP POP JUMP JUMPDEST PUSH32 0x4E487B7100000000000000000000000000000000000000000000000000000000 PUSH0 MSTORE PUSH1 0x32 PUSH1 0x4 MSTORE PUSH1 0x24 PUSH0 REVERT JUMPDEST PUSH2 0x710 DUP2 PUSH2 0x383 JUMP JUMPDEST DUP3 MSTORE POP POP JUMP JUMPDEST PUSH0 PUSH1 0x40 DUP3 ADD SWAP1 POP DUP2 DUP2 SUB PUSH0 DUP4 ADD MSTORE PUSH2 0x72E DUP2 DUP6 PUSH2 0x5C4 JUMP JUMPDEST SWAP1 POP PUSH2 0x73D PUSH1 0x20 DUP4 ADD DUP5 PUSH2 0x707 JUMP JUMPDEST SWAP4 SWAP3 POP POP POP JUMP JUMPDEST PUSH0 PUSH1 0x20 DUP3 ADD SWAP1 POP PUSH2 0x757 PUSH0 DUP4 ADD DUP5 PUSH2 0x707 JUMP JUMPDEST SWAP3 SWAP2 POP POP JUMP JUMPDEST PUSH0 PUSH2 0x76F PUSH2 0x76A DUP5 PUSH2 0x446 JUMP JUMPDEST PUSH2 0x42C JUMP JUMPDEST SWAP1 POP DUP3 DUP2 MSTORE PUSH1 0x20 DUP2 ADD DUP5 DUP5 DUP5 ADD GT ISZERO PUSH2 0x78B JUMPI PUSH2 0x78A PUSH2 0x3BA JUMP JUMPDEST JUMPDEST PUSH2 0x796 DUP5 DUP3 DUP6 PUSH2 0x5B6 JUMP JUMPDEST POP SWAP4 SWAP3 POP POP POP JUMP JUMPDEST PUSH0 DUP3 PUSH1 0x1F DUP4 ADD SLT PUSH2 0x7B2 JUMPI PUSH2 0x7B1 PUSH2 0x3B6 JUMP JUMPDEST JUMPDEST DUP2 MLOAD PUSH2 0x7C2 DUP5 DUP3 PUSH1 0x20 DUP7 ADD PUSH2 0x75D JUMP JUMPDEST SWAP2 POP POP SWAP3 SWAP2 POP POP JUMP JUMPDEST PUSH0 PUSH1 0x20 DUP3 DUP5 SUB SLT ISZERO PUSH2 0x7E0 JUMPI PUSH2 0x7DF PUSH2 0x37B JUMP JUMPDEST JUMPDEST PUSH0 DUP3 ADD MLOAD PUSH8 0xFFFFFFFFFFFFFFFF DUP2 GT ISZERO PUSH2 0x7FD JUMPI PUSH2 0x7FC PUSH2 0x37F JUMP JUMPDEST JUMPDEST PUSH2 0x809 DUP5 DUP3 DUP6 ADD PUSH2 0x79E JUMP JUMPDEST SWAP2 POP POP SWAP3 SWAP2 POP POP JUMP INVALID PUSH1 0x80 PUSH1 0x40 MSTORE PUSH1 0x40 MLOAD DUP1 PUSH1 0x40 ADD PUSH1 0x40 MSTORE DUP1 PUSH1 0xB DUP2 MSTORE PUSH1 0x20 ADD PUSH32 0x48656C6C6F20776F726C64000000000000000000000000000000000000000000 DUP2 MSTORE POP PUSH0 SWAP1 DUP2 PUSH2 0x47 SWAP2 SWAP1 PUSH2 0x2F6 JUMP JUMPDEST POP PUSH1 0x40 MLOAD DUP1 PUSH1 0x40 ADD PUSH1 0x40 MSTORE DUP1 PUSH1 0x9 DUP2 MSTORE PUSH1 0x20 ADD PUSH32 0x7265736574206F6B210000000000000000000000000000000000000000000000 DUP2 MSTORE POP PUSH1 0x3 SWAP1 DUP2 PUSH2 0x8C SWAP2 SWAP1 PUSH2 0x2F6 JUMP JUMPDEST POP PUSH1 0x40 MLOAD DUP1 PUSH1 0x20 ADD PUSH1 0x40 MSTORE DUP1 PUSH0 DUP2 MSTORE POP PUSH1 0x4 SWAP1 DUP2 PUSH2 0xAA SWAP2 SWAP1 PUSH2 0x2F6 JUMP JUMPDEST POP CALLVALUE DUP1 ISZERO PUSH2 0xB6 JUMPI PUSH0 DUP1 REVERT JUMPDEST POP PUSH2 0x3C5 JUMP JUMPDEST PUSH0 DUP2 MLOAD SWAP1 POP SWAP2 SWAP1 POP JUMP JUMPDEST PUSH32 0x4E487B7100000000000000000000000000000000000000000000000000000000 PUSH0 MSTORE PUSH1 0x41 PUSH1 0x4 MSTORE PUSH1 0x24 PUSH0 REVERT JUMPDEST PUSH32 0x4E487B7100000000000000000000000000000000000000000000000000000000 PUSH0 MSTORE PUSH1 0x22 PUSH1 0x4 MSTORE PUSH1 0x24 PUSH0 REVERT JUMPDEST PUSH0 PUSH1 0x2 DUP3 DIV SWAP1 POP PUSH1 0x1 DUP3 AND DUP1 PUSH2 0x137 JUMPI PUSH1 0x7F DUP3 AND SWAP2 POP JUMPDEST PUSH1 0x20 DUP3 LT DUP2 SUB PUSH2 0x14A JUMPI PUSH2 0x149 PUSH2 0xF3 JUMP JUMPDEST JUMPDEST POP SWAP2 SWAP1 POP JUMP JUMPDEST PUSH0 DUP2 SWAP1 POP DUP2 PUSH0 MSTORE PUSH1 0x20 PUSH0 KECCAK256 SWAP1 POP SWAP2 SWAP1 POP JUMP JUMPDEST PUSH0 PUSH1 0x20 PUSH1 0x1F DUP4 ADD DIV SWAP1 POP SWAP2 SWAP1 POP JUMP JUMPDEST PUSH0 DUP3 DUP3 SHL SWAP1 POP SWAP3 SWAP2 POP POP JUMP JUMPDEST PUSH0 PUSH1 0x8 DUP4 MUL PUSH2 0x1AC PUSH32 0xFFFFFFFFFFFFFFFFFFFFFFFFFFFFFFFFFFFFFFFFFFFFFFFFFFFFFFFFFFFFFFFF DUP3 PUSH2 0x171 JUMP JUMPDEST PUSH2 0x1B6 DUP7 DUP4 PUSH2 0x171 JUMP JUMPDEST SWAP6 POP DUP1 NOT DUP5 AND SWAP4 POP DUP1 DUP7 AND DUP5 OR SWAP3 POP POP POP SWAP4 SWAP3 POP POP POP JUMP JUMPDEST PUSH0 DUP2 SWAP1 POP SWAP2 SWAP1 POP JUMP JUMPDEST PUSH0 DUP2 SWAP1 POP SWAP2 SWAP1 POP JUMP JUMPDEST PUSH0 PUSH2 0x1FA PUSH2 0x1F5 PUSH2 0x1F0 DUP5 PUSH2 0x1CE JUMP JUMPDEST PUSH2 0x1D7 JUMP JUMPDEST PUSH2 0x1CE JUMP JUMPDEST SWAP1 POP SWAP2 SWAP1 POP JUMP JUMPDEST PUSH0 DUP2 SWAP1 POP SWAP2 SWAP1 POP JUMP JUMPDEST PUSH2 0x213 DUP4 PUSH2 0x1E0 JUMP JUMPDEST PUSH2 0x227 PUSH2 0x21F DUP3 PUSH2 0x201 JUMP JUMPDEST DUP5 DUP5 SLOAD PUSH2 0x17D JUMP JUMPDEST DUP3 SSTORE POP POP POP POP JUMP JUMPDEST PUSH0 SWAP1 JUMP JUMPDEST PUSH2 0x23B PUSH2 0x22F JUMP JUMPDEST PUSH2 0x246 DUP2 DUP5 DUP5 PUSH2 0x20A JUMP JUMPDEST POP POP POP JUMP JUMPDEST JUMPDEST DUP2 DUP2 LT ISZERO PUSH2 0x269 JUMPI PUSH2 0x25E PUSH0 DUP3 PUSH2 0x233 JUMP JUMPDEST PUSH1 0x1 DUP2 ADD SWAP1 POP PUSH2 0x24C JUMP JUMPDEST POP POP JUMP JUMPDEST PUSH1 0x1F DUP3 GT ISZERO PUSH2 0x2AE JUMPI PUSH2 0x27F DUP2 PUSH2 0x150 JUMP JUMPDEST PUSH2 0x288 DUP5 PUSH2 0x162 JUMP JUMPDEST DUP2 ADD PUSH1 0x20 DUP6 LT ISZERO PUSH2 0x297 JUMPI DUP2 SWAP1 POP JUMPDEST PUSH2 0x2AB PUSH2 0x2A3 DUP6 PUSH2 0x162 JUMP JUMPDEST DUP4 ADD DUP3 PUSH2 0x24B JUMP JUMPDEST POP POP JUMPDEST POP POP POP JUMP JUMPDEST PUSH0 DUP3 DUP3 SHR SWAP1 POP SWAP3 SWAP2 POP POP JUMP JUMPDEST PUSH0 PUSH2 0x2CE PUSH0 NOT DUP5 PUSH1 0x8 MUL PUSH2 0x2B3 JUMP JUMPDEST NOT DUP1 DUP4 AND SWAP2 POP POP SWAP3 SWAP2 POP POP JUMP JUMPDEST PUSH0 PUSH2 0x2E6 DUP4 DUP4 PUSH2 0x2BF JUMP JUMPDEST SWAP2 POP DUP3 PUSH1 0x2 MUL DUP3 OR SWAP1 POP SWAP3 SWAP2 POP POP JUMP JUMPDEST PUSH2 0x2FF DUP3 PUSH2 0xBC JUMP JUMPDEST PUSH8 0xFFFFFFFFFFFFFFFF DUP2 GT ISZERO PUSH2 0x318 JUMPI PUSH2 0x317 PUSH2 0xC6 JUMP JUMPDEST JUMPDEST PUSH2 0x322 DUP3 SLOAD PUSH2 0x120 JUMP JUMPDEST PUSH2 0x32D DUP3 DUP3 DUP6 PUSH2 0x26D JUMP JUMPDEST PUSH0 PUSH1 0x20 SWAP1 POP PUSH1 0x1F DUP4 GT PUSH1 0x1 DUP2 EQ PUSH2 0x35E JUMPI PUSH0 DUP5 ISZERO PUSH2 0x34C JUMPI DUP3 DUP8 ADD MLOAD SWAP1 POP JUMPDEST PUSH2 0x356 DUP6 DUP3 PUSH2 0x2DB JUMP JUMPDEST DUP7 SSTORE POP PUSH2 0x3BD JUMP JUMPDEST PUSH1 0x1F NOT DUP5 AND PUSH2 0x36C DUP7 PUSH2 0x150 JUMP JUMPDEST PUSH0 JUMPDEST DUP3 DUP2 LT ISZERO PUSH2 0x393 JUMPI DUP5 DUP10 ADD MLOAD DUP3 SSTORE PUSH1 0x1 DUP3 ADD SWAP2 POP PUSH1 0x20 DUP6 ADD SWAP5 POP PUSH1 0x20 DUP2 ADD SWAP1 POP PUSH2 0x36E JUMP JUMPDEST DUP7 DUP4 LT ISZERO PUSH2 0x3B0 JUMPI DUP5 DUP10 ADD MLOAD PUSH2 0x3AC PUSH1 0x1F DUP10 AND DUP3 PUSH2 0x2BF JUMP JUMPDEST DUP4 SSTORE POP JUMPDEST PUSH1 0x1 PUSH1 0x2 DUP9 MUL ADD DUP9 SSTORE POP POP POP JUMPDEST POP POP POP POP POP POP JUMP JUMPDEST PUSH2 0xDE5 DUP1 PUSH2 0x3D2 PUSH0 CODECOPY PUSH0 RETURN INVALID PUSH1 0x80 PUSH1 0x40 MSTORE CALLVALUE DUP1 ISZERO PUSH2 0xF JUMPI PUSH0 DUP1 REVERT JUMPDEST POP PUSH1 0x4 CALLDATASIZE LT PUSH2 0x60 JUMPI PUSH0 CALLDATALOAD PUSH1 0xE0 SHR DUP1 PUSH4 0x256B4041 EQ PUSH2 0x64 JUMPI DUP1 PUSH4 0x27A03CD7 EQ PUSH2 0x94 JUMPI DUP1 PUSH4 0x8F5CE785 EQ PUSH2 0xB2 JUMPI DUP1 PUSH4 0xAB12FC18 EQ PUSH2 0xE2 JUMPI DUP1 PUSH4 0xB63D44A3 EQ PUSH2 0xFE JUMPI DUP1 PUSH4 0xDCAD6467 EQ PUSH2 0x11A JUMPI JUMPDEST PUSH0 DUP1 REVERT JUMPDEST PUSH2 0x7E PUSH1 0x4 DUP1 CALLDATASIZE SUB DUP2 ADD SWAP1 PUSH2 0x79 SWAP2 SWAP1 PUSH2 0x8B5 JUMP JUMPDEST PUSH2 0x14A JUMP JUMPDEST PUSH1 0x40 MLOAD PUSH2 0x8B SWAP2 SWAP1 PUSH2 0x95C JUMP JUMPDEST PUSH1 0x40 MLOAD DUP1 SWAP2 SUB SWAP1 RETURN JUMPDEST PUSH2 0x9C PUSH2 0x1EB JUMP JUMPDEST PUSH1 0x40 MLOAD PUSH2 0xA9 SWAP2 SWAP1 PUSH2 0x95C JUMP JUMPDEST PUSH1 0x40 MLOAD DUP1 SWAP2 SUB SWAP1 RETURN JUMPDEST PUSH2 0xCC PUSH1 0x4 DUP1 CALLDATASIZE SUB DUP2 ADD SWAP1 PUSH2 0xC7 SWAP2 SWAP1 PUSH2 0x9AF JUMP JUMPDEST PUSH2 0x282 JUMP JUMPDEST PUSH1 0x40 MLOAD PUSH2 0xD9 SWAP2 SWAP1 PUSH2 0x95C JUMP JUMPDEST PUSH1 0x40 MLOAD DUP1 SWAP2 SUB SWAP1 RETURN JUMPDEST PUSH2 0xFC PUSH1 0x4 DUP1 CALLDATASIZE SUB DUP2 ADD SWAP1 PUSH2 0xF7 SWAP2 SWAP1 PUSH2 0x9DA JUMP JUMPDEST PUSH2 0x42B JUMP JUMPDEST STOP JUMPDEST PUSH2 0x118 PUSH1 0x4 DUP1 CALLDATASIZE SUB DUP2 ADD SWAP1 PUSH2 0x113 SWAP2 SWAP1 PUSH2 0x9DA JUMP JUMPDEST PUSH2 0x4DD JUMP JUMPDEST STOP JUMPDEST PUSH2 0x134 PUSH1 0x4 DUP1 CALLDATASIZE SUB DUP2 ADD SWAP1 PUSH2 0x12F SWAP2 SWAP1 PUSH2 0x9AF JUMP JUMPDEST PUSH2 0x5A5 JUMP JUMPDEST PUSH1 0x40 MLOAD PUSH2 0x141 SWAP2 SWAP1 PUSH2 0x95C JUMP JUMPDEST PUSH1 0x40 MLOAD DUP1 SWAP2 SUB SWAP1 RETURN JUMPDEST PUSH1 0x60 DUP2 PUSH0 SWAP1 DUP2 PUSH2 0x15A SWAP2 SWAP1 PUSH2 0xC2E JUMP JUMPDEST POP PUSH1 0x3 DUP1 SLOAD PUSH2 0x168 SWAP1 PUSH2 0xA61 JUMP JUMPDEST DUP1 PUSH1 0x1F ADD PUSH1 0x20 DUP1 SWAP2 DIV MUL PUSH1 0x20 ADD PUSH1 0x40 MLOAD SWAP1 DUP2 ADD PUSH1 0x40 MSTORE DUP1 SWAP3 SWAP2 SWAP1 DUP2 DUP2 MSTORE PUSH1 0x20 ADD DUP3 DUP1 SLOAD PUSH2 0x194 SWAP1 PUSH2 0xA61 JUMP JUMPDEST DUP1 ISZERO PUSH2 0x1DF JUMPI DUP1 PUSH1 0x1F LT PUSH2 0x1B6 JUMPI PUSH2 0x100 DUP1 DUP4 SLOAD DIV MUL DUP4 MSTORE SWAP2 PUSH1 0x20 ADD SWAP2 PUSH2 0x1DF JUMP JUMPDEST DUP3 ADD SWAP2 SWAP1 PUSH0 MSTORE PUSH1 0x20 PUSH0 KECCAK256 SWAP1 JUMPDEST DUP2 SLOAD DUP2 MSTORE SWAP1 PUSH1 0x1 ADD SWAP1 PUSH1 0x20 ADD DUP1 DUP4 GT PUSH2 0x1C2 JUMPI DUP3 SWAP1 SUB PUSH1 0x1F AND DUP3 ADD SWAP2 JUMPDEST POP POP POP POP POP SWAP1 POP SWAP2 SWAP1 POP JUMP JUMPDEST PUSH1 0x60 PUSH2 0x27D PUSH0 DUP1 SLOAD PUSH2 0x1FC SWAP1 PUSH2 0xA61 JUMP JUMPDEST DUP1 PUSH1 0x1F ADD PUSH1 0x20 DUP1 SWAP2 DIV MUL PUSH1 0x20 ADD PUSH1 0x40 MLOAD SWAP1 DUP2 ADD PUSH1 0x40 MSTORE DUP1 SWAP3 SWAP2 SWAP1 DUP2 DUP2 MSTORE PUSH1 0x20 ADD DUP3 DUP1 SLOAD PUSH2 0x228 SWAP1 PUSH2 0xA61 JUMP JUMPDEST DUP1 ISZERO PUSH2 0x273 JUMPI DUP1 PUSH1 0x1F LT PUSH2 0x24A JUMPI PUSH2 0x100 DUP1 DUP4 SLOAD DIV MUL DUP4 MSTORE SWAP2 PUSH1 0x20 ADD SWAP2 PUSH2 0x273 JUMP JUMPDEST DUP3 ADD SWAP2 SWAP1 PUSH0 MSTORE PUSH1 0x20 PUSH0 KECCAK256 SWAP1 JUMPDEST DUP2 SLOAD DUP2 MSTORE SWAP1 PUSH1 0x1 ADD SWAP1 PUSH1 0x20 ADD DUP1 DUP4 GT PUSH2 0x256 JUMPI DUP3 SWAP1 SUB PUSH1 0x1F AND DUP3 ADD SWAP2 JUMPDEST POP POP POP POP POP PUSH2 0x73F JUMP JUMPDEST SWAP1 POP SWAP1 JUMP JUMPDEST PUSH1 0x60 PUSH0 PUSH20 0xFFFFFFFFFFFFFFFFFFFFFFFFFFFFFFFFFFFFFFFF AND PUSH1 0x2 PUSH0 DUP5 DUP2 MSTORE PUSH1 0x20 ADD SWAP1 DUP2 MSTORE PUSH1 0x20 ADD PUSH0 KECCAK256 PUSH1 0x2 ADD PUSH0 SWAP1 SLOAD SWAP1 PUSH2 0x100 EXP SWAP1 DIV PUSH20 0xFFFFFFFFFFFFFFFFFFFFFFFFFFFFFFFFFFFFFFFF AND PUSH20 0xFFFFFFFFFFFFFFFFFFFFFFFFFFFFFFFFFFFFFFFF AND SUB PUSH2 0x381 JUMPI PUSH2 0x37A PUSH0 DUP1 SLOAD PUSH2 0x2F9 SWAP1 PUSH2 0xA61 JUMP JUMPDEST DUP1 PUSH1 0x1F ADD PUSH1 0x20 DUP1 SWAP2 DIV MUL PUSH1 0x20 ADD PUSH1 0x40 MLOAD SWAP1 DUP2 ADD PUSH1 0x40 MSTORE DUP1 SWAP3 SWAP2 SWAP1 DUP2 DUP2 MSTORE PUSH1 0x20 ADD DUP3 DUP1 SLOAD PUSH2 0x325 SWAP1 PUSH2 0xA61 JUMP JUMPDEST DUP1 ISZERO PUSH2 0x370 JUMPI DUP1 PUSH1 0x1F LT PUSH2 0x347 JUMPI PUSH2 0x100 DUP1 DUP4 SLOAD DIV MUL DUP4 MSTORE SWAP2 PUSH1 0x20 ADD SWAP2 PUSH2 0x370 JUMP JUMPDEST DUP3 ADD SWAP2 SWAP1 PUSH0 MSTORE PUSH1 0x20 PUSH0 KECCAK256 SWAP1 JUMPDEST DUP2 SLOAD DUP2 MSTORE SWAP1 PUSH1 0x1 ADD SWAP1 PUSH1 0x20 ADD DUP1 DUP4 GT PUSH2 0x353 JUMPI DUP3 SWAP1 SUB PUSH1 0x1F AND DUP3 ADD SWAP2 JUMPDEST POP POP POP POP POP PUSH2 0x73F JUMP JUMPDEST SWAP1 POP PUSH2 0x426 JUMP JUMPDEST PUSH2 0x423 PUSH1 0x2 PUSH0 DUP5 DUP2 MSTORE PUSH1 0x20 ADD SWAP1 DUP2 MSTORE PUSH1 0x20 ADD PUSH0 KECCAK256 PUSH0 ADD DUP1 SLOAD PUSH2 0x3A2 SWAP1 PUSH2 0xA61 JUMP JUMPDEST DUP1 PUSH1 0x1F ADD PUSH1 0x20 DUP1 SWAP2 DIV MUL PUSH1 0x20 ADD PUSH1 0x40 MLOAD SWAP1 DUP2 ADD PUSH1 0x40 MSTORE DUP1 SWAP3 SWAP2 SWAP1 DUP2 DUP2 MSTORE PUSH1 0x20 ADD DUP3 DUP1 SLOAD PUSH2 0x3CE SWAP1 PUSH2 0xA61 JUMP JUMPDEST DUP1 ISZERO PUSH2 0x419 JUMPI DUP1 PUSH1 0x1F LT PUSH2 0x3F0 JUMPI PUSH2 0x100 DUP1 DUP4 SLOAD DIV MUL DUP4 MSTORE SWAP2 PUSH1 0x20 ADD SWAP2 PUSH2 0x419 JUMP JUMPDEST DUP3 ADD SWAP2 SWAP1 PUSH0 MSTORE PUSH1 0x20 PUSH0 KECCAK256 SWAP1 JUMPDEST DUP2 SLOAD DUP2 MSTORE SWAP1 PUSH1 0x1 ADD SWAP1 PUSH1 0x20 ADD DUP1 DUP4 GT PUSH2 0x3FC JUMPI DUP3 SWAP1 SUB PUSH1 0x1F AND DUP3 ADD SWAP2 JUMPDEST POP POP POP POP POP PUSH2 0x73F JUMP JUMPDEST SWAP1 POP JUMPDEST SWAP2 SWAP1 POP JUMP JUMPDEST PUSH0 PUSH1 0x40 MLOAD DUP1 PUSH1 0x60 ADD PUSH1 0x40 MSTORE DUP1 DUP5 DUP2 MSTORE PUSH1 0x20 ADD DUP4 DUP2 MSTORE PUSH1 0x20 ADD CALLER PUSH20 0xFFFFFFFFFFFFFFFFFFFFFFFFFFFFFFFFFFFFFFFF AND DUP2 MSTORE POP SWAP1 POP DUP1 PUSH1 0x2 PUSH0 DUP5 DUP2 MSTORE PUSH1 0x20 ADD SWAP1 DUP2 MSTORE PUSH1 0x20 ADD PUSH0 KECCAK256 PUSH0 DUP3 ADD MLOAD DUP2 PUSH0 ADD SWAP1 DUP2 PUSH2 0x484 SWAP2 SWAP1 PUSH2 0xC2E JUMP JUMPDEST POP PUSH1 0x20 DUP3 ADD MLOAD DUP2 PUSH1 0x1 ADD SSTORE PUSH1 0x40 DUP3 ADD MLOAD DUP2 PUSH1 0x2 ADD PUSH0 PUSH2 0x100 EXP DUP2 SLOAD DUP2 PUSH20 0xFFFFFFFFFFFFFFFFFFFFFFFFFFFFFFFFFFFFFFFF MUL NOT AND SWAP1 DUP4 PUSH20 0xFFFFFFFFFFFFFFFFFFFFFFFFFFFFFFFFFFFFFFFF AND MUL OR SWAP1 SSTORE POP SWAP1 POP POP POP POP POP JUMP JUMPDEST PUSH0 PUSH1 0x40 MLOAD DUP1 PUSH1 0x60 ADD PUSH1 0x40 MSTORE DUP1 DUP5 DUP2 MSTORE PUSH1 0x20 ADD DUP4 DUP2 MSTORE PUSH1 0x20 ADD CALLER PUSH20 0xFFFFFFFFFFFFFFFFFFFFFFFFFFFFFFFFFFFFFFFF AND DUP2 MSTORE POP SWAP1 POP PUSH1 0x1 DUP2 SWAP1 DUP1 PUSH1 0x1 DUP2 SLOAD ADD DUP1 DUP3 SSTORE DUP1 SWAP2 POP POP PUSH1 0x1 SWAP1 SUB SWAP1 PUSH0 MSTORE PUSH1 0x20 PUSH0 KECCAK256 SWAP1 PUSH1 0x3 MUL ADD PUSH0 SWAP1 SWAP2 SWAP1 SWAP2 SWAP1 SWAP2 POP PUSH0 DUP3 ADD MLOAD DUP2 PUSH0 ADD SWAP1 DUP2 PUSH2 0x54D SWAP2 SWAP1 PUSH2 0xC2E JUMP JUMPDEST POP PUSH1 0x20 DUP3 ADD MLOAD DUP2 PUSH1 0x1 ADD SSTORE PUSH1 0x40 DUP3 ADD MLOAD DUP2 PUSH1 0x2 ADD PUSH0 PUSH2 0x100 EXP DUP2 SLOAD DUP2 PUSH20 0xFFFFFFFFFFFFFFFFFFFFFFFFFFFFFFFFFFFFFFFF MUL NOT AND SWAP1 DUP4 PUSH20 0xFFFFFFFFFFFFFFFFFFFFFFFFFFFFFFFFFFFFFFFF AND MUL OR SWAP1 SSTORE POP POP POP POP POP POP JUMP JUMPDEST PUSH1 0x60 PUSH0 JUMPDEST PUSH1 0x1 DUP1 SLOAD SWAP1 POP DUP2 LT ISZERO PUSH2 0x6A6 JUMPI DUP3 PUSH1 0x1 DUP3 DUP2 SLOAD DUP2 LT PUSH2 0x5CB JUMPI PUSH2 0x5CA PUSH2 0xCFD JUMP JUMPDEST JUMPDEST SWAP1 PUSH0 MSTORE PUSH1 0x20 PUSH0 KECCAK256 SWAP1 PUSH1 0x3 MUL ADD PUSH1 0x1 ADD SLOAD SUB PUSH2 0x699 JUMPI PUSH2 0x691 PUSH1 0x1 DUP3 DUP2 SLOAD DUP2 LT PUSH2 0x5F7 JUMPI PUSH2 0x5F6 PUSH2 0xCFD JUMP JUMPDEST JUMPDEST SWAP1 PUSH0 MSTORE PUSH1 0x20 PUSH0 KECCAK256 SWAP1 PUSH1 0x3 MUL ADD PUSH0 ADD DUP1 SLOAD PUSH2 0x610 SWAP1 PUSH2 0xA61 JUMP JUMPDEST DUP1 PUSH1 0x1F ADD PUSH1 0x20 DUP1 SWAP2 DIV MUL PUSH1 0x20 ADD PUSH1 0x40 MLOAD SWAP1 DUP2 ADD PUSH1 0x40 MSTORE DUP1 SWAP3 SWAP2 SWAP1 DUP2 DUP2 MSTORE PUSH1 0x20 ADD DUP3 DUP1 SLOAD PUSH2 0x63C SWAP1 PUSH2 0xA61 JUMP JUMPDEST DUP1 ISZERO PUSH2 0x687 JUMPI DUP1 PUSH1 0x1F LT PUSH2 0x65E JUMPI PUSH2 0x100 DUP1 DUP4 SLOAD DIV MUL DUP4 MSTORE SWAP2 PUSH1 0x20 ADD SWAP2 PUSH2 0x687 JUMP JUMPDEST DUP3 ADD SWAP2 SWAP1 PUSH0 MSTORE PUSH1 0x20 PUSH0 KECCAK256 SWAP1 JUMPDEST DUP2 SLOAD DUP2 MSTORE SWAP1 PUSH1 0x1 ADD SWAP1 PUSH1 0x20 ADD DUP1 DUP4 GT PUSH2 0x66A JUMPI DUP3 SWAP1 SUB PUSH1 0x1F AND DUP3 ADD SWAP2 JUMPDEST POP POP POP POP POP PUSH2 0x73F JUMP JUMPDEST SWAP2 POP POP PUSH2 0x73A JUMP JUMPDEST DUP1 DUP1 PUSH1 0x1 ADD SWAP2 POP POP PUSH2 0x5A9 JUMP JUMPDEST POP PUSH2 0x737 PUSH0 DUP1 SLOAD PUSH2 0x6B6 SWAP1 PUSH2 0xA61 JUMP JUMPDEST DUP1 PUSH1 0x1F ADD PUSH1 0x20 DUP1 SWAP2 DIV MUL PUSH1 0x20 ADD PUSH1 0x40 MLOAD SWAP1 DUP2 ADD PUSH1 0x40 MSTORE DUP1 SWAP3 SWAP2 SWAP1 DUP2 DUP2 MSTORE PUSH1 0x20 ADD DUP3 DUP1 SLOAD PUSH2 0x6E2 SWAP1 PUSH2 0xA61 JUMP JUMPDEST DUP1 ISZERO PUSH2 0x72D JUMPI DUP1 PUSH1 0x1F LT PUSH2 0x704 JUMPI PUSH2 0x100 DUP1 DUP4 SLOAD DIV MUL DUP4 MSTORE SWAP2 PUSH1 0x20 ADD SWAP2 PUSH2 0x72D JUMP JUMPDEST DUP3 ADD SWAP2 SWAP1 PUSH0 MSTORE PUSH1 0x20 PUSH0 KECCAK256 SWAP1 JUMPDEST DUP2 SLOAD DUP2 MSTORE SWAP1 PUSH1 0x1 ADD SWAP1 PUSH1 0x20 ADD DUP1 DUP4 GT PUSH2 0x710 JUMPI DUP3 SWAP1 SUB PUSH1 0x1F AND DUP3 ADD SWAP2 JUMPDEST POP POP POP POP POP PUSH2 0x73F JUMP JUMPDEST SWAP1 POP JUMPDEST SWAP2 SWAP1 POP JUMP JUMPDEST PUSH1 0x60 DUP2 PUSH1 0x40 MLOAD PUSH1 0x20 ADD PUSH2 0x752 SWAP2 SWAP1 PUSH2 0xD8A JUMP JUMPDEST PUSH1 0x40 MLOAD PUSH1 0x20 DUP2 DUP4 SUB SUB DUP2 MSTORE SWAP1 PUSH1 0x40 MSTORE SWAP1 POP SWAP2 SWAP1 POP JUMP JUMPDEST PUSH0 PUSH1 0x40 MLOAD SWAP1 POP SWAP1 JUMP JUMPDEST PUSH0 DUP1 REVERT JUMPDEST PUSH0 DUP1 REVERT JUMPDEST PUSH0 DUP1 REVERT JUMPDEST PUSH0 DUP1 REVERT JUMPDEST PUSH0 PUSH1 0x1F NOT PUSH1 0x1F DUP4 ADD AND SWAP1 POP SWAP2 SWAP1 POP JUMP JUMPDEST PUSH32 0x4E487B7100000000000000000000000000000000000000000000000000000000 PUSH0 MSTORE PUSH1 0x41 PUSH1 0x4 MSTORE PUSH1 0x24 PUSH0 REVERT JUMPDEST PUSH2 0x7C7 DUP3 PUSH2 0x781 JUMP JUMPDEST DUP2 ADD DUP2 DUP2 LT PUSH8 0xFFFFFFFFFFFFFFFF DUP3 GT OR ISZERO PUSH2 0x7E6 JUMPI PUSH2 0x7E5 PUSH2 0x791 JUMP JUMPDEST JUMPDEST DUP1 PUSH1 0x40 MSTORE POP POP POP JUMP JUMPDEST PUSH0 PUSH2 0x7F8 PUSH2 0x768 JUMP JUMPDEST SWAP1 POP PUSH2 0x804 DUP3 DUP3 PUSH2 0x7BE JUMP JUMPDEST SWAP2 SWAP1 POP JUMP JUMPDEST PUSH0 PUSH8 0xFFFFFFFFFFFFFFFF DUP3 GT ISZERO PUSH2 0x823 JUMPI PUSH2 0x822 PUSH2 0x791 JUMP JUMPDEST JUMPDEST PUSH2 0x82C DUP3 PUSH2 0x781 JUMP JUMPDEST SWAP1 POP PUSH1 0x20 DUP2 ADD SWAP1 POP SWAP2 SWAP1 POP JUMP JUMPDEST DUP3 DUP2 DUP4 CALLDATACOPY PUSH0 DUP4 DUP4 ADD MSTORE POP POP POP JUMP JUMPDEST PUSH0 PUSH2 0x859 PUSH2 0x854 DUP5 PUSH2 0x809 JUMP JUMPDEST PUSH2 0x7EF JUMP JUMPDEST SWAP1 POP DUP3 DUP2 MSTORE PUSH1 0x20 DUP2 ADD DUP5 DUP5 DUP5 ADD GT ISZERO PUSH2 0x875 JUMPI PUSH2 0x874 PUSH2 0x77D JUMP JUMPDEST JUMPDEST PUSH2 0x880 DUP5 DUP3 DUP6 PUSH2 0x839 JUMP JUMPDEST POP SWAP4 SWAP3 POP POP POP JUMP JUMPDEST PUSH0 DUP3 PUSH1 0x1F DUP4 ADD SLT PUSH2 0x89C JUMPI PUSH2 0x89B PUSH2 0x779 JUMP JUMPDEST JUMPDEST DUP2 CALLDATALOAD PUSH2 0x8AC DUP5 DUP3 PUSH1 0x20 DUP7 ADD PUSH2 0x847 JUMP JUMPDEST SWAP2 POP POP SWAP3 SWAP2 POP POP JUMP JUMPDEST PUSH0 PUSH1 0x20 DUP3 DUP5 SUB SLT ISZERO PUSH2 0x8CA JUMPI PUSH2 0x8C9 PUSH2 0x771 JUMP JUMPDEST JUMPDEST PUSH0 DUP3 ADD CALLDATALOAD PUSH8 0xFFFFFFFFFFFFFFFF DUP2 GT ISZERO PUSH2 0x8E7 JUMPI PUSH2 0x8E6 PUSH2 0x775 JUMP JUMPDEST JUMPDEST PUSH2 0x8F3 DUP5 DUP3 DUP6 ADD PUSH2 0x888 JUMP JUMPDEST SWAP2 POP POP SWAP3 SWAP2 POP POP JUMP JUMPDEST PUSH0 DUP2 MLOAD SWAP1 POP SWAP2 SWAP1 POP JUMP JUMPDEST PUSH0 DUP3 DUP3 MSTORE PUSH1 0x20 DUP3 ADD SWAP1 POP SWAP3 SWAP2 POP POP JUMP JUMPDEST DUP3 DUP2 DUP4 MCOPY PUSH0 DUP4 DUP4 ADD MSTORE POP POP POP JUMP JUMPDEST PUSH0 PUSH2 0x92E DUP3 PUSH2 0x8FC JUMP JUMPDEST PUSH2 0x938 DUP2 DUP6 PUSH2 0x906 JUMP JUMPDEST SWAP4 POP PUSH2 0x948 DUP2 DUP6 PUSH1 0x20 DUP7 ADD PUSH2 0x916 JUMP JUMPDEST PUSH2 0x951 DUP2 PUSH2 0x781 JUMP JUMPDEST DUP5 ADD SWAP2 POP POP SWAP3 SWAP2 POP POP JUMP JUMPDEST PUSH0 PUSH1 0x20 DUP3 ADD SWAP1 POP DUP2 DUP2 SUB PUSH0 DUP4 ADD MSTORE PUSH2 0x974 DUP2 DUP5 PUSH2 0x924 JUMP JUMPDEST SWAP1 POP SWAP3 SWAP2 POP POP JUMP JUMPDEST PUSH0 DUP2 SWAP1 POP SWAP2 SWAP1 POP JUMP JUMPDEST PUSH2 0x98E DUP2 PUSH2 0x97C JUMP JUMPDEST DUP2 EQ PUSH2 0x998 JUMPI PUSH0 DUP1 REVERT JUMPDEST POP JUMP JUMPDEST PUSH0 DUP2 CALLDATALOAD SWAP1 POP PUSH2 0x9A9 DUP2 PUSH2 0x985 JUMP JUMPDEST SWAP3 SWAP2 POP POP JUMP JUMPDEST PUSH0 PUSH1 0x20 DUP3 DUP5 SUB SLT ISZERO PUSH2 0x9C4 JUMPI PUSH2 0x9C3 PUSH2 0x771 JUMP JUMPDEST JUMPDEST PUSH0 PUSH2 0x9D1 DUP5 DUP3 DUP6 ADD PUSH2 0x99B JUMP JUMPDEST SWAP2 POP POP SWAP3 SWAP2 POP POP JUMP JUMPDEST PUSH0 DUP1 PUSH1 0x40 DUP4 DUP6 SUB SLT ISZERO PUSH2 0x9F0 JUMPI PUSH2 0x9EF PUSH2 0x771 JUMP JUMPDEST JUMPDEST PUSH0 DUP4 ADD CALLDATALOAD PUSH8 0xFFFFFFFFFFFFFFFF DUP2 GT ISZERO PUSH2 0xA0D JUMPI PUSH2 0xA0C PUSH2 0x775 JUMP JUMPDEST JUMPDEST PUSH2 0xA19 DUP6 DUP3 DUP7 ADD PUSH2 0x888 JUMP JUMPDEST SWAP3 POP POP PUSH1 0x20 PUSH2 0xA2A DUP6 DUP3 DUP7 ADD PUSH2 0x99B JUMP JUMPDEST SWAP2 POP POP SWAP3 POP SWAP3 SWAP1 POP JUMP JUMPDEST PUSH32 0x4E487B7100000000000000000000000000000000000000000000000000000000 PUSH0 MSTORE PUSH1 0x22 PUSH1 0x4 MSTORE PUSH1 0x24 PUSH0 REVERT JUMPDEST PUSH0 PUSH1 0x2 DUP3 DIV SWAP1 POP PUSH1 0x1 DUP3 AND DUP1 PUSH2 0xA78 JUMPI PUSH1 0x7F DUP3 AND SWAP2 POP JUMPDEST PUSH1 0x20 DUP3 LT DUP2 SUB PUSH2 0xA8B JUMPI PUSH2 0xA8A PUSH2 0xA34 JUMP JUMPDEST JUMPDEST POP SWAP2 SWAP1 POP JUMP JUMPDEST PUSH0 DUP2 SWAP1 POP DUP2 PUSH0 MSTORE PUSH1 0x20 PUSH0 KECCAK256 SWAP1 POP SWAP2 SWAP1 POP JUMP JUMPDEST PUSH0 PUSH1 0x20 PUSH1 0x1F DUP4 ADD DIV SWAP1 POP SWAP2 SWAP1 POP JUMP JUMPDEST PUSH0 DUP3 DUP3 SHL SWAP1 POP SWAP3 SWAP2 POP POP JUMP JUMPDEST PUSH0 PUSH1 0x8 DUP4 MUL PUSH2 0xAED PUSH32 0xFFFFFFFFFFFFFFFFFFFFFFFFFFFFFFFFFFFFFFFFFFFFFFFFFFFFFFFFFFFFFFFF DUP3 PUSH2 0xAB2 JUMP JUMPDEST PUSH2 0xAF7 DUP7 DUP4 PUSH2 0xAB2 JUMP JUMPDEST SWAP6 POP DUP1 NOT DUP5 AND SWAP4 POP DUP1 DUP7 AND DUP5 OR SWAP3 POP POP POP SWAP4 SWAP3 POP POP POP JUMP JUMPDEST PUSH0 DUP2 SWAP1 POP SWAP2 SWAP1 POP JUMP JUMPDEST PUSH0 PUSH2 0xB32 PUSH2 0xB2D PUSH2 0xB28 DUP5 PUSH2 0x97C JUMP JUMPDEST PUSH2 0xB0F JUMP JUMPDEST PUSH2 0x97C JUMP JUMPDEST SWAP1 POP SWAP2 SWAP1 POP JUMP JUMPDEST PUSH0 DUP2 SWAP1 POP SWAP2 SWAP1 POP JUMP JUMPDEST PUSH2 0xB4B DUP4 PUSH2 0xB18 JUMP JUMPDEST PUSH2 0xB5F PUSH2 0xB57 DUP3 PUSH2 0xB39 JUMP JUMPDEST DUP5 DUP5 SLOAD PUSH2 0xABE JUMP JUMPDEST DUP3 SSTORE POP POP POP POP JUMP JUMPDEST PUSH0 SWAP1 JUMP JUMPDEST PUSH2 0xB73 PUSH2 0xB67 JUMP JUMPDEST PUSH2 0xB7E DUP2 DUP5 DUP5 PUSH2 0xB42 JUMP JUMPDEST POP POP POP JUMP JUMPDEST JUMPDEST DUP2 DUP2 LT ISZERO PUSH2 0xBA1 JUMPI PUSH2 0xB96 PUSH0 DUP3 PUSH2 0xB6B JUMP JUMPDEST PUSH1 0x1 DUP2 ADD SWAP1 POP PUSH2 0xB84 JUMP JUMPDEST POP POP JUMP JUMPDEST PUSH1 0x1F DUP3 GT ISZERO PUSH2 0xBE6 JUMPI PUSH2 0xBB7 DUP2 PUSH2 0xA91 JUMP JUMPDEST PUSH2 0xBC0 DUP5 PUSH2 0xAA3 JUMP JUMPDEST DUP2 ADD PUSH1 0x20 DUP6 LT ISZERO PUSH2 0xBCF JUMPI DUP2 SWAP1 POP JUMPDEST PUSH2 0xBE3 PUSH2 0xBDB DUP6 PUSH2 0xAA3 JUMP JUMPDEST DUP4 ADD DUP3 PUSH2 0xB83 JUMP JUMPDEST POP POP JUMPDEST POP POP POP JUMP JUMPDEST PUSH0 DUP3 DUP3 SHR SWAP1 POP SWAP3 SWAP2 POP POP JUMP JUMPDEST PUSH0 PUSH2 0xC06 PUSH0 NOT DUP5 PUSH1 0x8 MUL PUSH2 0xBEB JUMP JUMPDEST NOT DUP1 DUP4 AND SWAP2 POP POP SWAP3 SWAP2 POP POP JUMP JUMPDEST PUSH0 PUSH2 0xC1E DUP4 DUP4 PUSH2 0xBF7 JUMP JUMPDEST SWAP2 POP DUP3 PUSH1 0x2 MUL DUP3 OR SWAP1 POP SWAP3 SWAP2 POP POP JUMP JUMPDEST PUSH2 0xC37 DUP3 PUSH2 0x8FC JUMP JUMPDEST PUSH8 0xFFFFFFFFFFFFFFFF DUP2 GT ISZERO PUSH2 0xC50 JUMPI PUSH2 0xC4F PUSH2 0x791 JUMP JUMPDEST JUMPDEST PUSH2 0xC5A DUP3 SLOAD PUSH2 0xA61 JUMP JUMPDEST PUSH2 0xC65 DUP3 DUP3 DUP6 PUSH2 0xBA5 JUMP JUMPDEST PUSH0 PUSH1 0x20 SWAP1 POP PUSH1 0x1F DUP4 GT PUSH1 0x1 DUP2 EQ PUSH2 0xC96 JUMPI PUSH0 DUP5 ISZERO PUSH2 0xC84 JUMPI DUP3 DUP8 ADD MLOAD SWAP1 POP JUMPDEST PUSH2 0xC8E DUP6 DUP3 PUSH2 0xC13 JUMP JUMPDEST DUP7 SSTORE POP PUSH2 0xCF5 JUMP JUMPDEST PUSH1 0x1F NOT DUP5 AND PUSH2 0xCA4 DUP7 PUSH2 0xA91 JUMP JUMPDEST PUSH0 JUMPDEST DUP3 DUP2 LT ISZERO PUSH2 0xCCB JUMPI DUP5 DUP10 ADD MLOAD DUP3 SSTORE PUSH1 0x1 DUP3 ADD SWAP2 POP PUSH1 0x20 DUP6 ADD SWAP5 POP PUSH1 0x20 DUP2 ADD SWAP1 POP PUSH2 0xCA6 JUMP JUMPDEST DUP7 DUP4 LT ISZERO PUSH2 0xCE8 JUMPI DUP5 DUP10 ADD MLOAD PUSH2 0xCE4 PUSH1 0x1F DUP10 AND DUP3 PUSH2 0xBF7 JUMP JUMPDEST DUP4 SSTORE POP JUMPDEST PUSH1 0x1 PUSH1 0x2 DUP9 MUL ADD DUP9 SSTORE POP POP POP JUMPDEST POP POP POP POP POP POP JUMP JUMPDEST PUSH32 0x4E487B7100000000000000000000000000000000000000000000000000000000 PUSH0 MSTORE PUSH1 0x32 PUSH1 0x4 MSTORE PUSH1 0x24 PUSH0 REVERT JUMPDEST PUSH0 DUP2 SWAP1 POP SWAP3 SWAP2 POP POP JUMP JUMPDEST PUSH0 PUSH2 0xD3E DUP3 PUSH2 0x8FC JUMP JUMPDEST PUSH2 0xD48 DUP2 DUP6 PUSH2 0xD2A JUMP JUMPDEST SWAP4 POP PUSH2 0xD58 DUP2 DUP6 PUSH1 0x20 DUP7 ADD PUSH2 0x916 JUMP JUMPDEST DUP1 DUP5 ADD SWAP2 POP POP SWAP3 SWAP2 POP POP JUMP JUMPDEST PUSH32 0x9746869732069732061646420737472696E6721000000000000000000000000 DUP2 MSTORE POP JUMP JUMPDEST PUSH0 PUSH2 0xD95 DUP3 DUP5 PUSH2 0xD34 JUMP JUMPDEST SWAP2 POP PUSH2 0xDA0 DUP3 PUSH2 0xD64 JUMP JUMPDEST PUSH1 0x14 DUP3 ADD SWAP2 POP DUP2 SWAP1 POP SWAP3 SWAP2 POP POP JUMP INVALID LOG2 PUSH5 0x6970667358 0x22 SLT KECCAK256 ISZERO AND 0xB8 0x4E PUSH10 0xFAF4E5488570FAC10EF3 0xBC DIV CODECOPY SWAP6 ADDMOD 0xC7 0x21 STATICCALL 0xDC SAR SWAP16 0x4E DUP8 0xE0 PUSH24 0xD49564736F6C634300081A0033A264697066735822122047 SMOD CALLDATASIZE 0x26 DUP3 SIGNEXTEND CODESIZE GASPRICE 0xDD GASPRICE 0x4B SMOD COINBASE 0x4D 0xBD ADDMOD PUSH12 0x6BD68D34477B0B3FB8C27F86 MSTORE8 SUB 0xEB PUSH5 0x736F6C6343 STOP ADDMOD BYTE STOP CALLER "
				},
				"gasEstimates": {
					"creation": {
						"codeDepositCost": "1331000",
						"executionCost": "1381",
						"totalCost": "1332381"
					},
					"external": {
						"Callhelloworldfromfactory(uint256,uint256)": "infinite",
						"CreateHelloworld()": "infinite",
						"Getmycontract(uint256)": "infinite",
						"Sethelloworldfromfactory(uint256,string,uint256)": "infinite"
					}
				},
				"methodIdentifiers": {
					"Callhelloworldfromfactory(uint256,uint256)": "bdcec25d",
					"CreateHelloworld()": "16324d32",
					"Getmycontract(uint256)": "fa00d489",
					"Sethelloworldfromfactory(uint256,string,uint256)": "1a185053"
				}
			},
			"storageLayout": {
				"storage": [
					{
						"astId": 6,
						"contract": "mytest111/Factory.sol:Hellowordfactry",
						"label": "myhw",
						"offset": 0,
						"slot": "0",
						"type": "t_contract(Helloworld)262"
					},
					{
						"astId": 10,
						"contract": "mytest111/Factory.sol:Hellowordfactry",
						"label": "myhws",
						"offset": 0,
						"slot": "1",
						"type": "t_array(t_contract(Helloworld)262)dyn_storage"
					}
				],
				"types": {
					"t_array(t_contract(Helloworld)262)dyn_storage": {
						"base": "t_contract(Helloworld)262",
						"encoding": "dynamic_array",
						"label": "contract Helloworld[]",
						"numberOfBytes": "32"
					},
					"t_contract(Helloworld)262": {
						"encoding": "inplace",
						"label": "contract Helloworld",
						"numberOfBytes": "20"
					}
				}
			},
			"userdoc": {
				"kind": "user",
				"methods": {},
				"version": 1
			}
		}
	}
}