{
	"fundme/FundMe.sol": {
		"Fundtome": {
			"abi": [
				{
					"inputs": [],
					"stateMutability": "nonpayable",
					"type": "constructor"
				},
				{
					"inputs": [],
					"name": "Getmoneyifover",
					"outputs": [],
					"stateMutability": "nonpayable",
					"type": "function"
				},
				{
					"inputs": [],
					"name": "Refund",
					"outputs": [],
					"stateMutability": "nonpayable",
					"type": "function"
				},
				{
					"inputs": [
						{
							"internalType": "address",
							"name": "Newowner",
							"type": "address"
						}
					],
					"name": "Resetowner",
					"outputs": [],
					"stateMutability": "nonpayable",
					"type": "function"
				},
				{
					"inputs": [],
					"name": "fund",
					"outputs": [],
					"stateMutability": "payable",
					"type": "function"
				},
				{
					"inputs": [
						{
							"internalType": "address",
							"name": "addr",
							"type": "address"
						}
					],
					"name": "funderstoAmount",
					"outputs": [
						{
							"internalType": "uint256",
							"name": "much",
							"type": "uint256"
						}
					],
					"stateMutability": "view",
					"type": "function"
				},
				{
					"inputs": [],
					"name": "getChainlinkDataFeedLatestAnswer",
					"outputs": [
						{
							"internalType": "int256",
							"name": "",
							"type": "int256"
						}
					],
					"stateMutability": "view",
					"type": "function"
				},
				{
					"inputs": [],
					"name": "owner",
					"outputs": [
						{
							"internalType": "address",
							"name": "",
							"type": "address"
						}
					],
					"stateMutability": "view",
					"type": "function"
				}
			],
			"devdoc": {
				"kind": "dev",
				"methods": {},
				"version": 1
			},
			"evm": {
				"assembly": "    /* \"fundme/FundMe.sol\":384:4310  contract Fundtome{... */\n  mstore(0x40, 0x80)\n    /* \"fundme/FundMe.sol\":871:873  10 */\n  0x0a\n    /* \"fundme/FundMe.sol\":850:873  uint256 MINIUM_VALUE=10 */\n  0x03\n  sstore\n    /* \"fundme/FundMe.sol\":1110:1112  20 */\n  0x14\n    /* \"fundme/FundMe.sol\":1097:1112  uint256 FLAG=20 */\n  0x04\n  sstore\n    /* \"fundme/FundMe.sol\":555:740  constructor() {... */\n  callvalue\n  dup1\n  iszero\n  tag_1\n  jumpi\n  0x00\n  dup1\n  revert\ntag_1:\n  pop\n    /* \"fundme/FundMe.sol\":612:654  0x694AA1769357215DE4FAC081bf1f309aDC325306 */\n  0x694aa1769357215de4fac081bf1f309adc325306\n    /* \"fundme/FundMe.sol\":579:587  dataFeed */\n  0x00\n  dup1\n    /* \"fundme/FundMe.sol\":579:655  dataFeed = AggregatorV3Interface(0x694AA1769357215DE4FAC081bf1f309aDC325306) */\n  0x0100\n  exp\n  dup2\n  sload\n  dup2\n  0xffffffffffffffffffffffffffffffffffffffff\n  mul\n  not\n  and\n  swap1\n  dup4\n  0xffffffffffffffffffffffffffffffffffffffff\n  and\n  mul\n  or\n  swap1\n  sstore\n  pop\n    /* \"fundme/FundMe.sol\":723:733  msg.sender */\n  caller\n    /* \"fundme/FundMe.sol\":717:722  owner */\n  0x01\n  0x00\n    /* \"fundme/FundMe.sol\":717:733  owner=msg.sender */\n  0x0100\n  exp\n  dup2\n  sload\n  dup2\n  0xffffffffffffffffffffffffffffffffffffffff\n  mul\n  not\n  and\n  swap1\n  dup4\n  0xffffffffffffffffffffffffffffffffffffffff\n  and\n  mul\n  or\n  swap1\n  sstore\n  pop\n    /* \"fundme/FundMe.sol\":384:4310  contract Fundtome{... */\n  dataSize(sub_0)\n  dup1\n  dataOffset(sub_0)\n  0x00\n  codecopy\n  0x00\n  return\nstop\n\nsub_0: assembly {\n        /* \"fundme/FundMe.sol\":384:4310  contract Fundtome{... */\n      mstore(0x40, 0x80)\n      jumpi(tag_1, lt(calldatasize, 0x04))\n      shr(0xe0, calldataload(0x00))\n      dup1\n      0x8da5cb5b\n      gt\n      tag_9\n      jumpi\n      dup1\n      0x8da5cb5b\n      eq\n      tag_5\n      jumpi\n      dup1\n      0xb60d4288\n      eq\n      tag_6\n      jumpi\n      dup1\n      0xbea4dfb5\n      eq\n      tag_7\n      jumpi\n      dup1\n      0xd4f41178\n      eq\n      tag_8\n      jumpi\n      jump(tag_1)\n    tag_9:\n      dup1\n      0x5d268629\n      eq\n      tag_2\n      jumpi\n      dup1\n      0x6448121e\n      eq\n      tag_3\n      jumpi\n      dup1\n      0x774178e8\n      eq\n      tag_4\n      jumpi\n    tag_1:\n      0x00\n      dup1\n      revert\n        /* \"fundme/FundMe.sol\":3550:4308  function Refund()external {... */\n    tag_2:\n      callvalue\n      dup1\n      iszero\n      tag_10\n      jumpi\n      0x00\n      dup1\n      revert\n    tag_10:\n      pop\n      tag_11\n      tag_12\n      jump\t// in\n    tag_11:\n      stop\n        /* \"fundme/FundMe.sol\":2391:3455  function Getmoneyifover() external {... */\n    tag_3:\n      callvalue\n      dup1\n      iszero\n      tag_13\n      jumpi\n      0x00\n      dup1\n      revert\n    tag_13:\n      pop\n      tag_14\n      tag_15\n      jump\t// in\n    tag_14:\n      stop\n        /* \"fundme/FundMe.sol\":745:807  mapping (address addr => uint256 much) public  funderstoAmount */\n    tag_4:\n      callvalue\n      dup1\n      iszero\n      tag_16\n      jumpi\n      0x00\n      dup1\n      revert\n    tag_16:\n      pop\n      tag_17\n      0x04\n      dup1\n      calldatasize\n      sub\n      dup2\n      add\n      swap1\n      tag_18\n      swap2\n      swap1\n      tag_19\n      jump\t// in\n    tag_18:\n      tag_20\n      jump\t// in\n    tag_17:\n      mload(0x40)\n      tag_21\n      swap2\n      swap1\n      tag_22\n      jump\t// in\n    tag_21:\n      mload(0x40)\n      dup1\n      swap2\n      sub\n      swap1\n      return\n        /* \"fundme/FundMe.sol\":487:507  address public owner */\n    tag_5:\n      callvalue\n      dup1\n      iszero\n      tag_23\n      jumpi\n      0x00\n      dup1\n      revert\n    tag_23:\n      pop\n      tag_24\n      tag_25\n      jump\t// in\n    tag_24:\n      mload(0x40)\n      tag_26\n      swap2\n      swap1\n      tag_27\n      jump\t// in\n    tag_26:\n      mload(0x40)\n      dup1\n      swap2\n      sub\n      swap1\n      return\n        /* \"fundme/FundMe.sol\":1125:1387  function fund() external payable {... */\n    tag_6:\n      tag_28\n      tag_29\n      jump\t// in\n    tag_28:\n      stop\n        /* \"fundme/FundMe.sol\":1394:1732  function getChainlinkDataFeedLatestAnswer() public view returns (int) {... */\n    tag_7:\n      callvalue\n      dup1\n      iszero\n      tag_30\n      jumpi\n      0x00\n      dup1\n      revert\n    tag_30:\n      pop\n      tag_31\n      tag_32\n      jump\t// in\n    tag_31:\n      mload(0x40)\n      tag_33\n      swap2\n      swap1\n      tag_34\n      jump\t// in\n    tag_33:\n      mload(0x40)\n      dup1\n      swap2\n      sub\n      swap1\n      return\n        /* \"fundme/FundMe.sol\":2103:2237  function Resetowner(address Newowner) public {... */\n    tag_8:\n      callvalue\n      dup1\n      iszero\n      tag_35\n      jumpi\n      0x00\n      dup1\n      revert\n    tag_35:\n      pop\n      tag_36\n      0x04\n      dup1\n      calldatasize\n      sub\n      dup2\n      add\n      swap1\n      tag_37\n      swap2\n      swap1\n      tag_19\n      jump\t// in\n    tag_37:\n      tag_38\n      jump\t// in\n    tag_36:\n      stop\n        /* \"fundme/FundMe.sol\":3550:4308  function Refund()external {... */\n    tag_12:\n        /* \"fundme/FundMe.sol\":3686:3690  FLAG */\n      sload(0x04)\n        /* \"fundme/FundMe.sol\":3644:3683  convertETHtoUSDT(address(this).balance) */\n      tag_40\n        /* \"fundme/FundMe.sol\":3661:3682  address(this).balance */\n      selfbalance\n        /* \"fundme/FundMe.sol\":3644:3660  convertETHtoUSDT */\n      tag_41\n        /* \"fundme/FundMe.sol\":3644:3683  convertETHtoUSDT(address(this).balance) */\n      jump\t// in\n    tag_40:\n        /* \"fundme/FundMe.sol\":3644:3690  convertETHtoUSDT(address(this).balance) < FLAG */\n      lt\n        /* \"fundme/FundMe.sol\":3636:3709  require(convertETHtoUSDT(address(this).balance) < FLAG,\"reach the FLAG!\") */\n      tag_42\n      jumpi\n      mload(0x40)\n      0x08c379a000000000000000000000000000000000000000000000000000000000\n      dup2\n      mstore\n      0x04\n      add\n      tag_43\n      swap1\n      tag_44\n      jump\t// in\n    tag_43:\n      mload(0x40)\n      dup1\n      swap2\n      sub\n      swap1\n      revert\n    tag_42:\n        /* \"fundme/FundMe.sol\":3874:3875  0 */\n      0x00\n        /* \"fundme/FundMe.sol\":3843:3858  funderstoAmount */\n      0x02\n        /* \"fundme/FundMe.sol\":3843:3870  funderstoAmount[msg.sender] */\n      0x00\n        /* \"fundme/FundMe.sol\":3859:3869  msg.sender */\n      caller\n        /* \"fundme/FundMe.sol\":3843:3870  funderstoAmount[msg.sender] */\n      0xffffffffffffffffffffffffffffffffffffffff\n      and\n      0xffffffffffffffffffffffffffffffffffffffff\n      and\n      dup2\n      mstore\n      0x20\n      add\n      swap1\n      dup2\n      mstore\n      0x20\n      add\n      0x00\n      keccak256\n      sload\n        /* \"fundme/FundMe.sol\":3843:3875  funderstoAmount[msg.sender] != 0 */\n      sub\n        /* \"fundme/FundMe.sol\":3835:3902  require(funderstoAmount[msg.sender] != 0,\"there is no your money!\") */\n      tag_45\n      jumpi\n      mload(0x40)\n      0x08c379a000000000000000000000000000000000000000000000000000000000\n      dup2\n      mstore\n      0x04\n      add\n      tag_46\n      swap1\n      tag_47\n      jump\t// in\n    tag_46:\n      mload(0x40)\n      dup1\n      swap2\n      sub\n      swap1\n      revert\n    tag_45:\n        /* \"fundme/FundMe.sol\":4005:4022  bool refundstatus */\n      0x00\n        /* \"fundme/FundMe.sol\":4057:4067  msg.sender */\n      caller\n        /* \"fundme/FundMe.sol\":4049:4073  payable(msg.sender).call */\n      0xffffffffffffffffffffffffffffffffffffffff\n      and\n        /* \"fundme/FundMe.sol\":4081:4096  funderstoAmount */\n      0x02\n        /* \"fundme/FundMe.sol\":4081:4108  funderstoAmount[msg.sender] */\n      0x00\n        /* \"fundme/FundMe.sol\":4097:4107  msg.sender */\n      caller\n        /* \"fundme/FundMe.sol\":4081:4108  funderstoAmount[msg.sender] */\n      0xffffffffffffffffffffffffffffffffffffffff\n      and\n      0xffffffffffffffffffffffffffffffffffffffff\n      and\n      dup2\n      mstore\n      0x20\n      add\n      swap1\n      dup2\n      mstore\n      0x20\n      add\n      0x00\n      keccak256\n      sload\n        /* \"fundme/FundMe.sol\":4049:4113  payable(msg.sender).call{value: funderstoAmount[msg.sender]}(\"\") */\n      mload(0x40)\n      tag_48\n      swap1\n      tag_49\n      jump\t// in\n    tag_48:\n      0x00\n      mload(0x40)\n      dup1\n      dup4\n      sub\n      dup2\n      dup6\n      dup8\n      gas\n      call\n      swap3\n      pop\n      pop\n      pop\n      returndatasize\n      dup1\n      0x00\n      dup2\n      eq\n      tag_52\n      jumpi\n      mload(0x40)\n      swap2\n      pop\n      and(add(returndatasize, 0x3f), not(0x1f))\n      dup3\n      add\n      0x40\n      mstore\n      returndatasize\n      dup3\n      mstore\n      returndatasize\n      0x00\n      0x20\n      dup5\n      add\n      returndatacopy\n      jump(tag_51)\n    tag_52:\n      0x60\n      swap2\n      pop\n    tag_51:\n      pop\n        /* \"fundme/FundMe.sol\":4032:4113  (refundstatus, )=payable(msg.sender).call{value: funderstoAmount[msg.sender]}(\"\") */\n      pop\n      dup1\n      swap2\n      pop\n      pop\n        /* \"fundme/FundMe.sol\":4172:4184  refundstatus */\n      dup1\n        /* \"fundme/FundMe.sol\":4164:4200  require(refundstatus,\"refund Fail!\") */\n      tag_53\n      jumpi\n      mload(0x40)\n      0x08c379a000000000000000000000000000000000000000000000000000000000\n      dup2\n      mstore\n      0x04\n      add\n      tag_54\n      swap1\n      tag_55\n      jump\t// in\n    tag_54:\n      mload(0x40)\n      dup1\n      swap2\n      sub\n      swap1\n      revert\n    tag_53:\n        /* \"fundme/FundMe.sol\":4300:4301  0 */\n      0x00\n        /* \"fundme/FundMe.sol\":4272:4287  funderstoAmount */\n      0x02\n        /* \"fundme/FundMe.sol\":4272:4299  funderstoAmount[msg.sender] */\n      0x00\n        /* \"fundme/FundMe.sol\":4288:4298  msg.sender */\n      caller\n        /* \"fundme/FundMe.sol\":4272:4299  funderstoAmount[msg.sender] */\n      0xffffffffffffffffffffffffffffffffffffffff\n      and\n      0xffffffffffffffffffffffffffffffffffffffff\n      and\n      dup2\n      mstore\n      0x20\n      add\n      swap1\n      dup2\n      mstore\n      0x20\n      add\n      0x00\n      keccak256\n        /* \"fundme/FundMe.sol\":4272:4301  funderstoAmount[msg.sender]=0 */\n      dup2\n      swap1\n      sstore\n      pop\n        /* \"fundme/FundMe.sol\":3576:4308  {... */\n      pop\n        /* \"fundme/FundMe.sol\":3550:4308  function Refund()external {... */\n      jump\t// out\n        /* \"fundme/FundMe.sol\":2391:3455  function Getmoneyifover() external {... */\n    tag_15:\n        /* \"fundme/FundMe.sol\":2531:2535  FLAG */\n      sload(0x04)\n        /* \"fundme/FundMe.sol\":2488:2527  convertETHtoUSDT(address(this).balance) */\n      tag_57\n        /* \"fundme/FundMe.sol\":2505:2526  address(this).balance */\n      selfbalance\n        /* \"fundme/FundMe.sol\":2488:2504  convertETHtoUSDT */\n      tag_41\n        /* \"fundme/FundMe.sol\":2488:2527  convertETHtoUSDT(address(this).balance) */\n      jump\t// in\n    tag_57:\n        /* \"fundme/FundMe.sol\":2488:2535  convertETHtoUSDT(address(this).balance) >= FLAG */\n      lt\n      iszero\n        /* \"fundme/FundMe.sol\":2480:2568  require(convertETHtoUSDT(address(this).balance) >= FLAG,\"balance is not reach to FLAG!\") */\n      tag_58\n      jumpi\n      mload(0x40)\n      0x08c379a000000000000000000000000000000000000000000000000000000000\n      dup2\n      mstore\n      0x04\n      add\n      tag_59\n      swap1\n      tag_60\n      jump\t// in\n    tag_59:\n      mload(0x40)\n      dup1\n      swap2\n      sub\n      swap1\n      revert\n    tag_58:\n        /* \"fundme/FundMe.sol\":2641:2646  owner */\n      0x01\n      0x00\n      swap1\n      sload\n      swap1\n      0x0100\n      exp\n      swap1\n      div\n      0xffffffffffffffffffffffffffffffffffffffff\n      and\n        /* \"fundme/FundMe.sol\":2627:2646  msg.sender == owner */\n      0xffffffffffffffffffffffffffffffffffffffff\n      and\n        /* \"fundme/FundMe.sol\":2627:2637  msg.sender */\n      caller\n        /* \"fundme/FundMe.sol\":2627:2646  msg.sender == owner */\n      0xffffffffffffffffffffffffffffffffffffffff\n      and\n      eq\n        /* \"fundme/FundMe.sol\":2619:2667  require(msg.sender == owner,\"you are not owner\") */\n      tag_61\n      jumpi\n      mload(0x40)\n      0x08c379a000000000000000000000000000000000000000000000000000000000\n      dup2\n      mstore\n      0x04\n      add\n      tag_62\n      swap1\n      tag_63\n      jump\t// in\n    tag_62:\n      mload(0x40)\n      dup1\n      swap2\n      sub\n      swap1\n      revert\n    tag_61:\n        /* \"fundme/FundMe.sol\":3135:3148  bool mystatus */\n      0x00\n        /* \"fundme/FundMe.sol\":3181:3191  msg.sender */\n      caller\n        /* \"fundme/FundMe.sol\":3173:3197  payable(msg.sender).call */\n      0xffffffffffffffffffffffffffffffffffffffff\n      and\n        /* \"fundme/FundMe.sol\":3205:3226  address(this).balance */\n      selfbalance\n        /* \"fundme/FundMe.sol\":3173:3231  payable(msg.sender).call{value: address(this).balance}(\"\") */\n      mload(0x40)\n      tag_64\n      swap1\n      tag_49\n      jump\t// in\n    tag_64:\n      0x00\n      mload(0x40)\n      dup1\n      dup4\n      sub\n      dup2\n      dup6\n      dup8\n      gas\n      call\n      swap3\n      pop\n      pop\n      pop\n      returndatasize\n      dup1\n      0x00\n      dup2\n      eq\n      tag_67\n      jumpi\n      mload(0x40)\n      swap2\n      pop\n      and(add(returndatasize, 0x3f), not(0x1f))\n      dup3\n      add\n      0x40\n      mstore\n      returndatasize\n      dup3\n      mstore\n      returndatasize\n      0x00\n      0x20\n      dup5\n      add\n      returndatacopy\n      jump(tag_66)\n    tag_67:\n      0x60\n      swap2\n      pop\n    tag_66:\n      pop\n        /* \"fundme/FundMe.sol\":3158:3231  (mystatus, ) = payable(msg.sender).call{value: address(this).balance}(\"\") */\n      pop\n      dup1\n      swap2\n      pop\n      pop\n        /* \"fundme/FundMe.sol\":3298:3306  mystatus */\n      dup1\n        /* \"fundme/FundMe.sol\":3290:3333  require(mystatus,\"owner's refund is Fail!\") */\n      tag_68\n      jumpi\n      mload(0x40)\n      0x08c379a000000000000000000000000000000000000000000000000000000000\n      dup2\n      mstore\n      0x04\n      add\n      tag_69\n      swap1\n      tag_70\n      jump\t// in\n    tag_69:\n      mload(0x40)\n      dup1\n      swap2\n      sub\n      swap1\n      revert\n    tag_68:\n        /* \"fundme/FundMe.sol\":3447:3448  0 */\n      0x00\n        /* \"fundme/FundMe.sol\":3417:3432  funderstoAmount */\n      0x02\n        /* \"fundme/FundMe.sol\":3417:3444  funderstoAmount[msg.sender] */\n      0x00\n        /* \"fundme/FundMe.sol\":3433:3443  msg.sender */\n      caller\n        /* \"fundme/FundMe.sol\":3417:3444  funderstoAmount[msg.sender] */\n      0xffffffffffffffffffffffffffffffffffffffff\n      and\n      0xffffffffffffffffffffffffffffffffffffffff\n      and\n      dup2\n      mstore\n      0x20\n      add\n      swap1\n      dup2\n      mstore\n      0x20\n      add\n      0x00\n      keccak256\n        /* \"fundme/FundMe.sol\":3417:3448  funderstoAmount[msg.sender] = 0 */\n      dup2\n      swap1\n      sstore\n      pop\n        /* \"fundme/FundMe.sol\":2426:3455  {... */\n      pop\n        /* \"fundme/FundMe.sol\":2391:3455  function Getmoneyifover() external {... */\n      jump\t// out\n        /* \"fundme/FundMe.sol\":745:807  mapping (address addr => uint256 much) public  funderstoAmount */\n    tag_20:\n      mstore(0x20, 0x02)\n      dup1\n      0x00\n      mstore\n      keccak256(0x00, 0x40)\n      0x00\n      swap2\n      pop\n      swap1\n      pop\n      sload\n      dup2\n      jump\t// out\n        /* \"fundme/FundMe.sol\":487:507  address public owner */\n    tag_25:\n      0x01\n      0x00\n      swap1\n      sload\n      swap1\n      0x0100\n      exp\n      swap1\n      div\n      0xffffffffffffffffffffffffffffffffffffffff\n      and\n      dup2\n      jump\t// out\n        /* \"fundme/FundMe.sol\":1125:1387  function fund() external payable {... */\n    tag_29:\n        /* \"fundme/FundMe.sol\":1295:1307  MINIUM_VALUE */\n      sload(0x03)\n        /* \"fundme/FundMe.sol\":1264:1291  convertETHtoUSDT(msg.value) */\n      tag_72\n        /* \"fundme/FundMe.sol\":1281:1290  msg.value */\n      callvalue\n        /* \"fundme/FundMe.sol\":1264:1280  convertETHtoUSDT */\n      tag_41\n        /* \"fundme/FundMe.sol\":1264:1291  convertETHtoUSDT(msg.value) */\n      jump\t// in\n    tag_72:\n        /* \"fundme/FundMe.sol\":1264:1307  convertETHtoUSDT(msg.value) >= MINIUM_VALUE */\n      lt\n      iszero\n        /* \"fundme/FundMe.sol\":1256:1333  require(convertETHtoUSDT(msg.value) >= MINIUM_VALUE,\"please send more money\") */\n      tag_73\n      jumpi\n      mload(0x40)\n      0x08c379a000000000000000000000000000000000000000000000000000000000\n      dup2\n      mstore\n      0x04\n      add\n      tag_74\n      swap1\n      tag_75\n      jump\t// in\n    tag_74:\n      mload(0x40)\n      dup1\n      swap2\n      sub\n      swap1\n      revert\n    tag_73:\n        /* \"fundme/FundMe.sol\":1371:1380  msg.value */\n      callvalue\n        /* \"fundme/FundMe.sol\":1343:1358  funderstoAmount */\n      0x02\n        /* \"fundme/FundMe.sol\":1343:1370  funderstoAmount[msg.sender] */\n      0x00\n        /* \"fundme/FundMe.sol\":1359:1369  msg.sender */\n      caller\n        /* \"fundme/FundMe.sol\":1343:1370  funderstoAmount[msg.sender] */\n      0xffffffffffffffffffffffffffffffffffffffff\n      and\n      0xffffffffffffffffffffffffffffffffffffffff\n      and\n      dup2\n      mstore\n      0x20\n      add\n      swap1\n      dup2\n      mstore\n      0x20\n      add\n      0x00\n      keccak256\n        /* \"fundme/FundMe.sol\":1343:1380  funderstoAmount[msg.sender]=msg.value */\n      dup2\n      swap1\n      sstore\n      pop\n        /* \"fundme/FundMe.sol\":1125:1387  function fund() external payable {... */\n      jump\t// out\n        /* \"fundme/FundMe.sol\":1394:1732  function getChainlinkDataFeedLatestAnswer() public view returns (int) {... */\n    tag_32:\n        /* \"fundme/FundMe.sol\":1459:1462  int */\n      0x00\n        /* \"fundme/FundMe.sol\":1549:1559  int answer */\n      dup1\n        /* \"fundme/FundMe.sol\":1676:1684  dataFeed */\n      0x00\n      dup1\n      sload\n      swap1\n      0x0100\n      exp\n      swap1\n      div\n      0xffffffffffffffffffffffffffffffffffffffff\n      and\n        /* \"fundme/FundMe.sol\":1676:1700  dataFeed.latestRoundData */\n      0xffffffffffffffffffffffffffffffffffffffff\n      and\n      0xfeaf968c\n        /* \"fundme/FundMe.sol\":1676:1702  dataFeed.latestRoundData() */\n      mload(0x40)\n      dup2\n      0xffffffff\n      and\n      0xe0\n      shl\n      dup2\n      mstore\n      0x04\n      add\n      0xa0\n      mload(0x40)\n      dup1\n      dup4\n      sub\n      dup2\n      dup7\n      gas\n      staticcall\n      iszero\n      dup1\n      iszero\n      tag_78\n      jumpi\n      returndatasize\n      0x00\n      dup1\n      returndatacopy\n      revert(0x00, returndatasize)\n    tag_78:\n      pop\n      pop\n      pop\n      pop\n      mload(0x40)\n      returndatasize\n      not(0x1f)\n      0x1f\n      dup3\n      add\n      and\n      dup3\n      add\n      dup1\n      0x40\n      mstore\n      pop\n      dup2\n      add\n      swap1\n      tag_79\n      swap2\n      swap1\n      tag_80\n      jump\t// in\n    tag_79:\n        /* \"fundme/FundMe.sol\":1501:1702  (... */\n      pop\n      pop\n      pop\n      swap2\n      pop\n      pop\n        /* \"fundme/FundMe.sol\":1719:1725  answer */\n      dup1\n        /* \"fundme/FundMe.sol\":1712:1725  return answer */\n      swap2\n      pop\n      pop\n        /* \"fundme/FundMe.sol\":1394:1732  function getChainlinkDataFeedLatestAnswer() public view returns (int) {... */\n      swap1\n      jump\t// out\n        /* \"fundme/FundMe.sol\":2103:2237  function Resetowner(address Newowner) public {... */\n    tag_38:\n        /* \"fundme/FundMe.sol\":2180:2185  owner */\n      0x01\n      0x00\n      swap1\n      sload\n      swap1\n      0x0100\n      exp\n      swap1\n      div\n      0xffffffffffffffffffffffffffffffffffffffff\n      and\n        /* \"fundme/FundMe.sol\":2166:2185  msg.sender == owner */\n      0xffffffffffffffffffffffffffffffffffffffff\n      and\n        /* \"fundme/FundMe.sol\":2166:2176  msg.sender */\n      caller\n        /* \"fundme/FundMe.sol\":2166:2185  msg.sender == owner */\n      0xffffffffffffffffffffffffffffffffffffffff\n      and\n      eq\n        /* \"fundme/FundMe.sol\":2158:2206  require(msg.sender == owner,\"you are not owner\") */\n      tag_82\n      jumpi\n      mload(0x40)\n      0x08c379a000000000000000000000000000000000000000000000000000000000\n      dup2\n      mstore\n      0x04\n      add\n      tag_83\n      swap1\n      tag_63\n      jump\t// in\n    tag_83:\n      mload(0x40)\n      dup1\n      swap2\n      sub\n      swap1\n      revert\n    tag_82:\n        /* \"fundme/FundMe.sol\":2222:2230  Newowner */\n      dup1\n        /* \"fundme/FundMe.sol\":2216:2221  owner */\n      0x01\n      0x00\n        /* \"fundme/FundMe.sol\":2216:2230  owner=Newowner */\n      0x0100\n      exp\n      dup2\n      sload\n      dup2\n      0xffffffffffffffffffffffffffffffffffffffff\n      mul\n      not\n      and\n      swap1\n      dup4\n      0xffffffffffffffffffffffffffffffffffffffff\n      and\n      mul\n      or\n      swap1\n      sstore\n      pop\n        /* \"fundme/FundMe.sol\":2103:2237  function Resetowner(address Newowner) public {... */\n      pop\n      jump\t// out\n        /* \"fundme/FundMe.sol\":1737:2026  function convertETHtoUSDT(uint256 getethnumber) internal view returns(uint256){... */\n    tag_41:\n        /* \"fundme/FundMe.sol\":1807:1814  uint256 */\n      0x00\n        /* \"fundme/FundMe.sol\":1825:1841  uint256 oneprice */\n      dup1\n        /* \"fundme/FundMe.sol\":1850:1884  getChainlinkDataFeedLatestAnswer() */\n      tag_85\n        /* \"fundme/FundMe.sol\":1850:1882  getChainlinkDataFeedLatestAnswer */\n      tag_32\n        /* \"fundme/FundMe.sol\":1850:1884  getChainlinkDataFeedLatestAnswer() */\n      jump\t// in\n    tag_85:\n        /* \"fundme/FundMe.sol\":1825:1885  uint256 oneprice=uint256(getChainlinkDataFeedLatestAnswer()) */\n      swap1\n      pop\n        /* \"fundme/FundMe.sol\":1929:1937  10 ** 26 */\n      0x52b7d2dcc80cd2e4000000\n        /* \"fundme/FundMe.sol\":1917:1925  oneprice */\n      dup2\n        /* \"fundme/FundMe.sol\":1902:1914  getethnumber */\n      dup5\n        /* \"fundme/FundMe.sol\":1902:1925  getethnumber * oneprice */\n      tag_86\n      swap2\n      swap1\n      tag_87\n      jump\t// in\n    tag_86:\n        /* \"fundme/FundMe.sol\":1902:1938  getethnumber * oneprice / (10 ** 26) */\n      tag_88\n      swap2\n      swap1\n      tag_89\n      jump\t// in\n    tag_88:\n        /* \"fundme/FundMe.sol\":1895:1938  return getethnumber * oneprice / (10 ** 26) */\n      swap2\n      pop\n      pop\n        /* \"fundme/FundMe.sol\":1737:2026  function convertETHtoUSDT(uint256 getethnumber) internal view returns(uint256){... */\n      swap2\n      swap1\n      pop\n      jump\t// out\n        /* \"#utility.yul\":88:205   */\n    tag_91:\n        /* \"#utility.yul\":197:198   */\n      0x00\n        /* \"#utility.yul\":194:195   */\n      dup1\n        /* \"#utility.yul\":187:199   */\n      revert\n        /* \"#utility.yul\":334:460   */\n    tag_93:\n        /* \"#utility.yul\":371:378   */\n      0x00\n        /* \"#utility.yul\":411:453   */\n      0xffffffffffffffffffffffffffffffffffffffff\n        /* \"#utility.yul\":404:409   */\n      dup3\n        /* \"#utility.yul\":400:454   */\n      and\n        /* \"#utility.yul\":389:454   */\n      swap1\n      pop\n        /* \"#utility.yul\":334:460   */\n      swap2\n      swap1\n      pop\n      jump\t// out\n        /* \"#utility.yul\":466:562   */\n    tag_94:\n        /* \"#utility.yul\":503:510   */\n      0x00\n        /* \"#utility.yul\":532:556   */\n      tag_135\n        /* \"#utility.yul\":550:555   */\n      dup3\n        /* \"#utility.yul\":532:556   */\n      tag_93\n      jump\t// in\n    tag_135:\n        /* \"#utility.yul\":521:556   */\n      swap1\n      pop\n        /* \"#utility.yul\":466:562   */\n      swap2\n      swap1\n      pop\n      jump\t// out\n        /* \"#utility.yul\":568:690   */\n    tag_95:\n        /* \"#utility.yul\":641:665   */\n      tag_137\n        /* \"#utility.yul\":659:664   */\n      dup2\n        /* \"#utility.yul\":641:665   */\n      tag_94\n      jump\t// in\n    tag_137:\n        /* \"#utility.yul\":634:639   */\n      dup2\n        /* \"#utility.yul\":631:666   */\n      eq\n        /* \"#utility.yul\":621:684   */\n      tag_138\n      jumpi\n        /* \"#utility.yul\":680:681   */\n      0x00\n        /* \"#utility.yul\":677:678   */\n      dup1\n        /* \"#utility.yul\":670:682   */\n      revert\n        /* \"#utility.yul\":621:684   */\n    tag_138:\n        /* \"#utility.yul\":568:690   */\n      pop\n      jump\t// out\n        /* \"#utility.yul\":696:835   */\n    tag_96:\n        /* \"#utility.yul\":742:747   */\n      0x00\n        /* \"#utility.yul\":780:786   */\n      dup2\n        /* \"#utility.yul\":767:787   */\n      calldataload\n        /* \"#utility.yul\":758:787   */\n      swap1\n      pop\n        /* \"#utility.yul\":796:829   */\n      tag_140\n        /* \"#utility.yul\":823:828   */\n      dup2\n        /* \"#utility.yul\":796:829   */\n      tag_95\n      jump\t// in\n    tag_140:\n        /* \"#utility.yul\":696:835   */\n      swap3\n      swap2\n      pop\n      pop\n      jump\t// out\n        /* \"#utility.yul\":841:1170   */\n    tag_19:\n        /* \"#utility.yul\":900:906   */\n      0x00\n        /* \"#utility.yul\":949:951   */\n      0x20\n        /* \"#utility.yul\":937:946   */\n      dup3\n        /* \"#utility.yul\":928:935   */\n      dup5\n        /* \"#utility.yul\":924:947   */\n      sub\n        /* \"#utility.yul\":920:952   */\n      slt\n        /* \"#utility.yul\":917:1036   */\n      iszero\n      tag_142\n      jumpi\n        /* \"#utility.yul\":955:1034   */\n      tag_143\n      tag_91\n      jump\t// in\n    tag_143:\n        /* \"#utility.yul\":917:1036   */\n    tag_142:\n        /* \"#utility.yul\":1075:1076   */\n      0x00\n        /* \"#utility.yul\":1100:1153   */\n      tag_144\n        /* \"#utility.yul\":1145:1152   */\n      dup5\n        /* \"#utility.yul\":1136:1142   */\n      dup3\n        /* \"#utility.yul\":1125:1134   */\n      dup6\n        /* \"#utility.yul\":1121:1143   */\n      add\n        /* \"#utility.yul\":1100:1153   */\n      tag_96\n      jump\t// in\n    tag_144:\n        /* \"#utility.yul\":1090:1153   */\n      swap2\n      pop\n        /* \"#utility.yul\":1046:1163   */\n      pop\n        /* \"#utility.yul\":841:1170   */\n      swap3\n      swap2\n      pop\n      pop\n      jump\t// out\n        /* \"#utility.yul\":1176:1253   */\n    tag_97:\n        /* \"#utility.yul\":1213:1220   */\n      0x00\n        /* \"#utility.yul\":1242:1247   */\n      dup2\n        /* \"#utility.yul\":1231:1247   */\n      swap1\n      pop\n        /* \"#utility.yul\":1176:1253   */\n      swap2\n      swap1\n      pop\n      jump\t// out\n        /* \"#utility.yul\":1259:1377   */\n    tag_98:\n        /* \"#utility.yul\":1346:1370   */\n      tag_147\n        /* \"#utility.yul\":1364:1369   */\n      dup2\n        /* \"#utility.yul\":1346:1370   */\n      tag_97\n      jump\t// in\n    tag_147:\n        /* \"#utility.yul\":1341:1344   */\n      dup3\n        /* \"#utility.yul\":1334:1371   */\n      mstore\n        /* \"#utility.yul\":1259:1377   */\n      pop\n      pop\n      jump\t// out\n        /* \"#utility.yul\":1383:1605   */\n    tag_22:\n        /* \"#utility.yul\":1476:1480   */\n      0x00\n        /* \"#utility.yul\":1514:1516   */\n      0x20\n        /* \"#utility.yul\":1503:1512   */\n      dup3\n        /* \"#utility.yul\":1499:1517   */\n      add\n        /* \"#utility.yul\":1491:1517   */\n      swap1\n      pop\n        /* \"#utility.yul\":1527:1598   */\n      tag_149\n        /* \"#utility.yul\":1595:1596   */\n      0x00\n        /* \"#utility.yul\":1584:1593   */\n      dup4\n        /* \"#utility.yul\":1580:1597   */\n      add\n        /* \"#utility.yul\":1571:1577   */\n      dup5\n        /* \"#utility.yul\":1527:1598   */\n      tag_98\n      jump\t// in\n    tag_149:\n        /* \"#utility.yul\":1383:1605   */\n      swap3\n      swap2\n      pop\n      pop\n      jump\t// out\n        /* \"#utility.yul\":1611:1729   */\n    tag_99:\n        /* \"#utility.yul\":1698:1722   */\n      tag_151\n        /* \"#utility.yul\":1716:1721   */\n      dup2\n        /* \"#utility.yul\":1698:1722   */\n      tag_94\n      jump\t// in\n    tag_151:\n        /* \"#utility.yul\":1693:1696   */\n      dup3\n        /* \"#utility.yul\":1686:1723   */\n      mstore\n        /* \"#utility.yul\":1611:1729   */\n      pop\n      pop\n      jump\t// out\n        /* \"#utility.yul\":1735:1957   */\n    tag_27:\n        /* \"#utility.yul\":1828:1832   */\n      0x00\n        /* \"#utility.yul\":1866:1868   */\n      0x20\n        /* \"#utility.yul\":1855:1864   */\n      dup3\n        /* \"#utility.yul\":1851:1869   */\n      add\n        /* \"#utility.yul\":1843:1869   */\n      swap1\n      pop\n        /* \"#utility.yul\":1879:1950   */\n      tag_153\n        /* \"#utility.yul\":1947:1948   */\n      0x00\n        /* \"#utility.yul\":1936:1945   */\n      dup4\n        /* \"#utility.yul\":1932:1949   */\n      add\n        /* \"#utility.yul\":1923:1929   */\n      dup5\n        /* \"#utility.yul\":1879:1950   */\n      tag_99\n      jump\t// in\n    tag_153:\n        /* \"#utility.yul\":1735:1957   */\n      swap3\n      swap2\n      pop\n      pop\n      jump\t// out\n        /* \"#utility.yul\":1963:2039   */\n    tag_100:\n        /* \"#utility.yul\":1999:2006   */\n      0x00\n        /* \"#utility.yul\":2028:2033   */\n      dup2\n        /* \"#utility.yul\":2017:2033   */\n      swap1\n      pop\n        /* \"#utility.yul\":1963:2039   */\n      swap2\n      swap1\n      pop\n      jump\t// out\n        /* \"#utility.yul\":2045:2160   */\n    tag_101:\n        /* \"#utility.yul\":2130:2153   */\n      tag_156\n        /* \"#utility.yul\":2147:2152   */\n      dup2\n        /* \"#utility.yul\":2130:2153   */\n      tag_100\n      jump\t// in\n    tag_156:\n        /* \"#utility.yul\":2125:2128   */\n      dup3\n        /* \"#utility.yul\":2118:2154   */\n      mstore\n        /* \"#utility.yul\":2045:2160   */\n      pop\n      pop\n      jump\t// out\n        /* \"#utility.yul\":2166:2384   */\n    tag_34:\n        /* \"#utility.yul\":2257:2261   */\n      0x00\n        /* \"#utility.yul\":2295:2297   */\n      0x20\n        /* \"#utility.yul\":2284:2293   */\n      dup3\n        /* \"#utility.yul\":2280:2298   */\n      add\n        /* \"#utility.yul\":2272:2298   */\n      swap1\n      pop\n        /* \"#utility.yul\":2308:2377   */\n      tag_158\n        /* \"#utility.yul\":2374:2375   */\n      0x00\n        /* \"#utility.yul\":2363:2372   */\n      dup4\n        /* \"#utility.yul\":2359:2376   */\n      add\n        /* \"#utility.yul\":2350:2356   */\n      dup5\n        /* \"#utility.yul\":2308:2377   */\n      tag_101\n      jump\t// in\n    tag_158:\n        /* \"#utility.yul\":2166:2384   */\n      swap3\n      swap2\n      pop\n      pop\n      jump\t// out\n        /* \"#utility.yul\":2390:2559   */\n    tag_102:\n        /* \"#utility.yul\":2474:2485   */\n      0x00\n        /* \"#utility.yul\":2508:2514   */\n      dup3\n        /* \"#utility.yul\":2503:2506   */\n      dup3\n        /* \"#utility.yul\":2496:2515   */\n      mstore\n        /* \"#utility.yul\":2548:2552   */\n      0x20\n        /* \"#utility.yul\":2543:2546   */\n      dup3\n        /* \"#utility.yul\":2539:2553   */\n      add\n        /* \"#utility.yul\":2524:2553   */\n      swap1\n      pop\n        /* \"#utility.yul\":2390:2559   */\n      swap3\n      swap2\n      pop\n      pop\n      jump\t// out\n        /* \"#utility.yul\":2565:2730   */\n    tag_103:\n        /* \"#utility.yul\":2705:2722   */\n      0x72656163682074686520464c4147210000000000000000000000000000000000\n        /* \"#utility.yul\":2701:2702   */\n      0x00\n        /* \"#utility.yul\":2693:2699   */\n      dup3\n        /* \"#utility.yul\":2689:2703   */\n      add\n        /* \"#utility.yul\":2682:2723   */\n      mstore\n        /* \"#utility.yul\":2565:2730   */\n      pop\n      jump\t// out\n        /* \"#utility.yul\":2736:3102   */\n    tag_104:\n        /* \"#utility.yul\":2878:2881   */\n      0x00\n        /* \"#utility.yul\":2899:2966   */\n      tag_162\n        /* \"#utility.yul\":2963:2965   */\n      0x0f\n        /* \"#utility.yul\":2958:2961   */\n      dup4\n        /* \"#utility.yul\":2899:2966   */\n      tag_102\n      jump\t// in\n    tag_162:\n        /* \"#utility.yul\":2892:2966   */\n      swap2\n      pop\n        /* \"#utility.yul\":2975:3068   */\n      tag_163\n        /* \"#utility.yul\":3064:3067   */\n      dup3\n        /* \"#utility.yul\":2975:3068   */\n      tag_103\n      jump\t// in\n    tag_163:\n        /* \"#utility.yul\":3093:3095   */\n      0x20\n        /* \"#utility.yul\":3088:3091   */\n      dup3\n        /* \"#utility.yul\":3084:3096   */\n      add\n        /* \"#utility.yul\":3077:3096   */\n      swap1\n      pop\n        /* \"#utility.yul\":2736:3102   */\n      swap2\n      swap1\n      pop\n      jump\t// out\n        /* \"#utility.yul\":3108:3527   */\n    tag_44:\n        /* \"#utility.yul\":3274:3278   */\n      0x00\n        /* \"#utility.yul\":3312:3314   */\n      0x20\n        /* \"#utility.yul\":3301:3310   */\n      dup3\n        /* \"#utility.yul\":3297:3315   */\n      add\n        /* \"#utility.yul\":3289:3315   */\n      swap1\n      pop\n        /* \"#utility.yul\":3361:3370   */\n      dup2\n        /* \"#utility.yul\":3355:3359   */\n      dup2\n        /* \"#utility.yul\":3351:3371   */\n      sub\n        /* \"#utility.yul\":3347:3348   */\n      0x00\n        /* \"#utility.yul\":3336:3345   */\n      dup4\n        /* \"#utility.yul\":3332:3349   */\n      add\n        /* \"#utility.yul\":3325:3372   */\n      mstore\n        /* \"#utility.yul\":3389:3520   */\n      tag_165\n        /* \"#utility.yul\":3515:3519   */\n      dup2\n        /* \"#utility.yul\":3389:3520   */\n      tag_104\n      jump\t// in\n    tag_165:\n        /* \"#utility.yul\":3381:3520   */\n      swap1\n      pop\n        /* \"#utility.yul\":3108:3527   */\n      swap2\n      swap1\n      pop\n      jump\t// out\n        /* \"#utility.yul\":3533:3706   */\n    tag_105:\n        /* \"#utility.yul\":3673:3698   */\n      0x7468657265206973206e6f20796f7572206d6f6e657921000000000000000000\n        /* \"#utility.yul\":3669:3670   */\n      0x00\n        /* \"#utility.yul\":3661:3667   */\n      dup3\n        /* \"#utility.yul\":3657:3671   */\n      add\n        /* \"#utility.yul\":3650:3699   */\n      mstore\n        /* \"#utility.yul\":3533:3706   */\n      pop\n      jump\t// out\n        /* \"#utility.yul\":3712:4078   */\n    tag_106:\n        /* \"#utility.yul\":3854:3857   */\n      0x00\n        /* \"#utility.yul\":3875:3942   */\n      tag_168\n        /* \"#utility.yul\":3939:3941   */\n      0x17\n        /* \"#utility.yul\":3934:3937   */\n      dup4\n        /* \"#utility.yul\":3875:3942   */\n      tag_102\n      jump\t// in\n    tag_168:\n        /* \"#utility.yul\":3868:3942   */\n      swap2\n      pop\n        /* \"#utility.yul\":3951:4044   */\n      tag_169\n        /* \"#utility.yul\":4040:4043   */\n      dup3\n        /* \"#utility.yul\":3951:4044   */\n      tag_105\n      jump\t// in\n    tag_169:\n        /* \"#utility.yul\":4069:4071   */\n      0x20\n        /* \"#utility.yul\":4064:4067   */\n      dup3\n        /* \"#utility.yul\":4060:4072   */\n      add\n        /* \"#utility.yul\":4053:4072   */\n      swap1\n      pop\n        /* \"#utility.yul\":3712:4078   */\n      swap2\n      swap1\n      pop\n      jump\t// out\n        /* \"#utility.yul\":4084:4503   */\n    tag_47:\n        /* \"#utility.yul\":4250:4254   */\n      0x00\n        /* \"#utility.yul\":4288:4290   */\n      0x20\n        /* \"#utility.yul\":4277:4286   */\n      dup3\n        /* \"#utility.yul\":4273:4291   */\n      add\n        /* \"#utility.yul\":4265:4291   */\n      swap1\n      pop\n        /* \"#utility.yul\":4337:4346   */\n      dup2\n        /* \"#utility.yul\":4331:4335   */\n      dup2\n        /* \"#utility.yul\":4327:4347   */\n      sub\n        /* \"#utility.yul\":4323:4324   */\n      0x00\n        /* \"#utility.yul\":4312:4321   */\n      dup4\n        /* \"#utility.yul\":4308:4325   */\n      add\n        /* \"#utility.yul\":4301:4348   */\n      mstore\n        /* \"#utility.yul\":4365:4496   */\n      tag_171\n        /* \"#utility.yul\":4491:4495   */\n      dup2\n        /* \"#utility.yul\":4365:4496   */\n      tag_106\n      jump\t// in\n    tag_171:\n        /* \"#utility.yul\":4357:4496   */\n      swap1\n      pop\n        /* \"#utility.yul\":4084:4503   */\n      swap2\n      swap1\n      pop\n      jump\t// out\n        /* \"#utility.yul\":4509:4656   */\n    tag_107:\n        /* \"#utility.yul\":4610:4621   */\n      0x00\n        /* \"#utility.yul\":4647:4650   */\n      dup2\n        /* \"#utility.yul\":4632:4650   */\n      swap1\n      pop\n        /* \"#utility.yul\":4509:4656   */\n      swap3\n      swap2\n      pop\n      pop\n      jump\t// out\n        /* \"#utility.yul\":4662:4776   */\n    tag_108:\n      pop\n      jump\t// out\n        /* \"#utility.yul\":4782:5180   */\n    tag_109:\n        /* \"#utility.yul\":4941:4944   */\n      0x00\n        /* \"#utility.yul\":4962:5045   */\n      tag_175\n        /* \"#utility.yul\":5043:5044   */\n      0x00\n        /* \"#utility.yul\":5038:5041   */\n      dup4\n        /* \"#utility.yul\":4962:5045   */\n      tag_107\n      jump\t// in\n    tag_175:\n        /* \"#utility.yul\":4955:5045   */\n      swap2\n      pop\n        /* \"#utility.yul\":5054:5147   */\n      tag_176\n        /* \"#utility.yul\":5143:5146   */\n      dup3\n        /* \"#utility.yul\":5054:5147   */\n      tag_108\n      jump\t// in\n    tag_176:\n        /* \"#utility.yul\":5172:5173   */\n      0x00\n        /* \"#utility.yul\":5167:5170   */\n      dup3\n        /* \"#utility.yul\":5163:5174   */\n      add\n        /* \"#utility.yul\":5156:5174   */\n      swap1\n      pop\n        /* \"#utility.yul\":4782:5180   */\n      swap2\n      swap1\n      pop\n      jump\t// out\n        /* \"#utility.yul\":5186:5565   */\n    tag_49:\n        /* \"#utility.yul\":5370:5373   */\n      0x00\n        /* \"#utility.yul\":5392:5539   */\n      tag_178\n        /* \"#utility.yul\":5535:5538   */\n      dup3\n        /* \"#utility.yul\":5392:5539   */\n      tag_109\n      jump\t// in\n    tag_178:\n        /* \"#utility.yul\":5385:5539   */\n      swap2\n      pop\n        /* \"#utility.yul\":5556:5559   */\n      dup2\n        /* \"#utility.yul\":5549:5559   */\n      swap1\n      pop\n        /* \"#utility.yul\":5186:5565   */\n      swap2\n      swap1\n      pop\n      jump\t// out\n        /* \"#utility.yul\":5571:5733   */\n    tag_110:\n        /* \"#utility.yul\":5711:5725   */\n      0x726566756e64204661696c210000000000000000000000000000000000000000\n        /* \"#utility.yul\":5707:5708   */\n      0x00\n        /* \"#utility.yul\":5699:5705   */\n      dup3\n        /* \"#utility.yul\":5695:5709   */\n      add\n        /* \"#utility.yul\":5688:5726   */\n      mstore\n        /* \"#utility.yul\":5571:5733   */\n      pop\n      jump\t// out\n        /* \"#utility.yul\":5739:6105   */\n    tag_111:\n        /* \"#utility.yul\":5881:5884   */\n      0x00\n        /* \"#utility.yul\":5902:5969   */\n      tag_181\n        /* \"#utility.yul\":5966:5968   */\n      0x0c\n        /* \"#utility.yul\":5961:5964   */\n      dup4\n        /* \"#utility.yul\":5902:5969   */\n      tag_102\n      jump\t// in\n    tag_181:\n        /* \"#utility.yul\":5895:5969   */\n      swap2\n      pop\n        /* \"#utility.yul\":5978:6071   */\n      tag_182\n        /* \"#utility.yul\":6067:6070   */\n      dup3\n        /* \"#utility.yul\":5978:6071   */\n      tag_110\n      jump\t// in\n    tag_182:\n        /* \"#utility.yul\":6096:6098   */\n      0x20\n        /* \"#utility.yul\":6091:6094   */\n      dup3\n        /* \"#utility.yul\":6087:6099   */\n      add\n        /* \"#utility.yul\":6080:6099   */\n      swap1\n      pop\n        /* \"#utility.yul\":5739:6105   */\n      swap2\n      swap1\n      pop\n      jump\t// out\n        /* \"#utility.yul\":6111:6530   */\n    tag_55:\n        /* \"#utility.yul\":6277:6281   */\n      0x00\n        /* \"#utility.yul\":6315:6317   */\n      0x20\n        /* \"#utility.yul\":6304:6313   */\n      dup3\n        /* \"#utility.yul\":6300:6318   */\n      add\n        /* \"#utility.yul\":6292:6318   */\n      swap1\n      pop\n        /* \"#utility.yul\":6364:6373   */\n      dup2\n        /* \"#utility.yul\":6358:6362   */\n      dup2\n        /* \"#utility.yul\":6354:6374   */\n      sub\n        /* \"#utility.yul\":6350:6351   */\n      0x00\n        /* \"#utility.yul\":6339:6348   */\n      dup4\n        /* \"#utility.yul\":6335:6352   */\n      add\n        /* \"#utility.yul\":6328:6375   */\n      mstore\n        /* \"#utility.yul\":6392:6523   */\n      tag_184\n        /* \"#utility.yul\":6518:6522   */\n      dup2\n        /* \"#utility.yul\":6392:6523   */\n      tag_111\n      jump\t// in\n    tag_184:\n        /* \"#utility.yul\":6384:6523   */\n      swap1\n      pop\n        /* \"#utility.yul\":6111:6530   */\n      swap2\n      swap1\n      pop\n      jump\t// out\n        /* \"#utility.yul\":6536:6715   */\n    tag_112:\n        /* \"#utility.yul\":6676:6707   */\n      0x62616c616e6365206973206e6f7420726561636820746f20464c414721000000\n        /* \"#utility.yul\":6672:6673   */\n      0x00\n        /* \"#utility.yul\":6664:6670   */\n      dup3\n        /* \"#utility.yul\":6660:6674   */\n      add\n        /* \"#utility.yul\":6653:6708   */\n      mstore\n        /* \"#utility.yul\":6536:6715   */\n      pop\n      jump\t// out\n        /* \"#utility.yul\":6721:7087   */\n    tag_113:\n        /* \"#utility.yul\":6863:6866   */\n      0x00\n        /* \"#utility.yul\":6884:6951   */\n      tag_187\n        /* \"#utility.yul\":6948:6950   */\n      0x1d\n        /* \"#utility.yul\":6943:6946   */\n      dup4\n        /* \"#utility.yul\":6884:6951   */\n      tag_102\n      jump\t// in\n    tag_187:\n        /* \"#utility.yul\":6877:6951   */\n      swap2\n      pop\n        /* \"#utility.yul\":6960:7053   */\n      tag_188\n        /* \"#utility.yul\":7049:7052   */\n      dup3\n        /* \"#utility.yul\":6960:7053   */\n      tag_112\n      jump\t// in\n    tag_188:\n        /* \"#utility.yul\":7078:7080   */\n      0x20\n        /* \"#utility.yul\":7073:7076   */\n      dup3\n        /* \"#utility.yul\":7069:7081   */\n      add\n        /* \"#utility.yul\":7062:7081   */\n      swap1\n      pop\n        /* \"#utility.yul\":6721:7087   */\n      swap2\n      swap1\n      pop\n      jump\t// out\n        /* \"#utility.yul\":7093:7512   */\n    tag_60:\n        /* \"#utility.yul\":7259:7263   */\n      0x00\n        /* \"#utility.yul\":7297:7299   */\n      0x20\n        /* \"#utility.yul\":7286:7295   */\n      dup3\n        /* \"#utility.yul\":7282:7300   */\n      add\n        /* \"#utility.yul\":7274:7300   */\n      swap1\n      pop\n        /* \"#utility.yul\":7346:7355   */\n      dup2\n        /* \"#utility.yul\":7340:7344   */\n      dup2\n        /* \"#utility.yul\":7336:7356   */\n      sub\n        /* \"#utility.yul\":7332:7333   */\n      0x00\n        /* \"#utility.yul\":7321:7330   */\n      dup4\n        /* \"#utility.yul\":7317:7334   */\n      add\n        /* \"#utility.yul\":7310:7357   */\n      mstore\n        /* \"#utility.yul\":7374:7505   */\n      tag_190\n        /* \"#utility.yul\":7500:7504   */\n      dup2\n        /* \"#utility.yul\":7374:7505   */\n      tag_113\n      jump\t// in\n    tag_190:\n        /* \"#utility.yul\":7366:7505   */\n      swap1\n      pop\n        /* \"#utility.yul\":7093:7512   */\n      swap2\n      swap1\n      pop\n      jump\t// out\n        /* \"#utility.yul\":7518:7685   */\n    tag_114:\n        /* \"#utility.yul\":7658:7677   */\n      0x796f7520617265206e6f74206f776e6572000000000000000000000000000000\n        /* \"#utility.yul\":7654:7655   */\n      0x00\n        /* \"#utility.yul\":7646:7652   */\n      dup3\n        /* \"#utility.yul\":7642:7656   */\n      add\n        /* \"#utility.yul\":7635:7678   */\n      mstore\n        /* \"#utility.yul\":7518:7685   */\n      pop\n      jump\t// out\n        /* \"#utility.yul\":7691:8057   */\n    tag_115:\n        /* \"#utility.yul\":7833:7836   */\n      0x00\n        /* \"#utility.yul\":7854:7921   */\n      tag_193\n        /* \"#utility.yul\":7918:7920   */\n      0x11\n        /* \"#utility.yul\":7913:7916   */\n      dup4\n        /* \"#utility.yul\":7854:7921   */\n      tag_102\n      jump\t// in\n    tag_193:\n        /* \"#utility.yul\":7847:7921   */\n      swap2\n      pop\n        /* \"#utility.yul\":7930:8023   */\n      tag_194\n        /* \"#utility.yul\":8019:8022   */\n      dup3\n        /* \"#utility.yul\":7930:8023   */\n      tag_114\n      jump\t// in\n    tag_194:\n        /* \"#utility.yul\":8048:8050   */\n      0x20\n        /* \"#utility.yul\":8043:8046   */\n      dup3\n        /* \"#utility.yul\":8039:8051   */\n      add\n        /* \"#utility.yul\":8032:8051   */\n      swap1\n      pop\n        /* \"#utility.yul\":7691:8057   */\n      swap2\n      swap1\n      pop\n      jump\t// out\n        /* \"#utility.yul\":8063:8482   */\n    tag_63:\n        /* \"#utility.yul\":8229:8233   */\n      0x00\n        /* \"#utility.yul\":8267:8269   */\n      0x20\n        /* \"#utility.yul\":8256:8265   */\n      dup3\n        /* \"#utility.yul\":8252:8270   */\n      add\n        /* \"#utility.yul\":8244:8270   */\n      swap1\n      pop\n        /* \"#utility.yul\":8316:8325   */\n      dup2\n        /* \"#utility.yul\":8310:8314   */\n      dup2\n        /* \"#utility.yul\":8306:8326   */\n      sub\n        /* \"#utility.yul\":8302:8303   */\n      0x00\n        /* \"#utility.yul\":8291:8300   */\n      dup4\n        /* \"#utility.yul\":8287:8304   */\n      add\n        /* \"#utility.yul\":8280:8327   */\n      mstore\n        /* \"#utility.yul\":8344:8475   */\n      tag_196\n        /* \"#utility.yul\":8470:8474   */\n      dup2\n        /* \"#utility.yul\":8344:8475   */\n      tag_115\n      jump\t// in\n    tag_196:\n        /* \"#utility.yul\":8336:8475   */\n      swap1\n      pop\n        /* \"#utility.yul\":8063:8482   */\n      swap2\n      swap1\n      pop\n      jump\t// out\n        /* \"#utility.yul\":8488:8661   */\n    tag_116:\n        /* \"#utility.yul\":8628:8653   */\n      0x6f776e6572277320726566756e64206973204661696c21000000000000000000\n        /* \"#utility.yul\":8624:8625   */\n      0x00\n        /* \"#utility.yul\":8616:8622   */\n      dup3\n        /* \"#utility.yul\":8612:8626   */\n      add\n        /* \"#utility.yul\":8605:8654   */\n      mstore\n        /* \"#utility.yul\":8488:8661   */\n      pop\n      jump\t// out\n        /* \"#utility.yul\":8667:9033   */\n    tag_117:\n        /* \"#utility.yul\":8809:8812   */\n      0x00\n        /* \"#utility.yul\":8830:8897   */\n      tag_199\n        /* \"#utility.yul\":8894:8896   */\n      0x17\n        /* \"#utility.yul\":8889:8892   */\n      dup4\n        /* \"#utility.yul\":8830:8897   */\n      tag_102\n      jump\t// in\n    tag_199:\n        /* \"#utility.yul\":8823:8897   */\n      swap2\n      pop\n        /* \"#utility.yul\":8906:8999   */\n      tag_200\n        /* \"#utility.yul\":8995:8998   */\n      dup3\n        /* \"#utility.yul\":8906:8999   */\n      tag_116\n      jump\t// in\n    tag_200:\n        /* \"#utility.yul\":9024:9026   */\n      0x20\n        /* \"#utility.yul\":9019:9022   */\n      dup3\n        /* \"#utility.yul\":9015:9027   */\n      add\n        /* \"#utility.yul\":9008:9027   */\n      swap1\n      pop\n        /* \"#utility.yul\":8667:9033   */\n      swap2\n      swap1\n      pop\n      jump\t// out\n        /* \"#utility.yul\":9039:9458   */\n    tag_70:\n        /* \"#utility.yul\":9205:9209   */\n      0x00\n        /* \"#utility.yul\":9243:9245   */\n      0x20\n        /* \"#utility.yul\":9232:9241   */\n      dup3\n        /* \"#utility.yul\":9228:9246   */\n      add\n        /* \"#utility.yul\":9220:9246   */\n      swap1\n      pop\n        /* \"#utility.yul\":9292:9301   */\n      dup2\n        /* \"#utility.yul\":9286:9290   */\n      dup2\n        /* \"#utility.yul\":9282:9302   */\n      sub\n        /* \"#utility.yul\":9278:9279   */\n      0x00\n        /* \"#utility.yul\":9267:9276   */\n      dup4\n        /* \"#utility.yul\":9263:9280   */\n      add\n        /* \"#utility.yul\":9256:9303   */\n      mstore\n        /* \"#utility.yul\":9320:9451   */\n      tag_202\n        /* \"#utility.yul\":9446:9450   */\n      dup2\n        /* \"#utility.yul\":9320:9451   */\n      tag_117\n      jump\t// in\n    tag_202:\n        /* \"#utility.yul\":9312:9451   */\n      swap1\n      pop\n        /* \"#utility.yul\":9039:9458   */\n      swap2\n      swap1\n      pop\n      jump\t// out\n        /* \"#utility.yul\":9464:9636   */\n    tag_118:\n        /* \"#utility.yul\":9604:9628   */\n      0x706c656173652073656e64206d6f7265206d6f6e657900000000000000000000\n        /* \"#utility.yul\":9600:9601   */\n      0x00\n        /* \"#utility.yul\":9592:9598   */\n      dup3\n        /* \"#utility.yul\":9588:9602   */\n      add\n        /* \"#utility.yul\":9581:9629   */\n      mstore\n        /* \"#utility.yul\":9464:9636   */\n      pop\n      jump\t// out\n        /* \"#utility.yul\":9642:10008   */\n    tag_119:\n        /* \"#utility.yul\":9784:9787   */\n      0x00\n        /* \"#utility.yul\":9805:9872   */\n      tag_205\n        /* \"#utility.yul\":9869:9871   */\n      0x16\n        /* \"#utility.yul\":9864:9867   */\n      dup4\n        /* \"#utility.yul\":9805:9872   */\n      tag_102\n      jump\t// in\n    tag_205:\n        /* \"#utility.yul\":9798:9872   */\n      swap2\n      pop\n        /* \"#utility.yul\":9881:9974   */\n      tag_206\n        /* \"#utility.yul\":9970:9973   */\n      dup3\n        /* \"#utility.yul\":9881:9974   */\n      tag_118\n      jump\t// in\n    tag_206:\n        /* \"#utility.yul\":9999:10001   */\n      0x20\n        /* \"#utility.yul\":9994:9997   */\n      dup3\n        /* \"#utility.yul\":9990:10002   */\n      add\n        /* \"#utility.yul\":9983:10002   */\n      swap1\n      pop\n        /* \"#utility.yul\":9642:10008   */\n      swap2\n      swap1\n      pop\n      jump\t// out\n        /* \"#utility.yul\":10014:10433   */\n    tag_75:\n        /* \"#utility.yul\":10180:10184   */\n      0x00\n        /* \"#utility.yul\":10218:10220   */\n      0x20\n        /* \"#utility.yul\":10207:10216   */\n      dup3\n        /* \"#utility.yul\":10203:10221   */\n      add\n        /* \"#utility.yul\":10195:10221   */\n      swap1\n      pop\n        /* \"#utility.yul\":10267:10276   */\n      dup2\n        /* \"#utility.yul\":10261:10265   */\n      dup2\n        /* \"#utility.yul\":10257:10277   */\n      sub\n        /* \"#utility.yul\":10253:10254   */\n      0x00\n        /* \"#utility.yul\":10242:10251   */\n      dup4\n        /* \"#utility.yul\":10238:10255   */\n      add\n        /* \"#utility.yul\":10231:10278   */\n      mstore\n        /* \"#utility.yul\":10295:10426   */\n      tag_208\n        /* \"#utility.yul\":10421:10425   */\n      dup2\n        /* \"#utility.yul\":10295:10426   */\n      tag_119\n      jump\t// in\n    tag_208:\n        /* \"#utility.yul\":10287:10426   */\n      swap1\n      pop\n        /* \"#utility.yul\":10014:10433   */\n      swap2\n      swap1\n      pop\n      jump\t// out\n        /* \"#utility.yul\":10439:10544   */\n    tag_120:\n        /* \"#utility.yul\":10475:10482   */\n      0x00\n        /* \"#utility.yul\":10515:10537   */\n      0xffffffffffffffffffff\n        /* \"#utility.yul\":10508:10513   */\n      dup3\n        /* \"#utility.yul\":10504:10538   */\n      and\n        /* \"#utility.yul\":10493:10538   */\n      swap1\n      pop\n        /* \"#utility.yul\":10439:10544   */\n      swap2\n      swap1\n      pop\n      jump\t// out\n        /* \"#utility.yul\":10550:10670   */\n    tag_121:\n        /* \"#utility.yul\":10622:10645   */\n      tag_211\n        /* \"#utility.yul\":10639:10644   */\n      dup2\n        /* \"#utility.yul\":10622:10645   */\n      tag_120\n      jump\t// in\n    tag_211:\n        /* \"#utility.yul\":10615:10620   */\n      dup2\n        /* \"#utility.yul\":10612:10646   */\n      eq\n        /* \"#utility.yul\":10602:10664   */\n      tag_212\n      jumpi\n        /* \"#utility.yul\":10660:10661   */\n      0x00\n        /* \"#utility.yul\":10657:10658   */\n      dup1\n        /* \"#utility.yul\":10650:10662   */\n      revert\n        /* \"#utility.yul\":10602:10664   */\n    tag_212:\n        /* \"#utility.yul\":10550:10670   */\n      pop\n      jump\t// out\n        /* \"#utility.yul\":10676:10817   */\n    tag_122:\n        /* \"#utility.yul\":10732:10737   */\n      0x00\n        /* \"#utility.yul\":10763:10769   */\n      dup2\n        /* \"#utility.yul\":10757:10770   */\n      mload\n        /* \"#utility.yul\":10748:10770   */\n      swap1\n      pop\n        /* \"#utility.yul\":10779:10811   */\n      tag_214\n        /* \"#utility.yul\":10805:10810   */\n      dup2\n        /* \"#utility.yul\":10779:10811   */\n      tag_121\n      jump\t// in\n    tag_214:\n        /* \"#utility.yul\":10676:10817   */\n      swap3\n      swap2\n      pop\n      pop\n      jump\t// out\n        /* \"#utility.yul\":10823:10943   */\n    tag_123:\n        /* \"#utility.yul\":10895:10918   */\n      tag_216\n        /* \"#utility.yul\":10912:10917   */\n      dup2\n        /* \"#utility.yul\":10895:10918   */\n      tag_100\n      jump\t// in\n    tag_216:\n        /* \"#utility.yul\":10888:10893   */\n      dup2\n        /* \"#utility.yul\":10885:10919   */\n      eq\n        /* \"#utility.yul\":10875:10937   */\n      tag_217\n      jumpi\n        /* \"#utility.yul\":10933:10934   */\n      0x00\n        /* \"#utility.yul\":10930:10931   */\n      dup1\n        /* \"#utility.yul\":10923:10935   */\n      revert\n        /* \"#utility.yul\":10875:10937   */\n    tag_217:\n        /* \"#utility.yul\":10823:10943   */\n      pop\n      jump\t// out\n        /* \"#utility.yul\":10949:11090   */\n    tag_124:\n        /* \"#utility.yul\":11005:11010   */\n      0x00\n        /* \"#utility.yul\":11036:11042   */\n      dup2\n        /* \"#utility.yul\":11030:11043   */\n      mload\n        /* \"#utility.yul\":11021:11043   */\n      swap1\n      pop\n        /* \"#utility.yul\":11052:11084   */\n      tag_219\n        /* \"#utility.yul\":11078:11083   */\n      dup2\n        /* \"#utility.yul\":11052:11084   */\n      tag_123\n      jump\t// in\n    tag_219:\n        /* \"#utility.yul\":10949:11090   */\n      swap3\n      swap2\n      pop\n      pop\n      jump\t// out\n        /* \"#utility.yul\":11096:11218   */\n    tag_125:\n        /* \"#utility.yul\":11169:11193   */\n      tag_221\n        /* \"#utility.yul\":11187:11192   */\n      dup2\n        /* \"#utility.yul\":11169:11193   */\n      tag_97\n      jump\t// in\n    tag_221:\n        /* \"#utility.yul\":11162:11167   */\n      dup2\n        /* \"#utility.yul\":11159:11194   */\n      eq\n        /* \"#utility.yul\":11149:11212   */\n      tag_222\n      jumpi\n        /* \"#utility.yul\":11208:11209   */\n      0x00\n        /* \"#utility.yul\":11205:11206   */\n      dup1\n        /* \"#utility.yul\":11198:11210   */\n      revert\n        /* \"#utility.yul\":11149:11212   */\n    tag_222:\n        /* \"#utility.yul\":11096:11218   */\n      pop\n      jump\t// out\n        /* \"#utility.yul\":11224:11367   */\n    tag_126:\n        /* \"#utility.yul\":11281:11286   */\n      0x00\n        /* \"#utility.yul\":11312:11318   */\n      dup2\n        /* \"#utility.yul\":11306:11319   */\n      mload\n        /* \"#utility.yul\":11297:11319   */\n      swap1\n      pop\n        /* \"#utility.yul\":11328:11361   */\n      tag_224\n        /* \"#utility.yul\":11355:11360   */\n      dup2\n        /* \"#utility.yul\":11328:11361   */\n      tag_125\n      jump\t// in\n    tag_224:\n        /* \"#utility.yul\":11224:11367   */\n      swap3\n      swap2\n      pop\n      pop\n      jump\t// out\n        /* \"#utility.yul\":11373:12344   */\n    tag_80:\n        /* \"#utility.yul\":11476:11482   */\n      0x00\n        /* \"#utility.yul\":11484:11490   */\n      dup1\n        /* \"#utility.yul\":11492:11498   */\n      0x00\n        /* \"#utility.yul\":11500:11506   */\n      dup1\n        /* \"#utility.yul\":11508:11514   */\n      0x00\n        /* \"#utility.yul\":11557:11560   */\n      0xa0\n        /* \"#utility.yul\":11545:11554   */\n      dup7\n        /* \"#utility.yul\":11536:11543   */\n      dup9\n        /* \"#utility.yul\":11532:11555   */\n      sub\n        /* \"#utility.yul\":11528:11561   */\n      slt\n        /* \"#utility.yul\":11525:11645   */\n      iszero\n      tag_226\n      jumpi\n        /* \"#utility.yul\":11564:11643   */\n      tag_227\n      tag_91\n      jump\t// in\n    tag_227:\n        /* \"#utility.yul\":11525:11645   */\n    tag_226:\n        /* \"#utility.yul\":11684:11685   */\n      0x00\n        /* \"#utility.yul\":11709:11772   */\n      tag_228\n        /* \"#utility.yul\":11764:11771   */\n      dup9\n        /* \"#utility.yul\":11755:11761   */\n      dup3\n        /* \"#utility.yul\":11744:11753   */\n      dup10\n        /* \"#utility.yul\":11740:11762   */\n      add\n        /* \"#utility.yul\":11709:11772   */\n      tag_122\n      jump\t// in\n    tag_228:\n        /* \"#utility.yul\":11699:11772   */\n      swap6\n      pop\n        /* \"#utility.yul\":11655:11782   */\n      pop\n        /* \"#utility.yul\":11821:11823   */\n      0x20\n        /* \"#utility.yul\":11847:11910   */\n      tag_229\n        /* \"#utility.yul\":11902:11909   */\n      dup9\n        /* \"#utility.yul\":11893:11899   */\n      dup3\n        /* \"#utility.yul\":11882:11891   */\n      dup10\n        /* \"#utility.yul\":11878:11900   */\n      add\n        /* \"#utility.yul\":11847:11910   */\n      tag_124\n      jump\t// in\n    tag_229:\n        /* \"#utility.yul\":11837:11910   */\n      swap5\n      pop\n        /* \"#utility.yul\":11792:11920   */\n      pop\n        /* \"#utility.yul\":11959:11961   */\n      0x40\n        /* \"#utility.yul\":11985:12049   */\n      tag_230\n        /* \"#utility.yul\":12041:12048   */\n      dup9\n        /* \"#utility.yul\":12032:12038   */\n      dup3\n        /* \"#utility.yul\":12021:12030   */\n      dup10\n        /* \"#utility.yul\":12017:12039   */\n      add\n        /* \"#utility.yul\":11985:12049   */\n      tag_126\n      jump\t// in\n    tag_230:\n        /* \"#utility.yul\":11975:12049   */\n      swap4\n      pop\n        /* \"#utility.yul\":11930:12059   */\n      pop\n        /* \"#utility.yul\":12098:12100   */\n      0x60\n        /* \"#utility.yul\":12124:12188   */\n      tag_231\n        /* \"#utility.yul\":12180:12187   */\n      dup9\n        /* \"#utility.yul\":12171:12177   */\n      dup3\n        /* \"#utility.yul\":12160:12169   */\n      dup10\n        /* \"#utility.yul\":12156:12178   */\n      add\n        /* \"#utility.yul\":12124:12188   */\n      tag_126\n      jump\t// in\n    tag_231:\n        /* \"#utility.yul\":12114:12188   */\n      swap3\n      pop\n        /* \"#utility.yul\":12069:12198   */\n      pop\n        /* \"#utility.yul\":12237:12240   */\n      0x80\n        /* \"#utility.yul\":12264:12327   */\n      tag_232\n        /* \"#utility.yul\":12319:12326   */\n      dup9\n        /* \"#utility.yul\":12310:12316   */\n      dup3\n        /* \"#utility.yul\":12299:12308   */\n      dup10\n        /* \"#utility.yul\":12295:12317   */\n      add\n        /* \"#utility.yul\":12264:12327   */\n      tag_122\n      jump\t// in\n    tag_232:\n        /* \"#utility.yul\":12254:12327   */\n      swap2\n      pop\n        /* \"#utility.yul\":12208:12337   */\n      pop\n        /* \"#utility.yul\":11373:12344   */\n      swap3\n      swap6\n      pop\n      swap3\n      swap6\n      swap1\n      swap4\n      pop\n      jump\t// out\n        /* \"#utility.yul\":12350:12530   */\n    tag_127:\n        /* \"#utility.yul\":12398:12475   */\n      0x4e487b7100000000000000000000000000000000000000000000000000000000\n        /* \"#utility.yul\":12395:12396   */\n      0x00\n        /* \"#utility.yul\":12388:12476   */\n      mstore\n        /* \"#utility.yul\":12495:12499   */\n      0x11\n        /* \"#utility.yul\":12492:12493   */\n      0x04\n        /* \"#utility.yul\":12485:12500   */\n      mstore\n        /* \"#utility.yul\":12519:12523   */\n      0x24\n        /* \"#utility.yul\":12516:12517   */\n      0x00\n        /* \"#utility.yul\":12509:12524   */\n      revert\n        /* \"#utility.yul\":12536:12946   */\n    tag_87:\n        /* \"#utility.yul\":12576:12583   */\n      0x00\n        /* \"#utility.yul\":12599:12619   */\n      tag_235\n        /* \"#utility.yul\":12617:12618   */\n      dup3\n        /* \"#utility.yul\":12599:12619   */\n      tag_97\n      jump\t// in\n    tag_235:\n        /* \"#utility.yul\":12594:12619   */\n      swap2\n      pop\n        /* \"#utility.yul\":12633:12653   */\n      tag_236\n        /* \"#utility.yul\":12651:12652   */\n      dup4\n        /* \"#utility.yul\":12633:12653   */\n      tag_97\n      jump\t// in\n    tag_236:\n        /* \"#utility.yul\":12628:12653   */\n      swap3\n      pop\n        /* \"#utility.yul\":12688:12689   */\n      dup3\n        /* \"#utility.yul\":12685:12686   */\n      dup3\n        /* \"#utility.yul\":12681:12690   */\n      mul\n        /* \"#utility.yul\":12710:12740   */\n      tag_237\n        /* \"#utility.yul\":12728:12739   */\n      dup2\n        /* \"#utility.yul\":12710:12740   */\n      tag_97\n      jump\t// in\n    tag_237:\n        /* \"#utility.yul\":12699:12740   */\n      swap2\n      pop\n        /* \"#utility.yul\":12889:12890   */\n      dup3\n        /* \"#utility.yul\":12880:12887   */\n      dup3\n        /* \"#utility.yul\":12876:12891   */\n      div\n        /* \"#utility.yul\":12873:12874   */\n      dup5\n        /* \"#utility.yul\":12870:12892   */\n      eq\n        /* \"#utility.yul\":12850:12851   */\n      dup4\n        /* \"#utility.yul\":12843:12852   */\n      iszero\n        /* \"#utility.yul\":12823:12906   */\n      or\n        /* \"#utility.yul\":12800:12939   */\n      tag_238\n      jumpi\n        /* \"#utility.yul\":12919:12937   */\n      tag_239\n      tag_127\n      jump\t// in\n    tag_239:\n        /* \"#utility.yul\":12800:12939   */\n    tag_238:\n        /* \"#utility.yul\":12584:12946   */\n      pop\n        /* \"#utility.yul\":12536:12946   */\n      swap3\n      swap2\n      pop\n      pop\n      jump\t// out\n        /* \"#utility.yul\":12952:13132   */\n    tag_128:\n        /* \"#utility.yul\":13000:13077   */\n      0x4e487b7100000000000000000000000000000000000000000000000000000000\n        /* \"#utility.yul\":12997:12998   */\n      0x00\n        /* \"#utility.yul\":12990:13078   */\n      mstore\n        /* \"#utility.yul\":13097:13101   */\n      0x12\n        /* \"#utility.yul\":13094:13095   */\n      0x04\n        /* \"#utility.yul\":13087:13102   */\n      mstore\n        /* \"#utility.yul\":13121:13125   */\n      0x24\n        /* \"#utility.yul\":13118:13119   */\n      0x00\n        /* \"#utility.yul\":13111:13126   */\n      revert\n        /* \"#utility.yul\":13138:13323   */\n    tag_89:\n        /* \"#utility.yul\":13178:13179   */\n      0x00\n        /* \"#utility.yul\":13195:13215   */\n      tag_242\n        /* \"#utility.yul\":13213:13214   */\n      dup3\n        /* \"#utility.yul\":13195:13215   */\n      tag_97\n      jump\t// in\n    tag_242:\n        /* \"#utility.yul\":13190:13215   */\n      swap2\n      pop\n        /* \"#utility.yul\":13229:13249   */\n      tag_243\n        /* \"#utility.yul\":13247:13248   */\n      dup4\n        /* \"#utility.yul\":13229:13249   */\n      tag_97\n      jump\t// in\n    tag_243:\n        /* \"#utility.yul\":13224:13249   */\n      swap3\n      pop\n        /* \"#utility.yul\":13268:13269   */\n      dup3\n        /* \"#utility.yul\":13258:13293   */\n      tag_244\n      jumpi\n        /* \"#utility.yul\":13273:13291   */\n      tag_245\n      tag_128\n      jump\t// in\n    tag_245:\n        /* \"#utility.yul\":13258:13293   */\n    tag_244:\n        /* \"#utility.yul\":13315:13316   */\n      dup3\n        /* \"#utility.yul\":13312:13313   */\n      dup3\n        /* \"#utility.yul\":13308:13317   */\n      div\n        /* \"#utility.yul\":13303:13317   */\n      swap1\n      pop\n        /* \"#utility.yul\":13138:13323   */\n      swap3\n      swap2\n      pop\n      pop\n      jump\t// out\n\n    auxdata: 0xa2646970667358221220ac080938f53758f7e44f72072ee018df0d5a169f34f0dc64e8fb1cd3a287bcc364736f6c634300081a0033\n}\n",
				"bytecode": {
					"linkReferences": {},
					"object": "6080604052600a60035560146004553480156018575f80fd5b5073694aa1769357215de4fac081bf1f309adc3253065f806101000a81548173ffffffffffffffffffffffffffffffffffffffff021916908373ffffffffffffffffffffffffffffffffffffffff1602179055503360015f6101000a81548173ffffffffffffffffffffffffffffffffffffffff021916908373ffffffffffffffffffffffffffffffffffffffff160217905550610dd8806100b95f395ff3fe60806040526004361061006f575f3560e01c80638da5cb5b1161004d5780638da5cb5b146100db578063b60d428814610105578063bea4dfb51461010f578063d4f41178146101395761006f565b80635d268629146100735780636448121e14610089578063774178e81461009f575b5f80fd5b34801561007e575f80fd5b50610087610161565b005b348015610094575f80fd5b5061009d610358565b005b3480156100aa575f80fd5b506100c560048036038101906100c091906107ef565b610523565b6040516100d29190610832565b60405180910390f35b3480156100e6575f80fd5b506100ef610538565b6040516100fc919061085a565b60405180910390f35b61010d61055d565b005b34801561011a575f80fd5b506101236105ee565b604051610130919061088b565b60405180910390f35b348015610144575f80fd5b5061015f600480360381019061015a91906107ef565b610689565b005b60045461016d4761075b565b106101ad576040517f08c379a00000000000000000000000000000000000000000000000000000000081526004016101a4906108fe565b60405180910390fd5b5f60025f3373ffffffffffffffffffffffffffffffffffffffff1673ffffffffffffffffffffffffffffffffffffffff1681526020019081526020015f20540361022c576040517f08c379a000000000000000000000000000000000000000000000000000000000815260040161022390610966565b60405180910390fd5b5f3373ffffffffffffffffffffffffffffffffffffffff1660025f3373ffffffffffffffffffffffffffffffffffffffff1673ffffffffffffffffffffffffffffffffffffffff1681526020019081526020015f205460405161028e906109b1565b5f6040518083038185875af1925050503d805f81146102c8576040519150601f19603f3d011682016040523d82523d5f602084013e6102cd565b606091505b50508091505080610313576040517f08c379a000000000000000000000000000000000000000000000000000000000815260040161030a90610a0f565b60405180910390fd5b5f60025f3373ffffffffffffffffffffffffffffffffffffffff1673ffffffffffffffffffffffffffffffffffffffff1681526020019081526020015f208190555050565b6004546103644761075b565b10156103a5576040517f08c379a000000000000000000000000000000000000000000000000000000000815260040161039c90610a77565b60405180910390fd5b60015f9054906101000a900473ffffffffffffffffffffffffffffffffffffffff1673ffffffffffffffffffffffffffffffffffffffff163373ffffffffffffffffffffffffffffffffffffffff1614610434576040517f08c379a000000000000000000000000000000000000000000000000000000000815260040161042b90610adf565b60405180910390fd5b5f3373ffffffffffffffffffffffffffffffffffffffff1647604051610459906109b1565b5f6040518083038185875af1925050503d805f8114610493576040519150601f19603f3d011682016040523d82523d5f602084013e610498565b606091505b505080915050806104de576040517f08c379a00000000000000000000000000000000000000000000000000000000081526004016104d590610b47565b60405180910390fd5b5f60025f3373ffffffffffffffffffffffffffffffffffffffff1673ffffffffffffffffffffffffffffffffffffffff1681526020019081526020015f208190555050565b6002602052805f5260405f205f915090505481565b60015f9054906101000a900473ffffffffffffffffffffffffffffffffffffffff1681565b6003546105693461075b565b10156105aa576040517f08c379a00000000000000000000000000000000000000000000000000000000081526004016105a190610baf565b60405180910390fd5b3460025f3373ffffffffffffffffffffffffffffffffffffffff1673ffffffffffffffffffffffffffffffffffffffff1681526020019081526020015f2081905550565b5f805f8054906101000a900473ffffffffffffffffffffffffffffffffffffffff1673ffffffffffffffffffffffffffffffffffffffff1663feaf968c6040518163ffffffff1660e01b815260040160a060405180830381865afa158015610658573d5f803e3d5ffd5b505050506040513d601f19601f8201168201806040525081019061067c9190610c60565b5050509150508091505090565b60015f9054906101000a900473ffffffffffffffffffffffffffffffffffffffff1673ffffffffffffffffffffffffffffffffffffffff163373ffffffffffffffffffffffffffffffffffffffff1614610718576040517f08c379a000000000000000000000000000000000000000000000000000000000815260040161070f90610adf565b60405180910390fd5b8060015f6101000a81548173ffffffffffffffffffffffffffffffffffffffff021916908373ffffffffffffffffffffffffffffffffffffffff16021790555050565b5f806107656105ee565b90506a52b7d2dcc80cd2e4000000818461077f9190610d04565b6107899190610d72565b915050919050565b5f80fd5b5f73ffffffffffffffffffffffffffffffffffffffff82169050919050565b5f6107be82610795565b9050919050565b6107ce816107b4565b81146107d8575f80fd5b50565b5f813590506107e9816107c5565b92915050565b5f6020828403121561080457610803610791565b5b5f610811848285016107db565b91505092915050565b5f819050919050565b61082c8161081a565b82525050565b5f6020820190506108455f830184610823565b92915050565b610854816107b4565b82525050565b5f60208201905061086d5f83018461084b565b92915050565b5f819050919050565b61088581610873565b82525050565b5f60208201905061089e5f83018461087c565b92915050565b5f82825260208201905092915050565b7f72656163682074686520464c41472100000000000000000000000000000000005f82015250565b5f6108e8600f836108a4565b91506108f3826108b4565b602082019050919050565b5f6020820190508181035f830152610915816108dc565b9050919050565b7f7468657265206973206e6f20796f7572206d6f6e6579210000000000000000005f82015250565b5f6109506017836108a4565b915061095b8261091c565b602082019050919050565b5f6020820190508181035f83015261097d81610944565b9050919050565b5f81905092915050565b50565b5f61099c5f83610984565b91506109a78261098e565b5f82019050919050565b5f6109bb82610991565b9150819050919050565b7f726566756e64204661696c2100000000000000000000000000000000000000005f82015250565b5f6109f9600c836108a4565b9150610a04826109c5565b602082019050919050565b5f6020820190508181035f830152610a26816109ed565b9050919050565b7f62616c616e6365206973206e6f7420726561636820746f20464c4147210000005f82015250565b5f610a61601d836108a4565b9150610a6c82610a2d565b602082019050919050565b5f6020820190508181035f830152610a8e81610a55565b9050919050565b7f796f7520617265206e6f74206f776e65720000000000000000000000000000005f82015250565b5f610ac96011836108a4565b9150610ad482610a95565b602082019050919050565b5f6020820190508181035f830152610af681610abd565b9050919050565b7f6f776e6572277320726566756e64206973204661696c210000000000000000005f82015250565b5f610b316017836108a4565b9150610b3c82610afd565b602082019050919050565b5f6020820190508181035f830152610b5e81610b25565b9050919050565b7f706c656173652073656e64206d6f7265206d6f6e6579000000000000000000005f82015250565b5f610b996016836108a4565b9150610ba482610b65565b602082019050919050565b5f6020820190508181035f830152610bc681610b8d565b9050919050565b5f69ffffffffffffffffffff82169050919050565b610beb81610bcd565b8114610bf5575f80fd5b50565b5f81519050610c0681610be2565b92915050565b610c1581610873565b8114610c1f575f80fd5b50565b5f81519050610c3081610c0c565b92915050565b610c3f8161081a565b8114610c49575f80fd5b50565b5f81519050610c5a81610c36565b92915050565b5f805f805f60a08688031215610c7957610c78610791565b5b5f610c8688828901610bf8565b9550506020610c9788828901610c22565b9450506040610ca888828901610c4c565b9350506060610cb988828901610c4c565b9250506080610cca88828901610bf8565b9150509295509295909350565b7f4e487b71000000000000000000000000000000000000000000000000000000005f52601160045260245ffd5b5f610d0e8261081a565b9150610d198361081a565b9250828202610d278161081a565b91508282048414831517610d3e57610d3d610cd7565b5b5092915050565b7f4e487b71000000000000000000000000000000000000000000000000000000005f52601260045260245ffd5b5f610d7c8261081a565b9150610d878361081a565b925082610d9757610d96610d45565b5b82820490509291505056fea2646970667358221220ac080938f53758f7e44f72072ee018df0d5a169f34f0dc64e8fb1cd3a287bcc364736f6c634300081a0033",
					"opcodes": "PUSH1 0x80 PUSH1 0x40 MSTORE PUSH1 0xA PUSH1 0x3 SSTORE PUSH1 0x14 PUSH1 0x4 SSTORE CALLVALUE DUP1 ISZERO PUSH1 0x18 JUMPI PUSH0 DUP1 REVERT JUMPDEST POP PUSH20 0x694AA1769357215DE4FAC081BF1F309ADC325306 PUSH0 DUP1 PUSH2 0x100 EXP DUP2 SLOAD DUP2 PUSH20 0xFFFFFFFFFFFFFFFFFFFFFFFFFFFFFFFFFFFFFFFF MUL NOT AND SWAP1 DUP4 PUSH20 0xFFFFFFFFFFFFFFFFFFFFFFFFFFFFFFFFFFFFFFFF AND MUL OR SWAP1 SSTORE POP CALLER PUSH1 0x1 PUSH0 PUSH2 0x100 EXP DUP2 SLOAD DUP2 PUSH20 0xFFFFFFFFFFFFFFFFFFFFFFFFFFFFFFFFFFFFFFFF MUL NOT AND SWAP1 DUP4 PUSH20 0xFFFFFFFFFFFFFFFFFFFFFFFFFFFFFFFFFFFFFFFF AND MUL OR SWAP1 SSTORE POP PUSH2 0xDD8 DUP1 PUSH2 0xB9 PUSH0 CODECOPY PUSH0 RETURN INVALID PUSH1 0x80 PUSH1 0x40 MSTORE PUSH1 0x4 CALLDATASIZE LT PUSH2 0x6F JUMPI PUSH0 CALLDATALOAD PUSH1 0xE0 SHR DUP1 PUSH4 0x8DA5CB5B GT PUSH2 0x4D JUMPI DUP1 PUSH4 0x8DA5CB5B EQ PUSH2 0xDB JUMPI DUP1 PUSH4 0xB60D4288 EQ PUSH2 0x105 JUMPI DUP1 PUSH4 0xBEA4DFB5 EQ PUSH2 0x10F JUMPI DUP1 PUSH4 0xD4F41178 EQ PUSH2 0x139 JUMPI PUSH2 0x6F JUMP JUMPDEST DUP1 PUSH4 0x5D268629 EQ PUSH2 0x73 JUMPI DUP1 PUSH4 0x6448121E EQ PUSH2 0x89 JUMPI DUP1 PUSH4 0x774178E8 EQ PUSH2 0x9F JUMPI JUMPDEST PUSH0 DUP1 REVERT JUMPDEST CALLVALUE DUP1 ISZERO PUSH2 0x7E JUMPI PUSH0 DUP1 REVERT JUMPDEST POP PUSH2 0x87 PUSH2 0x161 JUMP JUMPDEST STOP JUMPDEST CALLVALUE DUP1 ISZERO PUSH2 0x94 JUMPI PUSH0 DUP1 REVERT JUMPDEST POP PUSH2 0x9D PUSH2 0x358 JUMP JUMPDEST STOP JUMPDEST CALLVALUE DUP1 ISZERO PUSH2 0xAA JUMPI PUSH0 DUP1 REVERT JUMPDEST POP PUSH2 0xC5 PUSH1 0x4 DUP1 CALLDATASIZE SUB DUP2 ADD SWAP1 PUSH2 0xC0 SWAP2 SWAP1 PUSH2 0x7EF JUMP JUMPDEST PUSH2 0x523 JUMP JUMPDEST PUSH1 0x40 MLOAD PUSH2 0xD2 SWAP2 SWAP1 PUSH2 0x832 JUMP JUMPDEST PUSH1 0x40 MLOAD DUP1 SWAP2 SUB SWAP1 RETURN JUMPDEST CALLVALUE DUP1 ISZERO PUSH2 0xE6 JUMPI PUSH0 DUP1 REVERT JUMPDEST POP PUSH2 0xEF PUSH2 0x538 JUMP JUMPDEST PUSH1 0x40 MLOAD PUSH2 0xFC SWAP2 SWAP1 PUSH2 0x85A JUMP JUMPDEST PUSH1 0x40 MLOAD DUP1 SWAP2 SUB SWAP1 RETURN JUMPDEST PUSH2 0x10D PUSH2 0x55D JUMP JUMPDEST STOP JUMPDEST CALLVALUE DUP1 ISZERO PUSH2 0x11A JUMPI PUSH0 DUP1 REVERT JUMPDEST POP PUSH2 0x123 PUSH2 0x5EE JUMP JUMPDEST PUSH1 0x40 MLOAD PUSH2 0x130 SWAP2 SWAP1 PUSH2 0x88B JUMP JUMPDEST PUSH1 0x40 MLOAD DUP1 SWAP2 SUB SWAP1 RETURN JUMPDEST CALLVALUE DUP1 ISZERO PUSH2 0x144 JUMPI PUSH0 DUP1 REVERT JUMPDEST POP PUSH2 0x15F PUSH1 0x4 DUP1 CALLDATASIZE SUB DUP2 ADD SWAP1 PUSH2 0x15A SWAP2 SWAP1 PUSH2 0x7EF JUMP JUMPDEST PUSH2 0x689 JUMP JUMPDEST STOP JUMPDEST PUSH1 0x4 SLOAD PUSH2 0x16D SELFBALANCE PUSH2 0x75B JUMP JUMPDEST LT PUSH2 0x1AD JUMPI PUSH1 0x40 MLOAD PUSH32 0x8C379A000000000000000000000000000000000000000000000000000000000 DUP2 MSTORE PUSH1 0x4 ADD PUSH2 0x1A4 SWAP1 PUSH2 0x8FE JUMP JUMPDEST PUSH1 0x40 MLOAD DUP1 SWAP2 SUB SWAP1 REVERT JUMPDEST PUSH0 PUSH1 0x2 PUSH0 CALLER PUSH20 0xFFFFFFFFFFFFFFFFFFFFFFFFFFFFFFFFFFFFFFFF AND PUSH20 0xFFFFFFFFFFFFFFFFFFFFFFFFFFFFFFFFFFFFFFFF AND DUP2 MSTORE PUSH1 0x20 ADD SWAP1 DUP2 MSTORE PUSH1 0x20 ADD PUSH0 KECCAK256 SLOAD SUB PUSH2 0x22C JUMPI PUSH1 0x40 MLOAD PUSH32 0x8C379A000000000000000000000000000000000000000000000000000000000 DUP2 MSTORE PUSH1 0x4 ADD PUSH2 0x223 SWAP1 PUSH2 0x966 JUMP JUMPDEST PUSH1 0x40 MLOAD DUP1 SWAP2 SUB SWAP1 REVERT JUMPDEST PUSH0 CALLER PUSH20 0xFFFFFFFFFFFFFFFFFFFFFFFFFFFFFFFFFFFFFFFF AND PUSH1 0x2 PUSH0 CALLER PUSH20 0xFFFFFFFFFFFFFFFFFFFFFFFFFFFFFFFFFFFFFFFF AND PUSH20 0xFFFFFFFFFFFFFFFFFFFFFFFFFFFFFFFFFFFFFFFF AND DUP2 MSTORE PUSH1 0x20 ADD SWAP1 DUP2 MSTORE PUSH1 0x20 ADD PUSH0 KECCAK256 SLOAD PUSH1 0x40 MLOAD PUSH2 0x28E SWAP1 PUSH2 0x9B1 JUMP JUMPDEST PUSH0 PUSH1 0x40 MLOAD DUP1 DUP4 SUB DUP2 DUP6 DUP8 GAS CALL SWAP3 POP POP POP RETURNDATASIZE DUP1 PUSH0 DUP2 EQ PUSH2 0x2C8 JUMPI PUSH1 0x40 MLOAD SWAP2 POP PUSH1 0x1F NOT PUSH1 0x3F RETURNDATASIZE ADD AND DUP3 ADD PUSH1 0x40 MSTORE RETURNDATASIZE DUP3 MSTORE RETURNDATASIZE PUSH0 PUSH1 0x20 DUP5 ADD RETURNDATACOPY PUSH2 0x2CD JUMP JUMPDEST PUSH1 0x60 SWAP2 POP JUMPDEST POP POP DUP1 SWAP2 POP POP DUP1 PUSH2 0x313 JUMPI PUSH1 0x40 MLOAD PUSH32 0x8C379A000000000000000000000000000000000000000000000000000000000 DUP2 MSTORE PUSH1 0x4 ADD PUSH2 0x30A SWAP1 PUSH2 0xA0F JUMP JUMPDEST PUSH1 0x40 MLOAD DUP1 SWAP2 SUB SWAP1 REVERT JUMPDEST PUSH0 PUSH1 0x2 PUSH0 CALLER PUSH20 0xFFFFFFFFFFFFFFFFFFFFFFFFFFFFFFFFFFFFFFFF AND PUSH20 0xFFFFFFFFFFFFFFFFFFFFFFFFFFFFFFFFFFFFFFFF AND DUP2 MSTORE PUSH1 0x20 ADD SWAP1 DUP2 MSTORE PUSH1 0x20 ADD PUSH0 KECCAK256 DUP2 SWAP1 SSTORE POP POP JUMP JUMPDEST PUSH1 0x4 SLOAD PUSH2 0x364 SELFBALANCE PUSH2 0x75B JUMP JUMPDEST LT ISZERO PUSH2 0x3A5 JUMPI PUSH1 0x40 MLOAD PUSH32 0x8C379A000000000000000000000000000000000000000000000000000000000 DUP2 MSTORE PUSH1 0x4 ADD PUSH2 0x39C SWAP1 PUSH2 0xA77 JUMP JUMPDEST PUSH1 0x40 MLOAD DUP1 SWAP2 SUB SWAP1 REVERT JUMPDEST PUSH1 0x1 PUSH0 SWAP1 SLOAD SWAP1 PUSH2 0x100 EXP SWAP1 DIV PUSH20 0xFFFFFFFFFFFFFFFFFFFFFFFFFFFFFFFFFFFFFFFF AND PUSH20 0xFFFFFFFFFFFFFFFFFFFFFFFFFFFFFFFFFFFFFFFF AND CALLER PUSH20 0xFFFFFFFFFFFFFFFFFFFFFFFFFFFFFFFFFFFFFFFF AND EQ PUSH2 0x434 JUMPI PUSH1 0x40 MLOAD PUSH32 0x8C379A000000000000000000000000000000000000000000000000000000000 DUP2 MSTORE PUSH1 0x4 ADD PUSH2 0x42B SWAP1 PUSH2 0xADF JUMP JUMPDEST PUSH1 0x40 MLOAD DUP1 SWAP2 SUB SWAP1 REVERT JUMPDEST PUSH0 CALLER PUSH20 0xFFFFFFFFFFFFFFFFFFFFFFFFFFFFFFFFFFFFFFFF AND SELFBALANCE PUSH1 0x40 MLOAD PUSH2 0x459 SWAP1 PUSH2 0x9B1 JUMP JUMPDEST PUSH0 PUSH1 0x40 MLOAD DUP1 DUP4 SUB DUP2 DUP6 DUP8 GAS CALL SWAP3 POP POP POP RETURNDATASIZE DUP1 PUSH0 DUP2 EQ PUSH2 0x493 JUMPI PUSH1 0x40 MLOAD SWAP2 POP PUSH1 0x1F NOT PUSH1 0x3F RETURNDATASIZE ADD AND DUP3 ADD PUSH1 0x40 MSTORE RETURNDATASIZE DUP3 MSTORE RETURNDATASIZE PUSH0 PUSH1 0x20 DUP5 ADD RETURNDATACOPY PUSH2 0x498 JUMP JUMPDEST PUSH1 0x60 SWAP2 POP JUMPDEST POP POP DUP1 SWAP2 POP POP DUP1 PUSH2 0x4DE JUMPI PUSH1 0x40 MLOAD PUSH32 0x8C379A000000000000000000000000000000000000000000000000000000000 DUP2 MSTORE PUSH1 0x4 ADD PUSH2 0x4D5 SWAP1 PUSH2 0xB47 JUMP JUMPDEST PUSH1 0x40 MLOAD DUP1 SWAP2 SUB SWAP1 REVERT JUMPDEST PUSH0 PUSH1 0x2 PUSH0 CALLER PUSH20 0xFFFFFFFFFFFFFFFFFFFFFFFFFFFFFFFFFFFFFFFF AND PUSH20 0xFFFFFFFFFFFFFFFFFFFFFFFFFFFFFFFFFFFFFFFF AND DUP2 MSTORE PUSH1 0x20 ADD SWAP1 DUP2 MSTORE PUSH1 0x20 ADD PUSH0 KECCAK256 DUP2 SWAP1 SSTORE POP POP JUMP JUMPDEST PUSH1 0x2 PUSH1 0x20 MSTORE DUP1 PUSH0 MSTORE PUSH1 0x40 PUSH0 KECCAK256 PUSH0 SWAP2 POP SWAP1 POP SLOAD DUP2 JUMP JUMPDEST PUSH1 0x1 PUSH0 SWAP1 SLOAD SWAP1 PUSH2 0x100 EXP SWAP1 DIV PUSH20 0xFFFFFFFFFFFFFFFFFFFFFFFFFFFFFFFFFFFFFFFF AND DUP2 JUMP JUMPDEST PUSH1 0x3 SLOAD PUSH2 0x569 CALLVALUE PUSH2 0x75B JUMP JUMPDEST LT ISZERO PUSH2 0x5AA JUMPI PUSH1 0x40 MLOAD PUSH32 0x8C379A000000000000000000000000000000000000000000000000000000000 DUP2 MSTORE PUSH1 0x4 ADD PUSH2 0x5A1 SWAP1 PUSH2 0xBAF JUMP JUMPDEST PUSH1 0x40 MLOAD DUP1 SWAP2 SUB SWAP1 REVERT JUMPDEST CALLVALUE PUSH1 0x2 PUSH0 CALLER PUSH20 0xFFFFFFFFFFFFFFFFFFFFFFFFFFFFFFFFFFFFFFFF AND PUSH20 0xFFFFFFFFFFFFFFFFFFFFFFFFFFFFFFFFFFFFFFFF AND DUP2 MSTORE PUSH1 0x20 ADD SWAP1 DUP2 MSTORE PUSH1 0x20 ADD PUSH0 KECCAK256 DUP2 SWAP1 SSTORE POP JUMP JUMPDEST PUSH0 DUP1 PUSH0 DUP1 SLOAD SWAP1 PUSH2 0x100 EXP SWAP1 DIV PUSH20 0xFFFFFFFFFFFFFFFFFFFFFFFFFFFFFFFFFFFFFFFF AND PUSH20 0xFFFFFFFFFFFFFFFFFFFFFFFFFFFFFFFFFFFFFFFF AND PUSH4 0xFEAF968C PUSH1 0x40 MLOAD DUP2 PUSH4 0xFFFFFFFF AND PUSH1 0xE0 SHL DUP2 MSTORE PUSH1 0x4 ADD PUSH1 0xA0 PUSH1 0x40 MLOAD DUP1 DUP4 SUB DUP2 DUP7 GAS STATICCALL ISZERO DUP1 ISZERO PUSH2 0x658 JUMPI RETURNDATASIZE PUSH0 DUP1 RETURNDATACOPY RETURNDATASIZE PUSH0 REVERT JUMPDEST POP POP POP POP PUSH1 0x40 MLOAD RETURNDATASIZE PUSH1 0x1F NOT PUSH1 0x1F DUP3 ADD AND DUP3 ADD DUP1 PUSH1 0x40 MSTORE POP DUP2 ADD SWAP1 PUSH2 0x67C SWAP2 SWAP1 PUSH2 0xC60 JUMP JUMPDEST POP POP POP SWAP2 POP POP DUP1 SWAP2 POP POP SWAP1 JUMP JUMPDEST PUSH1 0x1 PUSH0 SWAP1 SLOAD SWAP1 PUSH2 0x100 EXP SWAP1 DIV PUSH20 0xFFFFFFFFFFFFFFFFFFFFFFFFFFFFFFFFFFFFFFFF AND PUSH20 0xFFFFFFFFFFFFFFFFFFFFFFFFFFFFFFFFFFFFFFFF AND CALLER PUSH20 0xFFFFFFFFFFFFFFFFFFFFFFFFFFFFFFFFFFFFFFFF AND EQ PUSH2 0x718 JUMPI PUSH1 0x40 MLOAD PUSH32 0x8C379A000000000000000000000000000000000000000000000000000000000 DUP2 MSTORE PUSH1 0x4 ADD PUSH2 0x70F SWAP1 PUSH2 0xADF JUMP JUMPDEST PUSH1 0x40 MLOAD DUP1 SWAP2 SUB SWAP1 REVERT JUMPDEST DUP1 PUSH1 0x1 PUSH0 PUSH2 0x100 EXP DUP2 SLOAD DUP2 PUSH20 0xFFFFFFFFFFFFFFFFFFFFFFFFFFFFFFFFFFFFFFFF MUL NOT AND SWAP1 DUP4 PUSH20 0xFFFFFFFFFFFFFFFFFFFFFFFFFFFFFFFFFFFFFFFF AND MUL OR SWAP1 SSTORE POP POP JUMP JUMPDEST PUSH0 DUP1 PUSH2 0x765 PUSH2 0x5EE JUMP JUMPDEST SWAP1 POP PUSH11 0x52B7D2DCC80CD2E4000000 DUP2 DUP5 PUSH2 0x77F SWAP2 SWAP1 PUSH2 0xD04 JUMP JUMPDEST PUSH2 0x789 SWAP2 SWAP1 PUSH2 0xD72 JUMP JUMPDEST SWAP2 POP POP SWAP2 SWAP1 POP JUMP JUMPDEST PUSH0 DUP1 REVERT JUMPDEST PUSH0 PUSH20 0xFFFFFFFFFFFFFFFFFFFFFFFFFFFFFFFFFFFFFFFF DUP3 AND SWAP1 POP SWAP2 SWAP1 POP JUMP JUMPDEST PUSH0 PUSH2 0x7BE DUP3 PUSH2 0x795 JUMP JUMPDEST SWAP1 POP SWAP2 SWAP1 POP JUMP JUMPDEST PUSH2 0x7CE DUP2 PUSH2 0x7B4 JUMP JUMPDEST DUP2 EQ PUSH2 0x7D8 JUMPI PUSH0 DUP1 REVERT JUMPDEST POP JUMP JUMPDEST PUSH0 DUP2 CALLDATALOAD SWAP1 POP PUSH2 0x7E9 DUP2 PUSH2 0x7C5 JUMP JUMPDEST SWAP3 SWAP2 POP POP JUMP JUMPDEST PUSH0 PUSH1 0x20 DUP3 DUP5 SUB SLT ISZERO PUSH2 0x804 JUMPI PUSH2 0x803 PUSH2 0x791 JUMP JUMPDEST JUMPDEST PUSH0 PUSH2 0x811 DUP5 DUP3 DUP6 ADD PUSH2 0x7DB JUMP JUMPDEST SWAP2 POP POP SWAP3 SWAP2 POP POP JUMP JUMPDEST PUSH0 DUP2 SWAP1 POP SWAP2 SWAP1 POP JUMP JUMPDEST PUSH2 0x82C DUP2 PUSH2 0x81A JUMP JUMPDEST DUP3 MSTORE POP POP JUMP JUMPDEST PUSH0 PUSH1 0x20 DUP3 ADD SWAP1 POP PUSH2 0x845 PUSH0 DUP4 ADD DUP5 PUSH2 0x823 JUMP JUMPDEST SWAP3 SWAP2 POP POP JUMP JUMPDEST PUSH2 0x854 DUP2 PUSH2 0x7B4 JUMP JUMPDEST DUP3 MSTORE POP POP JUMP JUMPDEST PUSH0 PUSH1 0x20 DUP3 ADD SWAP1 POP PUSH2 0x86D PUSH0 DUP4 ADD DUP5 PUSH2 0x84B JUMP JUMPDEST SWAP3 SWAP2 POP POP JUMP JUMPDEST PUSH0 DUP2 SWAP1 POP SWAP2 SWAP1 POP JUMP JUMPDEST PUSH2 0x885 DUP2 PUSH2 0x873 JUMP JUMPDEST DUP3 MSTORE POP POP JUMP JUMPDEST PUSH0 PUSH1 0x20 DUP3 ADD SWAP1 POP PUSH2 0x89E PUSH0 DUP4 ADD DUP5 PUSH2 0x87C JUMP JUMPDEST SWAP3 SWAP2 POP POP JUMP JUMPDEST PUSH0 DUP3 DUP3 MSTORE PUSH1 0x20 DUP3 ADD SWAP1 POP SWAP3 SWAP2 POP POP JUMP JUMPDEST PUSH32 0x72656163682074686520464C4147210000000000000000000000000000000000 PUSH0 DUP3 ADD MSTORE POP JUMP JUMPDEST PUSH0 PUSH2 0x8E8 PUSH1 0xF DUP4 PUSH2 0x8A4 JUMP JUMPDEST SWAP2 POP PUSH2 0x8F3 DUP3 PUSH2 0x8B4 JUMP JUMPDEST PUSH1 0x20 DUP3 ADD SWAP1 POP SWAP2 SWAP1 POP JUMP JUMPDEST PUSH0 PUSH1 0x20 DUP3 ADD SWAP1 POP DUP2 DUP2 SUB PUSH0 DUP4 ADD MSTORE PUSH2 0x915 DUP2 PUSH2 0x8DC JUMP JUMPDEST SWAP1 POP SWAP2 SWAP1 POP JUMP JUMPDEST PUSH32 0x7468657265206973206E6F20796F7572206D6F6E657921000000000000000000 PUSH0 DUP3 ADD MSTORE POP JUMP JUMPDEST PUSH0 PUSH2 0x950 PUSH1 0x17 DUP4 PUSH2 0x8A4 JUMP JUMPDEST SWAP2 POP PUSH2 0x95B DUP3 PUSH2 0x91C JUMP JUMPDEST PUSH1 0x20 DUP3 ADD SWAP1 POP SWAP2 SWAP1 POP JUMP JUMPDEST PUSH0 PUSH1 0x20 DUP3 ADD SWAP1 POP DUP2 DUP2 SUB PUSH0 DUP4 ADD MSTORE PUSH2 0x97D DUP2 PUSH2 0x944 JUMP JUMPDEST SWAP1 POP SWAP2 SWAP1 POP JUMP JUMPDEST PUSH0 DUP2 SWAP1 POP SWAP3 SWAP2 POP POP JUMP JUMPDEST POP JUMP JUMPDEST PUSH0 PUSH2 0x99C PUSH0 DUP4 PUSH2 0x984 JUMP JUMPDEST SWAP2 POP PUSH2 0x9A7 DUP3 PUSH2 0x98E JUMP JUMPDEST PUSH0 DUP3 ADD SWAP1 POP SWAP2 SWAP1 POP JUMP JUMPDEST PUSH0 PUSH2 0x9BB DUP3 PUSH2 0x991 JUMP JUMPDEST SWAP2 POP DUP2 SWAP1 POP SWAP2 SWAP1 POP JUMP JUMPDEST PUSH32 0x726566756E64204661696C210000000000000000000000000000000000000000 PUSH0 DUP3 ADD MSTORE POP JUMP JUMPDEST PUSH0 PUSH2 0x9F9 PUSH1 0xC DUP4 PUSH2 0x8A4 JUMP JUMPDEST SWAP2 POP PUSH2 0xA04 DUP3 PUSH2 0x9C5 JUMP JUMPDEST PUSH1 0x20 DUP3 ADD SWAP1 POP SWAP2 SWAP1 POP JUMP JUMPDEST PUSH0 PUSH1 0x20 DUP3 ADD SWAP1 POP DUP2 DUP2 SUB PUSH0 DUP4 ADD MSTORE PUSH2 0xA26 DUP2 PUSH2 0x9ED JUMP JUMPDEST SWAP1 POP SWAP2 SWAP1 POP JUMP JUMPDEST PUSH32 0x62616C616E6365206973206E6F7420726561636820746F20464C414721000000 PUSH0 DUP3 ADD MSTORE POP JUMP JUMPDEST PUSH0 PUSH2 0xA61 PUSH1 0x1D DUP4 PUSH2 0x8A4 JUMP JUMPDEST SWAP2 POP PUSH2 0xA6C DUP3 PUSH2 0xA2D JUMP JUMPDEST PUSH1 0x20 DUP3 ADD SWAP1 POP SWAP2 SWAP1 POP JUMP JUMPDEST PUSH0 PUSH1 0x20 DUP3 ADD SWAP1 POP DUP2 DUP2 SUB PUSH0 DUP4 ADD MSTORE PUSH2 0xA8E DUP2 PUSH2 0xA55 JUMP JUMPDEST SWAP1 POP SWAP2 SWAP1 POP JUMP JUMPDEST PUSH32 0x796F7520617265206E6F74206F776E6572000000000000000000000000000000 PUSH0 DUP3 ADD MSTORE POP JUMP JUMPDEST PUSH0 PUSH2 0xAC9 PUSH1 0x11 DUP4 PUSH2 0x8A4 JUMP JUMPDEST SWAP2 POP PUSH2 0xAD4 DUP3 PUSH2 0xA95 JUMP JUMPDEST PUSH1 0x20 DUP3 ADD SWAP1 POP SWAP2 SWAP1 POP JUMP JUMPDEST PUSH0 PUSH1 0x20 DUP3 ADD SWAP1 POP DUP2 DUP2 SUB PUSH0 DUP4 ADD MSTORE PUSH2 0xAF6 DUP2 PUSH2 0xABD JUMP JUMPDEST SWAP1 POP SWAP2 SWAP1 POP JUMP JUMPDEST PUSH32 0x6F776E6572277320726566756E64206973204661696C21000000000000000000 PUSH0 DUP3 ADD MSTORE POP JUMP JUMPDEST PUSH0 PUSH2 0xB31 PUSH1 0x17 DUP4 PUSH2 0x8A4 JUMP JUMPDEST SWAP2 POP PUSH2 0xB3C DUP3 PUSH2 0xAFD JUMP JUMPDEST PUSH1 0x20 DUP3 ADD SWAP1 POP SWAP2 SWAP1 POP JUMP JUMPDEST PUSH0 PUSH1 0x20 DUP3 ADD SWAP1 POP DUP2 DUP2 SUB PUSH0 DUP4 ADD MSTORE PUSH2 0xB5E DUP2 PUSH2 0xB25 JUMP JUMPDEST SWAP1 POP SWAP2 SWAP1 POP JUMP JUMPDEST PUSH32 0x706C656173652073656E64206D6F7265206D6F6E657900000000000000000000 PUSH0 DUP3 ADD MSTORE POP JUMP JUMPDEST PUSH0 PUSH2 0xB99 PUSH1 0x16 DUP4 PUSH2 0x8A4 JUMP JUMPDEST SWAP2 POP PUSH2 0xBA4 DUP3 PUSH2 0xB65 JUMP JUMPDEST PUSH1 0x20 DUP3 ADD SWAP1 POP SWAP2 SWAP1 POP JUMP JUMPDEST PUSH0 PUSH1 0x20 DUP3 ADD SWAP1 POP DUP2 DUP2 SUB PUSH0 DUP4 ADD MSTORE PUSH2 0xBC6 DUP2 PUSH2 0xB8D JUMP JUMPDEST SWAP1 POP SWAP2 SWAP1 POP JUMP JUMPDEST PUSH0 PUSH10 0xFFFFFFFFFFFFFFFFFFFF DUP3 AND SWAP1 POP SWAP2 SWAP1 POP JUMP JUMPDEST PUSH2 0xBEB DUP2 PUSH2 0xBCD JUMP JUMPDEST DUP2 EQ PUSH2 0xBF5 JUMPI PUSH0 DUP1 REVERT JUMPDEST POP JUMP JUMPDEST PUSH0 DUP2 MLOAD SWAP1 POP PUSH2 0xC06 DUP2 PUSH2 0xBE2 JUMP JUMPDEST SWAP3 SWAP2 POP POP JUMP JUMPDEST PUSH2 0xC15 DUP2 PUSH2 0x873 JUMP JUMPDEST DUP2 EQ PUSH2 0xC1F JUMPI PUSH0 DUP1 REVERT JUMPDEST POP JUMP JUMPDEST PUSH0 DUP2 MLOAD SWAP1 POP PUSH2 0xC30 DUP2 PUSH2 0xC0C JUMP JUMPDEST SWAP3 SWAP2 POP POP JUMP JUMPDEST PUSH2 0xC3F DUP2 PUSH2 0x81A JUMP JUMPDEST DUP2 EQ PUSH2 0xC49 JUMPI PUSH0 DUP1 REVERT JUMPDEST POP JUMP JUMPDEST PUSH0 DUP2 MLOAD SWAP1 POP PUSH2 0xC5A DUP2 PUSH2 0xC36 JUMP JUMPDEST SWAP3 SWAP2 POP POP JUMP JUMPDEST PUSH0 DUP1 PUSH0 DUP1 PUSH0 PUSH1 0xA0 DUP7 DUP9 SUB SLT ISZERO PUSH2 0xC79 JUMPI PUSH2 0xC78 PUSH2 0x791 JUMP JUMPDEST JUMPDEST PUSH0 PUSH2 0xC86 DUP9 DUP3 DUP10 ADD PUSH2 0xBF8 JUMP JUMPDEST SWAP6 POP POP PUSH1 0x20 PUSH2 0xC97 DUP9 DUP3 DUP10 ADD PUSH2 0xC22 JUMP JUMPDEST SWAP5 POP POP PUSH1 0x40 PUSH2 0xCA8 DUP9 DUP3 DUP10 ADD PUSH2 0xC4C JUMP JUMPDEST SWAP4 POP POP PUSH1 0x60 PUSH2 0xCB9 DUP9 DUP3 DUP10 ADD PUSH2 0xC4C JUMP JUMPDEST SWAP3 POP POP PUSH1 0x80 PUSH2 0xCCA DUP9 DUP3 DUP10 ADD PUSH2 0xBF8 JUMP JUMPDEST SWAP2 POP POP SWAP3 SWAP6 POP SWAP3 SWAP6 SWAP1 SWAP4 POP JUMP JUMPDEST PUSH32 0x4E487B7100000000000000000000000000000000000000000000000000000000 PUSH0 MSTORE PUSH1 0x11 PUSH1 0x4 MSTORE PUSH1 0x24 PUSH0 REVERT JUMPDEST PUSH0 PUSH2 0xD0E DUP3 PUSH2 0x81A JUMP JUMPDEST SWAP2 POP PUSH2 0xD19 DUP4 PUSH2 0x81A JUMP JUMPDEST SWAP3 POP DUP3 DUP3 MUL PUSH2 0xD27 DUP2 PUSH2 0x81A JUMP JUMPDEST SWAP2 POP DUP3 DUP3 DIV DUP5 EQ DUP4 ISZERO OR PUSH2 0xD3E JUMPI PUSH2 0xD3D PUSH2 0xCD7 JUMP JUMPDEST JUMPDEST POP SWAP3 SWAP2 POP POP JUMP JUMPDEST PUSH32 0x4E487B7100000000000000000000000000000000000000000000000000000000 PUSH0 MSTORE PUSH1 0x12 PUSH1 0x4 MSTORE PUSH1 0x24 PUSH0 REVERT JUMPDEST PUSH0 PUSH2 0xD7C DUP3 PUSH2 0x81A JUMP JUMPDEST SWAP2 POP PUSH2 0xD87 DUP4 PUSH2 0x81A JUMP JUMPDEST SWAP3 POP DUP3 PUSH2 0xD97 JUMPI PUSH2 0xD96 PUSH2 0xD45 JUMP JUMPDEST JUMPDEST DUP3 DUP3 DIV SWAP1 POP SWAP3 SWAP2 POP POP JUMP INVALID LOG2 PUSH5 0x6970667358 0x22 SLT KECCAK256 0xAC ADDMOD MULMOD CODESIZE CREATE2 CALLDATACOPY PC 0xF7 0xE4 0x4F PUSH19 0x72EE018DF0D5A169F34F0DC64E8FB1CD3A287 0xBC 0xC3 PUSH5 0x736F6C6343 STOP ADDMOD BYTE STOP CALLER "
				},
				"gasEstimates": {
					"creation": {
						"codeDepositCost": "708800",
						"executionCost": "93482",
						"totalCost": "802282"
					},
					"external": {
						"Getmoneyifover()": "infinite",
						"Refund()": "infinite",
						"Resetowner(address)": "26950",
						"fund()": "infinite",
						"funderstoAmount(address)": "2847",
						"getChainlinkDataFeedLatestAnswer()": "infinite",
						"owner()": "2508"
					},
					"internal": {
						"convertETHtoUSDT(uint256)": "infinite"
					}
				},
				"methodIdentifiers": {
					"Getmoneyifover()": "6448121e",
					"Refund()": "5d268629",
					"Resetowner(address)": "d4f41178",
					"fund()": "b60d4288",
					"funderstoAmount(address)": "774178e8",
					"getChainlinkDataFeedLatestAnswer()": "bea4dfb5",
					"owner()": "8da5cb5b"
				}
			},
			"storageLayout": {
				"storage": [
					{
						"astId": 52,
						"contract": "fundme/FundMe.sol:Fundtome",
						"label": "dataFeed",
						"offset": 0,
						"slot": "0",
						"type": "t_contract(AggregatorV3Interface)45"
					},
					{
						"astId": 54,
						"contract": "fundme/FundMe.sol:Fundtome",
						"label": "owner",
						"offset": 0,
						"slot": "1",
						"type": "t_address"
					},
					{
						"astId": 73,
						"contract": "fundme/FundMe.sol:Fundtome",
						"label": "funderstoAmount",
						"offset": 0,
						"slot": "2",
						"type": "t_mapping(t_address,t_uint256)"
					},
					{
						"astId": 76,
						"contract": "fundme/FundMe.sol:Fundtome",
						"label": "MINIUM_VALUE",
						"offset": 0,
						"slot": "3",
						"type": "t_uint256"
					},
					{
						"astId": 79,
						"contract": "fundme/FundMe.sol:Fundtome",
						"label": "FLAG",
						"offset": 0,
						"slot": "4",
						"type": "t_uint256"
					}
				],
				"types": {
					"t_address": {
						"encoding": "inplace",
						"label": "address",
						"numberOfBytes": "20"
					},
					"t_contract(AggregatorV3Interface)45": {
						"encoding": "inplace",
						"label": "contract AggregatorV3Interface",
						"numberOfBytes": "20"
					},
					"t_mapping(t_address,t_uint256)": {
						"encoding": "mapping",
						"key": "t_address",
						"label": "mapping(address => uint256)",
						"numberOfBytes": "32",
						"value": "t_uint256"
					},
					"t_uint256": {
						"encoding": "inplace",
						"label": "uint256",
						"numberOfBytes": "32"
					}
				}
			},
			"userdoc": {
				"kind": "user",
				"methods": {},
				"version": 1
			}
		}
	}
}