{
	"fundme/FundMe.sol": {
		"Fundtome": {
			"abi": [
				{
					"inputs": [
						{
							"internalType": "uint256",
							"name": "needblocktime",
							"type": "uint256"
						}
					],
					"stateMutability": "nonpayable",
					"type": "constructor"
				},
				{
					"inputs": [],
					"name": "Getmoneyifover",
					"outputs": [],
					"stateMutability": "nonpayable",
					"type": "function"
				},
				{
					"inputs": [],
					"name": "Refund",
					"outputs": [],
					"stateMutability": "nonpayable",
					"type": "function"
				},
				{
					"inputs": [
						{
							"internalType": "address",
							"name": "Newowner",
							"type": "address"
						}
					],
					"name": "Resetowner",
					"outputs": [],
					"stateMutability": "nonpayable",
					"type": "function"
				},
				{
					"inputs": [],
					"name": "fund",
					"outputs": [],
					"stateMutability": "payable",
					"type": "function"
				},
				{
					"inputs": [
						{
							"internalType": "address",
							"name": "addr",
							"type": "address"
						}
					],
					"name": "funderstoAmount",
					"outputs": [
						{
							"internalType": "uint256",
							"name": "much",
							"type": "uint256"
						}
					],
					"stateMutability": "view",
					"type": "function"
				},
				{
					"inputs": [],
					"name": "getChainlinkDataFeedLatestAnswer",
					"outputs": [
						{
							"internalType": "int256",
							"name": "",
							"type": "int256"
						}
					],
					"stateMutability": "view",
					"type": "function"
				},
				{
					"inputs": [],
					"name": "owner",
					"outputs": [
						{
							"internalType": "address",
							"name": "",
							"type": "address"
						}
					],
					"stateMutability": "view",
					"type": "function"
				}
			],
			"devdoc": {
				"kind": "dev",
				"methods": {},
				"version": 1
			},
			"evm": {
				"assembly": "    /* \"fundme/FundMe.sol\":384:5372  contract Fundtome{... */\n  mstore(0x40, 0x80)\n    /* \"fundme/FundMe.sol\":1168:1170  10 */\n  0x0a\n    /* \"fundme/FundMe.sol\":1147:1170  uint256 MINIUM_VALUE=10 */\n  0x05\n  sstore\n    /* \"fundme/FundMe.sol\":1407:1409  20 */\n  0x14\n    /* \"fundme/FundMe.sol\":1394:1409  uint256 FLAG=20 */\n  0x06\n  sstore\n    /* \"fundme/FundMe.sol\":706:1036  constructor(uint256 needblocktime) {... */\n  callvalue\n  dup1\n  iszero\n  tag_1\n  jumpi\n  0x00\n  dup1\n  revert\ntag_1:\n  pop\n  mload(0x40)\n  sub(codesize, bytecodeSize)\n  dup1\n  bytecodeSize\n  dup4\n  codecopy\n  dup2\n  dup2\n  add\n  0x40\n  mstore\n  dup2\n  add\n  swap1\n  tag_2\n  swap2\n  swap1\n  tag_3\n  jump\t// in\ntag_2:\n    /* \"fundme/FundMe.sol\":784:826  0x694AA1769357215DE4FAC081bf1f309aDC325306 */\n  0x694aa1769357215de4fac081bf1f309adc325306\n    /* \"fundme/FundMe.sol\":751:759  dataFeed */\n  0x00\n  dup1\n    /* \"fundme/FundMe.sol\":751:827  dataFeed = AggregatorV3Interface(0x694AA1769357215DE4FAC081bf1f309aDC325306) */\n  0x0100\n  exp\n  dup2\n  sload\n  dup2\n  0xffffffffffffffffffffffffffffffffffffffff\n  mul\n  not\n  and\n  swap1\n  dup4\n  0xffffffffffffffffffffffffffffffffffffffff\n  and\n  mul\n  or\n  swap1\n  sstore\n  pop\n    /* \"fundme/FundMe.sol\":895:905  msg.sender */\n  caller\n    /* \"fundme/FundMe.sol\":889:894  owner */\n  0x01\n  0x00\n    /* \"fundme/FundMe.sol\":889:905  owner=msg.sender */\n  0x0100\n  exp\n  dup2\n  sload\n  dup2\n  0xffffffffffffffffffffffffffffffffffffffff\n  mul\n  not\n  and\n  swap1\n  dup4\n  0xffffffffffffffffffffffffffffffffffffffff\n  and\n  mul\n  or\n  swap1\n  sstore\n  pop\n    /* \"fundme/FundMe.sol\":982:997  block.timestamp */\n  timestamp\n    /* \"fundme/FundMe.sol\":965:981  developtimestamp */\n  0x02\n    /* \"fundme/FundMe.sol\":965:997  developtimestamp=block.timestamp */\n  dup2\n  swap1\n  sstore\n  pop\n    /* \"fundme/FundMe.sol\":1016:1029  needblocktime */\n  dup1\n    /* \"fundme/FundMe.sol\":1007:1015  locktime */\n  0x03\n    /* \"fundme/FundMe.sol\":1007:1029  locktime=needblocktime */\n  dup2\n  swap1\n  sstore\n  pop\n    /* \"fundme/FundMe.sol\":706:1036  constructor(uint256 needblocktime) {... */\n  pop\n    /* \"fundme/FundMe.sol\":384:5372  contract Fundtome{... */\n  jump(tag_6)\n    /* \"#utility.yul\":88:205   */\ntag_8:\n    /* \"#utility.yul\":197:198   */\n  0x00\n    /* \"#utility.yul\":194:195   */\n  dup1\n    /* \"#utility.yul\":187:199   */\n  revert\n    /* \"#utility.yul\":334:411   */\ntag_10:\n    /* \"#utility.yul\":371:378   */\n  0x00\n    /* \"#utility.yul\":400:405   */\n  dup2\n    /* \"#utility.yul\":389:405   */\n  swap1\n  pop\n    /* \"#utility.yul\":334:411   */\n  swap2\n  swap1\n  pop\n  jump\t// out\n    /* \"#utility.yul\":417:539   */\ntag_11:\n    /* \"#utility.yul\":490:514   */\n  tag_19\n    /* \"#utility.yul\":508:513   */\n  dup2\n    /* \"#utility.yul\":490:514   */\n  tag_10\n  jump\t// in\ntag_19:\n    /* \"#utility.yul\":483:488   */\n  dup2\n    /* \"#utility.yul\":480:515   */\n  eq\n    /* \"#utility.yul\":470:533   */\n  tag_20\n  jumpi\n    /* \"#utility.yul\":529:530   */\n  0x00\n    /* \"#utility.yul\":526:527   */\n  dup1\n    /* \"#utility.yul\":519:531   */\n  revert\n    /* \"#utility.yul\":470:533   */\ntag_20:\n    /* \"#utility.yul\":417:539   */\n  pop\n  jump\t// out\n    /* \"#utility.yul\":545:688   */\ntag_12:\n    /* \"#utility.yul\":602:607   */\n  0x00\n    /* \"#utility.yul\":633:639   */\n  dup2\n    /* \"#utility.yul\":627:640   */\n  mload\n    /* \"#utility.yul\":618:640   */\n  swap1\n  pop\n    /* \"#utility.yul\":649:682   */\n  tag_22\n    /* \"#utility.yul\":676:681   */\n  dup2\n    /* \"#utility.yul\":649:682   */\n  tag_11\n  jump\t// in\ntag_22:\n    /* \"#utility.yul\":545:688   */\n  swap3\n  swap2\n  pop\n  pop\n  jump\t// out\n    /* \"#utility.yul\":694:1045   */\ntag_3:\n    /* \"#utility.yul\":764:770   */\n  0x00\n    /* \"#utility.yul\":813:815   */\n  0x20\n    /* \"#utility.yul\":801:810   */\n  dup3\n    /* \"#utility.yul\":792:799   */\n  dup5\n    /* \"#utility.yul\":788:811   */\n  sub\n    /* \"#utility.yul\":784:816   */\n  slt\n    /* \"#utility.yul\":781:900   */\n  iszero\n  tag_24\n  jumpi\n    /* \"#utility.yul\":819:898   */\n  tag_25\n  tag_8\n  jump\t// in\ntag_25:\n    /* \"#utility.yul\":781:900   */\ntag_24:\n    /* \"#utility.yul\":939:940   */\n  0x00\n    /* \"#utility.yul\":964:1028   */\n  tag_26\n    /* \"#utility.yul\":1020:1027   */\n  dup5\n    /* \"#utility.yul\":1011:1017   */\n  dup3\n    /* \"#utility.yul\":1000:1009   */\n  dup6\n    /* \"#utility.yul\":996:1018   */\n  add\n    /* \"#utility.yul\":964:1028   */\n  tag_12\n  jump\t// in\ntag_26:\n    /* \"#utility.yul\":954:1028   */\n  swap2\n  pop\n    /* \"#utility.yul\":910:1038   */\n  pop\n    /* \"#utility.yul\":694:1045   */\n  swap3\n  swap2\n  pop\n  pop\n  jump\t// out\n    /* \"fundme/FundMe.sol\":384:5372  contract Fundtome{... */\ntag_6:\n  dataSize(sub_0)\n  dup1\n  dataOffset(sub_0)\n  0x00\n  codecopy\n  0x00\n  return\nstop\n\nsub_0: assembly {\n        /* \"fundme/FundMe.sol\":384:5372  contract Fundtome{... */\n      mstore(0x40, 0x80)\n      jumpi(tag_1, lt(calldatasize, 0x04))\n      shr(0xe0, calldataload(0x00))\n      dup1\n      0x8da5cb5b\n      gt\n      tag_9\n      jumpi\n      dup1\n      0x8da5cb5b\n      eq\n      tag_5\n      jumpi\n      dup1\n      0xb60d4288\n      eq\n      tag_6\n      jumpi\n      dup1\n      0xbea4dfb5\n      eq\n      tag_7\n      jumpi\n      dup1\n      0xd4f41178\n      eq\n      tag_8\n      jumpi\n      jump(tag_1)\n    tag_9:\n      dup1\n      0x5d268629\n      eq\n      tag_2\n      jumpi\n      dup1\n      0x6448121e\n      eq\n      tag_3\n      jumpi\n      dup1\n      0x774178e8\n      eq\n      tag_4\n      jumpi\n    tag_1:\n      0x00\n      dup1\n      revert\n        /* \"fundme/FundMe.sol\":3928:4835  function Refund()external windowClosed{... */\n    tag_2:\n      callvalue\n      dup1\n      iszero\n      tag_10\n      jumpi\n      0x00\n      dup1\n      revert\n    tag_10:\n      pop\n      tag_11\n      tag_12\n      jump\t// in\n    tag_11:\n      stop\n        /* \"fundme/FundMe.sol\":2620:3833  function Getmoneyifover() external windowClosed{... */\n    tag_3:\n      callvalue\n      dup1\n      iszero\n      tag_13\n      jumpi\n      0x00\n      dup1\n      revert\n    tag_13:\n      pop\n      tag_14\n      tag_15\n      jump\t// in\n    tag_14:\n      stop\n        /* \"fundme/FundMe.sol\":1042:1104  mapping (address addr => uint256 much) public  funderstoAmount */\n    tag_4:\n      callvalue\n      dup1\n      iszero\n      tag_16\n      jumpi\n      0x00\n      dup1\n      revert\n    tag_16:\n      pop\n      tag_17\n      0x04\n      dup1\n      calldatasize\n      sub\n      dup2\n      add\n      swap1\n      tag_18\n      swap2\n      swap1\n      tag_19\n      jump\t// in\n    tag_18:\n      tag_20\n      jump\t// in\n    tag_17:\n      mload(0x40)\n      tag_21\n      swap2\n      swap1\n      tag_22\n      jump\t// in\n    tag_21:\n      mload(0x40)\n      dup1\n      swap2\n      sub\n      swap1\n      return\n        /* \"fundme/FundMe.sol\":487:507  address public owner */\n    tag_5:\n      callvalue\n      dup1\n      iszero\n      tag_23\n      jumpi\n      0x00\n      dup1\n      revert\n    tag_23:\n      pop\n      tag_24\n      tag_25\n      jump\t// in\n    tag_24:\n      mload(0x40)\n      tag_26\n      swap2\n      swap1\n      tag_27\n      jump\t// in\n    tag_26:\n      mload(0x40)\n      dup1\n      swap2\n      sub\n      swap1\n      return\n        /* \"fundme/FundMe.sol\":1422:1700  function fund() external payable windownotclosed {... */\n    tag_6:\n      tag_28\n      tag_29\n      jump\t// in\n    tag_28:\n      stop\n        /* \"fundme/FundMe.sol\":1707:2045  function getChainlinkDataFeedLatestAnswer() public view returns (int) {... */\n    tag_7:\n      callvalue\n      dup1\n      iszero\n      tag_30\n      jumpi\n      0x00\n      dup1\n      revert\n    tag_30:\n      pop\n      tag_31\n      tag_32\n      jump\t// in\n    tag_31:\n      mload(0x40)\n      tag_33\n      swap2\n      swap1\n      tag_34\n      jump\t// in\n    tag_33:\n      mload(0x40)\n      dup1\n      swap2\n      sub\n      swap1\n      return\n        /* \"fundme/FundMe.sol\":2381:2466  function Resetowner(address Newowner) public onlyOwner{... */\n    tag_8:\n      callvalue\n      dup1\n      iszero\n      tag_35\n      jumpi\n      0x00\n      dup1\n      revert\n    tag_35:\n      pop\n      tag_36\n      0x04\n      dup1\n      calldatasize\n      sub\n      dup2\n      add\n      swap1\n      tag_37\n      swap2\n      swap1\n      tag_19\n      jump\t// in\n    tag_37:\n      tag_38\n      jump\t// in\n    tag_36:\n      stop\n        /* \"fundme/FundMe.sol\":3928:4835  function Refund()external windowClosed{... */\n    tag_12:\n        /* \"fundme/FundMe.sol\":5000:5008  locktime */\n      sload(0x03)\n        /* \"fundme/FundMe.sol\":4981:4997  developtimestamp */\n      sload(0x02)\n        /* \"fundme/FundMe.sol\":4981:5008  developtimestamp + locktime */\n      tag_40\n      swap2\n      swap1\n      tag_41\n      jump\t// in\n    tag_40:\n        /* \"fundme/FundMe.sol\":4963:4978  block.timestamp */\n      timestamp\n        /* \"fundme/FundMe.sol\":4963:5008  block.timestamp > developtimestamp + locktime */\n      gt\n        /* \"fundme/FundMe.sol\":4955:5032  require(block.timestamp > developtimestamp + locktime,\"time is not reached!\") */\n      tag_42\n      jumpi\n      mload(0x40)\n      0x08c379a000000000000000000000000000000000000000000000000000000000\n      dup2\n      mstore\n      0x04\n      add\n      tag_43\n      swap1\n      tag_44\n      jump\t// in\n    tag_43:\n      mload(0x40)\n      dup1\n      swap2\n      sub\n      swap1\n      revert\n    tag_42:\n        /* \"fundme/FundMe.sol\":4076:4080  FLAG */\n      sload(0x06)\n        /* \"fundme/FundMe.sol\":4034:4073  convertETHtoUSDT(address(this).balance) */\n      tag_46\n        /* \"fundme/FundMe.sol\":4051:4072  address(this).balance */\n      selfbalance\n        /* \"fundme/FundMe.sol\":4034:4050  convertETHtoUSDT */\n      tag_47\n        /* \"fundme/FundMe.sol\":4034:4073  convertETHtoUSDT(address(this).balance) */\n      jump\t// in\n    tag_46:\n        /* \"fundme/FundMe.sol\":4034:4080  convertETHtoUSDT(address(this).balance) < FLAG */\n      lt\n        /* \"fundme/FundMe.sol\":4026:4099  require(convertETHtoUSDT(address(this).balance) < FLAG,\"reach the FLAG!\") */\n      tag_48\n      jumpi\n      mload(0x40)\n      0x08c379a000000000000000000000000000000000000000000000000000000000\n      dup2\n      mstore\n      0x04\n      add\n      tag_49\n      swap1\n      tag_50\n      jump\t// in\n    tag_49:\n      mload(0x40)\n      dup1\n      swap2\n      sub\n      swap1\n      revert\n    tag_48:\n        /* \"fundme/FundMe.sol\":4264:4265  0 */\n      0x00\n        /* \"fundme/FundMe.sol\":4233:4248  funderstoAmount */\n      0x04\n        /* \"fundme/FundMe.sol\":4233:4260  funderstoAmount[msg.sender] */\n      0x00\n        /* \"fundme/FundMe.sol\":4249:4259  msg.sender */\n      caller\n        /* \"fundme/FundMe.sol\":4233:4260  funderstoAmount[msg.sender] */\n      0xffffffffffffffffffffffffffffffffffffffff\n      and\n      0xffffffffffffffffffffffffffffffffffffffff\n      and\n      dup2\n      mstore\n      0x20\n      add\n      swap1\n      dup2\n      mstore\n      0x20\n      add\n      0x00\n      keccak256\n      sload\n        /* \"fundme/FundMe.sol\":4233:4265  funderstoAmount[msg.sender] != 0 */\n      sub\n        /* \"fundme/FundMe.sol\":4225:4292  require(funderstoAmount[msg.sender] != 0,\"there is no your money!\") */\n      tag_51\n      jumpi\n      mload(0x40)\n      0x08c379a000000000000000000000000000000000000000000000000000000000\n      dup2\n      mstore\n      0x04\n      add\n      tag_52\n      swap1\n      tag_53\n      jump\t// in\n    tag_52:\n      mload(0x40)\n      dup1\n      swap2\n      sub\n      swap1\n      revert\n    tag_51:\n        /* \"fundme/FundMe.sol\":4532:4549  bool refundstatus */\n      0x00\n        /* \"fundme/FundMe.sol\":4584:4594  msg.sender */\n      caller\n        /* \"fundme/FundMe.sol\":4576:4600  payable(msg.sender).call */\n      0xffffffffffffffffffffffffffffffffffffffff\n      and\n        /* \"fundme/FundMe.sol\":4608:4623  funderstoAmount */\n      0x04\n        /* \"fundme/FundMe.sol\":4608:4635  funderstoAmount[msg.sender] */\n      0x00\n        /* \"fundme/FundMe.sol\":4624:4634  msg.sender */\n      caller\n        /* \"fundme/FundMe.sol\":4608:4635  funderstoAmount[msg.sender] */\n      0xffffffffffffffffffffffffffffffffffffffff\n      and\n      0xffffffffffffffffffffffffffffffffffffffff\n      and\n      dup2\n      mstore\n      0x20\n      add\n      swap1\n      dup2\n      mstore\n      0x20\n      add\n      0x00\n      keccak256\n      sload\n        /* \"fundme/FundMe.sol\":4576:4640  payable(msg.sender).call{value: funderstoAmount[msg.sender]}(\"\") */\n      mload(0x40)\n      tag_54\n      swap1\n      tag_55\n      jump\t// in\n    tag_54:\n      0x00\n      mload(0x40)\n      dup1\n      dup4\n      sub\n      dup2\n      dup6\n      dup8\n      gas\n      call\n      swap3\n      pop\n      pop\n      pop\n      returndatasize\n      dup1\n      0x00\n      dup2\n      eq\n      tag_58\n      jumpi\n      mload(0x40)\n      swap2\n      pop\n      and(add(returndatasize, 0x3f), not(0x1f))\n      dup3\n      add\n      0x40\n      mstore\n      returndatasize\n      dup3\n      mstore\n      returndatasize\n      0x00\n      0x20\n      dup5\n      add\n      returndatacopy\n      jump(tag_57)\n    tag_58:\n      0x60\n      swap2\n      pop\n    tag_57:\n      pop\n        /* \"fundme/FundMe.sol\":4559:4640  (refundstatus, )=payable(msg.sender).call{value: funderstoAmount[msg.sender]}(\"\") */\n      pop\n      dup1\n      swap2\n      pop\n      pop\n        /* \"fundme/FundMe.sol\":4699:4711  refundstatus */\n      dup1\n        /* \"fundme/FundMe.sol\":4691:4727  require(refundstatus,\"refund Fail!\") */\n      tag_59\n      jumpi\n      mload(0x40)\n      0x08c379a000000000000000000000000000000000000000000000000000000000\n      dup2\n      mstore\n      0x04\n      add\n      tag_60\n      swap1\n      tag_61\n      jump\t// in\n    tag_60:\n      mload(0x40)\n      dup1\n      swap2\n      sub\n      swap1\n      revert\n    tag_59:\n        /* \"fundme/FundMe.sol\":4827:4828  0 */\n      0x00\n        /* \"fundme/FundMe.sol\":4799:4814  funderstoAmount */\n      0x04\n        /* \"fundme/FundMe.sol\":4799:4826  funderstoAmount[msg.sender] */\n      0x00\n        /* \"fundme/FundMe.sol\":4815:4825  msg.sender */\n      caller\n        /* \"fundme/FundMe.sol\":4799:4826  funderstoAmount[msg.sender] */\n      0xffffffffffffffffffffffffffffffffffffffff\n      and\n      0xffffffffffffffffffffffffffffffffffffffff\n      and\n      dup2\n      mstore\n      0x20\n      add\n      swap1\n      dup2\n      mstore\n      0x20\n      add\n      0x00\n      keccak256\n        /* \"fundme/FundMe.sol\":4799:4828  funderstoAmount[msg.sender]=0 */\n      dup2\n      swap1\n      sstore\n      pop\n        /* \"fundme/FundMe.sol\":3966:4835  {... */\n      pop\n        /* \"fundme/FundMe.sol\":3928:4835  function Refund()external windowClosed{... */\n      jump\t// out\n        /* \"fundme/FundMe.sol\":2620:3833  function Getmoneyifover() external windowClosed{... */\n    tag_15:\n        /* \"fundme/FundMe.sol\":5000:5008  locktime */\n      sload(0x03)\n        /* \"fundme/FundMe.sol\":4981:4997  developtimestamp */\n      sload(0x02)\n        /* \"fundme/FundMe.sol\":4981:5008  developtimestamp + locktime */\n      tag_63\n      swap2\n      swap1\n      tag_41\n      jump\t// in\n    tag_63:\n        /* \"fundme/FundMe.sol\":4963:4978  block.timestamp */\n      timestamp\n        /* \"fundme/FundMe.sol\":4963:5008  block.timestamp > developtimestamp + locktime */\n      gt\n        /* \"fundme/FundMe.sol\":4955:5032  require(block.timestamp > developtimestamp + locktime,\"time is not reached!\") */\n      tag_64\n      jumpi\n      mload(0x40)\n      0x08c379a000000000000000000000000000000000000000000000000000000000\n      dup2\n      mstore\n      0x04\n      add\n      tag_65\n      swap1\n      tag_44\n      jump\t// in\n    tag_65:\n      mload(0x40)\n      dup1\n      swap2\n      sub\n      swap1\n      revert\n    tag_64:\n        /* \"fundme/FundMe.sol\":2772:2776  FLAG */\n      sload(0x06)\n        /* \"fundme/FundMe.sol\":2729:2768  convertETHtoUSDT(address(this).balance) */\n      tag_67\n        /* \"fundme/FundMe.sol\":2746:2767  address(this).balance */\n      selfbalance\n        /* \"fundme/FundMe.sol\":2729:2745  convertETHtoUSDT */\n      tag_47\n        /* \"fundme/FundMe.sol\":2729:2768  convertETHtoUSDT(address(this).balance) */\n      jump\t// in\n    tag_67:\n        /* \"fundme/FundMe.sol\":2729:2776  convertETHtoUSDT(address(this).balance) >= FLAG */\n      lt\n      iszero\n        /* \"fundme/FundMe.sol\":2721:2809  require(convertETHtoUSDT(address(this).balance) >= FLAG,\"balance is not reach to FLAG!\") */\n      tag_68\n      jumpi\n      mload(0x40)\n      0x08c379a000000000000000000000000000000000000000000000000000000000\n      dup2\n      mstore\n      0x04\n      add\n      tag_69\n      swap1\n      tag_70\n      jump\t// in\n    tag_69:\n      mload(0x40)\n      dup1\n      swap2\n      sub\n      swap1\n      revert\n    tag_68:\n        /* \"fundme/FundMe.sol\":2882:2887  owner */\n      0x01\n      0x00\n      swap1\n      sload\n      swap1\n      0x0100\n      exp\n      swap1\n      div\n      0xffffffffffffffffffffffffffffffffffffffff\n      and\n        /* \"fundme/FundMe.sol\":2868:2887  msg.sender == owner */\n      0xffffffffffffffffffffffffffffffffffffffff\n      and\n        /* \"fundme/FundMe.sol\":2868:2878  msg.sender */\n      caller\n        /* \"fundme/FundMe.sol\":2868:2887  msg.sender == owner */\n      0xffffffffffffffffffffffffffffffffffffffff\n      and\n      eq\n        /* \"fundme/FundMe.sol\":2860:2908  require(msg.sender == owner,\"you are not owner\") */\n      tag_71\n      jumpi\n      mload(0x40)\n      0x08c379a000000000000000000000000000000000000000000000000000000000\n      dup2\n      mstore\n      0x04\n      add\n      tag_72\n      swap1\n      tag_73\n      jump\t// in\n    tag_72:\n      mload(0x40)\n      dup1\n      swap2\n      sub\n      swap1\n      revert\n    tag_71:\n        /* \"fundme/FundMe.sol\":3513:3526  bool mystatus */\n      0x00\n        /* \"fundme/FundMe.sol\":3559:3569  msg.sender */\n      caller\n        /* \"fundme/FundMe.sol\":3551:3575  payable(msg.sender).call */\n      0xffffffffffffffffffffffffffffffffffffffff\n      and\n        /* \"fundme/FundMe.sol\":3583:3604  address(this).balance */\n      selfbalance\n        /* \"fundme/FundMe.sol\":3551:3609  payable(msg.sender).call{value: address(this).balance}(\"\") */\n      mload(0x40)\n      tag_74\n      swap1\n      tag_55\n      jump\t// in\n    tag_74:\n      0x00\n      mload(0x40)\n      dup1\n      dup4\n      sub\n      dup2\n      dup6\n      dup8\n      gas\n      call\n      swap3\n      pop\n      pop\n      pop\n      returndatasize\n      dup1\n      0x00\n      dup2\n      eq\n      tag_77\n      jumpi\n      mload(0x40)\n      swap2\n      pop\n      and(add(returndatasize, 0x3f), not(0x1f))\n      dup3\n      add\n      0x40\n      mstore\n      returndatasize\n      dup3\n      mstore\n      returndatasize\n      0x00\n      0x20\n      dup5\n      add\n      returndatacopy\n      jump(tag_76)\n    tag_77:\n      0x60\n      swap2\n      pop\n    tag_76:\n      pop\n        /* \"fundme/FundMe.sol\":3536:3609  (mystatus, ) = payable(msg.sender).call{value: address(this).balance}(\"\") */\n      pop\n      dup1\n      swap2\n      pop\n      pop\n        /* \"fundme/FundMe.sol\":3676:3684  mystatus */\n      dup1\n        /* \"fundme/FundMe.sol\":3668:3711  require(mystatus,\"owner's refund is Fail!\") */\n      tag_78\n      jumpi\n      mload(0x40)\n      0x08c379a000000000000000000000000000000000000000000000000000000000\n      dup2\n      mstore\n      0x04\n      add\n      tag_79\n      swap1\n      tag_80\n      jump\t// in\n    tag_79:\n      mload(0x40)\n      dup1\n      swap2\n      sub\n      swap1\n      revert\n    tag_78:\n        /* \"fundme/FundMe.sol\":3825:3826  0 */\n      0x00\n        /* \"fundme/FundMe.sol\":3795:3810  funderstoAmount */\n      0x04\n        /* \"fundme/FundMe.sol\":3795:3822  funderstoAmount[msg.sender] */\n      0x00\n        /* \"fundme/FundMe.sol\":3811:3821  msg.sender */\n      caller\n        /* \"fundme/FundMe.sol\":3795:3822  funderstoAmount[msg.sender] */\n      0xffffffffffffffffffffffffffffffffffffffff\n      and\n      0xffffffffffffffffffffffffffffffffffffffff\n      and\n      dup2\n      mstore\n      0x20\n      add\n      swap1\n      dup2\n      mstore\n      0x20\n      add\n      0x00\n      keccak256\n        /* \"fundme/FundMe.sol\":3795:3826  funderstoAmount[msg.sender] = 0 */\n      dup2\n      swap1\n      sstore\n      pop\n        /* \"fundme/FundMe.sol\":2667:3833  {... */\n      pop\n        /* \"fundme/FundMe.sol\":2620:3833  function Getmoneyifover() external windowClosed{... */\n      jump\t// out\n        /* \"fundme/FundMe.sol\":1042:1104  mapping (address addr => uint256 much) public  funderstoAmount */\n    tag_20:\n      mstore(0x20, 0x04)\n      dup1\n      0x00\n      mstore\n      keccak256(0x00, 0x40)\n      0x00\n      swap2\n      pop\n      swap1\n      pop\n      sload\n      dup2\n      jump\t// out\n        /* \"fundme/FundMe.sol\":487:507  address public owner */\n    tag_25:\n      0x01\n      0x00\n      swap1\n      sload\n      swap1\n      0x0100\n      exp\n      swap1\n      div\n      0xffffffffffffffffffffffffffffffffffffffff\n      and\n      dup2\n      jump\t// out\n        /* \"fundme/FundMe.sol\":1422:1700  function fund() external payable windownotclosed {... */\n    tag_29:\n        /* \"fundme/FundMe.sol\":5305:5313  locktime */\n      sload(0x03)\n        /* \"fundme/FundMe.sol\":5286:5302  developtimestamp */\n      sload(0x02)\n        /* \"fundme/FundMe.sol\":5286:5313  developtimestamp + locktime */\n      tag_82\n      swap2\n      swap1\n      tag_41\n      jump\t// in\n    tag_82:\n        /* \"fundme/FundMe.sol\":5268:5283  block.timestamp */\n      timestamp\n        /* \"fundme/FundMe.sol\":5268:5313  block.timestamp < developtimestamp + locktime */\n      lt\n        /* \"fundme/FundMe.sol\":5260:5347  require(block.timestamp < developtimestamp + locktime,\"time is out,you can't fund in!\") */\n      tag_83\n      jumpi\n      mload(0x40)\n      0x08c379a000000000000000000000000000000000000000000000000000000000\n      dup2\n      mstore\n      0x04\n      add\n      tag_84\n      swap1\n      tag_85\n      jump\t// in\n    tag_84:\n      mload(0x40)\n      dup1\n      swap2\n      sub\n      swap1\n      revert\n    tag_83:\n        /* \"fundme/FundMe.sol\":1608:1620  MINIUM_VALUE */\n      sload(0x05)\n        /* \"fundme/FundMe.sol\":1577:1604  convertETHtoUSDT(msg.value) */\n      tag_87\n        /* \"fundme/FundMe.sol\":1594:1603  msg.value */\n      callvalue\n        /* \"fundme/FundMe.sol\":1577:1593  convertETHtoUSDT */\n      tag_47\n        /* \"fundme/FundMe.sol\":1577:1604  convertETHtoUSDT(msg.value) */\n      jump\t// in\n    tag_87:\n        /* \"fundme/FundMe.sol\":1577:1620  convertETHtoUSDT(msg.value) >= MINIUM_VALUE */\n      lt\n      iszero\n        /* \"fundme/FundMe.sol\":1569:1646  require(convertETHtoUSDT(msg.value) >= MINIUM_VALUE,\"please send more money\") */\n      tag_88\n      jumpi\n      mload(0x40)\n      0x08c379a000000000000000000000000000000000000000000000000000000000\n      dup2\n      mstore\n      0x04\n      add\n      tag_89\n      swap1\n      tag_90\n      jump\t// in\n    tag_89:\n      mload(0x40)\n      dup1\n      swap2\n      sub\n      swap1\n      revert\n    tag_88:\n        /* \"fundme/FundMe.sol\":1684:1693  msg.value */\n      callvalue\n        /* \"fundme/FundMe.sol\":1656:1671  funderstoAmount */\n      0x04\n        /* \"fundme/FundMe.sol\":1656:1683  funderstoAmount[msg.sender] */\n      0x00\n        /* \"fundme/FundMe.sol\":1672:1682  msg.sender */\n      caller\n        /* \"fundme/FundMe.sol\":1656:1683  funderstoAmount[msg.sender] */\n      0xffffffffffffffffffffffffffffffffffffffff\n      and\n      0xffffffffffffffffffffffffffffffffffffffff\n      and\n      dup2\n      mstore\n      0x20\n      add\n      swap1\n      dup2\n      mstore\n      0x20\n      add\n      0x00\n      keccak256\n        /* \"fundme/FundMe.sol\":1656:1693  funderstoAmount[msg.sender]=msg.value */\n      dup2\n      swap1\n      sstore\n      pop\n        /* \"fundme/FundMe.sol\":1422:1700  function fund() external payable windownotclosed {... */\n      jump\t// out\n        /* \"fundme/FundMe.sol\":1707:2045  function getChainlinkDataFeedLatestAnswer() public view returns (int) {... */\n    tag_32:\n        /* \"fundme/FundMe.sol\":1772:1775  int */\n      0x00\n        /* \"fundme/FundMe.sol\":1862:1872  int answer */\n      dup1\n        /* \"fundme/FundMe.sol\":1989:1997  dataFeed */\n      0x00\n      dup1\n      sload\n      swap1\n      0x0100\n      exp\n      swap1\n      div\n      0xffffffffffffffffffffffffffffffffffffffff\n      and\n        /* \"fundme/FundMe.sol\":1989:2013  dataFeed.latestRoundData */\n      0xffffffffffffffffffffffffffffffffffffffff\n      and\n      0xfeaf968c\n        /* \"fundme/FundMe.sol\":1989:2015  dataFeed.latestRoundData() */\n      mload(0x40)\n      dup2\n      0xffffffff\n      and\n      0xe0\n      shl\n      dup2\n      mstore\n      0x04\n      add\n      0xa0\n      mload(0x40)\n      dup1\n      dup4\n      sub\n      dup2\n      dup7\n      gas\n      staticcall\n      iszero\n      dup1\n      iszero\n      tag_93\n      jumpi\n      returndatasize\n      0x00\n      dup1\n      returndatacopy\n      revert(0x00, returndatasize)\n    tag_93:\n      pop\n      pop\n      pop\n      pop\n      mload(0x40)\n      returndatasize\n      not(0x1f)\n      0x1f\n      dup3\n      add\n      and\n      dup3\n      add\n      dup1\n      0x40\n      mstore\n      pop\n      dup2\n      add\n      swap1\n      tag_94\n      swap2\n      swap1\n      tag_95\n      jump\t// in\n    tag_94:\n        /* \"fundme/FundMe.sol\":1814:2015  (... */\n      pop\n      pop\n      pop\n      swap2\n      pop\n      pop\n        /* \"fundme/FundMe.sol\":2032:2038  answer */\n      dup1\n        /* \"fundme/FundMe.sol\":2025:2038  return answer */\n      swap2\n      pop\n      pop\n        /* \"fundme/FundMe.sol\":1707:2045  function getChainlinkDataFeedLatestAnswer() public view returns (int) {... */\n      swap1\n      jump\t// out\n        /* \"fundme/FundMe.sol\":2381:2466  function Resetowner(address Newowner) public onlyOwner{... */\n    tag_38:\n        /* \"fundme/FundMe.sol\":5140:5145  owner */\n      0x01\n      0x00\n      swap1\n      sload\n      swap1\n      0x0100\n      exp\n      swap1\n      div\n      0xffffffffffffffffffffffffffffffffffffffff\n      and\n        /* \"fundme/FundMe.sol\":5126:5145  msg.sender == owner */\n      0xffffffffffffffffffffffffffffffffffffffff\n      and\n        /* \"fundme/FundMe.sol\":5126:5136  msg.sender */\n      caller\n        /* \"fundme/FundMe.sol\":5126:5145  msg.sender == owner */\n      0xffffffffffffffffffffffffffffffffffffffff\n      and\n      eq\n        /* \"fundme/FundMe.sol\":5118:5166  require(msg.sender == owner,\"you are not owner\") */\n      tag_97\n      jumpi\n      mload(0x40)\n      0x08c379a000000000000000000000000000000000000000000000000000000000\n      dup2\n      mstore\n      0x04\n      add\n      tag_98\n      swap1\n      tag_73\n      jump\t// in\n    tag_98:\n      mload(0x40)\n      dup1\n      swap2\n      sub\n      swap1\n      revert\n    tag_97:\n        /* \"fundme/FundMe.sol\":2451:2459  Newowner */\n      dup1\n        /* \"fundme/FundMe.sol\":2445:2450  owner */\n      0x01\n      0x00\n        /* \"fundme/FundMe.sol\":2445:2459  owner=Newowner */\n      0x0100\n      exp\n      dup2\n      sload\n      dup2\n      0xffffffffffffffffffffffffffffffffffffffff\n      mul\n      not\n      and\n      swap1\n      dup4\n      0xffffffffffffffffffffffffffffffffffffffff\n      and\n      mul\n      or\n      swap1\n      sstore\n      pop\n        /* \"fundme/FundMe.sol\":2381:2466  function Resetowner(address Newowner) public onlyOwner{... */\n      pop\n      jump\t// out\n        /* \"fundme/FundMe.sol\":2050:2339  function convertETHtoUSDT(uint256 getethnumber) internal view returns(uint256){... */\n    tag_47:\n        /* \"fundme/FundMe.sol\":2120:2127  uint256 */\n      0x00\n        /* \"fundme/FundMe.sol\":2138:2154  uint256 oneprice */\n      dup1\n        /* \"fundme/FundMe.sol\":2163:2197  getChainlinkDataFeedLatestAnswer() */\n      tag_101\n        /* \"fundme/FundMe.sol\":2163:2195  getChainlinkDataFeedLatestAnswer */\n      tag_32\n        /* \"fundme/FundMe.sol\":2163:2197  getChainlinkDataFeedLatestAnswer() */\n      jump\t// in\n    tag_101:\n        /* \"fundme/FundMe.sol\":2138:2198  uint256 oneprice=uint256(getChainlinkDataFeedLatestAnswer()) */\n      swap1\n      pop\n        /* \"fundme/FundMe.sol\":2242:2250  10 ** 26 */\n      0x52b7d2dcc80cd2e4000000\n        /* \"fundme/FundMe.sol\":2230:2238  oneprice */\n      dup2\n        /* \"fundme/FundMe.sol\":2215:2227  getethnumber */\n      dup5\n        /* \"fundme/FundMe.sol\":2215:2238  getethnumber * oneprice */\n      tag_102\n      swap2\n      swap1\n      tag_103\n      jump\t// in\n    tag_102:\n        /* \"fundme/FundMe.sol\":2215:2251  getethnumber * oneprice / (10 ** 26) */\n      tag_104\n      swap2\n      swap1\n      tag_105\n      jump\t// in\n    tag_104:\n        /* \"fundme/FundMe.sol\":2208:2251  return getethnumber * oneprice / (10 ** 26) */\n      swap2\n      pop\n      pop\n        /* \"fundme/FundMe.sol\":2050:2339  function convertETHtoUSDT(uint256 getethnumber) internal view returns(uint256){... */\n      swap2\n      swap1\n      pop\n      jump\t// out\n        /* \"#utility.yul\":88:205   */\n    tag_107:\n        /* \"#utility.yul\":197:198   */\n      0x00\n        /* \"#utility.yul\":194:195   */\n      dup1\n        /* \"#utility.yul\":187:199   */\n      revert\n        /* \"#utility.yul\":334:460   */\n    tag_109:\n        /* \"#utility.yul\":371:378   */\n      0x00\n        /* \"#utility.yul\":411:453   */\n      0xffffffffffffffffffffffffffffffffffffffff\n        /* \"#utility.yul\":404:409   */\n      dup3\n        /* \"#utility.yul\":400:454   */\n      and\n        /* \"#utility.yul\":389:454   */\n      swap1\n      pop\n        /* \"#utility.yul\":334:460   */\n      swap2\n      swap1\n      pop\n      jump\t// out\n        /* \"#utility.yul\":466:562   */\n    tag_110:\n        /* \"#utility.yul\":503:510   */\n      0x00\n        /* \"#utility.yul\":532:556   */\n      tag_155\n        /* \"#utility.yul\":550:555   */\n      dup3\n        /* \"#utility.yul\":532:556   */\n      tag_109\n      jump\t// in\n    tag_155:\n        /* \"#utility.yul\":521:556   */\n      swap1\n      pop\n        /* \"#utility.yul\":466:562   */\n      swap2\n      swap1\n      pop\n      jump\t// out\n        /* \"#utility.yul\":568:690   */\n    tag_111:\n        /* \"#utility.yul\":641:665   */\n      tag_157\n        /* \"#utility.yul\":659:664   */\n      dup2\n        /* \"#utility.yul\":641:665   */\n      tag_110\n      jump\t// in\n    tag_157:\n        /* \"#utility.yul\":634:639   */\n      dup2\n        /* \"#utility.yul\":631:666   */\n      eq\n        /* \"#utility.yul\":621:684   */\n      tag_158\n      jumpi\n        /* \"#utility.yul\":680:681   */\n      0x00\n        /* \"#utility.yul\":677:678   */\n      dup1\n        /* \"#utility.yul\":670:682   */\n      revert\n        /* \"#utility.yul\":621:684   */\n    tag_158:\n        /* \"#utility.yul\":568:690   */\n      pop\n      jump\t// out\n        /* \"#utility.yul\":696:835   */\n    tag_112:\n        /* \"#utility.yul\":742:747   */\n      0x00\n        /* \"#utility.yul\":780:786   */\n      dup2\n        /* \"#utility.yul\":767:787   */\n      calldataload\n        /* \"#utility.yul\":758:787   */\n      swap1\n      pop\n        /* \"#utility.yul\":796:829   */\n      tag_160\n        /* \"#utility.yul\":823:828   */\n      dup2\n        /* \"#utility.yul\":796:829   */\n      tag_111\n      jump\t// in\n    tag_160:\n        /* \"#utility.yul\":696:835   */\n      swap3\n      swap2\n      pop\n      pop\n      jump\t// out\n        /* \"#utility.yul\":841:1170   */\n    tag_19:\n        /* \"#utility.yul\":900:906   */\n      0x00\n        /* \"#utility.yul\":949:951   */\n      0x20\n        /* \"#utility.yul\":937:946   */\n      dup3\n        /* \"#utility.yul\":928:935   */\n      dup5\n        /* \"#utility.yul\":924:947   */\n      sub\n        /* \"#utility.yul\":920:952   */\n      slt\n        /* \"#utility.yul\":917:1036   */\n      iszero\n      tag_162\n      jumpi\n        /* \"#utility.yul\":955:1034   */\n      tag_163\n      tag_107\n      jump\t// in\n    tag_163:\n        /* \"#utility.yul\":917:1036   */\n    tag_162:\n        /* \"#utility.yul\":1075:1076   */\n      0x00\n        /* \"#utility.yul\":1100:1153   */\n      tag_164\n        /* \"#utility.yul\":1145:1152   */\n      dup5\n        /* \"#utility.yul\":1136:1142   */\n      dup3\n        /* \"#utility.yul\":1125:1134   */\n      dup6\n        /* \"#utility.yul\":1121:1143   */\n      add\n        /* \"#utility.yul\":1100:1153   */\n      tag_112\n      jump\t// in\n    tag_164:\n        /* \"#utility.yul\":1090:1153   */\n      swap2\n      pop\n        /* \"#utility.yul\":1046:1163   */\n      pop\n        /* \"#utility.yul\":841:1170   */\n      swap3\n      swap2\n      pop\n      pop\n      jump\t// out\n        /* \"#utility.yul\":1176:1253   */\n    tag_113:\n        /* \"#utility.yul\":1213:1220   */\n      0x00\n        /* \"#utility.yul\":1242:1247   */\n      dup2\n        /* \"#utility.yul\":1231:1247   */\n      swap1\n      pop\n        /* \"#utility.yul\":1176:1253   */\n      swap2\n      swap1\n      pop\n      jump\t// out\n        /* \"#utility.yul\":1259:1377   */\n    tag_114:\n        /* \"#utility.yul\":1346:1370   */\n      tag_167\n        /* \"#utility.yul\":1364:1369   */\n      dup2\n        /* \"#utility.yul\":1346:1370   */\n      tag_113\n      jump\t// in\n    tag_167:\n        /* \"#utility.yul\":1341:1344   */\n      dup3\n        /* \"#utility.yul\":1334:1371   */\n      mstore\n        /* \"#utility.yul\":1259:1377   */\n      pop\n      pop\n      jump\t// out\n        /* \"#utility.yul\":1383:1605   */\n    tag_22:\n        /* \"#utility.yul\":1476:1480   */\n      0x00\n        /* \"#utility.yul\":1514:1516   */\n      0x20\n        /* \"#utility.yul\":1503:1512   */\n      dup3\n        /* \"#utility.yul\":1499:1517   */\n      add\n        /* \"#utility.yul\":1491:1517   */\n      swap1\n      pop\n        /* \"#utility.yul\":1527:1598   */\n      tag_169\n        /* \"#utility.yul\":1595:1596   */\n      0x00\n        /* \"#utility.yul\":1584:1593   */\n      dup4\n        /* \"#utility.yul\":1580:1597   */\n      add\n        /* \"#utility.yul\":1571:1577   */\n      dup5\n        /* \"#utility.yul\":1527:1598   */\n      tag_114\n      jump\t// in\n    tag_169:\n        /* \"#utility.yul\":1383:1605   */\n      swap3\n      swap2\n      pop\n      pop\n      jump\t// out\n        /* \"#utility.yul\":1611:1729   */\n    tag_115:\n        /* \"#utility.yul\":1698:1722   */\n      tag_171\n        /* \"#utility.yul\":1716:1721   */\n      dup2\n        /* \"#utility.yul\":1698:1722   */\n      tag_110\n      jump\t// in\n    tag_171:\n        /* \"#utility.yul\":1693:1696   */\n      dup3\n        /* \"#utility.yul\":1686:1723   */\n      mstore\n        /* \"#utility.yul\":1611:1729   */\n      pop\n      pop\n      jump\t// out\n        /* \"#utility.yul\":1735:1957   */\n    tag_27:\n        /* \"#utility.yul\":1828:1832   */\n      0x00\n        /* \"#utility.yul\":1866:1868   */\n      0x20\n        /* \"#utility.yul\":1855:1864   */\n      dup3\n        /* \"#utility.yul\":1851:1869   */\n      add\n        /* \"#utility.yul\":1843:1869   */\n      swap1\n      pop\n        /* \"#utility.yul\":1879:1950   */\n      tag_173\n        /* \"#utility.yul\":1947:1948   */\n      0x00\n        /* \"#utility.yul\":1936:1945   */\n      dup4\n        /* \"#utility.yul\":1932:1949   */\n      add\n        /* \"#utility.yul\":1923:1929   */\n      dup5\n        /* \"#utility.yul\":1879:1950   */\n      tag_115\n      jump\t// in\n    tag_173:\n        /* \"#utility.yul\":1735:1957   */\n      swap3\n      swap2\n      pop\n      pop\n      jump\t// out\n        /* \"#utility.yul\":1963:2039   */\n    tag_116:\n        /* \"#utility.yul\":1999:2006   */\n      0x00\n        /* \"#utility.yul\":2028:2033   */\n      dup2\n        /* \"#utility.yul\":2017:2033   */\n      swap1\n      pop\n        /* \"#utility.yul\":1963:2039   */\n      swap2\n      swap1\n      pop\n      jump\t// out\n        /* \"#utility.yul\":2045:2160   */\n    tag_117:\n        /* \"#utility.yul\":2130:2153   */\n      tag_176\n        /* \"#utility.yul\":2147:2152   */\n      dup2\n        /* \"#utility.yul\":2130:2153   */\n      tag_116\n      jump\t// in\n    tag_176:\n        /* \"#utility.yul\":2125:2128   */\n      dup3\n        /* \"#utility.yul\":2118:2154   */\n      mstore\n        /* \"#utility.yul\":2045:2160   */\n      pop\n      pop\n      jump\t// out\n        /* \"#utility.yul\":2166:2384   */\n    tag_34:\n        /* \"#utility.yul\":2257:2261   */\n      0x00\n        /* \"#utility.yul\":2295:2297   */\n      0x20\n        /* \"#utility.yul\":2284:2293   */\n      dup3\n        /* \"#utility.yul\":2280:2298   */\n      add\n        /* \"#utility.yul\":2272:2298   */\n      swap1\n      pop\n        /* \"#utility.yul\":2308:2377   */\n      tag_178\n        /* \"#utility.yul\":2374:2375   */\n      0x00\n        /* \"#utility.yul\":2363:2372   */\n      dup4\n        /* \"#utility.yul\":2359:2376   */\n      add\n        /* \"#utility.yul\":2350:2356   */\n      dup5\n        /* \"#utility.yul\":2308:2377   */\n      tag_117\n      jump\t// in\n    tag_178:\n        /* \"#utility.yul\":2166:2384   */\n      swap3\n      swap2\n      pop\n      pop\n      jump\t// out\n        /* \"#utility.yul\":2390:2570   */\n    tag_118:\n        /* \"#utility.yul\":2438:2515   */\n      0x4e487b7100000000000000000000000000000000000000000000000000000000\n        /* \"#utility.yul\":2435:2436   */\n      0x00\n        /* \"#utility.yul\":2428:2516   */\n      mstore\n        /* \"#utility.yul\":2535:2539   */\n      0x11\n        /* \"#utility.yul\":2532:2533   */\n      0x04\n        /* \"#utility.yul\":2525:2540   */\n      mstore\n        /* \"#utility.yul\":2559:2563   */\n      0x24\n        /* \"#utility.yul\":2556:2557   */\n      0x00\n        /* \"#utility.yul\":2549:2564   */\n      revert\n        /* \"#utility.yul\":2576:2767   */\n    tag_41:\n        /* \"#utility.yul\":2616:2619   */\n      0x00\n        /* \"#utility.yul\":2635:2655   */\n      tag_181\n        /* \"#utility.yul\":2653:2654   */\n      dup3\n        /* \"#utility.yul\":2635:2655   */\n      tag_113\n      jump\t// in\n    tag_181:\n        /* \"#utility.yul\":2630:2655   */\n      swap2\n      pop\n        /* \"#utility.yul\":2669:2689   */\n      tag_182\n        /* \"#utility.yul\":2687:2688   */\n      dup4\n        /* \"#utility.yul\":2669:2689   */\n      tag_113\n      jump\t// in\n    tag_182:\n        /* \"#utility.yul\":2664:2689   */\n      swap3\n      pop\n        /* \"#utility.yul\":2712:2713   */\n      dup3\n        /* \"#utility.yul\":2709:2710   */\n      dup3\n        /* \"#utility.yul\":2705:2714   */\n      add\n        /* \"#utility.yul\":2698:2714   */\n      swap1\n      pop\n        /* \"#utility.yul\":2733:2736   */\n      dup1\n        /* \"#utility.yul\":2730:2731   */\n      dup3\n        /* \"#utility.yul\":2727:2737   */\n      gt\n        /* \"#utility.yul\":2724:2760   */\n      iszero\n      tag_183\n      jumpi\n        /* \"#utility.yul\":2740:2758   */\n      tag_184\n      tag_118\n      jump\t// in\n    tag_184:\n        /* \"#utility.yul\":2724:2760   */\n    tag_183:\n        /* \"#utility.yul\":2576:2767   */\n      swap3\n      swap2\n      pop\n      pop\n      jump\t// out\n        /* \"#utility.yul\":2773:2942   */\n    tag_119:\n        /* \"#utility.yul\":2857:2868   */\n      0x00\n        /* \"#utility.yul\":2891:2897   */\n      dup3\n        /* \"#utility.yul\":2886:2889   */\n      dup3\n        /* \"#utility.yul\":2879:2898   */\n      mstore\n        /* \"#utility.yul\":2931:2935   */\n      0x20\n        /* \"#utility.yul\":2926:2929   */\n      dup3\n        /* \"#utility.yul\":2922:2936   */\n      add\n        /* \"#utility.yul\":2907:2936   */\n      swap1\n      pop\n        /* \"#utility.yul\":2773:2942   */\n      swap3\n      swap2\n      pop\n      pop\n      jump\t// out\n        /* \"#utility.yul\":2948:3118   */\n    tag_120:\n        /* \"#utility.yul\":3088:3110   */\n      0x74696d65206973206e6f74207265616368656421000000000000000000000000\n        /* \"#utility.yul\":3084:3085   */\n      0x00\n        /* \"#utility.yul\":3076:3082   */\n      dup3\n        /* \"#utility.yul\":3072:3086   */\n      add\n        /* \"#utility.yul\":3065:3111   */\n      mstore\n        /* \"#utility.yul\":2948:3118   */\n      pop\n      jump\t// out\n        /* \"#utility.yul\":3124:3490   */\n    tag_121:\n        /* \"#utility.yul\":3266:3269   */\n      0x00\n        /* \"#utility.yul\":3287:3354   */\n      tag_188\n        /* \"#utility.yul\":3351:3353   */\n      0x14\n        /* \"#utility.yul\":3346:3349   */\n      dup4\n        /* \"#utility.yul\":3287:3354   */\n      tag_119\n      jump\t// in\n    tag_188:\n        /* \"#utility.yul\":3280:3354   */\n      swap2\n      pop\n        /* \"#utility.yul\":3363:3456   */\n      tag_189\n        /* \"#utility.yul\":3452:3455   */\n      dup3\n        /* \"#utility.yul\":3363:3456   */\n      tag_120\n      jump\t// in\n    tag_189:\n        /* \"#utility.yul\":3481:3483   */\n      0x20\n        /* \"#utility.yul\":3476:3479   */\n      dup3\n        /* \"#utility.yul\":3472:3484   */\n      add\n        /* \"#utility.yul\":3465:3484   */\n      swap1\n      pop\n        /* \"#utility.yul\":3124:3490   */\n      swap2\n      swap1\n      pop\n      jump\t// out\n        /* \"#utility.yul\":3496:3915   */\n    tag_44:\n        /* \"#utility.yul\":3662:3666   */\n      0x00\n        /* \"#utility.yul\":3700:3702   */\n      0x20\n        /* \"#utility.yul\":3689:3698   */\n      dup3\n        /* \"#utility.yul\":3685:3703   */\n      add\n        /* \"#utility.yul\":3677:3703   */\n      swap1\n      pop\n        /* \"#utility.yul\":3749:3758   */\n      dup2\n        /* \"#utility.yul\":3743:3747   */\n      dup2\n        /* \"#utility.yul\":3739:3759   */\n      sub\n        /* \"#utility.yul\":3735:3736   */\n      0x00\n        /* \"#utility.yul\":3724:3733   */\n      dup4\n        /* \"#utility.yul\":3720:3737   */\n      add\n        /* \"#utility.yul\":3713:3760   */\n      mstore\n        /* \"#utility.yul\":3777:3908   */\n      tag_191\n        /* \"#utility.yul\":3903:3907   */\n      dup2\n        /* \"#utility.yul\":3777:3908   */\n      tag_121\n      jump\t// in\n    tag_191:\n        /* \"#utility.yul\":3769:3908   */\n      swap1\n      pop\n        /* \"#utility.yul\":3496:3915   */\n      swap2\n      swap1\n      pop\n      jump\t// out\n        /* \"#utility.yul\":3921:4086   */\n    tag_122:\n        /* \"#utility.yul\":4061:4078   */\n      0x72656163682074686520464c4147210000000000000000000000000000000000\n        /* \"#utility.yul\":4057:4058   */\n      0x00\n        /* \"#utility.yul\":4049:4055   */\n      dup3\n        /* \"#utility.yul\":4045:4059   */\n      add\n        /* \"#utility.yul\":4038:4079   */\n      mstore\n        /* \"#utility.yul\":3921:4086   */\n      pop\n      jump\t// out\n        /* \"#utility.yul\":4092:4458   */\n    tag_123:\n        /* \"#utility.yul\":4234:4237   */\n      0x00\n        /* \"#utility.yul\":4255:4322   */\n      tag_194\n        /* \"#utility.yul\":4319:4321   */\n      0x0f\n        /* \"#utility.yul\":4314:4317   */\n      dup4\n        /* \"#utility.yul\":4255:4322   */\n      tag_119\n      jump\t// in\n    tag_194:\n        /* \"#utility.yul\":4248:4322   */\n      swap2\n      pop\n        /* \"#utility.yul\":4331:4424   */\n      tag_195\n        /* \"#utility.yul\":4420:4423   */\n      dup3\n        /* \"#utility.yul\":4331:4424   */\n      tag_122\n      jump\t// in\n    tag_195:\n        /* \"#utility.yul\":4449:4451   */\n      0x20\n        /* \"#utility.yul\":4444:4447   */\n      dup3\n        /* \"#utility.yul\":4440:4452   */\n      add\n        /* \"#utility.yul\":4433:4452   */\n      swap1\n      pop\n        /* \"#utility.yul\":4092:4458   */\n      swap2\n      swap1\n      pop\n      jump\t// out\n        /* \"#utility.yul\":4464:4883   */\n    tag_50:\n        /* \"#utility.yul\":4630:4634   */\n      0x00\n        /* \"#utility.yul\":4668:4670   */\n      0x20\n        /* \"#utility.yul\":4657:4666   */\n      dup3\n        /* \"#utility.yul\":4653:4671   */\n      add\n        /* \"#utility.yul\":4645:4671   */\n      swap1\n      pop\n        /* \"#utility.yul\":4717:4726   */\n      dup2\n        /* \"#utility.yul\":4711:4715   */\n      dup2\n        /* \"#utility.yul\":4707:4727   */\n      sub\n        /* \"#utility.yul\":4703:4704   */\n      0x00\n        /* \"#utility.yul\":4692:4701   */\n      dup4\n        /* \"#utility.yul\":4688:4705   */\n      add\n        /* \"#utility.yul\":4681:4728   */\n      mstore\n        /* \"#utility.yul\":4745:4876   */\n      tag_197\n        /* \"#utility.yul\":4871:4875   */\n      dup2\n        /* \"#utility.yul\":4745:4876   */\n      tag_123\n      jump\t// in\n    tag_197:\n        /* \"#utility.yul\":4737:4876   */\n      swap1\n      pop\n        /* \"#utility.yul\":4464:4883   */\n      swap2\n      swap1\n      pop\n      jump\t// out\n        /* \"#utility.yul\":4889:5062   */\n    tag_124:\n        /* \"#utility.yul\":5029:5054   */\n      0x7468657265206973206e6f20796f7572206d6f6e657921000000000000000000\n        /* \"#utility.yul\":5025:5026   */\n      0x00\n        /* \"#utility.yul\":5017:5023   */\n      dup3\n        /* \"#utility.yul\":5013:5027   */\n      add\n        /* \"#utility.yul\":5006:5055   */\n      mstore\n        /* \"#utility.yul\":4889:5062   */\n      pop\n      jump\t// out\n        /* \"#utility.yul\":5068:5434   */\n    tag_125:\n        /* \"#utility.yul\":5210:5213   */\n      0x00\n        /* \"#utility.yul\":5231:5298   */\n      tag_200\n        /* \"#utility.yul\":5295:5297   */\n      0x17\n        /* \"#utility.yul\":5290:5293   */\n      dup4\n        /* \"#utility.yul\":5231:5298   */\n      tag_119\n      jump\t// in\n    tag_200:\n        /* \"#utility.yul\":5224:5298   */\n      swap2\n      pop\n        /* \"#utility.yul\":5307:5400   */\n      tag_201\n        /* \"#utility.yul\":5396:5399   */\n      dup3\n        /* \"#utility.yul\":5307:5400   */\n      tag_124\n      jump\t// in\n    tag_201:\n        /* \"#utility.yul\":5425:5427   */\n      0x20\n        /* \"#utility.yul\":5420:5423   */\n      dup3\n        /* \"#utility.yul\":5416:5428   */\n      add\n        /* \"#utility.yul\":5409:5428   */\n      swap1\n      pop\n        /* \"#utility.yul\":5068:5434   */\n      swap2\n      swap1\n      pop\n      jump\t// out\n        /* \"#utility.yul\":5440:5859   */\n    tag_53:\n        /* \"#utility.yul\":5606:5610   */\n      0x00\n        /* \"#utility.yul\":5644:5646   */\n      0x20\n        /* \"#utility.yul\":5633:5642   */\n      dup3\n        /* \"#utility.yul\":5629:5647   */\n      add\n        /* \"#utility.yul\":5621:5647   */\n      swap1\n      pop\n        /* \"#utility.yul\":5693:5702   */\n      dup2\n        /* \"#utility.yul\":5687:5691   */\n      dup2\n        /* \"#utility.yul\":5683:5703   */\n      sub\n        /* \"#utility.yul\":5679:5680   */\n      0x00\n        /* \"#utility.yul\":5668:5677   */\n      dup4\n        /* \"#utility.yul\":5664:5681   */\n      add\n        /* \"#utility.yul\":5657:5704   */\n      mstore\n        /* \"#utility.yul\":5721:5852   */\n      tag_203\n        /* \"#utility.yul\":5847:5851   */\n      dup2\n        /* \"#utility.yul\":5721:5852   */\n      tag_125\n      jump\t// in\n    tag_203:\n        /* \"#utility.yul\":5713:5852   */\n      swap1\n      pop\n        /* \"#utility.yul\":5440:5859   */\n      swap2\n      swap1\n      pop\n      jump\t// out\n        /* \"#utility.yul\":5865:6012   */\n    tag_126:\n        /* \"#utility.yul\":5966:5977   */\n      0x00\n        /* \"#utility.yul\":6003:6006   */\n      dup2\n        /* \"#utility.yul\":5988:6006   */\n      swap1\n      pop\n        /* \"#utility.yul\":5865:6012   */\n      swap3\n      swap2\n      pop\n      pop\n      jump\t// out\n        /* \"#utility.yul\":6018:6132   */\n    tag_127:\n      pop\n      jump\t// out\n        /* \"#utility.yul\":6138:6536   */\n    tag_128:\n        /* \"#utility.yul\":6297:6300   */\n      0x00\n        /* \"#utility.yul\":6318:6401   */\n      tag_207\n        /* \"#utility.yul\":6399:6400   */\n      0x00\n        /* \"#utility.yul\":6394:6397   */\n      dup4\n        /* \"#utility.yul\":6318:6401   */\n      tag_126\n      jump\t// in\n    tag_207:\n        /* \"#utility.yul\":6311:6401   */\n      swap2\n      pop\n        /* \"#utility.yul\":6410:6503   */\n      tag_208\n        /* \"#utility.yul\":6499:6502   */\n      dup3\n        /* \"#utility.yul\":6410:6503   */\n      tag_127\n      jump\t// in\n    tag_208:\n        /* \"#utility.yul\":6528:6529   */\n      0x00\n        /* \"#utility.yul\":6523:6526   */\n      dup3\n        /* \"#utility.yul\":6519:6530   */\n      add\n        /* \"#utility.yul\":6512:6530   */\n      swap1\n      pop\n        /* \"#utility.yul\":6138:6536   */\n      swap2\n      swap1\n      pop\n      jump\t// out\n        /* \"#utility.yul\":6542:6921   */\n    tag_55:\n        /* \"#utility.yul\":6726:6729   */\n      0x00\n        /* \"#utility.yul\":6748:6895   */\n      tag_210\n        /* \"#utility.yul\":6891:6894   */\n      dup3\n        /* \"#utility.yul\":6748:6895   */\n      tag_128\n      jump\t// in\n    tag_210:\n        /* \"#utility.yul\":6741:6895   */\n      swap2\n      pop\n        /* \"#utility.yul\":6912:6915   */\n      dup2\n        /* \"#utility.yul\":6905:6915   */\n      swap1\n      pop\n        /* \"#utility.yul\":6542:6921   */\n      swap2\n      swap1\n      pop\n      jump\t// out\n        /* \"#utility.yul\":6927:7089   */\n    tag_129:\n        /* \"#utility.yul\":7067:7081   */\n      0x726566756e64204661696c210000000000000000000000000000000000000000\n        /* \"#utility.yul\":7063:7064   */\n      0x00\n        /* \"#utility.yul\":7055:7061   */\n      dup3\n        /* \"#utility.yul\":7051:7065   */\n      add\n        /* \"#utility.yul\":7044:7082   */\n      mstore\n        /* \"#utility.yul\":6927:7089   */\n      pop\n      jump\t// out\n        /* \"#utility.yul\":7095:7461   */\n    tag_130:\n        /* \"#utility.yul\":7237:7240   */\n      0x00\n        /* \"#utility.yul\":7258:7325   */\n      tag_213\n        /* \"#utility.yul\":7322:7324   */\n      0x0c\n        /* \"#utility.yul\":7317:7320   */\n      dup4\n        /* \"#utility.yul\":7258:7325   */\n      tag_119\n      jump\t// in\n    tag_213:\n        /* \"#utility.yul\":7251:7325   */\n      swap2\n      pop\n        /* \"#utility.yul\":7334:7427   */\n      tag_214\n        /* \"#utility.yul\":7423:7426   */\n      dup3\n        /* \"#utility.yul\":7334:7427   */\n      tag_129\n      jump\t// in\n    tag_214:\n        /* \"#utility.yul\":7452:7454   */\n      0x20\n        /* \"#utility.yul\":7447:7450   */\n      dup3\n        /* \"#utility.yul\":7443:7455   */\n      add\n        /* \"#utility.yul\":7436:7455   */\n      swap1\n      pop\n        /* \"#utility.yul\":7095:7461   */\n      swap2\n      swap1\n      pop\n      jump\t// out\n        /* \"#utility.yul\":7467:7886   */\n    tag_61:\n        /* \"#utility.yul\":7633:7637   */\n      0x00\n        /* \"#utility.yul\":7671:7673   */\n      0x20\n        /* \"#utility.yul\":7660:7669   */\n      dup3\n        /* \"#utility.yul\":7656:7674   */\n      add\n        /* \"#utility.yul\":7648:7674   */\n      swap1\n      pop\n        /* \"#utility.yul\":7720:7729   */\n      dup2\n        /* \"#utility.yul\":7714:7718   */\n      dup2\n        /* \"#utility.yul\":7710:7730   */\n      sub\n        /* \"#utility.yul\":7706:7707   */\n      0x00\n        /* \"#utility.yul\":7695:7704   */\n      dup4\n        /* \"#utility.yul\":7691:7708   */\n      add\n        /* \"#utility.yul\":7684:7731   */\n      mstore\n        /* \"#utility.yul\":7748:7879   */\n      tag_216\n        /* \"#utility.yul\":7874:7878   */\n      dup2\n        /* \"#utility.yul\":7748:7879   */\n      tag_130\n      jump\t// in\n    tag_216:\n        /* \"#utility.yul\":7740:7879   */\n      swap1\n      pop\n        /* \"#utility.yul\":7467:7886   */\n      swap2\n      swap1\n      pop\n      jump\t// out\n        /* \"#utility.yul\":7892:8071   */\n    tag_131:\n        /* \"#utility.yul\":8032:8063   */\n      0x62616c616e6365206973206e6f7420726561636820746f20464c414721000000\n        /* \"#utility.yul\":8028:8029   */\n      0x00\n        /* \"#utility.yul\":8020:8026   */\n      dup3\n        /* \"#utility.yul\":8016:8030   */\n      add\n        /* \"#utility.yul\":8009:8064   */\n      mstore\n        /* \"#utility.yul\":7892:8071   */\n      pop\n      jump\t// out\n        /* \"#utility.yul\":8077:8443   */\n    tag_132:\n        /* \"#utility.yul\":8219:8222   */\n      0x00\n        /* \"#utility.yul\":8240:8307   */\n      tag_219\n        /* \"#utility.yul\":8304:8306   */\n      0x1d\n        /* \"#utility.yul\":8299:8302   */\n      dup4\n        /* \"#utility.yul\":8240:8307   */\n      tag_119\n      jump\t// in\n    tag_219:\n        /* \"#utility.yul\":8233:8307   */\n      swap2\n      pop\n        /* \"#utility.yul\":8316:8409   */\n      tag_220\n        /* \"#utility.yul\":8405:8408   */\n      dup3\n        /* \"#utility.yul\":8316:8409   */\n      tag_131\n      jump\t// in\n    tag_220:\n        /* \"#utility.yul\":8434:8436   */\n      0x20\n        /* \"#utility.yul\":8429:8432   */\n      dup3\n        /* \"#utility.yul\":8425:8437   */\n      add\n        /* \"#utility.yul\":8418:8437   */\n      swap1\n      pop\n        /* \"#utility.yul\":8077:8443   */\n      swap2\n      swap1\n      pop\n      jump\t// out\n        /* \"#utility.yul\":8449:8868   */\n    tag_70:\n        /* \"#utility.yul\":8615:8619   */\n      0x00\n        /* \"#utility.yul\":8653:8655   */\n      0x20\n        /* \"#utility.yul\":8642:8651   */\n      dup3\n        /* \"#utility.yul\":8638:8656   */\n      add\n        /* \"#utility.yul\":8630:8656   */\n      swap1\n      pop\n        /* \"#utility.yul\":8702:8711   */\n      dup2\n        /* \"#utility.yul\":8696:8700   */\n      dup2\n        /* \"#utility.yul\":8692:8712   */\n      sub\n        /* \"#utility.yul\":8688:8689   */\n      0x00\n        /* \"#utility.yul\":8677:8686   */\n      dup4\n        /* \"#utility.yul\":8673:8690   */\n      add\n        /* \"#utility.yul\":8666:8713   */\n      mstore\n        /* \"#utility.yul\":8730:8861   */\n      tag_222\n        /* \"#utility.yul\":8856:8860   */\n      dup2\n        /* \"#utility.yul\":8730:8861   */\n      tag_132\n      jump\t// in\n    tag_222:\n        /* \"#utility.yul\":8722:8861   */\n      swap1\n      pop\n        /* \"#utility.yul\":8449:8868   */\n      swap2\n      swap1\n      pop\n      jump\t// out\n        /* \"#utility.yul\":8874:9041   */\n    tag_133:\n        /* \"#utility.yul\":9014:9033   */\n      0x796f7520617265206e6f74206f776e6572000000000000000000000000000000\n        /* \"#utility.yul\":9010:9011   */\n      0x00\n        /* \"#utility.yul\":9002:9008   */\n      dup3\n        /* \"#utility.yul\":8998:9012   */\n      add\n        /* \"#utility.yul\":8991:9034   */\n      mstore\n        /* \"#utility.yul\":8874:9041   */\n      pop\n      jump\t// out\n        /* \"#utility.yul\":9047:9413   */\n    tag_134:\n        /* \"#utility.yul\":9189:9192   */\n      0x00\n        /* \"#utility.yul\":9210:9277   */\n      tag_225\n        /* \"#utility.yul\":9274:9276   */\n      0x11\n        /* \"#utility.yul\":9269:9272   */\n      dup4\n        /* \"#utility.yul\":9210:9277   */\n      tag_119\n      jump\t// in\n    tag_225:\n        /* \"#utility.yul\":9203:9277   */\n      swap2\n      pop\n        /* \"#utility.yul\":9286:9379   */\n      tag_226\n        /* \"#utility.yul\":9375:9378   */\n      dup3\n        /* \"#utility.yul\":9286:9379   */\n      tag_133\n      jump\t// in\n    tag_226:\n        /* \"#utility.yul\":9404:9406   */\n      0x20\n        /* \"#utility.yul\":9399:9402   */\n      dup3\n        /* \"#utility.yul\":9395:9407   */\n      add\n        /* \"#utility.yul\":9388:9407   */\n      swap1\n      pop\n        /* \"#utility.yul\":9047:9413   */\n      swap2\n      swap1\n      pop\n      jump\t// out\n        /* \"#utility.yul\":9419:9838   */\n    tag_73:\n        /* \"#utility.yul\":9585:9589   */\n      0x00\n        /* \"#utility.yul\":9623:9625   */\n      0x20\n        /* \"#utility.yul\":9612:9621   */\n      dup3\n        /* \"#utility.yul\":9608:9626   */\n      add\n        /* \"#utility.yul\":9600:9626   */\n      swap1\n      pop\n        /* \"#utility.yul\":9672:9681   */\n      dup2\n        /* \"#utility.yul\":9666:9670   */\n      dup2\n        /* \"#utility.yul\":9662:9682   */\n      sub\n        /* \"#utility.yul\":9658:9659   */\n      0x00\n        /* \"#utility.yul\":9647:9656   */\n      dup4\n        /* \"#utility.yul\":9643:9660   */\n      add\n        /* \"#utility.yul\":9636:9683   */\n      mstore\n        /* \"#utility.yul\":9700:9831   */\n      tag_228\n        /* \"#utility.yul\":9826:9830   */\n      dup2\n        /* \"#utility.yul\":9700:9831   */\n      tag_134\n      jump\t// in\n    tag_228:\n        /* \"#utility.yul\":9692:9831   */\n      swap1\n      pop\n        /* \"#utility.yul\":9419:9838   */\n      swap2\n      swap1\n      pop\n      jump\t// out\n        /* \"#utility.yul\":9844:10017   */\n    tag_135:\n        /* \"#utility.yul\":9984:10009   */\n      0x6f776e6572277320726566756e64206973204661696c21000000000000000000\n        /* \"#utility.yul\":9980:9981   */\n      0x00\n        /* \"#utility.yul\":9972:9978   */\n      dup3\n        /* \"#utility.yul\":9968:9982   */\n      add\n        /* \"#utility.yul\":9961:10010   */\n      mstore\n        /* \"#utility.yul\":9844:10017   */\n      pop\n      jump\t// out\n        /* \"#utility.yul\":10023:10389   */\n    tag_136:\n        /* \"#utility.yul\":10165:10168   */\n      0x00\n        /* \"#utility.yul\":10186:10253   */\n      tag_231\n        /* \"#utility.yul\":10250:10252   */\n      0x17\n        /* \"#utility.yul\":10245:10248   */\n      dup4\n        /* \"#utility.yul\":10186:10253   */\n      tag_119\n      jump\t// in\n    tag_231:\n        /* \"#utility.yul\":10179:10253   */\n      swap2\n      pop\n        /* \"#utility.yul\":10262:10355   */\n      tag_232\n        /* \"#utility.yul\":10351:10354   */\n      dup3\n        /* \"#utility.yul\":10262:10355   */\n      tag_135\n      jump\t// in\n    tag_232:\n        /* \"#utility.yul\":10380:10382   */\n      0x20\n        /* \"#utility.yul\":10375:10378   */\n      dup3\n        /* \"#utility.yul\":10371:10383   */\n      add\n        /* \"#utility.yul\":10364:10383   */\n      swap1\n      pop\n        /* \"#utility.yul\":10023:10389   */\n      swap2\n      swap1\n      pop\n      jump\t// out\n        /* \"#utility.yul\":10395:10814   */\n    tag_80:\n        /* \"#utility.yul\":10561:10565   */\n      0x00\n        /* \"#utility.yul\":10599:10601   */\n      0x20\n        /* \"#utility.yul\":10588:10597   */\n      dup3\n        /* \"#utility.yul\":10584:10602   */\n      add\n        /* \"#utility.yul\":10576:10602   */\n      swap1\n      pop\n        /* \"#utility.yul\":10648:10657   */\n      dup2\n        /* \"#utility.yul\":10642:10646   */\n      dup2\n        /* \"#utility.yul\":10638:10658   */\n      sub\n        /* \"#utility.yul\":10634:10635   */\n      0x00\n        /* \"#utility.yul\":10623:10632   */\n      dup4\n        /* \"#utility.yul\":10619:10636   */\n      add\n        /* \"#utility.yul\":10612:10659   */\n      mstore\n        /* \"#utility.yul\":10676:10807   */\n      tag_234\n        /* \"#utility.yul\":10802:10806   */\n      dup2\n        /* \"#utility.yul\":10676:10807   */\n      tag_136\n      jump\t// in\n    tag_234:\n        /* \"#utility.yul\":10668:10807   */\n      swap1\n      pop\n        /* \"#utility.yul\":10395:10814   */\n      swap2\n      swap1\n      pop\n      jump\t// out\n        /* \"#utility.yul\":10820:11000   */\n    tag_137:\n        /* \"#utility.yul\":10960:10992   */\n      0x74696d65206973206f75742c796f752063616e27742066756e6420696e210000\n        /* \"#utility.yul\":10956:10957   */\n      0x00\n        /* \"#utility.yul\":10948:10954   */\n      dup3\n        /* \"#utility.yul\":10944:10958   */\n      add\n        /* \"#utility.yul\":10937:10993   */\n      mstore\n        /* \"#utility.yul\":10820:11000   */\n      pop\n      jump\t// out\n        /* \"#utility.yul\":11006:11372   */\n    tag_138:\n        /* \"#utility.yul\":11148:11151   */\n      0x00\n        /* \"#utility.yul\":11169:11236   */\n      tag_237\n        /* \"#utility.yul\":11233:11235   */\n      0x1e\n        /* \"#utility.yul\":11228:11231   */\n      dup4\n        /* \"#utility.yul\":11169:11236   */\n      tag_119\n      jump\t// in\n    tag_237:\n        /* \"#utility.yul\":11162:11236   */\n      swap2\n      pop\n        /* \"#utility.yul\":11245:11338   */\n      tag_238\n        /* \"#utility.yul\":11334:11337   */\n      dup3\n        /* \"#utility.yul\":11245:11338   */\n      tag_137\n      jump\t// in\n    tag_238:\n        /* \"#utility.yul\":11363:11365   */\n      0x20\n        /* \"#utility.yul\":11358:11361   */\n      dup3\n        /* \"#utility.yul\":11354:11366   */\n      add\n        /* \"#utility.yul\":11347:11366   */\n      swap1\n      pop\n        /* \"#utility.yul\":11006:11372   */\n      swap2\n      swap1\n      pop\n      jump\t// out\n        /* \"#utility.yul\":11378:11797   */\n    tag_85:\n        /* \"#utility.yul\":11544:11548   */\n      0x00\n        /* \"#utility.yul\":11582:11584   */\n      0x20\n        /* \"#utility.yul\":11571:11580   */\n      dup3\n        /* \"#utility.yul\":11567:11585   */\n      add\n        /* \"#utility.yul\":11559:11585   */\n      swap1\n      pop\n        /* \"#utility.yul\":11631:11640   */\n      dup2\n        /* \"#utility.yul\":11625:11629   */\n      dup2\n        /* \"#utility.yul\":11621:11641   */\n      sub\n        /* \"#utility.yul\":11617:11618   */\n      0x00\n        /* \"#utility.yul\":11606:11615   */\n      dup4\n        /* \"#utility.yul\":11602:11619   */\n      add\n        /* \"#utility.yul\":11595:11642   */\n      mstore\n        /* \"#utility.yul\":11659:11790   */\n      tag_240\n        /* \"#utility.yul\":11785:11789   */\n      dup2\n        /* \"#utility.yul\":11659:11790   */\n      tag_138\n      jump\t// in\n    tag_240:\n        /* \"#utility.yul\":11651:11790   */\n      swap1\n      pop\n        /* \"#utility.yul\":11378:11797   */\n      swap2\n      swap1\n      pop\n      jump\t// out\n        /* \"#utility.yul\":11803:11975   */\n    tag_139:\n        /* \"#utility.yul\":11943:11967   */\n      0x706c656173652073656e64206d6f7265206d6f6e657900000000000000000000\n        /* \"#utility.yul\":11939:11940   */\n      0x00\n        /* \"#utility.yul\":11931:11937   */\n      dup3\n        /* \"#utility.yul\":11927:11941   */\n      add\n        /* \"#utility.yul\":11920:11968   */\n      mstore\n        /* \"#utility.yul\":11803:11975   */\n      pop\n      jump\t// out\n        /* \"#utility.yul\":11981:12347   */\n    tag_140:\n        /* \"#utility.yul\":12123:12126   */\n      0x00\n        /* \"#utility.yul\":12144:12211   */\n      tag_243\n        /* \"#utility.yul\":12208:12210   */\n      0x16\n        /* \"#utility.yul\":12203:12206   */\n      dup4\n        /* \"#utility.yul\":12144:12211   */\n      tag_119\n      jump\t// in\n    tag_243:\n        /* \"#utility.yul\":12137:12211   */\n      swap2\n      pop\n        /* \"#utility.yul\":12220:12313   */\n      tag_244\n        /* \"#utility.yul\":12309:12312   */\n      dup3\n        /* \"#utility.yul\":12220:12313   */\n      tag_139\n      jump\t// in\n    tag_244:\n        /* \"#utility.yul\":12338:12340   */\n      0x20\n        /* \"#utility.yul\":12333:12336   */\n      dup3\n        /* \"#utility.yul\":12329:12341   */\n      add\n        /* \"#utility.yul\":12322:12341   */\n      swap1\n      pop\n        /* \"#utility.yul\":11981:12347   */\n      swap2\n      swap1\n      pop\n      jump\t// out\n        /* \"#utility.yul\":12353:12772   */\n    tag_90:\n        /* \"#utility.yul\":12519:12523   */\n      0x00\n        /* \"#utility.yul\":12557:12559   */\n      0x20\n        /* \"#utility.yul\":12546:12555   */\n      dup3\n        /* \"#utility.yul\":12542:12560   */\n      add\n        /* \"#utility.yul\":12534:12560   */\n      swap1\n      pop\n        /* \"#utility.yul\":12606:12615   */\n      dup2\n        /* \"#utility.yul\":12600:12604   */\n      dup2\n        /* \"#utility.yul\":12596:12616   */\n      sub\n        /* \"#utility.yul\":12592:12593   */\n      0x00\n        /* \"#utility.yul\":12581:12590   */\n      dup4\n        /* \"#utility.yul\":12577:12594   */\n      add\n        /* \"#utility.yul\":12570:12617   */\n      mstore\n        /* \"#utility.yul\":12634:12765   */\n      tag_246\n        /* \"#utility.yul\":12760:12764   */\n      dup2\n        /* \"#utility.yul\":12634:12765   */\n      tag_140\n      jump\t// in\n    tag_246:\n        /* \"#utility.yul\":12626:12765   */\n      swap1\n      pop\n        /* \"#utility.yul\":12353:12772   */\n      swap2\n      swap1\n      pop\n      jump\t// out\n        /* \"#utility.yul\":12778:12883   */\n    tag_141:\n        /* \"#utility.yul\":12814:12821   */\n      0x00\n        /* \"#utility.yul\":12854:12876   */\n      0xffffffffffffffffffff\n        /* \"#utility.yul\":12847:12852   */\n      dup3\n        /* \"#utility.yul\":12843:12877   */\n      and\n        /* \"#utility.yul\":12832:12877   */\n      swap1\n      pop\n        /* \"#utility.yul\":12778:12883   */\n      swap2\n      swap1\n      pop\n      jump\t// out\n        /* \"#utility.yul\":12889:13009   */\n    tag_142:\n        /* \"#utility.yul\":12961:12984   */\n      tag_249\n        /* \"#utility.yul\":12978:12983   */\n      dup2\n        /* \"#utility.yul\":12961:12984   */\n      tag_141\n      jump\t// in\n    tag_249:\n        /* \"#utility.yul\":12954:12959   */\n      dup2\n        /* \"#utility.yul\":12951:12985   */\n      eq\n        /* \"#utility.yul\":12941:13003   */\n      tag_250\n      jumpi\n        /* \"#utility.yul\":12999:13000   */\n      0x00\n        /* \"#utility.yul\":12996:12997   */\n      dup1\n        /* \"#utility.yul\":12989:13001   */\n      revert\n        /* \"#utility.yul\":12941:13003   */\n    tag_250:\n        /* \"#utility.yul\":12889:13009   */\n      pop\n      jump\t// out\n        /* \"#utility.yul\":13015:13156   */\n    tag_143:\n        /* \"#utility.yul\":13071:13076   */\n      0x00\n        /* \"#utility.yul\":13102:13108   */\n      dup2\n        /* \"#utility.yul\":13096:13109   */\n      mload\n        /* \"#utility.yul\":13087:13109   */\n      swap1\n      pop\n        /* \"#utility.yul\":13118:13150   */\n      tag_252\n        /* \"#utility.yul\":13144:13149   */\n      dup2\n        /* \"#utility.yul\":13118:13150   */\n      tag_142\n      jump\t// in\n    tag_252:\n        /* \"#utility.yul\":13015:13156   */\n      swap3\n      swap2\n      pop\n      pop\n      jump\t// out\n        /* \"#utility.yul\":13162:13282   */\n    tag_144:\n        /* \"#utility.yul\":13234:13257   */\n      tag_254\n        /* \"#utility.yul\":13251:13256   */\n      dup2\n        /* \"#utility.yul\":13234:13257   */\n      tag_116\n      jump\t// in\n    tag_254:\n        /* \"#utility.yul\":13227:13232   */\n      dup2\n        /* \"#utility.yul\":13224:13258   */\n      eq\n        /* \"#utility.yul\":13214:13276   */\n      tag_255\n      jumpi\n        /* \"#utility.yul\":13272:13273   */\n      0x00\n        /* \"#utility.yul\":13269:13270   */\n      dup1\n        /* \"#utility.yul\":13262:13274   */\n      revert\n        /* \"#utility.yul\":13214:13276   */\n    tag_255:\n        /* \"#utility.yul\":13162:13282   */\n      pop\n      jump\t// out\n        /* \"#utility.yul\":13288:13429   */\n    tag_145:\n        /* \"#utility.yul\":13344:13349   */\n      0x00\n        /* \"#utility.yul\":13375:13381   */\n      dup2\n        /* \"#utility.yul\":13369:13382   */\n      mload\n        /* \"#utility.yul\":13360:13382   */\n      swap1\n      pop\n        /* \"#utility.yul\":13391:13423   */\n      tag_257\n        /* \"#utility.yul\":13417:13422   */\n      dup2\n        /* \"#utility.yul\":13391:13423   */\n      tag_144\n      jump\t// in\n    tag_257:\n        /* \"#utility.yul\":13288:13429   */\n      swap3\n      swap2\n      pop\n      pop\n      jump\t// out\n        /* \"#utility.yul\":13435:13557   */\n    tag_146:\n        /* \"#utility.yul\":13508:13532   */\n      tag_259\n        /* \"#utility.yul\":13526:13531   */\n      dup2\n        /* \"#utility.yul\":13508:13532   */\n      tag_113\n      jump\t// in\n    tag_259:\n        /* \"#utility.yul\":13501:13506   */\n      dup2\n        /* \"#utility.yul\":13498:13533   */\n      eq\n        /* \"#utility.yul\":13488:13551   */\n      tag_260\n      jumpi\n        /* \"#utility.yul\":13547:13548   */\n      0x00\n        /* \"#utility.yul\":13544:13545   */\n      dup1\n        /* \"#utility.yul\":13537:13549   */\n      revert\n        /* \"#utility.yul\":13488:13551   */\n    tag_260:\n        /* \"#utility.yul\":13435:13557   */\n      pop\n      jump\t// out\n        /* \"#utility.yul\":13563:13706   */\n    tag_147:\n        /* \"#utility.yul\":13620:13625   */\n      0x00\n        /* \"#utility.yul\":13651:13657   */\n      dup2\n        /* \"#utility.yul\":13645:13658   */\n      mload\n        /* \"#utility.yul\":13636:13658   */\n      swap1\n      pop\n        /* \"#utility.yul\":13667:13700   */\n      tag_262\n        /* \"#utility.yul\":13694:13699   */\n      dup2\n        /* \"#utility.yul\":13667:13700   */\n      tag_146\n      jump\t// in\n    tag_262:\n        /* \"#utility.yul\":13563:13706   */\n      swap3\n      swap2\n      pop\n      pop\n      jump\t// out\n        /* \"#utility.yul\":13712:14683   */\n    tag_95:\n        /* \"#utility.yul\":13815:13821   */\n      0x00\n        /* \"#utility.yul\":13823:13829   */\n      dup1\n        /* \"#utility.yul\":13831:13837   */\n      0x00\n        /* \"#utility.yul\":13839:13845   */\n      dup1\n        /* \"#utility.yul\":13847:13853   */\n      0x00\n        /* \"#utility.yul\":13896:13899   */\n      0xa0\n        /* \"#utility.yul\":13884:13893   */\n      dup7\n        /* \"#utility.yul\":13875:13882   */\n      dup9\n        /* \"#utility.yul\":13871:13894   */\n      sub\n        /* \"#utility.yul\":13867:13900   */\n      slt\n        /* \"#utility.yul\":13864:13984   */\n      iszero\n      tag_264\n      jumpi\n        /* \"#utility.yul\":13903:13982   */\n      tag_265\n      tag_107\n      jump\t// in\n    tag_265:\n        /* \"#utility.yul\":13864:13984   */\n    tag_264:\n        /* \"#utility.yul\":14023:14024   */\n      0x00\n        /* \"#utility.yul\":14048:14111   */\n      tag_266\n        /* \"#utility.yul\":14103:14110   */\n      dup9\n        /* \"#utility.yul\":14094:14100   */\n      dup3\n        /* \"#utility.yul\":14083:14092   */\n      dup10\n        /* \"#utility.yul\":14079:14101   */\n      add\n        /* \"#utility.yul\":14048:14111   */\n      tag_143\n      jump\t// in\n    tag_266:\n        /* \"#utility.yul\":14038:14111   */\n      swap6\n      pop\n        /* \"#utility.yul\":13994:14121   */\n      pop\n        /* \"#utility.yul\":14160:14162   */\n      0x20\n        /* \"#utility.yul\":14186:14249   */\n      tag_267\n        /* \"#utility.yul\":14241:14248   */\n      dup9\n        /* \"#utility.yul\":14232:14238   */\n      dup3\n        /* \"#utility.yul\":14221:14230   */\n      dup10\n        /* \"#utility.yul\":14217:14239   */\n      add\n        /* \"#utility.yul\":14186:14249   */\n      tag_145\n      jump\t// in\n    tag_267:\n        /* \"#utility.yul\":14176:14249   */\n      swap5\n      pop\n        /* \"#utility.yul\":14131:14259   */\n      pop\n        /* \"#utility.yul\":14298:14300   */\n      0x40\n        /* \"#utility.yul\":14324:14388   */\n      tag_268\n        /* \"#utility.yul\":14380:14387   */\n      dup9\n        /* \"#utility.yul\":14371:14377   */\n      dup3\n        /* \"#utility.yul\":14360:14369   */\n      dup10\n        /* \"#utility.yul\":14356:14378   */\n      add\n        /* \"#utility.yul\":14324:14388   */\n      tag_147\n      jump\t// in\n    tag_268:\n        /* \"#utility.yul\":14314:14388   */\n      swap4\n      pop\n        /* \"#utility.yul\":14269:14398   */\n      pop\n        /* \"#utility.yul\":14437:14439   */\n      0x60\n        /* \"#utility.yul\":14463:14527   */\n      tag_269\n        /* \"#utility.yul\":14519:14526   */\n      dup9\n        /* \"#utility.yul\":14510:14516   */\n      dup3\n        /* \"#utility.yul\":14499:14508   */\n      dup10\n        /* \"#utility.yul\":14495:14517   */\n      add\n        /* \"#utility.yul\":14463:14527   */\n      tag_147\n      jump\t// in\n    tag_269:\n        /* \"#utility.yul\":14453:14527   */\n      swap3\n      pop\n        /* \"#utility.yul\":14408:14537   */\n      pop\n        /* \"#utility.yul\":14576:14579   */\n      0x80\n        /* \"#utility.yul\":14603:14666   */\n      tag_270\n        /* \"#utility.yul\":14658:14665   */\n      dup9\n        /* \"#utility.yul\":14649:14655   */\n      dup3\n        /* \"#utility.yul\":14638:14647   */\n      dup10\n        /* \"#utility.yul\":14634:14656   */\n      add\n        /* \"#utility.yul\":14603:14666   */\n      tag_143\n      jump\t// in\n    tag_270:\n        /* \"#utility.yul\":14593:14666   */\n      swap2\n      pop\n        /* \"#utility.yul\":14547:14676   */\n      pop\n        /* \"#utility.yul\":13712:14683   */\n      swap3\n      swap6\n      pop\n      swap3\n      swap6\n      swap1\n      swap4\n      pop\n      jump\t// out\n        /* \"#utility.yul\":14689:15099   */\n    tag_103:\n        /* \"#utility.yul\":14729:14736   */\n      0x00\n        /* \"#utility.yul\":14752:14772   */\n      tag_272\n        /* \"#utility.yul\":14770:14771   */\n      dup3\n        /* \"#utility.yul\":14752:14772   */\n      tag_113\n      jump\t// in\n    tag_272:\n        /* \"#utility.yul\":14747:14772   */\n      swap2\n      pop\n        /* \"#utility.yul\":14786:14806   */\n      tag_273\n        /* \"#utility.yul\":14804:14805   */\n      dup4\n        /* \"#utility.yul\":14786:14806   */\n      tag_113\n      jump\t// in\n    tag_273:\n        /* \"#utility.yul\":14781:14806   */\n      swap3\n      pop\n        /* \"#utility.yul\":14841:14842   */\n      dup3\n        /* \"#utility.yul\":14838:14839   */\n      dup3\n        /* \"#utility.yul\":14834:14843   */\n      mul\n        /* \"#utility.yul\":14863:14893   */\n      tag_274\n        /* \"#utility.yul\":14881:14892   */\n      dup2\n        /* \"#utility.yul\":14863:14893   */\n      tag_113\n      jump\t// in\n    tag_274:\n        /* \"#utility.yul\":14852:14893   */\n      swap2\n      pop\n        /* \"#utility.yul\":15042:15043   */\n      dup3\n        /* \"#utility.yul\":15033:15040   */\n      dup3\n        /* \"#utility.yul\":15029:15044   */\n      div\n        /* \"#utility.yul\":15026:15027   */\n      dup5\n        /* \"#utility.yul\":15023:15045   */\n      eq\n        /* \"#utility.yul\":15003:15004   */\n      dup4\n        /* \"#utility.yul\":14996:15005   */\n      iszero\n        /* \"#utility.yul\":14976:15059   */\n      or\n        /* \"#utility.yul\":14953:15092   */\n      tag_275\n      jumpi\n        /* \"#utility.yul\":15072:15090   */\n      tag_276\n      tag_118\n      jump\t// in\n    tag_276:\n        /* \"#utility.yul\":14953:15092   */\n    tag_275:\n        /* \"#utility.yul\":14737:15099   */\n      pop\n        /* \"#utility.yul\":14689:15099   */\n      swap3\n      swap2\n      pop\n      pop\n      jump\t// out\n        /* \"#utility.yul\":15105:15285   */\n    tag_148:\n        /* \"#utility.yul\":15153:15230   */\n      0x4e487b7100000000000000000000000000000000000000000000000000000000\n        /* \"#utility.yul\":15150:15151   */\n      0x00\n        /* \"#utility.yul\":15143:15231   */\n      mstore\n        /* \"#utility.yul\":15250:15254   */\n      0x12\n        /* \"#utility.yul\":15247:15248   */\n      0x04\n        /* \"#utility.yul\":15240:15255   */\n      mstore\n        /* \"#utility.yul\":15274:15278   */\n      0x24\n        /* \"#utility.yul\":15271:15272   */\n      0x00\n        /* \"#utility.yul\":15264:15279   */\n      revert\n        /* \"#utility.yul\":15291:15476   */\n    tag_105:\n        /* \"#utility.yul\":15331:15332   */\n      0x00\n        /* \"#utility.yul\":15348:15368   */\n      tag_279\n        /* \"#utility.yul\":15366:15367   */\n      dup3\n        /* \"#utility.yul\":15348:15368   */\n      tag_113\n      jump\t// in\n    tag_279:\n        /* \"#utility.yul\":15343:15368   */\n      swap2\n      pop\n        /* \"#utility.yul\":15382:15402   */\n      tag_280\n        /* \"#utility.yul\":15400:15401   */\n      dup4\n        /* \"#utility.yul\":15382:15402   */\n      tag_113\n      jump\t// in\n    tag_280:\n        /* \"#utility.yul\":15377:15402   */\n      swap3\n      pop\n        /* \"#utility.yul\":15421:15422   */\n      dup3\n        /* \"#utility.yul\":15411:15446   */\n      tag_281\n      jumpi\n        /* \"#utility.yul\":15426:15444   */\n      tag_282\n      tag_148\n      jump\t// in\n    tag_282:\n        /* \"#utility.yul\":15411:15446   */\n    tag_281:\n        /* \"#utility.yul\":15468:15469   */\n      dup3\n        /* \"#utility.yul\":15465:15466   */\n      dup3\n        /* \"#utility.yul\":15461:15470   */\n      div\n        /* \"#utility.yul\":15456:15470   */\n      swap1\n      pop\n        /* \"#utility.yul\":15291:15476   */\n      swap3\n      swap2\n      pop\n      pop\n      jump\t// out\n\n    auxdata: 0xa26469706673582212202cad62b38333d0092b9475bfae4370379237bb2edd213f50c18fb57c0b02e5cb64736f6c634300081a0033\n}\n",
				"bytecode": {
					"linkReferences": {},
					"object": "6080604052600a6005556014600655348015610019575f80fd5b5060405161111f38038061111f833981810160405281019061003b9190610119565b73694aa1769357215de4fac081bf1f309adc3253065f806101000a81548173ffffffffffffffffffffffffffffffffffffffff021916908373ffffffffffffffffffffffffffffffffffffffff1602179055503360015f6101000a81548173ffffffffffffffffffffffffffffffffffffffff021916908373ffffffffffffffffffffffffffffffffffffffff160217905550426002819055508060038190555050610144565b5f80fd5b5f819050919050565b6100f8816100e6565b8114610102575f80fd5b50565b5f81519050610113816100ef565b92915050565b5f6020828403121561012e5761012d6100e2565b5b5f61013b84828501610105565b91505092915050565b610fce806101515f395ff3fe60806040526004361061006f575f3560e01c80638da5cb5b1161004d5780638da5cb5b146100db578063b60d428814610105578063bea4dfb51461010f578063d4f41178146101395761006f565b80635d268629146100735780636448121e14610089578063774178e81461009f575b5f80fd5b34801561007e575f80fd5b50610087610161565b005b348015610094575f80fd5b5061009d6103a9565b005b3480156100aa575f80fd5b506100c560048036038101906100c091906108e2565b6105c5565b6040516100d29190610925565b60405180910390f35b3480156100e6575f80fd5b506100ef6105da565b6040516100fc919061094d565b60405180910390f35b61010d6105ff565b005b34801561011a575f80fd5b506101236106e1565b604051610130919061097e565b60405180910390f35b348015610144575f80fd5b5061015f600480360381019061015a91906108e2565b61077c565b005b60035460025461017191906109c4565b42116101b2576040517f08c379a00000000000000000000000000000000000000000000000000000000081526004016101a990610a51565b60405180910390fd5b6006546101be4761084e565b106101fe576040517f08c379a00000000000000000000000000000000000000000000000000000000081526004016101f590610ab9565b60405180910390fd5b5f60045f3373ffffffffffffffffffffffffffffffffffffffff1673ffffffffffffffffffffffffffffffffffffffff1681526020019081526020015f20540361027d576040517f08c379a000000000000000000000000000000000000000000000000000000000815260040161027490610b21565b60405180910390fd5b5f3373ffffffffffffffffffffffffffffffffffffffff1660045f3373ffffffffffffffffffffffffffffffffffffffff1673ffffffffffffffffffffffffffffffffffffffff1681526020019081526020015f20546040516102df90610b6c565b5f6040518083038185875af1925050503d805f8114610319576040519150601f19603f3d011682016040523d82523d5f602084013e61031e565b606091505b50508091505080610364576040517f08c379a000000000000000000000000000000000000000000000000000000000815260040161035b90610bca565b60405180910390fd5b5f60045f3373ffffffffffffffffffffffffffffffffffffffff1673ffffffffffffffffffffffffffffffffffffffff1681526020019081526020015f208190555050565b6003546002546103b991906109c4565b42116103fa576040517f08c379a00000000000000000000000000000000000000000000000000000000081526004016103f190610a51565b60405180910390fd5b6006546104064761084e565b1015610447576040517f08c379a000000000000000000000000000000000000000000000000000000000815260040161043e90610c32565b60405180910390fd5b60015f9054906101000a900473ffffffffffffffffffffffffffffffffffffffff1673ffffffffffffffffffffffffffffffffffffffff163373ffffffffffffffffffffffffffffffffffffffff16146104d6576040517f08c379a00000000000000000000000000000000000000000000000000000000081526004016104cd90610c9a565b60405180910390fd5b5f3373ffffffffffffffffffffffffffffffffffffffff16476040516104fb90610b6c565b5f6040518083038185875af1925050503d805f8114610535576040519150601f19603f3d011682016040523d82523d5f602084013e61053a565b606091505b50508091505080610580576040517f08c379a000000000000000000000000000000000000000000000000000000000815260040161057790610d02565b60405180910390fd5b5f60045f3373ffffffffffffffffffffffffffffffffffffffff1673ffffffffffffffffffffffffffffffffffffffff1681526020019081526020015f208190555050565b6004602052805f5260405f205f915090505481565b60015f9054906101000a900473ffffffffffffffffffffffffffffffffffffffff1681565b60035460025461060f91906109c4565b4210610650576040517f08c379a000000000000000000000000000000000000000000000000000000000815260040161064790610d6a565b60405180910390fd5b60055461065c3461084e565b101561069d576040517f08c379a000000000000000000000000000000000000000000000000000000000815260040161069490610dd2565b60405180910390fd5b3460045f3373ffffffffffffffffffffffffffffffffffffffff1673ffffffffffffffffffffffffffffffffffffffff1681526020019081526020015f2081905550565b5f805f8054906101000a900473ffffffffffffffffffffffffffffffffffffffff1673ffffffffffffffffffffffffffffffffffffffff1663feaf968c6040518163ffffffff1660e01b815260040160a060405180830381865afa15801561074b573d5f803e3d5ffd5b505050506040513d601f19601f8201168201806040525081019061076f9190610e83565b5050509150508091505090565b60015f9054906101000a900473ffffffffffffffffffffffffffffffffffffffff1673ffffffffffffffffffffffffffffffffffffffff163373ffffffffffffffffffffffffffffffffffffffff161461080b576040517f08c379a000000000000000000000000000000000000000000000000000000000815260040161080290610c9a565b60405180910390fd5b8060015f6101000a81548173ffffffffffffffffffffffffffffffffffffffff021916908373ffffffffffffffffffffffffffffffffffffffff16021790555050565b5f806108586106e1565b90506a52b7d2dcc80cd2e400000081846108729190610efa565b61087c9190610f68565b915050919050565b5f80fd5b5f73ffffffffffffffffffffffffffffffffffffffff82169050919050565b5f6108b182610888565b9050919050565b6108c1816108a7565b81146108cb575f80fd5b50565b5f813590506108dc816108b8565b92915050565b5f602082840312156108f7576108f6610884565b5b5f610904848285016108ce565b91505092915050565b5f819050919050565b61091f8161090d565b82525050565b5f6020820190506109385f830184610916565b92915050565b610947816108a7565b82525050565b5f6020820190506109605f83018461093e565b92915050565b5f819050919050565b61097881610966565b82525050565b5f6020820190506109915f83018461096f565b92915050565b7f4e487b71000000000000000000000000000000000000000000000000000000005f52601160045260245ffd5b5f6109ce8261090d565b91506109d98361090d565b92508282019050808211156109f1576109f0610997565b5b92915050565b5f82825260208201905092915050565b7f74696d65206973206e6f742072656163686564210000000000000000000000005f82015250565b5f610a3b6014836109f7565b9150610a4682610a07565b602082019050919050565b5f6020820190508181035f830152610a6881610a2f565b9050919050565b7f72656163682074686520464c41472100000000000000000000000000000000005f82015250565b5f610aa3600f836109f7565b9150610aae82610a6f565b602082019050919050565b5f6020820190508181035f830152610ad081610a97565b9050919050565b7f7468657265206973206e6f20796f7572206d6f6e6579210000000000000000005f82015250565b5f610b0b6017836109f7565b9150610b1682610ad7565b602082019050919050565b5f6020820190508181035f830152610b3881610aff565b9050919050565b5f81905092915050565b50565b5f610b575f83610b3f565b9150610b6282610b49565b5f82019050919050565b5f610b7682610b4c565b9150819050919050565b7f726566756e64204661696c2100000000000000000000000000000000000000005f82015250565b5f610bb4600c836109f7565b9150610bbf82610b80565b602082019050919050565b5f6020820190508181035f830152610be181610ba8565b9050919050565b7f62616c616e6365206973206e6f7420726561636820746f20464c4147210000005f82015250565b5f610c1c601d836109f7565b9150610c2782610be8565b602082019050919050565b5f6020820190508181035f830152610c4981610c10565b9050919050565b7f796f7520617265206e6f74206f776e65720000000000000000000000000000005f82015250565b5f610c846011836109f7565b9150610c8f82610c50565b602082019050919050565b5f6020820190508181035f830152610cb181610c78565b9050919050565b7f6f776e6572277320726566756e64206973204661696c210000000000000000005f82015250565b5f610cec6017836109f7565b9150610cf782610cb8565b602082019050919050565b5f6020820190508181035f830152610d1981610ce0565b9050919050565b7f74696d65206973206f75742c796f752063616e27742066756e6420696e2100005f82015250565b5f610d54601e836109f7565b9150610d5f82610d20565b602082019050919050565b5f6020820190508181035f830152610d8181610d48565b9050919050565b7f706c656173652073656e64206d6f7265206d6f6e6579000000000000000000005f82015250565b5f610dbc6016836109f7565b9150610dc782610d88565b602082019050919050565b5f6020820190508181035f830152610de981610db0565b9050919050565b5f69ffffffffffffffffffff82169050919050565b610e0e81610df0565b8114610e18575f80fd5b50565b5f81519050610e2981610e05565b92915050565b610e3881610966565b8114610e42575f80fd5b50565b5f81519050610e5381610e2f565b92915050565b610e628161090d565b8114610e6c575f80fd5b50565b5f81519050610e7d81610e59565b92915050565b5f805f805f60a08688031215610e9c57610e9b610884565b5b5f610ea988828901610e1b565b9550506020610eba88828901610e45565b9450506040610ecb88828901610e6f565b9350506060610edc88828901610e6f565b9250506080610eed88828901610e1b565b9150509295509295909350565b5f610f048261090d565b9150610f0f8361090d565b9250828202610f1d8161090d565b91508282048414831517610f3457610f33610997565b5b5092915050565b7f4e487b71000000000000000000000000000000000000000000000000000000005f52601260045260245ffd5b5f610f728261090d565b9150610f7d8361090d565b925082610f8d57610f8c610f3b565b5b82820490509291505056fea26469706673582212202cad62b38333d0092b9475bfae4370379237bb2edd213f50c18fb57c0b02e5cb64736f6c634300081a0033",
					"opcodes": "PUSH1 0x80 PUSH1 0x40 MSTORE PUSH1 0xA PUSH1 0x5 SSTORE PUSH1 0x14 PUSH1 0x6 SSTORE CALLVALUE DUP1 ISZERO PUSH2 0x19 JUMPI PUSH0 DUP1 REVERT JUMPDEST POP PUSH1 0x40 MLOAD PUSH2 0x111F CODESIZE SUB DUP1 PUSH2 0x111F DUP4 CODECOPY DUP2 DUP2 ADD PUSH1 0x40 MSTORE DUP2 ADD SWAP1 PUSH2 0x3B SWAP2 SWAP1 PUSH2 0x119 JUMP JUMPDEST PUSH20 0x694AA1769357215DE4FAC081BF1F309ADC325306 PUSH0 DUP1 PUSH2 0x100 EXP DUP2 SLOAD DUP2 PUSH20 0xFFFFFFFFFFFFFFFFFFFFFFFFFFFFFFFFFFFFFFFF MUL NOT AND SWAP1 DUP4 PUSH20 0xFFFFFFFFFFFFFFFFFFFFFFFFFFFFFFFFFFFFFFFF AND MUL OR SWAP1 SSTORE POP CALLER PUSH1 0x1 PUSH0 PUSH2 0x100 EXP DUP2 SLOAD DUP2 PUSH20 0xFFFFFFFFFFFFFFFFFFFFFFFFFFFFFFFFFFFFFFFF MUL NOT AND SWAP1 DUP4 PUSH20 0xFFFFFFFFFFFFFFFFFFFFFFFFFFFFFFFFFFFFFFFF AND MUL OR SWAP1 SSTORE POP TIMESTAMP PUSH1 0x2 DUP2 SWAP1 SSTORE POP DUP1 PUSH1 0x3 DUP2 SWAP1 SSTORE POP POP PUSH2 0x144 JUMP JUMPDEST PUSH0 DUP1 REVERT JUMPDEST PUSH0 DUP2 SWAP1 POP SWAP2 SWAP1 POP JUMP JUMPDEST PUSH2 0xF8 DUP2 PUSH2 0xE6 JUMP JUMPDEST DUP2 EQ PUSH2 0x102 JUMPI PUSH0 DUP1 REVERT JUMPDEST POP JUMP JUMPDEST PUSH0 DUP2 MLOAD SWAP1 POP PUSH2 0x113 DUP2 PUSH2 0xEF JUMP JUMPDEST SWAP3 SWAP2 POP POP JUMP JUMPDEST PUSH0 PUSH1 0x20 DUP3 DUP5 SUB SLT ISZERO PUSH2 0x12E JUMPI PUSH2 0x12D PUSH2 0xE2 JUMP JUMPDEST JUMPDEST PUSH0 PUSH2 0x13B DUP5 DUP3 DUP6 ADD PUSH2 0x105 JUMP JUMPDEST SWAP2 POP POP SWAP3 SWAP2 POP POP JUMP JUMPDEST PUSH2 0xFCE DUP1 PUSH2 0x151 PUSH0 CODECOPY PUSH0 RETURN INVALID PUSH1 0x80 PUSH1 0x40 MSTORE PUSH1 0x4 CALLDATASIZE LT PUSH2 0x6F JUMPI PUSH0 CALLDATALOAD PUSH1 0xE0 SHR DUP1 PUSH4 0x8DA5CB5B GT PUSH2 0x4D JUMPI DUP1 PUSH4 0x8DA5CB5B EQ PUSH2 0xDB JUMPI DUP1 PUSH4 0xB60D4288 EQ PUSH2 0x105 JUMPI DUP1 PUSH4 0xBEA4DFB5 EQ PUSH2 0x10F JUMPI DUP1 PUSH4 0xD4F41178 EQ PUSH2 0x139 JUMPI PUSH2 0x6F JUMP JUMPDEST DUP1 PUSH4 0x5D268629 EQ PUSH2 0x73 JUMPI DUP1 PUSH4 0x6448121E EQ PUSH2 0x89 JUMPI DUP1 PUSH4 0x774178E8 EQ PUSH2 0x9F JUMPI JUMPDEST PUSH0 DUP1 REVERT JUMPDEST CALLVALUE DUP1 ISZERO PUSH2 0x7E JUMPI PUSH0 DUP1 REVERT JUMPDEST POP PUSH2 0x87 PUSH2 0x161 JUMP JUMPDEST STOP JUMPDEST CALLVALUE DUP1 ISZERO PUSH2 0x94 JUMPI PUSH0 DUP1 REVERT JUMPDEST POP PUSH2 0x9D PUSH2 0x3A9 JUMP JUMPDEST STOP JUMPDEST CALLVALUE DUP1 ISZERO PUSH2 0xAA JUMPI PUSH0 DUP1 REVERT JUMPDEST POP PUSH2 0xC5 PUSH1 0x4 DUP1 CALLDATASIZE SUB DUP2 ADD SWAP1 PUSH2 0xC0 SWAP2 SWAP1 PUSH2 0x8E2 JUMP JUMPDEST PUSH2 0x5C5 JUMP JUMPDEST PUSH1 0x40 MLOAD PUSH2 0xD2 SWAP2 SWAP1 PUSH2 0x925 JUMP JUMPDEST PUSH1 0x40 MLOAD DUP1 SWAP2 SUB SWAP1 RETURN JUMPDEST CALLVALUE DUP1 ISZERO PUSH2 0xE6 JUMPI PUSH0 DUP1 REVERT JUMPDEST POP PUSH2 0xEF PUSH2 0x5DA JUMP JUMPDEST PUSH1 0x40 MLOAD PUSH2 0xFC SWAP2 SWAP1 PUSH2 0x94D JUMP JUMPDEST PUSH1 0x40 MLOAD DUP1 SWAP2 SUB SWAP1 RETURN JUMPDEST PUSH2 0x10D PUSH2 0x5FF JUMP JUMPDEST STOP JUMPDEST CALLVALUE DUP1 ISZERO PUSH2 0x11A JUMPI PUSH0 DUP1 REVERT JUMPDEST POP PUSH2 0x123 PUSH2 0x6E1 JUMP JUMPDEST PUSH1 0x40 MLOAD PUSH2 0x130 SWAP2 SWAP1 PUSH2 0x97E JUMP JUMPDEST PUSH1 0x40 MLOAD DUP1 SWAP2 SUB SWAP1 RETURN JUMPDEST CALLVALUE DUP1 ISZERO PUSH2 0x144 JUMPI PUSH0 DUP1 REVERT JUMPDEST POP PUSH2 0x15F PUSH1 0x4 DUP1 CALLDATASIZE SUB DUP2 ADD SWAP1 PUSH2 0x15A SWAP2 SWAP1 PUSH2 0x8E2 JUMP JUMPDEST PUSH2 0x77C JUMP JUMPDEST STOP JUMPDEST PUSH1 0x3 SLOAD PUSH1 0x2 SLOAD PUSH2 0x171 SWAP2 SWAP1 PUSH2 0x9C4 JUMP JUMPDEST TIMESTAMP GT PUSH2 0x1B2 JUMPI PUSH1 0x40 MLOAD PUSH32 0x8C379A000000000000000000000000000000000000000000000000000000000 DUP2 MSTORE PUSH1 0x4 ADD PUSH2 0x1A9 SWAP1 PUSH2 0xA51 JUMP JUMPDEST PUSH1 0x40 MLOAD DUP1 SWAP2 SUB SWAP1 REVERT JUMPDEST PUSH1 0x6 SLOAD PUSH2 0x1BE SELFBALANCE PUSH2 0x84E JUMP JUMPDEST LT PUSH2 0x1FE JUMPI PUSH1 0x40 MLOAD PUSH32 0x8C379A000000000000000000000000000000000000000000000000000000000 DUP2 MSTORE PUSH1 0x4 ADD PUSH2 0x1F5 SWAP1 PUSH2 0xAB9 JUMP JUMPDEST PUSH1 0x40 MLOAD DUP1 SWAP2 SUB SWAP1 REVERT JUMPDEST PUSH0 PUSH1 0x4 PUSH0 CALLER PUSH20 0xFFFFFFFFFFFFFFFFFFFFFFFFFFFFFFFFFFFFFFFF AND PUSH20 0xFFFFFFFFFFFFFFFFFFFFFFFFFFFFFFFFFFFFFFFF AND DUP2 MSTORE PUSH1 0x20 ADD SWAP1 DUP2 MSTORE PUSH1 0x20 ADD PUSH0 KECCAK256 SLOAD SUB PUSH2 0x27D JUMPI PUSH1 0x40 MLOAD PUSH32 0x8C379A000000000000000000000000000000000000000000000000000000000 DUP2 MSTORE PUSH1 0x4 ADD PUSH2 0x274 SWAP1 PUSH2 0xB21 JUMP JUMPDEST PUSH1 0x40 MLOAD DUP1 SWAP2 SUB SWAP1 REVERT JUMPDEST PUSH0 CALLER PUSH20 0xFFFFFFFFFFFFFFFFFFFFFFFFFFFFFFFFFFFFFFFF AND PUSH1 0x4 PUSH0 CALLER PUSH20 0xFFFFFFFFFFFFFFFFFFFFFFFFFFFFFFFFFFFFFFFF AND PUSH20 0xFFFFFFFFFFFFFFFFFFFFFFFFFFFFFFFFFFFFFFFF AND DUP2 MSTORE PUSH1 0x20 ADD SWAP1 DUP2 MSTORE PUSH1 0x20 ADD PUSH0 KECCAK256 SLOAD PUSH1 0x40 MLOAD PUSH2 0x2DF SWAP1 PUSH2 0xB6C JUMP JUMPDEST PUSH0 PUSH1 0x40 MLOAD DUP1 DUP4 SUB DUP2 DUP6 DUP8 GAS CALL SWAP3 POP POP POP RETURNDATASIZE DUP1 PUSH0 DUP2 EQ PUSH2 0x319 JUMPI PUSH1 0x40 MLOAD SWAP2 POP PUSH1 0x1F NOT PUSH1 0x3F RETURNDATASIZE ADD AND DUP3 ADD PUSH1 0x40 MSTORE RETURNDATASIZE DUP3 MSTORE RETURNDATASIZE PUSH0 PUSH1 0x20 DUP5 ADD RETURNDATACOPY PUSH2 0x31E JUMP JUMPDEST PUSH1 0x60 SWAP2 POP JUMPDEST POP POP DUP1 SWAP2 POP POP DUP1 PUSH2 0x364 JUMPI PUSH1 0x40 MLOAD PUSH32 0x8C379A000000000000000000000000000000000000000000000000000000000 DUP2 MSTORE PUSH1 0x4 ADD PUSH2 0x35B SWAP1 PUSH2 0xBCA JUMP JUMPDEST PUSH1 0x40 MLOAD DUP1 SWAP2 SUB SWAP1 REVERT JUMPDEST PUSH0 PUSH1 0x4 PUSH0 CALLER PUSH20 0xFFFFFFFFFFFFFFFFFFFFFFFFFFFFFFFFFFFFFFFF AND PUSH20 0xFFFFFFFFFFFFFFFFFFFFFFFFFFFFFFFFFFFFFFFF AND DUP2 MSTORE PUSH1 0x20 ADD SWAP1 DUP2 MSTORE PUSH1 0x20 ADD PUSH0 KECCAK256 DUP2 SWAP1 SSTORE POP POP JUMP JUMPDEST PUSH1 0x3 SLOAD PUSH1 0x2 SLOAD PUSH2 0x3B9 SWAP2 SWAP1 PUSH2 0x9C4 JUMP JUMPDEST TIMESTAMP GT PUSH2 0x3FA JUMPI PUSH1 0x40 MLOAD PUSH32 0x8C379A000000000000000000000000000000000000000000000000000000000 DUP2 MSTORE PUSH1 0x4 ADD PUSH2 0x3F1 SWAP1 PUSH2 0xA51 JUMP JUMPDEST PUSH1 0x40 MLOAD DUP1 SWAP2 SUB SWAP1 REVERT JUMPDEST PUSH1 0x6 SLOAD PUSH2 0x406 SELFBALANCE PUSH2 0x84E JUMP JUMPDEST LT ISZERO PUSH2 0x447 JUMPI PUSH1 0x40 MLOAD PUSH32 0x8C379A000000000000000000000000000000000000000000000000000000000 DUP2 MSTORE PUSH1 0x4 ADD PUSH2 0x43E SWAP1 PUSH2 0xC32 JUMP JUMPDEST PUSH1 0x40 MLOAD DUP1 SWAP2 SUB SWAP1 REVERT JUMPDEST PUSH1 0x1 PUSH0 SWAP1 SLOAD SWAP1 PUSH2 0x100 EXP SWAP1 DIV PUSH20 0xFFFFFFFFFFFFFFFFFFFFFFFFFFFFFFFFFFFFFFFF AND PUSH20 0xFFFFFFFFFFFFFFFFFFFFFFFFFFFFFFFFFFFFFFFF AND CALLER PUSH20 0xFFFFFFFFFFFFFFFFFFFFFFFFFFFFFFFFFFFFFFFF AND EQ PUSH2 0x4D6 JUMPI PUSH1 0x40 MLOAD PUSH32 0x8C379A000000000000000000000000000000000000000000000000000000000 DUP2 MSTORE PUSH1 0x4 ADD PUSH2 0x4CD SWAP1 PUSH2 0xC9A JUMP JUMPDEST PUSH1 0x40 MLOAD DUP1 SWAP2 SUB SWAP1 REVERT JUMPDEST PUSH0 CALLER PUSH20 0xFFFFFFFFFFFFFFFFFFFFFFFFFFFFFFFFFFFFFFFF AND SELFBALANCE PUSH1 0x40 MLOAD PUSH2 0x4FB SWAP1 PUSH2 0xB6C JUMP JUMPDEST PUSH0 PUSH1 0x40 MLOAD DUP1 DUP4 SUB DUP2 DUP6 DUP8 GAS CALL SWAP3 POP POP POP RETURNDATASIZE DUP1 PUSH0 DUP2 EQ PUSH2 0x535 JUMPI PUSH1 0x40 MLOAD SWAP2 POP PUSH1 0x1F NOT PUSH1 0x3F RETURNDATASIZE ADD AND DUP3 ADD PUSH1 0x40 MSTORE RETURNDATASIZE DUP3 MSTORE RETURNDATASIZE PUSH0 PUSH1 0x20 DUP5 ADD RETURNDATACOPY PUSH2 0x53A JUMP JUMPDEST PUSH1 0x60 SWAP2 POP JUMPDEST POP POP DUP1 SWAP2 POP POP DUP1 PUSH2 0x580 JUMPI PUSH1 0x40 MLOAD PUSH32 0x8C379A000000000000000000000000000000000000000000000000000000000 DUP2 MSTORE PUSH1 0x4 ADD PUSH2 0x577 SWAP1 PUSH2 0xD02 JUMP JUMPDEST PUSH1 0x40 MLOAD DUP1 SWAP2 SUB SWAP1 REVERT JUMPDEST PUSH0 PUSH1 0x4 PUSH0 CALLER PUSH20 0xFFFFFFFFFFFFFFFFFFFFFFFFFFFFFFFFFFFFFFFF AND PUSH20 0xFFFFFFFFFFFFFFFFFFFFFFFFFFFFFFFFFFFFFFFF AND DUP2 MSTORE PUSH1 0x20 ADD SWAP1 DUP2 MSTORE PUSH1 0x20 ADD PUSH0 KECCAK256 DUP2 SWAP1 SSTORE POP POP JUMP JUMPDEST PUSH1 0x4 PUSH1 0x20 MSTORE DUP1 PUSH0 MSTORE PUSH1 0x40 PUSH0 KECCAK256 PUSH0 SWAP2 POP SWAP1 POP SLOAD DUP2 JUMP JUMPDEST PUSH1 0x1 PUSH0 SWAP1 SLOAD SWAP1 PUSH2 0x100 EXP SWAP1 DIV PUSH20 0xFFFFFFFFFFFFFFFFFFFFFFFFFFFFFFFFFFFFFFFF AND DUP2 JUMP JUMPDEST PUSH1 0x3 SLOAD PUSH1 0x2 SLOAD PUSH2 0x60F SWAP2 SWAP1 PUSH2 0x9C4 JUMP JUMPDEST TIMESTAMP LT PUSH2 0x650 JUMPI PUSH1 0x40 MLOAD PUSH32 0x8C379A000000000000000000000000000000000000000000000000000000000 DUP2 MSTORE PUSH1 0x4 ADD PUSH2 0x647 SWAP1 PUSH2 0xD6A JUMP JUMPDEST PUSH1 0x40 MLOAD DUP1 SWAP2 SUB SWAP1 REVERT JUMPDEST PUSH1 0x5 SLOAD PUSH2 0x65C CALLVALUE PUSH2 0x84E JUMP JUMPDEST LT ISZERO PUSH2 0x69D JUMPI PUSH1 0x40 MLOAD PUSH32 0x8C379A000000000000000000000000000000000000000000000000000000000 DUP2 MSTORE PUSH1 0x4 ADD PUSH2 0x694 SWAP1 PUSH2 0xDD2 JUMP JUMPDEST PUSH1 0x40 MLOAD DUP1 SWAP2 SUB SWAP1 REVERT JUMPDEST CALLVALUE PUSH1 0x4 PUSH0 CALLER PUSH20 0xFFFFFFFFFFFFFFFFFFFFFFFFFFFFFFFFFFFFFFFF AND PUSH20 0xFFFFFFFFFFFFFFFFFFFFFFFFFFFFFFFFFFFFFFFF AND DUP2 MSTORE PUSH1 0x20 ADD SWAP1 DUP2 MSTORE PUSH1 0x20 ADD PUSH0 KECCAK256 DUP2 SWAP1 SSTORE POP JUMP JUMPDEST PUSH0 DUP1 PUSH0 DUP1 SLOAD SWAP1 PUSH2 0x100 EXP SWAP1 DIV PUSH20 0xFFFFFFFFFFFFFFFFFFFFFFFFFFFFFFFFFFFFFFFF AND PUSH20 0xFFFFFFFFFFFFFFFFFFFFFFFFFFFFFFFFFFFFFFFF AND PUSH4 0xFEAF968C PUSH1 0x40 MLOAD DUP2 PUSH4 0xFFFFFFFF AND PUSH1 0xE0 SHL DUP2 MSTORE PUSH1 0x4 ADD PUSH1 0xA0 PUSH1 0x40 MLOAD DUP1 DUP4 SUB DUP2 DUP7 GAS STATICCALL ISZERO DUP1 ISZERO PUSH2 0x74B JUMPI RETURNDATASIZE PUSH0 DUP1 RETURNDATACOPY RETURNDATASIZE PUSH0 REVERT JUMPDEST POP POP POP POP PUSH1 0x40 MLOAD RETURNDATASIZE PUSH1 0x1F NOT PUSH1 0x1F DUP3 ADD AND DUP3 ADD DUP1 PUSH1 0x40 MSTORE POP DUP2 ADD SWAP1 PUSH2 0x76F SWAP2 SWAP1 PUSH2 0xE83 JUMP JUMPDEST POP POP POP SWAP2 POP POP DUP1 SWAP2 POP POP SWAP1 JUMP JUMPDEST PUSH1 0x1 PUSH0 SWAP1 SLOAD SWAP1 PUSH2 0x100 EXP SWAP1 DIV PUSH20 0xFFFFFFFFFFFFFFFFFFFFFFFFFFFFFFFFFFFFFFFF AND PUSH20 0xFFFFFFFFFFFFFFFFFFFFFFFFFFFFFFFFFFFFFFFF AND CALLER PUSH20 0xFFFFFFFFFFFFFFFFFFFFFFFFFFFFFFFFFFFFFFFF AND EQ PUSH2 0x80B JUMPI PUSH1 0x40 MLOAD PUSH32 0x8C379A000000000000000000000000000000000000000000000000000000000 DUP2 MSTORE PUSH1 0x4 ADD PUSH2 0x802 SWAP1 PUSH2 0xC9A JUMP JUMPDEST PUSH1 0x40 MLOAD DUP1 SWAP2 SUB SWAP1 REVERT JUMPDEST DUP1 PUSH1 0x1 PUSH0 PUSH2 0x100 EXP DUP2 SLOAD DUP2 PUSH20 0xFFFFFFFFFFFFFFFFFFFFFFFFFFFFFFFFFFFFFFFF MUL NOT AND SWAP1 DUP4 PUSH20 0xFFFFFFFFFFFFFFFFFFFFFFFFFFFFFFFFFFFFFFFF AND MUL OR SWAP1 SSTORE POP POP JUMP JUMPDEST PUSH0 DUP1 PUSH2 0x858 PUSH2 0x6E1 JUMP JUMPDEST SWAP1 POP PUSH11 0x52B7D2DCC80CD2E4000000 DUP2 DUP5 PUSH2 0x872 SWAP2 SWAP1 PUSH2 0xEFA JUMP JUMPDEST PUSH2 0x87C SWAP2 SWAP1 PUSH2 0xF68 JUMP JUMPDEST SWAP2 POP POP SWAP2 SWAP1 POP JUMP JUMPDEST PUSH0 DUP1 REVERT JUMPDEST PUSH0 PUSH20 0xFFFFFFFFFFFFFFFFFFFFFFFFFFFFFFFFFFFFFFFF DUP3 AND SWAP1 POP SWAP2 SWAP1 POP JUMP JUMPDEST PUSH0 PUSH2 0x8B1 DUP3 PUSH2 0x888 JUMP JUMPDEST SWAP1 POP SWAP2 SWAP1 POP JUMP JUMPDEST PUSH2 0x8C1 DUP2 PUSH2 0x8A7 JUMP JUMPDEST DUP2 EQ PUSH2 0x8CB JUMPI PUSH0 DUP1 REVERT JUMPDEST POP JUMP JUMPDEST PUSH0 DUP2 CALLDATALOAD SWAP1 POP PUSH2 0x8DC DUP2 PUSH2 0x8B8 JUMP JUMPDEST SWAP3 SWAP2 POP POP JUMP JUMPDEST PUSH0 PUSH1 0x20 DUP3 DUP5 SUB SLT ISZERO PUSH2 0x8F7 JUMPI PUSH2 0x8F6 PUSH2 0x884 JUMP JUMPDEST JUMPDEST PUSH0 PUSH2 0x904 DUP5 DUP3 DUP6 ADD PUSH2 0x8CE JUMP JUMPDEST SWAP2 POP POP SWAP3 SWAP2 POP POP JUMP JUMPDEST PUSH0 DUP2 SWAP1 POP SWAP2 SWAP1 POP JUMP JUMPDEST PUSH2 0x91F DUP2 PUSH2 0x90D JUMP JUMPDEST DUP3 MSTORE POP POP JUMP JUMPDEST PUSH0 PUSH1 0x20 DUP3 ADD SWAP1 POP PUSH2 0x938 PUSH0 DUP4 ADD DUP5 PUSH2 0x916 JUMP JUMPDEST SWAP3 SWAP2 POP POP JUMP JUMPDEST PUSH2 0x947 DUP2 PUSH2 0x8A7 JUMP JUMPDEST DUP3 MSTORE POP POP JUMP JUMPDEST PUSH0 PUSH1 0x20 DUP3 ADD SWAP1 POP PUSH2 0x960 PUSH0 DUP4 ADD DUP5 PUSH2 0x93E JUMP JUMPDEST SWAP3 SWAP2 POP POP JUMP JUMPDEST PUSH0 DUP2 SWAP1 POP SWAP2 SWAP1 POP JUMP JUMPDEST PUSH2 0x978 DUP2 PUSH2 0x966 JUMP JUMPDEST DUP3 MSTORE POP POP JUMP JUMPDEST PUSH0 PUSH1 0x20 DUP3 ADD SWAP1 POP PUSH2 0x991 PUSH0 DUP4 ADD DUP5 PUSH2 0x96F JUMP JUMPDEST SWAP3 SWAP2 POP POP JUMP JUMPDEST PUSH32 0x4E487B7100000000000000000000000000000000000000000000000000000000 PUSH0 MSTORE PUSH1 0x11 PUSH1 0x4 MSTORE PUSH1 0x24 PUSH0 REVERT JUMPDEST PUSH0 PUSH2 0x9CE DUP3 PUSH2 0x90D JUMP JUMPDEST SWAP2 POP PUSH2 0x9D9 DUP4 PUSH2 0x90D JUMP JUMPDEST SWAP3 POP DUP3 DUP3 ADD SWAP1 POP DUP1 DUP3 GT ISZERO PUSH2 0x9F1 JUMPI PUSH2 0x9F0 PUSH2 0x997 JUMP JUMPDEST JUMPDEST SWAP3 SWAP2 POP POP JUMP JUMPDEST PUSH0 DUP3 DUP3 MSTORE PUSH1 0x20 DUP3 ADD SWAP1 POP SWAP3 SWAP2 POP POP JUMP JUMPDEST PUSH32 0x74696D65206973206E6F74207265616368656421000000000000000000000000 PUSH0 DUP3 ADD MSTORE POP JUMP JUMPDEST PUSH0 PUSH2 0xA3B PUSH1 0x14 DUP4 PUSH2 0x9F7 JUMP JUMPDEST SWAP2 POP PUSH2 0xA46 DUP3 PUSH2 0xA07 JUMP JUMPDEST PUSH1 0x20 DUP3 ADD SWAP1 POP SWAP2 SWAP1 POP JUMP JUMPDEST PUSH0 PUSH1 0x20 DUP3 ADD SWAP1 POP DUP2 DUP2 SUB PUSH0 DUP4 ADD MSTORE PUSH2 0xA68 DUP2 PUSH2 0xA2F JUMP JUMPDEST SWAP1 POP SWAP2 SWAP1 POP JUMP JUMPDEST PUSH32 0x72656163682074686520464C4147210000000000000000000000000000000000 PUSH0 DUP3 ADD MSTORE POP JUMP JUMPDEST PUSH0 PUSH2 0xAA3 PUSH1 0xF DUP4 PUSH2 0x9F7 JUMP JUMPDEST SWAP2 POP PUSH2 0xAAE DUP3 PUSH2 0xA6F JUMP JUMPDEST PUSH1 0x20 DUP3 ADD SWAP1 POP SWAP2 SWAP1 POP JUMP JUMPDEST PUSH0 PUSH1 0x20 DUP3 ADD SWAP1 POP DUP2 DUP2 SUB PUSH0 DUP4 ADD MSTORE PUSH2 0xAD0 DUP2 PUSH2 0xA97 JUMP JUMPDEST SWAP1 POP SWAP2 SWAP1 POP JUMP JUMPDEST PUSH32 0x7468657265206973206E6F20796F7572206D6F6E657921000000000000000000 PUSH0 DUP3 ADD MSTORE POP JUMP JUMPDEST PUSH0 PUSH2 0xB0B PUSH1 0x17 DUP4 PUSH2 0x9F7 JUMP JUMPDEST SWAP2 POP PUSH2 0xB16 DUP3 PUSH2 0xAD7 JUMP JUMPDEST PUSH1 0x20 DUP3 ADD SWAP1 POP SWAP2 SWAP1 POP JUMP JUMPDEST PUSH0 PUSH1 0x20 DUP3 ADD SWAP1 POP DUP2 DUP2 SUB PUSH0 DUP4 ADD MSTORE PUSH2 0xB38 DUP2 PUSH2 0xAFF JUMP JUMPDEST SWAP1 POP SWAP2 SWAP1 POP JUMP JUMPDEST PUSH0 DUP2 SWAP1 POP SWAP3 SWAP2 POP POP JUMP JUMPDEST POP JUMP JUMPDEST PUSH0 PUSH2 0xB57 PUSH0 DUP4 PUSH2 0xB3F JUMP JUMPDEST SWAP2 POP PUSH2 0xB62 DUP3 PUSH2 0xB49 JUMP JUMPDEST PUSH0 DUP3 ADD SWAP1 POP SWAP2 SWAP1 POP JUMP JUMPDEST PUSH0 PUSH2 0xB76 DUP3 PUSH2 0xB4C JUMP JUMPDEST SWAP2 POP DUP2 SWAP1 POP SWAP2 SWAP1 POP JUMP JUMPDEST PUSH32 0x726566756E64204661696C210000000000000000000000000000000000000000 PUSH0 DUP3 ADD MSTORE POP JUMP JUMPDEST PUSH0 PUSH2 0xBB4 PUSH1 0xC DUP4 PUSH2 0x9F7 JUMP JUMPDEST SWAP2 POP PUSH2 0xBBF DUP3 PUSH2 0xB80 JUMP JUMPDEST PUSH1 0x20 DUP3 ADD SWAP1 POP SWAP2 SWAP1 POP JUMP JUMPDEST PUSH0 PUSH1 0x20 DUP3 ADD SWAP1 POP DUP2 DUP2 SUB PUSH0 DUP4 ADD MSTORE PUSH2 0xBE1 DUP2 PUSH2 0xBA8 JUMP JUMPDEST SWAP1 POP SWAP2 SWAP1 POP JUMP JUMPDEST PUSH32 0x62616C616E6365206973206E6F7420726561636820746F20464C414721000000 PUSH0 DUP3 ADD MSTORE POP JUMP JUMPDEST PUSH0 PUSH2 0xC1C PUSH1 0x1D DUP4 PUSH2 0x9F7 JUMP JUMPDEST SWAP2 POP PUSH2 0xC27 DUP3 PUSH2 0xBE8 JUMP JUMPDEST PUSH1 0x20 DUP3 ADD SWAP1 POP SWAP2 SWAP1 POP JUMP JUMPDEST PUSH0 PUSH1 0x20 DUP3 ADD SWAP1 POP DUP2 DUP2 SUB PUSH0 DUP4 ADD MSTORE PUSH2 0xC49 DUP2 PUSH2 0xC10 JUMP JUMPDEST SWAP1 POP SWAP2 SWAP1 POP JUMP JUMPDEST PUSH32 0x796F7520617265206E6F74206F776E6572000000000000000000000000000000 PUSH0 DUP3 ADD MSTORE POP JUMP JUMPDEST PUSH0 PUSH2 0xC84 PUSH1 0x11 DUP4 PUSH2 0x9F7 JUMP JUMPDEST SWAP2 POP PUSH2 0xC8F DUP3 PUSH2 0xC50 JUMP JUMPDEST PUSH1 0x20 DUP3 ADD SWAP1 POP SWAP2 SWAP1 POP JUMP JUMPDEST PUSH0 PUSH1 0x20 DUP3 ADD SWAP1 POP DUP2 DUP2 SUB PUSH0 DUP4 ADD MSTORE PUSH2 0xCB1 DUP2 PUSH2 0xC78 JUMP JUMPDEST SWAP1 POP SWAP2 SWAP1 POP JUMP JUMPDEST PUSH32 0x6F776E6572277320726566756E64206973204661696C21000000000000000000 PUSH0 DUP3 ADD MSTORE POP JUMP JUMPDEST PUSH0 PUSH2 0xCEC PUSH1 0x17 DUP4 PUSH2 0x9F7 JUMP JUMPDEST SWAP2 POP PUSH2 0xCF7 DUP3 PUSH2 0xCB8 JUMP JUMPDEST PUSH1 0x20 DUP3 ADD SWAP1 POP SWAP2 SWAP1 POP JUMP JUMPDEST PUSH0 PUSH1 0x20 DUP3 ADD SWAP1 POP DUP2 DUP2 SUB PUSH0 DUP4 ADD MSTORE PUSH2 0xD19 DUP2 PUSH2 0xCE0 JUMP JUMPDEST SWAP1 POP SWAP2 SWAP1 POP JUMP JUMPDEST PUSH32 0x74696D65206973206F75742C796F752063616E27742066756E6420696E210000 PUSH0 DUP3 ADD MSTORE POP JUMP JUMPDEST PUSH0 PUSH2 0xD54 PUSH1 0x1E DUP4 PUSH2 0x9F7 JUMP JUMPDEST SWAP2 POP PUSH2 0xD5F DUP3 PUSH2 0xD20 JUMP JUMPDEST PUSH1 0x20 DUP3 ADD SWAP1 POP SWAP2 SWAP1 POP JUMP JUMPDEST PUSH0 PUSH1 0x20 DUP3 ADD SWAP1 POP DUP2 DUP2 SUB PUSH0 DUP4 ADD MSTORE PUSH2 0xD81 DUP2 PUSH2 0xD48 JUMP JUMPDEST SWAP1 POP SWAP2 SWAP1 POP JUMP JUMPDEST PUSH32 0x706C656173652073656E64206D6F7265206D6F6E657900000000000000000000 PUSH0 DUP3 ADD MSTORE POP JUMP JUMPDEST PUSH0 PUSH2 0xDBC PUSH1 0x16 DUP4 PUSH2 0x9F7 JUMP JUMPDEST SWAP2 POP PUSH2 0xDC7 DUP3 PUSH2 0xD88 JUMP JUMPDEST PUSH1 0x20 DUP3 ADD SWAP1 POP SWAP2 SWAP1 POP JUMP JUMPDEST PUSH0 PUSH1 0x20 DUP3 ADD SWAP1 POP DUP2 DUP2 SUB PUSH0 DUP4 ADD MSTORE PUSH2 0xDE9 DUP2 PUSH2 0xDB0 JUMP JUMPDEST SWAP1 POP SWAP2 SWAP1 POP JUMP JUMPDEST PUSH0 PUSH10 0xFFFFFFFFFFFFFFFFFFFF DUP3 AND SWAP1 POP SWAP2 SWAP1 POP JUMP JUMPDEST PUSH2 0xE0E DUP2 PUSH2 0xDF0 JUMP JUMPDEST DUP2 EQ PUSH2 0xE18 JUMPI PUSH0 DUP1 REVERT JUMPDEST POP JUMP JUMPDEST PUSH0 DUP2 MLOAD SWAP1 POP PUSH2 0xE29 DUP2 PUSH2 0xE05 JUMP JUMPDEST SWAP3 SWAP2 POP POP JUMP JUMPDEST PUSH2 0xE38 DUP2 PUSH2 0x966 JUMP JUMPDEST DUP2 EQ PUSH2 0xE42 JUMPI PUSH0 DUP1 REVERT JUMPDEST POP JUMP JUMPDEST PUSH0 DUP2 MLOAD SWAP1 POP PUSH2 0xE53 DUP2 PUSH2 0xE2F JUMP JUMPDEST SWAP3 SWAP2 POP POP JUMP JUMPDEST PUSH2 0xE62 DUP2 PUSH2 0x90D JUMP JUMPDEST DUP2 EQ PUSH2 0xE6C JUMPI PUSH0 DUP1 REVERT JUMPDEST POP JUMP JUMPDEST PUSH0 DUP2 MLOAD SWAP1 POP PUSH2 0xE7D DUP2 PUSH2 0xE59 JUMP JUMPDEST SWAP3 SWAP2 POP POP JUMP JUMPDEST PUSH0 DUP1 PUSH0 DUP1 PUSH0 PUSH1 0xA0 DUP7 DUP9 SUB SLT ISZERO PUSH2 0xE9C JUMPI PUSH2 0xE9B PUSH2 0x884 JUMP JUMPDEST JUMPDEST PUSH0 PUSH2 0xEA9 DUP9 DUP3 DUP10 ADD PUSH2 0xE1B JUMP JUMPDEST SWAP6 POP POP PUSH1 0x20 PUSH2 0xEBA DUP9 DUP3 DUP10 ADD PUSH2 0xE45 JUMP JUMPDEST SWAP5 POP POP PUSH1 0x40 PUSH2 0xECB DUP9 DUP3 DUP10 ADD PUSH2 0xE6F JUMP JUMPDEST SWAP4 POP POP PUSH1 0x60 PUSH2 0xEDC DUP9 DUP3 DUP10 ADD PUSH2 0xE6F JUMP JUMPDEST SWAP3 POP POP PUSH1 0x80 PUSH2 0xEED DUP9 DUP3 DUP10 ADD PUSH2 0xE1B JUMP JUMPDEST SWAP2 POP POP SWAP3 SWAP6 POP SWAP3 SWAP6 SWAP1 SWAP4 POP JUMP JUMPDEST PUSH0 PUSH2 0xF04 DUP3 PUSH2 0x90D JUMP JUMPDEST SWAP2 POP PUSH2 0xF0F DUP4 PUSH2 0x90D JUMP JUMPDEST SWAP3 POP DUP3 DUP3 MUL PUSH2 0xF1D DUP2 PUSH2 0x90D JUMP JUMPDEST SWAP2 POP DUP3 DUP3 DIV DUP5 EQ DUP4 ISZERO OR PUSH2 0xF34 JUMPI PUSH2 0xF33 PUSH2 0x997 JUMP JUMPDEST JUMPDEST POP SWAP3 SWAP2 POP POP JUMP JUMPDEST PUSH32 0x4E487B7100000000000000000000000000000000000000000000000000000000 PUSH0 MSTORE PUSH1 0x12 PUSH1 0x4 MSTORE PUSH1 0x24 PUSH0 REVERT JUMPDEST PUSH0 PUSH2 0xF72 DUP3 PUSH2 0x90D JUMP JUMPDEST SWAP2 POP PUSH2 0xF7D DUP4 PUSH2 0x90D JUMP JUMPDEST SWAP3 POP DUP3 PUSH2 0xF8D JUMPI PUSH2 0xF8C PUSH2 0xF3B JUMP JUMPDEST JUMPDEST DUP3 DUP3 DIV SWAP1 POP SWAP3 SWAP2 POP POP JUMP INVALID LOG2 PUSH5 0x6970667358 0x22 SLT KECCAK256 0x2C 0xAD PUSH3 0xB38333 0xD0 MULMOD 0x2B SWAP5 PUSH22 0xBFAE4370379237BB2EDD213F50C18FB57C0B02E5CB64 PUSH20 0x6F6C634300081A00330000000000000000000000 "
				},
				"gasEstimates": {
					"creation": {
						"codeDepositCost": "809200",
						"executionCost": "infinite",
						"totalCost": "infinite"
					},
					"external": {
						"Getmoneyifover()": "infinite",
						"Refund()": "infinite",
						"Resetowner(address)": "26950",
						"fund()": "infinite",
						"funderstoAmount(address)": "2847",
						"getChainlinkDataFeedLatestAnswer()": "infinite",
						"owner()": "2508"
					},
					"internal": {
						"convertETHtoUSDT(uint256)": "infinite"
					}
				},
				"methodIdentifiers": {
					"Getmoneyifover()": "6448121e",
					"Refund()": "5d268629",
					"Resetowner(address)": "d4f41178",
					"fund()": "b60d4288",
					"funderstoAmount(address)": "774178e8",
					"getChainlinkDataFeedLatestAnswer()": "bea4dfb5",
					"owner()": "8da5cb5b"
				}
			},
			"storageLayout": {
				"storage": [
					{
						"astId": 52,
						"contract": "fundme/FundMe.sol:Fundtome",
						"label": "dataFeed",
						"offset": 0,
						"slot": "0",
						"type": "t_contract(AggregatorV3Interface)45"
					},
					{
						"astId": 54,
						"contract": "fundme/FundMe.sol:Fundtome",
						"label": "owner",
						"offset": 0,
						"slot": "1",
						"type": "t_address"
					},
					{
						"astId": 56,
						"contract": "fundme/FundMe.sol:Fundtome",
						"label": "developtimestamp",
						"offset": 0,
						"slot": "2",
						"type": "t_uint256"
					},
					{
						"astId": 58,
						"contract": "fundme/FundMe.sol:Fundtome",
						"label": "locktime",
						"offset": 0,
						"slot": "3",
						"type": "t_uint256"
					},
					{
						"astId": 88,
						"contract": "fundme/FundMe.sol:Fundtome",
						"label": "funderstoAmount",
						"offset": 0,
						"slot": "4",
						"type": "t_mapping(t_address,t_uint256)"
					},
					{
						"astId": 91,
						"contract": "fundme/FundMe.sol:Fundtome",
						"label": "MINIUM_VALUE",
						"offset": 0,
						"slot": "5",
						"type": "t_uint256"
					},
					{
						"astId": 94,
						"contract": "fundme/FundMe.sol:Fundtome",
						"label": "FLAG",
						"offset": 0,
						"slot": "6",
						"type": "t_uint256"
					}
				],
				"types": {
					"t_address": {
						"encoding": "inplace",
						"label": "address",
						"numberOfBytes": "20"
					},
					"t_contract(AggregatorV3Interface)45": {
						"encoding": "inplace",
						"label": "contract AggregatorV3Interface",
						"numberOfBytes": "20"
					},
					"t_mapping(t_address,t_uint256)": {
						"encoding": "mapping",
						"key": "t_address",
						"label": "mapping(address => uint256)",
						"numberOfBytes": "32",
						"value": "t_uint256"
					},
					"t_uint256": {
						"encoding": "inplace",
						"label": "uint256",
						"numberOfBytes": "32"
					}
				}
			},
			"userdoc": {
				"kind": "user",
				"methods": {},
				"version": 1
			}
		}
	}
}