{
	"data": {
		"bytecode": {
			"linkReferences": {},
			"object": "608060405268056bc75e2d63100000600155348015601b575f5ffd5b5073694aa1769357215de4fac081bf1f309adc32530660025f6101000a81548173ffffffffffffffffffffffffffffffffffffffff021916908373ffffffffffffffffffffffffffffffffffffffff1602179055503360035f6101000a81548173ffffffffffffffffffffffffffffffffffffffff021916908373ffffffffffffffffffffffffffffffffffffffff160217905550610f2a806100bd5f395ff3fe60806040526004361061007a575f3560e01c8063b60d42881161004d578063b60d428814610110578063bea4dfb51461011a578063cfaaa26614610144578063d4b839921461016c5761007a565b8063590e1ae31461007e578063740c0664146100945780638da5cb5b146100d05780638edd6eb6146100fa575b5f5ffd5b348015610089575f5ffd5b50610092610196565b005b34801561009f575f5ffd5b506100ba60048036038101906100b59190610867565b610350565b6040516100c791906108aa565b60405180910390f35b3480156100db575f5ffd5b506100e4610364565b6040516100f191906108d2565b60405180910390f35b348015610105575f5ffd5b5061010e610389565b005b6101186105ce565b005b348015610125575f5ffd5b5061012e61065e565b60405161013b9190610903565b60405180910390f35b34801561014f575f5ffd5b5061016a60048036038101906101659190610867565b6106fb565b005b348015610177575f5ffd5b506101806107cd565b60405161018d91906108aa565b60405180910390f35b683635c9adc5dea000006101a9476107da565b106101e9576040517f08c379a00000000000000000000000000000000000000000000000000000000081526004016101e090610976565b60405180910390fd5b5f5f5f3373ffffffffffffffffffffffffffffffffffffffff1673ffffffffffffffffffffffffffffffffffffffff1681526020019081526020015f205403610267576040517f08c379a000000000000000000000000000000000000000000000000000000000815260040161025e90610a04565b60405180910390fd5b5f3373ffffffffffffffffffffffffffffffffffffffff165f5f3373ffffffffffffffffffffffffffffffffffffffff1673ffffffffffffffffffffffffffffffffffffffff1681526020019081526020015f20546040516102c890610a4f565b5f6040518083038185875af1925050503d805f8114610302576040519150601f19603f3d011682016040523d82523d5f602084013e610307565b606091505b5050809150508061034d576040517f08c379a000000000000000000000000000000000000000000000000000000000815260040161034490610aad565b60405180910390fd5b50565b5f602052805f5260405f205f915090505481565b60035f9054906101000a900473ffffffffffffffffffffffffffffffffffffffff1681565b600154610395476107da565b10156103d6576040517f08c379a00000000000000000000000000000000000000000000000000000000081526004016103cd90610b15565b60405180910390fd5b60035f9054906101000a900473ffffffffffffffffffffffffffffffffffffffff1673ffffffffffffffffffffffffffffffffffffffff163373ffffffffffffffffffffffffffffffffffffffff1614610465576040517f08c379a000000000000000000000000000000000000000000000000000000000815260040161045c90610ba3565b60405180910390fd5b3373ffffffffffffffffffffffffffffffffffffffff166108fc4790811502906040515f60405180830381858888f193505050501580156104a8573d5f5f3e3d5ffd5b505f3373ffffffffffffffffffffffffffffffffffffffff166108fc4790811502906040515f60405180830381858888f19350505050905080610520576040517f08c379a000000000000000000000000000000000000000000000000000000000815260040161051790610c0b565b60405180910390fd5b5f3373ffffffffffffffffffffffffffffffffffffffff164760405161054590610a4f565b5f6040518083038185875af1925050503d805f811461057f576040519150601f19603f3d011682016040523d82523d5f602084013e610584565b606091505b505080915050806105ca576040517f08c379a00000000000000000000000000000000000000000000000000000000081526004016105c190610c0b565b60405180910390fd5b5050565b6001546105da346107da565b101561061b576040517f08c379a000000000000000000000000000000000000000000000000000000000815260040161061290610c73565b60405180910390fd5b345f5f3373ffffffffffffffffffffffffffffffffffffffff1673ffffffffffffffffffffffffffffffffffffffff1681526020019081526020015f2081905550565b5f5f60025f9054906101000a900473ffffffffffffffffffffffffffffffffffffffff1673ffffffffffffffffffffffffffffffffffffffff1663feaf968c6040518163ffffffff1660e01b815260040160a060405180830381865afa1580156106ca573d5f5f3e3d5ffd5b505050506040513d601f19601f820116820180604052508101906106ee9190610d24565b5050509150508091505090565b60035f9054906101000a900473ffffffffffffffffffffffffffffffffffffffff1673ffffffffffffffffffffffffffffffffffffffff163373ffffffffffffffffffffffffffffffffffffffff161461078a576040517f08c379a000000000000000000000000000000000000000000000000000000000815260040161078190610e0b565b60405180910390fd5b8060035f6101000a81548173ffffffffffffffffffffffffffffffffffffffff021916908373ffffffffffffffffffffffffffffffffffffffff16021790555050565b683635c9adc5dea0000081565b5f5f6107e461065e565b90506305f5e10081846107f79190610e56565b6108019190610ec4565b915050919050565b5f5ffd5b5f73ffffffffffffffffffffffffffffffffffffffff82169050919050565b5f6108368261080d565b9050919050565b6108468161082c565b8114610850575f5ffd5b50565b5f813590506108618161083d565b92915050565b5f6020828403121561087c5761087b610809565b5b5f61088984828501610853565b91505092915050565b5f819050919050565b6108a481610892565b82525050565b5f6020820190506108bd5f83018461089b565b92915050565b6108cc8161082c565b82525050565b5f6020820190506108e55f8301846108c3565b92915050565b5f819050919050565b6108fd816108eb565b82525050565b5f6020820190506109165f8301846108f4565b92915050565b5f82825260208201905092915050565b7f74617267657420697320726561636865642100000000000000000000000000005f82015250565b5f61096060128361091c565b915061096b8261092c565b602082019050919050565b5f6020820190508181035f83015261098d81610954565b9050919050565b7f796f7520646f6e277420686176652066756e642c7468657265206973206e6f205f8201527f66756e6420666f7220796f752100000000000000000000000000000000000000602082015250565b5f6109ee602d8361091c565b91506109f982610994565b604082019050919050565b5f6020820190508181035f830152610a1b816109e2565b9050919050565b5f81905092915050565b50565b5f610a3a5f83610a22565b9150610a4582610a2c565b5f82019050919050565b5f610a5982610a2f565b9150819050919050565b7f7478206661696c210000000000000000000000000000000000000000000000005f82015250565b5f610a9760088361091c565b9150610aa282610a63565b602082019050919050565b5f6020820190508181035f830152610ac481610a8b565b9050919050565b7f46756e6420697320746f6f206c6f7721000000000000000000000000000000005f82015250565b5f610aff60108361091c565b9150610b0a82610acb565b602082019050919050565b5f6020820190508181035f830152610b2c81610af3565b9050919050565b7f746869732066756e6374696f6e2063616e206f6e6c792062752063616c6c65645f8201527f206279206f776e65720000000000000000000000000000000000000000000000602082015250565b5f610b8d60298361091c565b9150610b9882610b33565b604082019050919050565b5f6020820190508181035f830152610bba81610b81565b9050919050565b7f7478206661696c656400000000000000000000000000000000000000000000005f82015250565b5f610bf560098361091c565b9150610c0082610bc1565b602082019050919050565b5f6020820190508181035f830152610c2281610be9565b9050919050565b7f506c656173652053656e64204d6f7265204554482121210000000000000000005f82015250565b5f610c5d60178361091c565b9150610c6882610c29565b602082019050919050565b5f6020820190508181035f830152610c8a81610c51565b9050919050565b5f69ffffffffffffffffffff82169050919050565b610caf81610c91565b8114610cb9575f5ffd5b50565b5f81519050610cca81610ca6565b92915050565b610cd9816108eb565b8114610ce3575f5ffd5b50565b5f81519050610cf481610cd0565b92915050565b610d0381610892565b8114610d0d575f5ffd5b50565b5f81519050610d1e81610cfa565b92915050565b5f5f5f5f5f60a08688031215610d3d57610d3c610809565b5b5f610d4a88828901610cbc565b9550506020610d5b88828901610ce6565b9450506040610d6c88828901610d10565b9350506060610d7d88828901610d10565b9250506080610d8e88828901610cbc565b9150509295509295909350565b7f746869732066756e6374696f6e2063616e206f6e6c792062652063616c6c65645f8201527f206279206f776e65720000000000000000000000000000000000000000000000602082015250565b5f610df560298361091c565b9150610e0082610d9b565b604082019050919050565b5f6020820190508181035f830152610e2281610de9565b9050919050565b7f4e487b71000000000000000000000000000000000000000000000000000000005f52601160045260245ffd5b5f610e6082610892565b9150610e6b83610892565b9250828202610e7981610892565b91508282048414831517610e9057610e8f610e29565b5b5092915050565b7f4e487b71000000000000000000000000000000000000000000000000000000005f52601260045260245ffd5b5f610ece82610892565b9150610ed983610892565b925082610ee957610ee8610e97565b5b82820490509291505056fea2646970667358221220914fd62bd17a22bcbec79677ebceb1da9078f09efce1ead016a61515eba436ec64736f6c634300081e0033",
			"opcodes": "PUSH1 0x80 PUSH1 0x40 MSTORE PUSH9 0x56BC75E2D63100000 PUSH1 0x1 SSTORE CALLVALUE DUP1 ISZERO PUSH1 0x1B JUMPI PUSH0 PUSH0 REVERT JUMPDEST POP PUSH20 0x694AA1769357215DE4FAC081BF1F309ADC325306 PUSH1 0x2 PUSH0 PUSH2 0x100 EXP DUP2 SLOAD DUP2 PUSH20 0xFFFFFFFFFFFFFFFFFFFFFFFFFFFFFFFFFFFFFFFF MUL NOT AND SWAP1 DUP4 PUSH20 0xFFFFFFFFFFFFFFFFFFFFFFFFFFFFFFFFFFFFFFFF AND MUL OR SWAP1 SSTORE POP CALLER PUSH1 0x3 PUSH0 PUSH2 0x100 EXP DUP2 SLOAD DUP2 PUSH20 0xFFFFFFFFFFFFFFFFFFFFFFFFFFFFFFFFFFFFFFFF MUL NOT AND SWAP1 DUP4 PUSH20 0xFFFFFFFFFFFFFFFFFFFFFFFFFFFFFFFFFFFFFFFF AND MUL OR SWAP1 SSTORE POP PUSH2 0xF2A DUP1 PUSH2 0xBD PUSH0 CODECOPY PUSH0 RETURN INVALID PUSH1 0x80 PUSH1 0x40 MSTORE PUSH1 0x4 CALLDATASIZE LT PUSH2 0x7A JUMPI PUSH0 CALLDATALOAD PUSH1 0xE0 SHR DUP1 PUSH4 0xB60D4288 GT PUSH2 0x4D JUMPI DUP1 PUSH4 0xB60D4288 EQ PUSH2 0x110 JUMPI DUP1 PUSH4 0xBEA4DFB5 EQ PUSH2 0x11A JUMPI DUP1 PUSH4 0xCFAAA266 EQ PUSH2 0x144 JUMPI DUP1 PUSH4 0xD4B83992 EQ PUSH2 0x16C JUMPI PUSH2 0x7A JUMP JUMPDEST DUP1 PUSH4 0x590E1AE3 EQ PUSH2 0x7E JUMPI DUP1 PUSH4 0x740C0664 EQ PUSH2 0x94 JUMPI DUP1 PUSH4 0x8DA5CB5B EQ PUSH2 0xD0 JUMPI DUP1 PUSH4 0x8EDD6EB6 EQ PUSH2 0xFA JUMPI JUMPDEST PUSH0 PUSH0 REVERT JUMPDEST CALLVALUE DUP1 ISZERO PUSH2 0x89 JUMPI PUSH0 PUSH0 REVERT JUMPDEST POP PUSH2 0x92 PUSH2 0x196 JUMP JUMPDEST STOP JUMPDEST CALLVALUE DUP1 ISZERO PUSH2 0x9F JUMPI PUSH0 PUSH0 REVERT JUMPDEST POP PUSH2 0xBA PUSH1 0x4 DUP1 CALLDATASIZE SUB DUP2 ADD SWAP1 PUSH2 0xB5 SWAP2 SWAP1 PUSH2 0x867 JUMP JUMPDEST PUSH2 0x350 JUMP JUMPDEST PUSH1 0x40 MLOAD PUSH2 0xC7 SWAP2 SWAP1 PUSH2 0x8AA JUMP JUMPDEST PUSH1 0x40 MLOAD DUP1 SWAP2 SUB SWAP1 RETURN JUMPDEST CALLVALUE DUP1 ISZERO PUSH2 0xDB JUMPI PUSH0 PUSH0 REVERT JUMPDEST POP PUSH2 0xE4 PUSH2 0x364 JUMP JUMPDEST PUSH1 0x40 MLOAD PUSH2 0xF1 SWAP2 SWAP1 PUSH2 0x8D2 JUMP JUMPDEST PUSH1 0x40 MLOAD DUP1 SWAP2 SUB SWAP1 RETURN JUMPDEST CALLVALUE DUP1 ISZERO PUSH2 0x105 JUMPI PUSH0 PUSH0 REVERT JUMPDEST POP PUSH2 0x10E PUSH2 0x389 JUMP JUMPDEST STOP JUMPDEST PUSH2 0x118 PUSH2 0x5CE JUMP JUMPDEST STOP JUMPDEST CALLVALUE DUP1 ISZERO PUSH2 0x125 JUMPI PUSH0 PUSH0 REVERT JUMPDEST POP PUSH2 0x12E PUSH2 0x65E JUMP JUMPDEST PUSH1 0x40 MLOAD PUSH2 0x13B SWAP2 SWAP1 PUSH2 0x903 JUMP JUMPDEST PUSH1 0x40 MLOAD DUP1 SWAP2 SUB SWAP1 RETURN JUMPDEST CALLVALUE DUP1 ISZERO PUSH2 0x14F JUMPI PUSH0 PUSH0 REVERT JUMPDEST POP PUSH2 0x16A PUSH1 0x4 DUP1 CALLDATASIZE SUB DUP2 ADD SWAP1 PUSH2 0x165 SWAP2 SWAP1 PUSH2 0x867 JUMP JUMPDEST PUSH2 0x6FB JUMP JUMPDEST STOP JUMPDEST CALLVALUE DUP1 ISZERO PUSH2 0x177 JUMPI PUSH0 PUSH0 REVERT JUMPDEST POP PUSH2 0x180 PUSH2 0x7CD JUMP JUMPDEST PUSH1 0x40 MLOAD PUSH2 0x18D SWAP2 SWAP1 PUSH2 0x8AA JUMP JUMPDEST PUSH1 0x40 MLOAD DUP1 SWAP2 SUB SWAP1 RETURN JUMPDEST PUSH9 0x3635C9ADC5DEA00000 PUSH2 0x1A9 SELFBALANCE PUSH2 0x7DA JUMP JUMPDEST LT PUSH2 0x1E9 JUMPI PUSH1 0x40 MLOAD PUSH32 0x8C379A000000000000000000000000000000000000000000000000000000000 DUP2 MSTORE PUSH1 0x4 ADD PUSH2 0x1E0 SWAP1 PUSH2 0x976 JUMP JUMPDEST PUSH1 0x40 MLOAD DUP1 SWAP2 SUB SWAP1 REVERT JUMPDEST PUSH0 PUSH0 PUSH0 CALLER PUSH20 0xFFFFFFFFFFFFFFFFFFFFFFFFFFFFFFFFFFFFFFFF AND PUSH20 0xFFFFFFFFFFFFFFFFFFFFFFFFFFFFFFFFFFFFFFFF AND DUP2 MSTORE PUSH1 0x20 ADD SWAP1 DUP2 MSTORE PUSH1 0x20 ADD PUSH0 KECCAK256 SLOAD SUB PUSH2 0x267 JUMPI PUSH1 0x40 MLOAD PUSH32 0x8C379A000000000000000000000000000000000000000000000000000000000 DUP2 MSTORE PUSH1 0x4 ADD PUSH2 0x25E SWAP1 PUSH2 0xA04 JUMP JUMPDEST PUSH1 0x40 MLOAD DUP1 SWAP2 SUB SWAP1 REVERT JUMPDEST PUSH0 CALLER PUSH20 0xFFFFFFFFFFFFFFFFFFFFFFFFFFFFFFFFFFFFFFFF AND PUSH0 PUSH0 CALLER PUSH20 0xFFFFFFFFFFFFFFFFFFFFFFFFFFFFFFFFFFFFFFFF AND PUSH20 0xFFFFFFFFFFFFFFFFFFFFFFFFFFFFFFFFFFFFFFFF AND DUP2 MSTORE PUSH1 0x20 ADD SWAP1 DUP2 MSTORE PUSH1 0x20 ADD PUSH0 KECCAK256 SLOAD PUSH1 0x40 MLOAD PUSH2 0x2C8 SWAP1 PUSH2 0xA4F JUMP JUMPDEST PUSH0 PUSH1 0x40 MLOAD DUP1 DUP4 SUB DUP2 DUP6 DUP8 GAS CALL SWAP3 POP POP POP RETURNDATASIZE DUP1 PUSH0 DUP2 EQ PUSH2 0x302 JUMPI PUSH1 0x40 MLOAD SWAP2 POP PUSH1 0x1F NOT PUSH1 0x3F RETURNDATASIZE ADD AND DUP3 ADD PUSH1 0x40 MSTORE RETURNDATASIZE DUP3 MSTORE RETURNDATASIZE PUSH0 PUSH1 0x20 DUP5 ADD RETURNDATACOPY PUSH2 0x307 JUMP JUMPDEST PUSH1 0x60 SWAP2 POP JUMPDEST POP POP DUP1 SWAP2 POP POP DUP1 PUSH2 0x34D JUMPI PUSH1 0x40 MLOAD PUSH32 0x8C379A000000000000000000000000000000000000000000000000000000000 DUP2 MSTORE PUSH1 0x4 ADD PUSH2 0x344 SWAP1 PUSH2 0xAAD JUMP JUMPDEST PUSH1 0x40 MLOAD DUP1 SWAP2 SUB SWAP1 REVERT JUMPDEST POP JUMP JUMPDEST PUSH0 PUSH1 0x20 MSTORE DUP1 PUSH0 MSTORE PUSH1 0x40 PUSH0 KECCAK256 PUSH0 SWAP2 POP SWAP1 POP SLOAD DUP2 JUMP JUMPDEST PUSH1 0x3 PUSH0 SWAP1 SLOAD SWAP1 PUSH2 0x100 EXP SWAP1 DIV PUSH20 0xFFFFFFFFFFFFFFFFFFFFFFFFFFFFFFFFFFFFFFFF AND DUP2 JUMP JUMPDEST PUSH1 0x1 SLOAD PUSH2 0x395 SELFBALANCE PUSH2 0x7DA JUMP JUMPDEST LT ISZERO PUSH2 0x3D6 JUMPI PUSH1 0x40 MLOAD PUSH32 0x8C379A000000000000000000000000000000000000000000000000000000000 DUP2 MSTORE PUSH1 0x4 ADD PUSH2 0x3CD SWAP1 PUSH2 0xB15 JUMP JUMPDEST PUSH1 0x40 MLOAD DUP1 SWAP2 SUB SWAP1 REVERT JUMPDEST PUSH1 0x3 PUSH0 SWAP1 SLOAD SWAP1 PUSH2 0x100 EXP SWAP1 DIV PUSH20 0xFFFFFFFFFFFFFFFFFFFFFFFFFFFFFFFFFFFFFFFF AND PUSH20 0xFFFFFFFFFFFFFFFFFFFFFFFFFFFFFFFFFFFFFFFF AND CALLER PUSH20 0xFFFFFFFFFFFFFFFFFFFFFFFFFFFFFFFFFFFFFFFF AND EQ PUSH2 0x465 JUMPI PUSH1 0x40 MLOAD PUSH32 0x8C379A000000000000000000000000000000000000000000000000000000000 DUP2 MSTORE PUSH1 0x4 ADD PUSH2 0x45C SWAP1 PUSH2 0xBA3 JUMP JUMPDEST PUSH1 0x40 MLOAD DUP1 SWAP2 SUB SWAP1 REVERT JUMPDEST CALLER PUSH20 0xFFFFFFFFFFFFFFFFFFFFFFFFFFFFFFFFFFFFFFFF AND PUSH2 0x8FC SELFBALANCE SWAP1 DUP2 ISZERO MUL SWAP1 PUSH1 0x40 MLOAD PUSH0 PUSH1 0x40 MLOAD DUP1 DUP4 SUB DUP2 DUP6 DUP9 DUP9 CALL SWAP4 POP POP POP POP ISZERO DUP1 ISZERO PUSH2 0x4A8 JUMPI RETURNDATASIZE PUSH0 PUSH0 RETURNDATACOPY RETURNDATASIZE PUSH0 REVERT JUMPDEST POP PUSH0 CALLER PUSH20 0xFFFFFFFFFFFFFFFFFFFFFFFFFFFFFFFFFFFFFFFF AND PUSH2 0x8FC SELFBALANCE SWAP1 DUP2 ISZERO MUL SWAP1 PUSH1 0x40 MLOAD PUSH0 PUSH1 0x40 MLOAD DUP1 DUP4 SUB DUP2 DUP6 DUP9 DUP9 CALL SWAP4 POP POP POP POP SWAP1 POP DUP1 PUSH2 0x520 JUMPI PUSH1 0x40 MLOAD PUSH32 0x8C379A000000000000000000000000000000000000000000000000000000000 DUP2 MSTORE PUSH1 0x4 ADD PUSH2 0x517 SWAP1 PUSH2 0xC0B JUMP JUMPDEST PUSH1 0x40 MLOAD DUP1 SWAP2 SUB SWAP1 REVERT JUMPDEST PUSH0 CALLER PUSH20 0xFFFFFFFFFFFFFFFFFFFFFFFFFFFFFFFFFFFFFFFF AND SELFBALANCE PUSH1 0x40 MLOAD PUSH2 0x545 SWAP1 PUSH2 0xA4F JUMP JUMPDEST PUSH0 PUSH1 0x40 MLOAD DUP1 DUP4 SUB DUP2 DUP6 DUP8 GAS CALL SWAP3 POP POP POP RETURNDATASIZE DUP1 PUSH0 DUP2 EQ PUSH2 0x57F JUMPI PUSH1 0x40 MLOAD SWAP2 POP PUSH1 0x1F NOT PUSH1 0x3F RETURNDATASIZE ADD AND DUP3 ADD PUSH1 0x40 MSTORE RETURNDATASIZE DUP3 MSTORE RETURNDATASIZE PUSH0 PUSH1 0x20 DUP5 ADD RETURNDATACOPY PUSH2 0x584 JUMP JUMPDEST PUSH1 0x60 SWAP2 POP JUMPDEST POP POP DUP1 SWAP2 POP POP DUP1 PUSH2 0x5CA JUMPI PUSH1 0x40 MLOAD PUSH32 0x8C379A000000000000000000000000000000000000000000000000000000000 DUP2 MSTORE PUSH1 0x4 ADD PUSH2 0x5C1 SWAP1 PUSH2 0xC0B JUMP JUMPDEST PUSH1 0x40 MLOAD DUP1 SWAP2 SUB SWAP1 REVERT JUMPDEST POP POP JUMP JUMPDEST PUSH1 0x1 SLOAD PUSH2 0x5DA CALLVALUE PUSH2 0x7DA JUMP JUMPDEST LT ISZERO PUSH2 0x61B JUMPI PUSH1 0x40 MLOAD PUSH32 0x8C379A000000000000000000000000000000000000000000000000000000000 DUP2 MSTORE PUSH1 0x4 ADD PUSH2 0x612 SWAP1 PUSH2 0xC73 JUMP JUMPDEST PUSH1 0x40 MLOAD DUP1 SWAP2 SUB SWAP1 REVERT JUMPDEST CALLVALUE PUSH0 PUSH0 CALLER PUSH20 0xFFFFFFFFFFFFFFFFFFFFFFFFFFFFFFFFFFFFFFFF AND PUSH20 0xFFFFFFFFFFFFFFFFFFFFFFFFFFFFFFFFFFFFFFFF AND DUP2 MSTORE PUSH1 0x20 ADD SWAP1 DUP2 MSTORE PUSH1 0x20 ADD PUSH0 KECCAK256 DUP2 SWAP1 SSTORE POP JUMP JUMPDEST PUSH0 PUSH0 PUSH1 0x2 PUSH0 SWAP1 SLOAD SWAP1 PUSH2 0x100 EXP SWAP1 DIV PUSH20 0xFFFFFFFFFFFFFFFFFFFFFFFFFFFFFFFFFFFFFFFF AND PUSH20 0xFFFFFFFFFFFFFFFFFFFFFFFFFFFFFFFFFFFFFFFF AND PUSH4 0xFEAF968C PUSH1 0x40 MLOAD DUP2 PUSH4 0xFFFFFFFF AND PUSH1 0xE0 SHL DUP2 MSTORE PUSH1 0x4 ADD PUSH1 0xA0 PUSH1 0x40 MLOAD DUP1 DUP4 SUB DUP2 DUP7 GAS STATICCALL ISZERO DUP1 ISZERO PUSH2 0x6CA JUMPI RETURNDATASIZE PUSH0 PUSH0 RETURNDATACOPY RETURNDATASIZE PUSH0 REVERT JUMPDEST POP POP POP POP PUSH1 0x40 MLOAD RETURNDATASIZE PUSH1 0x1F NOT PUSH1 0x1F DUP3 ADD AND DUP3 ADD DUP1 PUSH1 0x40 MSTORE POP DUP2 ADD SWAP1 PUSH2 0x6EE SWAP2 SWAP1 PUSH2 0xD24 JUMP JUMPDEST POP POP POP SWAP2 POP POP DUP1 SWAP2 POP POP SWAP1 JUMP JUMPDEST PUSH1 0x3 PUSH0 SWAP1 SLOAD SWAP1 PUSH2 0x100 EXP SWAP1 DIV PUSH20 0xFFFFFFFFFFFFFFFFFFFFFFFFFFFFFFFFFFFFFFFF AND PUSH20 0xFFFFFFFFFFFFFFFFFFFFFFFFFFFFFFFFFFFFFFFF AND CALLER PUSH20 0xFFFFFFFFFFFFFFFFFFFFFFFFFFFFFFFFFFFFFFFF AND EQ PUSH2 0x78A JUMPI PUSH1 0x40 MLOAD PUSH32 0x8C379A000000000000000000000000000000000000000000000000000000000 DUP2 MSTORE PUSH1 0x4 ADD PUSH2 0x781 SWAP1 PUSH2 0xE0B JUMP JUMPDEST PUSH1 0x40 MLOAD DUP1 SWAP2 SUB SWAP1 REVERT JUMPDEST DUP1 PUSH1 0x3 PUSH0 PUSH2 0x100 EXP DUP2 SLOAD DUP2 PUSH20 0xFFFFFFFFFFFFFFFFFFFFFFFFFFFFFFFFFFFFFFFF MUL NOT AND SWAP1 DUP4 PUSH20 0xFFFFFFFFFFFFFFFFFFFFFFFFFFFFFFFFFFFFFFFF AND MUL OR SWAP1 SSTORE POP POP JUMP JUMPDEST PUSH9 0x3635C9ADC5DEA00000 DUP2 JUMP JUMPDEST PUSH0 PUSH0 PUSH2 0x7E4 PUSH2 0x65E JUMP JUMPDEST SWAP1 POP PUSH4 0x5F5E100 DUP2 DUP5 PUSH2 0x7F7 SWAP2 SWAP1 PUSH2 0xE56 JUMP JUMPDEST PUSH2 0x801 SWAP2 SWAP1 PUSH2 0xEC4 JUMP JUMPDEST SWAP2 POP POP SWAP2 SWAP1 POP JUMP JUMPDEST PUSH0 PUSH0 REVERT JUMPDEST PUSH0 PUSH20 0xFFFFFFFFFFFFFFFFFFFFFFFFFFFFFFFFFFFFFFFF DUP3 AND SWAP1 POP SWAP2 SWAP1 POP JUMP JUMPDEST PUSH0 PUSH2 0x836 DUP3 PUSH2 0x80D JUMP JUMPDEST SWAP1 POP SWAP2 SWAP1 POP JUMP JUMPDEST PUSH2 0x846 DUP2 PUSH2 0x82C JUMP JUMPDEST DUP2 EQ PUSH2 0x850 JUMPI PUSH0 PUSH0 REVERT JUMPDEST POP JUMP JUMPDEST PUSH0 DUP2 CALLDATALOAD SWAP1 POP PUSH2 0x861 DUP2 PUSH2 0x83D JUMP JUMPDEST SWAP3 SWAP2 POP POP JUMP JUMPDEST PUSH0 PUSH1 0x20 DUP3 DUP5 SUB SLT ISZERO PUSH2 0x87C JUMPI PUSH2 0x87B PUSH2 0x809 JUMP JUMPDEST JUMPDEST PUSH0 PUSH2 0x889 DUP5 DUP3 DUP6 ADD PUSH2 0x853 JUMP JUMPDEST SWAP2 POP POP SWAP3 SWAP2 POP POP JUMP JUMPDEST PUSH0 DUP2 SWAP1 POP SWAP2 SWAP1 POP JUMP JUMPDEST PUSH2 0x8A4 DUP2 PUSH2 0x892 JUMP JUMPDEST DUP3 MSTORE POP POP JUMP JUMPDEST PUSH0 PUSH1 0x20 DUP3 ADD SWAP1 POP PUSH2 0x8BD PUSH0 DUP4 ADD DUP5 PUSH2 0x89B JUMP JUMPDEST SWAP3 SWAP2 POP POP JUMP JUMPDEST PUSH2 0x8CC DUP2 PUSH2 0x82C JUMP JUMPDEST DUP3 MSTORE POP POP JUMP JUMPDEST PUSH0 PUSH1 0x20 DUP3 ADD SWAP1 POP PUSH2 0x8E5 PUSH0 DUP4 ADD DUP5 PUSH2 0x8C3 JUMP JUMPDEST SWAP3 SWAP2 POP POP JUMP JUMPDEST PUSH0 DUP2 SWAP1 POP SWAP2 SWAP1 POP JUMP JUMPDEST PUSH2 0x8FD DUP2 PUSH2 0x8EB JUMP JUMPDEST DUP3 MSTORE POP POP JUMP JUMPDEST PUSH0 PUSH1 0x20 DUP3 ADD SWAP1 POP PUSH2 0x916 PUSH0 DUP4 ADD DUP5 PUSH2 0x8F4 JUMP JUMPDEST SWAP3 SWAP2 POP POP JUMP JUMPDEST PUSH0 DUP3 DUP3 MSTORE PUSH1 0x20 DUP3 ADD SWAP1 POP SWAP3 SWAP2 POP POP JUMP JUMPDEST PUSH32 0x7461726765742069732072656163686564210000000000000000000000000000 PUSH0 DUP3 ADD MSTORE POP JUMP JUMPDEST PUSH0 PUSH2 0x960 PUSH1 0x12 DUP4 PUSH2 0x91C JUMP JUMPDEST SWAP2 POP PUSH2 0x96B DUP3 PUSH2 0x92C JUMP JUMPDEST PUSH1 0x20 DUP3 ADD SWAP1 POP SWAP2 SWAP1 POP JUMP JUMPDEST PUSH0 PUSH1 0x20 DUP3 ADD SWAP1 POP DUP2 DUP2 SUB PUSH0 DUP4 ADD MSTORE PUSH2 0x98D DUP2 PUSH2 0x954 JUMP JUMPDEST SWAP1 POP SWAP2 SWAP1 POP JUMP JUMPDEST PUSH32 0x796F7520646F6E277420686176652066756E642C7468657265206973206E6F20 PUSH0 DUP3 ADD MSTORE PUSH32 0x66756E6420666F7220796F752100000000000000000000000000000000000000 PUSH1 0x20 DUP3 ADD MSTORE POP JUMP JUMPDEST PUSH0 PUSH2 0x9EE PUSH1 0x2D DUP4 PUSH2 0x91C JUMP JUMPDEST SWAP2 POP PUSH2 0x9F9 DUP3 PUSH2 0x994 JUMP JUMPDEST PUSH1 0x40 DUP3 ADD SWAP1 POP SWAP2 SWAP1 POP JUMP JUMPDEST PUSH0 PUSH1 0x20 DUP3 ADD SWAP1 POP DUP2 DUP2 SUB PUSH0 DUP4 ADD MSTORE PUSH2 0xA1B DUP2 PUSH2 0x9E2 JUMP JUMPDEST SWAP1 POP SWAP2 SWAP1 POP JUMP JUMPDEST PUSH0 DUP2 SWAP1 POP SWAP3 SWAP2 POP POP JUMP JUMPDEST POP JUMP JUMPDEST PUSH0 PUSH2 0xA3A PUSH0 DUP4 PUSH2 0xA22 JUMP JUMPDEST SWAP2 POP PUSH2 0xA45 DUP3 PUSH2 0xA2C JUMP JUMPDEST PUSH0 DUP3 ADD SWAP1 POP SWAP2 SWAP1 POP JUMP JUMPDEST PUSH0 PUSH2 0xA59 DUP3 PUSH2 0xA2F JUMP JUMPDEST SWAP2 POP DUP2 SWAP1 POP SWAP2 SWAP1 POP JUMP JUMPDEST PUSH32 0x7478206661696C21000000000000000000000000000000000000000000000000 PUSH0 DUP3 ADD MSTORE POP JUMP JUMPDEST PUSH0 PUSH2 0xA97 PUSH1 0x8 DUP4 PUSH2 0x91C JUMP JUMPDEST SWAP2 POP PUSH2 0xAA2 DUP3 PUSH2 0xA63 JUMP JUMPDEST PUSH1 0x20 DUP3 ADD SWAP1 POP SWAP2 SWAP1 POP JUMP JUMPDEST PUSH0 PUSH1 0x20 DUP3 ADD SWAP1 POP DUP2 DUP2 SUB PUSH0 DUP4 ADD MSTORE PUSH2 0xAC4 DUP2 PUSH2 0xA8B JUMP JUMPDEST SWAP1 POP SWAP2 SWAP1 POP JUMP JUMPDEST PUSH32 0x46756E6420697320746F6F206C6F772100000000000000000000000000000000 PUSH0 DUP3 ADD MSTORE POP JUMP JUMPDEST PUSH0 PUSH2 0xAFF PUSH1 0x10 DUP4 PUSH2 0x91C JUMP JUMPDEST SWAP2 POP PUSH2 0xB0A DUP3 PUSH2 0xACB JUMP JUMPDEST PUSH1 0x20 DUP3 ADD SWAP1 POP SWAP2 SWAP1 POP JUMP JUMPDEST PUSH0 PUSH1 0x20 DUP3 ADD SWAP1 POP DUP2 DUP2 SUB PUSH0 DUP4 ADD MSTORE PUSH2 0xB2C DUP2 PUSH2 0xAF3 JUMP JUMPDEST SWAP1 POP SWAP2 SWAP1 POP JUMP JUMPDEST PUSH32 0x746869732066756E6374696F6E2063616E206F6E6C792062752063616C6C6564 PUSH0 DUP3 ADD MSTORE PUSH32 0x206279206F776E65720000000000000000000000000000000000000000000000 PUSH1 0x20 DUP3 ADD MSTORE POP JUMP JUMPDEST PUSH0 PUSH2 0xB8D PUSH1 0x29 DUP4 PUSH2 0x91C JUMP JUMPDEST SWAP2 POP PUSH2 0xB98 DUP3 PUSH2 0xB33 JUMP JUMPDEST PUSH1 0x40 DUP3 ADD SWAP1 POP SWAP2 SWAP1 POP JUMP JUMPDEST PUSH0 PUSH1 0x20 DUP3 ADD SWAP1 POP DUP2 DUP2 SUB PUSH0 DUP4 ADD MSTORE PUSH2 0xBBA DUP2 PUSH2 0xB81 JUMP JUMPDEST SWAP1 POP SWAP2 SWAP1 POP JUMP JUMPDEST PUSH32 0x7478206661696C65640000000000000000000000000000000000000000000000 PUSH0 DUP3 ADD MSTORE POP JUMP JUMPDEST PUSH0 PUSH2 0xBF5 PUSH1 0x9 DUP4 PUSH2 0x91C JUMP JUMPDEST SWAP2 POP PUSH2 0xC00 DUP3 PUSH2 0xBC1 JUMP JUMPDEST PUSH1 0x20 DUP3 ADD SWAP1 POP SWAP2 SWAP1 POP JUMP JUMPDEST PUSH0 PUSH1 0x20 DUP3 ADD SWAP1 POP DUP2 DUP2 SUB PUSH0 DUP4 ADD MSTORE PUSH2 0xC22 DUP2 PUSH2 0xBE9 JUMP JUMPDEST SWAP1 POP SWAP2 SWAP1 POP JUMP JUMPDEST PUSH32 0x506C656173652053656E64204D6F726520455448212121000000000000000000 PUSH0 DUP3 ADD MSTORE POP JUMP JUMPDEST PUSH0 PUSH2 0xC5D PUSH1 0x17 DUP4 PUSH2 0x91C JUMP JUMPDEST SWAP2 POP PUSH2 0xC68 DUP3 PUSH2 0xC29 JUMP JUMPDEST PUSH1 0x20 DUP3 ADD SWAP1 POP SWAP2 SWAP1 POP JUMP JUMPDEST PUSH0 PUSH1 0x20 DUP3 ADD SWAP1 POP DUP2 DUP2 SUB PUSH0 DUP4 ADD MSTORE PUSH2 0xC8A DUP2 PUSH2 0xC51 JUMP JUMPDEST SWAP1 POP SWAP2 SWAP1 POP JUMP JUMPDEST PUSH0 PUSH10 0xFFFFFFFFFFFFFFFFFFFF DUP3 AND SWAP1 POP SWAP2 SWAP1 POP JUMP JUMPDEST PUSH2 0xCAF DUP2 PUSH2 0xC91 JUMP JUMPDEST DUP2 EQ PUSH2 0xCB9 JUMPI PUSH0 PUSH0 REVERT JUMPDEST POP JUMP JUMPDEST PUSH0 DUP2 MLOAD SWAP1 POP PUSH2 0xCCA DUP2 PUSH2 0xCA6 JUMP JUMPDEST SWAP3 SWAP2 POP POP JUMP JUMPDEST PUSH2 0xCD9 DUP2 PUSH2 0x8EB JUMP JUMPDEST DUP2 EQ PUSH2 0xCE3 JUMPI PUSH0 PUSH0 REVERT JUMPDEST POP JUMP JUMPDEST PUSH0 DUP2 MLOAD SWAP1 POP PUSH2 0xCF4 DUP2 PUSH2 0xCD0 JUMP JUMPDEST SWAP3 SWAP2 POP POP JUMP JUMPDEST PUSH2 0xD03 DUP2 PUSH2 0x892 JUMP JUMPDEST DUP2 EQ PUSH2 0xD0D JUMPI PUSH0 PUSH0 REVERT JUMPDEST POP JUMP JUMPDEST PUSH0 DUP2 MLOAD SWAP1 POP PUSH2 0xD1E DUP2 PUSH2 0xCFA JUMP JUMPDEST SWAP3 SWAP2 POP POP JUMP JUMPDEST PUSH0 PUSH0 PUSH0 PUSH0 PUSH0 PUSH1 0xA0 DUP7 DUP9 SUB SLT ISZERO PUSH2 0xD3D JUMPI PUSH2 0xD3C PUSH2 0x809 JUMP JUMPDEST JUMPDEST PUSH0 PUSH2 0xD4A DUP9 DUP3 DUP10 ADD PUSH2 0xCBC JUMP JUMPDEST SWAP6 POP POP PUSH1 0x20 PUSH2 0xD5B DUP9 DUP3 DUP10 ADD PUSH2 0xCE6 JUMP JUMPDEST SWAP5 POP POP PUSH1 0x40 PUSH2 0xD6C DUP9 DUP3 DUP10 ADD PUSH2 0xD10 JUMP JUMPDEST SWAP4 POP POP PUSH1 0x60 PUSH2 0xD7D DUP9 DUP3 DUP10 ADD PUSH2 0xD10 JUMP JUMPDEST SWAP3 POP POP PUSH1 0x80 PUSH2 0xD8E DUP9 DUP3 DUP10 ADD PUSH2 0xCBC JUMP JUMPDEST SWAP2 POP POP SWAP3 SWAP6 POP SWAP3 SWAP6 SWAP1 SWAP4 POP JUMP JUMPDEST PUSH32 0x746869732066756E6374696F6E2063616E206F6E6C792062652063616C6C6564 PUSH0 DUP3 ADD MSTORE PUSH32 0x206279206F776E65720000000000000000000000000000000000000000000000 PUSH1 0x20 DUP3 ADD MSTORE POP JUMP JUMPDEST PUSH0 PUSH2 0xDF5 PUSH1 0x29 DUP4 PUSH2 0x91C JUMP JUMPDEST SWAP2 POP PUSH2 0xE00 DUP3 PUSH2 0xD9B JUMP JUMPDEST PUSH1 0x40 DUP3 ADD SWAP1 POP SWAP2 SWAP1 POP JUMP JUMPDEST PUSH0 PUSH1 0x20 DUP3 ADD SWAP1 POP DUP2 DUP2 SUB PUSH0 DUP4 ADD MSTORE PUSH2 0xE22 DUP2 PUSH2 0xDE9 JUMP JUMPDEST SWAP1 POP SWAP2 SWAP1 POP JUMP JUMPDEST PUSH32 0x4E487B7100000000000000000000000000000000000000000000000000000000 PUSH0 MSTORE PUSH1 0x11 PUSH1 0x4 MSTORE PUSH1 0x24 PUSH0 REVERT JUMPDEST PUSH0 PUSH2 0xE60 DUP3 PUSH2 0x892 JUMP JUMPDEST SWAP2 POP PUSH2 0xE6B DUP4 PUSH2 0x892 JUMP JUMPDEST SWAP3 POP DUP3 DUP3 MUL PUSH2 0xE79 DUP2 PUSH2 0x892 JUMP JUMPDEST SWAP2 POP DUP3 DUP3 DIV DUP5 EQ DUP4 ISZERO OR PUSH2 0xE90 JUMPI PUSH2 0xE8F PUSH2 0xE29 JUMP JUMPDEST JUMPDEST POP SWAP3 SWAP2 POP POP JUMP JUMPDEST PUSH32 0x4E487B7100000000000000000000000000000000000000000000000000000000 PUSH0 MSTORE PUSH1 0x12 PUSH1 0x4 MSTORE PUSH1 0x24 PUSH0 REVERT JUMPDEST PUSH0 PUSH2 0xECE DUP3 PUSH2 0x892 JUMP JUMPDEST SWAP2 POP PUSH2 0xED9 DUP4 PUSH2 0x892 JUMP JUMPDEST SWAP3 POP DUP3 PUSH2 0xEE9 JUMPI PUSH2 0xEE8 PUSH2 0xE97 JUMP JUMPDEST JUMPDEST DUP3 DUP3 DIV SWAP1 POP SWAP3 SWAP2 POP POP JUMP INVALID LOG2 PUSH5 0x6970667358 0x22 SLT KECCAK256 SWAP2 0x4F 0xD6 0x2B DATALOADN 0x7A22 0xBC 0xBE 0xC7 SWAP7 PUSH24 0xEBCEB1DA9078F09EFCE1EAD016A61515EBA436EC64736F6C PUSH4 0x4300081E STOP CALLER "
		},
		"gasEstimates": {
			"creation": {
				"codeDepositCost": "776400",
				"executionCost": "71447",
				"totalCost": "847847"
			},
			"external": {
				"FundersAmount(address)": "2824",
				"TransferOwnership(address)": "26928",
				"fund()": "infinite",
				"getChainlinkDataFeedLatestAnswer()": "infinite",
				"getFund()": "infinite",
				"owner()": "2553",
				"refund()": "infinite",
				"target()": "391"
			},
			"internal": {
				"convertEthToUsd(uint256)": "infinite"
			}
		},
		"methodIdentifiers": {
			"FundersAmount(address)": "740c0664",
			"TransferOwnership(address)": "cfaaa266",
			"fund()": "b60d4288",
			"getChainlinkDataFeedLatestAnswer()": "bea4dfb5",
			"getFund()": "8edd6eb6",
			"owner()": "8da5cb5b",
			"refund()": "590e1ae3",
			"target()": "d4b83992"
		}
	},
	"abi": [
		{
			"inputs": [],
			"stateMutability": "nonpayable",
			"type": "constructor"
		},
		{
			"inputs": [
				{
					"internalType": "address",
					"name": "funder",
					"type": "address"
				}
			],
			"name": "FundersAmount",
			"outputs": [
				{
					"internalType": "uint256",
					"name": "",
					"type": "uint256"
				}
			],
			"stateMutability": "view",
			"type": "function"
		},
		{
			"inputs": [
				{
					"internalType": "address",
					"name": "newowner",
					"type": "address"
				}
			],
			"name": "TransferOwnership",
			"outputs": [],
			"stateMutability": "nonpayable",
			"type": "function"
		},
		{
			"inputs": [],
			"name": "fund",
			"outputs": [],
			"stateMutability": "payable",
			"type": "function"
		},
		{
			"inputs": [],
			"name": "getChainlinkDataFeedLatestAnswer",
			"outputs": [
				{
					"internalType": "int256",
					"name": "",
					"type": "int256"
				}
			],
			"stateMutability": "view",
			"type": "function"
		},
		{
			"inputs": [],
			"name": "getFund",
			"outputs": [],
			"stateMutability": "nonpayable",
			"type": "function"
		},
		{
			"inputs": [],
			"name": "owner",
			"outputs": [
				{
					"internalType": "address",
					"name": "",
					"type": "address"
				}
			],
			"stateMutability": "view",
			"type": "function"
		},
		{
			"inputs": [],
			"name": "refund",
			"outputs": [],
			"stateMutability": "nonpayable",
			"type": "function"
		},
		{
			"inputs": [],
			"name": "target",
			"outputs": [
				{
					"internalType": "uint256",
					"name": "",
					"type": "uint256"
				}
			],
			"stateMutability": "view",
			"type": "function"
		}
	]
}